{
  "contractName": "Caller",
  "abi": [
    {
      "inputs": [
        {
          "internalType": "contract NFT",
          "name": "_nft",
          "type": "address"
        }
      ],
      "stateMutability": "nonpayable",
      "type": "constructor"
    },
    {
      "inputs": [
        {
          "internalType": "uint256",
          "name": "_cost",
          "type": "uint256"
        },
        {
          "internalType": "uint256",
          "name": "_pid",
          "type": "uint256"
        },
        {
          "internalType": "string",
          "name": "_UqURL",
          "type": "string"
        },
        {
          "internalType": "string",
          "name": "_name",
          "type": "string"
        },
        {
          "internalType": "string",
          "name": "_description",
          "type": "string"
        },
        {
          "internalType": "string",
          "name": "_url",
          "type": "string"
        },
        {
          "internalType": "string",
          "name": "_trxnHash",
          "type": "string"
        },
        {
          "internalType": "address",
          "name": "_seller",
          "type": "address"
        },
        {
          "internalType": "uint256",
          "name": "_validTill",
          "type": "uint256"
        }
      ],
      "name": "createNFT",
      "outputs": [],
      "stateMutability": "nonpayable",
      "type": "function"
    }
  ],
  "bytecode": "0x608060405234801561001057600080fd5b506040516109e23803806109e2833981810160405281019061003291906100ed565b806000806101000a81548173ffffffffffffffffffffffffffffffffffffffff021916908373ffffffffffffffffffffffffffffffffffffffff1602179055505061011a565b600080fd5b600073ffffffffffffffffffffffffffffffffffffffff82169050919050565b60006100a88261007d565b9050919050565b60006100ba8261009d565b9050919050565b6100ca816100af565b81146100d557600080fd5b50565b6000815190506100e7816100c1565b92915050565b60006020828403121561010357610102610078565b5b6000610111848285016100d8565b91505092915050565b6108b9806101296000396000f3fe608060405234801561001057600080fd5b5060043610610048576000357c010000000000000000000000000000000000000000000000000000000090048063617ac7f71461004d575b600080fd5b610067600480360381019061006291906105a7565b610069565b005b600488036101335760008054906101000a900473ffffffffffffffffffffffffffffffffffffffff1673ffffffffffffffffffffffffffffffffffffffff1663cb9dbee9886001898989898f428b8b60016040518c63ffffffff167c01000000000000000000000000000000000000000000000000000000000281526004016100fc9b9a999897969594939291906107b5565b600060405180830381600087803b15801561011657600080fd5b505af115801561012a573d6000803e3d6000fd5b505050506103ae565b600288036101fd5760008054906101000a900473ffffffffffffffffffffffffffffffffffffffff1673ffffffffffffffffffffffffffffffffffffffff16637c0306f1886001898989898f428b8b60016040518c63ffffffff167c01000000000000000000000000000000000000000000000000000000000281526004016101c69b9a999897969594939291906107b5565b600060405180830381600087803b1580156101e057600080fd5b505af11580156101f4573d6000803e3d6000fd5b505050506103ad565b60018814801561020f57506113888910155b8061021c57506127108910155b156102e35760008054906101000a900473ffffffffffffffffffffffffffffffffffffffff1673ffffffffffffffffffffffffffffffffffffffff1663afaa804d886001898989898f428b8b60006040518c63ffffffff167c01000000000000000000000000000000000000000000000000000000000281526004016102ac9b9a999897969594939291906107b5565b600060405180830381600087803b1580156102c657600080fd5b505af11580156102da573d6000803e3d6000fd5b505050506103ac565b6127108910156103ab5760008054906101000a900473ffffffffffffffffffffffffffffffffffffffff1673ffffffffffffffffffffffffffffffffffffffff166374daf6e1886001898989898f428b8b60016040518c63ffffffff167c01000000000000000000000000000000000000000000000000000000000281526004016103789b9a999897969594939291906107b5565b600060405180830381600087803b15801561039257600080fd5b505af11580156103a6573d6000803e3d6000fd5b505050505b5b5b5b505050505050505050565b6000604051905090565b600080fd5b600080fd5b6000819050919050565b6103e0816103cd565b81146103eb57600080fd5b50565b6000813590506103fd816103d7565b92915050565b600080fd5b600080fd5b6000601f19601f8301169050919050565b7f4e487b7100000000000000000000000000000000000000000000000000000000600052604160045260246000fd5b6104568261040d565b810181811067ffffffffffffffff821117156104755761047461041e565b5b80604052505050565b60006104886103b9565b9050610494828261044d565b919050565b600067ffffffffffffffff8211156104b4576104b361041e565b5b6104bd8261040d565b9050602081019050919050565b82818337600083830152505050565b60006104ec6104e784610499565b61047e565b90508281526020810184848401111561050857610507610408565b5b6105138482856104ca565b509392505050565b600082601f8301126105305761052f610403565b5b81356105408482602086016104d9565b91505092915050565b600073ffffffffffffffffffffffffffffffffffffffff82169050919050565b600061057482610549565b9050919050565b61058481610569565b811461058f57600080fd5b50565b6000813590506105a18161057b565b92915050565b60008060008060008060008060006101208a8c0312156105ca576105c96103c3565b5b60006105d88c828d016103ee565b99505060206105e98c828d016103ee565b98505060408a013567ffffffffffffffff81111561060a576106096103c8565b5b6106168c828d0161051b565b97505060608a013567ffffffffffffffff811115610637576106366103c8565b5b6106438c828d0161051b565b96505060808a013567ffffffffffffffff811115610664576106636103c8565b5b6106708c828d0161051b565b95505060a08a013567ffffffffffffffff811115610691576106906103c8565b5b61069d8c828d0161051b565b94505060c08a013567ffffffffffffffff8111156106be576106bd6103c8565b5b6106ca8c828d0161051b565b93505060e06106db8c828d01610592565b9250506101006106ed8c828d016103ee565b9150509295985092959850929598565b600081519050919050565b600082825260208201905092915050565b60005b8381101561073757808201518184015260208101905061071c565b60008484015250505050565b600061074e826106fd565b6107588185610708565b9350610768818560208601610719565b6107718161040d565b840191505092915050565b60008115159050919050565b6107918161077c565b82525050565b6107a0816103cd565b82525050565b6107af81610569565b82525050565b60006101608201905081810360008301526107d0818e610743565b90506107df602083018d610788565b81810360408301526107f1818c610743565b90508181036060830152610805818b610743565b90508181036080830152610819818a610743565b905081810360a083015261082d8189610743565b905061083c60c0830188610797565b61084960e0830187610797565b6108576101008301866107a6565b610865610120830185610797565b610873610140830184610788565b9c9b50505050505050505050505056fea264697066735822122004a2cc529a775d8aea3eca2f943fe3d96820cebd2e8fe0fcd4258d298a45161664736f6c63430008110033",
  "immutableReferences": {},
  "source": "// SPDX-License-Identifier: MIT\r\npragma solidity >=0.4.22 <0.9.0;\r\nimport \"./NFT.sol\";\r\n\r\ncontract Caller {\r\n    //Creating the Contracts instances of NFT CONTRACT\r\n    NFT nft_;\r\n\r\n    //updating the contracts instances with the addresses of the constructor\r\n    constructor(NFT _nft) {\r\n        nft_ = NFT(_nft);\r\n    }\r\n\r\n    // //NOW WE CAN CALL THE CONTRACTS, BASED UPON THE THE SEPCIFICATIONS DECIDED AT FINAL....\r\n    // // DEMO FUNCTIONS...\r\n\r\n    // //createNFT function will check the parameters that are coming from front, and then segrigate, which NFT to create.\r\n    // // _pid is for either it is electric, grocery, /... 1 for electricity, 2 for grocery and so on...\r\n    // //1 = special i.e electrical/>10000  || electrical and cost>=5000 //done\r\n    // //2 = prelaunch    //done\r\n    // //3 = generic everything less than 10K\r\n    // //4 = Non transferable i.e music, video etc. //done\r\n\r\n    function createNFT(\r\n        uint256 _cost,\r\n        uint256 _pid,\r\n        string memory _UqURL,\r\n        string memory _name,\r\n        string memory _description,\r\n        string memory _url,\r\n        string memory _trxnHash,\r\n        address _seller,\r\n        uint256 _validTill\r\n    ) public {\r\n        if (_pid == 4) {\r\n            // if it is pid==4, then it is non-transferabble.\r\n            nft_._NonTransferableNFT(\r\n                _UqURL,\r\n                true,\r\n                _name,\r\n                _description,\r\n                _url,\r\n                _trxnHash,\r\n                _pid,\r\n                block.timestamp,\r\n                _seller,\r\n                _validTill,\r\n                true\r\n            );\r\n        } else if (_pid == 2) {\r\n            // if it is pid==2, then it is prelaunch item.\r\n            nft_._PreLaunch(\r\n                _UqURL,\r\n                true,\r\n                _name,\r\n                _description,\r\n                _url,\r\n                _trxnHash,\r\n                _pid,\r\n                block.timestamp,\r\n                _seller,\r\n                _validTill,\r\n                true\r\n            );\r\n        } else if ((_pid == 1 && _cost >= 5000) || _cost >= 10000) {\r\n            //if it is electrical, then only create special...//or if it is greater than 10K.\r\n            nft_._Special(\r\n                _UqURL,\r\n                true,\r\n                _name,\r\n                _description,\r\n                _url,\r\n                _trxnHash,\r\n                _pid,\r\n                block.timestamp,\r\n                _seller,\r\n                _validTill,\r\n                false\r\n            );\r\n        } else if (_cost < 10000) {\r\n            //if it is less than 10K\r\n            nft_._Generic(\r\n                _UqURL,\r\n                true,\r\n                _name,\r\n                _description,\r\n                _url,\r\n                _trxnHash,\r\n                _pid,\r\n                block.timestamp,\r\n                _seller,\r\n                _validTill,\r\n                true\r\n            );\r\n        }\r\n    }\r\n}\r\n",
  "sourcePath": "C:\\Users\\Neeraj\\Desktop\\Sterling Store\\src\\contracts\\Caller.sol",
  "compiler": {
    "name": "solc",
    "version": "0.8.17+commit.8df45f5f.Emscripten.clang"
  },
  "schemaVersion": "3.4.11",
  "updatedAt": "2023-01-17T11:04:29.493Z",
  "devdoc": {
    "kind": "dev",
    "methods": {},
    "version": 1
  },
  "userdoc": {
    "kind": "user",
    "methods": {},
    "version": 1
  }
}