{
  "contractName": "Caller",
  "abi": [
    {
      "inputs": [
        {
          "internalType": "contract GenericNFT",
          "name": "_genericContractAddress",
          "type": "address"
        },
        {
          "internalType": "contract SpecialNFT",
          "name": "_specialContractAddress",
          "type": "address"
        },
        {
          "internalType": "contract NonTransferableNFT",
          "name": "_nonTransferableContractAddress",
          "type": "address"
        },
        {
          "internalType": "contract PreLaunchNFT",
          "name": "_preLaunchContractAddress",
          "type": "address"
        }
      ],
      "stateMutability": "nonpayable",
      "type": "constructor"
    },
    {
      "inputs": [
        {
          "internalType": "uint256",
          "name": "_cost",
          "type": "uint256"
        },
        {
          "internalType": "uint256",
          "name": "_pid",
          "type": "uint256"
        }
      ],
      "name": "createNFT",
      "outputs": [],
      "stateMutability": "nonpayable",
      "type": "function"
    },
    {
      "inputs": [],
      "name": "add",
      "outputs": [
        {
          "internalType": "uint256",
          "name": "",
          "type": "uint256"
        }
      ],
      "stateMutability": "nonpayable",
      "type": "function"
    }
  ],
  "bytecode": "0x60806040523480156200001157600080fd5b50604051620008de380380620008de833981810160405281019062000037919062000291565b836000806101000a81548173ffffffffffffffffffffffffffffffffffffffff021916908373ffffffffffffffffffffffffffffffffffffffff16021790555082600160006101000a81548173ffffffffffffffffffffffffffffffffffffffff021916908373ffffffffffffffffffffffffffffffffffffffff16021790555081600260006101000a81548173ffffffffffffffffffffffffffffffffffffffff021916908373ffffffffffffffffffffffffffffffffffffffff16021790555080600360006101000a81548173ffffffffffffffffffffffffffffffffffffffff021916908373ffffffffffffffffffffffffffffffffffffffff1602179055505050505062000303565b600080fd5b600073ffffffffffffffffffffffffffffffffffffffff82169050919050565b6000620001768262000149565b9050919050565b60006200018a8262000169565b9050919050565b6200019c816200017d565b8114620001a857600080fd5b50565b600081519050620001bc8162000191565b92915050565b6000620001cf8262000169565b9050919050565b620001e181620001c2565b8114620001ed57600080fd5b50565b6000815190506200020181620001d6565b92915050565b6000620002148262000169565b9050919050565b620002268162000207565b81146200023257600080fd5b50565b60008151905062000246816200021b565b92915050565b6000620002598262000169565b9050919050565b6200026b816200024c565b81146200027757600080fd5b50565b6000815190506200028b8162000260565b92915050565b60008060008060808587031215620002ae57620002ad62000144565b5b6000620002be87828801620001ab565b9450506020620002d187828801620001f0565b9350506040620002e48782880162000235565b9250506060620002f7878288016200027a565b91505092959194509250565b6105cb80620003136000396000f3fe608060405234801561001057600080fd5b5060043610610053576000357c01000000000000000000000000000000000000000000000000000000009004806309a19f22146100585780634f2be91f14610074575b600080fd5b610072600480360381019061006d91906101a6565b610092565b005b61007c610162565b60405161008991906101f5565b60405180910390f35b6004810361015e57600260009054906101000a900473ffffffffffffffffffffffffffffffffffffffff1673ffffffffffffffffffffffffffffffffffffffff16631e986c6660016004735b38da6a701c568545dcfcb03fcb875f56beddc46040518463ffffffff167c010000000000000000000000000000000000000000000000000000000002815260040161012b939291906104d6565b600060405180830381600087803b15801561014557600080fd5b505af1158015610159573d6000803e3d6000fd5b505050505b5050565b60006003905090565b600080fd5b6000819050919050565b61018381610170565b811461018e57600080fd5b50565b6000813590506101a08161017a565b92915050565b600080604083850312156101bd576101bc61016b565b5b60006101cb85828601610191565b92505060206101dc85828601610191565b9150509250929050565b6101ef81610170565b82525050565b600060208201905061020a60008301846101e6565b92915050565b600082825260208201905092915050565b7f6161660000000000000000000000000000000000000000000000000000000000600082015250565b6000610257600383610210565b915061026282610221565b602082019050919050565b60008115159050919050565b6102828161026d565b82525050565b7f6e656572616a0000000000000000000000000000000000000000000000000000600082015250565b60006102be600683610210565b91506102c982610288565b602082019050919050565b7f7468697320697320206f776e6572000000000000000000000000000000000000600082015250565b600061030a600e83610210565b9150610315826102d4565b602082019050919050565b7f68747470733a2f2f6769746875622e636f6d2f566961356b0000000000000000600082015250565b6000610356601883610210565b915061036182610320565b602082019050919050565b7f323335776267736a646b676b6731326577000000000000000000000000000000600082015250565b60006103a2601183610210565b91506103ad8261036c565b602082019050919050565b6000819050919050565b6000819050919050565b60006103e76103e26103dd846103b8565b6103c2565b610170565b9050919050565b6103f7816103cc565b82525050565b7f3134303132303233000000000000000000000000000000000000000000000000600082015250565b6000610433600883610210565b915061043e826103fd565b602082019050919050565b600073ffffffffffffffffffffffffffffffffffffffff82169050919050565b600061047482610449565b9050919050565b61048481610469565b82525050565b7f3238303132303233000000000000000000000000000000000000000000000000600082015250565b60006104c0600883610210565b91506104cb8261048a565b602082019050919050565b60006101408201905081810360008301526104f08161024a565b90506104ff6020830186610279565b8181036040830152610510816102b1565b90508181036060830152610523816102fd565b9050818103608083015261053681610349565b905081810360a083015261054981610395565b905061055860c08301856103ee565b81810360e083015261056981610426565b905061057961010083018461047b565b81810361012083015261058b816104b3565b905094935050505056fea26469706673582212201077eb5c22cdb99f34d4538299dac4e0af07df1c9ab789791705e6ebd2bb381564736f6c63430008110033",
  "immutableReferences": {},
  "source": "// SPDX-License-Identifier: MIT\r\npragma solidity >=0.4.22 <0.9.0;\r\nimport \"./GenericNFT.sol\";\r\nimport \"./PreLaunchNFT.sol\";\r\nimport \"./NonTransferableNFT.sol\";\r\nimport \"./SpecialNFT.sol\";\r\n\r\ncontract Caller {\r\n    //Creating the Contracts instances of Doctor and Patient.\r\n    GenericNFT generic_;\r\n    SpecialNFT special_;\r\n    NonTransferableNFT non_transferable_;\r\n    PreLaunchNFT prelaunch_;\r\n\r\n    constructor(\r\n        GenericNFT _genericContractAddress,\r\n        SpecialNFT _specialContractAddress,\r\n        NonTransferableNFT _nonTransferableContractAddress,\r\n        PreLaunchNFT _preLaunchContractAddress\r\n    ) {\r\n        //updating the contracts instances with the addresses of the constructor\r\n        generic_ = GenericNFT(_genericContractAddress);\r\n        special_ = SpecialNFT(_specialContractAddress);\r\n        non_transferable_ = NonTransferableNFT(_nonTransferableContractAddress);\r\n        prelaunch_ = PreLaunchNFT(_preLaunchContractAddress);\r\n    }\r\n\r\n    // //NOW WE CAN CALL THE CONTRACTS, BASED UPON THE THE SEPCIFICATIONS DECIDED AT FINAL....\r\n    // // DEMO FUNCTIONS...\r\n\r\n    // //createNFT function will check the parameters that are coming from front, and then segrigate, which NFT to create.\r\n    // // _pid is for either it is electric, grocery, /... 1 for electricity, 2 for grocery and so on...\r\n    // //1 = special i.e electrical/>10000  || electrical and cost>=5000 //done\r\n    // //2 = prelaunch    //done\r\n    // //3 = generic everything less than 10K\r\n    // //4 = Non transferable i.e music, video etc. //done\r\n\r\n    function createNFT(uint256 _cost, uint256 _pid) public {\r\n        //also need to pass the parameter in make function....\r\n\r\n        if (_pid == 4) {\r\n            non_transferable_.mint(\r\n                \"aaf\",\r\n                true,\r\n                \"neeraj\",\r\n                \"this is  owner\",\r\n                \"https://github.com/Via5k\",\r\n                \"235wbgsjdkgkg12ew\",\r\n                4,\r\n                \"14012023\",\r\n                0x5B38Da6a701c568545dCfcB03FcB875f56beddC4,\r\n                \"28012023\"\r\n            ); // if it is pid==4, then it is non-transferabble.\r\n        }\r\n        // else if (_pid == 2) {\r\n        //     prelaunch_.make(); // if it is pid==2, then it is prelaunch item.\r\n        // } else if ((_pid == 1 && _cost >= 5000) || _cost >= 10000) {\r\n        //     special_.make(); //if it is electrical, then only create special...\r\n        //     //or if it is greater than 10K.\r\n        // } else if (_cost < 10000) {\r\n        //     generic_.make(); //if it is less than 10K\r\n        // }\r\n    }\r\n\r\n    function add() public returns (uint256) {\r\n        return 1 + 2;\r\n    }\r\n}\r\n",
  "sourcePath": "C:\\Users\\Neeraj\\Desktop\\Sterling Store\\src\\contracts\\Caller.sol",
  "compiler": {
    "name": "solc",
    "version": "0.8.17+commit.8df45f5f.Emscripten.clang"
  },
  "schemaVersion": "3.4.11",
  "updatedAt": "2023-01-14T17:03:04.293Z",
  "networkType": "ethereum",
  "devdoc": {
    "kind": "dev",
    "methods": {},
    "version": 1
  },
  "userdoc": {
    "kind": "user",
    "methods": {},
    "version": 1
  }
}