{
  "contractName": "Caller",
  "abi": [
    {
      "inputs": [
        {
          "internalType": "contract NFT",
          "name": "_nft",
          "type": "address"
        }
      ],
      "stateMutability": "nonpayable",
      "type": "constructor"
    },
    {
      "inputs": [
        {
          "internalType": "uint256",
          "name": "_cost",
          "type": "uint256"
        },
        {
          "internalType": "uint256",
          "name": "_pid",
          "type": "uint256"
        },
        {
          "internalType": "string",
          "name": "_UqURL",
          "type": "string"
        },
        {
          "internalType": "string",
          "name": "_name",
          "type": "string"
        },
        {
          "internalType": "string",
          "name": "_description",
          "type": "string"
        },
        {
          "internalType": "string",
          "name": "_url",
          "type": "string"
        },
        {
          "internalType": "string",
          "name": "_trxnHash",
          "type": "string"
        },
        {
          "internalType": "address",
          "name": "_seller",
          "type": "address"
        },
        {
          "internalType": "uint256",
          "name": "_validTill",
          "type": "uint256"
        }
      ],
      "name": "createNFT",
      "outputs": [],
      "stateMutability": "nonpayable",
      "type": "function"
    }
  ],
  "bytecode": "0x608060405234801561001057600080fd5b5060405161062d38038061062d83398101604081905261002f91610054565b60008054600160a060020a031916600160a060020a0392909216919091179055610084565b60006020828403121561006657600080fd5b8151600160a060020a038116811461007d57600080fd5b9392505050565b61059a806100936000396000f3fe608060405234801561001057600080fd5b5060043610610047577c01000000000000000000000000000000000000000000000000000000006000350463617ac7f7811461004c575b600080fd5b61005f61005a366004610366565b610061565b005b876004036100fe576000546040517f60bd3e26000000000000000000000000000000000000000000000000000000008152600160a060020a03909116906360bd3e26906100c7908a906001908b908b908b908b9060049042908d908d90339085016104ac565b600060405180830381600087803b1580156100e157600080fd5b505af11580156100f5573d6000803e3d6000fd5b50505050610283565b87600203610165576000546040517fb5a9d5ef000000000000000000000000000000000000000000000000000000008152600160a060020a039091169063b5a9d5ef906100c7908a906001908b908b908b908b9060029042908d908d9033906004016104ac565b87600114801561017757506113888910155b8061018457506127108910155b156101e7576000546040517f055a56f9000000000000000000000000000000000000000000000000000000008152600160a060020a039091169063055a56f9906100c7908a906001908b908b908b908b90859042908d908d9033906004016104ac565b612710891015610283576000546040517f22187a14000000000000000000000000000000000000000000000000000000008152600160a060020a03909116906322187a1490610250908a906001908b908b908b908b9060039042908d908d9033906004016104ac565b600060405180830381600087803b15801561026a57600080fd5b505af115801561027e573d6000803e3d6000fd5b505050505b505050505050505050565b7f4e487b7100000000000000000000000000000000000000000000000000000000600052604160045260246000fd5b600082601f8301126102ce57600080fd5b813567ffffffffffffffff808211156102e9576102e961028e565b604051601f8301601f19908116603f011681019082821181831017156103115761031161028e565b8160405283815286602085880101111561032a57600080fd5b836020870160208301376000602085830101528094505050505092915050565b8035600160a060020a038116811461036157600080fd5b919050565b60008060008060008060008060006101208a8c03121561038557600080fd5b8935985060208a0135975060408a013567ffffffffffffffff808211156103ab57600080fd5b6103b78d838e016102bd565b985060608c01359150808211156103cd57600080fd5b6103d98d838e016102bd565b975060808c01359150808211156103ef57600080fd5b6103fb8d838e016102bd565b965060a08c013591508082111561041157600080fd5b61041d8d838e016102bd565b955060c08c013591508082111561043357600080fd5b506104408c828d016102bd565b93505061044f60e08b0161034a565b91506101008a013590509295985092959850929598565b6000815180845260005b8181101561048c57602081850181015186830182015201610470565b506000602082860101526020601f19601f83011685010191505092915050565b60006101608083526104c08184018f610466565b90508c1515602084015282810360408401526104dc818d610466565b905082810360608401526104f0818c610466565b90508281036080840152610504818b610466565b905082810360a0840152610518818a610466565b9150508660c08301528560e0830152600160a060020a03851661010083015283610120830152610554610140830184600160a060020a03169052565b9c9b50505050505050505050505056fea2646970667358221220119caa4d27c1feade3443257d985d9445a41e4a9e86dff8e6f1fc17ced9178e964736f6c63430008140033",
  "immutableReferences": {},
  "source": "// SPDX-License-Identifier: MIT\r\npragma solidity >=0.4.22 <0.9.0;\r\nimport \"./NFT.sol\";\r\n\r\ncontract Caller {\r\n    //Creating the Contracts instances of NFT CONTRACT\r\n    NFT nft_;\r\n\r\n    //updating the contracts instances with the addresses of the constructor\r\n    constructor(NFT _nft) {\r\n        nft_ = NFT(_nft);\r\n    }\r\n\r\n    // //NOW WE CAN CALL THE CONTRACTS, BASED UPON THE THE SEPCIFICATIONS DECIDED AT FINAL....\r\n    // // DEMO FUNCTIONS...\r\n\r\n    // //createNFT function will check the parameters that are coming from front, and then segrigate, which NFT to create.\r\n    // // _pid is for either it is electric, grocery, /... 1 for electricity, 2 for grocery and so on...\r\n    // //1 = special i.e electrical/>10000  || electrical and cost>=5000 //done\r\n    // //2 = prelaunch    //done\r\n    // //3 = generic everything less than 10K\r\n    // //4 = Non transferable i.e music, video etc. //done\r\n\r\n    function createNFT(\r\n        uint256 _cost,\r\n        uint256 _pid,\r\n        string memory _UqURL,\r\n        string memory _name,\r\n        string memory _description,\r\n        string memory _url,\r\n        string memory _trxnHash,\r\n        address _seller,\r\n        uint256 _validTill\r\n    ) public {\r\n        if (_pid == 4) {\r\n            // if it is pid==4, then it is non-transferabble.\r\n            nft_._NonTransferableNFT(\r\n                _UqURL,\r\n                true,\r\n                _name,\r\n                _description,\r\n                _url,\r\n                _trxnHash,\r\n                4,\r\n                block.timestamp,\r\n                _seller,\r\n                _validTill,\r\n                msg.sender\r\n            );\r\n        } else if (_pid == 2) {\r\n            // if it is pid==2, then it is prelaunch item.\r\n            nft_._PreLaunch(\r\n                _UqURL,\r\n                true,\r\n                _name,\r\n                _description,\r\n                _url,\r\n                _trxnHash,\r\n                2,\r\n                block.timestamp,\r\n                _seller,\r\n                _validTill,\r\n                msg.sender\r\n            );\r\n        } else if ((_pid == 1 && _cost >= 5000) || _cost >= 10000) {\r\n            //if it is electrical, then only create special...//or if it is greater than 10K.\r\n            nft_._Special(\r\n                _UqURL,\r\n                true,\r\n                _name,\r\n                _description,\r\n                _url,\r\n                _trxnHash,\r\n                1,\r\n                block.timestamp,\r\n                _seller,\r\n                _validTill,\r\n                msg.sender\r\n            );\r\n        } else if (_cost < 10000) {\r\n            //if it is less than 10K\r\n            nft_._Generic(\r\n                _UqURL,\r\n                true,\r\n                _name,\r\n                _description,\r\n                _url,\r\n                _trxnHash,\r\n                3,\r\n                block.timestamp,\r\n                _seller,\r\n                _validTill,\r\n                msg.sender\r\n            );\r\n        }\r\n    }\r\n}\r\n",
  "sourcePath": "C:\\Users\\Neeraj\\Desktop\\Sterling Store\\src\\contracts\\Caller.sol",
  "compiler": {
    "name": "solc",
    "version": "0.8.20+commit.a1b79de6.Emscripten.clang"
  },
  "schemaVersion": "3.4.11",
  "updatedAt": "2023-05-21T13:19:52.871Z",
  "devdoc": {
    "kind": "dev",
    "methods": {},
    "version": 1
  },
  "userdoc": {
    "kind": "user",
    "methods": {},
    "version": 1
  }
}