{
  "contractName": "checkRefurbished",
  "abi": [
    {
      "anonymous": false,
      "inputs": [
        {
          "indexed": true,
          "internalType": "address",
          "name": "_owner",
          "type": "address"
        },
        {
          "indexed": true,
          "internalType": "address",
          "name": "_approved",
          "type": "address"
        },
        {
          "indexed": true,
          "internalType": "uint256",
          "name": "_tokenId",
          "type": "uint256"
        }
      ],
      "name": "Approval",
      "type": "event"
    },
    {
      "anonymous": false,
      "inputs": [
        {
          "indexed": true,
          "internalType": "address",
          "name": "_from",
          "type": "address"
        },
        {
          "indexed": true,
          "internalType": "address",
          "name": "_to",
          "type": "address"
        },
        {
          "indexed": true,
          "internalType": "uint256",
          "name": "_tokenId",
          "type": "uint256"
        }
      ],
      "name": "Transfer",
      "type": "event"
    },
    {
      "inputs": [
        {
          "internalType": "uint256",
          "name": "",
          "type": "uint256"
        }
      ],
      "name": "NFTinfo",
      "outputs": [
        {
          "internalType": "bool",
          "name": "minted",
          "type": "bool"
        },
        {
          "internalType": "string",
          "name": "name",
          "type": "string"
        },
        {
          "internalType": "string",
          "name": "description",
          "type": "string"
        },
        {
          "internalType": "string",
          "name": "url",
          "type": "string"
        },
        {
          "internalType": "string",
          "name": "trxnHash",
          "type": "string"
        },
        {
          "internalType": "uint256",
          "name": "nftType",
          "type": "uint256"
        },
        {
          "internalType": "uint256",
          "name": "boughtOn",
          "type": "uint256"
        },
        {
          "internalType": "address",
          "name": "seller",
          "type": "address"
        },
        {
          "internalType": "uint256",
          "name": "ExpireOn",
          "type": "uint256"
        },
        {
          "internalType": "bool",
          "name": "expireable",
          "type": "bool"
        }
      ],
      "stateMutability": "view",
      "type": "function"
    },
    {
      "inputs": [
        {
          "internalType": "uint256",
          "name": "",
          "type": "uint256"
        }
      ],
      "name": "NFTs",
      "outputs": [
        {
          "internalType": "string",
          "name": "",
          "type": "string"
        }
      ],
      "stateMutability": "view",
      "type": "function"
    },
    {
      "inputs": [
        {
          "internalType": "string",
          "name": "_nft",
          "type": "string"
        },
        {
          "internalType": "bool",
          "name": "_minted",
          "type": "bool"
        },
        {
          "internalType": "string",
          "name": "_name",
          "type": "string"
        },
        {
          "internalType": "string",
          "name": "_description",
          "type": "string"
        },
        {
          "internalType": "string",
          "name": "_url",
          "type": "string"
        },
        {
          "internalType": "string",
          "name": "_trxnHash",
          "type": "string"
        },
        {
          "internalType": "uint256",
          "name": "_nftType",
          "type": "uint256"
        },
        {
          "internalType": "uint256",
          "name": "_boughtOn",
          "type": "uint256"
        },
        {
          "internalType": "address",
          "name": "_seller",
          "type": "address"
        },
        {
          "internalType": "uint256",
          "name": "_ExpireOn",
          "type": "uint256"
        },
        {
          "internalType": "bool",
          "name": "_expireable",
          "type": "bool"
        }
      ],
      "name": "_Generic",
      "outputs": [],
      "stateMutability": "nonpayable",
      "type": "function"
    },
    {
      "inputs": [
        {
          "internalType": "string",
          "name": "_nft",
          "type": "string"
        },
        {
          "internalType": "bool",
          "name": "_minted",
          "type": "bool"
        },
        {
          "internalType": "string",
          "name": "_name",
          "type": "string"
        },
        {
          "internalType": "string",
          "name": "_description",
          "type": "string"
        },
        {
          "internalType": "string",
          "name": "_url",
          "type": "string"
        },
        {
          "internalType": "string",
          "name": "_trxnHash",
          "type": "string"
        },
        {
          "internalType": "uint256",
          "name": "_nftType",
          "type": "uint256"
        },
        {
          "internalType": "uint256",
          "name": "_boughtOn",
          "type": "uint256"
        },
        {
          "internalType": "address",
          "name": "_seller",
          "type": "address"
        },
        {
          "internalType": "uint256",
          "name": "_ExpireOn",
          "type": "uint256"
        },
        {
          "internalType": "bool",
          "name": "_expireable",
          "type": "bool"
        }
      ],
      "name": "_NonTransferableNFT",
      "outputs": [],
      "stateMutability": "nonpayable",
      "type": "function"
    },
    {
      "inputs": [
        {
          "internalType": "string",
          "name": "_nft",
          "type": "string"
        },
        {
          "internalType": "bool",
          "name": "_minted",
          "type": "bool"
        },
        {
          "internalType": "string",
          "name": "_name",
          "type": "string"
        },
        {
          "internalType": "string",
          "name": "_description",
          "type": "string"
        },
        {
          "internalType": "string",
          "name": "_url",
          "type": "string"
        },
        {
          "internalType": "string",
          "name": "_trxnHash",
          "type": "string"
        },
        {
          "internalType": "uint256",
          "name": "_nftType",
          "type": "uint256"
        },
        {
          "internalType": "uint256",
          "name": "_boughtOn",
          "type": "uint256"
        },
        {
          "internalType": "address",
          "name": "_seller",
          "type": "address"
        },
        {
          "internalType": "uint256",
          "name": "_ExpireOn",
          "type": "uint256"
        },
        {
          "internalType": "bool",
          "name": "_expireable",
          "type": "bool"
        }
      ],
      "name": "_PreLaunch",
      "outputs": [],
      "stateMutability": "nonpayable",
      "type": "function"
    },
    {
      "inputs": [
        {
          "internalType": "string",
          "name": "_nft",
          "type": "string"
        },
        {
          "internalType": "bool",
          "name": "_minted",
          "type": "bool"
        },
        {
          "internalType": "string",
          "name": "_name",
          "type": "string"
        },
        {
          "internalType": "string",
          "name": "_description",
          "type": "string"
        },
        {
          "internalType": "string",
          "name": "_url",
          "type": "string"
        },
        {
          "internalType": "string",
          "name": "_trxnHash",
          "type": "string"
        },
        {
          "internalType": "uint256",
          "name": "_nftType",
          "type": "uint256"
        },
        {
          "internalType": "uint256",
          "name": "_boughtOn",
          "type": "uint256"
        },
        {
          "internalType": "address",
          "name": "_seller",
          "type": "address"
        },
        {
          "internalType": "uint256",
          "name": "_ExpireOn",
          "type": "uint256"
        },
        {
          "internalType": "bool",
          "name": "_expireable",
          "type": "bool"
        }
      ],
      "name": "_Special",
      "outputs": [],
      "stateMutability": "nonpayable",
      "type": "function"
    },
    {
      "inputs": [
        {
          "internalType": "uint256",
          "name": "tokenId",
          "type": "uint256"
        }
      ],
      "name": "_exists",
      "outputs": [
        {
          "internalType": "bool",
          "name": "",
          "type": "bool"
        }
      ],
      "stateMutability": "view",
      "type": "function"
    },
    {
      "inputs": [
        {
          "internalType": "uint256",
          "name": "_expiryDate",
          "type": "uint256"
        },
        {
          "internalType": "uint256",
          "name": "_tokenId",
          "type": "uint256"
        }
      ],
      "name": "addExpiredOn",
      "outputs": [],
      "stateMutability": "nonpayable",
      "type": "function"
    },
    {
      "inputs": [],
      "name": "addNewBoughtOn",
      "outputs": [],
      "stateMutability": "nonpayable",
      "type": "function"
    },
    {
      "inputs": [
        {
          "internalType": "uint256",
          "name": "_tokenId",
          "type": "uint256"
        },
        {
          "internalType": "bool",
          "name": "_minted",
          "type": "bool"
        },
        {
          "internalType": "string",
          "name": "_name",
          "type": "string"
        },
        {
          "internalType": "string",
          "name": "_description",
          "type": "string"
        },
        {
          "internalType": "string",
          "name": "_url",
          "type": "string"
        },
        {
          "internalType": "string",
          "name": "_trxnHash",
          "type": "string"
        },
        {
          "internalType": "uint256",
          "name": "_nftType",
          "type": "uint256"
        },
        {
          "internalType": "uint256",
          "name": "_boughtOn",
          "type": "uint256"
        },
        {
          "internalType": "address",
          "name": "_seller",
          "type": "address"
        },
        {
          "internalType": "uint256",
          "name": "_ExpireOn",
          "type": "uint256"
        },
        {
          "internalType": "bool",
          "name": "_expireable",
          "type": "bool"
        }
      ],
      "name": "addNftProp",
      "outputs": [],
      "stateMutability": "nonpayable",
      "type": "function"
    },
    {
      "inputs": [
        {
          "internalType": "uint256",
          "name": "_exp",
          "type": "uint256"
        }
      ],
      "name": "addTempExp",
      "outputs": [],
      "stateMutability": "nonpayable",
      "type": "function"
    },
    {
      "inputs": [
        {
          "internalType": "address",
          "name": "_to",
          "type": "address"
        },
        {
          "internalType": "uint256",
          "name": "_tokenId",
          "type": "uint256"
        }
      ],
      "name": "approve",
      "outputs": [],
      "stateMutability": "nonpayable",
      "type": "function"
    },
    {
      "inputs": [
        {
          "internalType": "address",
          "name": "_owner",
          "type": "address"
        }
      ],
      "name": "balanceOf",
      "outputs": [
        {
          "internalType": "uint256",
          "name": "",
          "type": "uint256"
        }
      ],
      "stateMutability": "view",
      "type": "function"
    },
    {
      "inputs": [],
      "name": "boughtOn",
      "outputs": [
        {
          "internalType": "uint256",
          "name": "",
          "type": "uint256"
        }
      ],
      "stateMutability": "view",
      "type": "function"
    },
    {
      "inputs": [
        {
          "internalType": "uint256",
          "name": "tokenId",
          "type": "uint256"
        },
        {
          "internalType": "uint256",
          "name": "_NumberOfItems",
          "type": "uint256"
        },
        {
          "internalType": "uint256",
          "name": "_cap",
          "type": "uint256"
        }
      ],
      "name": "buyBulk",
      "outputs": [],
      "stateMutability": "nonpayable",
      "type": "function"
    },
    {
      "inputs": [
        {
          "internalType": "uint256",
          "name": "__ExpireOn",
          "type": "uint256"
        }
      ],
      "name": "ifTimeHasPassed",
      "outputs": [
        {
          "internalType": "bool",
          "name": "",
          "type": "bool"
        }
      ],
      "stateMutability": "view",
      "type": "function"
    },
    {
      "inputs": [
        {
          "internalType": "string",
          "name": "_nft",
          "type": "string"
        }
      ],
      "name": "mint",
      "outputs": [],
      "stateMutability": "nonpayable",
      "type": "function"
    },
    {
      "inputs": [
        {
          "internalType": "address",
          "name": "to",
          "type": "address"
        },
        {
          "internalType": "string",
          "name": "_nft",
          "type": "string"
        }
      ],
      "name": "mintToOthers",
      "outputs": [],
      "stateMutability": "nonpayable",
      "type": "function"
    },
    {
      "inputs": [],
      "name": "name",
      "outputs": [
        {
          "internalType": "string",
          "name": "",
          "type": "string"
        }
      ],
      "stateMutability": "view",
      "type": "function"
    },
    {
      "inputs": [
        {
          "internalType": "uint256",
          "name": "_id",
          "type": "uint256"
        }
      ],
      "name": "nftVal",
      "outputs": [
        {
          "internalType": "string",
          "name": "",
          "type": "string"
        }
      ],
      "stateMutability": "view",
      "type": "function"
    },
    {
      "inputs": [],
      "name": "nftsLen",
      "outputs": [
        {
          "internalType": "uint256",
          "name": "",
          "type": "uint256"
        }
      ],
      "stateMutability": "view",
      "type": "function"
    },
    {
      "inputs": [],
      "name": "owner",
      "outputs": [
        {
          "internalType": "address",
          "name": "",
          "type": "address"
        }
      ],
      "stateMutability": "view",
      "type": "function"
    },
    {
      "inputs": [
        {
          "internalType": "uint256",
          "name": "_tokenId",
          "type": "uint256"
        }
      ],
      "name": "ownerOf",
      "outputs": [
        {
          "internalType": "address",
          "name": "",
          "type": "address"
        }
      ],
      "stateMutability": "view",
      "type": "function"
    },
    {
      "inputs": [
        {
          "internalType": "address",
          "name": "_owner",
          "type": "address"
        }
      ],
      "name": "ownerTokens",
      "outputs": [
        {
          "internalType": "uint256",
          "name": "",
          "type": "uint256"
        }
      ],
      "stateMutability": "view",
      "type": "function"
    },
    {
      "inputs": [
        {
          "internalType": "address",
          "name": "_of",
          "type": "address"
        },
        {
          "internalType": "string",
          "name": "__url",
          "type": "string"
        }
      ],
      "name": "removeAllExpiredNFT",
      "outputs": [],
      "stateMutability": "nonpayable",
      "type": "function"
    },
    {
      "inputs": [
        {
          "internalType": "uint256",
          "name": "tokenId",
          "type": "uint256"
        },
        {
          "internalType": "string",
          "name": "_nftURL",
          "type": "string"
        }
      ],
      "name": "setURL",
      "outputs": [],
      "stateMutability": "nonpayable",
      "type": "function"
    },
    {
      "inputs": [
        {
          "internalType": "bytes4",
          "name": "interfaceID",
          "type": "bytes4"
        }
      ],
      "name": "supportsInterface",
      "outputs": [
        {
          "internalType": "bool",
          "name": "",
          "type": "bool"
        }
      ],
      "stateMutability": "view",
      "type": "function"
    },
    {
      "inputs": [],
      "name": "symbol",
      "outputs": [
        {
          "internalType": "string",
          "name": "",
          "type": "string"
        }
      ],
      "stateMutability": "view",
      "type": "function"
    },
    {
      "inputs": [],
      "name": "tempExp",
      "outputs": [
        {
          "internalType": "uint256",
          "name": "",
          "type": "uint256"
        }
      ],
      "stateMutability": "view",
      "type": "function"
    },
    {
      "inputs": [
        {
          "internalType": "uint256",
          "name": "_index",
          "type": "uint256"
        }
      ],
      "name": "tokenByIndex",
      "outputs": [
        {
          "internalType": "uint256",
          "name": "",
          "type": "uint256"
        }
      ],
      "stateMutability": "view",
      "type": "function"
    },
    {
      "inputs": [
        {
          "internalType": "address",
          "name": "_owner",
          "type": "address"
        },
        {
          "internalType": "uint256",
          "name": "_index",
          "type": "uint256"
        }
      ],
      "name": "tokenOfOwnerByIndex",
      "outputs": [
        {
          "internalType": "uint256",
          "name": "",
          "type": "uint256"
        }
      ],
      "stateMutability": "view",
      "type": "function"
    },
    {
      "inputs": [],
      "name": "totalSupply",
      "outputs": [
        {
          "internalType": "uint256",
          "name": "",
          "type": "uint256"
        }
      ],
      "stateMutability": "view",
      "type": "function"
    },
    {
      "inputs": [
        {
          "internalType": "address",
          "name": "_from",
          "type": "address"
        },
        {
          "internalType": "address",
          "name": "_to",
          "type": "address"
        },
        {
          "internalType": "uint256",
          "name": "_tokenId",
          "type": "uint256"
        }
      ],
      "name": "transferFrom",
      "outputs": [],
      "stateMutability": "nonpayable",
      "type": "function"
    },
    {
      "inputs": [
        {
          "internalType": "uint256",
          "name": "_tokenId",
          "type": "uint256"
        }
      ],
      "name": "viewNFTPropByIndex",
      "outputs": [
        {
          "internalType": "string",
          "name": "",
          "type": "string"
        },
        {
          "internalType": "string",
          "name": "",
          "type": "string"
        },
        {
          "internalType": "uint256",
          "name": "",
          "type": "uint256"
        },
        {
          "internalType": "address",
          "name": "",
          "type": "address"
        }
      ],
      "stateMutability": "view",
      "type": "function"
    },
    {
      "inputs": [
        {
          "internalType": "uint256",
          "name": "tokenId",
          "type": "uint256"
        }
      ],
      "name": "checkRefurbishedItem",
      "outputs": [
        {
          "internalType": "bool",
          "name": "",
          "type": "bool"
        }
      ],
      "stateMutability": "view",
      "type": "function"
    }
  ],
  "bytecode": "0x60806040523480156200001157600080fd5b506040518060400160405280600d81526020017f537465726c696e6753746f7265000000000000000000000000000000000000008152506040518060400160405280600b81526020017f537465726c696e674e46540000000000000000000000000000000000000000008152508181620000ba7f01ffc9a7a5cef8baa21ed3c5c0d7e23accb804b619e9333b597f47a0d84076e262000281640100000000026401000000009004565b620001167f13b182f4c0e5b2efbac0efe6cf6d756c8b89f4b79c5707a043ed9ea740574ee97f7feaf19471f34a12a7eaf32d5f3090aa2260ea8624dc8a138e74e0bf0f6230761862000281640100000000026401000000009004565b8160019081620001279190620005f4565b508060029081620001399190620005f4565b505050620001ba7f22c82707ba960a14c7592ffb6b8cfaa073fed0048a84cc7fa41f6b5bd8e7f2e47f3a6eb71757dfc6e784c1459d26270140c2c147d95ca985c80026fc5301c3eca17f8a7e378434598edc36d108689a030cbc9d7d465de4f74c71bae1028eed6a881b181862000281640100000000026401000000009004565b620002387f8230223f691b981717299fae9549350a0d894555723531f02108b1f522c1a7977f6da5e1284143cdd2d15038a59bde3be031250f00291d64494c12d967b3a4e0c37fc53637662700e6c65104059db8bba34439e0c32483ab7c34e3ccae52c7395495181862000281640100000000026401000000009004565b505033600c60006101000a81548173ffffffffffffffffffffffffffffffffffffffff021916908373ffffffffffffffffffffffffffffffffffffffff1602179055506200075e565b63ffffffff7c010000000000000000000000000000000000000000000000000000000002817bffffffffffffffffffffffffffffffffffffffffffffffffffffffff19160362000308576040517f08c379a0000000000000000000000000000000000000000000000000000000008152600401620002ff906200073c565b60405180910390fd5b6001600080837bffffffffffffffffffffffffffffffffffffffffffffffffffffffff19167bffffffffffffffffffffffffffffffffffffffffffffffffffffffff1916815260200190815260200160002060006101000a81548160ff02191690831515021790555050565b600081519050919050565b7f4e487b7100000000000000000000000000000000000000000000000000000000600052604160045260246000fd5b7f4e487b7100000000000000000000000000000000000000000000000000000000600052602260045260246000fd5b60006002820490506001821680620003f657607f821691505b6020821081036200040c576200040b620003ae565b5b50919050565b60008190508160005260206000209050919050565b60006020601f8301049050919050565b60008160020a8302905092915050565b600060088302620004797fffffffffffffffffffffffffffffffffffffffffffffffffffffffffffffffff8262000437565b62000485868362000437565b95508019841693508086168417925050509392505050565b6000819050919050565b6000819050919050565b6000620004d2620004cc620004c6846200049d565b620004a7565b6200049d565b9050919050565b6000819050919050565b620004ee83620004b1565b62000506620004fd82620004d9565b84845462000447565b825550505050565b600090565b6200051d6200050e565b6200052a818484620004e3565b505050565b5b8181101562000552576200054660008262000513565b60018101905062000530565b5050565b601f821115620005a1576200056b8162000412565b620005768462000427565b8101602085101562000586578190505b6200059e620005958562000427565b8301826200052f565b50505b505050565b60008160020a8304905092915050565b6000620005c960001984600802620005a6565b1980831691505092915050565b6000620005e48383620005b6565b9150826002028217905092915050565b620005ff8262000374565b67ffffffffffffffff8111156200061b576200061a6200037f565b5b620006278254620003dd565b6200063482828562000556565b600060209050601f8311600181146200066c576000841562000657578287015190505b620006638582620005d6565b865550620006d3565b601f1984166200067c8662000412565b60005b82811015620006a6578489015182556001820191506020850194506020810190506200067f565b86831015620006c65784890151620006c2601f891682620005b6565b8355505b6001600288020188555050505b505050505050565b600082825260208201905092915050565b7f496e76616c696420496e74657266616365207265717565737400000000000000600082015250565b600062000724601983620006db565b91506200073182620006ec565b602082019050919050565b60006020820190508181036000830152620007578162000715565b9050919050565b6139ef806200076e6000396000f3fe608060405234801561001057600080fd5b506004361061022e576000357c01000000000000000000000000000000000000000000000000000000009004806374daf6e111610142578063afaa804d116100ca578063c0e50d6811610099578063c0e50d6814610656578063c30c89671461068f578063cb9dbee9146106ab578063d85d3d27146106c7578063f8e76cc0146106e35761022e565b8063afaa804d146105d2578063b864bfdf146105ee578063bba7723e1461060a578063bd7e2f951461063a5761022e565b80638da5cb5b116101115780638da5cb5b1461052e578063909c2f9b1461054c57806395d89b4114610568578063a3c0b95b14610586578063abc77c66146105b65761022e565b806374daf6e1146104be5780637c0306f1146104da578063803ef7b1146104f657806389f8c219146105125761022e565b806323b872dd116101c557806335482c3a1161019457806335482c3a146103e05780634f6ccce7146104105780636352211e146104405780636e9940b61461047057806370a082311461048e5761022e565b806323b872dd14610357578063263ae44d146103735780632f745c59146103a657806334f3ee77146103d65761022e565b80630bc04d53116102015780630bc04d53146102bb5780630bebfc1a146102d957806318160ddd146103095780631e1c62da146103275761022e565b806301ffc9a71461023357806306fdde03146102635780630780c61214610281578063095ea7b31461029f575b600080fd5b61024d6004803603810190610248919061245f565b610713565b60405161025a91906124a7565b60405180910390f35b61026b61077a565b6040516102789190612552565b60405180910390f35b61028961080c565b604051610296919061258d565b60405180910390f35b6102b960048036038101906102b49190612632565b610812565b005b6102c36109ad565b6040516102d0919061258d565b60405180910390f35b6102f360048036038101906102ee9190612672565b6109ba565b60405161030091906124a7565b60405180910390f35b6103116109c6565b60405161031e919061258d565b60405180910390f35b610341600480360381019061033c9190612672565b6109d3565b60405161034e9190612552565b60405180910390f35b610371600480360381019061036c919061269f565b610a83565b005b61038d60048036038101906103889190612672565b610aa6565b60405161039d9493929190612701565b60405180910390f35b6103c060048036038101906103bb9190612632565b610c4d565b6040516103cd919061258d565b60405180910390f35b6103de610cfd565b005b6103fa60048036038101906103f59190612672565b610d06565b60405161040791906124a7565b60405180910390f35b61042a60048036038101906104259190612672565b610d6b565b604051610437919061258d565b60405180910390f35b61045a60048036038101906104559190612672565b610ddc565b6040516104679190612754565b60405180910390f35b610478610eba565b604051610485919061258d565b60405180910390f35b6104a860048036038101906104a3919061276f565b610ec0565b6040516104b5919061258d565b60405180910390f35b6104d860048036038101906104d391906128fd565b610f7a565b005b6104f460048036038101906104ef91906128fd565b610fb0565b005b610510600480360381019061050b9190612a7d565b610fe6565b005b61052c60048036038101906105279190612672565b61117d565b005b610536611187565b6040516105439190612754565b60405180910390f35b61056660048036038101906105619190612a7d565b6111ad565b005b610570611430565b60405161057d9190612552565b60405180910390f35b6105a0600480360381019061059b9190612672565b6114c2565b6040516105ad9190612552565b60405180910390f35b6105d060048036038101906105cb9190612ad9565b61156e565b005b6105ec60048036038101906105e791906128fd565b61158d565b005b61060860048036038101906106039190612b19565b6115c3565b005b610624600480360381019061061f919061276f565b611762565b604051610631919061258d565b60405180910390f35b610654600480360381019061064f9190612c7d565b6117ab565b005b610670600480360381019061066b9190612672565b61181d565b6040516106869a99989796959493929190612cd0565b60405180910390f35b6106a960048036038101906106a49190612d88565b611acb565b005b6106c560048036038101906106c091906128fd565b611b83565b005b6106e160048036038101906106dc9190612de4565b611bb9565b005b6106fd60048036038101906106f89190612672565b611d46565b60405161070a91906124a7565b60405180910390f35b6000806000837bffffffffffffffffffffffffffffffffffffffffffffffffffffffff19167bffffffffffffffffffffffffffffffffffffffffffffffffffffffff1916815260200190815260200160002060009054906101000a900460ff169050919050565b60606001805461078990612e5c565b80601f01602080910402602001604051908101604052809291908181526020018280546107b590612e5c565b80156108025780601f106107d757610100808354040283529160200191610802565b820191906000526020600020905b8154815290600101906020018083116107e557829003601f168201915b5050505050905090565b600f5481565b600061081d82610ddc565b90508073ffffffffffffffffffffffffffffffffffffffff168373ffffffffffffffffffffffffffffffffffffffff160361088d576040517f08c379a000000000000000000000000000000000000000000000000000000000815260040161088490612eff565b60405180910390fd5b8073ffffffffffffffffffffffffffffffffffffffff163373ffffffffffffffffffffffffffffffffffffffff16146108fb576040517f08c379a00000000000000000000000000000000000000000000000000000000081526004016108f290612f91565b60405180910390fd5b826005600084815260200190815260200160002060006101000a81548173ffffffffffffffffffffffffffffffffffffffff021916908373ffffffffffffffffffffffffffffffffffffffff160217905550818373ffffffffffffffffffffffffffffffffffffffff168273ffffffffffffffffffffffffffffffffffffffff167f8c5be1e5ebec7d5bd14f71427d1e84f3dd0314c0f7b2291e5b200ac8c7c3b92560405160405180910390a4505050565b6000600a80549050905090565b60008142119050919050565b6000600680549050905090565b6060600a82815481106109e9576109e8612fb1565b5b9060005260206000200180546109fe90612e5c565b80601f0160208091040260200160405190810160405280929190818152602001828054610a2a90612e5c565b8015610a775780601f10610a4c57610100808354040283529160200191610a77565b820191906000526020600020905b815481529060010190602001808311610a5a57829003601f168201915b50505050509050919050565b610a8d3382611dc1565b610a9657600080fd5b610aa1838383611e50565b505050565b606080600080600d6000868152602001908152602001600020600101600d6000878152602001908152602001600020600201600d600088815260200190815260200160002060050154600d600089815260200190815260200160002060070160009054906101000a900473ffffffffffffffffffffffffffffffffffffffff16838054610b3290612e5c565b80601f0160208091040260200160405190810160405280929190818152602001828054610b5e90612e5c565b8015610bab5780601f10610b8057610100808354040283529160200191610bab565b820191906000526020600020905b815481529060010190602001808311610b8e57829003601f168201915b50505050509350828054610bbe90612e5c565b80601f0160208091040260200160405190810160405280929190818152602001828054610bea90612e5c565b8015610c375780601f10610c0c57610100808354040283529160200191610c37565b820191906000526020600020905b815481529060010190602001808311610c1a57829003601f168201915b5050505050925093509350935093509193509193565b6000610c5883610ec0565b8210610c99576040517f08c379a0000000000000000000000000000000000000000000000000000000008152600401610c909061302c565b60405180910390fd5b600860008473ffffffffffffffffffffffffffffffffffffffff1673ffffffffffffffffffffffffffffffffffffffff1681526020019081526020016000208281548110610cea57610ce9612fb1565b5b9060005260206000200154905092915050565b42600f81905550565b600060011515600d600084815260200190815260200160002060000160009054906101000a900460ff161515148015610d5357506001600e60008481526020019081526020016000205410155b15610d615760019050610d66565b600090505b919050565b6000610d756109c6565b8210610db6576040517f08c379a0000000000000000000000000000000000000000000000000000000008152600401610dad90613098565b60405180910390fd5b60068281548110610dca57610dc9612fb1565b5b90600052602060002001549050919050565b60008073ffffffffffffffffffffffffffffffffffffffff166003600084815260200190815260200160002060009054906101000a900473ffffffffffffffffffffffffffffffffffffffff1673ffffffffffffffffffffffffffffffffffffffff1603610e7f576040517f08c379a0000000000000000000000000000000000000000000000000000000008152600401610e7690613104565b60405180910390fd5b6003600083815260200190815260200160002060009054906101000a900473ffffffffffffffffffffffffffffffffffffffff169050919050565b60105481565b600081600073ffffffffffffffffffffffffffffffffffffffff168173ffffffffffffffffffffffffffffffffffffffff1603610f32576040517f08c379a0000000000000000000000000000000000000000000000000000000008152600401610f2990613170565b60405180910390fd5b600460008473ffffffffffffffffffffffffffffffffffffffff1673ffffffffffffffffffffffffffffffffffffffff16815260200190815260200160002054915050919050565b6000610f846109ad565b9050610f8f8c611bb9565b610fa2818c8c8c8c8c8c8c8c8c8c6115c3565b505050505050505050505050565b6000610fba6109ad565b9050610fc58c611bb9565b610fd8818c8c8c8c8c8c8c8c8c8c6115c3565b505050505050505050505050565b600073ffffffffffffffffffffffffffffffffffffffff168273ffffffffffffffffffffffffffffffffffffffff1603611055576040517f08c379a000000000000000000000000000000000000000000000000000000000815260040161104c90613202565b60405180910390fd5b600b81604051611065919061325e565b908152602001604051809103902060009054906101000a900460ff16156110c1576040517f08c379a00000000000000000000000000000000000000000000000000000000081526004016110b8906132e7565b60405180910390fd5b600a819080600181540180825580915050600190039060005260206000200160009091909190915090816110f591906134b9565b5060006001600a8054905061110a91906135ba565b90506111168382612095565b6001600b83604051611128919061325e565b908152602001604051809103902060006101000a81548160ff0219169083151502179055506001600e6000838152602001908152602001600020600082825461117191906135ee565b92505081905550505050565b8060108190555050565b600c60009054906101000a900473ffffffffffffffffffffffffffffffffffffffff1681565b6000601160008473ffffffffffffffffffffffffffffffffffffffff1673ffffffffffffffffffffffffffffffffffffffff1681526020019081526020016000208054905090506000601160008573ffffffffffffffffffffffffffffffffffffffff1673ffffffffffffffffffffffffffffffffffffffff168152602001908152602001600020905060005b828110156113da5760011515600d600084848154811061125d5761125c612fb1565b5b9060005260206000200154815260200190815260200160002060090160009054906101000a900460ff1615151480156112ce57506112cd600d60008484815481106112ab576112aa612fb1565b5b90600052602060002001548152602001908152602001600020600801546109ba565b5b156113c75781600183805490506112e591906135ba565b815481106112f6576112f5612fb1565b5b906000526020600020015482828154811061131457611313612fb1565b5b90600052602060002001819055508180548061133357611332613622565b5b600190038181906000526020600020016000905590556040518060400160405280600c81526020017f45585049524544204954454d0000000000000000000000000000000000000000815250600d600083815260200190815260200160002060020190816113a191906134b9565b5083600d600083815260200190815260200160002060030190816113c591906134b9565b505b80806113d290613651565b91505061123a565b5080601160008673ffffffffffffffffffffffffffffffffffffffff1673ffffffffffffffffffffffffffffffffffffffff168152602001908152602001600020908054611429929190612384565b5050505050565b60606002805461143f90612e5c565b80601f016020809104026020016040519081016040528092919081815260200182805461146b90612e5c565b80156114b85780601f1061148d576101008083540402835291602001916114b8565b820191906000526020600020905b81548152906001019060200180831161149b57829003601f168201915b5050505050905090565b600a81815481106114d257600080fd5b9060005260206000200160009150905080546114ed90612e5c565b80601f016020809104026020016040519081016040528092919081815260200182805461151990612e5c565b80156115665780601f1061153b57610100808354040283529160200191611566565b820191906000526020600020905b81548152906001019060200180831161154957829003601f168201915b505050505081565b81600d6000838152602001908152602001600020600801819055505050565b60006115976109ad565b90506115a28c611bb9565b6115b5818c8c8c8c8c8c8c8c8c8c6115c3565b505050505050505050505050565b89600d60008d815260200190815260200160002060000160006101000a81548160ff02191690831515021790555088600d60008d8152602001908152602001600020600101908161161491906134b9565b5087600d60008d8152602001908152602001600020600201908161163891906134b9565b5086600d60008d8152602001908152602001600020600301908161165c91906134b9565b5085600d60008d8152602001908152602001600020600401908161168091906134b9565b5084600d60008d81526020019081526020016000206005018190555042600d60008d81526020019081526020016000206006018190555082600d60008d815260200190815260200160002060070160006101000a81548173ffffffffffffffffffffffffffffffffffffffff021916908373ffffffffffffffffffffffffffffffffffffffff16021790555081600d60008d81526020019081526020016000206008018190555080600d60008d815260200190815260200160002060090160006101000a81548160ff0219169083151502179055505050505050505050505050565b6000600460008373ffffffffffffffffffffffffffffffffffffffff1673ffffffffffffffffffffffffffffffffffffffff168152602001908152602001600020549050919050565b818111156117ee576040517f08c379a00000000000000000000000000000000000000000000000000000000081526004016117e59061370b565b60405180910390fd5b60005b82811015611817576118033385612095565b60018161181091906135ee565b90506117f1565b50505050565b600d6020528060005260406000206000915090508060000160009054906101000a900460ff169080600101805461185390612e5c565b80601f016020809104026020016040519081016040528092919081815260200182805461187f90612e5c565b80156118cc5780601f106118a1576101008083540402835291602001916118cc565b820191906000526020600020905b8154815290600101906020018083116118af57829003601f168201915b5050505050908060020180546118e190612e5c565b80601f016020809104026020016040519081016040528092919081815260200182805461190d90612e5c565b801561195a5780601f1061192f5761010080835404028352916020019161195a565b820191906000526020600020905b81548152906001019060200180831161193d57829003601f168201915b50505050509080600301805461196f90612e5c565b80601f016020809104026020016040519081016040528092919081815260200182805461199b90612e5c565b80156119e85780601f106119bd576101008083540402835291602001916119e8565b820191906000526020600020905b8154815290600101906020018083116119cb57829003601f168201915b5050505050908060040180546119fd90612e5c565b80601f0160208091040260200160405190810160405280929190818152602001828054611a2990612e5c565b8015611a765780601f10611a4b57610100808354040283529160200191611a76565b820191906000526020600020905b815481529060010190602001808311611a5957829003601f168201915b5050505050908060050154908060060154908060070160009054906101000a900473ffffffffffffffffffffffffffffffffffffffff16908060080154908060090160009054906101000a900460ff1690508a565b600c60009054906101000a900473ffffffffffffffffffffffffffffffffffffffff1673ffffffffffffffffffffffffffffffffffffffff163373ffffffffffffffffffffffffffffffffffffffff1614611b5b576040517f08c379a0000000000000000000000000000000000000000000000000000000008152600401611b529061379d565b60405180910390fd5b80600d60008481526020019081526020016000206003019081611b7e91906134b9565b505050565b6000611b8d6109ad565b9050611b988c611bb9565b611bab818c8c8c8c8c8c8c8c8c8c6115c3565b505050505050505050505050565b600b81604051611bc9919061325e565b908152602001604051809103902060009054906101000a900460ff1615611c25576040517f08c379a0000000000000000000000000000000000000000000000000000000008152600401611c1c906132e7565b60405180910390fd5b600a81908060018154018082558091505060019003906000526020600020016000909190919091509081611c5991906134b9565b5060006001600a80549050611c6e91906135ba565b9050611c7a3382612095565b601160003373ffffffffffffffffffffffffffffffffffffffff1673ffffffffffffffffffffffffffffffffffffffff1681526020019081526020016000208190806001815401808255809150506001900390600052602060002001600090919091909150556001600e60008381526020019081526020016000206000828254611d0491906135ee565b925050819055506001600b83604051611d1d919061325e565b908152602001604051809103902060006101000a81548160ff0219169083151502179055505050565b60008073ffffffffffffffffffffffffffffffffffffffff166003600084815260200190815260200160002060009054906101000a900473ffffffffffffffffffffffffffffffffffffffff1673ffffffffffffffffffffffffffffffffffffffff1603611db75760009050611dbc565b600190505b919050565b6000611dcc82611d46565b611e0b576040517f08c379a0000000000000000000000000000000000000000000000000000000008152600401611e0290613809565b60405180910390fd5b6000611e1683610ddc565b90508073ffffffffffffffffffffffffffffffffffffffff168473ffffffffffffffffffffffffffffffffffffffff161491505092915050565b600073ffffffffffffffffffffffffffffffffffffffff168273ffffffffffffffffffffffffffffffffffffffff1603611ebf576040517f08c379a0000000000000000000000000000000000000000000000000000000008152600401611eb69061389b565b60405180910390fd5b8273ffffffffffffffffffffffffffffffffffffffff16611edf82610ddc565b73ffffffffffffffffffffffffffffffffffffffff1614611f35576040517f08c379a0000000000000000000000000000000000000000000000000000000008152600401611f2c9061392d565b60405180910390fd5b6001600460008573ffffffffffffffffffffffffffffffffffffffff1673ffffffffffffffffffffffffffffffffffffffff1681526020019081526020016000206000828254611f8591906135ba565b925050819055506001600460008473ffffffffffffffffffffffffffffffffffffffff1673ffffffffffffffffffffffffffffffffffffffff1681526020019081526020016000206000828254611fdc91906135ee565b92505081905550816003600083815260200190815260200160002060006101000a81548173ffffffffffffffffffffffffffffffffffffffff021916908373ffffffffffffffffffffffffffffffffffffffff160217905550808273ffffffffffffffffffffffffffffffffffffffff168473ffffffffffffffffffffffffffffffffffffffff167fddf252ad1be2c89b69c2b068fc378daa952ba7f163c4a11628f55a4df523b3ef60405160405180910390a4505050565b61209f82826120b6565b6120a881612277565b6120b282826122c0565b5050565b600073ffffffffffffffffffffffffffffffffffffffff168273ffffffffffffffffffffffffffffffffffffffff1603612125576040517f08c379a000000000000000000000000000000000000000000000000000000000815260040161211c90613202565b60405180910390fd5b61212e81611d46565b1561216e576040517f08c379a000000000000000000000000000000000000000000000000000000000815260040161216590613999565b60405180910390fd5b816003600083815260200190815260200160002060006101000a81548173ffffffffffffffffffffffffffffffffffffffff021916908373ffffffffffffffffffffffffffffffffffffffff1602179055506001600460008473ffffffffffffffffffffffffffffffffffffffff1673ffffffffffffffffffffffffffffffffffffffff168152602001908152602001600020600082825461221091906135ee565b92505081905550808273ffffffffffffffffffffffffffffffffffffffff16600073ffffffffffffffffffffffffffffffffffffffff167fddf252ad1be2c89b69c2b068fc378daa952ba7f163c4a11628f55a4df523b3ef60405160405180910390a45050565b6006805490506007600083815260200190815260200160002081905550600681908060018154018082558091505060019003906000526020600020016000909190919091505550565b600860008373ffffffffffffffffffffffffffffffffffffffff1673ffffffffffffffffffffffffffffffffffffffff168152602001908152602001600020805490506009600083815260200190815260200160002081905550600860008373ffffffffffffffffffffffffffffffffffffffff1673ffffffffffffffffffffffffffffffffffffffff1681526020019081526020016000208190806001815401808255809150506001900390600052602060002001600090919091909150555050565b8280548282559060005260206000209081019282156123c55760005260206000209182015b828111156123c45782548255916001019190600101906123a9565b5b5090506123d291906123d6565b5090565b5b808211156123ef5760008160009055506001016123d7565b5090565b6000604051905090565b600080fd5b600080fd5b60007fffffffff0000000000000000000000000000000000000000000000000000000082169050919050565b61243c81612407565b811461244757600080fd5b50565b60008135905061245981612433565b92915050565b600060208284031215612475576124746123fd565b5b60006124838482850161244a565b91505092915050565b60008115159050919050565b6124a18161248c565b82525050565b60006020820190506124bc6000830184612498565b92915050565b600081519050919050565b600082825260208201905092915050565b60005b838110156124fc5780820151818401526020810190506124e1565b60008484015250505050565b6000601f19601f8301169050919050565b6000612524826124c2565b61252e81856124cd565b935061253e8185602086016124de565b61254781612508565b840191505092915050565b6000602082019050818103600083015261256c8184612519565b905092915050565b6000819050919050565b61258781612574565b82525050565b60006020820190506125a2600083018461257e565b92915050565b600073ffffffffffffffffffffffffffffffffffffffff82169050919050565b60006125d3826125a8565b9050919050565b6125e3816125c8565b81146125ee57600080fd5b50565b600081359050612600816125da565b92915050565b61260f81612574565b811461261a57600080fd5b50565b60008135905061262c81612606565b92915050565b60008060408385031215612649576126486123fd565b5b6000612657858286016125f1565b92505060206126688582860161261d565b9150509250929050565b600060208284031215612688576126876123fd565b5b60006126968482850161261d565b91505092915050565b6000806000606084860312156126b8576126b76123fd565b5b60006126c6868287016125f1565b93505060206126d7868287016125f1565b92505060406126e88682870161261d565b9150509250925092565b6126fb816125c8565b82525050565b6000608082019050818103600083015261271b8187612519565b9050818103602083015261272f8186612519565b905061273e604083018561257e565b61274b60608301846126f2565b95945050505050565b600060208201905061276960008301846126f2565b92915050565b600060208284031215612785576127846123fd565b5b6000612793848285016125f1565b91505092915050565b600080fd5b600080fd5b7f4e487b7100000000000000000000000000000000000000000000000000000000600052604160045260246000fd5b6127de82612508565b810181811067ffffffffffffffff821117156127fd576127fc6127a6565b5b80604052505050565b60006128106123f3565b905061281c82826127d5565b919050565b600067ffffffffffffffff82111561283c5761283b6127a6565b5b61284582612508565b9050602081019050919050565b82818337600083830152505050565b600061287461286f84612821565b612806565b9050828152602081018484840111156128905761288f6127a1565b5b61289b848285612852565b509392505050565b600082601f8301126128b8576128b761279c565b5b81356128c8848260208601612861565b91505092915050565b6128da8161248c565b81146128e557600080fd5b50565b6000813590506128f7816128d1565b92915050565b60008060008060008060008060008060006101608c8e031215612923576129226123fd565b5b60008c013567ffffffffffffffff81111561294157612940612402565b5b61294d8e828f016128a3565b9b5050602061295e8e828f016128e8565b9a505060408c013567ffffffffffffffff81111561297f5761297e612402565b5b61298b8e828f016128a3565b99505060608c013567ffffffffffffffff8111156129ac576129ab612402565b5b6129b88e828f016128a3565b98505060808c013567ffffffffffffffff8111156129d9576129d8612402565b5b6129e58e828f016128a3565b97505060a08c013567ffffffffffffffff811115612a0657612a05612402565b5b612a128e828f016128a3565b96505060c0612a238e828f0161261d565b95505060e0612a348e828f0161261d565b945050610100612a468e828f016125f1565b935050610120612a588e828f0161261d565b925050610140612a6a8e828f016128e8565b9150509295989b509295989b9093969950565b60008060408385031215612a9457612a936123fd565b5b6000612aa2858286016125f1565b925050602083013567ffffffffffffffff811115612ac357612ac2612402565b5b612acf858286016128a3565b9150509250929050565b60008060408385031215612af057612aef6123fd565b5b6000612afe8582860161261d565b9250506020612b0f8582860161261d565b9150509250929050565b60008060008060008060008060008060006101608c8e031215612b3f57612b3e6123fd565b5b6000612b4d8e828f0161261d565b9b50506020612b5e8e828f016128e8565b9a505060408c013567ffffffffffffffff811115612b7f57612b7e612402565b5b612b8b8e828f016128a3565b99505060608c013567ffffffffffffffff811115612bac57612bab612402565b5b612bb88e828f016128a3565b98505060808c013567ffffffffffffffff811115612bd957612bd8612402565b5b612be58e828f016128a3565b97505060a08c013567ffffffffffffffff811115612c0657612c05612402565b5b612c128e828f016128a3565b96505060c0612c238e828f0161261d565b95505060e0612c348e828f0161261d565b945050610100612c468e828f016125f1565b935050610120612c588e828f0161261d565b925050610140612c6a8e828f016128e8565b9150509295989b509295989b9093969950565b600080600060608486031215612c9657612c956123fd565b5b6000612ca48682870161261d565b9350506020612cb58682870161261d565b9250506040612cc68682870161261d565b9150509250925092565b600061014082019050612ce6600083018d612498565b8181036020830152612cf8818c612519565b90508181036040830152612d0c818b612519565b90508181036060830152612d20818a612519565b90508181036080830152612d348189612519565b9050612d4360a083018861257e565b612d5060c083018761257e565b612d5d60e08301866126f2565b612d6b61010083018561257e565b612d79610120830184612498565b9b9a5050505050505050505050565b60008060408385031215612d9f57612d9e6123fd565b5b6000612dad8582860161261d565b925050602083013567ffffffffffffffff811115612dce57612dcd612402565b5b612dda858286016128a3565b9150509250929050565b600060208284031215612dfa57612df96123fd565b5b600082013567ffffffffffffffff811115612e1857612e17612402565b5b612e24848285016128a3565b91505092915050565b7f4e487b7100000000000000000000000000000000000000000000000000000000600052602260045260246000fd5b60006002820490506001821680612e7457607f821691505b602082108103612e8757612e86612e2d565b5b50919050565b7f4572726f72202d20617070726f76616c20746f2063757272656e74206f776e6560008201527f7200000000000000000000000000000000000000000000000000000000000000602082015250565b6000612ee96021836124cd565b9150612ef482612e8d565b604082019050919050565b60006020820190508181036000830152612f1881612edc565b9050919050565b7f43757272656e742063616c6c6572206973206e6f7420746865206f776e65726f60008201527f662074686520746f6b656e000000000000000000000000000000000000000000602082015250565b6000612f7b602b836124cd565b9150612f8682612f1f565b604082019050919050565b60006020820190508181036000830152612faa81612f6e565b9050919050565b7f4e487b7100000000000000000000000000000000000000000000000000000000600052603260045260246000fd5b7f6f776e657220696e646578206973206f7574206f662072616e67650000000000600082015250565b6000613016601b836124cd565b915061302182612fe0565b602082019050919050565b6000602082019050818103600083015261304581613009565b9050919050565b7f476c6f61626c20696e646578206973206f7574206f6620626f756e6473210000600082015250565b6000613082601e836124cd565b915061308d8261304c565b602082019050919050565b600060208201905081810360008301526130b181613075565b9050919050565b7f546f6b656e20646f65736e277420657869737421000000000000000000000000600082015250565b60006130ee6014836124cd565b91506130f9826130b8565b602082019050919050565b6000602082019050818103600083015261311d816130e1565b9050919050565b7f546f6b656e20446f65736e277420457869737473000000000000000000000000600082015250565b600061315a6014836124cd565b915061316582613124565b602082019050919050565b600060208201905081810360008301526131898161314d565b9050919050565b7f4552433732313a206d696e74696e6720746f207468652030206164647265737360008201527f2e00000000000000000000000000000000000000000000000000000000000000602082015250565b60006131ec6021836124cd565b91506131f782613190565b604082019050919050565b6000602082019050818103600083015261321b816131df565b9050919050565b600081905092915050565b6000613238826124c2565b6132428185613222565b93506132528185602086016124de565b80840191505092915050565b600061326a828461322d565b915081905092915050565b7f44616e6720697421212c2049204861766520616c7265616479206265656e206d60008201527f696e746564000000000000000000000000000000000000000000000000000000602082015250565b60006132d16025836124cd565b91506132dc82613275565b604082019050919050565b60006020820190508181036000830152613300816132c4565b9050919050565b60008190508160005260206000209050919050565b60006020601f8301049050919050565b60008160020a8302905092915050565b60006008830261336c7fffffffffffffffffffffffffffffffffffffffffffffffffffffffffffffffff8261332c565b613376868361332c565b95508019841693508086168417925050509392505050565b6000819050919050565b60006133b36133ae6133a984612574565b61338e565b612574565b9050919050565b6000819050919050565b6133cd83613398565b6133e16133d9826133ba565b84845461333c565b825550505050565b600090565b6133f66133e9565b6134018184846133c4565b505050565b5b818110156134255761341a6000826133ee565b600181019050613407565b5050565b601f82111561346a5761343b81613307565b6134448461331c565b81016020851015613453578190505b61346761345f8561331c565b830182613406565b50505b505050565b60008160020a8304905092915050565b60006134906000198460080261346f565b1980831691505092915050565b60006134a9838361347f565b9150826002028217905092915050565b6134c2826124c2565b67ffffffffffffffff8111156134db576134da6127a6565b5b6134e58254612e5c565b6134f0828285613429565b600060209050601f8311600181146135235760008415613511578287015190505b61351b858261349d565b865550613583565b601f19841661353186613307565b60005b8281101561355957848901518255600182019150602085019450602081019050613534565b868310156135765784890151613572601f89168261347f565b8355505b6001600288020188555050505b505050505050565b7f4e487b7100000000000000000000000000000000000000000000000000000000600052601160045260246000fd5b60006135c582612574565b91506135d083612574565b92508282039050818111156135e8576135e761358b565b5b92915050565b60006135f982612574565b915061360483612574565b925082820190508082111561361c5761361b61358b565b5b92915050565b7f4e487b7100000000000000000000000000000000000000000000000000000000600052603160045260246000fd5b600061365c82612574565b91507fffffffffffffffffffffffffffffffffffffffffffffffffffffffffffffffff820361368e5761368d61358b565b5b600182019050919050565b7f4d757374204e6f742065786365656420746865204361702070726f766964656460008201527f206279207468652073656c6c65722e2e2e000000000000000000000000000000602082015250565b60006136f56031836124cd565b915061370082613699565b604082019050919050565b60006020820190508181036000830152613724816136e8565b9050919050565b7f4e6f7420617574686f726973656420746f20616464207468652055524c20746f60008201527f20746865204e4654000000000000000000000000000000000000000000000000602082015250565b60006137876028836124cd565b91506137928261372b565b604082019050919050565b600060208201905081810360008301526137b68161377a565b9050919050565b7f746f6b656e20646f6573206e6f74206578697374730000000000000000000000600082015250565b60006137f36015836124cd565b91506137fe826137bd565b602082019050919050565b60006020820190508181036000830152613822816137e6565b9050919050565b7f4572726f72202d20455243373231205472616e7366657220746f20302041646460008201527f7265737300000000000000000000000000000000000000000000000000000000602082015250565b60006138856024836124cd565b915061389082613829565b604082019050919050565b600060208201905081810360008301526138b481613878565b9050919050565b7f547279696e6720746f207472616e73666572206120746f6b656e20746865206160008201527f64647265737320646f6573206e6f74202d2d2d2d2d0000000000000000000000602082015250565b60006139176035836124cd565b9150613922826138bb565b604082019050919050565b600060208201905081810360008301526139468161390a565b9050919050565b7f4552433732313a20746f6b656e20616c7265616479206578697374732e000000600082015250565b6000613983601d836124cd565b915061398e8261394d565b602082019050919050565b600060208201905081810360008301526139b281613976565b905091905056fea2646970667358221220c767db67320a11c4f2be12a1edf2c72f58376fe7eb831a4134777d03987bc98764736f6c63430008110033",
  "immutableReferences": {},
  "source": "// SPDX-License-Identifier: MIT\r\n// pragma solidity >=0.4.22 <0.9.0;\r\n// pragma solidity ^0.7.0;\r\n// import \"./ERC721.sol\";\r\n\r\n// contract checkRefurbished is ERC721 {\r\n//     modifier refurbishedCheck(uint256 _tokenId) {\r\n//         require(\r\n//             previousOwners[_tokenId] < 1,\r\n//             \"Yes this is a refurbished Item, It has been sold more than once..\"\r\n//         );\r\n//         _;\r\n//     }\r\n\r\n//     // function additems(uint _tokenId ) public {\r\n//     //     previousOwners[_tokenId]+=1;\r\n//     // }\r\n\r\n//     //create a seperate mapping in NFT, which is named as Previous Owners.... as uint=>uint..where 1st uint is token id and second one is how many owners it had...\r\n//     function check(uint256 _tokenId)\r\n//         public\r\n//         view\r\n//         refurbishedCheck(_tokenId)\r\n//         returns (bool)\r\n//     {\r\n//         return false; //meaning that this is not a refurbished item.\r\n//     }\r\n// }\r\n\r\npragma solidity >=0.4.22 <0.9.0;\r\nimport \"./NFT.sol\";\r\n\r\ncontract checkRefurbished is NFT {\r\n    //custom event and emit...\r\n    function checkRefurbishedItem(uint256 tokenId) public view returns (bool) {\r\n        if (NFTinfo[tokenId].minted == true && previousOwners[tokenId] >= 1) {\r\n            return true; //true means that the item is refurbished\r\n        }\r\n        return false; //false means it is not refurbished and has not been minted yet....\r\n    }\r\n}\r\n",
  "sourcePath": "C:\\Users\\Neeraj\\Desktop\\Sterling Store\\src\\contracts\\CheckRefurbished.sol",
  "compiler": {
    "name": "solc",
    "version": "0.8.17+commit.8df45f5f.Emscripten.clang"
  },
  "schemaVersion": "3.4.11",
  "updatedAt": "2023-01-17T11:04:29.636Z",
  "devdoc": {
    "kind": "dev",
    "methods": {},
    "version": 1
  },
  "userdoc": {
    "kind": "user",
    "methods": {},
    "version": 1
  }
}