{
  "contractName": "checkRefurbished",
  "abi": [
    {
      "anonymous": false,
      "inputs": [
        {
          "indexed": true,
          "internalType": "address",
          "name": "owner",
          "type": "address"
        },
        {
          "indexed": true,
          "internalType": "address",
          "name": "approved",
          "type": "address"
        },
        {
          "indexed": true,
          "internalType": "uint256",
          "name": "tokenId",
          "type": "uint256"
        }
      ],
      "name": "Approval",
      "type": "event"
    },
    {
      "anonymous": false,
      "inputs": [
        {
          "indexed": true,
          "internalType": "address",
          "name": "owner",
          "type": "address"
        },
        {
          "indexed": true,
          "internalType": "address",
          "name": "operator",
          "type": "address"
        },
        {
          "indexed": false,
          "internalType": "bool",
          "name": "approved",
          "type": "bool"
        }
      ],
      "name": "ApprovalForAll",
      "type": "event"
    },
    {
      "anonymous": false,
      "inputs": [
        {
          "indexed": false,
          "internalType": "address",
          "name": "from",
          "type": "address"
        },
        {
          "indexed": false,
          "internalType": "address",
          "name": "to",
          "type": "address"
        },
        {
          "indexed": false,
          "internalType": "uint256",
          "name": "_tokenId",
          "type": "uint256"
        }
      ],
      "name": "Stake",
      "type": "event"
    },
    {
      "anonymous": false,
      "inputs": [
        {
          "indexed": true,
          "internalType": "address",
          "name": "from",
          "type": "address"
        },
        {
          "indexed": true,
          "internalType": "address",
          "name": "to",
          "type": "address"
        },
        {
          "indexed": true,
          "internalType": "uint256",
          "name": "tokenId",
          "type": "uint256"
        }
      ],
      "name": "Transfer",
      "type": "event"
    },
    {
      "anonymous": false,
      "inputs": [
        {
          "indexed": false,
          "internalType": "address",
          "name": "to",
          "type": "address"
        },
        {
          "indexed": false,
          "internalType": "uint256",
          "name": "_tokenId",
          "type": "uint256"
        }
      ],
      "name": "mintEvent",
      "type": "event"
    },
    {
      "inputs": [
        {
          "internalType": "address",
          "name": "",
          "type": "address"
        },
        {
          "internalType": "uint256",
          "name": "",
          "type": "uint256"
        }
      ],
      "name": "AllGenericNFT",
      "outputs": [
        {
          "internalType": "uint256",
          "name": "",
          "type": "uint256"
        }
      ],
      "stateMutability": "view",
      "type": "function"
    },
    {
      "inputs": [
        {
          "internalType": "address",
          "name": "",
          "type": "address"
        },
        {
          "internalType": "uint256",
          "name": "",
          "type": "uint256"
        }
      ],
      "name": "AllNonTransferrableNFT",
      "outputs": [
        {
          "internalType": "uint256",
          "name": "",
          "type": "uint256"
        }
      ],
      "stateMutability": "view",
      "type": "function"
    },
    {
      "inputs": [
        {
          "internalType": "address",
          "name": "",
          "type": "address"
        },
        {
          "internalType": "uint256",
          "name": "",
          "type": "uint256"
        }
      ],
      "name": "AllPreLaunchNFT",
      "outputs": [
        {
          "internalType": "uint256",
          "name": "",
          "type": "uint256"
        }
      ],
      "stateMutability": "view",
      "type": "function"
    },
    {
      "inputs": [
        {
          "internalType": "address",
          "name": "",
          "type": "address"
        },
        {
          "internalType": "uint256",
          "name": "",
          "type": "uint256"
        }
      ],
      "name": "AllSpecialNFT",
      "outputs": [
        {
          "internalType": "uint256",
          "name": "",
          "type": "uint256"
        }
      ],
      "stateMutability": "view",
      "type": "function"
    },
    {
      "inputs": [
        {
          "internalType": "address",
          "name": "_off",
          "type": "address"
        }
      ],
      "name": "AllSpecialNFTLength",
      "outputs": [
        {
          "internalType": "uint256",
          "name": "",
          "type": "uint256"
        }
      ],
      "stateMutability": "view",
      "type": "function"
    },
    {
      "inputs": [
        {
          "internalType": "address",
          "name": "",
          "type": "address"
        },
        {
          "internalType": "uint256",
          "name": "",
          "type": "uint256"
        }
      ],
      "name": "AllStakedNFT",
      "outputs": [
        {
          "internalType": "uint256",
          "name": "",
          "type": "uint256"
        }
      ],
      "stateMutability": "view",
      "type": "function"
    },
    {
      "inputs": [
        {
          "internalType": "uint256",
          "name": "",
          "type": "uint256"
        }
      ],
      "name": "NFTinfo",
      "outputs": [
        {
          "internalType": "bool",
          "name": "minted",
          "type": "bool"
        },
        {
          "internalType": "string",
          "name": "name",
          "type": "string"
        },
        {
          "internalType": "string",
          "name": "description",
          "type": "string"
        },
        {
          "internalType": "string",
          "name": "url",
          "type": "string"
        },
        {
          "internalType": "string",
          "name": "trxnHash",
          "type": "string"
        },
        {
          "internalType": "uint256",
          "name": "nftType",
          "type": "uint256"
        },
        {
          "internalType": "uint256",
          "name": "boughtOn",
          "type": "uint256"
        },
        {
          "internalType": "address",
          "name": "seller",
          "type": "address"
        },
        {
          "internalType": "uint256",
          "name": "ExpireOn",
          "type": "uint256"
        },
        {
          "internalType": "bool",
          "name": "expireable",
          "type": "bool"
        }
      ],
      "stateMutability": "view",
      "type": "function"
    },
    {
      "inputs": [
        {
          "internalType": "uint256",
          "name": "",
          "type": "uint256"
        }
      ],
      "name": "NFTs",
      "outputs": [
        {
          "internalType": "string",
          "name": "",
          "type": "string"
        }
      ],
      "stateMutability": "view",
      "type": "function"
    },
    {
      "inputs": [
        {
          "internalType": "address",
          "name": "_off",
          "type": "address"
        },
        {
          "internalType": "uint256",
          "name": "_till",
          "type": "uint256"
        }
      ],
      "name": "StakeSpecialNFT",
      "outputs": [],
      "stateMutability": "nonpayable",
      "type": "function"
    },
    {
      "inputs": [
        {
          "internalType": "string",
          "name": "_nft",
          "type": "string"
        },
        {
          "internalType": "bool",
          "name": "_minted",
          "type": "bool"
        },
        {
          "internalType": "string",
          "name": "_name",
          "type": "string"
        },
        {
          "internalType": "string",
          "name": "_description",
          "type": "string"
        },
        {
          "internalType": "string",
          "name": "_url",
          "type": "string"
        },
        {
          "internalType": "string",
          "name": "_trxnHash",
          "type": "string"
        },
        {
          "internalType": "uint256",
          "name": "_nftType",
          "type": "uint256"
        },
        {
          "internalType": "uint256",
          "name": "_boughtOn",
          "type": "uint256"
        },
        {
          "internalType": "address",
          "name": "_seller",
          "type": "address"
        },
        {
          "internalType": "uint256",
          "name": "_ExpireOn",
          "type": "uint256"
        },
        {
          "internalType": "address",
          "name": "_off",
          "type": "address"
        }
      ],
      "name": "_Generic",
      "outputs": [],
      "stateMutability": "nonpayable",
      "type": "function"
    },
    {
      "inputs": [
        {
          "internalType": "string",
          "name": "_nft",
          "type": "string"
        },
        {
          "internalType": "bool",
          "name": "_minted",
          "type": "bool"
        },
        {
          "internalType": "string",
          "name": "_name",
          "type": "string"
        },
        {
          "internalType": "string",
          "name": "_description",
          "type": "string"
        },
        {
          "internalType": "string",
          "name": "_url",
          "type": "string"
        },
        {
          "internalType": "string",
          "name": "_trxnHash",
          "type": "string"
        },
        {
          "internalType": "uint256",
          "name": "_nftType",
          "type": "uint256"
        },
        {
          "internalType": "uint256",
          "name": "_boughtOn",
          "type": "uint256"
        },
        {
          "internalType": "address",
          "name": "_seller",
          "type": "address"
        },
        {
          "internalType": "uint256",
          "name": "_ExpireOn",
          "type": "uint256"
        },
        {
          "internalType": "address",
          "name": "_off",
          "type": "address"
        }
      ],
      "name": "_NonTransferableNFT",
      "outputs": [],
      "stateMutability": "nonpayable",
      "type": "function"
    },
    {
      "inputs": [
        {
          "internalType": "string",
          "name": "_nft",
          "type": "string"
        },
        {
          "internalType": "bool",
          "name": "_minted",
          "type": "bool"
        },
        {
          "internalType": "string",
          "name": "_name",
          "type": "string"
        },
        {
          "internalType": "string",
          "name": "_description",
          "type": "string"
        },
        {
          "internalType": "string",
          "name": "_url",
          "type": "string"
        },
        {
          "internalType": "string",
          "name": "_trxnHash",
          "type": "string"
        },
        {
          "internalType": "uint256",
          "name": "_nftType",
          "type": "uint256"
        },
        {
          "internalType": "uint256",
          "name": "_boughtOn",
          "type": "uint256"
        },
        {
          "internalType": "address",
          "name": "_seller",
          "type": "address"
        },
        {
          "internalType": "uint256",
          "name": "_ExpireOn",
          "type": "uint256"
        },
        {
          "internalType": "address",
          "name": "_off",
          "type": "address"
        }
      ],
      "name": "_PreLaunch",
      "outputs": [],
      "stateMutability": "nonpayable",
      "type": "function"
    },
    {
      "inputs": [
        {
          "internalType": "string",
          "name": "_nft",
          "type": "string"
        },
        {
          "internalType": "bool",
          "name": "_minted",
          "type": "bool"
        },
        {
          "internalType": "string",
          "name": "_name",
          "type": "string"
        },
        {
          "internalType": "string",
          "name": "_description",
          "type": "string"
        },
        {
          "internalType": "string",
          "name": "_url",
          "type": "string"
        },
        {
          "internalType": "string",
          "name": "_trxnHash",
          "type": "string"
        },
        {
          "internalType": "uint256",
          "name": "_nftType",
          "type": "uint256"
        },
        {
          "internalType": "uint256",
          "name": "_boughtOn",
          "type": "uint256"
        },
        {
          "internalType": "address",
          "name": "_seller",
          "type": "address"
        },
        {
          "internalType": "uint256",
          "name": "_ExpireOn",
          "type": "uint256"
        },
        {
          "internalType": "address",
          "name": "_off",
          "type": "address"
        }
      ],
      "name": "_Special",
      "outputs": [],
      "stateMutability": "nonpayable",
      "type": "function"
    },
    {
      "inputs": [
        {
          "internalType": "uint256",
          "name": "_expiryDate",
          "type": "uint256"
        },
        {
          "internalType": "uint256",
          "name": "_tokenId",
          "type": "uint256"
        }
      ],
      "name": "addExpiredOn",
      "outputs": [],
      "stateMutability": "nonpayable",
      "type": "function"
    },
    {
      "inputs": [],
      "name": "addNewBoughtOn",
      "outputs": [],
      "stateMutability": "nonpayable",
      "type": "function"
    },
    {
      "inputs": [
        {
          "internalType": "uint256",
          "name": "_tokenId",
          "type": "uint256"
        },
        {
          "internalType": "bool",
          "name": "_minted",
          "type": "bool"
        },
        {
          "internalType": "string",
          "name": "_name",
          "type": "string"
        },
        {
          "internalType": "string",
          "name": "_description",
          "type": "string"
        },
        {
          "internalType": "string",
          "name": "_url",
          "type": "string"
        },
        {
          "internalType": "string",
          "name": "_trxnHash",
          "type": "string"
        },
        {
          "internalType": "uint256",
          "name": "_nftType",
          "type": "uint256"
        },
        {
          "internalType": "uint256",
          "name": "_boughtOn",
          "type": "uint256"
        },
        {
          "internalType": "address",
          "name": "_seller",
          "type": "address"
        },
        {
          "internalType": "uint256",
          "name": "_ExpireOn",
          "type": "uint256"
        },
        {
          "internalType": "bool",
          "name": "_expireable",
          "type": "bool"
        }
      ],
      "name": "addNftProp",
      "outputs": [],
      "stateMutability": "nonpayable",
      "type": "function"
    },
    {
      "inputs": [
        {
          "internalType": "uint256",
          "name": "_exp",
          "type": "uint256"
        }
      ],
      "name": "addTempExp",
      "outputs": [],
      "stateMutability": "nonpayable",
      "type": "function"
    },
    {
      "inputs": [
        {
          "internalType": "address",
          "name": "to",
          "type": "address"
        },
        {
          "internalType": "uint256",
          "name": "tokenId",
          "type": "uint256"
        }
      ],
      "name": "approve",
      "outputs": [],
      "stateMutability": "nonpayable",
      "type": "function"
    },
    {
      "inputs": [
        {
          "internalType": "address",
          "name": "owner",
          "type": "address"
        }
      ],
      "name": "balanceOf",
      "outputs": [
        {
          "internalType": "uint256",
          "name": "",
          "type": "uint256"
        }
      ],
      "stateMutability": "view",
      "type": "function"
    },
    {
      "inputs": [],
      "name": "boughtOnDate",
      "outputs": [
        {
          "internalType": "uint256",
          "name": "",
          "type": "uint256"
        }
      ],
      "stateMutability": "view",
      "type": "function"
    },
    {
      "inputs": [
        {
          "internalType": "uint256",
          "name": "tokenId",
          "type": "uint256"
        },
        {
          "internalType": "uint256",
          "name": "_NumberOfItems",
          "type": "uint256"
        },
        {
          "internalType": "uint256",
          "name": "_cap",
          "type": "uint256"
        }
      ],
      "name": "buyBulk",
      "outputs": [],
      "stateMutability": "nonpayable",
      "type": "function"
    },
    {
      "inputs": [
        {
          "internalType": "address",
          "name": "_off",
          "type": "address"
        }
      ],
      "name": "getAllStakedNFTFromAddress",
      "outputs": [
        {
          "internalType": "uint256[]",
          "name": "",
          "type": "uint256[]"
        }
      ],
      "stateMutability": "view",
      "type": "function"
    },
    {
      "inputs": [
        {
          "internalType": "uint256",
          "name": "tokenId",
          "type": "uint256"
        }
      ],
      "name": "getApproved",
      "outputs": [
        {
          "internalType": "address",
          "name": "",
          "type": "address"
        }
      ],
      "stateMutability": "view",
      "type": "function"
    },
    {
      "inputs": [
        {
          "internalType": "address",
          "name": "_off",
          "type": "address"
        },
        {
          "internalType": "uint256",
          "name": "_tokenId",
          "type": "uint256"
        }
      ],
      "name": "getStakedNFTProp",
      "outputs": [
        {
          "internalType": "uint256",
          "name": "",
          "type": "uint256"
        },
        {
          "internalType": "uint256",
          "name": "",
          "type": "uint256"
        }
      ],
      "stateMutability": "view",
      "type": "function"
    },
    {
      "inputs": [
        {
          "internalType": "uint256",
          "name": "__ExpireOn",
          "type": "uint256"
        }
      ],
      "name": "ifTimeHasPassed",
      "outputs": [
        {
          "internalType": "bool",
          "name": "",
          "type": "bool"
        }
      ],
      "stateMutability": "view",
      "type": "function"
    },
    {
      "inputs": [
        {
          "internalType": "address",
          "name": "owner",
          "type": "address"
        },
        {
          "internalType": "address",
          "name": "operator",
          "type": "address"
        }
      ],
      "name": "isApprovedForAll",
      "outputs": [
        {
          "internalType": "bool",
          "name": "",
          "type": "bool"
        }
      ],
      "stateMutability": "view",
      "type": "function"
    },
    {
      "inputs": [
        {
          "internalType": "string",
          "name": "_nft",
          "type": "string"
        }
      ],
      "name": "mint",
      "outputs": [],
      "stateMutability": "nonpayable",
      "type": "function"
    },
    {
      "inputs": [
        {
          "internalType": "address",
          "name": "to",
          "type": "address"
        },
        {
          "internalType": "string",
          "name": "_nft",
          "type": "string"
        }
      ],
      "name": "mintToOthers",
      "outputs": [],
      "stateMutability": "nonpayable",
      "type": "function"
    },
    {
      "inputs": [],
      "name": "name",
      "outputs": [
        {
          "internalType": "string",
          "name": "",
          "type": "string"
        }
      ],
      "stateMutability": "view",
      "type": "function"
    },
    {
      "inputs": [
        {
          "internalType": "uint256",
          "name": "_id",
          "type": "uint256"
        }
      ],
      "name": "nftVal",
      "outputs": [
        {
          "internalType": "string",
          "name": "",
          "type": "string"
        }
      ],
      "stateMutability": "view",
      "type": "function"
    },
    {
      "inputs": [],
      "name": "nftsLen",
      "outputs": [
        {
          "internalType": "uint256",
          "name": "",
          "type": "uint256"
        }
      ],
      "stateMutability": "view",
      "type": "function"
    },
    {
      "inputs": [],
      "name": "owner",
      "outputs": [
        {
          "internalType": "address",
          "name": "",
          "type": "address"
        }
      ],
      "stateMutability": "view",
      "type": "function"
    },
    {
      "inputs": [
        {
          "internalType": "uint256",
          "name": "tokenId",
          "type": "uint256"
        }
      ],
      "name": "ownerOf",
      "outputs": [
        {
          "internalType": "address",
          "name": "",
          "type": "address"
        }
      ],
      "stateMutability": "view",
      "type": "function"
    },
    {
      "inputs": [
        {
          "internalType": "address",
          "name": "_of",
          "type": "address"
        },
        {
          "internalType": "string",
          "name": "__url",
          "type": "string"
        }
      ],
      "name": "removeAllExpiredNFT",
      "outputs": [],
      "stateMutability": "nonpayable",
      "type": "function"
    },
    {
      "inputs": [
        {
          "internalType": "address",
          "name": "from",
          "type": "address"
        },
        {
          "internalType": "address",
          "name": "to",
          "type": "address"
        },
        {
          "internalType": "uint256",
          "name": "tokenId",
          "type": "uint256"
        }
      ],
      "name": "safeTransferFrom",
      "outputs": [],
      "stateMutability": "nonpayable",
      "type": "function"
    },
    {
      "inputs": [
        {
          "internalType": "address",
          "name": "from",
          "type": "address"
        },
        {
          "internalType": "address",
          "name": "to",
          "type": "address"
        },
        {
          "internalType": "uint256",
          "name": "tokenId",
          "type": "uint256"
        },
        {
          "internalType": "bytes",
          "name": "data",
          "type": "bytes"
        }
      ],
      "name": "safeTransferFrom",
      "outputs": [],
      "stateMutability": "nonpayable",
      "type": "function"
    },
    {
      "inputs": [
        {
          "internalType": "address",
          "name": "operator",
          "type": "address"
        },
        {
          "internalType": "bool",
          "name": "approved",
          "type": "bool"
        }
      ],
      "name": "setApprovalForAll",
      "outputs": [],
      "stateMutability": "nonpayable",
      "type": "function"
    },
    {
      "inputs": [
        {
          "internalType": "uint256",
          "name": "tokenId",
          "type": "uint256"
        },
        {
          "internalType": "string",
          "name": "_nftURL",
          "type": "string"
        }
      ],
      "name": "setURL",
      "outputs": [],
      "stateMutability": "nonpayable",
      "type": "function"
    },
    {
      "inputs": [
        {
          "internalType": "bytes4",
          "name": "interfaceId",
          "type": "bytes4"
        }
      ],
      "name": "supportsInterface",
      "outputs": [
        {
          "internalType": "bool",
          "name": "",
          "type": "bool"
        }
      ],
      "stateMutability": "view",
      "type": "function"
    },
    {
      "inputs": [],
      "name": "symbol",
      "outputs": [
        {
          "internalType": "string",
          "name": "",
          "type": "string"
        }
      ],
      "stateMutability": "view",
      "type": "function"
    },
    {
      "inputs": [],
      "name": "tempExp",
      "outputs": [
        {
          "internalType": "uint256",
          "name": "",
          "type": "uint256"
        }
      ],
      "stateMutability": "view",
      "type": "function"
    },
    {
      "inputs": [
        {
          "internalType": "uint256",
          "name": "tokenId",
          "type": "uint256"
        }
      ],
      "name": "tokenURI",
      "outputs": [
        {
          "internalType": "string",
          "name": "",
          "type": "string"
        }
      ],
      "stateMutability": "view",
      "type": "function"
    },
    {
      "inputs": [
        {
          "internalType": "address",
          "name": "from",
          "type": "address"
        },
        {
          "internalType": "address",
          "name": "to",
          "type": "address"
        },
        {
          "internalType": "uint256",
          "name": "tokenId",
          "type": "uint256"
        }
      ],
      "name": "transferFrom",
      "outputs": [],
      "stateMutability": "nonpayable",
      "type": "function"
    },
    {
      "inputs": [
        {
          "internalType": "uint256",
          "name": "_tokenId",
          "type": "uint256"
        }
      ],
      "name": "viewNFTPropByIndex1",
      "outputs": [
        {
          "internalType": "string",
          "name": "",
          "type": "string"
        },
        {
          "internalType": "string",
          "name": "",
          "type": "string"
        },
        {
          "internalType": "string",
          "name": "",
          "type": "string"
        },
        {
          "internalType": "string",
          "name": "",
          "type": "string"
        },
        {
          "internalType": "uint256",
          "name": "",
          "type": "uint256"
        }
      ],
      "stateMutability": "view",
      "type": "function"
    },
    {
      "inputs": [
        {
          "internalType": "uint256",
          "name": "_tokenId",
          "type": "uint256"
        }
      ],
      "name": "viewNFTPropByIndex2",
      "outputs": [
        {
          "internalType": "uint256",
          "name": "",
          "type": "uint256"
        },
        {
          "internalType": "address",
          "name": "",
          "type": "address"
        },
        {
          "internalType": "uint256",
          "name": "",
          "type": "uint256"
        },
        {
          "internalType": "bool",
          "name": "",
          "type": "bool"
        }
      ],
      "stateMutability": "view",
      "type": "function"
    },
    {
      "inputs": [
        {
          "internalType": "uint256",
          "name": "tokenId",
          "type": "uint256"
        }
      ],
      "name": "checkRefurbishedItem",
      "outputs": [
        {
          "internalType": "bool",
          "name": "",
          "type": "bool"
        }
      ],
      "stateMutability": "view",
      "type": "function"
    }
  ],
  "bytecode": "0x60806040523480156200001157600080fd5b506040518060400160405280600d81526020017f537465726c696e6753746f7265000000000000000000000000000000000000008152506040518060400160405280600b81526020017f537465726c696e674e465400000000000000000000000000000000000000000081525081600090816200008f91906200036b565b508060019081620000a191906200036b565b50505033600d60006101000a81548173ffffffffffffffffffffffffffffffffffffffff021916908373ffffffffffffffffffffffffffffffffffffffff16021790555062000452565b600081519050919050565b7f4e487b7100000000000000000000000000000000000000000000000000000000600052604160045260246000fd5b7f4e487b7100000000000000000000000000000000000000000000000000000000600052602260045260246000fd5b600060028204905060018216806200016d57607f821691505b60208210810362000183576200018262000125565b5b50919050565b60008190508160005260206000209050919050565b60006020601f8301049050919050565b60008160020a8302905092915050565b600060088302620001f07fffffffffffffffffffffffffffffffffffffffffffffffffffffffffffffffff82620001ae565b620001fc8683620001ae565b95508019841693508086168417925050509392505050565b6000819050919050565b6000819050919050565b600062000249620002436200023d8462000214565b6200021e565b62000214565b9050919050565b6000819050919050565b620002658362000228565b6200027d620002748262000250565b848454620001be565b825550505050565b600090565b6200029462000285565b620002a18184846200025a565b505050565b5b81811015620002c957620002bd6000826200028a565b600181019050620002a7565b5050565b601f8211156200031857620002e28162000189565b620002ed846200019e565b81016020851015620002fd578190505b620003156200030c856200019e565b830182620002a6565b50505b505050565b60008160020a8304905092915050565b600062000340600019846008026200031d565b1980831691505092915050565b60006200035b83836200032d565b9150826002028217905092915050565b6200037682620000eb565b67ffffffffffffffff811115620003925762000391620000f6565b5b6200039e825462000154565b620003ab828285620002cd565b600060209050601f831160018114620003e35760008415620003ce578287015190505b620003da85826200034d565b8655506200044a565b601f198416620003f38662000189565b60005b828110156200041d57848901518255600182019150602085019450602081019050620003f6565b868310156200043d578489015162000439601f8916826200032d565b8355505b6001600288020188555050505b505050505050565b61529280620004626000396000f3fe608060405234801561001057600080fd5b50600436106102a7576000357c0100000000000000000000000000000000000000000000000000000000900480638da5cb5b11610179578063bd7e2f95116100eb578063d85d3d27116100a4578063d85d3d2714610854578063e6a9b77c14610870578063e985e9c5146108a0578063ebd0939d146108d0578063eda7640214610900578063f7c44cf514610933576102a7565b8063bd7e2f951461074f578063be64a28a1461076b578063c0e50d681461079b578063c30c8967146107d4578063c49ddc0e146107f0578063c87b56dd14610824576102a7565b8063a3c0b95b1161013d578063a3c0b95b14610693578063a98baaf1146106c3578063abc77c66146106df578063b5a9d5ef146106fb578063b864bfdf14610717578063b88d4fde14610733576102a7565b80638da5cb5b14610601578063909c2f9b1461061f57806395d89b411461063b5780639fc34e0d14610659578063a22cb46514610677576102a7565b806334f3ee771161021d578063640e82d9116101d6578063640e82d91461051b5780636e9940b61461054b57806370a0823114610569578063803ef7b11461059957806389f8c219146105b55780638b1933ff146105d1576102a7565b806334f3ee771461044857806335482c3a146104525780633e461e0c1461048257806342842e0e146104b357806360bd3e26146104cf5780636352211e146104eb576102a7565b80630bc04d531161026f5780630bc04d53146103625780630bebfc1a146103805780631bc2edae146103b05780631e1c62da146103e057806322187a141461041057806323b872dd1461042c576102a7565b806301ffc9a7146102ac578063055a56f9146102dc57806306fdde03146102f8578063081812fc14610316578063095ea7b314610346575b600080fd5b6102c660048036038101906102c19190613780565b610963565b6040516102d391906137c8565b60405180910390f35b6102f660048036038101906102f191906139e9565b610a45565b005b610300610ae3565b60405161030d9190613be8565b60405180910390f35b610330600480360381019061032b9190613c0a565b610b75565b60405161033d9190613c46565b60405180910390f35b610360600480360381019061035b9190613c61565b610bbb565b005b61036a610cd2565b6040516103779190613cb0565b60405180910390f35b61039a60048036038101906103959190613c0a565b610cdf565b6040516103a791906137c8565b60405180910390f35b6103ca60048036038101906103c59190613ccb565b610ceb565b6040516103d79190613cb0565b60405180910390f35b6103fa60048036038101906103f59190613c0a565b610d37565b6040516104079190613be8565b60405180910390f35b61042a600480360381019061042591906139e9565b610de7565b005b61044660048036038101906104419190613cf8565b610e85565b005b610450610ee5565b005b61046c60048036038101906104679190613c0a565b610eee565b60405161047991906137c8565b60405180910390f35b61049c60048036038101906104979190613c61565b610f53565b6040516104aa929190613d4b565b60405180910390f35b6104cd60048036038101906104c89190613cf8565b611009565b005b6104e960048036038101906104e491906139e9565b611029565b005b61050560048036038101906105009190613c0a565b6110c7565b6040516105129190613c46565b60405180910390f35b61053560048036038101906105309190613ccb565b61114d565b6040516105429190613e32565b60405180910390f35b6105536111e4565b6040516105609190613cb0565b60405180910390f35b610583600480360381019061057e9190613ccb565b6111ea565b6040516105909190613cb0565b60405180910390f35b6105b360048036038101906105ae9190613e54565b6112a1565b005b6105cf60048036038101906105ca9190613c0a565b611471565b005b6105eb60048036038101906105e69190613c61565b61147b565b6040516105f89190613cb0565b60405180910390f35b6106096114ac565b6040516106169190613c46565b60405180910390f35b61063960048036038101906106349190613e54565b6114d2565b005b610643611755565b6040516106509190613be8565b60405180910390f35b6106616117e7565b60405161066e9190613cb0565b60405180910390f35b610691600480360381019061068c9190613eb0565b6117ed565b005b6106ad60048036038101906106a89190613c0a565b611803565b6040516106ba9190613be8565b60405180910390f35b6106dd60048036038101906106d89190613c61565b6118af565b005b6106f960048036038101906106f49190613ef0565b611a84565b005b610715600480360381019061071091906139e9565b611aa3565b005b610731600480360381019061072c9190613f30565b611b41565b005b61074d60048036038101906107489190614135565b611ce0565b005b610769600480360381019061076491906141b8565b611d42565b005b61078560048036038101906107809190613c61565b611db4565b6040516107929190613cb0565b60405180910390f35b6107b560048036038101906107b09190613c0a565b611de5565b6040516107cb9a9998979695949392919061420b565b60405180910390f35b6107ee60048036038101906107e991906142c3565b612093565b005b61080a60048036038101906108059190613c0a565b61214b565b60405161081b95949392919061431f565b60405180910390f35b61083e60048036038101906108399190613c0a565b612405565b60405161084b9190613be8565b60405180910390f35b61086e6004803603810190610869919061438e565b61246d565b005b61088a60048036038101906108859190613c61565b612633565b6040516108979190613cb0565b60405180910390f35b6108ba60048036038101906108b591906143d7565b612664565b6040516108c791906137c8565b60405180910390f35b6108ea60048036038101906108e59190613c61565b6126f8565b6040516108f79190613cb0565b60405180910390f35b61091a60048036038101906109159190613c0a565b612729565b60405161092a9493929190614417565b60405180910390f35b61094d60048036038101906109489190613c61565b6127c7565b60405161095a9190613cb0565b60405180910390f35b60007f80ac58cd000000000000000000000000000000000000000000000000000000007bffffffffffffffffffffffffffffffffffffffffffffffffffffffff1916827bffffffffffffffffffffffffffffffffffffffffffffffffffffffff19161480610a2e57507f5b5e139f000000000000000000000000000000000000000000000000000000007bffffffffffffffffffffffffffffffffffffffffffffffffffffffff1916827bffffffffffffffffffffffffffffffffffffffffffffffffffffffff1916145b80610a3e5750610a3d826127f8565b5b9050919050565b6000610a4f610cd2565b9050610a5b828d6112a1565b610a6f818c8c8c8c8c8c8c8c8c6000611b41565b600960008373ffffffffffffffffffffffffffffffffffffffff1673ffffffffffffffffffffffffffffffffffffffff168152602001908152602001600020819080600181540180825580915050600190039060005260206000200160009091909190915055505050505050505050505050565b606060008054610af29061448b565b80601f0160208091040260200160405190810160405280929190818152602001828054610b1e9061448b565b8015610b6b5780601f10610b4057610100808354040283529160200191610b6b565b820191906000526020600020905b815481529060010190602001808311610b4e57829003601f168201915b5050505050905090565b6000610b8082612862565b6004600083815260200190815260200160002060009054906101000a900473ffffffffffffffffffffffffffffffffffffffff169050919050565b6000610bc6826110c7565b90508073ffffffffffffffffffffffffffffffffffffffff168373ffffffffffffffffffffffffffffffffffffffff1603610c36576040517f08c379a0000000000000000000000000000000000000000000000000000000008152600401610c2d9061452e565b60405180910390fd5b8073ffffffffffffffffffffffffffffffffffffffff16610c556128ad565b73ffffffffffffffffffffffffffffffffffffffff161480610c845750610c8381610c7e6128ad565b612664565b5b610cc3576040517f08c379a0000000000000000000000000000000000000000000000000000000008152600401610cba906145c0565b60405180910390fd5b610ccd83836128b5565b505050565b6000600680549050905090565b60008142119050919050565b6000600960008373ffffffffffffffffffffffffffffffffffffffff1673ffffffffffffffffffffffffffffffffffffffff168152602001908152602001600020805490509050919050565b606060068281548110610d4d57610d4c6145e0565b5b906000526020600020018054610d629061448b565b80601f0160208091040260200160405190810160405280929190818152602001828054610d8e9061448b565b8015610ddb5780601f10610db057610100808354040283529160200191610ddb565b820191906000526020600020905b815481529060010190602001808311610dbe57829003601f168201915b50505050509050919050565b6000610df1610cd2565b9050610dfd828d6112a1565b610e11818c8c8c8c8c8c8c8c8c6001611b41565b600a60008373ffffffffffffffffffffffffffffffffffffffff1673ffffffffffffffffffffffffffffffffffffffff168152602001908152602001600020819080600181540180825580915050600190039060005260206000200160009091909190915055505050505050505050505050565b610e96610e906128ad565b8261296e565b610ed5576040517f08c379a0000000000000000000000000000000000000000000000000000000008152600401610ecc90614681565b60405180910390fd5b610ee0838383612a03565b505050565b42601081905550565b600060011515600e600084815260200190815260200160002060000160009054906101000a900460ff161515148015610f3b57506001600f60008481526020019081526020016000205410155b15610f495760019050610f4e565b600090505b919050565b600080601360008573ffffffffffffffffffffffffffffffffffffffff1673ffffffffffffffffffffffffffffffffffffffff168152602001908152602001600020600084815260200190815260200160002060000154601360008673ffffffffffffffffffffffffffffffffffffffff1673ffffffffffffffffffffffffffffffffffffffff168152602001908152602001600020600085815260200190815260200160002060010154915091509250929050565b61102483838360405180602001604052806000815250611ce0565b505050565b6000611033610cd2565b905061103f828d6112a1565b611053818c8c8c8c8c8c8c8c8c6001611b41565b600760008373ffffffffffffffffffffffffffffffffffffffff1673ffffffffffffffffffffffffffffffffffffffff168152602001908152602001600020819080600181540180825580915050600190039060005260206000200160009091909190915055505050505050505050505050565b6000806110d383612cfc565b9050600073ffffffffffffffffffffffffffffffffffffffff168173ffffffffffffffffffffffffffffffffffffffff1603611144576040517f08c379a000000000000000000000000000000000000000000000000000000000815260040161113b906146ed565b60405180910390fd5b80915050919050565b6060600b60008373ffffffffffffffffffffffffffffffffffffffff1673ffffffffffffffffffffffffffffffffffffffff1681526020019081526020016000208054806020026020016040519081016040528092919081815260200182805480156111d857602002820191906000526020600020905b8154815260200190600101908083116111c4575b50505050509050919050565b60115481565b60008073ffffffffffffffffffffffffffffffffffffffff168273ffffffffffffffffffffffffffffffffffffffff160361125a576040517f08c379a00000000000000000000000000000000000000000000000000000000081526004016112519061477f565b60405180910390fd5b600360008373ffffffffffffffffffffffffffffffffffffffff1673ffffffffffffffffffffffffffffffffffffffff168152602001908152602001600020549050919050565b600073ffffffffffffffffffffffffffffffffffffffff168273ffffffffffffffffffffffffffffffffffffffff1603611310576040517f08c379a000000000000000000000000000000000000000000000000000000000815260040161130790614811565b60405180910390fd5b600c81604051611320919061486d565b908152602001604051809103902060009054906101000a900460ff161561137c576040517f08c379a0000000000000000000000000000000000000000000000000000000008152600401611373906148f6565b60405180910390fd5b6006819080600181540180825580915050600190039060005260206000200160009091909190915090816113b09190614ac8565b50600060016006805490506113c59190614bc9565b90506113d18382612d39565b7f45704679a40d4b2ffe28aa7324f021775faaca4d40917fef2cdf38e53fd90a243382604051611402929190614bfd565b60405180910390a16001600c8360405161141c919061486d565b908152602001604051809103902060006101000a81548160ff0219169083151502179055506001600f600083815260200190815260200160002060008282546114659190614c26565b92505081905550505050565b8060118190555050565b6009602052816000526040600020818154811061149757600080fd5b90600052602060002001600091509150505481565b600d60009054906101000a900473ffffffffffffffffffffffffffffffffffffffff1681565b6000601260008473ffffffffffffffffffffffffffffffffffffffff1673ffffffffffffffffffffffffffffffffffffffff1681526020019081526020016000208054905090506000601260008573ffffffffffffffffffffffffffffffffffffffff1673ffffffffffffffffffffffffffffffffffffffff168152602001908152602001600020905060005b828110156116ff5760011515600e6000848481548110611582576115816145e0565b5b9060005260206000200154815260200190815260200160002060090160009054906101000a900460ff1615151480156115f357506115f2600e60008484815481106115d0576115cf6145e0565b5b9060005260206000200154815260200190815260200160002060080154610cdf565b5b156116ec57816001838054905061160a9190614bc9565b8154811061161b5761161a6145e0565b5b9060005260206000200154828281548110611639576116386145e0565b5b90600052602060002001819055508180548061165857611657614c5a565b5b600190038181906000526020600020016000905590556040518060400160405280600c81526020017f45585049524544204954454d0000000000000000000000000000000000000000815250600e600083815260200190815260200160002060020190816116c69190614ac8565b5083600e600083815260200190815260200160002060030190816116ea9190614ac8565b505b80806116f790614c89565b91505061155f565b5080601260008673ffffffffffffffffffffffffffffffffffffffff1673ffffffffffffffffffffffffffffffffffffffff16815260200190815260200160002090805461174e9291906136a5565b5050505050565b6060600180546117649061448b565b80601f01602080910402602001604051908101604052809291908181526020018280546117909061448b565b80156117dd5780601f106117b2576101008083540402835291602001916117dd565b820191906000526020600020905b8154815290600101906020018083116117c057829003601f168201915b5050505050905090565b60105481565b6117ff6117f86128ad565b8383612f56565b5050565b6006818154811061181357600080fd5b90600052602060002001600091509050805461182e9061448b565b80601f016020809104026020016040519081016040528092919081815260200182805461185a9061448b565b80156118a75780601f1061187c576101008083540402835291602001916118a7565b820191906000526020600020905b81548152906001019060200180831161188a57829003601f168201915b505050505081565b60006001600960008573ffffffffffffffffffffffffffffffffffffffff1673ffffffffffffffffffffffffffffffffffffffff168152602001908152602001600020805490506119009190614bc9565b905061190d833083612a03565b600960008473ffffffffffffffffffffffffffffffffffffffff1673ffffffffffffffffffffffffffffffffffffffff16815260200190815260200160002080548061195c5761195b614c5a565b5b6001900381819060005260206000200160009055905542601360008573ffffffffffffffffffffffffffffffffffffffff1673ffffffffffffffffffffffffffffffffffffffff16815260200190815260200160002060008381526020019081526020016000206000018190555081601360008573ffffffffffffffffffffffffffffffffffffffff1673ffffffffffffffffffffffffffffffffffffffff1681526020019081526020016000206000838152602001908152602001600020600101819055507f99039fcf0a98f484616c5196ee8b2ecfa971babf0b519848289ea4db381f85f783600d60009054906101000a900473ffffffffffffffffffffffffffffffffffffffff1683604051611a7793929190614cd1565b60405180910390a1505050565b81600e6000838152602001908152602001600020600801819055505050565b6000611aad610cd2565b9050611ab9828d6112a1565b611acd818c8c8c8c8c8c8c8c8c6001611b41565b600860008373ffffffffffffffffffffffffffffffffffffffff1673ffffffffffffffffffffffffffffffffffffffff168152602001908152602001600020819080600181540180825580915050600190039060005260206000200160009091909190915055505050505050505050505050565b89600e60008d815260200190815260200160002060000160006101000a81548160ff02191690831515021790555088600e60008d81526020019081526020016000206001019081611b929190614ac8565b5087600e60008d81526020019081526020016000206002019081611bb69190614ac8565b5086600e60008d81526020019081526020016000206003019081611bda9190614ac8565b5085600e60008d81526020019081526020016000206004019081611bfe9190614ac8565b5084600e60008d81526020019081526020016000206005018190555042600e60008d81526020019081526020016000206006018190555082600e60008d815260200190815260200160002060070160006101000a81548173ffffffffffffffffffffffffffffffffffffffff021916908373ffffffffffffffffffffffffffffffffffffffff16021790555081600e60008d81526020019081526020016000206008018190555080600e60008d815260200190815260200160002060090160006101000a81548160ff0219169083151502179055505050505050505050505050565b611cf1611ceb6128ad565b8361296e565b611d30576040517f08c379a0000000000000000000000000000000000000000000000000000000008152600401611d2790614681565b60405180910390fd5b611d3c848484846130c2565b50505050565b81811115611d85576040517f08c379a0000000000000000000000000000000000000000000000000000000008152600401611d7c90614d7a565b60405180910390fd5b60005b82811015611dae57611d9a3385612d39565b600181611da79190614c26565b9050611d88565b50505050565b60086020528160005260406000208181548110611dd057600080fd5b90600052602060002001600091509150505481565b600e6020528060005260406000206000915090508060000160009054906101000a900460ff1690806001018054611e1b9061448b565b80601f0160208091040260200160405190810160405280929190818152602001828054611e479061448b565b8015611e945780601f10611e6957610100808354040283529160200191611e94565b820191906000526020600020905b815481529060010190602001808311611e7757829003601f168201915b505050505090806002018054611ea99061448b565b80601f0160208091040260200160405190810160405280929190818152602001828054611ed59061448b565b8015611f225780601f10611ef757610100808354040283529160200191611f22565b820191906000526020600020905b815481529060010190602001808311611f0557829003601f168201915b505050505090806003018054611f379061448b565b80601f0160208091040260200160405190810160405280929190818152602001828054611f639061448b565b8015611fb05780601f10611f8557610100808354040283529160200191611fb0565b820191906000526020600020905b815481529060010190602001808311611f9357829003601f168201915b505050505090806004018054611fc59061448b565b80601f0160208091040260200160405190810160405280929190818152602001828054611ff19061448b565b801561203e5780601f106120135761010080835404028352916020019161203e565b820191906000526020600020905b81548152906001019060200180831161202157829003601f168201915b5050505050908060050154908060060154908060070160009054906101000a900473ffffffffffffffffffffffffffffffffffffffff16908060080154908060090160009054906101000a900460ff1690508a565b600d60009054906101000a900473ffffffffffffffffffffffffffffffffffffffff1673ffffffffffffffffffffffffffffffffffffffff163373ffffffffffffffffffffffffffffffffffffffff1614612123576040517f08c379a000000000000000000000000000000000000000000000000000000000815260040161211a90614e0c565b60405180910390fd5b80600e600084815260200190815260200160002060030190816121469190614ac8565b505050565b6060806060806000600e6000878152602001908152602001600020600101600e6000888152602001908152602001600020600201600e6000898152602001908152602001600020600301600e60008a8152602001908152602001600020600401600e60008b8152602001908152602001600020600501548480546121ce9061448b565b80601f01602080910402602001604051908101604052809291908181526020018280546121fa9061448b565b80156122475780601f1061221c57610100808354040283529160200191612247565b820191906000526020600020905b81548152906001019060200180831161222a57829003601f168201915b5050505050945083805461225a9061448b565b80601f01602080910402602001604051908101604052809291908181526020018280546122869061448b565b80156122d35780601f106122a8576101008083540402835291602001916122d3565b820191906000526020600020905b8154815290600101906020018083116122b657829003601f168201915b505050505093508280546122e69061448b565b80601f01602080910402602001604051908101604052809291908181526020018280546123129061448b565b801561235f5780601f106123345761010080835404028352916020019161235f565b820191906000526020600020905b81548152906001019060200180831161234257829003601f168201915b505050505092508180546123729061448b565b80601f016020809104026020016040519081016040528092919081815260200182805461239e9061448b565b80156123eb5780601f106123c0576101008083540402835291602001916123eb565b820191906000526020600020905b8154815290600101906020018083116123ce57829003601f168201915b505050505091509450945094509450945091939590929450565b606061241082612862565b600061241a61311e565b9050600081511161243a5760405180602001604052806000815250612465565b8061244484613135565b604051602001612455929190614e2c565b6040516020818303038152906040525b915050919050565b600c8160405161247d919061486d565b908152602001604051809103902060009054906101000a900460ff16156124d9576040517f08c379a00000000000000000000000000000000000000000000000000000000081526004016124d0906148f6565b60405180910390fd5b60068190806001815401808255809150506001900390600052602060002001600090919091909150908161250d9190614ac8565b50600060016006805490506125229190614bc9565b905061252e3382612d39565b7f45704679a40d4b2ffe28aa7324f021775faaca4d40917fef2cdf38e53fd90a24338260405161255f929190614bfd565b60405180910390a1601260003373ffffffffffffffffffffffffffffffffffffffff1673ffffffffffffffffffffffffffffffffffffffff1681526020019081526020016000208190806001815401808255809150506001900390600052602060002001600090919091909150556001600f600083815260200190815260200160002060008282546125f19190614c26565b925050819055506001600c8360405161260a919061486d565b908152602001604051809103902060006101000a81548160ff0219169083151502179055505050565b6007602052816000526040600020818154811061264f57600080fd5b90600052602060002001600091509150505481565b6000600560008473ffffffffffffffffffffffffffffffffffffffff1673ffffffffffffffffffffffffffffffffffffffff16815260200190815260200160002060008373ffffffffffffffffffffffffffffffffffffffff1673ffffffffffffffffffffffffffffffffffffffff16815260200190815260200160002060009054906101000a900460ff16905092915050565b600b602052816000526040600020818154811061271457600080fd5b90600052602060002001600091509150505481565b600080600080600e600086815260200190815260200160002060060154600e600087815260200190815260200160002060070160009054906101000a900473ffffffffffffffffffffffffffffffffffffffff16600e600088815260200190815260200160002060080154600e600089815260200190815260200160002060090160009054906101000a900460ff1693509350935093509193509193565b600a60205281600052604060002081815481106127e357600080fd5b90600052602060002001600091509150505481565b60007f01ffc9a7000000000000000000000000000000000000000000000000000000007bffffffffffffffffffffffffffffffffffffffffffffffffffffffff1916827bffffffffffffffffffffffffffffffffffffffffffffffffffffffff1916149050919050565b61286b81613203565b6128aa576040517f08c379a00000000000000000000000000000000000000000000000000000000081526004016128a1906146ed565b60405180910390fd5b50565b600033905090565b816004600083815260200190815260200160002060006101000a81548173ffffffffffffffffffffffffffffffffffffffff021916908373ffffffffffffffffffffffffffffffffffffffff160217905550808273ffffffffffffffffffffffffffffffffffffffff16612928836110c7565b73ffffffffffffffffffffffffffffffffffffffff167f8c5be1e5ebec7d5bd14f71427d1e84f3dd0314c0f7b2291e5b200ac8c7c3b92560405160405180910390a45050565b60008061297a836110c7565b90508073ffffffffffffffffffffffffffffffffffffffff168473ffffffffffffffffffffffffffffffffffffffff1614806129bc57506129bb8185612664565b5b806129fa57508373ffffffffffffffffffffffffffffffffffffffff166129e284610b75565b73ffffffffffffffffffffffffffffffffffffffff16145b91505092915050565b8273ffffffffffffffffffffffffffffffffffffffff16612a23826110c7565b73ffffffffffffffffffffffffffffffffffffffff1614612a79576040517f08c379a0000000000000000000000000000000000000000000000000000000008152600401612a7090614ec2565b60405180910390fd5b600073ffffffffffffffffffffffffffffffffffffffff168273ffffffffffffffffffffffffffffffffffffffff1603612ae8576040517f08c379a0000000000000000000000000000000000000000000000000000000008152600401612adf90614f54565b60405180910390fd5b612af58383836001613244565b8273ffffffffffffffffffffffffffffffffffffffff16612b15826110c7565b73ffffffffffffffffffffffffffffffffffffffff1614612b6b576040517f08c379a0000000000000000000000000000000000000000000000000000000008152600401612b6290614ec2565b60405180910390fd5b6004600082815260200190815260200160002060006101000a81549073ffffffffffffffffffffffffffffffffffffffff02191690556001600360008573ffffffffffffffffffffffffffffffffffffffff1673ffffffffffffffffffffffffffffffffffffffff168152602001908152602001600020600082825403925050819055506001600360008473ffffffffffffffffffffffffffffffffffffffff1673ffffffffffffffffffffffffffffffffffffffff16815260200190815260200160002060008282540192505081905550816002600083815260200190815260200160002060006101000a81548173ffffffffffffffffffffffffffffffffffffffff021916908373ffffffffffffffffffffffffffffffffffffffff160217905550808273ffffffffffffffffffffffffffffffffffffffff168473ffffffffffffffffffffffffffffffffffffffff167fddf252ad1be2c89b69c2b068fc378daa952ba7f163c4a11628f55a4df523b3ef60405160405180910390a4612cf7838383600161336a565b505050565b60006002600083815260200190815260200160002060009054906101000a900473ffffffffffffffffffffffffffffffffffffffff169050919050565b600073ffffffffffffffffffffffffffffffffffffffff168273ffffffffffffffffffffffffffffffffffffffff1603612da8576040517f08c379a0000000000000000000000000000000000000000000000000000000008152600401612d9f90614fc0565b60405180910390fd5b612db181613203565b15612df1576040517f08c379a0000000000000000000000000000000000000000000000000000000008152600401612de89061502c565b60405180910390fd5b612dff600083836001613244565b612e0881613203565b15612e48576040517f08c379a0000000000000000000000000000000000000000000000000000000008152600401612e3f9061502c565b60405180910390fd5b6001600360008473ffffffffffffffffffffffffffffffffffffffff1673ffffffffffffffffffffffffffffffffffffffff16815260200190815260200160002060008282540192505081905550816002600083815260200190815260200160002060006101000a81548173ffffffffffffffffffffffffffffffffffffffff021916908373ffffffffffffffffffffffffffffffffffffffff160217905550808273ffffffffffffffffffffffffffffffffffffffff16600073ffffffffffffffffffffffffffffffffffffffff167fddf252ad1be2c89b69c2b068fc378daa952ba7f163c4a11628f55a4df523b3ef60405160405180910390a4612f5260008383600161336a565b5050565b8173ffffffffffffffffffffffffffffffffffffffff168373ffffffffffffffffffffffffffffffffffffffff1603612fc4576040517f08c379a0000000000000000000000000000000000000000000000000000000008152600401612fbb90615098565b60405180910390fd5b80600560008573ffffffffffffffffffffffffffffffffffffffff1673ffffffffffffffffffffffffffffffffffffffff16815260200190815260200160002060008473ffffffffffffffffffffffffffffffffffffffff1673ffffffffffffffffffffffffffffffffffffffff16815260200190815260200160002060006101000a81548160ff0219169083151502179055508173ffffffffffffffffffffffffffffffffffffffff168373ffffffffffffffffffffffffffffffffffffffff167f17307eab39ab6107e8899845ad3d59bd9653f200f220920489ca2b5937696c31836040516130b591906137c8565b60405180910390a3505050565b6130cd848484612a03565b6130d984848484613370565b613118576040517f08c379a000000000000000000000000000000000000000000000000000000000815260040161310f9061512a565b60405180910390fd5b50505050565b606060405180602001604052806000815250905090565b6060600060016131448461352f565b01905060008167ffffffffffffffff811115613163576131626137fe565b5b6040519080825280601f01601f1916602001820160405280156131955781602001600182028036833780820191505090505b509050600082602001820190505b6001156131f8578080600190039150507f3031323334353637383961626364656600000000000000000000000000000000600a86061a8153600a85816131ec576131eb61514a565b5b049450600085036131a3575b819350505050919050565b60008073ffffffffffffffffffffffffffffffffffffffff1661322583612cfc565b73ffffffffffffffffffffffffffffffffffffffff1614159050919050565b600181111561336457600073ffffffffffffffffffffffffffffffffffffffff168473ffffffffffffffffffffffffffffffffffffffff16146132d85780600360008673ffffffffffffffffffffffffffffffffffffffff1673ffffffffffffffffffffffffffffffffffffffff16815260200190815260200160002060008282546132d09190614bc9565b925050819055505b600073ffffffffffffffffffffffffffffffffffffffff168373ffffffffffffffffffffffffffffffffffffffff16146133635780600360008573ffffffffffffffffffffffffffffffffffffffff1673ffffffffffffffffffffffffffffffffffffffff168152602001908152602001600020600082825461335b9190614c26565b925050819055505b5b50505050565b50505050565b60006133918473ffffffffffffffffffffffffffffffffffffffff16613682565b15613522578373ffffffffffffffffffffffffffffffffffffffff1663150b7a026133ba6128ad565b8786866040518563ffffffff167c01000000000000000000000000000000000000000000000000000000000281526004016133f894939291906151ce565b6020604051808303816000875af192505050801561343457506040513d601f19601f82011682018060405250810190613431919061522f565b60015b6134b6573d8060008114613464576040519150601f19603f3d011682016040523d82523d6000602084013e613469565b606091505b5060008151036134ae576040517f08c379a00000000000000000000000000000000000000000000000000000000081526004016134a59061512a565b60405180910390fd5b805181602001fd5b63150b7a027c0100000000000000000000000000000000000000000000000000000000027bffffffffffffffffffffffffffffffffffffffffffffffffffffffff1916817bffffffffffffffffffffffffffffffffffffffffffffffffffffffff191614915050613527565b600190505b949350505050565b600080600090507a184f03e93ff9f4daa797ed6e38ed64bf6a1f010000000000000000831061358d577a184f03e93ff9f4daa797ed6e38ed64bf6a1f01000000000000000083816135835761358261514a565b5b0492506040810190505b6d04ee2d6d415b85acef810000000083106135ca576d04ee2d6d415b85acef810000000083816135c0576135bf61514a565b5b0492506020810190505b662386f26fc1000083106135f957662386f26fc1000083816135ef576135ee61514a565b5b0492506010810190505b6305f5e1008310613622576305f5e10083816136185761361761514a565b5b0492506008810190505b612710831061364757612710838161363d5761363c61514a565b5b0492506004810190505b6064831061366a57606483816136605761365f61514a565b5b0492506002810190505b600a8310613679576001810190505b80915050919050565b6000808273ffffffffffffffffffffffffffffffffffffffff163b119050919050565b8280548282559060005260206000209081019282156136e65760005260206000209182015b828111156136e55782548255916001019190600101906136ca565b5b5090506136f391906136f7565b5090565b5b808211156137105760008160009055506001016136f8565b5090565b6000604051905090565b600080fd5b600080fd5b60007fffffffff0000000000000000000000000000000000000000000000000000000082169050919050565b61375d81613728565b811461376857600080fd5b50565b60008135905061377a81613754565b92915050565b6000602082840312156137965761379561371e565b5b60006137a48482850161376b565b91505092915050565b60008115159050919050565b6137c2816137ad565b82525050565b60006020820190506137dd60008301846137b9565b92915050565b600080fd5b600080fd5b6000601f19601f8301169050919050565b7f4e487b7100000000000000000000000000000000000000000000000000000000600052604160045260246000fd5b613836826137ed565b810181811067ffffffffffffffff82111715613855576138546137fe565b5b80604052505050565b6000613868613714565b9050613874828261382d565b919050565b600067ffffffffffffffff821115613894576138936137fe565b5b61389d826137ed565b9050602081019050919050565b82818337600083830152505050565b60006138cc6138c784613879565b61385e565b9050828152602081018484840111156138e8576138e76137e8565b5b6138f38482856138aa565b509392505050565b600082601f8301126139105761390f6137e3565b5b81356139208482602086016138b9565b91505092915050565b613932816137ad565b811461393d57600080fd5b50565b60008135905061394f81613929565b92915050565b6000819050919050565b61396881613955565b811461397357600080fd5b50565b6000813590506139858161395f565b92915050565b600073ffffffffffffffffffffffffffffffffffffffff82169050919050565b60006139b68261398b565b9050919050565b6139c6816139ab565b81146139d157600080fd5b50565b6000813590506139e3816139bd565b92915050565b60008060008060008060008060008060006101608c8e031215613a0f57613a0e61371e565b5b60008c013567ffffffffffffffff811115613a2d57613a2c613723565b5b613a398e828f016138fb565b9b50506020613a4a8e828f01613940565b9a505060408c013567ffffffffffffffff811115613a6b57613a6a613723565b5b613a778e828f016138fb565b99505060608c013567ffffffffffffffff811115613a9857613a97613723565b5b613aa48e828f016138fb565b98505060808c013567ffffffffffffffff811115613ac557613ac4613723565b5b613ad18e828f016138fb565b97505060a08c013567ffffffffffffffff811115613af257613af1613723565b5b613afe8e828f016138fb565b96505060c0613b0f8e828f01613976565b95505060e0613b208e828f01613976565b945050610100613b328e828f016139d4565b935050610120613b448e828f01613976565b925050610140613b568e828f016139d4565b9150509295989b509295989b9093969950565b600081519050919050565b600082825260208201905092915050565b60005b83811015613ba3578082015181840152602081019050613b88565b60008484015250505050565b6000613bba82613b69565b613bc48185613b74565b9350613bd4818560208601613b85565b613bdd816137ed565b840191505092915050565b60006020820190508181036000830152613c028184613baf565b905092915050565b600060208284031215613c2057613c1f61371e565b5b6000613c2e84828501613976565b91505092915050565b613c40816139ab565b82525050565b6000602082019050613c5b6000830184613c37565b92915050565b60008060408385031215613c7857613c7761371e565b5b6000613c86858286016139d4565b9250506020613c9785828601613976565b9150509250929050565b613caa81613955565b82525050565b6000602082019050613cc56000830184613ca1565b92915050565b600060208284031215613ce157613ce061371e565b5b6000613cef848285016139d4565b91505092915050565b600080600060608486031215613d1157613d1061371e565b5b6000613d1f868287016139d4565b9350506020613d30868287016139d4565b9250506040613d4186828701613976565b9150509250925092565b6000604082019050613d606000830185613ca1565b613d6d6020830184613ca1565b9392505050565b600081519050919050565b600082825260208201905092915050565b6000819050602082019050919050565b613da981613955565b82525050565b6000613dbb8383613da0565b60208301905092915050565b6000602082019050919050565b6000613ddf82613d74565b613de98185613d7f565b9350613df483613d90565b8060005b83811015613e25578151613e0c8882613daf565b9750613e1783613dc7565b925050600181019050613df8565b5085935050505092915050565b60006020820190508181036000830152613e4c8184613dd4565b905092915050565b60008060408385031215613e6b57613e6a61371e565b5b6000613e79858286016139d4565b925050602083013567ffffffffffffffff811115613e9a57613e99613723565b5b613ea6858286016138fb565b9150509250929050565b60008060408385031215613ec757613ec661371e565b5b6000613ed5858286016139d4565b9250506020613ee685828601613940565b9150509250929050565b60008060408385031215613f0757613f0661371e565b5b6000613f1585828601613976565b9250506020613f2685828601613976565b9150509250929050565b60008060008060008060008060008060006101608c8e031215613f5657613f5561371e565b5b6000613f648e828f01613976565b9b50506020613f758e828f01613940565b9a505060408c013567ffffffffffffffff811115613f9657613f95613723565b5b613fa28e828f016138fb565b99505060608c013567ffffffffffffffff811115613fc357613fc2613723565b5b613fcf8e828f016138fb565b98505060808c013567ffffffffffffffff811115613ff057613fef613723565b5b613ffc8e828f016138fb565b97505060a08c013567ffffffffffffffff81111561401d5761401c613723565b5b6140298e828f016138fb565b96505060c061403a8e828f01613976565b95505060e061404b8e828f01613976565b94505061010061405d8e828f016139d4565b93505061012061406f8e828f01613976565b9250506101406140818e828f01613940565b9150509295989b509295989b9093969950565b600067ffffffffffffffff8211156140af576140ae6137fe565b5b6140b8826137ed565b9050602081019050919050565b60006140d86140d384614094565b61385e565b9050828152602081018484840111156140f4576140f36137e8565b5b6140ff8482856138aa565b509392505050565b600082601f83011261411c5761411b6137e3565b5b813561412c8482602086016140c5565b91505092915050565b6000806000806080858703121561414f5761414e61371e565b5b600061415d878288016139d4565b945050602061416e878288016139d4565b935050604061417f87828801613976565b925050606085013567ffffffffffffffff8111156141a05761419f613723565b5b6141ac87828801614107565b91505092959194509250565b6000806000606084860312156141d1576141d061371e565b5b60006141df86828701613976565b93505060206141f086828701613976565b925050604061420186828701613976565b9150509250925092565b600061014082019050614221600083018d6137b9565b8181036020830152614233818c613baf565b90508181036040830152614247818b613baf565b9050818103606083015261425b818a613baf565b9050818103608083015261426f8189613baf565b905061427e60a0830188613ca1565b61428b60c0830187613ca1565b61429860e0830186613c37565b6142a6610100830185613ca1565b6142b46101208301846137b9565b9b9a5050505050505050505050565b600080604083850312156142da576142d961371e565b5b60006142e885828601613976565b925050602083013567ffffffffffffffff81111561430957614308613723565b5b614315858286016138fb565b9150509250929050565b600060a08201905081810360008301526143398188613baf565b9050818103602083015261434d8187613baf565b905081810360408301526143618186613baf565b905081810360608301526143758185613baf565b90506143846080830184613ca1565b9695505050505050565b6000602082840312156143a4576143a361371e565b5b600082013567ffffffffffffffff8111156143c2576143c1613723565b5b6143ce848285016138fb565b91505092915050565b600080604083850312156143ee576143ed61371e565b5b60006143fc858286016139d4565b925050602061440d858286016139d4565b9150509250929050565b600060808201905061442c6000830187613ca1565b6144396020830186613c37565b6144466040830185613ca1565b61445360608301846137b9565b95945050505050565b7f4e487b7100000000000000000000000000000000000000000000000000000000600052602260045260246000fd5b600060028204905060018216806144a357607f821691505b6020821081036144b6576144b561445c565b5b50919050565b7f4552433732313a20617070726f76616c20746f2063757272656e74206f776e6560008201527f7200000000000000000000000000000000000000000000000000000000000000602082015250565b6000614518602183613b74565b9150614523826144bc565b604082019050919050565b600060208201905081810360008301526145478161450b565b9050919050565b7f4552433732313a20617070726f76652063616c6c6572206973206e6f7420746f60008201527f6b656e206f776e6572206f7220617070726f76656420666f7220616c6c000000602082015250565b60006145aa603d83613b74565b91506145b58261454e565b604082019050919050565b600060208201905081810360008301526145d98161459d565b9050919050565b7f4e487b7100000000000000000000000000000000000000000000000000000000600052603260045260246000fd5b7f4552433732313a2063616c6c6572206973206e6f7420746f6b656e206f776e6560008201527f72206f7220617070726f76656400000000000000000000000000000000000000602082015250565b600061466b602d83613b74565b91506146768261460f565b604082019050919050565b6000602082019050818103600083015261469a8161465e565b9050919050565b7f4552433732313a20696e76616c696420746f6b656e2049440000000000000000600082015250565b60006146d7601883613b74565b91506146e2826146a1565b602082019050919050565b60006020820190508181036000830152614706816146ca565b9050919050565b7f4552433732313a2061646472657373207a65726f206973206e6f74206120766160008201527f6c6964206f776e65720000000000000000000000000000000000000000000000602082015250565b6000614769602983613b74565b91506147748261470d565b604082019050919050565b600060208201905081810360008301526147988161475c565b9050919050565b7f4552433732313a206d696e74696e6720746f207468652030206164647265737360008201527f2e00000000000000000000000000000000000000000000000000000000000000602082015250565b60006147fb602183613b74565b91506148068261479f565b604082019050919050565b6000602082019050818103600083015261482a816147ee565b9050919050565b600081905092915050565b600061484782613b69565b6148518185614831565b9350614861818560208601613b85565b80840191505092915050565b6000614879828461483c565b915081905092915050565b7f44616e6720697421212c2049204861766520616c7265616479206265656e206d60008201527f696e746564000000000000000000000000000000000000000000000000000000602082015250565b60006148e0602583613b74565b91506148eb82614884565b604082019050919050565b6000602082019050818103600083015261490f816148d3565b9050919050565b60008190508160005260206000209050919050565b60006020601f8301049050919050565b60008160020a8302905092915050565b60006008830261497b7fffffffffffffffffffffffffffffffffffffffffffffffffffffffffffffffff8261493b565b614985868361493b565b95508019841693508086168417925050509392505050565b6000819050919050565b60006149c26149bd6149b884613955565b61499d565b613955565b9050919050565b6000819050919050565b6149dc836149a7565b6149f06149e8826149c9565b84845461494b565b825550505050565b600090565b614a056149f8565b614a108184846149d3565b505050565b5b81811015614a3457614a296000826149fd565b600181019050614a16565b5050565b601f821115614a7957614a4a81614916565b614a538461492b565b81016020851015614a62578190505b614a76614a6e8561492b565b830182614a15565b50505b505050565b60008160020a8304905092915050565b6000614a9f60001984600802614a7e565b1980831691505092915050565b6000614ab88383614a8e565b9150826002028217905092915050565b614ad182613b69565b67ffffffffffffffff811115614aea57614ae96137fe565b5b614af4825461448b565b614aff828285614a38565b600060209050601f831160018114614b325760008415614b20578287015190505b614b2a8582614aac565b865550614b92565b601f198416614b4086614916565b60005b82811015614b6857848901518255600182019150602085019450602081019050614b43565b86831015614b855784890151614b81601f891682614a8e565b8355505b6001600288020188555050505b505050505050565b7f4e487b7100000000000000000000000000000000000000000000000000000000600052601160045260246000fd5b6000614bd482613955565b9150614bdf83613955565b9250828203905081811115614bf757614bf6614b9a565b5b92915050565b6000604082019050614c126000830185613c37565b614c1f6020830184613ca1565b9392505050565b6000614c3182613955565b9150614c3c83613955565b9250828201905080821115614c5457614c53614b9a565b5b92915050565b7f4e487b7100000000000000000000000000000000000000000000000000000000600052603160045260246000fd5b6000614c9482613955565b91507fffffffffffffffffffffffffffffffffffffffffffffffffffffffffffffffff8203614cc657614cc5614b9a565b5b600182019050919050565b6000606082019050614ce66000830186613c37565b614cf36020830185613c37565b614d006040830184613ca1565b949350505050565b7f4d757374204e6f742065786365656420746865204361702070726f766964656460008201527f206279207468652073656c6c65722e2e2e000000000000000000000000000000602082015250565b6000614d64603183613b74565b9150614d6f82614d08565b604082019050919050565b60006020820190508181036000830152614d9381614d57565b9050919050565b7f4e6f7420617574686f726973656420746f20616464207468652055524c20746f60008201527f20746865204e4654000000000000000000000000000000000000000000000000602082015250565b6000614df6602883613b74565b9150614e0182614d9a565b604082019050919050565b60006020820190508181036000830152614e2581614de9565b9050919050565b6000614e38828561483c565b9150614e44828461483c565b91508190509392505050565b7f4552433732313a207472616e736665722066726f6d20696e636f72726563742060008201527f6f776e6572000000000000000000000000000000000000000000000000000000602082015250565b6000614eac602583613b74565b9150614eb782614e50565b604082019050919050565b60006020820190508181036000830152614edb81614e9f565b9050919050565b7f4552433732313a207472616e7366657220746f20746865207a65726f2061646460008201527f7265737300000000000000000000000000000000000000000000000000000000602082015250565b6000614f3e602483613b74565b9150614f4982614ee2565b604082019050919050565b60006020820190508181036000830152614f6d81614f31565b9050919050565b7f4552433732313a206d696e7420746f20746865207a65726f2061646472657373600082015250565b6000614faa602083613b74565b9150614fb582614f74565b602082019050919050565b60006020820190508181036000830152614fd981614f9d565b9050919050565b7f4552433732313a20746f6b656e20616c7265616479206d696e74656400000000600082015250565b6000615016601c83613b74565b915061502182614fe0565b602082019050919050565b6000602082019050818103600083015261504581615009565b9050919050565b7f4552433732313a20617070726f766520746f2063616c6c657200000000000000600082015250565b6000615082601983613b74565b915061508d8261504c565b602082019050919050565b600060208201905081810360008301526150b181615075565b9050919050565b7f4552433732313a207472616e7366657220746f206e6f6e20455243373231526560008201527f63656976657220696d706c656d656e7465720000000000000000000000000000602082015250565b6000615114603283613b74565b915061511f826150b8565b604082019050919050565b6000602082019050818103600083015261514381615107565b9050919050565b7f4e487b7100000000000000000000000000000000000000000000000000000000600052601260045260246000fd5b600081519050919050565b600082825260208201905092915050565b60006151a082615179565b6151aa8185615184565b93506151ba818560208601613b85565b6151c3816137ed565b840191505092915050565b60006080820190506151e36000830187613c37565b6151f06020830186613c37565b6151fd6040830185613ca1565b818103606083015261520f8184615195565b905095945050505050565b60008151905061522981613754565b92915050565b6000602082840312156152455761524461371e565b5b60006152538482850161521a565b9150509291505056fea264697066735822122024bd6ab4a87e4c6de2627c31d19373cf18faedff8cfe2de4a3862aadca7cf29c64736f6c63430008110033",
  "immutableReferences": {},
  "source": "// SPDX-License-Identifier: MIT\r\n// pragma solidity >=0.4.22 <0.9.0;\r\n// pragma solidity ^0.7.0;\r\n// import \"./ERC721.sol\";\r\n\r\n// contract checkRefurbished is ERC721 {\r\n//     modifier refurbishedCheck(uint256 _tokenId) {\r\n//         require(\r\n//             previousOwners[_tokenId] < 1,\r\n//             \"Yes this is a refurbished Item, It has been sold more than once..\"\r\n//         );\r\n//         _;\r\n//     }\r\n\r\n//     // function additems(uint _tokenId ) public {\r\n//     //     previousOwners[_tokenId]+=1;\r\n//     // }\r\n\r\n//     //create a seperate mapping in NFT, which is named as Previous Owners.... as uint=>uint..where 1st uint is token id and second one is how many owners it had...\r\n//     function check(uint256 _tokenId)\r\n//         public\r\n//         view\r\n//         refurbishedCheck(_tokenId)\r\n//         returns (bool)\r\n//     {\r\n//         return false; //meaning that this is not a refurbished item.\r\n//     }\r\n// }\r\n\r\npragma solidity >=0.4.22 <0.9.0;\r\nimport \"./NFT.sol\";\r\n\r\ncontract checkRefurbished is NFT {\r\n    //custom event and emit...\r\n    function checkRefurbishedItem(uint256 tokenId) public view returns (bool) {\r\n        if (NFTinfo[tokenId].minted == true && previousOwners[tokenId] >= 1) {\r\n            return true; //true means that the item is refurbished\r\n        }\r\n        return false; //false means it is not refurbished and has not been minted yet....\r\n    }\r\n}\r\n",
  "sourcePath": "C:\\Users\\Neeraj\\Desktop\\Sterling Store\\src\\contracts\\CheckRefurbished.sol",
  "compiler": {
    "name": "solc",
    "version": "0.8.17+commit.8df45f5f.Emscripten.clang"
  },
  "schemaVersion": "3.4.11",
  "updatedAt": "2023-01-23T10:35:29.000Z",
  "devdoc": {
    "kind": "dev",
    "methods": {
      "approve(address,uint256)": {
        "details": "See {IERC721-approve}."
      },
      "balanceOf(address)": {
        "details": "See {IERC721-balanceOf}."
      },
      "getApproved(uint256)": {
        "details": "See {IERC721-getApproved}."
      },
      "isApprovedForAll(address,address)": {
        "details": "See {IERC721-isApprovedForAll}."
      },
      "name()": {
        "details": "See {IERC721Metadata-name}."
      },
      "ownerOf(uint256)": {
        "details": "See {IERC721-ownerOf}."
      },
      "safeTransferFrom(address,address,uint256)": {
        "details": "See {IERC721-safeTransferFrom}."
      },
      "safeTransferFrom(address,address,uint256,bytes)": {
        "details": "See {IERC721-safeTransferFrom}."
      },
      "setApprovalForAll(address,bool)": {
        "details": "See {IERC721-setApprovalForAll}."
      },
      "supportsInterface(bytes4)": {
        "details": "See {IERC165-supportsInterface}."
      },
      "symbol()": {
        "details": "See {IERC721Metadata-symbol}."
      },
      "tokenURI(uint256)": {
        "details": "See {IERC721Metadata-tokenURI}."
      },
      "transferFrom(address,address,uint256)": {
        "details": "See {IERC721-transferFrom}."
      }
    },
    "version": 1
  },
  "userdoc": {
    "kind": "user",
    "methods": {},
    "version": 1
  }
}