{
  "contractName": "checkRefurbished",
  "abi": [
    {
      "anonymous": false,
      "inputs": [
        {
          "indexed": true,
          "internalType": "address",
          "name": "owner",
          "type": "address"
        },
        {
          "indexed": true,
          "internalType": "address",
          "name": "approved",
          "type": "address"
        },
        {
          "indexed": true,
          "internalType": "uint256",
          "name": "tokenId",
          "type": "uint256"
        }
      ],
      "name": "Approval",
      "type": "event"
    },
    {
      "anonymous": false,
      "inputs": [
        {
          "indexed": true,
          "internalType": "address",
          "name": "owner",
          "type": "address"
        },
        {
          "indexed": true,
          "internalType": "address",
          "name": "operator",
          "type": "address"
        },
        {
          "indexed": false,
          "internalType": "bool",
          "name": "approved",
          "type": "bool"
        }
      ],
      "name": "ApprovalForAll",
      "type": "event"
    },
    {
      "anonymous": false,
      "inputs": [
        {
          "indexed": false,
          "internalType": "address",
          "name": "from",
          "type": "address"
        },
        {
          "indexed": false,
          "internalType": "address",
          "name": "to",
          "type": "address"
        },
        {
          "indexed": false,
          "internalType": "uint256",
          "name": "_tokenId",
          "type": "uint256"
        }
      ],
      "name": "Stake",
      "type": "event"
    },
    {
      "anonymous": false,
      "inputs": [
        {
          "indexed": true,
          "internalType": "address",
          "name": "from",
          "type": "address"
        },
        {
          "indexed": true,
          "internalType": "address",
          "name": "to",
          "type": "address"
        },
        {
          "indexed": true,
          "internalType": "uint256",
          "name": "tokenId",
          "type": "uint256"
        }
      ],
      "name": "Transfer",
      "type": "event"
    },
    {
      "anonymous": false,
      "inputs": [
        {
          "indexed": false,
          "internalType": "address",
          "name": "to",
          "type": "address"
        },
        {
          "indexed": false,
          "internalType": "uint256",
          "name": "_tokenId",
          "type": "uint256"
        }
      ],
      "name": "mintEvent",
      "type": "event"
    },
    {
      "inputs": [
        {
          "internalType": "address",
          "name": "",
          "type": "address"
        },
        {
          "internalType": "uint256",
          "name": "",
          "type": "uint256"
        }
      ],
      "name": "AllGenericNFT",
      "outputs": [
        {
          "internalType": "uint256",
          "name": "",
          "type": "uint256"
        }
      ],
      "stateMutability": "view",
      "type": "function",
      "constant": true
    },
    {
      "inputs": [
        {
          "internalType": "address",
          "name": "",
          "type": "address"
        },
        {
          "internalType": "uint256",
          "name": "",
          "type": "uint256"
        }
      ],
      "name": "AllNonTransferrableNFT",
      "outputs": [
        {
          "internalType": "uint256",
          "name": "",
          "type": "uint256"
        }
      ],
      "stateMutability": "view",
      "type": "function",
      "constant": true
    },
    {
      "inputs": [
        {
          "internalType": "address",
          "name": "",
          "type": "address"
        },
        {
          "internalType": "uint256",
          "name": "",
          "type": "uint256"
        }
      ],
      "name": "AllPreLaunchNFT",
      "outputs": [
        {
          "internalType": "uint256",
          "name": "",
          "type": "uint256"
        }
      ],
      "stateMutability": "view",
      "type": "function",
      "constant": true
    },
    {
      "inputs": [
        {
          "internalType": "address",
          "name": "",
          "type": "address"
        },
        {
          "internalType": "uint256",
          "name": "",
          "type": "uint256"
        }
      ],
      "name": "AllSpecialNFT",
      "outputs": [
        {
          "internalType": "uint256",
          "name": "",
          "type": "uint256"
        }
      ],
      "stateMutability": "view",
      "type": "function",
      "constant": true
    },
    {
      "inputs": [
        {
          "internalType": "address",
          "name": "_off",
          "type": "address"
        }
      ],
      "name": "AllSpecialNFTLength",
      "outputs": [
        {
          "internalType": "uint256",
          "name": "",
          "type": "uint256"
        }
      ],
      "stateMutability": "view",
      "type": "function",
      "constant": true
    },
    {
      "inputs": [
        {
          "internalType": "address",
          "name": "",
          "type": "address"
        },
        {
          "internalType": "uint256",
          "name": "",
          "type": "uint256"
        }
      ],
      "name": "AllStakedNFT",
      "outputs": [
        {
          "internalType": "uint256",
          "name": "",
          "type": "uint256"
        }
      ],
      "stateMutability": "view",
      "type": "function",
      "constant": true
    },
    {
      "inputs": [
        {
          "internalType": "uint256",
          "name": "",
          "type": "uint256"
        }
      ],
      "name": "NFTinfo",
      "outputs": [
        {
          "internalType": "bool",
          "name": "minted",
          "type": "bool"
        },
        {
          "internalType": "string",
          "name": "name",
          "type": "string"
        },
        {
          "internalType": "string",
          "name": "description",
          "type": "string"
        },
        {
          "internalType": "string",
          "name": "url",
          "type": "string"
        },
        {
          "internalType": "string",
          "name": "trxnHash",
          "type": "string"
        },
        {
          "internalType": "uint256",
          "name": "nftType",
          "type": "uint256"
        },
        {
          "internalType": "uint256",
          "name": "boughtOn",
          "type": "uint256"
        },
        {
          "internalType": "address",
          "name": "seller",
          "type": "address"
        },
        {
          "internalType": "uint256",
          "name": "ExpireOn",
          "type": "uint256"
        },
        {
          "internalType": "bool",
          "name": "expireable",
          "type": "bool"
        }
      ],
      "stateMutability": "view",
      "type": "function",
      "constant": true
    },
    {
      "inputs": [
        {
          "internalType": "uint256",
          "name": "",
          "type": "uint256"
        }
      ],
      "name": "NFTs",
      "outputs": [
        {
          "internalType": "string",
          "name": "",
          "type": "string"
        }
      ],
      "stateMutability": "view",
      "type": "function",
      "constant": true
    },
    {
      "inputs": [
        {
          "internalType": "address",
          "name": "_off",
          "type": "address"
        },
        {
          "internalType": "uint256",
          "name": "_till",
          "type": "uint256"
        }
      ],
      "name": "StakeSpecialNFT",
      "outputs": [],
      "stateMutability": "nonpayable",
      "type": "function"
    },
    {
      "inputs": [
        {
          "internalType": "string",
          "name": "_nft",
          "type": "string"
        },
        {
          "internalType": "bool",
          "name": "_minted",
          "type": "bool"
        },
        {
          "internalType": "string",
          "name": "_name",
          "type": "string"
        },
        {
          "internalType": "string",
          "name": "_description",
          "type": "string"
        },
        {
          "internalType": "string",
          "name": "_url",
          "type": "string"
        },
        {
          "internalType": "string",
          "name": "_trxnHash",
          "type": "string"
        },
        {
          "internalType": "uint256",
          "name": "_nftType",
          "type": "uint256"
        },
        {
          "internalType": "uint256",
          "name": "_boughtOn",
          "type": "uint256"
        },
        {
          "internalType": "address",
          "name": "_seller",
          "type": "address"
        },
        {
          "internalType": "uint256",
          "name": "_ExpireOn",
          "type": "uint256"
        },
        {
          "internalType": "address",
          "name": "_off",
          "type": "address"
        }
      ],
      "name": "_Generic",
      "outputs": [],
      "stateMutability": "nonpayable",
      "type": "function"
    },
    {
      "inputs": [
        {
          "internalType": "string",
          "name": "_nft",
          "type": "string"
        },
        {
          "internalType": "bool",
          "name": "_minted",
          "type": "bool"
        },
        {
          "internalType": "string",
          "name": "_name",
          "type": "string"
        },
        {
          "internalType": "string",
          "name": "_description",
          "type": "string"
        },
        {
          "internalType": "string",
          "name": "_url",
          "type": "string"
        },
        {
          "internalType": "string",
          "name": "_trxnHash",
          "type": "string"
        },
        {
          "internalType": "uint256",
          "name": "_nftType",
          "type": "uint256"
        },
        {
          "internalType": "uint256",
          "name": "_boughtOn",
          "type": "uint256"
        },
        {
          "internalType": "address",
          "name": "_seller",
          "type": "address"
        },
        {
          "internalType": "uint256",
          "name": "_ExpireOn",
          "type": "uint256"
        },
        {
          "internalType": "address",
          "name": "_off",
          "type": "address"
        }
      ],
      "name": "_NonTransferableNFT",
      "outputs": [],
      "stateMutability": "nonpayable",
      "type": "function"
    },
    {
      "inputs": [
        {
          "internalType": "string",
          "name": "_nft",
          "type": "string"
        },
        {
          "internalType": "bool",
          "name": "_minted",
          "type": "bool"
        },
        {
          "internalType": "string",
          "name": "_name",
          "type": "string"
        },
        {
          "internalType": "string",
          "name": "_description",
          "type": "string"
        },
        {
          "internalType": "string",
          "name": "_url",
          "type": "string"
        },
        {
          "internalType": "string",
          "name": "_trxnHash",
          "type": "string"
        },
        {
          "internalType": "uint256",
          "name": "_nftType",
          "type": "uint256"
        },
        {
          "internalType": "uint256",
          "name": "_boughtOn",
          "type": "uint256"
        },
        {
          "internalType": "address",
          "name": "_seller",
          "type": "address"
        },
        {
          "internalType": "uint256",
          "name": "_ExpireOn",
          "type": "uint256"
        },
        {
          "internalType": "address",
          "name": "_off",
          "type": "address"
        }
      ],
      "name": "_PreLaunch",
      "outputs": [],
      "stateMutability": "nonpayable",
      "type": "function"
    },
    {
      "inputs": [
        {
          "internalType": "string",
          "name": "_nft",
          "type": "string"
        },
        {
          "internalType": "bool",
          "name": "_minted",
          "type": "bool"
        },
        {
          "internalType": "string",
          "name": "_name",
          "type": "string"
        },
        {
          "internalType": "string",
          "name": "_description",
          "type": "string"
        },
        {
          "internalType": "string",
          "name": "_url",
          "type": "string"
        },
        {
          "internalType": "string",
          "name": "_trxnHash",
          "type": "string"
        },
        {
          "internalType": "uint256",
          "name": "_nftType",
          "type": "uint256"
        },
        {
          "internalType": "uint256",
          "name": "_boughtOn",
          "type": "uint256"
        },
        {
          "internalType": "address",
          "name": "_seller",
          "type": "address"
        },
        {
          "internalType": "uint256",
          "name": "_ExpireOn",
          "type": "uint256"
        },
        {
          "internalType": "address",
          "name": "_off",
          "type": "address"
        }
      ],
      "name": "_Special",
      "outputs": [],
      "stateMutability": "nonpayable",
      "type": "function"
    },
    {
      "inputs": [
        {
          "internalType": "uint256",
          "name": "_expiryDate",
          "type": "uint256"
        },
        {
          "internalType": "uint256",
          "name": "_tokenId",
          "type": "uint256"
        }
      ],
      "name": "addExpiredOn",
      "outputs": [],
      "stateMutability": "nonpayable",
      "type": "function"
    },
    {
      "inputs": [
        {
          "internalType": "uint256",
          "name": "_tokenId",
          "type": "uint256"
        }
      ],
      "name": "addForSell",
      "outputs": [],
      "stateMutability": "nonpayable",
      "type": "function"
    },
    {
      "inputs": [],
      "name": "addNewBoughtOn",
      "outputs": [],
      "stateMutability": "nonpayable",
      "type": "function"
    },
    {
      "inputs": [
        {
          "internalType": "uint256",
          "name": "_tokenId",
          "type": "uint256"
        },
        {
          "internalType": "bool",
          "name": "_minted",
          "type": "bool"
        },
        {
          "internalType": "string",
          "name": "_name",
          "type": "string"
        },
        {
          "internalType": "string",
          "name": "_description",
          "type": "string"
        },
        {
          "internalType": "string",
          "name": "_url",
          "type": "string"
        },
        {
          "internalType": "string",
          "name": "_trxnHash",
          "type": "string"
        },
        {
          "internalType": "uint256",
          "name": "_nftType",
          "type": "uint256"
        },
        {
          "internalType": "uint256",
          "name": "_boughtOn",
          "type": "uint256"
        },
        {
          "internalType": "address",
          "name": "_seller",
          "type": "address"
        },
        {
          "internalType": "uint256",
          "name": "_ExpireOn",
          "type": "uint256"
        },
        {
          "internalType": "bool",
          "name": "_expireable",
          "type": "bool"
        }
      ],
      "name": "addNftProp",
      "outputs": [],
      "stateMutability": "nonpayable",
      "type": "function"
    },
    {
      "inputs": [
        {
          "internalType": "uint256",
          "name": "_exp",
          "type": "uint256"
        }
      ],
      "name": "addTempExp",
      "outputs": [],
      "stateMutability": "nonpayable",
      "type": "function"
    },
    {
      "inputs": [
        {
          "internalType": "address",
          "name": "to",
          "type": "address"
        },
        {
          "internalType": "uint256",
          "name": "tokenId",
          "type": "uint256"
        }
      ],
      "name": "approve",
      "outputs": [],
      "stateMutability": "nonpayable",
      "type": "function"
    },
    {
      "inputs": [],
      "name": "availableToBuy",
      "outputs": [
        {
          "components": [
            {
              "internalType": "bool",
              "name": "minted",
              "type": "bool"
            },
            {
              "internalType": "string",
              "name": "name",
              "type": "string"
            },
            {
              "internalType": "string",
              "name": "description",
              "type": "string"
            },
            {
              "internalType": "string",
              "name": "url",
              "type": "string"
            },
            {
              "internalType": "string",
              "name": "trxnHash",
              "type": "string"
            },
            {
              "internalType": "uint256",
              "name": "nftType",
              "type": "uint256"
            },
            {
              "internalType": "uint256",
              "name": "boughtOn",
              "type": "uint256"
            },
            {
              "internalType": "address",
              "name": "seller",
              "type": "address"
            },
            {
              "internalType": "uint256",
              "name": "ExpireOn",
              "type": "uint256"
            },
            {
              "internalType": "bool",
              "name": "expireable",
              "type": "bool"
            }
          ],
          "internalType": "struct NFT.nftProp[]",
          "name": "",
          "type": "tuple[]"
        },
        {
          "internalType": "uint256[]",
          "name": "",
          "type": "uint256[]"
        }
      ],
      "stateMutability": "view",
      "type": "function",
      "constant": true
    },
    {
      "inputs": [
        {
          "internalType": "address",
          "name": "owner",
          "type": "address"
        }
      ],
      "name": "balanceOf",
      "outputs": [
        {
          "internalType": "uint256",
          "name": "",
          "type": "uint256"
        }
      ],
      "stateMutability": "view",
      "type": "function",
      "constant": true
    },
    {
      "inputs": [],
      "name": "boughtOnDate",
      "outputs": [
        {
          "internalType": "uint256",
          "name": "",
          "type": "uint256"
        }
      ],
      "stateMutability": "view",
      "type": "function",
      "constant": true
    },
    {
      "inputs": [
        {
          "internalType": "uint256",
          "name": "tokenId",
          "type": "uint256"
        },
        {
          "internalType": "uint256",
          "name": "_NumberOfItems",
          "type": "uint256"
        },
        {
          "internalType": "uint256",
          "name": "_cap",
          "type": "uint256"
        }
      ],
      "name": "buyBulk",
      "outputs": [],
      "stateMutability": "nonpayable",
      "type": "function"
    },
    {
      "inputs": [
        {
          "internalType": "uint256",
          "name": "_tokenId",
          "type": "uint256"
        }
      ],
      "name": "buyNFT",
      "outputs": [],
      "stateMutability": "nonpayable",
      "type": "function"
    },
    {
      "inputs": [
        {
          "internalType": "address",
          "name": "_user",
          "type": "address"
        }
      ],
      "name": "getAllOwnerOwnedIds",
      "outputs": [
        {
          "internalType": "uint256[]",
          "name": "",
          "type": "uint256[]"
        }
      ],
      "stateMutability": "view",
      "type": "function",
      "constant": true
    },
    {
      "inputs": [
        {
          "internalType": "address",
          "name": "_off",
          "type": "address"
        }
      ],
      "name": "getAllStakedNFTFromAddress",
      "outputs": [
        {
          "internalType": "uint256[]",
          "name": "",
          "type": "uint256[]"
        }
      ],
      "stateMutability": "view",
      "type": "function",
      "constant": true
    },
    {
      "inputs": [
        {
          "internalType": "uint256",
          "name": "tokenId",
          "type": "uint256"
        }
      ],
      "name": "getApproved",
      "outputs": [
        {
          "internalType": "address",
          "name": "",
          "type": "address"
        }
      ],
      "stateMutability": "view",
      "type": "function",
      "constant": true
    },
    {
      "inputs": [
        {
          "internalType": "uint256",
          "name": "_tokenId",
          "type": "uint256"
        }
      ],
      "name": "getNFTtype",
      "outputs": [
        {
          "internalType": "uint256",
          "name": "",
          "type": "uint256"
        }
      ],
      "stateMutability": "view",
      "type": "function",
      "constant": true
    },
    {
      "inputs": [
        {
          "internalType": "address",
          "name": "_off",
          "type": "address"
        },
        {
          "internalType": "uint256",
          "name": "_tokenId",
          "type": "uint256"
        }
      ],
      "name": "getStakedNFTProp",
      "outputs": [
        {
          "internalType": "uint256",
          "name": "",
          "type": "uint256"
        },
        {
          "internalType": "uint256",
          "name": "",
          "type": "uint256"
        }
      ],
      "stateMutability": "view",
      "type": "function",
      "constant": true
    },
    {
      "inputs": [
        {
          "internalType": "uint256",
          "name": "__ExpireOn",
          "type": "uint256"
        }
      ],
      "name": "ifTimeHasPassed",
      "outputs": [
        {
          "internalType": "bool",
          "name": "",
          "type": "bool"
        }
      ],
      "stateMutability": "view",
      "type": "function",
      "constant": true
    },
    {
      "inputs": [
        {
          "internalType": "address",
          "name": "owner",
          "type": "address"
        },
        {
          "internalType": "address",
          "name": "operator",
          "type": "address"
        }
      ],
      "name": "isApprovedForAll",
      "outputs": [
        {
          "internalType": "bool",
          "name": "",
          "type": "bool"
        }
      ],
      "stateMutability": "view",
      "type": "function",
      "constant": true
    },
    {
      "inputs": [
        {
          "internalType": "string",
          "name": "_nft",
          "type": "string"
        }
      ],
      "name": "mint",
      "outputs": [],
      "stateMutability": "nonpayable",
      "type": "function"
    },
    {
      "inputs": [
        {
          "internalType": "address",
          "name": "to",
          "type": "address"
        },
        {
          "internalType": "string",
          "name": "_nft",
          "type": "string"
        }
      ],
      "name": "mintToOthers",
      "outputs": [],
      "stateMutability": "nonpayable",
      "type": "function"
    },
    {
      "inputs": [
        {
          "internalType": "address",
          "name": "_off",
          "type": "address"
        }
      ],
      "name": "myTotalNFTCount",
      "outputs": [
        {
          "internalType": "uint256",
          "name": "",
          "type": "uint256"
        }
      ],
      "stateMutability": "view",
      "type": "function",
      "constant": true
    },
    {
      "inputs": [],
      "name": "name",
      "outputs": [
        {
          "internalType": "string",
          "name": "",
          "type": "string"
        }
      ],
      "stateMutability": "view",
      "type": "function",
      "constant": true
    },
    {
      "inputs": [
        {
          "internalType": "uint256",
          "name": "_id",
          "type": "uint256"
        }
      ],
      "name": "nftVal",
      "outputs": [
        {
          "internalType": "string",
          "name": "",
          "type": "string"
        }
      ],
      "stateMutability": "view",
      "type": "function",
      "constant": true
    },
    {
      "inputs": [],
      "name": "nftsLen",
      "outputs": [
        {
          "internalType": "uint256",
          "name": "",
          "type": "uint256"
        }
      ],
      "stateMutability": "view",
      "type": "function",
      "constant": true
    },
    {
      "inputs": [],
      "name": "owner",
      "outputs": [
        {
          "internalType": "address",
          "name": "",
          "type": "address"
        }
      ],
      "stateMutability": "view",
      "type": "function",
      "constant": true
    },
    {
      "inputs": [
        {
          "internalType": "uint256",
          "name": "tokenId",
          "type": "uint256"
        }
      ],
      "name": "ownerOf",
      "outputs": [
        {
          "internalType": "address",
          "name": "",
          "type": "address"
        }
      ],
      "stateMutability": "view",
      "type": "function",
      "constant": true
    },
    {
      "inputs": [
        {
          "internalType": "address",
          "name": "_of",
          "type": "address"
        },
        {
          "internalType": "string",
          "name": "__url",
          "type": "string"
        }
      ],
      "name": "removeAllExpiredNFT",
      "outputs": [],
      "stateMutability": "nonpayable",
      "type": "function"
    },
    {
      "inputs": [
        {
          "internalType": "uint256",
          "name": "_tokenId",
          "type": "uint256"
        }
      ],
      "name": "removeFromSell",
      "outputs": [],
      "stateMutability": "nonpayable",
      "type": "function"
    },
    {
      "inputs": [
        {
          "internalType": "address",
          "name": "from",
          "type": "address"
        },
        {
          "internalType": "address",
          "name": "to",
          "type": "address"
        },
        {
          "internalType": "uint256",
          "name": "tokenId",
          "type": "uint256"
        }
      ],
      "name": "safeTransferFrom",
      "outputs": [],
      "stateMutability": "nonpayable",
      "type": "function"
    },
    {
      "inputs": [
        {
          "internalType": "address",
          "name": "from",
          "type": "address"
        },
        {
          "internalType": "address",
          "name": "to",
          "type": "address"
        },
        {
          "internalType": "uint256",
          "name": "tokenId",
          "type": "uint256"
        },
        {
          "internalType": "bytes",
          "name": "data",
          "type": "bytes"
        }
      ],
      "name": "safeTransferFrom",
      "outputs": [],
      "stateMutability": "nonpayable",
      "type": "function"
    },
    {
      "inputs": [
        {
          "internalType": "address",
          "name": "operator",
          "type": "address"
        },
        {
          "internalType": "bool",
          "name": "approved",
          "type": "bool"
        }
      ],
      "name": "setApprovalForAll",
      "outputs": [],
      "stateMutability": "nonpayable",
      "type": "function"
    },
    {
      "inputs": [
        {
          "internalType": "uint256",
          "name": "tokenId",
          "type": "uint256"
        },
        {
          "internalType": "string",
          "name": "_nftURL",
          "type": "string"
        }
      ],
      "name": "setURL",
      "outputs": [],
      "stateMutability": "nonpayable",
      "type": "function"
    },
    {
      "inputs": [
        {
          "internalType": "bytes4",
          "name": "interfaceId",
          "type": "bytes4"
        }
      ],
      "name": "supportsInterface",
      "outputs": [
        {
          "internalType": "bool",
          "name": "",
          "type": "bool"
        }
      ],
      "stateMutability": "view",
      "type": "function",
      "constant": true
    },
    {
      "inputs": [],
      "name": "symbol",
      "outputs": [
        {
          "internalType": "string",
          "name": "",
          "type": "string"
        }
      ],
      "stateMutability": "view",
      "type": "function",
      "constant": true
    },
    {
      "inputs": [],
      "name": "tempExp",
      "outputs": [
        {
          "internalType": "uint256",
          "name": "",
          "type": "uint256"
        }
      ],
      "stateMutability": "view",
      "type": "function",
      "constant": true
    },
    {
      "inputs": [
        {
          "internalType": "uint256",
          "name": "tokenId",
          "type": "uint256"
        }
      ],
      "name": "tokenURI",
      "outputs": [
        {
          "internalType": "string",
          "name": "",
          "type": "string"
        }
      ],
      "stateMutability": "view",
      "type": "function",
      "constant": true
    },
    {
      "inputs": [
        {
          "internalType": "address",
          "name": "from",
          "type": "address"
        },
        {
          "internalType": "address",
          "name": "to",
          "type": "address"
        },
        {
          "internalType": "uint256",
          "name": "tokenId",
          "type": "uint256"
        }
      ],
      "name": "transferFrom",
      "outputs": [],
      "stateMutability": "nonpayable",
      "type": "function"
    },
    {
      "inputs": [
        {
          "internalType": "address",
          "name": "_off",
          "type": "address"
        },
        {
          "internalType": "uint256[]",
          "name": "allOwnedTokens",
          "type": "uint256[]"
        }
      ],
      "name": "userPersonalNFTinfo",
      "outputs": [
        {
          "components": [
            {
              "internalType": "bool",
              "name": "minted",
              "type": "bool"
            },
            {
              "internalType": "string",
              "name": "name",
              "type": "string"
            },
            {
              "internalType": "string",
              "name": "description",
              "type": "string"
            },
            {
              "internalType": "string",
              "name": "url",
              "type": "string"
            },
            {
              "internalType": "string",
              "name": "trxnHash",
              "type": "string"
            },
            {
              "internalType": "uint256",
              "name": "nftType",
              "type": "uint256"
            },
            {
              "internalType": "uint256",
              "name": "boughtOn",
              "type": "uint256"
            },
            {
              "internalType": "address",
              "name": "seller",
              "type": "address"
            },
            {
              "internalType": "uint256",
              "name": "ExpireOn",
              "type": "uint256"
            },
            {
              "internalType": "bool",
              "name": "expireable",
              "type": "bool"
            }
          ],
          "internalType": "struct NFT.nftProp[]",
          "name": "",
          "type": "tuple[]"
        }
      ],
      "stateMutability": "view",
      "type": "function",
      "constant": true
    },
    {
      "inputs": [
        {
          "internalType": "address",
          "name": "_user",
          "type": "address"
        },
        {
          "internalType": "uint256[]",
          "name": "allOwnedTokens",
          "type": "uint256[]"
        }
      ],
      "name": "userStakedNFTinfo",
      "outputs": [
        {
          "components": [
            {
              "internalType": "uint256",
              "name": "_stakedOn",
              "type": "uint256"
            },
            {
              "internalType": "uint256",
              "name": "_stakedTill",
              "type": "uint256"
            }
          ],
          "internalType": "struct NFT.stakeProp[]",
          "name": "",
          "type": "tuple[]"
        }
      ],
      "stateMutability": "view",
      "type": "function",
      "constant": true
    },
    {
      "inputs": [
        {
          "internalType": "address",
          "name": "_off",
          "type": "address"
        }
      ],
      "name": "viewAllTokens",
      "outputs": [
        {
          "internalType": "uint256[]",
          "name": "",
          "type": "uint256[]"
        }
      ],
      "stateMutability": "view",
      "type": "function",
      "constant": true
    },
    {
      "inputs": [
        {
          "internalType": "address",
          "name": "_off",
          "type": "address"
        }
      ],
      "name": "viewMyNFTS",
      "outputs": [
        {
          "internalType": "uint256[]",
          "name": "",
          "type": "uint256[]"
        }
      ],
      "stateMutability": "view",
      "type": "function",
      "constant": true
    },
    {
      "inputs": [
        {
          "internalType": "address",
          "name": "_user",
          "type": "address"
        }
      ],
      "name": "viewMyStakedNFTs",
      "outputs": [
        {
          "components": [
            {
              "internalType": "bool",
              "name": "minted",
              "type": "bool"
            },
            {
              "internalType": "string",
              "name": "name",
              "type": "string"
            },
            {
              "internalType": "string",
              "name": "description",
              "type": "string"
            },
            {
              "internalType": "string",
              "name": "url",
              "type": "string"
            },
            {
              "internalType": "string",
              "name": "trxnHash",
              "type": "string"
            },
            {
              "internalType": "uint256",
              "name": "nftType",
              "type": "uint256"
            },
            {
              "internalType": "uint256",
              "name": "boughtOn",
              "type": "uint256"
            },
            {
              "internalType": "address",
              "name": "seller",
              "type": "address"
            },
            {
              "internalType": "uint256",
              "name": "ExpireOn",
              "type": "uint256"
            },
            {
              "internalType": "bool",
              "name": "expireable",
              "type": "bool"
            }
          ],
          "internalType": "struct NFT.nftProp[]",
          "name": "",
          "type": "tuple[]"
        },
        {
          "components": [
            {
              "internalType": "uint256",
              "name": "_stakedOn",
              "type": "uint256"
            },
            {
              "internalType": "uint256",
              "name": "_stakedTill",
              "type": "uint256"
            }
          ],
          "internalType": "struct NFT.stakeProp[]",
          "name": "",
          "type": "tuple[]"
        }
      ],
      "stateMutability": "view",
      "type": "function",
      "constant": true
    },
    {
      "inputs": [
        {
          "internalType": "uint256",
          "name": "_tokenId",
          "type": "uint256"
        }
      ],
      "name": "viewNFTPropByIndex1",
      "outputs": [
        {
          "internalType": "string",
          "name": "",
          "type": "string"
        },
        {
          "internalType": "string",
          "name": "",
          "type": "string"
        },
        {
          "internalType": "string",
          "name": "",
          "type": "string"
        },
        {
          "internalType": "string",
          "name": "",
          "type": "string"
        },
        {
          "internalType": "uint256",
          "name": "",
          "type": "uint256"
        }
      ],
      "stateMutability": "view",
      "type": "function",
      "constant": true
    },
    {
      "inputs": [
        {
          "internalType": "uint256",
          "name": "_tokenId",
          "type": "uint256"
        }
      ],
      "name": "viewNFTPropByIndex2",
      "outputs": [
        {
          "internalType": "uint256",
          "name": "",
          "type": "uint256"
        },
        {
          "internalType": "address",
          "name": "",
          "type": "address"
        },
        {
          "internalType": "uint256",
          "name": "",
          "type": "uint256"
        },
        {
          "internalType": "bool",
          "name": "",
          "type": "bool"
        }
      ],
      "stateMutability": "view",
      "type": "function",
      "constant": true
    },
    {
      "inputs": [
        {
          "internalType": "address",
          "name": "_off",
          "type": "address"
        }
      ],
      "name": "viewPersonalNFT",
      "outputs": [
        {
          "components": [
            {
              "internalType": "bool",
              "name": "minted",
              "type": "bool"
            },
            {
              "internalType": "string",
              "name": "name",
              "type": "string"
            },
            {
              "internalType": "string",
              "name": "description",
              "type": "string"
            },
            {
              "internalType": "string",
              "name": "url",
              "type": "string"
            },
            {
              "internalType": "string",
              "name": "trxnHash",
              "type": "string"
            },
            {
              "internalType": "uint256",
              "name": "nftType",
              "type": "uint256"
            },
            {
              "internalType": "uint256",
              "name": "boughtOn",
              "type": "uint256"
            },
            {
              "internalType": "address",
              "name": "seller",
              "type": "address"
            },
            {
              "internalType": "uint256",
              "name": "ExpireOn",
              "type": "uint256"
            },
            {
              "internalType": "bool",
              "name": "expireable",
              "type": "bool"
            }
          ],
          "internalType": "struct NFT.nftProp[]",
          "name": "",
          "type": "tuple[]"
        }
      ],
      "stateMutability": "view",
      "type": "function",
      "constant": true
    },
    {
      "inputs": [
        {
          "internalType": "address",
          "name": "_user",
          "type": "address"
        }
      ],
      "name": "viewUserStakedNFT",
      "outputs": [
        {
          "components": [
            {
              "internalType": "bool",
              "name": "minted",
              "type": "bool"
            },
            {
              "internalType": "string",
              "name": "name",
              "type": "string"
            },
            {
              "internalType": "string",
              "name": "description",
              "type": "string"
            },
            {
              "internalType": "string",
              "name": "url",
              "type": "string"
            },
            {
              "internalType": "string",
              "name": "trxnHash",
              "type": "string"
            },
            {
              "internalType": "uint256",
              "name": "nftType",
              "type": "uint256"
            },
            {
              "internalType": "uint256",
              "name": "boughtOn",
              "type": "uint256"
            },
            {
              "internalType": "address",
              "name": "seller",
              "type": "address"
            },
            {
              "internalType": "uint256",
              "name": "ExpireOn",
              "type": "uint256"
            },
            {
              "internalType": "bool",
              "name": "expireable",
              "type": "bool"
            }
          ],
          "internalType": "struct NFT.nftProp[]",
          "name": "",
          "type": "tuple[]"
        },
        {
          "components": [
            {
              "internalType": "uint256",
              "name": "_stakedOn",
              "type": "uint256"
            },
            {
              "internalType": "uint256",
              "name": "_stakedTill",
              "type": "uint256"
            }
          ],
          "internalType": "struct NFT.stakeProp[]",
          "name": "",
          "type": "tuple[]"
        }
      ],
      "stateMutability": "view",
      "type": "function",
      "constant": true
    },
    {
      "inputs": [
        {
          "internalType": "uint256",
          "name": "tokenId",
          "type": "uint256"
        }
      ],
      "name": "checkRefurbishedItem",
      "outputs": [
        {
          "internalType": "bool",
          "name": "",
          "type": "bool"
        }
      ],
      "stateMutability": "view",
      "type": "function",
      "constant": true
    }
  ],
  "bytecode": "0x60806040523480156200001157600080fd5b506040518060400160405280600d81526020017f537465726c696e6753746f7265000000000000000000000000000000000000008152506040518060400160405280600b81526020017f537465726c696e674e465400000000000000000000000000000000000000000081525081600090816200008f919062000190565b5060016200009e828262000190565b5050600d8054600160a060020a031916331790555062000263565b7f4e487b7100000000000000000000000000000000000000000000000000000000600052604160045260246000fd5b600281046001821680620000fd57607f821691505b60208210810362000137577f4e487b7100000000000000000000000000000000000000000000000000000000600052602260045260246000fd5b50919050565b601f8211156200018b576000818152602081206020601f86010481016020861015620001665750805b6020601f860104820191505b81811015620001875782815560010162000172565b5050505b505050565b815167ffffffffffffffff811115620001ad57620001ad620000b9565b620001c581620001be8454620000e8565b846200013d565b602080601f831160018114620002015760008415620001e45750858301515b60028086026008870290910a600019041982161786555062000187565b600085815260208120601f198616915b82811015620002325788860151825594840194600190910190840162000211565b50858210156200025357878501516008601f88160260020a60001904191681555b5050505050600202600101905550565b61546980620002736000396000f3fe608060405234801561001057600080fd5b50600436106103c1576000357c01000000000000000000000000000000000000000000000000000000009004806395d89b4111610206578063c30c89671161012c578063d8698dcb116100ca578063eda7640211610099578063eda76402146108ef578063ee991a031461095f578063f7c44cf514610975578063fb35a4dc1461098857600080fd5b8063d8698dcb1461087a578063e6a9b77c1461088d578063e985e9c5146108a0578063ebd0939d146108dc57600080fd5b8063c541523b11610106578063c541523b1461081e578063c7d7f33b14610831578063c87b56dd14610854578063d85d3d271461086757600080fd5b8063c30c8967146107d4578063c395d9cc146107e7578063c49ddc0e146107fa57600080fd5b8063afb4d7f7116101a4578063bd7e2f9511610173578063bd7e2f9514610772578063be64a28a14610785578063c0e50d6814610798578063c12299cb146107c157600080fd5b8063afb4d7f714610719578063b5a9d5ef14610739578063b864bfdf1461074c578063b88d4fde1461075f57600080fd5b8063a22cb465116101e0578063a22cb465146106be578063a3c0b95b146106d1578063a98baaf1146106e4578063abc77c66146106f757600080fd5b806395d89b411461069a5780639a1b1c57146106a25780639fc34e0d146106b557600080fd5b806335482c3a116102eb578063640e82d91161028957806389f8c2191161025857806389f8c2191461064e5780638b1933ff146106615780638da5cb5b14610674578063909c2f9b1461068757600080fd5b8063640e82d91461060c5780636e9940b61461061f57806370a0823114610628578063803ef7b11461063b57600080fd5b806342eaa13e116102c557806342eaa13e146105b357806351ed8288146105d357806360bd3e26146105e65780636352211e146105f957600080fd5b806335482c3a1461053a5780633e461e0c1461054d57806342842e0e146105a057600080fd5b80630bebfc1a1161036357806322187a141161033257806322187a14146104eb57806322688f0b146104fe57806323b872dd1461051e57806334f3ee771461053157600080fd5b80630bebfc1a14610489578063190736391461049c5780631bc2edae146104af5780631e1c62da146104d857600080fd5b806307da16671161039f57806307da166714610418578063081812fc14610439578063095ea7b3146104645780630bc04d531461047757600080fd5b806301ffc9a7146103c6578063055a56f9146103ee57806306fdde0314610403575b600080fd5b6103d96103d43660046145b4565b61099b565b60405190151581526020015b60405180910390f35b6104016103fc3660046146bf565b610a38565b005b61040b610a99565b6040516103e59190614836565b61042b610426366004614849565b610b2b565b6040516103e59291906149b0565b61044c6104473660046149de565b610b59565b604051600160a060020a0390911681526020016103e5565b6104016104723660046149f7565b610b80565b6006545b6040519081526020016103e5565b6103d96104973660046149de565b421190565b6104016104aa3660046149de565b610cbc565b61047b6104bd366004614849565b600160a060020a031660009081526009602052604090205490565b61040b6104e63660046149de565b610f55565b6104016104f93660046146bf565b611004565b61051161050c366004614849565b611065565b6040516103e59190614a21565b61040161052c366004614a34565b6113c4565b61040142601055565b6103d96105483660046149de565b6113f8565b61058b61055b3660046149f7565b600160a060020a039190911660009081526013602090815260408083209383529290522080546001909101549091565b604080519283526020830191909152016103e5565b6104016105ae366004614a34565b61143f565b6105c66105c1366004614849565b61145a565b6040516103e59190614aa0565b6104016105e13660046149de565b6117fd565b6104016105f43660046146bf565b611ca5565b61044c6106073660046149de565b611d06565b6105c661061a366004614849565b611d6e565b61047b60115481565b61047b610636366004614849565b611dd9565b610401610649366004614ab3565b611e76565b61040161065c3660046149de565b601155565b61047b61066f3660046149f7565b612056565b600d5461044c90600160a060020a031681565b610401610695366004614ab3565b612087565b61040b61224f565b6105116106b0366004614b01565b61225e565b61047b60105481565b6104016106cc366004614bb9565b6125a8565b61040b6106df3660046149de565b6125b7565b6104016106f23660046149f7565b612663565b610401610705366004614bec565b6000908152600e6020526040902060080155565b61072c610727366004614b01565b6127de565b6040516103e59190614c0e565b6104016107473660046146bf565b6128ce565b61040161075a366004614c21565b61292f565b61040161076d366004614d1d565b612a18565b610401610780366004614d99565b612a53565b61047b6107933660046149f7565b612af3565b6107ab6107a63660046149de565b612b0f565b6040516103e59a99989796959493929190614dc5565b61042b6107cf366004614849565b612d8d565b6104016107e2366004614e58565b612da2565b6104016107f53660046149de565b612e40565b61080d6108083660046149de565b613137565b6040516103e5959493929190614e89565b61047b61082c366004614849565b6133ad565b61047b61083f3660046149de565b6000908152600e602052604090206005015490565b61040b6108623660046149de565b6133bf565b610401610875366004614ee9565b613433565b6105c6610888366004614849565b613587565b61047b61089b3660046149f7565b6135f1565b6103d96108ae366004614f1e565b600160a060020a03918216600090815260056020908152604080832093909416825291909152205460ff1690565b61047b6108ea3660046149f7565b61360d565b6109356108fd3660046149de565b6000908152600e602052604090206006810154600782015460088301546009909301549193600160a060020a03909116929160ff1690565b60408051948552600160a060020a03909316602085015291830152151560608201526080016103e5565b610967613629565b6040516103e5929190614f48565b61047b6109833660046149f7565b613a36565b6105c6610996366004614849565b613a52565b6000600160e060020a031982167f80ac58cd0000000000000000000000000000000000000000000000000000000014806109fe5750600160e060020a031982167f5b5e139f00000000000000000000000000000000000000000000000000000000145b80610a3257507f01ffc9a700000000000000000000000000000000000000000000000000000000600160e060020a03198316145b92915050565b6000610a4360065490565b9050610a4f828d611e76565b610a63818c8c8c8c8c8c8c8c8c600061292f565b600160a060020a039091166000908152600960209081526040822080546001810182559083529120015550505050505050505050565b606060008054610aa890614f6d565b80601f0160208091040260200160405190810160405280929190818152602001828054610ad490614f6d565b8015610b215780601f10610af657610100808354040283529160200191610b21565b820191906000526020600020905b815481529060010190602001808311610b0457829003601f168201915b5050505050905090565b6060806000610b3984611d6e565b9050610b45848261225e565b610b4f85836127de565b9250925050915091565b6000610b6482613a5d565b50600090815260046020526040902054600160a060020a031690565b6000610b8b82611d06565b905080600160a060020a031683600160a060020a031603610c1c5760405160e560020a62461bcd02815260206004820152602160248201527f4552433732313a20617070726f76616c20746f2063757272656e74206f776e6560448201527f720000000000000000000000000000000000000000000000000000000000000060648201526084015b60405180910390fd5b33600160a060020a0382161480610c385750610c3881336108ae565b610cad5760405160e560020a62461bcd02815260206004820152603d60248201527f4552433732313a20617070726f76652063616c6c6572206973206e6f7420746f60448201527f6b656e206f776e6572206f7220617070726f76656420666f7220616c6c0000006064820152608401610c13565b610cb78383613ac7565b505050565b808015610d3557600c6006610cd2600184614fc3565b81548110610ce257610ce2614fd6565b90600052602060002001604051610cf99190614fef565b9081526040519081900360200190205460ff161515600114610d305760405160e560020a62461bcd028152600401610c1390615065565b610d98565b600c60068281548110610d4a57610d4a614fd6565b90600052602060002001604051610d619190614fef565b9081526040519081900360200190205460ff161515600114610d985760405160e560020a62461bcd028152600401610c1390615065565b600080610da43361145a565b905060005b8151811015610de95783828281518110610dc557610dc5614fd6565b602002602001015103610dd757600192505b610de26001826150c2565b9050610da9565b50600182151514610e3f5760405160e560020a62461bcd02815260206004820152601c60248201527f4f776e657220646f65736e2774206f776e732074686520746f6b656e000000006044820152606401610c13565b6000848152600e6020526040902060050154600403610ea35760405160e560020a62461bcd02815260206004820181905260248201527f43616e6e6f742053656c6c204e6f6e205472616e7366657261626c65204e46546044820152606401610c13565b60008481526014602052604090205460ff1615610f055760405160e560020a62461bcd02815260206004820152601c60248201527f416c7265616479204c697374656420466f722053656c6c696e672121000000006044820152606401610c13565b5050506000818152601460205260408120805460ff191660019081179091556015805491820181559091527f55f448fdea98c4d29eb340757ef0a66cd03dbb9538908a6a81d96026b71ec4750155565b606060068281548110610f6a57610f6a614fd6565b906000526020600020018054610f7f90614f6d565b80601f0160208091040260200160405190810160405280929190818152602001828054610fab90614f6d565b8015610ff85780601f10610fcd57610100808354040283529160200191610ff8565b820191906000526020600020905b815481529060010190602001808311610fdb57829003601f168201915b50505050509050919050565b600061100f60065490565b905061101b828d611e76565b61102f818c8c8c8c8c8c8c8c8c600161292f565b600160a060020a039091166000908152600a60209081526040822080546001810182559083529120015550505050505050505050565b606060006110728361145a565b90506000815167ffffffffffffffff811115611090576110906145d1565b6040519080825280602002602001820160405280156110c957816020015b6110b661449e565b8152602001906001900390816110ae5790505b50905060005b82518110156113bc576000818152600e602090815260409182902082516101408101909352805460ff1615158352600181018054919284019161111190614f6d565b80601f016020809104026020016040519081016040528092919081815260200182805461113d90614f6d565b801561118a5780601f1061115f5761010080835404028352916020019161118a565b820191906000526020600020905b81548152906001019060200180831161116d57829003601f168201915b505050505081526020016002820180546111a390614f6d565b80601f01602080910402602001604051908101604052809291908181526020018280546111cf90614f6d565b801561121c5780601f106111f15761010080835404028352916020019161121c565b820191906000526020600020905b8154815290600101906020018083116111ff57829003601f168201915b5050505050815260200160038201805461123590614f6d565b80601f016020809104026020016040519081016040528092919081815260200182805461126190614f6d565b80156112ae5780601f10611283576101008083540402835291602001916112ae565b820191906000526020600020905b81548152906001019060200180831161129157829003601f168201915b505050505081526020016004820180546112c790614f6d565b80601f01602080910402602001604051908101604052809291908181526020018280546112f390614f6d565b80156113405780601f1061131557610100808354040283529160200191611340565b820191906000526020600020905b81548152906001019060200180831161132357829003601f168201915b505050918352505060058201546020820152600682015460408201526007820154600160a060020a031660608201526008820154608082015260099091015460ff16151560a090910152825183908390811061139e5761139e614fd6565b602002602001018190525080806113b4906150d5565b9150506110cf565b509392505050565b6113ce3382613b42565b6113ed5760405160e560020a62461bcd028152600401610c13906150ee565b610cb7838383613bc1565b6000818152600e602052604081205460ff161515600114801561142a57506000828152600f6020526040902054600111155b1561143757506001919050565b506000919050565b610cb783838360405180602001604052806000815250612a18565b600160a060020a03811660009081526007602090815260408083208054825181850281018501909352808352606094938301828280156114b957602002820191906000526020600020905b8154815260200190600101908083116114a5575b50505050600160a060020a0385166000908152600860209081526040808320805482518185028101850190935280835295965092949093509083018282801561152157602002820191906000526020600020905b81548152602001906001019080831161150d575b50505050600160a060020a0386166000908152600a60209081526040808320805482518185028101850190935280835295965092949093509083018282801561158957602002820191906000526020600020905b815481526020019060010190808311611575575b50505050600160a060020a038716600090815260096020908152604080832080548251818502810185019093528083529596509294909350908301828280156115f157602002820191906000526020600020905b8154815260200190600101908083116115dd575b505050505090506000815184518651855161160c91906150c2565b61161691906150c2565b61162091906150c2565b67ffffffffffffffff811115611638576116386145d1565b604051908082528060200260200182016040528015611661578160200160208202803683370190505b5090506000805b86518110156116c75786818151811061168357611683614fd6565b602002602001015183838151811061169d5761169d614fd6565b60209081029190910101526116b36001836150c2565b9150806116bf816150d5565b915050611668565b5060005b855181101561172a578581815181106116e6576116e6614fd6565b602002602001015183838151811061170057611700614fd6565b60209081029190910101526117166001836150c2565b915080611722816150d5565b9150506116cb565b5060005b845181101561178d5784818151811061174957611749614fd6565b602002602001015183838151811061176357611763614fd6565b60209081029190910101526117796001836150c2565b915080611785816150d5565b91505061172e565b5060005b83518110156117f0578381815181106117ac576117ac614fd6565b60200260200101518383815181106117c6576117c6614fd6565b60209081029190910101526117dc6001836150c2565b9150806117e8816150d5565b915050611791565b5090979650505050505050565b61180681611d06565b600160a060020a031633036118605760405160e560020a62461bcd02815260206004820152601b60248201527f596f752063616e6e6f742042757920596f7572204f776e204e465400000000006044820152606401610c13565b60008181526016602052604090205460ff16156118c25760405160e560020a62461bcd02815260206004820152601460248201527f4e465420416c726561647920426f7567687421210000000000000000000000006044820152606401610c13565b60008181526014602052604090205460ff1615156001146119285760405160e560020a62461bcd02815260206004820152601860248201527f4e46542072656d6f7665642066726f6d2053656c6c696e6700000000000000006044820152606401610c13565b6000818152601460209081526040808320805460ff19908116909155601690925282208054909116600117905561195e82611d06565b6000838152600e60205260408120600501549192505080600103611a3a57600160a060020a038216600090815260096020908152604080832080548251818502810185019093528083526119ed9388938893909290918301828280156119e357602002820191906000526020600020905b8154815260200190600101908083116119cf575b5050505050613d61565b336000908152600960209081526040808320805460018101825590845282842001889055600160a060020a03871683529091208251929350611a339290918401906144fe565b5050611baf565b80600203611af757600160a060020a03821660009081526008602090815260408083208054825181850281018501909352808352611ab19388938893909290918301828280156119e357602002820191906000526020600020908154815260200190600101908083116119cf575050505050613d61565b336000908152600860209081526040808320805460018101825590845282842001889055600160a060020a03871683529091208251929350611a339290918401906144fe565b600160a060020a0382166000908152600a602090815260408083208054825181850281018501909352808352611b669388938893909290918301828280156119e357602002820191906000526020600020908154815260200190600101908083116119cf575050505050613d61565b336000908152600a60209081526040808320805460018101825590845282842001889055600160a060020a03871683529091208251929350611bac9290918401906144fe565b50505b6000838152600f60205260408120805460019290611bce9084906150c2565b909155506000905080805b601554811015611c25578560158281548110611bf757611bf7614fd6565b906000526020600020015403611c135780915060019250611c25565b611c1e6001826150c2565b9050611bd9565b508115611c9e5760158054611c3c90600190614fc3565b81548110611c4c57611c4c614fd6565b906000526020600020015460158281548110611c6a57611c6a614fd6565b6000918252602090912001556015805480611c8757611c8761514b565b600190038181906000526020600020016000905590555b5050505050565b6000611cb060065490565b9050611cbc828d611e76565b611cd0818c8c8c8c8c8c8c8c8c600161292f565b600160a060020a039091166000908152600760209081526040822080546001810182559083529120015550505050505050505050565b600081815260026020526040812054600160a060020a031680610a325760405160e560020a62461bcd02815260206004820152601860248201527f4552433732313a20696e76616c696420746f6b656e20494400000000000000006044820152606401610c13565b600160a060020a0381166000908152600b6020908152604091829020805483518184028101840190945280845260609392830182828015610ff857602002820191906000526020600020905b815481526020019060010190808311611dba5750505050509050919050565b6000600160a060020a038216611e5a5760405160e560020a62461bcd02815260206004820152602960248201527f4552433732313a2061646472657373207a65726f206973206e6f74206120766160448201527f6c6964206f776e657200000000000000000000000000000000000000000000006064820152608401610c13565b50600160a060020a031660009081526003602052604090205490565b600160a060020a038216611ef55760405160e560020a62461bcd02815260206004820152602160248201527f4552433732313a206d696e74696e6720746f207468652030206164647265737360448201527f2e000000000000000000000000000000000000000000000000000000000000006064820152608401610c13565b600c81604051611f059190615164565b9081526040519081900360200190205460ff1615611f385760405160e560020a62461bcd028152600401610c1390615180565b600680546001810182556000919091527ff652222313e28459528d920b65115c16c04f3efc82aaedc97be59f3f377c0d3f01611f74828261522b565b50600654600090611f8790600190614fc3565b9050611f938382613e26565b60408051338152602081018390527f45704679a40d4b2ffe28aa7324f021775faaca4d40917fef2cdf38e53fd90a24910160405180910390a13360009081526012602090815260408083208054600181810183559185529290932090910183905551600c90612003908590615164565b908152602001604051809103902060006101000a81548160ff0219169083151502179055506001600f6000838152602001908152602001600020600082825461204c91906150c2565b9091555050505050565b6009602052816000526040600020818154811061207257600080fd5b90600052602060002001600091509150505481565b600160a060020a03821660009081526012602052604081208054915b8281101561222857600e60008383815481106120c1576120c1614fd6565b6000918252602080832090910154835282019290925260400190206009015460ff161515600114801561212a575061212a600e600084848154811061210857612108614fd6565b9060005260206000200154815260200190815260200160002060080154421190565b15612216578154829061213f90600190614fc3565b8154811061214f5761214f614fd6565b906000526020600020015482828154811061216c5761216c614fd6565b90600052602060002001819055508180548061218a5761218a61514b565b600190038181906000526020600020016000905590556040518060400160405280600c81526020017f45585049524544204954454d0000000000000000000000000000000000000000815250600e600083815260200190815260200160002060020190816121f8919061522b565b506000818152600e60205260409020600301612214858261522b565b505b80612220816150d5565b9150506120a3565b50600160a060020a03841660009081526012602052604090208154611c9e91908390614549565b606060018054610aa890614f6d565b60606000825167ffffffffffffffff81111561227c5761227c6145d1565b6040519080825280602002602001820160405280156122b557816020015b6122a261449e565b81526020019060019003908161229a5790505b50905060005b83518110156113bc576000818152600e602090815260409182902082516101408101909352805460ff161515835260018101805491928401916122fd90614f6d565b80601f016020809104026020016040519081016040528092919081815260200182805461232990614f6d565b80156123765780601f1061234b57610100808354040283529160200191612376565b820191906000526020600020905b81548152906001019060200180831161235957829003601f168201915b5050505050815260200160028201805461238f90614f6d565b80601f01602080910402602001604051908101604052809291908181526020018280546123bb90614f6d565b80156124085780601f106123dd57610100808354040283529160200191612408565b820191906000526020600020905b8154815290600101906020018083116123eb57829003601f168201915b5050505050815260200160038201805461242190614f6d565b80601f016020809104026020016040519081016040528092919081815260200182805461244d90614f6d565b801561249a5780601f1061246f5761010080835404028352916020019161249a565b820191906000526020600020905b81548152906001019060200180831161247d57829003601f168201915b505050505081526020016004820180546124b390614f6d565b80601f01602080910402602001604051908101604052809291908181526020018280546124df90614f6d565b801561252c5780601f106125015761010080835404028352916020019161252c565b820191906000526020600020905b81548152906001019060200180831161250f57829003601f168201915b505050918352505060058201546020820152600682015460408201526007820154600160a060020a031660608201526008820154608082015260099091015460ff16151560a090910152825183908390811061258a5761258a614fd6565b602002602001018190525080806125a0906150d5565b9150506122bb565b6125b3338383613fd5565b5050565b600681815481106125c757600080fd5b9060005260206000200160009150905080546125e290614f6d565b80601f016020809104026020016040519081016040528092919081815260200182805461260e90614f6d565b801561265b5780601f106126305761010080835404028352916020019161265b565b820191906000526020600020905b81548152906001019060200180831161263e57829003601f168201915b505050505081565b600160a060020a03821660009081526009602052604081205481036126bd57600160a060020a038316600090815260096020526040812080549091906126ab576126ab614fd6565b90600052602060002001549050612701565b600160a060020a038316600090815260096020526040902080546126e390600190614fc3565b815481106126f3576126f3614fd6565b906000526020600020015490505b61270c833083613bc1565b600160a060020a03831660009081526009602052604090208054806127335761273361514b565b600082815260208082206000199084018101839055909201909255600160a060020a03858116808452600b835260408085208054600180820183559187528587200187905582865260138552818620878752855294819020428155909401869055600d548451918252909116918101919091529081018290527f99039fcf0a98f484616c5196ee8b2ecfa971babf0b519848289ea4db381f85f79060600160405180910390a1505050565b60606000825167ffffffffffffffff8111156127fc576127fc6145d1565b60405190808252806020026020018201604052801561284157816020015b604080518082019091526000808252602082015281526020019060019003908161281a5790505b50905060005b83518110156113bc57600160a060020a03851660009081526013602090815260408083208484529091529020805460019091015483838151811061288d5761288d614fd6565b60200260200101516000018484815181106128aa576128aa614fd6565b602090810291909101810151019190915252806128c6816150d5565b915050612847565b60006128d960065490565b90506128e5828d611e76565b6128f9818c8c8c8c8c8c8c8c8c600161292f565b600160a060020a039091166000908152600860209081526040822080546001810182559083529120015550505050505050505050565b60008b8152600e60205260409020805460ff19168b15151781556001016129568a8261522b565b5060008b8152600e60205260409020600201612972898261522b565b5060008b8152600e6020526040902060030161298e888261522b565b5060008b8152600e602052604090206004016129aa878261522b565b5060009a8b52600e6020526040909a20600581019490945542600685015560078401805473ffffffffffffffffffffffffffffffffffffffff1916600160a060020a039390931692909217909155600883015550600901805460ff1916961515969096179095555050505050565b612a223383613b42565b612a415760405160e560020a62461bcd028152600401610c13906150ee565b612a4d848484846140a6565b50505050565b81811115612acc5760405160e560020a62461bcd02815260206004820152603160248201527f4d757374204e6f742065786365656420746865204361702070726f766964656460448201527f206279207468652073656c6c65722e2e2e0000000000000000000000000000006064820152608401610c13565b60005b82811015612a4d57612ae13385613e26565b612aec6001826150c2565b9050612acf565b6008602052816000526040600020818154811061207257600080fd5b600e602052600090815260409020805460018201805460ff9092169291612b3590614f6d565b80601f0160208091040260200160405190810160405280929190818152602001828054612b6190614f6d565b8015612bae5780601f10612b8357610100808354040283529160200191612bae565b820191906000526020600020905b815481529060010190602001808311612b9157829003601f168201915b505050505090806002018054612bc390614f6d565b80601f0160208091040260200160405190810160405280929190818152602001828054612bef90614f6d565b8015612c3c5780601f10612c1157610100808354040283529160200191612c3c565b820191906000526020600020905b815481529060010190602001808311612c1f57829003601f168201915b505050505090806003018054612c5190614f6d565b80601f0160208091040260200160405190810160405280929190818152602001828054612c7d90614f6d565b8015612cca5780601f10612c9f57610100808354040283529160200191612cca565b820191906000526020600020905b815481529060010190602001808311612cad57829003601f168201915b505050505090806004018054612cdf90614f6d565b80601f0160208091040260200160405190810160405280929190818152602001828054612d0b90614f6d565b8015612d585780601f10612d2d57610100808354040283529160200191612d58565b820191906000526020600020905b815481529060010190602001808311612d3b57829003601f168201915b505050600584015460068501546007860154600887015460099097015495969295919450600160a060020a0316925060ff168a565b606080612d9983610b2b565b91509150915091565b600d54600160a060020a03163314612e255760405160e560020a62461bcd02815260206004820152602860248201527f4e6f7420617574686f726973656420746f20616464207468652055524c20746f60448201527f20746865204e46540000000000000000000000000000000000000000000000006064820152608401610c13565b6000828152600e60205260409020600301610cb7828261522b565b808015612eb957600c6006612e56600184614fc3565b81548110612e6657612e66614fd6565b90600052602060002001604051612e7d9190614fef565b9081526040519081900360200190205460ff161515600114612eb45760405160e560020a62461bcd028152600401610c1390615065565b612f1c565b600c60068281548110612ece57612ece614fd6565b90600052602060002001604051612ee59190614fef565b9081526040519081900360200190205460ff161515600114612f1c5760405160e560020a62461bcd028152600401610c1390615065565b600080612f283361145a565b905060005b8151811015612f6d5783828281518110612f4957612f49614fd6565b602002602001015103612f5b57600192505b612f666001826150c2565b9050612f2d565b50600182151514612fc35760405160e560020a62461bcd02815260206004820152601c60248201527f4f776e657220646f65736e2774206f776e732074686520746f6b656e000000006044820152606401610c13565b60008481526016602052604090205460ff161561304b5760405160e560020a62461bcd02815260206004820152603260248201527f43616e6e6f742072656d6f76652066726f6d2053656c6c696e672c204e46542060448201527f697320616c726561647920736f6c642e2e2e00000000000000000000000000006064820152608401610c13565b60008481526014602052604090205460ff1615156001146130b15760405160e560020a62461bcd02815260206004820181905260248201527f4e4654206973206e6f74206c697374656420666f722073656c6c696e672e2e2e6044820152606401610c13565b6000848152601460205260408120805460ff19169055805b6015548110156131115785601582815481106130e7576130e7614fd6565b9060005260206000200154036130ff57809150613111565b61310a6001826150c2565b90506130c9565b5060155461312190600190614fc3565b8114611c9e5760158054611c3c90600190614fc3565b6000818152600e602052604081206005810154600182018054606094859485948594929360028301926003810192600490910191859061317690614f6d565b80601f01602080910402602001604051908101604052809291908181526020018280546131a290614f6d565b80156131ef5780601f106131c4576101008083540402835291602001916131ef565b820191906000526020600020905b8154815290600101906020018083116131d257829003601f168201915b5050505050945083805461320290614f6d565b80601f016020809104026020016040519081016040528092919081815260200182805461322e90614f6d565b801561327b5780601f106132505761010080835404028352916020019161327b565b820191906000526020600020905b81548152906001019060200180831161325e57829003601f168201915b5050505050935082805461328e90614f6d565b80601f01602080910402602001604051908101604052809291908181526020018280546132ba90614f6d565b80156133075780601f106132dc57610100808354040283529160200191613307565b820191906000526020600020905b8154815290600101906020018083116132ea57829003601f168201915b5050505050925081805461331a90614f6d565b80601f016020809104026020016040519081016040528092919081815260200182805461334690614f6d565b80156133935780601f1061336857610100808354040283529160200191613393565b820191906000526020600020905b81548152906001019060200180831161337657829003601f168201915b505050505091509450945094509450945091939590929450565b60006133b882613a52565b5192915050565b60606133ca82613a5d565b60006133e160408051602081019091526000815290565b90506000815111613401576040518060200160405280600081525061342c565b8061340b846140dc565b60405160200161341c9291906152f1565b6040516020818303038152906040525b9392505050565b600c816040516134439190615164565b9081526040519081900360200190205460ff16156134765760405160e560020a62461bcd028152600401610c1390615180565b600680546001810182556000919091527ff652222313e28459528d920b65115c16c04f3efc82aaedc97be59f3f377c0d3f016134b2828261522b565b506006546000906134c590600190614fc3565b90506134d13382613e26565b60408051338152602081018390527f45704679a40d4b2ffe28aa7324f021775faaca4d40917fef2cdf38e53fd90a24910160405180910390a133600090815260126020908152604080832080546001818101835591855283852001859055848452600f909252822080549192909161354a9084906150c2565b925050819055506001600c836040516135639190615164565b908152604051908190036020019020805491151560ff199092169190911790555050565b600160a060020a038116600090815260126020908152604091829020805483518184028101840190945280845260609392830182828015610ff85760200282019190600052602060002090815481526020019060010190808311611dba5750505050509050919050565b6007602052816000526040600020818154811061207257600080fd5b600b602052816000526040600020818154811061207257600080fd5b606080600060158054905067ffffffffffffffff81111561364c5761364c6145d1565b60405190808252806020026020018201604052801561368557816020015b61367261449e565b81526020019060019003908161366a5790505b5060155490915060009067ffffffffffffffff8111156136a7576136a76145d1565b6040519080825280602002602001820160405280156136d0578160200160208202803683370190505b50905060005b601554811015613a2c57600e6000601583815481106136f7576136f7614fd6565b90600052602060002001548152602001908152602001600020604051806101400160405290816000820160009054906101000a900460ff1615151515815260200160018201805461374790614f6d565b80601f016020809104026020016040519081016040528092919081815260200182805461377390614f6d565b80156137c05780601f10613795576101008083540402835291602001916137c0565b820191906000526020600020905b8154815290600101906020018083116137a357829003601f168201915b505050505081526020016002820180546137d990614f6d565b80601f016020809104026020016040519081016040528092919081815260200182805461380590614f6d565b80156138525780601f1061382757610100808354040283529160200191613852565b820191906000526020600020905b81548152906001019060200180831161383557829003601f168201915b5050505050815260200160038201805461386b90614f6d565b80601f016020809104026020016040519081016040528092919081815260200182805461389790614f6d565b80156138e45780601f106138b9576101008083540402835291602001916138e4565b820191906000526020600020905b8154815290600101906020018083116138c757829003601f168201915b505050505081526020016004820180546138fd90614f6d565b80601f016020809104026020016040519081016040528092919081815260200182805461392990614f6d565b80156139765780601f1061394b57610100808354040283529160200191613976565b820191906000526020600020905b81548152906001019060200180831161395957829003601f168201915b505050918352505060058201546020820152600682015460408201526007820154600160a060020a031660608201526008820154608082015260099091015460ff16151560a09091015283518490839081106139d4576139d4614fd6565b6020026020010181905250601581815481106139f2576139f2614fd6565b9060005260206000200154828281518110613a0f57613a0f614fd6565b6020908102919091010152613a256001826150c2565b90506136d6565b5090939092509050565b600a602052816000526040600020818154811061207257600080fd5b6060610a328261145a565b600081815260026020526040902054600160a060020a0316613ac45760405160e560020a62461bcd02815260206004820152601860248201527f4552433732313a20696e76616c696420746f6b656e20494400000000000000006044820152606401610c13565b50565b6000818152600460205260409020805473ffffffffffffffffffffffffffffffffffffffff1916600160a060020a0384169081179091558190613b0982611d06565b600160a060020a03167f8c5be1e5ebec7d5bd14f71427d1e84f3dd0314c0f7b2291e5b200ac8c7c3b92560405160405180910390a45050565b600080613b4e83611d06565b905080600160a060020a031684600160a060020a03161480613b955750600160a060020a0380821660009081526005602090815260408083209388168352929052205460ff165b80613bb9575083600160a060020a0316613bae84610b59565b600160a060020a0316145b949350505050565b82600160a060020a0316613bd482611d06565b600160a060020a031614613bfd5760405160e560020a62461bcd028152600401610c1390615320565b600160a060020a038216613c7b5760405160e560020a62461bcd028152602060048201526024808201527f4552433732313a207472616e7366657220746f20746865207a65726f2061646460448201527f72657373000000000000000000000000000000000000000000000000000000006064820152608401610c13565b613c88838383600161417c565b82600160a060020a0316613c9b82611d06565b600160a060020a031614613cc45760405160e560020a62461bcd028152600401610c1390615320565b6000818152600460209081526040808320805473ffffffffffffffffffffffffffffffffffffffff19908116909155600160a060020a0387811680865260038552838620805460001901905590871680865283862080546001019055868652600290945282852080549092168417909155905184937fddf252ad1be2c89b69c2b068fc378daa952ba7f163c4a11628f55a4df523b3ef91a4505050565b60606000805b8351811015613daa5785848281518110613d8357613d83614fd6565b602002602001015103613d9857809150613daa565b613da36001826150c2565b9050613d67565b5060018351613db99190614fc3565b8114613e05578260018451613dce9190614fc3565b81518110613dde57613dde614fd6565b6020026020010151838281518110613df857613df8614fd6565b6020026020010181815250505b613e1c8360018551613e179190614fc3565b614204565b5091949350505050565b600160a060020a038216613e7f5760405160e560020a62461bcd02815260206004820181905260248201527f4552433732313a206d696e7420746f20746865207a65726f20616464726573736044820152606401610c13565b600081815260026020526040902054600160a060020a031615613ee75760405160e560020a62461bcd02815260206004820152601c60248201527f4552433732313a20746f6b656e20616c7265616479206d696e746564000000006044820152606401610c13565b613ef560008383600161417c565b600081815260026020526040902054600160a060020a031615613f5d5760405160e560020a62461bcd02815260206004820152601c60248201527f4552433732313a20746f6b656e20616c7265616479206d696e746564000000006044820152606401610c13565b600160a060020a0382166000818152600360209081526040808320805460010190558483526002909152808220805473ffffffffffffffffffffffffffffffffffffffff19168417905551839291907fddf252ad1be2c89b69c2b068fc378daa952ba7f163c4a11628f55a4df523b3ef908290a45050565b81600160a060020a031683600160a060020a0316036140395760405160e560020a62461bcd02815260206004820152601960248201527f4552433732313a20617070726f766520746f2063616c6c6572000000000000006044820152606401610c13565b600160a060020a03838116600081815260056020908152604080832094871680845294825291829020805460ff191686151590811790915591519182527f17307eab39ab6107e8899845ad3d59bd9653f200f220920489ca2b5937696c31910160405180910390a3505050565b6140b1848484613bc1565b6140bd84848484614286565b612a4d5760405160e560020a62461bcd028152600401610c139061537d565b606060006140e9836143bc565b600101905060008167ffffffffffffffff811115614109576141096145d1565b6040519080825280601f01601f191660200182016040528015614133576020820181803683370190505b5090508181016020015b600019017f3031323334353637383961626364656600000000000000000000000000000000600a86061a8153600a850494508461413d57509392505050565b6001811115612a4d57600160a060020a038416156141c257600160a060020a038416600090815260036020526040812080548392906141bc908490614fc3565b90915550505b600160a060020a03831615612a4d57600160a060020a038316600090815260036020526040812080548392906141f99084906150c2565b909155505050505050565b606082518211156142805760405160e560020a62461bcd02815260206004820152603060248201527f41727261793a206c656e67746820616674657220736872696e6b696e67206c6160448201527f72676572207468616e206265666f7265000000000000000000000000000000006064820152608401610c13565b50815290565b6000600160a060020a0384163b156143b1576040517f150b7a02000000000000000000000000000000000000000000000000000000008152600160a060020a0385169063150b7a02906142e39033908990889088906004016153da565b6020604051808303816000875af192505050801561431e575060408051601f3d908101601f1916820190925261431b91810190615416565b60015b61437e573d80801561434c576040519150601f19603f3d011682016040523d82523d6000602084013e614351565b606091505b5080516000036143765760405160e560020a62461bcd028152600401610c139061537d565b805181602001fd5b600160e060020a0319167f150b7a0200000000000000000000000000000000000000000000000000000000149050613bb9565b506001949350505050565b6000807a184f03e93ff9f4daa797ed6e38ed64bf6a1f0100000000000000008310614405577a184f03e93ff9f4daa797ed6e38ed64bf6a1f010000000000000000830492506040015b6d04ee2d6d415b85acef81000000008310614431576d04ee2d6d415b85acef8100000000830492506020015b662386f26fc10000831061444f57662386f26fc10000830492506010015b6305f5e1008310614467576305f5e100830492506008015b612710831061447b57612710830492506004015b6064831061448d576064830492506002015b600a8310610a325760010192915050565b6040518061014001604052806000151581526020016060815260200160608152602001606081526020016060815260200160008152602001600081526020016000600160a060020a03168152602001600081526020016000151581525090565b828054828255906000526020600020908101928215614539579160200282015b8281111561453957825182559160200191906001019061451e565b50614545929150614589565b5090565b8280548282559060005260206000209081019282156145395760005260206000209182015b8281111561453957825482559160010191906001019061456e565b5b80821115614545576000815560010161458a565b600160e060020a031981168114613ac457600080fd5b6000602082840312156145c657600080fd5b813561342c8161459e565b60e060020a634e487b7102600052604160045260246000fd5b604051601f8201601f1916810167ffffffffffffffff81118282101715614613576146136145d1565b604052919050565b600067ffffffffffffffff831115614635576146356145d1565b614648601f8401601f19166020016145ea565b905082815283838301111561465c57600080fd5b828260208301376000602084830101529392505050565b600082601f83011261468457600080fd5b61342c8383356020850161461b565b803580151581146146a357600080fd5b919050565b8035600160a060020a03811681146146a357600080fd5b60008060008060008060008060008060006101608c8e0312156146e157600080fd5b67ffffffffffffffff808d3511156146f857600080fd5b6147058e8e358f01614673565b9b5061471360208e01614693565b9a508060408e0135111561472657600080fd5b6147368e60408f01358f01614673565b99508060608e0135111561474957600080fd5b6147598e60608f01358f01614673565b98508060808e0135111561476c57600080fd5b61477c8e60808f01358f01614673565b97508060a08e0135111561478f57600080fd5b506147a08d60a08e01358e01614673565b955060c08c0135945060e08c013593506147bd6101008d016146a8565b92506101208c013591506147d46101408d016146a8565b90509295989b509295989b9093969950565b60005b838110156148015781810151838201526020016147e9565b50506000910152565b600081518084526148228160208601602086016147e6565b601f01601f19169290920160200192915050565b60208152600061342c602083018461480a565b60006020828403121561485b57600080fd5b61342c826146a8565b600081518084526020808501808196508284028101915082860160005b8581101561495d57828403895281518051151585526101408682015181888801526148ae8288018261480a565b915050604080830151878303828901526148c8838261480a565b92505050606080830151878303828901526148e3838261480a565b92505050608080830151878303828901526148fe838261480a565b9250505060a080830151818801525060c080830151818801525060e08083015161493282890182600160a060020a03169052565b5050610100828101519087015261012091820151151591909501529784019790840190600101614881565b5091979650505050505050565b600081518084526020808501945080840160005b838110156149a557815180518852830151838801526040909601959082019060010161497e565b509495945050505050565b6040815260006149c36040830185614864565b82810360208401526149d5818561496a565b95945050505050565b6000602082840312156149f057600080fd5b5035919050565b60008060408385031215614a0a57600080fd5b614a13836146a8565b946020939093013593505050565b60208152600061342c6020830184614864565b600080600060608486031215614a4957600080fd5b614a52846146a8565b9250614a60602085016146a8565b9150604084013590509250925092565b600081518084526020808501945080840160005b838110156149a557815187529582019590820190600101614a84565b60208152600061342c6020830184614a70565b60008060408385031215614ac657600080fd5b614acf836146a8565b9150602083013567ffffffffffffffff811115614aeb57600080fd5b614af785828601614673565b9150509250929050565b60008060408385031215614b1457600080fd5b614b1d836146a8565b915060208084013567ffffffffffffffff80821115614b3b57600080fd5b818601915086601f830112614b4f57600080fd5b813581811115614b6157614b616145d1565b8381029150614b718483016145ea565b8181529183018401918481019089841115614b8b57600080fd5b938501935b83851015614ba957843582529385019390850190614b90565b8096505050505050509250929050565b60008060408385031215614bcc57600080fd5b614bd5836146a8565b9150614be360208401614693565b90509250929050565b60008060408385031215614bff57600080fd5b50508035926020909101359150565b60208152600061342c602083018461496a565b60008060008060008060008060008060006101608c8e031215614c4357600080fd5b8b359a50614c5360208d01614693565b995067ffffffffffffffff8060408e01351115614c6f57600080fd5b614c7f8e60408f01358f01614673565b99508060608e01351115614c9257600080fd5b614ca28e60608f01358f01614673565b98508060808e01351115614cb557600080fd5b614cc58e60808f01358f01614673565b97508060a08e01351115614cd857600080fd5b50614ce98d60a08e01358e01614673565b955060c08c0135945060e08c01359350614d066101008d016146a8565b92506101208c013591506147d46101408d01614693565b60008060008060808587031215614d3357600080fd5b614d3c856146a8565b9350614d4a602086016146a8565b925060408501359150606085013567ffffffffffffffff811115614d6d57600080fd5b8501601f81018713614d7e57600080fd5b614d8d8782356020840161461b565b91505092959194509250565b600080600060608486031215614dae57600080fd5b505081359360208301359350604090920135919050565b60006101408c15158352806020840152614de18184018d61480a565b90508281036040840152614df5818c61480a565b90508281036060840152614e09818b61480a565b90508281036080840152614e1d818a61480a565b60a0840198909852505060c0810194909452600160a060020a039290921660e084015261010083015215156101209091015295945050505050565b60008060408385031215614e6b57600080fd5b82359150602083013567ffffffffffffffff811115614aeb57600080fd5b60a081526000614e9c60a083018861480a565b8281036020840152614eae818861480a565b90508281036040840152614ec2818761480a565b90508281036060840152614ed6818661480a565b9150508260808301529695505050505050565b600060208284031215614efb57600080fd5b813567ffffffffffffffff811115614f1257600080fd5b613bb984828501614673565b60008060408385031215614f3157600080fd5b614f3a836146a8565b9150614be3602084016146a8565b604081526000614f5b6040830185614864565b82810360208401526149d58185614a70565b600281046001821680614f8157607f821691505b602082108103614fa45760e060020a634e487b7102600052602260045260246000fd5b50919050565b60e060020a634e487b7102600052601160045260246000fd5b81810381811115610a3257610a32614faa565b60e060020a634e487b7102600052603260045260246000fd5b6000808354614ffd81614f6d565b60018281168015615015576001811461502a57615059565b60ff1984168752821515830287019450615059565b8760005260208060002060005b858110156150505781548a820152908401908201615037565b50505082870194505b50929695505050505050565b60208082526027908201527f4e465420446f65736e2774206578697374732e2e2e2e20437265617465204e4660408201527f5420466972737400000000000000000000000000000000000000000000000000606082015260800190565b80820180821115610a3257610a32614faa565b6000600182016150e7576150e7614faa565b5060010190565b6020808252602d908201527f4552433732313a2063616c6c6572206973206e6f7420746f6b656e206f776e6560408201527f72206f7220617070726f76656400000000000000000000000000000000000000606082015260800190565b60e060020a634e487b7102600052603160045260246000fd5b600082516151768184602087016147e6565b9190910192915050565b60208082526025908201527f44616e6720697421212c2049204861766520616c7265616479206265656e206d60408201527f696e746564000000000000000000000000000000000000000000000000000000606082015260800190565b601f821115610cb7576000818152602081206020601f860104810160208610156152045750805b6020601f860104820191505b8181101561522357828155600101615210565b505050505050565b815167ffffffffffffffff811115615245576152456145d1565b615259816152538454614f6d565b846151dd565b602080601f83116001811461529257600084156152765750858301515b60028086026008870290910a6000190419821617865550615223565b600085815260208120601f198616915b828110156152c1578886015182559484019460019091019084016152a2565b50858210156152e157878501516008601f88160260020a60001904191681555b5050505050600202600101905550565b600083516153038184602088016147e6565b8351908301906153178183602088016147e6565b01949350505050565b60208082526025908201527f4552433732313a207472616e736665722066726f6d20696e636f72726563742060408201527f6f776e6572000000000000000000000000000000000000000000000000000000606082015260800190565b60208082526032908201527f4552433732313a207472616e7366657220746f206e6f6e20455243373231526560408201527f63656976657220696d706c656d656e7465720000000000000000000000000000606082015260800190565b6000600160a060020a0380871683528086166020840152508360408301526080606083015261540c608083018461480a565b9695505050505050565b60006020828403121561542857600080fd5b815161342c8161459e56fea2646970667358221220a3310da47108e88955bab6b252573fc789b1515d97f249af2a30ee118a59f8c164736f6c63430008130033",
  "immutableReferences": {},
  "source": "// SPDX-License-Identifier: MIT\r\n// pragma solidity >=0.4.22 <0.9.0;\r\n// pragma solidity ^0.7.0;\r\n// import \"./ERC721.sol\";\r\n\r\n// contract checkRefurbished is ERC721 {\r\n//     modifier refurbishedCheck(uint256 _tokenId) {\r\n//         require(\r\n//             previousOwners[_tokenId] < 1,\r\n//             \"Yes this is a refurbished Item, It has been sold more than once..\"\r\n//         );\r\n//         _;\r\n//     }\r\n\r\n//     // function additems(uint _tokenId ) public {\r\n//     //     previousOwners[_tokenId]+=1;\r\n//     // }\r\n\r\n//     //create a seperate mapping in NFT, which is named as Previous Owners.... as uint=>uint..where 1st uint is token id and second one is how many owners it had...\r\n//     function check(uint256 _tokenId)\r\n//         public\r\n//         view\r\n//         refurbishedCheck(_tokenId)\r\n//         returns (bool)\r\n//     {\r\n//         return false; //meaning that this is not a refurbished item.\r\n//     }\r\n// }\r\n\r\npragma solidity >=0.4.22 <0.9.0;\r\nimport \"./NFT.sol\";\r\n\r\ncontract checkRefurbished is NFT {\r\n    //custom event and emit...\r\n    function checkRefurbishedItem(uint256 tokenId) public view returns (bool) {\r\n        if (NFTinfo[tokenId].minted == true && previousOwners[tokenId] >= 1) {\r\n            return true; //true means that the item is refurbished\r\n        }\r\n        return false; //false means it is not refurbished and has not been minted yet....\r\n    }\r\n}\r\n",
  "sourcePath": "C:\\Users\\Neeraj\\Desktop\\Sterling Store\\src\\contracts\\CheckRefurbished.sol",
  "compiler": {
    "name": "solc",
    "version": "0.8.19+commit.7dd6d404.Emscripten.clang"
  },
  "schemaVersion": "3.4.11",
  "updatedAt": "2023-02-27T02:35:12.826Z",
  "networkType": "ethereum",
  "devdoc": {
    "events": {
      "Approval(address,address,uint256)": {
        "details": "Emitted when `owner` enables `approved` to manage the `tokenId` token."
      },
      "ApprovalForAll(address,address,bool)": {
        "details": "Emitted when `owner` enables or disables (`approved`) `operator` to manage all of its assets."
      },
      "Transfer(address,address,uint256)": {
        "details": "Emitted when `tokenId` token is transferred from `from` to `to`."
      }
    },
    "kind": "dev",
    "methods": {
      "approve(address,uint256)": {
        "details": "See {IERC721-approve}."
      },
      "balanceOf(address)": {
        "details": "See {IERC721-balanceOf}."
      },
      "getApproved(uint256)": {
        "details": "See {IERC721-getApproved}."
      },
      "isApprovedForAll(address,address)": {
        "details": "See {IERC721-isApprovedForAll}."
      },
      "name()": {
        "details": "See {IERC721Metadata-name}."
      },
      "ownerOf(uint256)": {
        "details": "See {IERC721-ownerOf}."
      },
      "safeTransferFrom(address,address,uint256)": {
        "details": "See {IERC721-safeTransferFrom}."
      },
      "safeTransferFrom(address,address,uint256,bytes)": {
        "details": "See {IERC721-safeTransferFrom}."
      },
      "setApprovalForAll(address,bool)": {
        "details": "See {IERC721-setApprovalForAll}."
      },
      "supportsInterface(bytes4)": {
        "details": "See {IERC165-supportsInterface}."
      },
      "symbol()": {
        "details": "See {IERC721Metadata-symbol}."
      },
      "tokenURI(uint256)": {
        "details": "See {IERC721Metadata-tokenURI}."
      },
      "transferFrom(address,address,uint256)": {
        "details": "See {IERC721-transferFrom}."
      }
    },
    "version": 1
  },
  "userdoc": {
    "kind": "user",
    "methods": {},
    "version": 1
  }
}