{
  "contractName": "checkDigitalDuplicate",
  "abi": [
    {
      "inputs": [],
      "stateMutability": "nonpayable",
      "type": "constructor"
    },
    {
      "inputs": [
        {
          "internalType": "address",
          "name": "",
          "type": "address"
        }
      ],
      "name": "companyAddresses",
      "outputs": [
        {
          "internalType": "bool",
          "name": "toggle",
          "type": "bool"
        },
        {
          "internalType": "string",
          "name": "companyName",
          "type": "string"
        }
      ],
      "stateMutability": "view",
      "type": "function"
    },
    {
      "inputs": [
        {
          "internalType": "address",
          "name": "",
          "type": "address"
        }
      ],
      "name": "verifiedUserList",
      "outputs": [
        {
          "internalType": "bool",
          "name": "",
          "type": "bool"
        }
      ],
      "stateMutability": "view",
      "type": "function"
    },
    {
      "inputs": [
        {
          "internalType": "address",
          "name": "_user",
          "type": "address"
        }
      ],
      "name": "addVerifiedUser",
      "outputs": [],
      "stateMutability": "nonpayable",
      "type": "function"
    },
    {
      "inputs": [
        {
          "internalType": "address",
          "name": "_newAddress",
          "type": "address"
        },
        {
          "internalType": "string",
          "name": "_companyName",
          "type": "string"
        }
      ],
      "name": "addCompanyAddress",
      "outputs": [],
      "stateMutability": "nonpayable",
      "type": "function"
    },
    {
      "inputs": [
        {
          "internalType": "address",
          "name": "_original",
          "type": "address"
        },
        {
          "internalType": "address",
          "name": "_current",
          "type": "address"
        }
      ],
      "name": "manualCheck",
      "outputs": [
        {
          "internalType": "bool",
          "name": "",
          "type": "bool"
        }
      ],
      "stateMutability": "pure",
      "type": "function"
    },
    {
      "inputs": [
        {
          "internalType": "address",
          "name": "_current",
          "type": "address"
        },
        {
          "internalType": "string",
          "name": "_companyName",
          "type": "string"
        }
      ],
      "name": "autoCheck",
      "outputs": [
        {
          "internalType": "bool",
          "name": "",
          "type": "bool"
        }
      ],
      "stateMutability": "view",
      "type": "function"
    }
  ],
  "bytecode": "0x608060405234801561001057600080fd5b50336000908152600160208190526040909120805460ff191690911790556108d68061003d6000396000f3fe608060405234801561001057600080fd5b506004361061007e577c010000000000000000000000000000000000000000000000000000000060003504631867ffe281146100835780638233b4cb146100bb57806388e3c5d6146100d0578063bd8cb035146100e3578063ead7934f146100f6578063f06e37cb14610117575b600080fd5b6100a66100913660046104a3565b60016020526000908152604090205460ff1681565b60405190151581526020015b60405180910390f35b6100ce6100c93660046104f4565b61012a565b005b6100ce6100de3660046104a3565b6101de565b6100a66100f13660046104f4565b61023d565b6101096101043660046104a3565b61036b565b6040516100b29291906105da565b6100a6610125366004610616565b610414565b3360009081526001602081905260409091205460ff1615151461016b5760405160e560020a62461bcd02815260040161016290610649565b60405180910390fd5b600160a060020a03821660009081526020819052604090205460ff1615156001146101da57600160a060020a03821660009081526020819052604090206001016101b58282610748565b50600160a060020a0382166000908152602081905260409020805460ff191660011790555b5050565b3360009081526001602081905260409091205460ff161515146102165760405160e560020a62461bcd02815260040161016290610649565b600160a060020a03166000908152600160208190526040909120805460ff19169091179055565b600160a060020a03821660009081526020819052604081205460ff1615156001146102ad5760405160e560020a62461bcd02815260206004820152601d60248201527f5965732069742069732061206469676974616c206475706c69636174650000006044820152606401610162565b816040516020016102be919061080e565b60408051601f198184030181528282528051602091820120600160a060020a03871660009081528083529290922091926102fc92600101910161082a565b60405160208183030381529060405280519060200120146103625760405160e560020a62461bcd02815260206004820152601d60248201527f5965732069742069732061206469676974616c206475706c69636174650000006044820152606401610162565b50600192915050565b6000602081905290815260409020805460018201805460ff9092169291610391906106a6565b80601f01602080910402602001604051908101604052809291908181526020018280546103bd906106a6565b801561040a5780601f106103df5761010080835404028352916020019161040a565b820191906000526020600020905b8154815290600101906020018083116103ed57829003601f168201915b5050505050905082565b6000828280600160a060020a031682600160a060020a03161461047c5760405160e560020a62461bcd02815260206004820152601d60248201527f5965732069742069732061204469676974616c204475706c69636174650000006044820152606401610162565b506001949350505050565b8035600160a060020a038116811461049e57600080fd5b919050565b6000602082840312156104b557600080fd5b6104be82610487565b9392505050565b7f4e487b7100000000000000000000000000000000000000000000000000000000600052604160045260246000fd5b6000806040838503121561050757600080fd5b61051083610487565b9150602083013567ffffffffffffffff8082111561052d57600080fd5b818501915085601f83011261054157600080fd5b813581811115610553576105536104c5565b604051601f8201601f19908116603f0116810190838211818310171561057b5761057b6104c5565b8160405282815288602084870101111561059457600080fd5b8260208601602083013760006020848301015280955050505050509250929050565b60005b838110156105d15781810151838201526020016105b9565b50506000910152565b821515815260406020820152600082518060408401526106018160608501602087016105b6565b601f01601f1916919091016060019392505050565b6000806040838503121561062957600080fd5b61063283610487565b915061064060208401610487565b90509250929050565b6020808252603a908201527f596f75206e65656420746f20626520612076657269666965642055736572207460408201527f6f20616464204164647265737320696e20746865206c6973742e000000000000606082015260800190565b6002810460018216806106ba57607f821691505b6020821081036106f3577f4e487b7100000000000000000000000000000000000000000000000000000000600052602260045260246000fd5b50919050565b601f821115610743576000818152602081206020601f860104810160208610156107205750805b6020601f860104820191505b8181101561073f5782815560010161072c565b5050505b505050565b815167ffffffffffffffff811115610762576107626104c5565b6107768161077084546106a6565b846106f9565b602080601f8311600181146107af57600084156107935750858301515b60028086026008870290910a600019041982161786555061073f565b600085815260208120601f198616915b828110156107de578886015182559484019460019091019084016107bf565b50858210156107fe57878501516008601f88160260020a60001904191681555b5050505050600202600101905550565b600082516108208184602087016105b6565b9190910192915050565b6000808354610838816106a6565b60018281168015610850576001811461086557610894565b60ff1984168752821515830287019450610894565b8760005260208060002060005b8581101561088b5781548a820152908401908201610872565b50505082870194505b5092969550505050505056fea2646970667358221220e31b9df76233b5f44181d265f64d4aee0c987005a492ba4977b504fd2fcd8d3264736f6c63430008140033",
  "immutableReferences": {},
  "source": "// SPDX-License-Identifier: MIT\r\npragma solidity >=0.4.22 <0.9.0;\r\n\r\n// pragma solidity ^0.7.0;\r\n\r\ncontract checkDigitalDuplicate {\r\n    /*Structure that is used in mapping to make sure that if the address of the company is \r\n    resent then it is registered with the name also. This is to make sure that if a comapny \r\n    is registered as selling phones, then while checking digital duplicate we do not check \r\n    it with the company that is selling pens.\r\n    Eg: companyA = selling phones with company name as AB= address of thsi company is x\r\n    So it is registered in our decentralised database as \r\n    x => {true, AB}\r\n\r\n    Now if in ecom, it is selling pens now then?\r\n    company A = selling Pens with company name as BB = address of this company is x\r\n    So we will check with our database it will say that this is registered with us, but \r\n    because its name doesn't matches, it will reject it saying that it is a digital duplicate.\r\n    */\r\n    struct prop {\r\n        bool toggle; //if false means the address is not in the list\r\n        string companyName; //makes sure that the name also matches like we are not saying that buy this phone if it is verfied as a pen address.\r\n    }\r\n    //takes the company address and stores them\r\n    mapping(address => prop) public companyAddresses;\r\n    //has a list of users who are verified to add new users that can add company addresses in the list.\r\n    mapping(address => bool) public verifiedUserList;\r\n\r\n    //make the owner as verified user.\r\n    constructor() {\r\n        verifiedUserList[msg.sender] = true;\r\n    }\r\n\r\n    /***** \r\n    duplicate: a modifier that checks if it is digital duplicate or not?\r\n    parameters:\r\n    _original: the address of the company i.e the address that is verified to be original.\r\n    _current : the address of the company that you currently have.\r\n    *****/\r\n    modifier duplicate(address _original, address _current) {\r\n        require(_original == _current, \"Yes it is a Digital Duplicate\");\r\n        _;\r\n    }\r\n    /***** \r\n    VerifiedUser: a modifier that checks if the current caller is verfied or not?\r\n    *****/\r\n    modifier VerifiedUser() {\r\n        require(\r\n            verifiedUserList[msg.sender] == true,\r\n            \"You need to be a verified User to add Address in the list.\"\r\n        );\r\n        _;\r\n    }\r\n\r\n    /***** \r\n    addVerifiedUser: a function, that adds a new user in the verifiedUserList.\r\n    parameters:\r\n    _user: the address of the user that you want to make verified...\r\n    *****/\r\n    //only a verified user can add a new verified user...\r\n    function addVerifiedUser(address _user) public VerifiedUser {\r\n        verifiedUserList[_user] = true;\r\n    }\r\n\r\n    /***** \r\n\r\n    addCompanyAddress: a function that adds the company address and name in the mapping comapnyAddresses.\r\n    parameters:\r\n    _newAddress: the address of the company\r\n    _companyName: the name of the company.\r\n    *****/\r\n    // And makes sure that the person who is adding this address is verified user.\r\n    function addCompanyAddress(address _newAddress, string memory _companyName)\r\n        public\r\n        VerifiedUser\r\n    {\r\n        //if company is already registered then we are not going to change anything and will return\r\n        if (companyAddresses[_newAddress].toggle == true) {\r\n            return; //with a status that the address is already in the list....\r\n        }\r\n        //otherwise change the name and make it as true\r\n        companyAddresses[_newAddress].companyName = _companyName;\r\n        companyAddresses[_newAddress].toggle = true;\r\n    }\r\n\r\n    /***** \r\n    manualCheck: a function that is called by a consumer manually, to check if the 2 addresses are Digital duplicate or not.\r\n    parameters:\r\n    _original: the address of the company i.e the address that is verified to be original.\r\n    _current : the address of the company that you currently have.\r\n    *****/\r\n    function manualCheck(address _original, address _current)\r\n        public\r\n        pure\r\n        duplicate(_original, _current)\r\n        returns (bool)\r\n    {\r\n        return true;\r\n        //if not true then it is false;\r\n    }\r\n\r\n    /***** \r\n    autoCheck: a function that uses its own database to check if the current address we have is verified or not?\r\n    parameters:\r\n    _current: the address of the company that you currently have.\r\n    _companyName: name of the company that we are trying to buy from.\r\n    *****/\r\n    //make sure that company name is sent in all lower cases....\r\n    //auto check is from our own database...\r\n    function autoCheck(address _current, string memory _companyName)\r\n        public\r\n        view\r\n        returns (bool)\r\n    {\r\n        require(\r\n            companyAddresses[_current].toggle == true,\r\n            \"Yes it is a digital duplicate\"\r\n        );\r\n        require(\r\n            keccak256(\r\n                abi.encodePacked(companyAddresses[_current].companyName)\r\n            ) == keccak256(abi.encodePacked(_companyName)),\r\n            \"Yes it is a digital duplicate\"\r\n        );\r\n        return true;\r\n    }\r\n}\r\n",
  "sourcePath": "C:\\Users\\Neeraj\\Desktop\\Sterling Store\\src\\contracts\\CheckDigitalDuplicate.sol",
  "compiler": {
    "name": "solc",
    "version": "0.8.20+commit.a1b79de6.Emscripten.clang"
  },
  "schemaVersion": "3.4.11",
  "updatedAt": "2023-05-21T13:19:52.986Z",
  "devdoc": {
    "kind": "dev",
    "methods": {},
    "version": 1
  },
  "userdoc": {
    "kind": "user",
    "methods": {},
    "version": 1
  }
}