{
  "contractName": "checkRefurbished",
  "abi": [
    {
      "anonymous": false,
      "inputs": [
        {
          "indexed": true,
          "internalType": "address",
          "name": "owner",
          "type": "address"
        },
        {
          "indexed": true,
          "internalType": "address",
          "name": "approved",
          "type": "address"
        },
        {
          "indexed": true,
          "internalType": "uint256",
          "name": "tokenId",
          "type": "uint256"
        }
      ],
      "name": "Approval",
      "type": "event"
    },
    {
      "anonymous": false,
      "inputs": [
        {
          "indexed": true,
          "internalType": "address",
          "name": "owner",
          "type": "address"
        },
        {
          "indexed": true,
          "internalType": "address",
          "name": "operator",
          "type": "address"
        },
        {
          "indexed": false,
          "internalType": "bool",
          "name": "approved",
          "type": "bool"
        }
      ],
      "name": "ApprovalForAll",
      "type": "event"
    },
    {
      "anonymous": false,
      "inputs": [
        {
          "indexed": false,
          "internalType": "address",
          "name": "from",
          "type": "address"
        },
        {
          "indexed": false,
          "internalType": "address",
          "name": "to",
          "type": "address"
        },
        {
          "indexed": false,
          "internalType": "uint256",
          "name": "_tokenId",
          "type": "uint256"
        }
      ],
      "name": "Stake",
      "type": "event"
    },
    {
      "anonymous": false,
      "inputs": [
        {
          "indexed": true,
          "internalType": "address",
          "name": "from",
          "type": "address"
        },
        {
          "indexed": true,
          "internalType": "address",
          "name": "to",
          "type": "address"
        },
        {
          "indexed": true,
          "internalType": "uint256",
          "name": "tokenId",
          "type": "uint256"
        }
      ],
      "name": "Transfer",
      "type": "event"
    },
    {
      "anonymous": false,
      "inputs": [
        {
          "indexed": false,
          "internalType": "address",
          "name": "to",
          "type": "address"
        },
        {
          "indexed": false,
          "internalType": "uint256",
          "name": "_tokenId",
          "type": "uint256"
        }
      ],
      "name": "mintEvent",
      "type": "event"
    },
    {
      "inputs": [
        {
          "internalType": "address",
          "name": "",
          "type": "address"
        },
        {
          "internalType": "uint256",
          "name": "",
          "type": "uint256"
        }
      ],
      "name": "AllGenericNFT",
      "outputs": [
        {
          "internalType": "uint256",
          "name": "",
          "type": "uint256"
        }
      ],
      "stateMutability": "view",
      "type": "function"
    },
    {
      "inputs": [
        {
          "internalType": "address",
          "name": "",
          "type": "address"
        },
        {
          "internalType": "uint256",
          "name": "",
          "type": "uint256"
        }
      ],
      "name": "AllNonTransferrableNFT",
      "outputs": [
        {
          "internalType": "uint256",
          "name": "",
          "type": "uint256"
        }
      ],
      "stateMutability": "view",
      "type": "function"
    },
    {
      "inputs": [
        {
          "internalType": "address",
          "name": "",
          "type": "address"
        },
        {
          "internalType": "uint256",
          "name": "",
          "type": "uint256"
        }
      ],
      "name": "AllPreLaunchNFT",
      "outputs": [
        {
          "internalType": "uint256",
          "name": "",
          "type": "uint256"
        }
      ],
      "stateMutability": "view",
      "type": "function"
    },
    {
      "inputs": [
        {
          "internalType": "address",
          "name": "",
          "type": "address"
        },
        {
          "internalType": "uint256",
          "name": "",
          "type": "uint256"
        }
      ],
      "name": "AllSpecialNFT",
      "outputs": [
        {
          "internalType": "uint256",
          "name": "",
          "type": "uint256"
        }
      ],
      "stateMutability": "view",
      "type": "function"
    },
    {
      "inputs": [
        {
          "internalType": "address",
          "name": "_off",
          "type": "address"
        }
      ],
      "name": "AllSpecialNFTLength",
      "outputs": [
        {
          "internalType": "uint256",
          "name": "",
          "type": "uint256"
        }
      ],
      "stateMutability": "view",
      "type": "function"
    },
    {
      "inputs": [
        {
          "internalType": "address",
          "name": "",
          "type": "address"
        },
        {
          "internalType": "uint256",
          "name": "",
          "type": "uint256"
        }
      ],
      "name": "AllStakedNFT",
      "outputs": [
        {
          "internalType": "uint256",
          "name": "",
          "type": "uint256"
        }
      ],
      "stateMutability": "view",
      "type": "function"
    },
    {
      "inputs": [
        {
          "internalType": "uint256",
          "name": "",
          "type": "uint256"
        }
      ],
      "name": "NFTinfo",
      "outputs": [
        {
          "internalType": "bool",
          "name": "minted",
          "type": "bool"
        },
        {
          "internalType": "string",
          "name": "name",
          "type": "string"
        },
        {
          "internalType": "string",
          "name": "description",
          "type": "string"
        },
        {
          "internalType": "string",
          "name": "url",
          "type": "string"
        },
        {
          "internalType": "string",
          "name": "trxnHash",
          "type": "string"
        },
        {
          "internalType": "uint256",
          "name": "nftType",
          "type": "uint256"
        },
        {
          "internalType": "uint256",
          "name": "boughtOn",
          "type": "uint256"
        },
        {
          "internalType": "address",
          "name": "seller",
          "type": "address"
        },
        {
          "internalType": "uint256",
          "name": "ExpireOn",
          "type": "uint256"
        },
        {
          "internalType": "bool",
          "name": "expireable",
          "type": "bool"
        }
      ],
      "stateMutability": "view",
      "type": "function"
    },
    {
      "inputs": [
        {
          "internalType": "uint256",
          "name": "",
          "type": "uint256"
        }
      ],
      "name": "NFTs",
      "outputs": [
        {
          "internalType": "string",
          "name": "",
          "type": "string"
        }
      ],
      "stateMutability": "view",
      "type": "function"
    },
    {
      "inputs": [
        {
          "internalType": "address",
          "name": "_off",
          "type": "address"
        },
        {
          "internalType": "uint256",
          "name": "_till",
          "type": "uint256"
        }
      ],
      "name": "StakeSpecialNFT",
      "outputs": [],
      "stateMutability": "nonpayable",
      "type": "function"
    },
    {
      "inputs": [
        {
          "internalType": "string",
          "name": "_nft",
          "type": "string"
        },
        {
          "internalType": "bool",
          "name": "_minted",
          "type": "bool"
        },
        {
          "internalType": "string",
          "name": "_name",
          "type": "string"
        },
        {
          "internalType": "string",
          "name": "_description",
          "type": "string"
        },
        {
          "internalType": "string",
          "name": "_url",
          "type": "string"
        },
        {
          "internalType": "string",
          "name": "_trxnHash",
          "type": "string"
        },
        {
          "internalType": "uint256",
          "name": "_nftType",
          "type": "uint256"
        },
        {
          "internalType": "uint256",
          "name": "_boughtOn",
          "type": "uint256"
        },
        {
          "internalType": "address",
          "name": "_seller",
          "type": "address"
        },
        {
          "internalType": "uint256",
          "name": "_ExpireOn",
          "type": "uint256"
        },
        {
          "internalType": "address",
          "name": "_off",
          "type": "address"
        }
      ],
      "name": "_Generic",
      "outputs": [],
      "stateMutability": "nonpayable",
      "type": "function"
    },
    {
      "inputs": [
        {
          "internalType": "string",
          "name": "_nft",
          "type": "string"
        },
        {
          "internalType": "bool",
          "name": "_minted",
          "type": "bool"
        },
        {
          "internalType": "string",
          "name": "_name",
          "type": "string"
        },
        {
          "internalType": "string",
          "name": "_description",
          "type": "string"
        },
        {
          "internalType": "string",
          "name": "_url",
          "type": "string"
        },
        {
          "internalType": "string",
          "name": "_trxnHash",
          "type": "string"
        },
        {
          "internalType": "uint256",
          "name": "_nftType",
          "type": "uint256"
        },
        {
          "internalType": "uint256",
          "name": "_boughtOn",
          "type": "uint256"
        },
        {
          "internalType": "address",
          "name": "_seller",
          "type": "address"
        },
        {
          "internalType": "uint256",
          "name": "_ExpireOn",
          "type": "uint256"
        },
        {
          "internalType": "address",
          "name": "_off",
          "type": "address"
        }
      ],
      "name": "_NonTransferableNFT",
      "outputs": [],
      "stateMutability": "nonpayable",
      "type": "function"
    },
    {
      "inputs": [
        {
          "internalType": "string",
          "name": "_nft",
          "type": "string"
        },
        {
          "internalType": "bool",
          "name": "_minted",
          "type": "bool"
        },
        {
          "internalType": "string",
          "name": "_name",
          "type": "string"
        },
        {
          "internalType": "string",
          "name": "_description",
          "type": "string"
        },
        {
          "internalType": "string",
          "name": "_url",
          "type": "string"
        },
        {
          "internalType": "string",
          "name": "_trxnHash",
          "type": "string"
        },
        {
          "internalType": "uint256",
          "name": "_nftType",
          "type": "uint256"
        },
        {
          "internalType": "uint256",
          "name": "_boughtOn",
          "type": "uint256"
        },
        {
          "internalType": "address",
          "name": "_seller",
          "type": "address"
        },
        {
          "internalType": "uint256",
          "name": "_ExpireOn",
          "type": "uint256"
        },
        {
          "internalType": "address",
          "name": "_off",
          "type": "address"
        }
      ],
      "name": "_PreLaunch",
      "outputs": [],
      "stateMutability": "nonpayable",
      "type": "function"
    },
    {
      "inputs": [
        {
          "internalType": "string",
          "name": "_nft",
          "type": "string"
        },
        {
          "internalType": "bool",
          "name": "_minted",
          "type": "bool"
        },
        {
          "internalType": "string",
          "name": "_name",
          "type": "string"
        },
        {
          "internalType": "string",
          "name": "_description",
          "type": "string"
        },
        {
          "internalType": "string",
          "name": "_url",
          "type": "string"
        },
        {
          "internalType": "string",
          "name": "_trxnHash",
          "type": "string"
        },
        {
          "internalType": "uint256",
          "name": "_nftType",
          "type": "uint256"
        },
        {
          "internalType": "uint256",
          "name": "_boughtOn",
          "type": "uint256"
        },
        {
          "internalType": "address",
          "name": "_seller",
          "type": "address"
        },
        {
          "internalType": "uint256",
          "name": "_ExpireOn",
          "type": "uint256"
        },
        {
          "internalType": "address",
          "name": "_off",
          "type": "address"
        }
      ],
      "name": "_Special",
      "outputs": [],
      "stateMutability": "nonpayable",
      "type": "function"
    },
    {
      "inputs": [
        {
          "internalType": "uint256",
          "name": "_expiryDate",
          "type": "uint256"
        },
        {
          "internalType": "uint256",
          "name": "_tokenId",
          "type": "uint256"
        }
      ],
      "name": "addExpiredOn",
      "outputs": [],
      "stateMutability": "nonpayable",
      "type": "function"
    },
    {
      "inputs": [
        {
          "internalType": "uint256",
          "name": "_tokenId",
          "type": "uint256"
        }
      ],
      "name": "addForSell",
      "outputs": [],
      "stateMutability": "nonpayable",
      "type": "function"
    },
    {
      "inputs": [],
      "name": "addNewBoughtOn",
      "outputs": [],
      "stateMutability": "nonpayable",
      "type": "function"
    },
    {
      "inputs": [
        {
          "internalType": "uint256",
          "name": "_tokenId",
          "type": "uint256"
        },
        {
          "internalType": "bool",
          "name": "_minted",
          "type": "bool"
        },
        {
          "internalType": "string",
          "name": "_name",
          "type": "string"
        },
        {
          "internalType": "string",
          "name": "_description",
          "type": "string"
        },
        {
          "internalType": "string",
          "name": "_url",
          "type": "string"
        },
        {
          "internalType": "string",
          "name": "_trxnHash",
          "type": "string"
        },
        {
          "internalType": "uint256",
          "name": "_nftType",
          "type": "uint256"
        },
        {
          "internalType": "uint256",
          "name": "_boughtOn",
          "type": "uint256"
        },
        {
          "internalType": "address",
          "name": "_seller",
          "type": "address"
        },
        {
          "internalType": "uint256",
          "name": "_ExpireOn",
          "type": "uint256"
        },
        {
          "internalType": "bool",
          "name": "_expireable",
          "type": "bool"
        }
      ],
      "name": "addNftProp",
      "outputs": [],
      "stateMutability": "nonpayable",
      "type": "function"
    },
    {
      "inputs": [
        {
          "internalType": "uint256",
          "name": "_exp",
          "type": "uint256"
        }
      ],
      "name": "addTempExp",
      "outputs": [],
      "stateMutability": "nonpayable",
      "type": "function"
    },
    {
      "inputs": [
        {
          "internalType": "address",
          "name": "to",
          "type": "address"
        },
        {
          "internalType": "uint256",
          "name": "tokenId",
          "type": "uint256"
        }
      ],
      "name": "approve",
      "outputs": [],
      "stateMutability": "nonpayable",
      "type": "function"
    },
    {
      "inputs": [],
      "name": "availableToBuy",
      "outputs": [
        {
          "components": [
            {
              "internalType": "bool",
              "name": "minted",
              "type": "bool"
            },
            {
              "internalType": "string",
              "name": "name",
              "type": "string"
            },
            {
              "internalType": "string",
              "name": "description",
              "type": "string"
            },
            {
              "internalType": "string",
              "name": "url",
              "type": "string"
            },
            {
              "internalType": "string",
              "name": "trxnHash",
              "type": "string"
            },
            {
              "internalType": "uint256",
              "name": "nftType",
              "type": "uint256"
            },
            {
              "internalType": "uint256",
              "name": "boughtOn",
              "type": "uint256"
            },
            {
              "internalType": "address",
              "name": "seller",
              "type": "address"
            },
            {
              "internalType": "uint256",
              "name": "ExpireOn",
              "type": "uint256"
            },
            {
              "internalType": "bool",
              "name": "expireable",
              "type": "bool"
            }
          ],
          "internalType": "struct NFT.nftProp[]",
          "name": "",
          "type": "tuple[]"
        },
        {
          "internalType": "uint256[]",
          "name": "",
          "type": "uint256[]"
        }
      ],
      "stateMutability": "view",
      "type": "function"
    },
    {
      "inputs": [
        {
          "internalType": "address",
          "name": "owner",
          "type": "address"
        }
      ],
      "name": "balanceOf",
      "outputs": [
        {
          "internalType": "uint256",
          "name": "",
          "type": "uint256"
        }
      ],
      "stateMutability": "view",
      "type": "function"
    },
    {
      "inputs": [],
      "name": "boughtOnDate",
      "outputs": [
        {
          "internalType": "uint256",
          "name": "",
          "type": "uint256"
        }
      ],
      "stateMutability": "view",
      "type": "function"
    },
    {
      "inputs": [
        {
          "internalType": "uint256",
          "name": "_tokenId",
          "type": "uint256"
        },
        {
          "internalType": "address",
          "name": "_off",
          "type": "address"
        }
      ],
      "name": "burnMyToken",
      "outputs": [
        {
          "internalType": "bool",
          "name": "",
          "type": "bool"
        }
      ],
      "stateMutability": "nonpayable",
      "type": "function"
    },
    {
      "inputs": [
        {
          "internalType": "uint256",
          "name": "tokenId",
          "type": "uint256"
        },
        {
          "internalType": "uint256",
          "name": "_NumberOfItems",
          "type": "uint256"
        },
        {
          "internalType": "uint256",
          "name": "_cap",
          "type": "uint256"
        }
      ],
      "name": "buyBulk",
      "outputs": [],
      "stateMutability": "nonpayable",
      "type": "function"
    },
    {
      "inputs": [
        {
          "internalType": "uint256",
          "name": "_tokenId",
          "type": "uint256"
        }
      ],
      "name": "buyNFT",
      "outputs": [],
      "stateMutability": "nonpayable",
      "type": "function"
    },
    {
      "inputs": [
        {
          "internalType": "address",
          "name": "_user",
          "type": "address"
        }
      ],
      "name": "getAllOwnerOwnedIds",
      "outputs": [
        {
          "internalType": "uint256[]",
          "name": "",
          "type": "uint256[]"
        }
      ],
      "stateMutability": "view",
      "type": "function"
    },
    {
      "inputs": [
        {
          "internalType": "address",
          "name": "_off",
          "type": "address"
        }
      ],
      "name": "getAllStakedNFTFromAddress",
      "outputs": [
        {
          "internalType": "uint256[]",
          "name": "",
          "type": "uint256[]"
        }
      ],
      "stateMutability": "view",
      "type": "function"
    },
    {
      "inputs": [
        {
          "internalType": "uint256",
          "name": "tokenId",
          "type": "uint256"
        }
      ],
      "name": "getApproved",
      "outputs": [
        {
          "internalType": "address",
          "name": "",
          "type": "address"
        }
      ],
      "stateMutability": "view",
      "type": "function"
    },
    {
      "inputs": [
        {
          "internalType": "uint256",
          "name": "_tokenId",
          "type": "uint256"
        }
      ],
      "name": "getNFTtype",
      "outputs": [
        {
          "internalType": "uint256",
          "name": "",
          "type": "uint256"
        }
      ],
      "stateMutability": "view",
      "type": "function"
    },
    {
      "inputs": [
        {
          "internalType": "address",
          "name": "_off",
          "type": "address"
        },
        {
          "internalType": "uint256",
          "name": "_tokenId",
          "type": "uint256"
        }
      ],
      "name": "getStakedNFTProp",
      "outputs": [
        {
          "internalType": "uint256",
          "name": "",
          "type": "uint256"
        },
        {
          "internalType": "uint256",
          "name": "",
          "type": "uint256"
        }
      ],
      "stateMutability": "view",
      "type": "function"
    },
    {
      "inputs": [
        {
          "internalType": "uint256",
          "name": "__ExpireOn",
          "type": "uint256"
        }
      ],
      "name": "ifTimeHasPassed",
      "outputs": [
        {
          "internalType": "bool",
          "name": "",
          "type": "bool"
        }
      ],
      "stateMutability": "view",
      "type": "function"
    },
    {
      "inputs": [
        {
          "internalType": "address",
          "name": "owner",
          "type": "address"
        },
        {
          "internalType": "address",
          "name": "operator",
          "type": "address"
        }
      ],
      "name": "isApprovedForAll",
      "outputs": [
        {
          "internalType": "bool",
          "name": "",
          "type": "bool"
        }
      ],
      "stateMutability": "view",
      "type": "function"
    },
    {
      "inputs": [
        {
          "internalType": "string",
          "name": "_nft",
          "type": "string"
        }
      ],
      "name": "mint",
      "outputs": [],
      "stateMutability": "nonpayable",
      "type": "function"
    },
    {
      "inputs": [
        {
          "internalType": "address",
          "name": "to",
          "type": "address"
        },
        {
          "internalType": "string",
          "name": "_nft",
          "type": "string"
        }
      ],
      "name": "mintToOthers",
      "outputs": [],
      "stateMutability": "nonpayable",
      "type": "function"
    },
    {
      "inputs": [
        {
          "internalType": "address",
          "name": "_off",
          "type": "address"
        }
      ],
      "name": "myTotalNFTCount",
      "outputs": [
        {
          "internalType": "uint256",
          "name": "",
          "type": "uint256"
        }
      ],
      "stateMutability": "view",
      "type": "function"
    },
    {
      "inputs": [],
      "name": "name",
      "outputs": [
        {
          "internalType": "string",
          "name": "",
          "type": "string"
        }
      ],
      "stateMutability": "view",
      "type": "function"
    },
    {
      "inputs": [
        {
          "internalType": "uint256",
          "name": "_id",
          "type": "uint256"
        }
      ],
      "name": "nftVal",
      "outputs": [
        {
          "internalType": "string",
          "name": "",
          "type": "string"
        }
      ],
      "stateMutability": "view",
      "type": "function"
    },
    {
      "inputs": [],
      "name": "nftsLen",
      "outputs": [
        {
          "internalType": "uint256",
          "name": "",
          "type": "uint256"
        }
      ],
      "stateMutability": "view",
      "type": "function"
    },
    {
      "inputs": [],
      "name": "owner",
      "outputs": [
        {
          "internalType": "address",
          "name": "",
          "type": "address"
        }
      ],
      "stateMutability": "view",
      "type": "function"
    },
    {
      "inputs": [
        {
          "internalType": "uint256",
          "name": "tokenId",
          "type": "uint256"
        }
      ],
      "name": "ownerOf",
      "outputs": [
        {
          "internalType": "address",
          "name": "",
          "type": "address"
        }
      ],
      "stateMutability": "view",
      "type": "function"
    },
    {
      "inputs": [
        {
          "internalType": "address",
          "name": "_off",
          "type": "address"
        }
      ],
      "name": "reIssueNFTForPreLaunch",
      "outputs": [],
      "stateMutability": "nonpayable",
      "type": "function"
    },
    {
      "inputs": [
        {
          "internalType": "address",
          "name": "_of",
          "type": "address"
        },
        {
          "internalType": "string",
          "name": "__url",
          "type": "string"
        }
      ],
      "name": "removeAllExpiredNFT",
      "outputs": [],
      "stateMutability": "nonpayable",
      "type": "function"
    },
    {
      "inputs": [
        {
          "internalType": "uint256",
          "name": "_tokenId",
          "type": "uint256"
        }
      ],
      "name": "removeFromSell",
      "outputs": [],
      "stateMutability": "nonpayable",
      "type": "function"
    },
    {
      "inputs": [
        {
          "internalType": "address",
          "name": "from",
          "type": "address"
        },
        {
          "internalType": "address",
          "name": "to",
          "type": "address"
        },
        {
          "internalType": "uint256",
          "name": "tokenId",
          "type": "uint256"
        }
      ],
      "name": "safeTransferFrom",
      "outputs": [],
      "stateMutability": "nonpayable",
      "type": "function"
    },
    {
      "inputs": [
        {
          "internalType": "address",
          "name": "from",
          "type": "address"
        },
        {
          "internalType": "address",
          "name": "to",
          "type": "address"
        },
        {
          "internalType": "uint256",
          "name": "tokenId",
          "type": "uint256"
        },
        {
          "internalType": "bytes",
          "name": "data",
          "type": "bytes"
        }
      ],
      "name": "safeTransferFrom",
      "outputs": [],
      "stateMutability": "nonpayable",
      "type": "function"
    },
    {
      "inputs": [
        {
          "internalType": "address",
          "name": "operator",
          "type": "address"
        },
        {
          "internalType": "bool",
          "name": "approved",
          "type": "bool"
        }
      ],
      "name": "setApprovalForAll",
      "outputs": [],
      "stateMutability": "nonpayable",
      "type": "function"
    },
    {
      "inputs": [
        {
          "internalType": "uint256",
          "name": "tokenId",
          "type": "uint256"
        },
        {
          "internalType": "string",
          "name": "_nftURL",
          "type": "string"
        }
      ],
      "name": "setURL",
      "outputs": [],
      "stateMutability": "nonpayable",
      "type": "function"
    },
    {
      "inputs": [
        {
          "internalType": "bytes4",
          "name": "interfaceId",
          "type": "bytes4"
        }
      ],
      "name": "supportsInterface",
      "outputs": [
        {
          "internalType": "bool",
          "name": "",
          "type": "bool"
        }
      ],
      "stateMutability": "view",
      "type": "function"
    },
    {
      "inputs": [],
      "name": "symbol",
      "outputs": [
        {
          "internalType": "string",
          "name": "",
          "type": "string"
        }
      ],
      "stateMutability": "view",
      "type": "function"
    },
    {
      "inputs": [],
      "name": "tempExp",
      "outputs": [
        {
          "internalType": "uint256",
          "name": "",
          "type": "uint256"
        }
      ],
      "stateMutability": "view",
      "type": "function"
    },
    {
      "inputs": [
        {
          "internalType": "uint256",
          "name": "tokenId",
          "type": "uint256"
        }
      ],
      "name": "tokenURI",
      "outputs": [
        {
          "internalType": "string",
          "name": "",
          "type": "string"
        }
      ],
      "stateMutability": "view",
      "type": "function"
    },
    {
      "inputs": [
        {
          "internalType": "address",
          "name": "from",
          "type": "address"
        },
        {
          "internalType": "address",
          "name": "to",
          "type": "address"
        },
        {
          "internalType": "uint256",
          "name": "tokenId",
          "type": "uint256"
        }
      ],
      "name": "transferFrom",
      "outputs": [],
      "stateMutability": "nonpayable",
      "type": "function"
    },
    {
      "inputs": [
        {
          "internalType": "address",
          "name": "_off",
          "type": "address"
        },
        {
          "internalType": "uint256[]",
          "name": "allOwnedTokens",
          "type": "uint256[]"
        }
      ],
      "name": "userPersonalNFTinfo",
      "outputs": [
        {
          "components": [
            {
              "internalType": "bool",
              "name": "minted",
              "type": "bool"
            },
            {
              "internalType": "string",
              "name": "name",
              "type": "string"
            },
            {
              "internalType": "string",
              "name": "description",
              "type": "string"
            },
            {
              "internalType": "string",
              "name": "url",
              "type": "string"
            },
            {
              "internalType": "string",
              "name": "trxnHash",
              "type": "string"
            },
            {
              "internalType": "uint256",
              "name": "nftType",
              "type": "uint256"
            },
            {
              "internalType": "uint256",
              "name": "boughtOn",
              "type": "uint256"
            },
            {
              "internalType": "address",
              "name": "seller",
              "type": "address"
            },
            {
              "internalType": "uint256",
              "name": "ExpireOn",
              "type": "uint256"
            },
            {
              "internalType": "bool",
              "name": "expireable",
              "type": "bool"
            }
          ],
          "internalType": "struct NFT.nftProp[]",
          "name": "",
          "type": "tuple[]"
        }
      ],
      "stateMutability": "view",
      "type": "function"
    },
    {
      "inputs": [
        {
          "internalType": "address",
          "name": "_user",
          "type": "address"
        },
        {
          "internalType": "uint256[]",
          "name": "allOwnedTokens",
          "type": "uint256[]"
        }
      ],
      "name": "userStakedNFTinfo",
      "outputs": [
        {
          "components": [
            {
              "internalType": "uint256",
              "name": "_stakedOn",
              "type": "uint256"
            },
            {
              "internalType": "uint256",
              "name": "_stakedTill",
              "type": "uint256"
            }
          ],
          "internalType": "struct NFT.stakeProp[]",
          "name": "",
          "type": "tuple[]"
        }
      ],
      "stateMutability": "view",
      "type": "function"
    },
    {
      "inputs": [
        {
          "internalType": "address",
          "name": "_off",
          "type": "address"
        }
      ],
      "name": "viewAllTokens",
      "outputs": [
        {
          "internalType": "uint256[]",
          "name": "",
          "type": "uint256[]"
        }
      ],
      "stateMutability": "view",
      "type": "function"
    },
    {
      "inputs": [
        {
          "internalType": "address",
          "name": "_off",
          "type": "address"
        }
      ],
      "name": "viewMyNFTS",
      "outputs": [
        {
          "internalType": "uint256[]",
          "name": "",
          "type": "uint256[]"
        }
      ],
      "stateMutability": "view",
      "type": "function"
    },
    {
      "inputs": [
        {
          "internalType": "address",
          "name": "_user",
          "type": "address"
        }
      ],
      "name": "viewMyStakedNFTs",
      "outputs": [
        {
          "components": [
            {
              "internalType": "bool",
              "name": "minted",
              "type": "bool"
            },
            {
              "internalType": "string",
              "name": "name",
              "type": "string"
            },
            {
              "internalType": "string",
              "name": "description",
              "type": "string"
            },
            {
              "internalType": "string",
              "name": "url",
              "type": "string"
            },
            {
              "internalType": "string",
              "name": "trxnHash",
              "type": "string"
            },
            {
              "internalType": "uint256",
              "name": "nftType",
              "type": "uint256"
            },
            {
              "internalType": "uint256",
              "name": "boughtOn",
              "type": "uint256"
            },
            {
              "internalType": "address",
              "name": "seller",
              "type": "address"
            },
            {
              "internalType": "uint256",
              "name": "ExpireOn",
              "type": "uint256"
            },
            {
              "internalType": "bool",
              "name": "expireable",
              "type": "bool"
            }
          ],
          "internalType": "struct NFT.nftProp[]",
          "name": "",
          "type": "tuple[]"
        },
        {
          "components": [
            {
              "internalType": "uint256",
              "name": "_stakedOn",
              "type": "uint256"
            },
            {
              "internalType": "uint256",
              "name": "_stakedTill",
              "type": "uint256"
            }
          ],
          "internalType": "struct NFT.stakeProp[]",
          "name": "",
          "type": "tuple[]"
        }
      ],
      "stateMutability": "view",
      "type": "function"
    },
    {
      "inputs": [
        {
          "internalType": "uint256",
          "name": "_tokenId",
          "type": "uint256"
        }
      ],
      "name": "viewNFTPropByIndex1",
      "outputs": [
        {
          "internalType": "string",
          "name": "",
          "type": "string"
        },
        {
          "internalType": "string",
          "name": "",
          "type": "string"
        },
        {
          "internalType": "string",
          "name": "",
          "type": "string"
        },
        {
          "internalType": "string",
          "name": "",
          "type": "string"
        },
        {
          "internalType": "uint256",
          "name": "",
          "type": "uint256"
        }
      ],
      "stateMutability": "view",
      "type": "function"
    },
    {
      "inputs": [
        {
          "internalType": "uint256",
          "name": "_tokenId",
          "type": "uint256"
        }
      ],
      "name": "viewNFTPropByIndex2",
      "outputs": [
        {
          "internalType": "uint256",
          "name": "",
          "type": "uint256"
        },
        {
          "internalType": "address",
          "name": "",
          "type": "address"
        },
        {
          "internalType": "uint256",
          "name": "",
          "type": "uint256"
        },
        {
          "internalType": "bool",
          "name": "",
          "type": "bool"
        }
      ],
      "stateMutability": "view",
      "type": "function"
    },
    {
      "inputs": [
        {
          "internalType": "address",
          "name": "_off",
          "type": "address"
        }
      ],
      "name": "viewPersonalNFT",
      "outputs": [
        {
          "components": [
            {
              "internalType": "bool",
              "name": "minted",
              "type": "bool"
            },
            {
              "internalType": "string",
              "name": "name",
              "type": "string"
            },
            {
              "internalType": "string",
              "name": "description",
              "type": "string"
            },
            {
              "internalType": "string",
              "name": "url",
              "type": "string"
            },
            {
              "internalType": "string",
              "name": "trxnHash",
              "type": "string"
            },
            {
              "internalType": "uint256",
              "name": "nftType",
              "type": "uint256"
            },
            {
              "internalType": "uint256",
              "name": "boughtOn",
              "type": "uint256"
            },
            {
              "internalType": "address",
              "name": "seller",
              "type": "address"
            },
            {
              "internalType": "uint256",
              "name": "ExpireOn",
              "type": "uint256"
            },
            {
              "internalType": "bool",
              "name": "expireable",
              "type": "bool"
            }
          ],
          "internalType": "struct NFT.nftProp[]",
          "name": "",
          "type": "tuple[]"
        }
      ],
      "stateMutability": "view",
      "type": "function"
    },
    {
      "inputs": [
        {
          "internalType": "address",
          "name": "_user",
          "type": "address"
        }
      ],
      "name": "viewUserStakedNFT",
      "outputs": [
        {
          "components": [
            {
              "internalType": "bool",
              "name": "minted",
              "type": "bool"
            },
            {
              "internalType": "string",
              "name": "name",
              "type": "string"
            },
            {
              "internalType": "string",
              "name": "description",
              "type": "string"
            },
            {
              "internalType": "string",
              "name": "url",
              "type": "string"
            },
            {
              "internalType": "string",
              "name": "trxnHash",
              "type": "string"
            },
            {
              "internalType": "uint256",
              "name": "nftType",
              "type": "uint256"
            },
            {
              "internalType": "uint256",
              "name": "boughtOn",
              "type": "uint256"
            },
            {
              "internalType": "address",
              "name": "seller",
              "type": "address"
            },
            {
              "internalType": "uint256",
              "name": "ExpireOn",
              "type": "uint256"
            },
            {
              "internalType": "bool",
              "name": "expireable",
              "type": "bool"
            }
          ],
          "internalType": "struct NFT.nftProp[]",
          "name": "",
          "type": "tuple[]"
        },
        {
          "components": [
            {
              "internalType": "uint256",
              "name": "_stakedOn",
              "type": "uint256"
            },
            {
              "internalType": "uint256",
              "name": "_stakedTill",
              "type": "uint256"
            }
          ],
          "internalType": "struct NFT.stakeProp[]",
          "name": "",
          "type": "tuple[]"
        }
      ],
      "stateMutability": "view",
      "type": "function"
    },
    {
      "inputs": [
        {
          "internalType": "uint256",
          "name": "tokenId",
          "type": "uint256"
        }
      ],
      "name": "checkRefurbishedItem",
      "outputs": [
        {
          "internalType": "bool",
          "name": "",
          "type": "bool"
        }
      ],
      "stateMutability": "view",
      "type": "function"
    }
  ],
  "bytecode": "0x60806040523480156200001157600080fd5b506040518060400160405280600d81526020017f537465726c696e6753746f7265000000000000000000000000000000000000008152506040518060400160405280600b81526020017f537465726c696e674e465400000000000000000000000000000000000000000081525081600090816200008f919062000190565b5060016200009e828262000190565b5050600d8054600160a060020a031916331790555062000263565b7f4e487b7100000000000000000000000000000000000000000000000000000000600052604160045260246000fd5b600281046001821680620000fd57607f821691505b60208210810362000137577f4e487b7100000000000000000000000000000000000000000000000000000000600052602260045260246000fd5b50919050565b601f8211156200018b576000818152602081206020601f86010481016020861015620001665750805b6020601f860104820191505b81811015620001875782815560010162000172565b5050505b505050565b815167ffffffffffffffff811115620001ad57620001ad620000b9565b620001c581620001be8454620000e8565b846200013d565b602080601f831160018114620002015760008415620001e45750858301515b60028086026008870290910a600019041982161786555062000187565b600085815260208120601f198616915b82811015620002325788860151825594840194600190910190840162000211565b50858210156200025357878501516008601f88160260020a60001904191681555b5050505050600202600101905550565b615b2d80620002736000396000f3fe608060405234801561001057600080fd5b50600436106103d7576000357c01000000000000000000000000000000000000000000000000000000009004806395d89b4111610211578063c30c896711610137578063e6a9b77c116100ca578063ee991a0311610099578063ee991a0314610988578063f7c44cf51461099e578063fb35a4dc146109b1578063fca7569b146109c457600080fd5b8063e6a9b77c146108b6578063e985e9c5146108c9578063ebd0939d14610905578063eda764021461091857600080fd5b8063c7d7f33b11610106578063c7d7f33b1461085a578063c87b56dd1461087d578063d85d3d2714610890578063d8698dcb146108a357600080fd5b8063c30c8967146107fd578063c395d9cc14610810578063c49ddc0e14610823578063c541523b1461084757600080fd5b8063afb4d7f7116101af578063bd7e2f951161017e578063bd7e2f951461079b578063be64a28a146107ae578063c0e50d68146107c1578063c12299cb146107ea57600080fd5b8063afb4d7f714610742578063b5a9d5ef14610762578063b864bfdf14610775578063b88d4fde1461078857600080fd5b8063a22cb465116101eb578063a22cb465146106e7578063a3c0b95b146106fa578063a98baaf11461070d578063abc77c661461072057600080fd5b806395d89b41146106c35780639a1b1c57146106cb5780639fc34e0d146106de57600080fd5b806334f3ee7711610301578063640e82d91161029457806389f8c2191161026357806389f8c219146106775780638b1933ff1461068a5780638da5cb5b1461069d578063909c2f9b146106b057600080fd5b8063640e82d9146106355780636e9940b61461064857806370a0823114610651578063803ef7b11461066457600080fd5b806342eaa13e116102d057806342eaa13e146105dc57806351ed8288146105fc57806360bd3e261461060f5780636352211e1461062257600080fd5b806334f3ee771461055a57806335482c3a146105635780633e461e0c1461057657806342842e0e146105c957600080fd5b80630bebfc1a1161037957806322187a141161034857806322187a141461050157806322688f0b1461051457806323b872dd1461053457806330f1dc4e1461054757600080fd5b80630bebfc1a1461049f57806319073639146104b25780631bc2edae146104c55780631e1c62da146104ee57600080fd5b806307da1667116103b557806307da16671461042e578063081812fc1461044f578063095ea7b31461047a5780630bc04d531461048d57600080fd5b806301ffc9a7146103dc578063055a56f91461040457806306fdde0314610419575b600080fd5b6103ef6103ea366004614b0a565b6109d7565b60405190151581526020015b60405180910390f35b610417610412366004614c15565b610a74565b005b610421610ad5565b6040516103fb9190614d8c565b61044161043c366004614d9f565b610b67565b6040516103fb929190614f06565b61046261045d366004614f34565b610b95565b604051600160a060020a0390911681526020016103fb565b610417610488366004614f4d565b610bbc565b6006545b6040519081526020016103fb565b6103ef6104ad366004614f34565b421190565b6104176104c0366004614f34565b610cf8565b6104916104d3366004614d9f565b600160a060020a031660009081526009602052604090205490565b6104216104fc366004614f34565b610f91565b61041761050f366004614c15565b611040565b610527610522366004614d9f565b6110a1565b6040516103fb9190614f77565b610417610542366004614f8a565b611400565b610417610555366004614d9f565b611434565b61041742601055565b6103ef610571366004614f34565b6117da565b6105b4610584366004614f4d565b600160a060020a039190911660009081526013602090815260408083209383529290522080546001909101549091565b604080519283526020830191909152016103fb565b6104176105d7366004614f8a565b611821565b6105ef6105ea366004614d9f565b61183c565b6040516103fb9190614ff6565b61041761060a366004614f34565b611bdf565b61041761061d366004614c15565b612087565b610462610630366004614f34565b6120e8565b6105ef610643366004614d9f565b612150565b61049160115481565b61049161065f366004614d9f565b6121bb565b610417610672366004615009565b612258565b610417610685366004614f34565b601155565b610491610698366004614f4d565b612438565b600d5461046290600160a060020a031681565b6104176106be366004615009565b612469565b610421612631565b6105276106d9366004615057565b612640565b61049160105481565b6104176106f536600461510f565b61298a565b610421610708366004614f34565b612999565b61041761071b366004614f4d565b612a45565b61041761072e366004615142565b6000908152600e6020526040902060080155565b610755610750366004615057565b612bc0565b6040516103fb9190615164565b610417610770366004614c15565b612cb0565b610417610783366004615177565b612d11565b610417610796366004615273565b612dfa565b6104176107a93660046152ef565b612e35565b6104916107bc366004614f4d565b612ed5565b6107d46107cf366004614f34565b612ef1565b6040516103fb9a9998979695949392919061531b565b6104416107f8366004614d9f565b61316f565b61041761080b3660046153ae565b613184565b61041761081e366004614f34565b613222565b610836610831366004614f34565b613519565b6040516103fb9594939291906153df565b610491610855366004614d9f565b61378f565b610491610868366004614f34565b6000908152600e602052604090206005015490565b61042161088b366004614f34565b6137a1565b61041761089e36600461543f565b613815565b6105ef6108b1366004614d9f565b613969565b6104916108c4366004614f4d565b6139d3565b6103ef6108d7366004615474565b600160a060020a03918216600090815260056020908152604080832093909416825291909152205460ff1690565b610491610913366004614f4d565b6139ef565b61095e610926366004614f34565b6000908152600e602052604090206006810154600782015460088301546009909301549193600160a060020a03909116929160ff1690565b60408051948552600160a060020a03909316602085015291830152151560608201526080016103fb565b610990613a0b565b6040516103fb92919061549e565b6104916109ac366004614f4d565b613e18565b6105ef6109bf366004614d9f565b613e34565b6103ef6109d23660046154c3565b613e3f565b6000600160e060020a031982167f80ac58cd000000000000000000000000000000000000000000000000000000001480610a3a5750600160e060020a031982167f5b5e139f00000000000000000000000000000000000000000000000000000000145b80610a6e57507f01ffc9a700000000000000000000000000000000000000000000000000000000600160e060020a03198316145b92915050565b6000610a7f60065490565b9050610a8b828d612258565b610a9f818c8c8c8c8c8c8c8c8c6000612d11565b600160a060020a039091166000908152600960209081526040822080546001810182559083529120015550505050505050505050565b606060008054610ae4906154e6565b80601f0160208091040260200160405190810160405280929190818152602001828054610b10906154e6565b8015610b5d5780601f10610b3257610100808354040283529160200191610b5d565b820191906000526020600020905b815481529060010190602001808311610b4057829003601f168201915b5050505050905090565b6060806000610b7584612150565b9050610b818482612640565b610b8b8583612bc0565b9250925050915091565b6000610ba082613f03565b50600090815260046020526040902054600160a060020a031690565b6000610bc7826120e8565b905080600160a060020a031683600160a060020a031603610c585760405160e560020a62461bcd02815260206004820152602160248201527f4552433732313a20617070726f76616c20746f2063757272656e74206f776e6560448201527f720000000000000000000000000000000000000000000000000000000000000060648201526084015b60405180910390fd5b33600160a060020a0382161480610c745750610c7481336108d7565b610ce95760405160e560020a62461bcd02815260206004820152603d60248201527f4552433732313a20617070726f76652063616c6c6572206973206e6f7420746f60448201527f6b656e206f776e6572206f7220617070726f76656420666f7220616c6c0000006064820152608401610c4f565b610cf38383613f6d565b505050565b808015610d7157600c6006610d0e60018461553c565b81548110610d1e57610d1e61554f565b90600052602060002001604051610d359190615568565b9081526040519081900360200190205460ff161515600114610d6c5760405160e560020a62461bcd028152600401610c4f906155de565b610dd4565b600c60068281548110610d8657610d8661554f565b90600052602060002001604051610d9d9190615568565b9081526040519081900360200190205460ff161515600114610dd45760405160e560020a62461bcd028152600401610c4f906155de565b600080610de03361183c565b905060005b8151811015610e255783828281518110610e0157610e0161554f565b602002602001015103610e1357600192505b610e1e60018261563b565b9050610de5565b50600182151514610e7b5760405160e560020a62461bcd02815260206004820152601c60248201527f4f776e657220646f65736e2774206f776e732074686520746f6b656e000000006044820152606401610c4f565b6000848152600e6020526040902060050154600403610edf5760405160e560020a62461bcd02815260206004820181905260248201527f43616e6e6f742053656c6c204e6f6e205472616e7366657261626c65204e46546044820152606401610c4f565b60008481526014602052604090205460ff1615610f415760405160e560020a62461bcd02815260206004820152601c60248201527f416c7265616479204c697374656420466f722053656c6c696e672121000000006044820152606401610c4f565b5050506000818152601460205260408120805460ff191660019081179091556015805491820181559091527f55f448fdea98c4d29eb340757ef0a66cd03dbb9538908a6a81d96026b71ec4750155565b606060068281548110610fa657610fa661554f565b906000526020600020018054610fbb906154e6565b80601f0160208091040260200160405190810160405280929190818152602001828054610fe7906154e6565b80156110345780601f1061100957610100808354040283529160200191611034565b820191906000526020600020905b81548152906001019060200180831161101757829003601f168201915b50505050509050919050565b600061104b60065490565b9050611057828d612258565b61106b818c8c8c8c8c8c8c8c8c6001612d11565b600160a060020a039091166000908152600a60209081526040822080546001810182559083529120015550505050505050505050565b606060006110ae8361183c565b90506000815167ffffffffffffffff8111156110cc576110cc614b27565b60405190808252806020026020018201604052801561110557816020015b6110f26149f4565b8152602001906001900390816110ea5790505b50905060005b82518110156113f8576000818152600e602090815260409182902082516101408101909352805460ff1615158352600181018054919284019161114d906154e6565b80601f0160208091040260200160405190810160405280929190818152602001828054611179906154e6565b80156111c65780601f1061119b576101008083540402835291602001916111c6565b820191906000526020600020905b8154815290600101906020018083116111a957829003601f168201915b505050505081526020016002820180546111df906154e6565b80601f016020809104026020016040519081016040528092919081815260200182805461120b906154e6565b80156112585780601f1061122d57610100808354040283529160200191611258565b820191906000526020600020905b81548152906001019060200180831161123b57829003601f168201915b50505050508152602001600382018054611271906154e6565b80601f016020809104026020016040519081016040528092919081815260200182805461129d906154e6565b80156112ea5780601f106112bf576101008083540402835291602001916112ea565b820191906000526020600020905b8154815290600101906020018083116112cd57829003601f168201915b50505050508152602001600482018054611303906154e6565b80601f016020809104026020016040519081016040528092919081815260200182805461132f906154e6565b801561137c5780601f106113515761010080835404028352916020019161137c565b820191906000526020600020905b81548152906001019060200180831161135f57829003601f168201915b505050918352505060058201546020820152600682015460408201526007820154600160a060020a031660608201526008820154608082015260099091015460ff16151560a09091015282518390839081106113da576113da61554f565b602002602001018190525080806113f09061564e565b91505061110b565b509392505050565b61140a3382613fe8565b6114295760405160e560020a62461bcd028152600401610c4f90615667565b610cf3838383614067565b600160a060020a03811660009081526008602090815260408083208054825181850281018501909352808352919290919083018282801561149457602002820191906000526020600020905b815481526020019060010190808311611480575b5050505050905060005b81518110156117b0576114df600e60008484815181106114c0576114c061554f565b6020026020010151815260200190815260200160002060080154421190565b1561179e5730600160a060020a031663055a56f960068484815181106115075761150761554f565b60200260200101518154811061151f5761151f61554f565b90600052602060002001600e600086868151811061153f5761153f61554f565b6020026020010151815260200190815260200160002060000160009054906101000a900460ff16600e600087878151811061157c5761157c61554f565b60200260200101518152602001908152602001600020600101600e60008888815181106115ab576115ab61554f565b60200260200101518152602001908152602001600020600201600e60008989815181106115da576115da61554f565b60200260200101518152602001908152602001600020600301600e60008a8a815181106116095761160961554f565b60200260200101518152602001908152602001600020600401600e60008b8b815181106116385761163861554f565b6020026020010151815260200190815260200160002060050154600e60008c8c815181106116685761166861554f565b6020026020010151815260200190815260200160002060060154600e60008d8d815181106116985761169861554f565b6020026020010151815260200190815260200160002060070160009054906101000a9004600160a060020a0316600e60008e8e815181106116db576116db61554f565b60200260200101518152602001908152602001600020600801548e6040518c63ffffffff167c01000000000000000000000000000000000000000000000000000000000281526004016117389b9a99989796959493929190615740565b600060405180830381600087803b15801561175257600080fd5b505af1158015611766573d6000803e3d6000fd5b5050505061178e82828151811061177f5761177f61554f565b60200260200101513084614207565b91508061179a816157f8565b9150505b806117a88161564e565b91505061149e565b50600160a060020a03821660009081526008602090815260409091208251610cf392840190614a54565b6000818152600e602052604081205460ff161515600114801561180c57506000828152600f6020526040902054600111155b1561181957506001919050565b506000919050565b610cf383838360405180602001604052806000815250612dfa565b600160a060020a038116600090815260076020908152604080832080548251818502810185019093528083526060949383018282801561189b57602002820191906000526020600020905b815481526020019060010190808311611887575b50505050600160a060020a0385166000908152600860209081526040808320805482518185028101850190935280835295965092949093509083018282801561190357602002820191906000526020600020905b8154815260200190600101908083116118ef575b50505050600160a060020a0386166000908152600a60209081526040808320805482518185028101850190935280835295965092949093509083018282801561196b57602002820191906000526020600020905b815481526020019060010190808311611957575b50505050600160a060020a038716600090815260096020908152604080832080548251818502810185019093528083529596509294909350908301828280156119d357602002820191906000526020600020905b8154815260200190600101908083116119bf575b50505050509050600081518451865185516119ee919061563b565b6119f8919061563b565b611a02919061563b565b67ffffffffffffffff811115611a1a57611a1a614b27565b604051908082528060200260200182016040528015611a43578160200160208202803683370190505b5090506000805b8651811015611aa957868181518110611a6557611a6561554f565b6020026020010151838381518110611a7f57611a7f61554f565b6020908102919091010152611a9560018361563b565b915080611aa18161564e565b915050611a4a565b5060005b8551811015611b0c57858181518110611ac857611ac861554f565b6020026020010151838381518110611ae257611ae261554f565b6020908102919091010152611af860018361563b565b915080611b048161564e565b915050611aad565b5060005b8451811015611b6f57848181518110611b2b57611b2b61554f565b6020026020010151838381518110611b4557611b4561554f565b6020908102919091010152611b5b60018361563b565b915080611b678161564e565b915050611b10565b5060005b8351811015611bd257838181518110611b8e57611b8e61554f565b6020026020010151838381518110611ba857611ba861554f565b6020908102919091010152611bbe60018361563b565b915080611bca8161564e565b915050611b73565b5090979650505050505050565b611be8816120e8565b600160a060020a03163303611c425760405160e560020a62461bcd02815260206004820152601b60248201527f596f752063616e6e6f742042757920596f7572204f776e204e465400000000006044820152606401610c4f565b60008181526016602052604090205460ff1615611ca45760405160e560020a62461bcd02815260206004820152601460248201527f4e465420416c726561647920426f7567687421210000000000000000000000006044820152606401610c4f565b60008181526014602052604090205460ff161515600114611d0a5760405160e560020a62461bcd02815260206004820152601860248201527f4e46542072656d6f7665642066726f6d2053656c6c696e6700000000000000006044820152606401610c4f565b6000818152601460209081526040808320805460ff199081169091556016909252822080549091166001179055611d40826120e8565b6000838152600e60205260408120600501549192505080600103611e1c57600160a060020a03821660009081526009602090815260408083208054825181850281018501909352808352611dcf938893889390929091830182828015611dc557602002820191906000526020600020905b815481526020019060010190808311611db1575b5050505050614207565b336000908152600960209081526040808320805460018101825590845282842001889055600160a060020a03871683529091208251929350611e15929091840190614a54565b5050611f91565b80600203611ed957600160a060020a03821660009081526008602090815260408083208054825181850281018501909352808352611e93938893889390929091830182828015611dc55760200282019190600052602060002090815481526020019060010190808311611db1575050505050614207565b336000908152600860209081526040808320805460018101825590845282842001889055600160a060020a03871683529091208251929350611e15929091840190614a54565b600160a060020a0382166000908152600a602090815260408083208054825181850281018501909352808352611f48938893889390929091830182828015611dc55760200282019190600052602060002090815481526020019060010190808311611db1575050505050614207565b336000908152600a60209081526040808320805460018101825590845282842001889055600160a060020a03871683529091208251929350611f8e929091840190614a54565b50505b6000838152600f60205260408120805460019290611fb090849061563b565b909155506000905080805b601554811015612007578560158281548110611fd957611fd961554f565b906000526020600020015403611ff55780915060019250612007565b61200060018261563b565b9050611fbb565b508115612080576015805461201e9060019061553c565b8154811061202e5761202e61554f565b90600052602060002001546015828154811061204c5761204c61554f565b60009182526020909120015560158054806120695761206961580f565b600190038181906000526020600020016000905590555b5050505050565b600061209260065490565b905061209e828d612258565b6120b2818c8c8c8c8c8c8c8c8c6001612d11565b600160a060020a039091166000908152600760209081526040822080546001810182559083529120015550505050505050505050565b600081815260026020526040812054600160a060020a031680610a6e5760405160e560020a62461bcd02815260206004820152601860248201527f4552433732313a20696e76616c696420746f6b656e20494400000000000000006044820152606401610c4f565b600160a060020a0381166000908152600b602090815260409182902080548351818402810184019094528084526060939283018282801561103457602002820191906000526020600020905b81548152602001906001019080831161219c5750505050509050919050565b6000600160a060020a03821661223c5760405160e560020a62461bcd02815260206004820152602960248201527f4552433732313a2061646472657373207a65726f206973206e6f74206120766160448201527f6c6964206f776e657200000000000000000000000000000000000000000000006064820152608401610c4f565b50600160a060020a031660009081526003602052604090205490565b600160a060020a0382166122d75760405160e560020a62461bcd02815260206004820152602160248201527f4552433732313a206d696e74696e6720746f207468652030206164647265737360448201527f2e000000000000000000000000000000000000000000000000000000000000006064820152608401610c4f565b600c816040516122e79190615828565b9081526040519081900360200190205460ff161561231a5760405160e560020a62461bcd028152600401610c4f90615844565b600680546001810182556000919091527ff652222313e28459528d920b65115c16c04f3efc82aaedc97be59f3f377c0d3f0161235682826158ef565b506006546000906123699060019061553c565b905061237583826142cc565b60408051338152602081018390527f45704679a40d4b2ffe28aa7324f021775faaca4d40917fef2cdf38e53fd90a24910160405180910390a13360009081526012602090815260408083208054600181810183559185529290932090910183905551600c906123e5908590615828565b908152602001604051809103902060006101000a81548160ff0219169083151502179055506001600f6000838152602001908152602001600020600082825461242e919061563b565b9091555050505050565b6009602052816000526040600020818154811061245457600080fd5b90600052602060002001600091509150505481565b600160a060020a03821660009081526012602052604081208054915b8281101561260a57600e60008383815481106124a3576124a361554f565b6000918252602080832090910154835282019290925260400190206009015460ff161515600114801561250c575061250c600e60008484815481106124ea576124ea61554f565b9060005260206000200154815260200190815260200160002060080154421190565b156125f857815482906125219060019061553c565b815481106125315761253161554f565b906000526020600020015482828154811061254e5761254e61554f565b90600052602060002001819055508180548061256c5761256c61580f565b600190038181906000526020600020016000905590556040518060400160405280600c81526020017f45585049524544204954454d0000000000000000000000000000000000000000815250600e600083815260200190815260200160002060020190816125da91906158ef565b506000818152600e602052604090206003016125f685826158ef565b505b806126028161564e565b915050612485565b50600160a060020a0384166000908152601260205260409020815461208091908390614a9f565b606060018054610ae4906154e6565b60606000825167ffffffffffffffff81111561265e5761265e614b27565b60405190808252806020026020018201604052801561269757816020015b6126846149f4565b81526020019060019003908161267c5790505b50905060005b83518110156113f8576000818152600e602090815260409182902082516101408101909352805460ff161515835260018101805491928401916126df906154e6565b80601f016020809104026020016040519081016040528092919081815260200182805461270b906154e6565b80156127585780601f1061272d57610100808354040283529160200191612758565b820191906000526020600020905b81548152906001019060200180831161273b57829003601f168201915b50505050508152602001600282018054612771906154e6565b80601f016020809104026020016040519081016040528092919081815260200182805461279d906154e6565b80156127ea5780601f106127bf576101008083540402835291602001916127ea565b820191906000526020600020905b8154815290600101906020018083116127cd57829003601f168201915b50505050508152602001600382018054612803906154e6565b80601f016020809104026020016040519081016040528092919081815260200182805461282f906154e6565b801561287c5780601f106128515761010080835404028352916020019161287c565b820191906000526020600020905b81548152906001019060200180831161285f57829003601f168201915b50505050508152602001600482018054612895906154e6565b80601f01602080910402602001604051908101604052809291908181526020018280546128c1906154e6565b801561290e5780601f106128e35761010080835404028352916020019161290e565b820191906000526020600020905b8154815290600101906020018083116128f157829003601f168201915b505050918352505060058201546020820152600682015460408201526007820154600160a060020a031660608201526008820154608082015260099091015460ff16151560a090910152825183908390811061296c5761296c61554f565b602002602001018190525080806129829061564e565b91505061269d565b61299533838361447b565b5050565b600681815481106129a957600080fd5b9060005260206000200160009150905080546129c4906154e6565b80601f01602080910402602001604051908101604052809291908181526020018280546129f0906154e6565b8015612a3d5780601f10612a1257610100808354040283529160200191612a3d565b820191906000526020600020905b815481529060010190602001808311612a2057829003601f168201915b505050505081565b600160a060020a0382166000908152600960205260408120548103612a9f57600160a060020a03831660009081526009602052604081208054909190612a8d57612a8d61554f565b90600052602060002001549050612ae3565b600160a060020a03831660009081526009602052604090208054612ac59060019061553c565b81548110612ad557612ad561554f565b906000526020600020015490505b612aee833083614067565b600160a060020a0383166000908152600960205260409020805480612b1557612b1561580f565b600082815260208082206000199084018101839055909201909255600160a060020a03858116808452600b835260408085208054600180820183559187528587200187905582865260138552818620878752855294819020428155909401869055600d548451918252909116918101919091529081018290527f99039fcf0a98f484616c5196ee8b2ecfa971babf0b519848289ea4db381f85f79060600160405180910390a1505050565b60606000825167ffffffffffffffff811115612bde57612bde614b27565b604051908082528060200260200182016040528015612c2357816020015b6040805180820190915260008082526020820152815260200190600190039081612bfc5790505b50905060005b83518110156113f857600160a060020a038516600090815260136020908152604080832084845290915290208054600190910154838381518110612c6f57612c6f61554f565b6020026020010151600001848481518110612c8c57612c8c61554f565b60209081029190910181015101919091525280612ca88161564e565b915050612c29565b6000612cbb60065490565b9050612cc7828d612258565b612cdb818c8c8c8c8c8c8c8c8c6001612d11565b600160a060020a039091166000908152600860209081526040822080546001810182559083529120015550505050505050505050565b60008b8152600e60205260409020805460ff19168b1515178155600101612d388a826158ef565b5060008b8152600e60205260409020600201612d5489826158ef565b5060008b8152600e60205260409020600301612d7088826158ef565b5060008b8152600e60205260409020600401612d8c87826158ef565b5060009a8b52600e6020526040909a20600581019490945542600685015560078401805473ffffffffffffffffffffffffffffffffffffffff1916600160a060020a039390931692909217909155600883015550600901805460ff1916961515969096179095555050505050565b612e043383613fe8565b612e235760405160e560020a62461bcd028152600401610c4f90615667565b612e2f8484848461454c565b50505050565b81811115612eae5760405160e560020a62461bcd02815260206004820152603160248201527f4d757374204e6f742065786365656420746865204361702070726f766964656460448201527f206279207468652073656c6c65722e2e2e0000000000000000000000000000006064820152608401610c4f565b60005b82811015612e2f57612ec333856142cc565b612ece60018261563b565b9050612eb1565b6008602052816000526040600020818154811061245457600080fd5b600e602052600090815260409020805460018201805460ff9092169291612f17906154e6565b80601f0160208091040260200160405190810160405280929190818152602001828054612f43906154e6565b8015612f905780601f10612f6557610100808354040283529160200191612f90565b820191906000526020600020905b815481529060010190602001808311612f7357829003601f168201915b505050505090806002018054612fa5906154e6565b80601f0160208091040260200160405190810160405280929190818152602001828054612fd1906154e6565b801561301e5780601f10612ff35761010080835404028352916020019161301e565b820191906000526020600020905b81548152906001019060200180831161300157829003601f168201915b505050505090806003018054613033906154e6565b80601f016020809104026020016040519081016040528092919081815260200182805461305f906154e6565b80156130ac5780601f10613081576101008083540402835291602001916130ac565b820191906000526020600020905b81548152906001019060200180831161308f57829003601f168201915b5050505050908060040180546130c1906154e6565b80601f01602080910402602001604051908101604052809291908181526020018280546130ed906154e6565b801561313a5780601f1061310f5761010080835404028352916020019161313a565b820191906000526020600020905b81548152906001019060200180831161311d57829003601f168201915b505050600584015460068501546007860154600887015460099097015495969295919450600160a060020a0316925060ff168a565b60608061317b83610b67565b91509150915091565b600d54600160a060020a031633146132075760405160e560020a62461bcd02815260206004820152602860248201527f4e6f7420617574686f726973656420746f20616464207468652055524c20746f60448201527f20746865204e46540000000000000000000000000000000000000000000000006064820152608401610c4f565b6000828152600e60205260409020600301610cf382826158ef565b80801561329b57600c600661323860018461553c565b815481106132485761324861554f565b9060005260206000200160405161325f9190615568565b9081526040519081900360200190205460ff1615156001146132965760405160e560020a62461bcd028152600401610c4f906155de565b6132fe565b600c600682815481106132b0576132b061554f565b906000526020600020016040516132c79190615568565b9081526040519081900360200190205460ff1615156001146132fe5760405160e560020a62461bcd028152600401610c4f906155de565b60008061330a3361183c565b905060005b815181101561334f578382828151811061332b5761332b61554f565b60200260200101510361333d57600192505b61334860018261563b565b905061330f565b506001821515146133a55760405160e560020a62461bcd02815260206004820152601c60248201527f4f776e657220646f65736e2774206f776e732074686520746f6b656e000000006044820152606401610c4f565b60008481526016602052604090205460ff161561342d5760405160e560020a62461bcd02815260206004820152603260248201527f43616e6e6f742072656d6f76652066726f6d2053656c6c696e672c204e46542060448201527f697320616c726561647920736f6c642e2e2e00000000000000000000000000006064820152608401610c4f565b60008481526014602052604090205460ff1615156001146134935760405160e560020a62461bcd02815260206004820181905260248201527f4e4654206973206e6f74206c697374656420666f722073656c6c696e672e2e2e6044820152606401610c4f565b6000848152601460205260408120805460ff19169055805b6015548110156134f35785601582815481106134c9576134c961554f565b9060005260206000200154036134e1578091506134f3565b6134ec60018261563b565b90506134ab565b506015546135039060019061553c565b8114612080576015805461201e9060019061553c565b6000818152600e6020526040812060058101546001820180546060948594859485949293600283019260038101926004909101918590613558906154e6565b80601f0160208091040260200160405190810160405280929190818152602001828054613584906154e6565b80156135d15780601f106135a6576101008083540402835291602001916135d1565b820191906000526020600020905b8154815290600101906020018083116135b457829003601f168201915b505050505094508380546135e4906154e6565b80601f0160208091040260200160405190810160405280929190818152602001828054613610906154e6565b801561365d5780601f106136325761010080835404028352916020019161365d565b820191906000526020600020905b81548152906001019060200180831161364057829003601f168201915b50505050509350828054613670906154e6565b80601f016020809104026020016040519081016040528092919081815260200182805461369c906154e6565b80156136e95780601f106136be576101008083540402835291602001916136e9565b820191906000526020600020905b8154815290600101906020018083116136cc57829003601f168201915b505050505092508180546136fc906154e6565b80601f0160208091040260200160405190810160405280929190818152602001828054613728906154e6565b80156137755780601f1061374a57610100808354040283529160200191613775565b820191906000526020600020905b81548152906001019060200180831161375857829003601f168201915b505050505091509450945094509450945091939590929450565b600061379a82613e34565b5192915050565b60606137ac82613f03565b60006137c360408051602081019091526000815290565b905060008151116137e3576040518060200160405280600081525061380e565b806137ed84614582565b6040516020016137fe9291906159b5565b6040516020818303038152906040525b9392505050565b600c816040516138259190615828565b9081526040519081900360200190205460ff16156138585760405160e560020a62461bcd028152600401610c4f90615844565b600680546001810182556000919091527ff652222313e28459528d920b65115c16c04f3efc82aaedc97be59f3f377c0d3f0161389482826158ef565b506006546000906138a79060019061553c565b90506138b333826142cc565b60408051338152602081018390527f45704679a40d4b2ffe28aa7324f021775faaca4d40917fef2cdf38e53fd90a24910160405180910390a133600090815260126020908152604080832080546001818101835591855283852001859055848452600f909252822080549192909161392c90849061563b565b925050819055506001600c836040516139459190615828565b908152604051908190036020019020805491151560ff199092169190911790555050565b600160a060020a038116600090815260126020908152604091829020805483518184028101840190945280845260609392830182828015611034576020028201919060005260206000209081548152602001906001019080831161219c5750505050509050919050565b6007602052816000526040600020818154811061245457600080fd5b600b602052816000526040600020818154811061245457600080fd5b606080600060158054905067ffffffffffffffff811115613a2e57613a2e614b27565b604051908082528060200260200182016040528015613a6757816020015b613a546149f4565b815260200190600190039081613a4c5790505b5060155490915060009067ffffffffffffffff811115613a8957613a89614b27565b604051908082528060200260200182016040528015613ab2578160200160208202803683370190505b50905060005b601554811015613e0e57600e600060158381548110613ad957613ad961554f565b90600052602060002001548152602001908152602001600020604051806101400160405290816000820160009054906101000a900460ff16151515158152602001600182018054613b29906154e6565b80601f0160208091040260200160405190810160405280929190818152602001828054613b55906154e6565b8015613ba25780601f10613b7757610100808354040283529160200191613ba2565b820191906000526020600020905b815481529060010190602001808311613b8557829003601f168201915b50505050508152602001600282018054613bbb906154e6565b80601f0160208091040260200160405190810160405280929190818152602001828054613be7906154e6565b8015613c345780601f10613c0957610100808354040283529160200191613c34565b820191906000526020600020905b815481529060010190602001808311613c1757829003601f168201915b50505050508152602001600382018054613c4d906154e6565b80601f0160208091040260200160405190810160405280929190818152602001828054613c79906154e6565b8015613cc65780601f10613c9b57610100808354040283529160200191613cc6565b820191906000526020600020905b815481529060010190602001808311613ca957829003601f168201915b50505050508152602001600482018054613cdf906154e6565b80601f0160208091040260200160405190810160405280929190818152602001828054613d0b906154e6565b8015613d585780601f10613d2d57610100808354040283529160200191613d58565b820191906000526020600020905b815481529060010190602001808311613d3b57829003601f168201915b505050918352505060058201546020820152600682015460408201526007820154600160a060020a031660608201526008820154608082015260099091015460ff16151560a0909101528351849083908110613db657613db661554f565b602002602001018190525060158181548110613dd457613dd461554f565b9060005260206000200154828281518110613df157613df161554f565b6020908102919091010152613e0760018261563b565b9050613ab8565b5090939092509050565b600a602052816000526040600020818154811061245457600080fd5b6060610a6e8261183c565b6000828152600e6020526040812060050154600403613ec95760405160e560020a62461bcd02815260206004820152602660248201527f43616e6e6f74204275726e2041204e6f6e205472616e7366657261626c65205460448201527f6f6b656e212100000000000000000000000000000000000000000000000000006064820152608401610c4f565b81600160a060020a0316613edc846120e8565b600160a060020a031603613efb57613ef383614622565b506001610a6e565b506000610a6e565b600081815260026020526040902054600160a060020a0316613f6a5760405160e560020a62461bcd02815260206004820152601860248201527f4552433732313a20696e76616c696420746f6b656e20494400000000000000006044820152606401610c4f565b50565b6000818152600460205260409020805473ffffffffffffffffffffffffffffffffffffffff1916600160a060020a0384169081179091558190613faf826120e8565b600160a060020a03167f8c5be1e5ebec7d5bd14f71427d1e84f3dd0314c0f7b2291e5b200ac8c7c3b92560405160405180910390a45050565b600080613ff4836120e8565b905080600160a060020a031684600160a060020a0316148061403b5750600160a060020a0380821660009081526005602090815260408083209388168352929052205460ff165b8061405f575083600160a060020a031661405484610b95565b600160a060020a0316145b949350505050565b82600160a060020a031661407a826120e8565b600160a060020a0316146140a35760405160e560020a62461bcd028152600401610c4f906159e4565b600160a060020a0382166141215760405160e560020a62461bcd028152602060048201526024808201527f4552433732313a207472616e7366657220746f20746865207a65726f2061646460448201527f72657373000000000000000000000000000000000000000000000000000000006064820152608401610c4f565b61412e83838360016146d2565b82600160a060020a0316614141826120e8565b600160a060020a03161461416a5760405160e560020a62461bcd028152600401610c4f906159e4565b6000818152600460209081526040808320805473ffffffffffffffffffffffffffffffffffffffff19908116909155600160a060020a0387811680865260038552838620805460001901905590871680865283862080546001019055868652600290945282852080549092168417909155905184937fddf252ad1be2c89b69c2b068fc378daa952ba7f163c4a11628f55a4df523b3ef91a4505050565b60606000805b835181101561425057858482815181106142295761422961554f565b60200260200101510361423e57809150614250565b61424960018261563b565b905061420d565b506001835161425f919061553c565b81146142ab578260018451614274919061553c565b815181106142845761428461554f565b602002602001015183828151811061429e5761429e61554f565b6020026020010181815250505b6142c283600185516142bd919061553c565b61475a565b5091949350505050565b600160a060020a0382166143255760405160e560020a62461bcd02815260206004820181905260248201527f4552433732313a206d696e7420746f20746865207a65726f20616464726573736044820152606401610c4f565b600081815260026020526040902054600160a060020a03161561438d5760405160e560020a62461bcd02815260206004820152601c60248201527f4552433732313a20746f6b656e20616c7265616479206d696e746564000000006044820152606401610c4f565b61439b6000838360016146d2565b600081815260026020526040902054600160a060020a0316156144035760405160e560020a62461bcd02815260206004820152601c60248201527f4552433732313a20746f6b656e20616c7265616479206d696e746564000000006044820152606401610c4f565b600160a060020a0382166000818152600360209081526040808320805460010190558483526002909152808220805473ffffffffffffffffffffffffffffffffffffffff19168417905551839291907fddf252ad1be2c89b69c2b068fc378daa952ba7f163c4a11628f55a4df523b3ef908290a45050565b81600160a060020a031683600160a060020a0316036144df5760405160e560020a62461bcd02815260206004820152601960248201527f4552433732313a20617070726f766520746f2063616c6c6572000000000000006044820152606401610c4f565b600160a060020a03838116600081815260056020908152604080832094871680845294825291829020805460ff191686151590811790915591519182527f17307eab39ab6107e8899845ad3d59bd9653f200f220920489ca2b5937696c31910160405180910390a3505050565b614557848484614067565b614563848484846147dc565b612e2f5760405160e560020a62461bcd028152600401610c4f90615a41565b6060600061458f83614912565b600101905060008167ffffffffffffffff8111156145af576145af614b27565b6040519080825280601f01601f1916602001820160405280156145d9576020820181803683370190505b5090508181016020015b600019017f3031323334353637383961626364656600000000000000000000000000000000600a86061a8153600a85049450846145e357509392505050565b600061462d826120e8565b905061463d8160008460016146d2565b614646826120e8565b6000838152600460209081526040808320805473ffffffffffffffffffffffffffffffffffffffff19908116909155600160a060020a0385168085526003845282852080546000190190558785526002909352818420805490911690555192935084927fddf252ad1be2c89b69c2b068fc378daa952ba7f163c4a11628f55a4df523b3ef908390a45050565b6001811115612e2f57600160a060020a0384161561471857600160a060020a0384166000908152600360205260408120805483929061471290849061553c565b90915550505b600160a060020a03831615612e2f57600160a060020a0383166000908152600360205260408120805483929061474f90849061563b565b909155505050505050565b606082518211156147d65760405160e560020a62461bcd02815260206004820152603060248201527f41727261793a206c656e67746820616674657220736872696e6b696e67206c6160448201527f72676572207468616e206265666f7265000000000000000000000000000000006064820152608401610c4f565b50815290565b6000600160a060020a0384163b15614907576040517f150b7a02000000000000000000000000000000000000000000000000000000008152600160a060020a0385169063150b7a0290614839903390899088908890600401615a9e565b6020604051808303816000875af1925050508015614874575060408051601f3d908101601f1916820190925261487191810190615ada565b60015b6148d4573d8080156148a2576040519150601f19603f3d011682016040523d82523d6000602084013e6148a7565b606091505b5080516000036148cc5760405160e560020a62461bcd028152600401610c4f90615a41565b805181602001fd5b600160e060020a0319167f150b7a020000000000000000000000000000000000000000000000000000000014905061405f565b506001949350505050565b6000807a184f03e93ff9f4daa797ed6e38ed64bf6a1f010000000000000000831061495b577a184f03e93ff9f4daa797ed6e38ed64bf6a1f010000000000000000830492506040015b6d04ee2d6d415b85acef81000000008310614987576d04ee2d6d415b85acef8100000000830492506020015b662386f26fc1000083106149a557662386f26fc10000830492506010015b6305f5e10083106149bd576305f5e100830492506008015b61271083106149d157612710830492506004015b606483106149e3576064830492506002015b600a8310610a6e5760010192915050565b6040518061014001604052806000151581526020016060815260200160608152602001606081526020016060815260200160008152602001600081526020016000600160a060020a03168152602001600081526020016000151581525090565b828054828255906000526020600020908101928215614a8f579160200282015b82811115614a8f578251825591602001919060010190614a74565b50614a9b929150614adf565b5090565b828054828255906000526020600020908101928215614a8f5760005260206000209182015b82811115614a8f578254825591600101919060010190614ac4565b5b80821115614a9b5760008155600101614ae0565b600160e060020a031981168114613f6a57600080fd5b600060208284031215614b1c57600080fd5b813561380e81614af4565b60e060020a634e487b7102600052604160045260246000fd5b604051601f8201601f1916810167ffffffffffffffff81118282101715614b6957614b69614b27565b604052919050565b600067ffffffffffffffff831115614b8b57614b8b614b27565b614b9e601f8401601f1916602001614b40565b9050828152838383011115614bb257600080fd5b828260208301376000602084830101529392505050565b600082601f830112614bda57600080fd5b61380e83833560208501614b71565b80358015158114614bf957600080fd5b919050565b8035600160a060020a0381168114614bf957600080fd5b60008060008060008060008060008060006101608c8e031215614c3757600080fd5b67ffffffffffffffff808d351115614c4e57600080fd5b614c5b8e8e358f01614bc9565b9b50614c6960208e01614be9565b9a508060408e01351115614c7c57600080fd5b614c8c8e60408f01358f01614bc9565b99508060608e01351115614c9f57600080fd5b614caf8e60608f01358f01614bc9565b98508060808e01351115614cc257600080fd5b614cd28e60808f01358f01614bc9565b97508060a08e01351115614ce557600080fd5b50614cf68d60a08e01358e01614bc9565b955060c08c0135945060e08c01359350614d136101008d01614bfe565b92506101208c01359150614d2a6101408d01614bfe565b90509295989b509295989b9093969950565b60005b83811015614d57578181015183820152602001614d3f565b50506000910152565b60008151808452614d78816020860160208601614d3c565b601f01601f19169290920160200192915050565b60208152600061380e6020830184614d60565b600060208284031215614db157600080fd5b61380e82614bfe565b600081518084526020808501808196508284028101915082860160005b85811015614eb35782840389528151805115158552610140868201518188880152614e0482880182614d60565b91505060408083015187830382890152614e1e8382614d60565b9250505060608083015187830382890152614e398382614d60565b9250505060808083015187830382890152614e548382614d60565b9250505060a080830151818801525060c080830151818801525060e080830151614e8882890182600160a060020a03169052565b5050610100828101519087015261012091820151151591909501529784019790840190600101614dd7565b5091979650505050505050565b600081518084526020808501945080840160005b83811015614efb578151805188528301518388015260409096019590820190600101614ed4565b509495945050505050565b604081526000614f196040830185614dba565b8281036020840152614f2b8185614ec0565b95945050505050565b600060208284031215614f4657600080fd5b5035919050565b60008060408385031215614f6057600080fd5b614f6983614bfe565b946020939093013593505050565b60208152600061380e6020830184614dba565b600080600060608486031215614f9f57600080fd5b614fa884614bfe565b9250614fb660208501614bfe565b9150604084013590509250925092565b600081518084526020808501945080840160005b83811015614efb57815187529582019590820190600101614fda565b60208152600061380e6020830184614fc6565b6000806040838503121561501c57600080fd5b61502583614bfe565b9150602083013567ffffffffffffffff81111561504157600080fd5b61504d85828601614bc9565b9150509250929050565b6000806040838503121561506a57600080fd5b61507383614bfe565b915060208084013567ffffffffffffffff8082111561509157600080fd5b818601915086601f8301126150a557600080fd5b8135818111156150b7576150b7614b27565b83810291506150c7848301614b40565b81815291830184019184810190898411156150e157600080fd5b938501935b838510156150ff578435825293850193908501906150e6565b8096505050505050509250929050565b6000806040838503121561512257600080fd5b61512b83614bfe565b915061513960208401614be9565b90509250929050565b6000806040838503121561515557600080fd5b50508035926020909101359150565b60208152600061380e6020830184614ec0565b60008060008060008060008060008060006101608c8e03121561519957600080fd5b8b359a506151a960208d01614be9565b995067ffffffffffffffff8060408e013511156151c557600080fd5b6151d58e60408f01358f01614bc9565b99508060608e013511156151e857600080fd5b6151f88e60608f01358f01614bc9565b98508060808e0135111561520b57600080fd5b61521b8e60808f01358f01614bc9565b97508060a08e0135111561522e57600080fd5b5061523f8d60a08e01358e01614bc9565b955060c08c0135945060e08c0135935061525c6101008d01614bfe565b92506101208c01359150614d2a6101408d01614be9565b6000806000806080858703121561528957600080fd5b61529285614bfe565b93506152a060208601614bfe565b925060408501359150606085013567ffffffffffffffff8111156152c357600080fd5b8501601f810187136152d457600080fd5b6152e387823560208401614b71565b91505092959194509250565b60008060006060848603121561530457600080fd5b505081359360208301359350604090920135919050565b60006101408c151583528060208401526153378184018d614d60565b9050828103604084015261534b818c614d60565b9050828103606084015261535f818b614d60565b90508281036080840152615373818a614d60565b60a0840198909852505060c0810194909452600160a060020a039290921660e084015261010083015215156101209091015295945050505050565b600080604083850312156153c157600080fd5b82359150602083013567ffffffffffffffff81111561504157600080fd5b60a0815260006153f260a0830188614d60565b82810360208401526154048188614d60565b905082810360408401526154188187614d60565b9050828103606084015261542c8186614d60565b9150508260808301529695505050505050565b60006020828403121561545157600080fd5b813567ffffffffffffffff81111561546857600080fd5b61405f84828501614bc9565b6000806040838503121561548757600080fd5b61549083614bfe565b915061513960208401614bfe565b6040815260006154b16040830185614dba565b8281036020840152614f2b8185614fc6565b600080604083850312156154d657600080fd5b8235915061513960208401614bfe565b6002810460018216806154fa57607f821691505b60208210810361551d5760e060020a634e487b7102600052602260045260246000fd5b50919050565b60e060020a634e487b7102600052601160045260246000fd5b81810381811115610a6e57610a6e615523565b60e060020a634e487b7102600052603260045260246000fd5b6000808354615576816154e6565b6001828116801561558e57600181146155a3576155d2565b60ff19841687528215158302870194506155d2565b8760005260208060002060005b858110156155c95781548a8201529084019082016155b0565b50505082870194505b50929695505050505050565b60208082526027908201527f4e465420446f65736e2774206578697374732e2e2e2e20437265617465204e4660408201527f5420466972737400000000000000000000000000000000000000000000000000606082015260800190565b80820180821115610a6e57610a6e615523565b60006001820161566057615660615523565b5060010190565b6020808252602d908201527f4552433732313a2063616c6c6572206973206e6f7420746f6b656e206f776e6560408201527f72206f7220617070726f76656400000000000000000000000000000000000000606082015260800190565b600081546156d1816154e6565b8085526020600183811680156156ee576001811461570757615735565b60ff198516888401528315158302880183019550615735565b866000528260002060005b8581101561572d5781548a8201860152908301908401615712565b890184019650505b505050505092915050565b60006101608083526157548184018f6156c4565b90508c151560208401528281036040840152615770818d6156c4565b90508281036060840152615784818c6156c4565b90508281036080840152615798818b6156c4565b905082810360a08401526157ac818a6156c4565b9150508660c08301528560e0830152600160a060020a038516610100830152836101208301526157e8610140830184600160a060020a03169052565b9c9b505050505050505050505050565b60008161580757615807615523565b506000190190565b60e060020a634e487b7102600052603160045260246000fd5b6000825161583a818460208701614d3c565b9190910192915050565b60208082526025908201527f44616e6720697421212c2049204861766520616c7265616479206265656e206d60408201527f696e746564000000000000000000000000000000000000000000000000000000606082015260800190565b601f821115610cf3576000818152602081206020601f860104810160208610156158c85750805b6020601f860104820191505b818110156158e7578281556001016158d4565b505050505050565b815167ffffffffffffffff81111561590957615909614b27565b61591d8161591784546154e6565b846158a1565b602080601f831160018114615956576000841561593a5750858301515b60028086026008870290910a60001904198216178655506158e7565b600085815260208120601f198616915b8281101561598557888601518255948401946001909101908401615966565b50858210156159a557878501516008601f88160260020a60001904191681555b5050505050600202600101905550565b600083516159c7818460208801614d3c565b8351908301906159db818360208801614d3c565b01949350505050565b60208082526025908201527f4552433732313a207472616e736665722066726f6d20696e636f72726563742060408201527f6f776e6572000000000000000000000000000000000000000000000000000000606082015260800190565b60208082526032908201527f4552433732313a207472616e7366657220746f206e6f6e20455243373231526560408201527f63656976657220696d706c656d656e7465720000000000000000000000000000606082015260800190565b6000600160a060020a03808716835280861660208401525083604083015260806060830152615ad06080830184614d60565b9695505050505050565b600060208284031215615aec57600080fd5b815161380e81614af456fea2646970667358221220ebe8aacd66e91da74619350919e229f51c2273fef0b43f2dba700c51c1e1a8be64736f6c63430008140033",
  "immutableReferences": {},
  "source": "// SPDX-License-Identifier: MIT\r\n// pragma solidity >=0.4.22 <0.9.0;\r\n// pragma solidity ^0.7.0;\r\n// import \"./ERC721.sol\";\r\n\r\n// contract checkRefurbished is ERC721 {\r\n//     modifier refurbishedCheck(uint256 _tokenId) {\r\n//         require(\r\n//             previousOwners[_tokenId] < 1,\r\n//             \"Yes this is a refurbished Item, It has been sold more than once..\"\r\n//         );\r\n//         _;\r\n//     }\r\n\r\n//     // function additems(uint _tokenId ) public {\r\n//     //     previousOwners[_tokenId]+=1;\r\n//     // }\r\n\r\n//     //create a seperate mapping in NFT, which is named as Previous Owners.... as uint=>uint..where 1st uint is token id and second one is how many owners it had...\r\n//     function check(uint256 _tokenId)\r\n//         public\r\n//         view\r\n//         refurbishedCheck(_tokenId)\r\n//         returns (bool)\r\n//     {\r\n//         return false; //meaning that this is not a refurbished item.\r\n//     }\r\n// }\r\n\r\npragma solidity >=0.4.22 <0.9.0;\r\nimport \"./NFT.sol\";\r\n\r\ncontract checkRefurbished is NFT {\r\n    //custom event and emit...\r\n    function checkRefurbishedItem(uint256 tokenId) public view returns (bool) {\r\n        if (NFTinfo[tokenId].minted == true && previousOwners[tokenId] >= 1) {\r\n            return true; //true means that the item is refurbished\r\n        }\r\n        return false; //false means it is not refurbished and has not been minted yet....\r\n    }\r\n}\r\n",
  "sourcePath": "C:\\Users\\Neeraj\\Desktop\\Sterling Store\\src\\contracts\\CheckRefurbished.sol",
  "compiler": {
    "name": "solc",
    "version": "0.8.20+commit.a1b79de6.Emscripten.clang"
  },
  "schemaVersion": "3.4.11",
  "updatedAt": "2023-05-21T13:19:53.029Z",
  "devdoc": {
    "events": {
      "Approval(address,address,uint256)": {
        "details": "Emitted when `owner` enables `approved` to manage the `tokenId` token."
      },
      "ApprovalForAll(address,address,bool)": {
        "details": "Emitted when `owner` enables or disables (`approved`) `operator` to manage all of its assets."
      },
      "Transfer(address,address,uint256)": {
        "details": "Emitted when `tokenId` token is transferred from `from` to `to`."
      }
    },
    "kind": "dev",
    "methods": {
      "approve(address,uint256)": {
        "details": "See {IERC721-approve}."
      },
      "balanceOf(address)": {
        "details": "See {IERC721-balanceOf}."
      },
      "getApproved(uint256)": {
        "details": "See {IERC721-getApproved}."
      },
      "isApprovedForAll(address,address)": {
        "details": "See {IERC721-isApprovedForAll}."
      },
      "name()": {
        "details": "See {IERC721Metadata-name}."
      },
      "ownerOf(uint256)": {
        "details": "See {IERC721-ownerOf}."
      },
      "safeTransferFrom(address,address,uint256)": {
        "details": "See {IERC721-safeTransferFrom}."
      },
      "safeTransferFrom(address,address,uint256,bytes)": {
        "details": "See {IERC721-safeTransferFrom}."
      },
      "setApprovalForAll(address,bool)": {
        "details": "See {IERC721-setApprovalForAll}."
      },
      "supportsInterface(bytes4)": {
        "details": "See {IERC165-supportsInterface}."
      },
      "symbol()": {
        "details": "See {IERC721Metadata-symbol}."
      },
      "tokenURI(uint256)": {
        "details": "See {IERC721Metadata-tokenURI}."
      },
      "transferFrom(address,address,uint256)": {
        "details": "See {IERC721-transferFrom}."
      }
    },
    "version": 1
  },
  "userdoc": {
    "kind": "user",
    "methods": {},
    "version": 1
  }
}