{
  "contractName": "checkRefurbished",
  "abi": [
    {
      "anonymous": false,
      "inputs": [
        {
          "indexed": true,
          "internalType": "address",
          "name": "_owner",
          "type": "address"
        },
        {
          "indexed": true,
          "internalType": "address",
          "name": "_approved",
          "type": "address"
        },
        {
          "indexed": true,
          "internalType": "uint256",
          "name": "_tokenId",
          "type": "uint256"
        }
      ],
      "name": "Approval",
      "type": "event"
    },
    {
      "anonymous": false,
      "inputs": [
        {
          "indexed": true,
          "internalType": "address",
          "name": "_from",
          "type": "address"
        },
        {
          "indexed": true,
          "internalType": "address",
          "name": "_to",
          "type": "address"
        },
        {
          "indexed": true,
          "internalType": "uint256",
          "name": "_tokenId",
          "type": "uint256"
        }
      ],
      "name": "Transfer",
      "type": "event"
    },
    {
      "inputs": [
        {
          "internalType": "uint256",
          "name": "",
          "type": "uint256"
        }
      ],
      "name": "NFTs",
      "outputs": [
        {
          "internalType": "string",
          "name": "",
          "type": "string"
        }
      ],
      "stateMutability": "view",
      "type": "function",
      "constant": true
    },
    {
      "inputs": [
        {
          "internalType": "address",
          "name": "_to",
          "type": "address"
        },
        {
          "internalType": "uint256",
          "name": "_tokenId",
          "type": "uint256"
        }
      ],
      "name": "approve",
      "outputs": [],
      "stateMutability": "nonpayable",
      "type": "function"
    },
    {
      "inputs": [
        {
          "internalType": "address",
          "name": "_owner",
          "type": "address"
        }
      ],
      "name": "balanceOf",
      "outputs": [
        {
          "internalType": "uint256",
          "name": "",
          "type": "uint256"
        }
      ],
      "stateMutability": "view",
      "type": "function",
      "constant": true
    },
    {
      "inputs": [
        {
          "internalType": "uint256",
          "name": "tokenId",
          "type": "uint256"
        },
        {
          "internalType": "uint256",
          "name": "_NumberOfItems",
          "type": "uint256"
        },
        {
          "internalType": "uint256",
          "name": "_cap",
          "type": "uint256"
        }
      ],
      "name": "buyBulk",
      "outputs": [],
      "stateMutability": "nonpayable",
      "type": "function"
    },
    {
      "inputs": [
        {
          "internalType": "string",
          "name": "_nft",
          "type": "string"
        },
        {
          "internalType": "bool",
          "name": "_minted",
          "type": "bool"
        },
        {
          "internalType": "string",
          "name": "_name",
          "type": "string"
        },
        {
          "internalType": "string",
          "name": "_description",
          "type": "string"
        },
        {
          "internalType": "string",
          "name": "_url",
          "type": "string"
        },
        {
          "internalType": "string",
          "name": "_trxnHash",
          "type": "string"
        },
        {
          "internalType": "uint256",
          "name": "_nftType",
          "type": "uint256"
        },
        {
          "internalType": "string",
          "name": "_boughtOn",
          "type": "string"
        },
        {
          "internalType": "address",
          "name": "_seller",
          "type": "address"
        },
        {
          "internalType": "string",
          "name": "_validTill",
          "type": "string"
        }
      ],
      "name": "mint",
      "outputs": [],
      "stateMutability": "nonpayable",
      "type": "function"
    },
    {
      "inputs": [
        {
          "internalType": "address",
          "name": "to",
          "type": "address"
        },
        {
          "internalType": "string",
          "name": "_nft",
          "type": "string"
        },
        {
          "internalType": "bool",
          "name": "_minted",
          "type": "bool"
        },
        {
          "internalType": "string",
          "name": "_name",
          "type": "string"
        },
        {
          "internalType": "string",
          "name": "_description",
          "type": "string"
        },
        {
          "internalType": "string",
          "name": "_url",
          "type": "string"
        },
        {
          "internalType": "string",
          "name": "_trxnHash",
          "type": "string"
        },
        {
          "internalType": "uint256",
          "name": "_nftType",
          "type": "uint256"
        },
        {
          "internalType": "string",
          "name": "_boughtOn",
          "type": "string"
        },
        {
          "internalType": "address",
          "name": "_seller",
          "type": "address"
        },
        {
          "internalType": "string",
          "name": "_validTill",
          "type": "string"
        }
      ],
      "name": "mintToOthers",
      "outputs": [],
      "stateMutability": "nonpayable",
      "type": "function"
    },
    {
      "inputs": [],
      "name": "name",
      "outputs": [
        {
          "internalType": "string",
          "name": "",
          "type": "string"
        }
      ],
      "stateMutability": "view",
      "type": "function",
      "constant": true
    },
    {
      "inputs": [],
      "name": "owner",
      "outputs": [
        {
          "internalType": "address",
          "name": "",
          "type": "address"
        }
      ],
      "stateMutability": "view",
      "type": "function",
      "constant": true
    },
    {
      "inputs": [
        {
          "internalType": "uint256",
          "name": "_tokenId",
          "type": "uint256"
        }
      ],
      "name": "ownerOf",
      "outputs": [
        {
          "internalType": "address",
          "name": "",
          "type": "address"
        }
      ],
      "stateMutability": "view",
      "type": "function",
      "constant": true
    },
    {
      "inputs": [
        {
          "internalType": "uint256",
          "name": "tokenId",
          "type": "uint256"
        },
        {
          "internalType": "string",
          "name": "_nftURL",
          "type": "string"
        }
      ],
      "name": "setURL",
      "outputs": [],
      "stateMutability": "nonpayable",
      "type": "function"
    },
    {
      "inputs": [
        {
          "internalType": "bytes4",
          "name": "interfaceID",
          "type": "bytes4"
        }
      ],
      "name": "supportsInterface",
      "outputs": [
        {
          "internalType": "bool",
          "name": "",
          "type": "bool"
        }
      ],
      "stateMutability": "view",
      "type": "function",
      "constant": true
    },
    {
      "inputs": [],
      "name": "symbol",
      "outputs": [
        {
          "internalType": "string",
          "name": "",
          "type": "string"
        }
      ],
      "stateMutability": "view",
      "type": "function",
      "constant": true
    },
    {
      "inputs": [
        {
          "internalType": "uint256",
          "name": "_index",
          "type": "uint256"
        }
      ],
      "name": "tokenByIndex",
      "outputs": [
        {
          "internalType": "uint256",
          "name": "",
          "type": "uint256"
        }
      ],
      "stateMutability": "view",
      "type": "function",
      "constant": true
    },
    {
      "inputs": [
        {
          "internalType": "address",
          "name": "_owner",
          "type": "address"
        },
        {
          "internalType": "uint256",
          "name": "_index",
          "type": "uint256"
        }
      ],
      "name": "tokenOfOwnerByIndex",
      "outputs": [
        {
          "internalType": "uint256",
          "name": "",
          "type": "uint256"
        }
      ],
      "stateMutability": "view",
      "type": "function",
      "constant": true
    },
    {
      "inputs": [],
      "name": "totalSupply",
      "outputs": [
        {
          "internalType": "uint256",
          "name": "",
          "type": "uint256"
        }
      ],
      "stateMutability": "view",
      "type": "function",
      "constant": true
    },
    {
      "inputs": [
        {
          "internalType": "address",
          "name": "_from",
          "type": "address"
        },
        {
          "internalType": "address",
          "name": "_to",
          "type": "address"
        },
        {
          "internalType": "uint256",
          "name": "_tokenId",
          "type": "uint256"
        }
      ],
      "name": "transferFrom",
      "outputs": [],
      "stateMutability": "nonpayable",
      "type": "function"
    },
    {
      "inputs": [
        {
          "internalType": "uint256",
          "name": "tokenId",
          "type": "uint256"
        }
      ],
      "name": "checkRefurbishedItem",
      "outputs": [
        {
          "internalType": "bool",
          "name": "",
          "type": "bool"
        }
      ],
      "stateMutability": "view",
      "type": "function",
      "constant": true
    }
  ],
  "bytecode": "0x60806040523480156200001157600080fd5b506040518060400160405280600d81526020017f537465726c696e6753746f7265000000000000000000000000000000000000008152506040518060400160405280600b81526020017f537465726c696e674e46540000000000000000000000000000000000000000008152508181620000ba7f01ffc9a7a5cef8baa21ed3c5c0d7e23accb804b619e9333b597f47a0d84076e262000281640100000000026401000000009004565b620001167f13b182f4c0e5b2efbac0efe6cf6d756c8b89f4b79c5707a043ed9ea740574ee97f7feaf19471f34a12a7eaf32d5f3090aa2260ea8624dc8a138e74e0bf0f6230761862000281640100000000026401000000009004565b8160019081620001279190620005f4565b508060029081620001399190620005f4565b505050620001ba7f22c82707ba960a14c7592ffb6b8cfaa073fed0048a84cc7fa41f6b5bd8e7f2e47f3a6eb71757dfc6e784c1459d26270140c2c147d95ca985c80026fc5301c3eca17f8a7e378434598edc36d108689a030cbc9d7d465de4f74c71bae1028eed6a881b181862000281640100000000026401000000009004565b620002387f8230223f691b981717299fae9549350a0d894555723531f02108b1f522c1a7977f6da5e1284143cdd2d15038a59bde3be031250f00291d64494c12d967b3a4e0c37fc53637662700e6c65104059db8bba34439e0c32483ab7c34e3ccae52c7395495181862000281640100000000026401000000009004565b505033600c60006101000a81548173ffffffffffffffffffffffffffffffffffffffff021916908373ffffffffffffffffffffffffffffffffffffffff1602179055506200075e565b63ffffffff7c010000000000000000000000000000000000000000000000000000000002817bffffffffffffffffffffffffffffffffffffffffffffffffffffffff19160362000308576040517f08c379a0000000000000000000000000000000000000000000000000000000008152600401620002ff906200073c565b60405180910390fd5b6001600080837bffffffffffffffffffffffffffffffffffffffffffffffffffffffff19167bffffffffffffffffffffffffffffffffffffffffffffffffffffffff1916815260200190815260200160002060006101000a81548160ff02191690831515021790555050565b600081519050919050565b7f4e487b7100000000000000000000000000000000000000000000000000000000600052604160045260246000fd5b7f4e487b7100000000000000000000000000000000000000000000000000000000600052602260045260246000fd5b60006002820490506001821680620003f657607f821691505b6020821081036200040c576200040b620003ae565b5b50919050565b60008190508160005260206000209050919050565b60006020601f8301049050919050565b60008160020a8302905092915050565b600060088302620004797fffffffffffffffffffffffffffffffffffffffffffffffffffffffffffffffff8262000437565b62000485868362000437565b95508019841693508086168417925050509392505050565b6000819050919050565b6000819050919050565b6000620004d2620004cc620004c6846200049d565b620004a7565b6200049d565b9050919050565b6000819050919050565b620004ee83620004b1565b62000506620004fd82620004d9565b84845462000447565b825550505050565b600090565b6200051d6200050e565b6200052a818484620004e3565b505050565b5b8181101562000552576200054660008262000513565b60018101905062000530565b5050565b601f821115620005a1576200056b8162000412565b620005768462000427565b8101602085101562000586578190505b6200059e620005958562000427565b8301826200052f565b50505b505050565b60008160020a8304905092915050565b6000620005c960001984600802620005a6565b1980831691505092915050565b6000620005e48383620005b6565b9150826002028217905092915050565b620005ff8262000374565b67ffffffffffffffff8111156200061b576200061a6200037f565b5b620006278254620003dd565b6200063482828562000556565b600060209050601f8311600181146200066c576000841562000657578287015190505b620006638582620005d6565b865550620006d3565b601f1984166200067c8662000412565b60005b82811015620006a6578489015182556001820191506020850194506020810190506200067f565b86831015620006c65784890151620006c2601f891682620005b6565b8355505b6001600288020188555050505b505050505050565b600082825260208201905092915050565b7f496e76616c696420496e74657266616365207265717565737400000000000000600082015250565b600062000724601983620006db565b91506200073182620006ec565b602082019050919050565b60006020820190508181036000830152620007578162000715565b9050919050565b612aac806200076e6000396000f3fe608060405234801561001057600080fd5b5060043610610128576000357c0100000000000000000000000000000000000000000000000000000000900480634f6ccce7116100bf57806393987c1f1161008e57806393987c1f146102fb57806395d89b4114610317578063a3c0b95b14610335578063bd7e2f9514610365578063c30c89671461038157610128565b80634f6ccce71461024d5780636352211e1461027d57806370a08231146102ad5780638da5cb5b146102dd57610128565b80631e986c66116100fb5780631e986c66146101b557806323b872dd146101d15780632f745c59146101ed57806335482c3a1461021d57610128565b806301ffc9a71461012d57806306fdde031461015d578063095ea7b31461017b57806318160ddd14610197575b600080fd5b6101476004803603810190610142919061170c565b61039d565b6040516101549190611754565b60405180910390f35b610165610404565b60405161017291906117ff565b60405180910390f35b610195600480360381019061019091906118b5565b610496565b005b61019f610631565b6040516101ac9190611904565b60405180910390f35b6101cf60048036038101906101ca9190611a80565b61063e565b005b6101eb60048036038101906101e69190611c23565b610755565b005b610207600480360381019061020291906118b5565b610778565b6040516102149190611904565b60405180910390f35b61023760048036038101906102329190611c76565b610828565b6040516102449190611754565b60405180910390f35b61026760048036038101906102629190611c76565b61088d565b6040516102749190611904565b60405180910390f35b61029760048036038101906102929190611c76565b6108fe565b6040516102a49190611cb2565b60405180910390f35b6102c760048036038101906102c29190611ccd565b6109dc565b6040516102d49190611904565b60405180910390f35b6102e5610a96565b6040516102f29190611cb2565b60405180910390f35b61031560048036038101906103109190611cfa565b610abc565b005b61031f610c78565b60405161032c91906117ff565b60405180910390f35b61034f600480360381019061034a9190611c76565b610d0a565b60405161035c91906117ff565b60405180910390f35b61037f600480360381019061037a9190611eb2565b610db6565b005b61039b60048036038101906103969190611f05565b610e28565b005b6000806000837bffffffffffffffffffffffffffffffffffffffffffffffffffffffff19167bffffffffffffffffffffffffffffffffffffffffffffffffffffffff1916815260200190815260200160002060009054906101000a900460ff169050919050565b60606001805461041390611f90565b80601f016020809104026020016040519081016040528092919081815260200182805461043f90611f90565b801561048c5780601f106104615761010080835404028352916020019161048c565b820191906000526020600020905b81548152906001019060200180831161046f57829003601f168201915b5050505050905090565b60006104a1826108fe565b90508073ffffffffffffffffffffffffffffffffffffffff168373ffffffffffffffffffffffffffffffffffffffff1603610511576040517f08c379a000000000000000000000000000000000000000000000000000000000815260040161050890612033565b60405180910390fd5b8073ffffffffffffffffffffffffffffffffffffffff163373ffffffffffffffffffffffffffffffffffffffff161461057f576040517f08c379a0000000000000000000000000000000000000000000000000000000008152600401610576906120c5565b60405180910390fd5b826005600084815260200190815260200160002060006101000a81548173ffffffffffffffffffffffffffffffffffffffff021916908373ffffffffffffffffffffffffffffffffffffffff160217905550818373ffffffffffffffffffffffffffffffffffffffff168273ffffffffffffffffffffffffffffffffffffffff167f8c5be1e5ebec7d5bd14f71427d1e84f3dd0314c0f7b2291e5b200ac8c7c3b92560405160405180910390a4505050565b6000600680549050905090565b600b8a60405161064e9190612121565b908152602001604051809103902060009054906101000a900460ff16156106aa576040517f08c379a00000000000000000000000000000000000000000000000000000000081526004016106a1906121aa565b60405180910390fd5b600a8a9080600181540180825580915050600190039060005260206000200160009091909190915090816106de919061237c565b5060006001600a805490506106f3919061247d565b90506106ff3382610ee0565b610711818b8b8b8b8b8b8b8b8b610f01565b6001600b8c6040516107239190612121565b908152602001604051809103902060006101000a81548160ff0219169083151502179055505050505050505050505050565b61075f3382611083565b61076857600080fd5b610773838383611112565b505050565b6000610783836109dc565b82106107c4576040517f08c379a00000000000000000000000000000000000000000000000000000000081526004016107bb906124fd565b60405180910390fd5b600860008473ffffffffffffffffffffffffffffffffffffffff1673ffffffffffffffffffffffffffffffffffffffff16815260200190815260200160002082815481106108155761081461251d565b5b9060005260206000200154905092915050565b600060011515600d600084815260200190815260200160002060000160009054906101000a900460ff16151514801561087557506001600e60008481526020019081526020016000205410155b156108835760019050610888565b600090505b919050565b6000610897610631565b82106108d8576040517f08c379a00000000000000000000000000000000000000000000000000000000081526004016108cf90612598565b60405180910390fd5b600682815481106108ec576108eb61251d565b5b90600052602060002001549050919050565b60008073ffffffffffffffffffffffffffffffffffffffff166003600084815260200190815260200160002060009054906101000a900473ffffffffffffffffffffffffffffffffffffffff1673ffffffffffffffffffffffffffffffffffffffff16036109a1576040517f08c379a000000000000000000000000000000000000000000000000000000000815260040161099890612604565b60405180910390fd5b6003600083815260200190815260200160002060009054906101000a900473ffffffffffffffffffffffffffffffffffffffff169050919050565b600081600073ffffffffffffffffffffffffffffffffffffffff168173ffffffffffffffffffffffffffffffffffffffff1603610a4e576040517f08c379a0000000000000000000000000000000000000000000000000000000008152600401610a4590612670565b60405180910390fd5b600460008473ffffffffffffffffffffffffffffffffffffffff1673ffffffffffffffffffffffffffffffffffffffff16815260200190815260200160002054915050919050565b600c60009054906101000a900473ffffffffffffffffffffffffffffffffffffffff1681565b600073ffffffffffffffffffffffffffffffffffffffff168b73ffffffffffffffffffffffffffffffffffffffff1603610b2b576040517f08c379a0000000000000000000000000000000000000000000000000000000008152600401610b2290612702565b60405180910390fd5b600b8a604051610b3b9190612121565b908152602001604051809103902060009054906101000a900460ff1615610b97576040517f08c379a0000000000000000000000000000000000000000000000000000000008152600401610b8e906121aa565b60405180910390fd5b600a8a908060018154018082558091505060019003906000526020600020016000909190919091509081610bcb919061237c565b5060006001600a80549050610be0919061247d565b9050610bec3382610ee0565b6001600b8c604051610bfe9190612121565b908152602001604051809103902060006101000a81548160ff021916908315150217905550610c2d8c82610ee0565b610c3f818b8b8b8b8b8b8b8b8b610f01565b6001600e60008381526020019081526020016000206000828254610c639190612722565b92505081905550505050505050505050505050565b606060028054610c8790611f90565b80601f0160208091040260200160405190810160405280929190818152602001828054610cb390611f90565b8015610d005780601f10610cd557610100808354040283529160200191610d00565b820191906000526020600020905b815481529060010190602001808311610ce357829003601f168201915b5050505050905090565b600a8181548110610d1a57600080fd5b906000526020600020016000915090508054610d3590611f90565b80601f0160208091040260200160405190810160405280929190818152602001828054610d6190611f90565b8015610dae5780601f10610d8357610100808354040283529160200191610dae565b820191906000526020600020905b815481529060010190602001808311610d9157829003601f168201915b505050505081565b81811115610df9576040517f08c379a0000000000000000000000000000000000000000000000000000000008152600401610df0906127c8565b60405180910390fd5b60005b82811015610e2257610e0e3385610ee0565b600181610e1b9190612722565b9050610dfc565b50505050565b600c60009054906101000a900473ffffffffffffffffffffffffffffffffffffffff1673ffffffffffffffffffffffffffffffffffffffff163373ffffffffffffffffffffffffffffffffffffffff1614610eb8576040517f08c379a0000000000000000000000000000000000000000000000000000000008152600401610eaf9061285a565b60405180910390fd5b80600d60008481526020019081526020016000206003019081610edb919061237c565b505050565b610eea8282611357565b610ef381611518565b610efd8282611561565b5050565b88600d60008c815260200190815260200160002060000160006101000a81548160ff02191690831515021790555087600d60008c81526020019081526020016000206001019081610f52919061237c565b5086600d60008c81526020019081526020016000206002019081610f76919061237c565b5085600d60008c81526020019081526020016000206003019081610f9a919061237c565b5084600d60008c81526020019081526020016000206004019081610fbe919061237c565b5083600d60008c81526020019081526020016000206005018190555082600d60008c81526020019081526020016000206006019081610ffd919061237c565b5081600d60008c815260200190815260200160002060070160006101000a81548173ffffffffffffffffffffffffffffffffffffffff021916908373ffffffffffffffffffffffffffffffffffffffff16021790555080600d60008c81526020019081526020016000206008019081611076919061237c565b5050505050505050505050565b600061108e82611625565b6110cd576040517f08c379a00000000000000000000000000000000000000000000000000000000081526004016110c4906128c6565b60405180910390fd5b60006110d8836108fe565b90508073ffffffffffffffffffffffffffffffffffffffff168473ffffffffffffffffffffffffffffffffffffffff161491505092915050565b600073ffffffffffffffffffffffffffffffffffffffff168273ffffffffffffffffffffffffffffffffffffffff1603611181576040517f08c379a000000000000000000000000000000000000000000000000000000000815260040161117890612958565b60405180910390fd5b8273ffffffffffffffffffffffffffffffffffffffff166111a1826108fe565b73ffffffffffffffffffffffffffffffffffffffff16146111f7576040517f08c379a00000000000000000000000000000000000000000000000000000000081526004016111ee906129ea565b60405180910390fd5b6001600460008573ffffffffffffffffffffffffffffffffffffffff1673ffffffffffffffffffffffffffffffffffffffff1681526020019081526020016000206000828254611247919061247d565b925050819055506001600460008473ffffffffffffffffffffffffffffffffffffffff1673ffffffffffffffffffffffffffffffffffffffff168152602001908152602001600020600082825461129e9190612722565b92505081905550816003600083815260200190815260200160002060006101000a81548173ffffffffffffffffffffffffffffffffffffffff021916908373ffffffffffffffffffffffffffffffffffffffff160217905550808273ffffffffffffffffffffffffffffffffffffffff168473ffffffffffffffffffffffffffffffffffffffff167fddf252ad1be2c89b69c2b068fc378daa952ba7f163c4a11628f55a4df523b3ef60405160405180910390a4505050565b600073ffffffffffffffffffffffffffffffffffffffff168273ffffffffffffffffffffffffffffffffffffffff16036113c6576040517f08c379a00000000000000000000000000000000000000000000000000000000081526004016113bd90612702565b60405180910390fd5b6113cf81611625565b1561140f576040517f08c379a000000000000000000000000000000000000000000000000000000000815260040161140690612a56565b60405180910390fd5b816003600083815260200190815260200160002060006101000a81548173ffffffffffffffffffffffffffffffffffffffff021916908373ffffffffffffffffffffffffffffffffffffffff1602179055506001600460008473ffffffffffffffffffffffffffffffffffffffff1673ffffffffffffffffffffffffffffffffffffffff16815260200190815260200160002060008282546114b19190612722565b92505081905550808273ffffffffffffffffffffffffffffffffffffffff16600073ffffffffffffffffffffffffffffffffffffffff167fddf252ad1be2c89b69c2b068fc378daa952ba7f163c4a11628f55a4df523b3ef60405160405180910390a45050565b6006805490506007600083815260200190815260200160002081905550600681908060018154018082558091505060019003906000526020600020016000909190919091505550565b600860008373ffffffffffffffffffffffffffffffffffffffff1673ffffffffffffffffffffffffffffffffffffffff168152602001908152602001600020805490506009600083815260200190815260200160002081905550600860008373ffffffffffffffffffffffffffffffffffffffff1673ffffffffffffffffffffffffffffffffffffffff1681526020019081526020016000208190806001815401808255809150506001900390600052602060002001600090919091909150555050565b60008073ffffffffffffffffffffffffffffffffffffffff166003600084815260200190815260200160002060009054906101000a900473ffffffffffffffffffffffffffffffffffffffff1673ffffffffffffffffffffffffffffffffffffffff1603611696576000905061169b565b600190505b919050565b6000604051905090565b600080fd5b600080fd5b60007fffffffff0000000000000000000000000000000000000000000000000000000082169050919050565b6116e9816116b4565b81146116f457600080fd5b50565b600081359050611706816116e0565b92915050565b600060208284031215611722576117216116aa565b5b6000611730848285016116f7565b91505092915050565b60008115159050919050565b61174e81611739565b82525050565b60006020820190506117696000830184611745565b92915050565b600081519050919050565b600082825260208201905092915050565b60005b838110156117a957808201518184015260208101905061178e565b60008484015250505050565b6000601f19601f8301169050919050565b60006117d18261176f565b6117db818561177a565b93506117eb81856020860161178b565b6117f4816117b5565b840191505092915050565b6000602082019050818103600083015261181981846117c6565b905092915050565b600073ffffffffffffffffffffffffffffffffffffffff82169050919050565b600061184c82611821565b9050919050565b61185c81611841565b811461186757600080fd5b50565b60008135905061187981611853565b92915050565b6000819050919050565b6118928161187f565b811461189d57600080fd5b50565b6000813590506118af81611889565b92915050565b600080604083850312156118cc576118cb6116aa565b5b60006118da8582860161186a565b92505060206118eb858286016118a0565b9150509250929050565b6118fe8161187f565b82525050565b600060208201905061191960008301846118f5565b92915050565b600080fd5b600080fd5b7f4e487b7100000000000000000000000000000000000000000000000000000000600052604160045260246000fd5b611961826117b5565b810181811067ffffffffffffffff821117156119805761197f611929565b5b80604052505050565b60006119936116a0565b905061199f8282611958565b919050565b600067ffffffffffffffff8211156119bf576119be611929565b5b6119c8826117b5565b9050602081019050919050565b82818337600083830152505050565b60006119f76119f2846119a4565b611989565b905082815260208101848484011115611a1357611a12611924565b5b611a1e8482856119d5565b509392505050565b600082601f830112611a3b57611a3a61191f565b5b8135611a4b8482602086016119e4565b91505092915050565b611a5d81611739565b8114611a6857600080fd5b50565b600081359050611a7a81611a54565b92915050565b6000806000806000806000806000806101408b8d031215611aa457611aa36116aa565b5b60008b013567ffffffffffffffff811115611ac257611ac16116af565b5b611ace8d828e01611a26565b9a50506020611adf8d828e01611a6b565b99505060408b013567ffffffffffffffff811115611b0057611aff6116af565b5b611b0c8d828e01611a26565b98505060608b013567ffffffffffffffff811115611b2d57611b2c6116af565b5b611b398d828e01611a26565b97505060808b013567ffffffffffffffff811115611b5a57611b596116af565b5b611b668d828e01611a26565b96505060a08b013567ffffffffffffffff811115611b8757611b866116af565b5b611b938d828e01611a26565b95505060c0611ba48d828e016118a0565b94505060e08b013567ffffffffffffffff811115611bc557611bc46116af565b5b611bd18d828e01611a26565b935050610100611be38d828e0161186a565b9250506101208b013567ffffffffffffffff811115611c0557611c046116af565b5b611c118d828e01611a26565b9150509295989b9194979a5092959850565b600080600060608486031215611c3c57611c3b6116aa565b5b6000611c4a8682870161186a565b9350506020611c5b8682870161186a565b9250506040611c6c868287016118a0565b9150509250925092565b600060208284031215611c8c57611c8b6116aa565b5b6000611c9a848285016118a0565b91505092915050565b611cac81611841565b82525050565b6000602082019050611cc76000830184611ca3565b92915050565b600060208284031215611ce357611ce26116aa565b5b6000611cf18482850161186a565b91505092915050565b60008060008060008060008060008060006101608c8e031215611d2057611d1f6116aa565b5b6000611d2e8e828f0161186a565b9b505060208c013567ffffffffffffffff811115611d4f57611d4e6116af565b5b611d5b8e828f01611a26565b9a50506040611d6c8e828f01611a6b565b99505060608c013567ffffffffffffffff811115611d8d57611d8c6116af565b5b611d998e828f01611a26565b98505060808c013567ffffffffffffffff811115611dba57611db96116af565b5b611dc68e828f01611a26565b97505060a08c013567ffffffffffffffff811115611de757611de66116af565b5b611df38e828f01611a26565b96505060c08c013567ffffffffffffffff811115611e1457611e136116af565b5b611e208e828f01611a26565b95505060e0611e318e828f016118a0565b9450506101008c013567ffffffffffffffff811115611e5357611e526116af565b5b611e5f8e828f01611a26565b935050610120611e718e828f0161186a565b9250506101408c013567ffffffffffffffff811115611e9357611e926116af565b5b611e9f8e828f01611a26565b9150509295989b509295989b9093969950565b600080600060608486031215611ecb57611eca6116aa565b5b6000611ed9868287016118a0565b9350506020611eea868287016118a0565b9250506040611efb868287016118a0565b9150509250925092565b60008060408385031215611f1c57611f1b6116aa565b5b6000611f2a858286016118a0565b925050602083013567ffffffffffffffff811115611f4b57611f4a6116af565b5b611f5785828601611a26565b9150509250929050565b7f4e487b7100000000000000000000000000000000000000000000000000000000600052602260045260246000fd5b60006002820490506001821680611fa857607f821691505b602082108103611fbb57611fba611f61565b5b50919050565b7f4572726f72202d20617070726f76616c20746f2063757272656e74206f776e6560008201527f7200000000000000000000000000000000000000000000000000000000000000602082015250565b600061201d60218361177a565b915061202882611fc1565b604082019050919050565b6000602082019050818103600083015261204c81612010565b9050919050565b7f43757272656e742063616c6c6572206973206e6f7420746865206f776e65726f60008201527f662074686520746f6b656e000000000000000000000000000000000000000000602082015250565b60006120af602b8361177a565b91506120ba82612053565b604082019050919050565b600060208201905081810360008301526120de816120a2565b9050919050565b600081905092915050565b60006120fb8261176f565b61210581856120e5565b935061211581856020860161178b565b80840191505092915050565b600061212d82846120f0565b915081905092915050565b7f44616e6720697421212c2049204861766520616c7265616479206265656e206d60008201527f696e746564000000000000000000000000000000000000000000000000000000602082015250565b600061219460258361177a565b915061219f82612138565b604082019050919050565b600060208201905081810360008301526121c381612187565b9050919050565b60008190508160005260206000209050919050565b60006020601f8301049050919050565b60008160020a8302905092915050565b60006008830261222f7fffffffffffffffffffffffffffffffffffffffffffffffffffffffffffffffff826121ef565b61223986836121ef565b95508019841693508086168417925050509392505050565b6000819050919050565b600061227661227161226c8461187f565b612251565b61187f565b9050919050565b6000819050919050565b6122908361225b565b6122a461229c8261227d565b8484546121ff565b825550505050565b600090565b6122b96122ac565b6122c4818484612287565b505050565b5b818110156122e8576122dd6000826122b1565b6001810190506122ca565b5050565b601f82111561232d576122fe816121ca565b612307846121df565b81016020851015612316578190505b61232a612322856121df565b8301826122c9565b50505b505050565b60008160020a8304905092915050565b600061235360001984600802612332565b1980831691505092915050565b600061236c8383612342565b9150826002028217905092915050565b6123858261176f565b67ffffffffffffffff81111561239e5761239d611929565b5b6123a88254611f90565b6123b38282856122ec565b600060209050601f8311600181146123e657600084156123d4578287015190505b6123de8582612360565b865550612446565b601f1984166123f4866121ca565b60005b8281101561241c578489015182556001820191506020850194506020810190506123f7565b868310156124395784890151612435601f891682612342565b8355505b6001600288020188555050505b505050505050565b7f4e487b7100000000000000000000000000000000000000000000000000000000600052601160045260246000fd5b60006124888261187f565b91506124938361187f565b92508282039050818111156124ab576124aa61244e565b5b92915050565b7f6f776e657220696e646578206973206f7574206f662072616e67650000000000600082015250565b60006124e7601b8361177a565b91506124f2826124b1565b602082019050919050565b60006020820190508181036000830152612516816124da565b9050919050565b7f4e487b7100000000000000000000000000000000000000000000000000000000600052603260045260246000fd5b7f476c6f61626c20696e646578206973206f7574206f6620626f756e6473210000600082015250565b6000612582601e8361177a565b915061258d8261254c565b602082019050919050565b600060208201905081810360008301526125b181612575565b9050919050565b7f546f6b656e20646f65736e277420657869737421000000000000000000000000600082015250565b60006125ee60148361177a565b91506125f9826125b8565b602082019050919050565b6000602082019050818103600083015261261d816125e1565b9050919050565b7f546f6b656e20446f65736e277420457869737473000000000000000000000000600082015250565b600061265a60148361177a565b915061266582612624565b602082019050919050565b600060208201905081810360008301526126898161264d565b9050919050565b7f4552433732313a206d696e74696e6720746f207468652030206164647265737360008201527f2e00000000000000000000000000000000000000000000000000000000000000602082015250565b60006126ec60218361177a565b91506126f782612690565b604082019050919050565b6000602082019050818103600083015261271b816126df565b9050919050565b600061272d8261187f565b91506127388361187f565b92508282019050808211156127505761274f61244e565b5b92915050565b7f4d757374204e6f742065786365656420746865204361702070726f766964656460008201527f206279207468652073656c6c65722e2e2e000000000000000000000000000000602082015250565b60006127b260318361177a565b91506127bd82612756565b604082019050919050565b600060208201905081810360008301526127e1816127a5565b9050919050565b7f4e6f7420617574686f726973656420746f20616464207468652055524c20746f60008201527f20746865204e4654000000000000000000000000000000000000000000000000602082015250565b600061284460288361177a565b915061284f826127e8565b604082019050919050565b6000602082019050818103600083015261287381612837565b9050919050565b7f746f6b656e20646f6573206e6f74206578697374730000000000000000000000600082015250565b60006128b060158361177a565b91506128bb8261287a565b602082019050919050565b600060208201905081810360008301526128df816128a3565b9050919050565b7f4572726f72202d20455243373231205472616e7366657220746f20302041646460008201527f7265737300000000000000000000000000000000000000000000000000000000602082015250565b600061294260248361177a565b915061294d826128e6565b604082019050919050565b6000602082019050818103600083015261297181612935565b9050919050565b7f547279696e6720746f207472616e73666572206120746f6b656e20746865206160008201527f64647265737320646f6573206e6f74202d2d2d2d2d0000000000000000000000602082015250565b60006129d460358361177a565b91506129df82612978565b604082019050919050565b60006020820190508181036000830152612a03816129c7565b9050919050565b7f4552433732313a20746f6b656e20616c7265616479206578697374732e000000600082015250565b6000612a40601d8361177a565b9150612a4b82612a0a565b602082019050919050565b60006020820190508181036000830152612a6f81612a33565b905091905056fea26469706673582212200602eea653dc6d0657b15dd92522f4da4b0d03c2362a8111e904b25583b1650864736f6c63430008110033",
  "immutableReferences": {},
  "source": "// SPDX-License-Identifier: MIT\r\n// pragma solidity >=0.4.22 <0.9.0;\r\n// pragma solidity ^0.7.0;\r\n// import \"./ERC721.sol\";\r\n\r\n// contract checkRefurbished is ERC721 {\r\n//     modifier refurbishedCheck(uint256 _tokenId) {\r\n//         require(\r\n//             previousOwners[_tokenId] < 1,\r\n//             \"Yes this is a refurbished Item, It has been sold more than once..\"\r\n//         );\r\n//         _;\r\n//     }\r\n\r\n//     // function additems(uint _tokenId ) public {\r\n//     //     previousOwners[_tokenId]+=1;\r\n//     // }\r\n\r\n//     //create a seperate mapping in NFT, which is named as Previous Owners.... as uint=>uint..where 1st uint is token id and second one is how many owners it had...\r\n//     function check(uint256 _tokenId)\r\n//         public\r\n//         view\r\n//         refurbishedCheck(_tokenId)\r\n//         returns (bool)\r\n//     {\r\n//         return false; //meaning that this is not a refurbished item.\r\n//     }\r\n// }\r\n\r\npragma solidity >=0.4.22 <0.9.0;\r\nimport \"./NFT.sol\";\r\n\r\ncontract checkRefurbished is NFT {\r\n    //custom event and emit...\r\n    function checkRefurbishedItem(uint256 tokenId) public view returns (bool) {\r\n        if (NFTinfo[tokenId].minted == true && previousOwners[tokenId] >= 1) {\r\n            return true; //true means that the item is refurbished\r\n        }\r\n        return false; //false means it is not refurbished and has not been minted yet....\r\n    }\r\n}\r\n",
  "sourcePath": "C:\\Users\\Neeraj\\Desktop\\Sterling Store\\src\\contracts\\CheckRefurbished.sol",
  "compiler": {
    "name": "solc",
    "version": "0.8.17+commit.8df45f5f.Emscripten.clang"
  },
  "schemaVersion": "3.4.11",
  "updatedAt": "2023-01-14T17:03:04.337Z",
  "networkType": "ethereum",
  "devdoc": {
    "kind": "dev",
    "methods": {},
    "version": 1
  },
  "userdoc": {
    "kind": "user",
    "methods": {},
    "version": 1
  }
}