{
  "contractName": "ERC721Enumerable",
  "abi": [
    {
      "inputs": [],
      "stateMutability": "nonpayable",
      "type": "constructor"
    },
    {
      "anonymous": false,
      "inputs": [
        {
          "indexed": true,
          "internalType": "address",
          "name": "_owner",
          "type": "address"
        },
        {
          "indexed": true,
          "internalType": "address",
          "name": "_approved",
          "type": "address"
        },
        {
          "indexed": true,
          "internalType": "uint256",
          "name": "_tokenId",
          "type": "uint256"
        }
      ],
      "name": "Approval",
      "type": "event"
    },
    {
      "anonymous": false,
      "inputs": [
        {
          "indexed": true,
          "internalType": "address",
          "name": "_from",
          "type": "address"
        },
        {
          "indexed": true,
          "internalType": "address",
          "name": "_to",
          "type": "address"
        },
        {
          "indexed": true,
          "internalType": "uint256",
          "name": "_tokenId",
          "type": "uint256"
        }
      ],
      "name": "Transfer",
      "type": "event"
    },
    {
      "inputs": [
        {
          "internalType": "uint256",
          "name": "tokenId",
          "type": "uint256"
        }
      ],
      "name": "_exists",
      "outputs": [
        {
          "internalType": "bool",
          "name": "",
          "type": "bool"
        }
      ],
      "stateMutability": "view",
      "type": "function"
    },
    {
      "inputs": [
        {
          "internalType": "address",
          "name": "_to",
          "type": "address"
        },
        {
          "internalType": "uint256",
          "name": "_tokenId",
          "type": "uint256"
        }
      ],
      "name": "approve",
      "outputs": [],
      "stateMutability": "nonpayable",
      "type": "function"
    },
    {
      "inputs": [
        {
          "internalType": "address",
          "name": "_owner",
          "type": "address"
        }
      ],
      "name": "balanceOf",
      "outputs": [
        {
          "internalType": "uint256",
          "name": "",
          "type": "uint256"
        }
      ],
      "stateMutability": "view",
      "type": "function"
    },
    {
      "inputs": [
        {
          "internalType": "uint256",
          "name": "_tokenId",
          "type": "uint256"
        }
      ],
      "name": "ownerOf",
      "outputs": [
        {
          "internalType": "address",
          "name": "",
          "type": "address"
        }
      ],
      "stateMutability": "view",
      "type": "function"
    },
    {
      "inputs": [
        {
          "internalType": "address",
          "name": "_owner",
          "type": "address"
        }
      ],
      "name": "ownerTokens",
      "outputs": [
        {
          "internalType": "uint256",
          "name": "",
          "type": "uint256"
        }
      ],
      "stateMutability": "view",
      "type": "function"
    },
    {
      "inputs": [
        {
          "internalType": "bytes4",
          "name": "interfaceID",
          "type": "bytes4"
        }
      ],
      "name": "supportsInterface",
      "outputs": [
        {
          "internalType": "bool",
          "name": "",
          "type": "bool"
        }
      ],
      "stateMutability": "view",
      "type": "function"
    },
    {
      "inputs": [
        {
          "internalType": "address",
          "name": "_from",
          "type": "address"
        },
        {
          "internalType": "address",
          "name": "_to",
          "type": "address"
        },
        {
          "internalType": "uint256",
          "name": "_tokenId",
          "type": "uint256"
        }
      ],
      "name": "transferFrom",
      "outputs": [],
      "stateMutability": "nonpayable",
      "type": "function"
    },
    {
      "inputs": [
        {
          "internalType": "uint256",
          "name": "_index",
          "type": "uint256"
        }
      ],
      "name": "tokenByIndex",
      "outputs": [
        {
          "internalType": "uint256",
          "name": "",
          "type": "uint256"
        }
      ],
      "stateMutability": "view",
      "type": "function"
    },
    {
      "inputs": [
        {
          "internalType": "address",
          "name": "_owner",
          "type": "address"
        },
        {
          "internalType": "uint256",
          "name": "_index",
          "type": "uint256"
        }
      ],
      "name": "tokenOfOwnerByIndex",
      "outputs": [
        {
          "internalType": "uint256",
          "name": "",
          "type": "uint256"
        }
      ],
      "stateMutability": "view",
      "type": "function"
    },
    {
      "inputs": [],
      "name": "totalSupply",
      "outputs": [
        {
          "internalType": "uint256",
          "name": "",
          "type": "uint256"
        }
      ],
      "stateMutability": "view",
      "type": "function"
    }
  ],
  "bytecode": "0x60806040523480156200001157600080fd5b506200004c7f01ffc9a7a5cef8baa21ed3c5c0d7e23accb804b619e9333b597f47a0d84076e26200014e640100000000026401000000009004565b620000ca7f22c82707ba960a14c7592ffb6b8cfaa073fed0048a84cc7fa41f6b5bd8e7f2e47f3a6eb71757dfc6e784c1459d26270140c2c147d95ca985c80026fc5301c3eca17f8a7e378434598edc36d108689a030cbc9d7d465de4f74c71bae1028eed6a881b18186200014e640100000000026401000000009004565b620001487f8230223f691b981717299fae9549350a0d894555723531f02108b1f522c1a7977f6da5e1284143cdd2d15038a59bde3be031250f00291d64494c12d967b3a4e0c37fc53637662700e6c65104059db8bba34439e0c32483ab7c34e3ccae52c739549518186200014e640100000000026401000000009004565b620002c4565b63ffffffff7c010000000000000000000000000000000000000000000000000000000002817bffffffffffffffffffffffffffffffffffffffffffffffffffffffff191603620001d5576040517f08c379a0000000000000000000000000000000000000000000000000000000008152600401620001cc90620002a2565b60405180910390fd5b6001600080837bffffffffffffffffffffffffffffffffffffffffffffffffffffffff19167bffffffffffffffffffffffffffffffffffffffffffffffffffffffff1916815260200190815260200160002060006101000a81548160ff02191690831515021790555050565b600082825260208201905092915050565b7f496e76616c696420496e74657266616365207265717565737400000000000000600082015250565b60006200028a60198362000241565b9150620002978262000252565b602082019050919050565b60006020820190508181036000830152620002bd816200027b565b9050919050565b6112ef80620002d46000396000f3fe608060405234801561001057600080fd5b50600436106100bb576000357c0100000000000000000000000000000000000000000000000000000000900480634f6ccce7116100835780634f6ccce7146101765780636352211e146101a657806370a08231146101d6578063bba7723e14610206578063f8e76cc014610236576100bb565b806301ffc9a7146100c0578063095ea7b3146100f057806318160ddd1461010c57806323b872dd1461012a5780632f745c5914610146575b600080fd5b6100da60048036038101906100d59190610b46565b610266565b6040516100e79190610b8e565b60405180910390f35b61010a60048036038101906101059190610c3d565b6102cd565b005b610114610468565b6040516101219190610c8c565b60405180910390f35b610144600480360381019061013f9190610ca7565b610475565b005b610160600480360381019061015b9190610c3d565b610498565b60405161016d9190610c8c565b60405180910390f35b610190600480360381019061018b9190610cfa565b610548565b60405161019d9190610c8c565b60405180910390f35b6101c060048036038101906101bb9190610cfa565b6105b9565b6040516101cd9190610d36565b60405180910390f35b6101f060048036038101906101eb9190610d51565b610697565b6040516101fd9190610c8c565b60405180910390f35b610220600480360381019061021b9190610d51565b610751565b60405161022d9190610c8c565b60405180910390f35b610250600480360381019061024b9190610cfa565b61079a565b60405161025d9190610b8e565b60405180910390f35b6000806000837bffffffffffffffffffffffffffffffffffffffffffffffffffffffff19167bffffffffffffffffffffffffffffffffffffffffffffffffffffffff1916815260200190815260200160002060009054906101000a900460ff169050919050565b60006102d8826105b9565b90508073ffffffffffffffffffffffffffffffffffffffff168373ffffffffffffffffffffffffffffffffffffffff1603610348576040517f08c379a000000000000000000000000000000000000000000000000000000000815260040161033f90610e01565b60405180910390fd5b8073ffffffffffffffffffffffffffffffffffffffff163373ffffffffffffffffffffffffffffffffffffffff16146103b6576040517f08c379a00000000000000000000000000000000000000000000000000000000081526004016103ad90610e93565b60405180910390fd5b826003600084815260200190815260200160002060006101000a81548173ffffffffffffffffffffffffffffffffffffffff021916908373ffffffffffffffffffffffffffffffffffffffff160217905550818373ffffffffffffffffffffffffffffffffffffffff168273ffffffffffffffffffffffffffffffffffffffff167f8c5be1e5ebec7d5bd14f71427d1e84f3dd0314c0f7b2291e5b200ac8c7c3b92560405160405180910390a4505050565b6000600480549050905090565b61047f3382610815565b61048857600080fd5b6104938383836108a4565b505050565b60006104a383610697565b82106104e4576040517f08c379a00000000000000000000000000000000000000000000000000000000081526004016104db90610eff565b60405180910390fd5b600660008473ffffffffffffffffffffffffffffffffffffffff1673ffffffffffffffffffffffffffffffffffffffff168152602001908152602001600020828154811061053557610534610f1f565b5b9060005260206000200154905092915050565b6000610552610468565b8210610593576040517f08c379a000000000000000000000000000000000000000000000000000000000815260040161058a90610f9a565b60405180910390fd5b600482815481106105a7576105a6610f1f565b5b90600052602060002001549050919050565b60008073ffffffffffffffffffffffffffffffffffffffff166001600084815260200190815260200160002060009054906101000a900473ffffffffffffffffffffffffffffffffffffffff1673ffffffffffffffffffffffffffffffffffffffff160361065c576040517f08c379a000000000000000000000000000000000000000000000000000000000815260040161065390611006565b60405180910390fd5b6001600083815260200190815260200160002060009054906101000a900473ffffffffffffffffffffffffffffffffffffffff169050919050565b600081600073ffffffffffffffffffffffffffffffffffffffff168173ffffffffffffffffffffffffffffffffffffffff1603610709576040517f08c379a000000000000000000000000000000000000000000000000000000000815260040161070090611072565b60405180910390fd5b600260008473ffffffffffffffffffffffffffffffffffffffff1673ffffffffffffffffffffffffffffffffffffffff16815260200190815260200160002054915050919050565b6000600260008373ffffffffffffffffffffffffffffffffffffffff1673ffffffffffffffffffffffffffffffffffffffff168152602001908152602001600020549050919050565b60008073ffffffffffffffffffffffffffffffffffffffff166001600084815260200190815260200160002060009054906101000a900473ffffffffffffffffffffffffffffffffffffffff1673ffffffffffffffffffffffffffffffffffffffff160361080b5760009050610810565b600190505b919050565b60006108208261079a565b61085f576040517f08c379a0000000000000000000000000000000000000000000000000000000008152600401610856906110de565b60405180910390fd5b600061086a836105b9565b90508073ffffffffffffffffffffffffffffffffffffffff168473ffffffffffffffffffffffffffffffffffffffff161491505092915050565b600073ffffffffffffffffffffffffffffffffffffffff168273ffffffffffffffffffffffffffffffffffffffff1603610913576040517f08c379a000000000000000000000000000000000000000000000000000000000815260040161090a90611170565b60405180910390fd5b8273ffffffffffffffffffffffffffffffffffffffff16610933826105b9565b73ffffffffffffffffffffffffffffffffffffffff1614610989576040517f08c379a000000000000000000000000000000000000000000000000000000000815260040161098090611202565b60405180910390fd5b6001600260008573ffffffffffffffffffffffffffffffffffffffff1673ffffffffffffffffffffffffffffffffffffffff16815260200190815260200160002060008282546109d99190611251565b925050819055506001600260008473ffffffffffffffffffffffffffffffffffffffff1673ffffffffffffffffffffffffffffffffffffffff1681526020019081526020016000206000828254610a309190611285565b92505081905550816001600083815260200190815260200160002060006101000a81548173ffffffffffffffffffffffffffffffffffffffff021916908373ffffffffffffffffffffffffffffffffffffffff160217905550808273ffffffffffffffffffffffffffffffffffffffff168473ffffffffffffffffffffffffffffffffffffffff167fddf252ad1be2c89b69c2b068fc378daa952ba7f163c4a11628f55a4df523b3ef60405160405180910390a4505050565b600080fd5b60007fffffffff0000000000000000000000000000000000000000000000000000000082169050919050565b610b2381610aee565b8114610b2e57600080fd5b50565b600081359050610b4081610b1a565b92915050565b600060208284031215610b5c57610b5b610ae9565b5b6000610b6a84828501610b31565b91505092915050565b60008115159050919050565b610b8881610b73565b82525050565b6000602082019050610ba36000830184610b7f565b92915050565b600073ffffffffffffffffffffffffffffffffffffffff82169050919050565b6000610bd482610ba9565b9050919050565b610be481610bc9565b8114610bef57600080fd5b50565b600081359050610c0181610bdb565b92915050565b6000819050919050565b610c1a81610c07565b8114610c2557600080fd5b50565b600081359050610c3781610c11565b92915050565b60008060408385031215610c5457610c53610ae9565b5b6000610c6285828601610bf2565b9250506020610c7385828601610c28565b9150509250929050565b610c8681610c07565b82525050565b6000602082019050610ca16000830184610c7d565b92915050565b600080600060608486031215610cc057610cbf610ae9565b5b6000610cce86828701610bf2565b9350506020610cdf86828701610bf2565b9250506040610cf086828701610c28565b9150509250925092565b600060208284031215610d1057610d0f610ae9565b5b6000610d1e84828501610c28565b91505092915050565b610d3081610bc9565b82525050565b6000602082019050610d4b6000830184610d27565b92915050565b600060208284031215610d6757610d66610ae9565b5b6000610d7584828501610bf2565b91505092915050565b600082825260208201905092915050565b7f4572726f72202d20617070726f76616c20746f2063757272656e74206f776e6560008201527f7200000000000000000000000000000000000000000000000000000000000000602082015250565b6000610deb602183610d7e565b9150610df682610d8f565b604082019050919050565b60006020820190508181036000830152610e1a81610dde565b9050919050565b7f43757272656e742063616c6c6572206973206e6f7420746865206f776e65726f60008201527f662074686520746f6b656e000000000000000000000000000000000000000000602082015250565b6000610e7d602b83610d7e565b9150610e8882610e21565b604082019050919050565b60006020820190508181036000830152610eac81610e70565b9050919050565b7f6f776e657220696e646578206973206f7574206f662072616e67650000000000600082015250565b6000610ee9601b83610d7e565b9150610ef482610eb3565b602082019050919050565b60006020820190508181036000830152610f1881610edc565b9050919050565b7f4e487b7100000000000000000000000000000000000000000000000000000000600052603260045260246000fd5b7f476c6f61626c20696e646578206973206f7574206f6620626f756e6473210000600082015250565b6000610f84601e83610d7e565b9150610f8f82610f4e565b602082019050919050565b60006020820190508181036000830152610fb381610f77565b9050919050565b7f546f6b656e20646f65736e277420657869737421000000000000000000000000600082015250565b6000610ff0601483610d7e565b9150610ffb82610fba565b602082019050919050565b6000602082019050818103600083015261101f81610fe3565b9050919050565b7f546f6b656e20446f65736e277420457869737473000000000000000000000000600082015250565b600061105c601483610d7e565b915061106782611026565b602082019050919050565b6000602082019050818103600083015261108b8161104f565b9050919050565b7f746f6b656e20646f6573206e6f74206578697374730000000000000000000000600082015250565b60006110c8601583610d7e565b91506110d382611092565b602082019050919050565b600060208201905081810360008301526110f7816110bb565b9050919050565b7f4572726f72202d20455243373231205472616e7366657220746f20302041646460008201527f7265737300000000000000000000000000000000000000000000000000000000602082015250565b600061115a602483610d7e565b9150611165826110fe565b604082019050919050565b600060208201905081810360008301526111898161114d565b9050919050565b7f547279696e6720746f207472616e73666572206120746f6b656e20746865206160008201527f64647265737320646f6573206e6f74202d2d2d2d2d0000000000000000000000602082015250565b60006111ec603583610d7e565b91506111f782611190565b604082019050919050565b6000602082019050818103600083015261121b816111df565b9050919050565b7f4e487b7100000000000000000000000000000000000000000000000000000000600052601160045260246000fd5b600061125c82610c07565b915061126783610c07565b925082820390508181111561127f5761127e611222565b5b92915050565b600061129082610c07565b915061129b83610c07565b92508282019050808211156112b3576112b2611222565b5b9291505056fea2646970667358221220967031b4fa4aeafceb47b3fba16dbfdbfef94caef3078f12c54cb3d0d883f4a464736f6c63430008110033",
  "immutableReferences": {},
  "source": "// SPDX-License-Identifier: MIT\r\npragma solidity >=0.4.22 <0.9.0;\r\n// pragma solidity ^0.8.7;\r\n// pragma solidity ^0.7.0;\r\nimport \"./ERC721.sol\";\r\nimport \"./interfaces/IERC721Enumerable.sol\";\r\n\r\ncontract ERC721Enumerable is IERC721Enumerable, ERC721 {\r\n    uint256[] private _allTokens;\r\n    mapping(uint256 => uint256) private _allTokensIndex;\r\n    mapping(address => uint256[]) private _ownedTokens;\r\n    mapping(uint256 => uint256) private _ownedTokensIndex;\r\n\r\n    constructor() {\r\n        _registerInterface(\r\n            bytes4(\r\n                keccak256(\"totalSupply(bytes4)\") ^\r\n                    keccak256(\"tokenByIndex(bytes4)\") ^\r\n                    keccak256(\"tokenOfOwnerByIndex(bytes4)\")\r\n            )\r\n        );\r\n    }\r\n\r\n    function tokenByIndex(uint256 _index)\r\n        public\r\n        view\r\n        override\r\n        returns (uint256)\r\n    {\r\n        //make sure that the index is not out od bounds from totalsupply.\r\n        require(_index < totalSupply(), \"Gloabl index is out of bounds!\");\r\n        return _allTokens[_index];\r\n    }\r\n\r\n    function tokenOfOwnerByIndex(address _owner, uint256 _index)\r\n        public\r\n        view\r\n        override\r\n        returns (uint256)\r\n    {\r\n        require(_index < balanceOf(_owner), \"owner index is out of range\");\r\n        return _ownedTokens[_owner][_index];\r\n    }\r\n\r\n    function totalSupply() public view override returns (uint256) {\r\n        return _allTokens.length;\r\n    }\r\n\r\n    function _mint(address to, uint256 tokenId) internal override(ERC721) {\r\n        // function _mint(address to, uint256 tokenId) public override(ERC721) {\r\n        //(ERC721)\r\n        super._mint(to, tokenId);\r\n        _addTokensToAllTokensEnumeration(tokenId);\r\n        _addTokensToOwnerEnumeration(to, tokenId);\r\n    }\r\n\r\n    function _addTokensToAllTokensEnumeration(uint256 tokenId) private {\r\n        _allTokensIndex[tokenId] = _allTokens.length;\r\n        _allTokens.push(tokenId);\r\n    }\r\n\r\n    function _addTokensToOwnerEnumeration(address to, uint256 tokenId) private {\r\n        _ownedTokensIndex[tokenId] = _ownedTokens[to].length;\r\n        _ownedTokens[to].push(tokenId);\r\n    }\r\n\r\n    // function totalSupply() public view returns(uint){\r\n    //     return _allTokens.length;\r\n    // }\r\n}\r\n",
  "sourcePath": "C:\\Users\\Neeraj\\Desktop\\Sterling Store\\src\\contracts\\ERC721Enumerable.sol",
  "compiler": {
    "name": "solc",
    "version": "0.8.17+commit.8df45f5f.Emscripten.clang"
  },
  "schemaVersion": "3.4.11",
  "updatedAt": "2023-01-23T10:35:29.119Z",
  "devdoc": {
    "kind": "dev",
    "methods": {},
    "version": 1
  },
  "userdoc": {
    "kind": "user",
    "methods": {},
    "version": 1
  }
}