{
  "contractName": "ERC721Metadata",
  "abi": [
    {
      "inputs": [
        {
          "internalType": "string",
          "name": "__name",
          "type": "string"
        },
        {
          "internalType": "string",
          "name": "__symbol",
          "type": "string"
        }
      ],
      "stateMutability": "nonpayable",
      "type": "constructor"
    },
    {
      "inputs": [
        {
          "internalType": "bytes4",
          "name": "interfaceID",
          "type": "bytes4"
        }
      ],
      "name": "supportsInterface",
      "outputs": [
        {
          "internalType": "bool",
          "name": "",
          "type": "bool"
        }
      ],
      "stateMutability": "view",
      "type": "function"
    },
    {
      "inputs": [],
      "name": "name",
      "outputs": [
        {
          "internalType": "string",
          "name": "",
          "type": "string"
        }
      ],
      "stateMutability": "view",
      "type": "function"
    },
    {
      "inputs": [],
      "name": "symbol",
      "outputs": [
        {
          "internalType": "string",
          "name": "",
          "type": "string"
        }
      ],
      "stateMutability": "view",
      "type": "function"
    }
  ],
  "bytecode": "0x60806040523480156200001157600080fd5b5060405162000c3138038062000c3183398181016040528101906200003791906200037f565b620000717f01ffc9a7a5cef8baa21ed3c5c0d7e23accb804b619e9333b597f47a0d84076e2620000f9640100000000026401000000009004565b620000cd7f13b182f4c0e5b2efbac0efe6cf6d756c8b89f4b79c5707a043ed9ea740574ee97f7feaf19471f34a12a7eaf32d5f3090aa2260ea8624dc8a138e74e0bf0f62307618620000f9640100000000026401000000009004565b8160019081620000de919062000655565b508060029081620000f0919062000655565b505050620007bf565b63ffffffff7c010000000000000000000000000000000000000000000000000000000002817bffffffffffffffffffffffffffffffffffffffffffffffffffffffff19160362000180576040517f08c379a000000000000000000000000000000000000000000000000000000000815260040162000177906200079d565b60405180910390fd5b6001600080837bffffffffffffffffffffffffffffffffffffffffffffffffffffffff19167bffffffffffffffffffffffffffffffffffffffffffffffffffffffff1916815260200190815260200160002060006101000a81548160ff02191690831515021790555050565b6000604051905090565b600080fd5b600080fd5b600080fd5b600080fd5b6000601f19601f8301169050919050565b7f4e487b7100000000000000000000000000000000000000000000000000000000600052604160045260246000fd5b62000255826200020a565b810181811067ffffffffffffffff821117156200027757620002766200021b565b5b80604052505050565b60006200028c620001ec565b90506200029a82826200024a565b919050565b600067ffffffffffffffff821115620002bd57620002bc6200021b565b5b620002c8826200020a565b9050602081019050919050565b60005b83811015620002f5578082015181840152602081019050620002d8565b60008484015250505050565b60006200031862000312846200029f565b62000280565b90508281526020810184848401111562000337576200033662000205565b5b62000344848285620002d5565b509392505050565b600082601f83011262000364576200036362000200565b5b81516200037684826020860162000301565b91505092915050565b60008060408385031215620003995762000398620001f6565b5b600083015167ffffffffffffffff811115620003ba57620003b9620001fb565b5b620003c8858286016200034c565b925050602083015167ffffffffffffffff811115620003ec57620003eb620001fb565b5b620003fa858286016200034c565b9150509250929050565b600081519050919050565b7f4e487b7100000000000000000000000000000000000000000000000000000000600052602260045260246000fd5b600060028204905060018216806200045757607f821691505b6020821081036200046d576200046c6200040f565b5b50919050565b60008190508160005260206000209050919050565b60006020601f8301049050919050565b60008160020a8302905092915050565b600060088302620004da7fffffffffffffffffffffffffffffffffffffffffffffffffffffffffffffffff8262000498565b620004e6868362000498565b95508019841693508086168417925050509392505050565b6000819050919050565b6000819050919050565b6000620005336200052d6200052784620004fe565b62000508565b620004fe565b9050919050565b6000819050919050565b6200054f8362000512565b620005676200055e826200053a565b848454620004a8565b825550505050565b600090565b6200057e6200056f565b6200058b81848462000544565b505050565b5b81811015620005b357620005a760008262000574565b60018101905062000591565b5050565b601f8211156200060257620005cc8162000473565b620005d78462000488565b81016020851015620005e7578190505b620005ff620005f68562000488565b83018262000590565b50505b505050565b60008160020a8304905092915050565b60006200062a6000198460080262000607565b1980831691505092915050565b600062000645838362000617565b9150826002028217905092915050565b620006608262000404565b67ffffffffffffffff8111156200067c576200067b6200021b565b5b6200068882546200043e565b62000695828285620005b7565b600060209050601f831160018114620006cd5760008415620006b8578287015190505b620006c4858262000637565b86555062000734565b601f198416620006dd8662000473565b60005b828110156200070757848901518255600182019150602085019450602081019050620006e0565b8683101562000727578489015162000723601f89168262000617565b8355505b6001600288020188555050505b505050505050565b600082825260208201905092915050565b7f496e76616c696420496e74657266616365207265717565737400000000000000600082015250565b6000620007856019836200073c565b915062000792826200074d565b602082019050919050565b60006020820190508181036000830152620007b88162000776565b9050919050565b61046280620007cf6000396000f3fe608060405234801561001057600080fd5b506004361061005e576000357c01000000000000000000000000000000000000000000000000000000009004806301ffc9a71461006357806306fdde031461009357806395d89b41146100b1575b600080fd5b61007d600480360381019061007891906102b7565b6100cf565b60405161008a91906102ff565b60405180910390f35b61009b610136565b6040516100a891906103aa565b60405180910390f35b6100b96101c8565b6040516100c691906103aa565b60405180910390f35b6000806000837bffffffffffffffffffffffffffffffffffffffffffffffffffffffff19167bffffffffffffffffffffffffffffffffffffffffffffffffffffffff1916815260200190815260200160002060009054906101000a900460ff169050919050565b606060018054610145906103fb565b80601f0160208091040260200160405190810160405280929190818152602001828054610171906103fb565b80156101be5780601f10610193576101008083540402835291602001916101be565b820191906000526020600020905b8154815290600101906020018083116101a157829003601f168201915b5050505050905090565b6060600280546101d7906103fb565b80601f0160208091040260200160405190810160405280929190818152602001828054610203906103fb565b80156102505780601f1061022557610100808354040283529160200191610250565b820191906000526020600020905b81548152906001019060200180831161023357829003601f168201915b5050505050905090565b600080fd5b60007fffffffff0000000000000000000000000000000000000000000000000000000082169050919050565b6102948161025f565b811461029f57600080fd5b50565b6000813590506102b18161028b565b92915050565b6000602082840312156102cd576102cc61025a565b5b60006102db848285016102a2565b91505092915050565b60008115159050919050565b6102f9816102e4565b82525050565b600060208201905061031460008301846102f0565b92915050565b600081519050919050565b600082825260208201905092915050565b60005b83811015610354578082015181840152602081019050610339565b60008484015250505050565b6000601f19601f8301169050919050565b600061037c8261031a565b6103868185610325565b9350610396818560208601610336565b61039f81610360565b840191505092915050565b600060208201905081810360008301526103c48184610371565b905092915050565b7f4e487b7100000000000000000000000000000000000000000000000000000000600052602260045260246000fd5b6000600282049050600182168061041357607f821691505b602082108103610426576104256103cc565b5b5091905056fea26469706673582212204d447a3d1beb92f9e5f12c2d5c21c7ed6db7f29c5a55b41c0852b86399fd081364736f6c63430008110033",
  "immutableReferences": {},
  "source": "// SPDX-License-Identifier: MIT\r\npragma solidity >=0.4.22 <0.9.0;\r\n\r\nimport \"./interfaces/IERC721Metadata.sol\";\r\nimport \"./ERC165.sol\";\r\n\r\n// pragma solidity ^0.8.7;\r\n// pragma solidity ^0.7.0;\r\n\r\ncontract ERC721Metadata is IERC721Metadata, ERC165 {\r\n    string private _name;\r\n    string private _symbol;\r\n\r\n    constructor(string memory __name, string memory __symbol) public {\r\n        _registerInterface(\r\n            bytes4(keccak256(\"name(bytes4)\") ^ keccak256(\"symbol(bytes4)\"))\r\n        );\r\n\r\n        _name = __name;\r\n        _symbol = __symbol;\r\n    }\r\n\r\n    function name() external view override returns (string memory) {\r\n        return _name;\r\n    }\r\n\r\n    function symbol() external view override returns (string memory) {\r\n        return _symbol;\r\n    }\r\n    // function tokenURI(uint256 _tokenId) external view override returns (string memory);\r\n}\r\n",
  "sourcePath": "C:\\Users\\Neeraj\\Desktop\\Sterling Store\\src\\contracts\\ERC721Metadata.sol",
  "compiler": {
    "name": "solc",
    "version": "0.8.17+commit.8df45f5f.Emscripten.clang"
  },
  "schemaVersion": "3.4.11",
  "updatedAt": "2023-01-14T17:03:04.445Z",
  "networkType": "ethereum",
  "devdoc": {
    "kind": "dev",
    "methods": {},
    "version": 1
  },
  "userdoc": {
    "kind": "user",
    "methods": {},
    "version": 1
  }
}