{
  "contractName": "ERC721",
  "abi": [
    {
      "inputs": [],
      "stateMutability": "nonpayable",
      "type": "constructor"
    },
    {
      "anonymous": false,
      "inputs": [
        {
          "indexed": true,
          "internalType": "address",
          "name": "_owner",
          "type": "address"
        },
        {
          "indexed": true,
          "internalType": "address",
          "name": "_approved",
          "type": "address"
        },
        {
          "indexed": true,
          "internalType": "uint256",
          "name": "_tokenId",
          "type": "uint256"
        }
      ],
      "name": "Approval",
      "type": "event"
    },
    {
      "anonymous": false,
      "inputs": [
        {
          "indexed": true,
          "internalType": "address",
          "name": "_from",
          "type": "address"
        },
        {
          "indexed": true,
          "internalType": "address",
          "name": "_to",
          "type": "address"
        },
        {
          "indexed": true,
          "internalType": "uint256",
          "name": "_tokenId",
          "type": "uint256"
        }
      ],
      "name": "Transfer",
      "type": "event"
    },
    {
      "inputs": [
        {
          "internalType": "bytes4",
          "name": "interfaceID",
          "type": "bytes4"
        }
      ],
      "name": "supportsInterface",
      "outputs": [
        {
          "internalType": "bool",
          "name": "",
          "type": "bool"
        }
      ],
      "stateMutability": "view",
      "type": "function"
    },
    {
      "inputs": [
        {
          "internalType": "address",
          "name": "_owner",
          "type": "address"
        }
      ],
      "name": "ownerTokens",
      "outputs": [
        {
          "internalType": "uint256",
          "name": "",
          "type": "uint256"
        }
      ],
      "stateMutability": "view",
      "type": "function"
    },
    {
      "inputs": [
        {
          "internalType": "address",
          "name": "_owner",
          "type": "address"
        }
      ],
      "name": "balanceOf",
      "outputs": [
        {
          "internalType": "uint256",
          "name": "",
          "type": "uint256"
        }
      ],
      "stateMutability": "view",
      "type": "function"
    },
    {
      "inputs": [
        {
          "internalType": "uint256",
          "name": "_tokenId",
          "type": "uint256"
        }
      ],
      "name": "ownerOf",
      "outputs": [
        {
          "internalType": "address",
          "name": "",
          "type": "address"
        }
      ],
      "stateMutability": "view",
      "type": "function"
    },
    {
      "inputs": [
        {
          "internalType": "uint256",
          "name": "tokenId",
          "type": "uint256"
        }
      ],
      "name": "_exists",
      "outputs": [
        {
          "internalType": "bool",
          "name": "",
          "type": "bool"
        }
      ],
      "stateMutability": "view",
      "type": "function"
    },
    {
      "inputs": [
        {
          "internalType": "address",
          "name": "_from",
          "type": "address"
        },
        {
          "internalType": "address",
          "name": "_to",
          "type": "address"
        },
        {
          "internalType": "uint256",
          "name": "_tokenId",
          "type": "uint256"
        }
      ],
      "name": "transferFrom",
      "outputs": [],
      "stateMutability": "nonpayable",
      "type": "function"
    },
    {
      "inputs": [
        {
          "internalType": "address",
          "name": "_to",
          "type": "address"
        },
        {
          "internalType": "uint256",
          "name": "_tokenId",
          "type": "uint256"
        }
      ],
      "name": "approve",
      "outputs": [],
      "stateMutability": "nonpayable",
      "type": "function"
    }
  ],
  "bytecode": "0x60806040523480156200001157600080fd5b506200004c7f01ffc9a7a5cef8baa21ed3c5c0d7e23accb804b619e9333b597f47a0d84076e2620000d0640100000000026401000000009004565b620000ca7f22c82707ba960a14c7592ffb6b8cfaa073fed0048a84cc7fa41f6b5bd8e7f2e47f3a6eb71757dfc6e784c1459d26270140c2c147d95ca985c80026fc5301c3eca17f8a7e378434598edc36d108689a030cbc9d7d465de4f74c71bae1028eed6a881b1818620000d0640100000000026401000000009004565b62000246565b63ffffffff7c010000000000000000000000000000000000000000000000000000000002817bffffffffffffffffffffffffffffffffffffffffffffffffffffffff19160362000157576040517f08c379a00000000000000000000000000000000000000000000000000000000081526004016200014e9062000224565b60405180910390fd5b6001600080837bffffffffffffffffffffffffffffffffffffffffffffffffffffffff19167bffffffffffffffffffffffffffffffffffffffffffffffffffffffff1916815260200190815260200160002060006101000a81548160ff02191690831515021790555050565b600082825260208201905092915050565b7f496e76616c696420496e74657266616365207265717565737400000000000000600082015250565b60006200020c601983620001c3565b91506200021982620001d4565b602082019050919050565b600060208201905081810360008301526200023f81620001fd565b9050919050565b61101b80620002566000396000f3fe608060405234801561001057600080fd5b506004361061009a576000357c0100000000000000000000000000000000000000000000000000000000900480636352211e116100785780636352211e1461010757806370a0823114610137578063bba7723e14610167578063f8e76cc0146101975761009a565b806301ffc9a71461009f578063095ea7b3146100cf57806323b872dd146100eb575b600080fd5b6100b960048036038101906100b49190610979565b6101c7565b6040516100c691906109c1565b60405180910390f35b6100e960048036038101906100e49190610a70565b61022e565b005b61010560048036038101906101009190610ab0565b6103c9565b005b610121600480360381019061011c9190610b03565b6103ec565b60405161012e9190610b3f565b60405180910390f35b610151600480360381019061014c9190610b5a565b6104ca565b60405161015e9190610b96565b60405180910390f35b610181600480360381019061017c9190610b5a565b610584565b60405161018e9190610b96565b60405180910390f35b6101b160048036038101906101ac9190610b03565b6105cd565b6040516101be91906109c1565b60405180910390f35b6000806000837bffffffffffffffffffffffffffffffffffffffffffffffffffffffff19167bffffffffffffffffffffffffffffffffffffffffffffffffffffffff1916815260200190815260200160002060009054906101000a900460ff169050919050565b6000610239826103ec565b90508073ffffffffffffffffffffffffffffffffffffffff168373ffffffffffffffffffffffffffffffffffffffff16036102a9576040517f08c379a00000000000000000000000000000000000000000000000000000000081526004016102a090610c34565b60405180910390fd5b8073ffffffffffffffffffffffffffffffffffffffff163373ffffffffffffffffffffffffffffffffffffffff1614610317576040517f08c379a000000000000000000000000000000000000000000000000000000000815260040161030e90610cc6565b60405180910390fd5b826003600084815260200190815260200160002060006101000a81548173ffffffffffffffffffffffffffffffffffffffff021916908373ffffffffffffffffffffffffffffffffffffffff160217905550818373ffffffffffffffffffffffffffffffffffffffff168273ffffffffffffffffffffffffffffffffffffffff167f8c5be1e5ebec7d5bd14f71427d1e84f3dd0314c0f7b2291e5b200ac8c7c3b92560405160405180910390a4505050565b6103d33382610648565b6103dc57600080fd5b6103e78383836106d7565b505050565b60008073ffffffffffffffffffffffffffffffffffffffff166001600084815260200190815260200160002060009054906101000a900473ffffffffffffffffffffffffffffffffffffffff1673ffffffffffffffffffffffffffffffffffffffff160361048f576040517f08c379a000000000000000000000000000000000000000000000000000000000815260040161048690610d32565b60405180910390fd5b6001600083815260200190815260200160002060009054906101000a900473ffffffffffffffffffffffffffffffffffffffff169050919050565b600081600073ffffffffffffffffffffffffffffffffffffffff168173ffffffffffffffffffffffffffffffffffffffff160361053c576040517f08c379a000000000000000000000000000000000000000000000000000000000815260040161053390610d9e565b60405180910390fd5b600260008473ffffffffffffffffffffffffffffffffffffffff1673ffffffffffffffffffffffffffffffffffffffff16815260200190815260200160002054915050919050565b6000600260008373ffffffffffffffffffffffffffffffffffffffff1673ffffffffffffffffffffffffffffffffffffffff168152602001908152602001600020549050919050565b60008073ffffffffffffffffffffffffffffffffffffffff166001600084815260200190815260200160002060009054906101000a900473ffffffffffffffffffffffffffffffffffffffff1673ffffffffffffffffffffffffffffffffffffffff160361063e5760009050610643565b600190505b919050565b6000610653826105cd565b610692576040517f08c379a000000000000000000000000000000000000000000000000000000000815260040161068990610e0a565b60405180910390fd5b600061069d836103ec565b90508073ffffffffffffffffffffffffffffffffffffffff168473ffffffffffffffffffffffffffffffffffffffff161491505092915050565b600073ffffffffffffffffffffffffffffffffffffffff168273ffffffffffffffffffffffffffffffffffffffff1603610746576040517f08c379a000000000000000000000000000000000000000000000000000000000815260040161073d90610e9c565b60405180910390fd5b8273ffffffffffffffffffffffffffffffffffffffff16610766826103ec565b73ffffffffffffffffffffffffffffffffffffffff16146107bc576040517f08c379a00000000000000000000000000000000000000000000000000000000081526004016107b390610f2e565b60405180910390fd5b6001600260008573ffffffffffffffffffffffffffffffffffffffff1673ffffffffffffffffffffffffffffffffffffffff168152602001908152602001600020600082825461080c9190610f7d565b925050819055506001600260008473ffffffffffffffffffffffffffffffffffffffff1673ffffffffffffffffffffffffffffffffffffffff16815260200190815260200160002060008282546108639190610fb1565b92505081905550816001600083815260200190815260200160002060006101000a81548173ffffffffffffffffffffffffffffffffffffffff021916908373ffffffffffffffffffffffffffffffffffffffff160217905550808273ffffffffffffffffffffffffffffffffffffffff168473ffffffffffffffffffffffffffffffffffffffff167fddf252ad1be2c89b69c2b068fc378daa952ba7f163c4a11628f55a4df523b3ef60405160405180910390a4505050565b600080fd5b60007fffffffff0000000000000000000000000000000000000000000000000000000082169050919050565b61095681610921565b811461096157600080fd5b50565b6000813590506109738161094d565b92915050565b60006020828403121561098f5761098e61091c565b5b600061099d84828501610964565b91505092915050565b60008115159050919050565b6109bb816109a6565b82525050565b60006020820190506109d660008301846109b2565b92915050565b600073ffffffffffffffffffffffffffffffffffffffff82169050919050565b6000610a07826109dc565b9050919050565b610a17816109fc565b8114610a2257600080fd5b50565b600081359050610a3481610a0e565b92915050565b6000819050919050565b610a4d81610a3a565b8114610a5857600080fd5b50565b600081359050610a6a81610a44565b92915050565b60008060408385031215610a8757610a8661091c565b5b6000610a9585828601610a25565b9250506020610aa685828601610a5b565b9150509250929050565b600080600060608486031215610ac957610ac861091c565b5b6000610ad786828701610a25565b9350506020610ae886828701610a25565b9250506040610af986828701610a5b565b9150509250925092565b600060208284031215610b1957610b1861091c565b5b6000610b2784828501610a5b565b91505092915050565b610b39816109fc565b82525050565b6000602082019050610b546000830184610b30565b92915050565b600060208284031215610b7057610b6f61091c565b5b6000610b7e84828501610a25565b91505092915050565b610b9081610a3a565b82525050565b6000602082019050610bab6000830184610b87565b92915050565b600082825260208201905092915050565b7f4572726f72202d20617070726f76616c20746f2063757272656e74206f776e6560008201527f7200000000000000000000000000000000000000000000000000000000000000602082015250565b6000610c1e602183610bb1565b9150610c2982610bc2565b604082019050919050565b60006020820190508181036000830152610c4d81610c11565b9050919050565b7f43757272656e742063616c6c6572206973206e6f7420746865206f776e65726f60008201527f662074686520746f6b656e000000000000000000000000000000000000000000602082015250565b6000610cb0602b83610bb1565b9150610cbb82610c54565b604082019050919050565b60006020820190508181036000830152610cdf81610ca3565b9050919050565b7f546f6b656e20646f65736e277420657869737421000000000000000000000000600082015250565b6000610d1c601483610bb1565b9150610d2782610ce6565b602082019050919050565b60006020820190508181036000830152610d4b81610d0f565b9050919050565b7f546f6b656e20446f65736e277420457869737473000000000000000000000000600082015250565b6000610d88601483610bb1565b9150610d9382610d52565b602082019050919050565b60006020820190508181036000830152610db781610d7b565b9050919050565b7f746f6b656e20646f6573206e6f74206578697374730000000000000000000000600082015250565b6000610df4601583610bb1565b9150610dff82610dbe565b602082019050919050565b60006020820190508181036000830152610e2381610de7565b9050919050565b7f4572726f72202d20455243373231205472616e7366657220746f20302041646460008201527f7265737300000000000000000000000000000000000000000000000000000000602082015250565b6000610e86602483610bb1565b9150610e9182610e2a565b604082019050919050565b60006020820190508181036000830152610eb581610e79565b9050919050565b7f547279696e6720746f207472616e73666572206120746f6b656e20746865206160008201527f64647265737320646f6573206e6f74202d2d2d2d2d0000000000000000000000602082015250565b6000610f18603583610bb1565b9150610f2382610ebc565b604082019050919050565b60006020820190508181036000830152610f4781610f0b565b9050919050565b7f4e487b7100000000000000000000000000000000000000000000000000000000600052601160045260246000fd5b6000610f8882610a3a565b9150610f9383610a3a565b9250828203905081811115610fab57610faa610f4e565b5b92915050565b6000610fbc82610a3a565b9150610fc783610a3a565b9250828201905080821115610fdf57610fde610f4e565b5b9291505056fea26469706673582212209b71581cb88a2cd415b31c85d61b1d99c747db0d4766f049b104e09c1ecd842b64736f6c63430008110033",
  "immutableReferences": {},
  "source": "// SPDX-License-Identifier: MIT\r\npragma solidity >=0.4.22 <0.9.0;\r\n\r\nimport \"./ERC165.sol\";\r\nimport \"./interfaces/IERC721.sol\";\r\n\r\n// pragma solidity ^0.8.7;\r\n// pragma solidity ^0.7.0;\r\n\r\n// Building the minting function\r\n// a. NFT to point to an address.\r\n// b. Keep track of the token IDS.\r\n// c. Keep track of the token owner addresses to token IDS.\r\n// d. Keep track of how many tokens does an owner have.\r\n// e. create a event that emita a transfer log - where is it being minted to and the id.\r\n\r\ncontract ERC721 is ERC165, IERC721 {\r\n    // event Transfer(\r\n    //     address indexed from,\r\n    //     address indexed to,\r\n    //     uint256 indexed tokenId\r\n    // );\r\n    // event Approval(\r\n    //     address indexed owner,\r\n    //     address indexed approved,\r\n    //     uint256 indexed tokenId\r\n    // );\r\n\r\n    // Mapping from token id to the owner.\r\n    mapping(uint256 => address) private _tokenOwner;\r\n    // Mapping from owner to the number of owned tokens.\r\n    mapping(address => uint256) private _ownedTokensCount;\r\n    // Mapping from token id to approval address\r\n    mapping(uint256 => address) private _tokenApprovals;\r\n    //this is my self created function of modifier which is used in balance of.\r\n    modifier restrict(address _owner) {\r\n        require(_owner != address(0), \"Token Doesn't Exists\");\r\n        _;\r\n    }\r\n\r\n    function ownerTokens(address _owner) public view returns (uint256) {\r\n        return _ownedTokensCount[_owner];\r\n    }\r\n\r\n    constructor() {\r\n        _registerInterface(\r\n            bytes4(\r\n                keccak256(\"balanceOf(bytes4)\") ^\r\n                    keccak256(\"ownerOf(bytes4)\") ^\r\n                    keccak256(\"transferFrom(bytes4)\")\r\n            )\r\n        );\r\n    }\r\n\r\n    //Creating Balanceof Function\r\n    function balanceOf(address _owner)\r\n        public\r\n        view\r\n        override\r\n        restrict(_owner)\r\n        returns (uint256)\r\n    {\r\n        return _ownedTokensCount[_owner];\r\n    }\r\n\r\n    //ownerOf function that finds the Owner of the NFT.\r\n    function ownerOf(uint256 _tokenId) public view returns (address) {\r\n        require(_tokenOwner[_tokenId] != address(0), \"Token doesn't exist!\");\r\n        return _tokenOwner[_tokenId];\r\n        // address owner =  _tokenOwner[_tokenId];\r\n        // require(owner !=address(0),'Owner query for non existent ')\r\n        // return owner;\r\n    }\r\n\r\n    function _exists(uint256 tokenId) public view returns (bool) {\r\n        if (_tokenOwner[tokenId] == address(0)) {\r\n            return false;\r\n        }\r\n        return true;\r\n        //this is other code..\r\n        // address owner = _tokenOwner[tokenId];\r\n        // return owner!=address(0);\r\n    }\r\n\r\n    //Mint function\r\n    function _mint(address to, uint256 tokenId) internal virtual {\r\n        // function _mint(address to, uint256 tokenId) public virtual {\r\n        //virtual\r\n        //requires that the address is a valid and not 0.\r\n        require(to != address(0), \"ERC721: minting to the 0 address.\");\r\n        //checking that the token doesn't already exists.\r\n        require(!_exists(tokenId), \"ERC721: token already exists.\");\r\n        //minting\r\n        _tokenOwner[tokenId] = to;\r\n        //keeping track of each address that is minting and adding one.\r\n        _ownedTokensCount[to] += 1;\r\n\r\n        //currently setting the from address =  address 0.\r\n        emit Transfer(address(0), to, tokenId);\r\n    }\r\n\r\n    function _transferFrom(\r\n        address _from,\r\n        address _to,\r\n        uint256 _tokenId\r\n    ) internal {\r\n        require(_to != address(0), \"Error - ERC721 Transfer to 0 Address\");\r\n        require(\r\n            ownerOf(_tokenId) == _from,\r\n            \"Trying to transfer a token the address does not -----\"\r\n        );\r\n        _ownedTokensCount[_from] -= 1;\r\n        _ownedTokensCount[_to] += 1;\r\n        _tokenOwner[_tokenId] = _to;\r\n        emit Transfer(_from, _to, _tokenId);\r\n    }\r\n\r\n    function transferFrom(\r\n        address _from,\r\n        address _to,\r\n        uint256 _tokenId\r\n    ) external override {\r\n        //payable\r\n        require(isApprovedOrOwner(msg.sender, _tokenId));\r\n        _transferFrom(_from, _to, _tokenId);\r\n    }\r\n\r\n    //require that the person approving is the owner, approving an address to tokenId(token), require that we can't approve sending tokens of the owner to the owner\r\n    // update the map of the approval address\r\n    function approve(address _to, uint256 _tokenId) public {\r\n        address owner = ownerOf(_tokenId);\r\n        require(_to != owner, \"Error - approval to current owner\");\r\n        require(\r\n            msg.sender == owner,\r\n            \"Current caller is not the ownerof the token\"\r\n        );\r\n        _tokenApprovals[_tokenId] = _to;\r\n        emit Approval(owner, _to, _tokenId);\r\n    }\r\n\r\n    function isApprovedOrOwner(address _spender, uint256 _tokenId)\r\n        internal\r\n        view\r\n        returns (bool)\r\n    {\r\n        require(_exists(_tokenId), \"token does not exists\");\r\n        address owner = ownerOf(_tokenId);\r\n        return (_spender == owner);\r\n    }\r\n\r\n    /**\r\n    \r\n    approve(to, tokenId)\r\n    getApproved(tokenId)\r\n    setApprovalForAll(to, approved)\r\n    isApprovedForAll(owner, operator)\r\n    transferFrom(from, to, tokenId)\r\n    safeTransferFrom(from, to, tokenId)\r\n    safeTransferFrom(from, to, tokenId, _data)\r\n    _safeTransferFrom(from, to, tokenId, _data)\r\n    \r\n    _isApprovedOrOwner(spender, tokenId)\r\n    _safeMint(to, tokenId)\r\n    _safeMint(to, tokenId, _data)\r\n    \r\n    _burn(owner, tokenId)\r\n    _burn(tokenId)\r\n    _transferFrom(from, to, tokenId)\r\n    _checkOnERC721Received(from, to, tokenId, _data)\r\n    **/\r\n}\r\n",
  "sourcePath": "C:\\Users\\Neeraj\\Desktop\\Sterling Store\\src\\contracts\\ERC721.sol",
  "compiler": {
    "name": "solc",
    "version": "0.8.17+commit.8df45f5f.Emscripten.clang"
  },
  "schemaVersion": "3.4.11",
  "updatedAt": "2023-01-17T11:04:29.704Z",
  "devdoc": {
    "kind": "dev",
    "methods": {},
    "version": 1
  },
  "userdoc": {
    "kind": "user",
    "methods": {},
    "version": 1
  }
}