{
  "contractName": "NFT",
  "abi": [
    {
      "inputs": [],
      "stateMutability": "nonpayable",
      "type": "constructor"
    },
    {
      "anonymous": false,
      "inputs": [
        {
          "indexed": true,
          "internalType": "address",
          "name": "owner",
          "type": "address"
        },
        {
          "indexed": true,
          "internalType": "address",
          "name": "approved",
          "type": "address"
        },
        {
          "indexed": true,
          "internalType": "uint256",
          "name": "tokenId",
          "type": "uint256"
        }
      ],
      "name": "Approval",
      "type": "event"
    },
    {
      "anonymous": false,
      "inputs": [
        {
          "indexed": true,
          "internalType": "address",
          "name": "owner",
          "type": "address"
        },
        {
          "indexed": true,
          "internalType": "address",
          "name": "operator",
          "type": "address"
        },
        {
          "indexed": false,
          "internalType": "bool",
          "name": "approved",
          "type": "bool"
        }
      ],
      "name": "ApprovalForAll",
      "type": "event"
    },
    {
      "anonymous": false,
      "inputs": [
        {
          "indexed": false,
          "internalType": "address",
          "name": "from",
          "type": "address"
        },
        {
          "indexed": false,
          "internalType": "address",
          "name": "to",
          "type": "address"
        },
        {
          "indexed": false,
          "internalType": "uint256",
          "name": "_tokenId",
          "type": "uint256"
        }
      ],
      "name": "Stake",
      "type": "event"
    },
    {
      "anonymous": false,
      "inputs": [
        {
          "indexed": true,
          "internalType": "address",
          "name": "from",
          "type": "address"
        },
        {
          "indexed": true,
          "internalType": "address",
          "name": "to",
          "type": "address"
        },
        {
          "indexed": true,
          "internalType": "uint256",
          "name": "tokenId",
          "type": "uint256"
        }
      ],
      "name": "Transfer",
      "type": "event"
    },
    {
      "anonymous": false,
      "inputs": [
        {
          "indexed": false,
          "internalType": "address",
          "name": "to",
          "type": "address"
        },
        {
          "indexed": false,
          "internalType": "uint256",
          "name": "_tokenId",
          "type": "uint256"
        }
      ],
      "name": "mintEvent",
      "type": "event"
    },
    {
      "inputs": [
        {
          "internalType": "address",
          "name": "",
          "type": "address"
        },
        {
          "internalType": "uint256",
          "name": "",
          "type": "uint256"
        }
      ],
      "name": "AllGenericNFT",
      "outputs": [
        {
          "internalType": "uint256",
          "name": "",
          "type": "uint256"
        }
      ],
      "stateMutability": "view",
      "type": "function"
    },
    {
      "inputs": [
        {
          "internalType": "address",
          "name": "",
          "type": "address"
        },
        {
          "internalType": "uint256",
          "name": "",
          "type": "uint256"
        }
      ],
      "name": "AllNonTransferrableNFT",
      "outputs": [
        {
          "internalType": "uint256",
          "name": "",
          "type": "uint256"
        }
      ],
      "stateMutability": "view",
      "type": "function"
    },
    {
      "inputs": [
        {
          "internalType": "address",
          "name": "",
          "type": "address"
        },
        {
          "internalType": "uint256",
          "name": "",
          "type": "uint256"
        }
      ],
      "name": "AllPreLaunchNFT",
      "outputs": [
        {
          "internalType": "uint256",
          "name": "",
          "type": "uint256"
        }
      ],
      "stateMutability": "view",
      "type": "function"
    },
    {
      "inputs": [
        {
          "internalType": "address",
          "name": "",
          "type": "address"
        },
        {
          "internalType": "uint256",
          "name": "",
          "type": "uint256"
        }
      ],
      "name": "AllSpecialNFT",
      "outputs": [
        {
          "internalType": "uint256",
          "name": "",
          "type": "uint256"
        }
      ],
      "stateMutability": "view",
      "type": "function"
    },
    {
      "inputs": [
        {
          "internalType": "address",
          "name": "",
          "type": "address"
        },
        {
          "internalType": "uint256",
          "name": "",
          "type": "uint256"
        }
      ],
      "name": "AllStakedNFT",
      "outputs": [
        {
          "internalType": "uint256",
          "name": "",
          "type": "uint256"
        }
      ],
      "stateMutability": "view",
      "type": "function"
    },
    {
      "inputs": [
        {
          "internalType": "uint256",
          "name": "",
          "type": "uint256"
        }
      ],
      "name": "NFTinfo",
      "outputs": [
        {
          "internalType": "bool",
          "name": "minted",
          "type": "bool"
        },
        {
          "internalType": "string",
          "name": "name",
          "type": "string"
        },
        {
          "internalType": "string",
          "name": "description",
          "type": "string"
        },
        {
          "internalType": "string",
          "name": "url",
          "type": "string"
        },
        {
          "internalType": "string",
          "name": "trxnHash",
          "type": "string"
        },
        {
          "internalType": "uint256",
          "name": "nftType",
          "type": "uint256"
        },
        {
          "internalType": "uint256",
          "name": "boughtOn",
          "type": "uint256"
        },
        {
          "internalType": "address",
          "name": "seller",
          "type": "address"
        },
        {
          "internalType": "uint256",
          "name": "ExpireOn",
          "type": "uint256"
        },
        {
          "internalType": "bool",
          "name": "expireable",
          "type": "bool"
        }
      ],
      "stateMutability": "view",
      "type": "function"
    },
    {
      "inputs": [
        {
          "internalType": "uint256",
          "name": "",
          "type": "uint256"
        }
      ],
      "name": "NFTs",
      "outputs": [
        {
          "internalType": "string",
          "name": "",
          "type": "string"
        }
      ],
      "stateMutability": "view",
      "type": "function"
    },
    {
      "inputs": [
        {
          "internalType": "address",
          "name": "to",
          "type": "address"
        },
        {
          "internalType": "uint256",
          "name": "tokenId",
          "type": "uint256"
        }
      ],
      "name": "approve",
      "outputs": [],
      "stateMutability": "nonpayable",
      "type": "function"
    },
    {
      "inputs": [
        {
          "internalType": "address",
          "name": "owner",
          "type": "address"
        }
      ],
      "name": "balanceOf",
      "outputs": [
        {
          "internalType": "uint256",
          "name": "",
          "type": "uint256"
        }
      ],
      "stateMutability": "view",
      "type": "function"
    },
    {
      "inputs": [],
      "name": "boughtOnDate",
      "outputs": [
        {
          "internalType": "uint256",
          "name": "",
          "type": "uint256"
        }
      ],
      "stateMutability": "view",
      "type": "function"
    },
    {
      "inputs": [
        {
          "internalType": "uint256",
          "name": "tokenId",
          "type": "uint256"
        }
      ],
      "name": "getApproved",
      "outputs": [
        {
          "internalType": "address",
          "name": "",
          "type": "address"
        }
      ],
      "stateMutability": "view",
      "type": "function"
    },
    {
      "inputs": [
        {
          "internalType": "address",
          "name": "owner",
          "type": "address"
        },
        {
          "internalType": "address",
          "name": "operator",
          "type": "address"
        }
      ],
      "name": "isApprovedForAll",
      "outputs": [
        {
          "internalType": "bool",
          "name": "",
          "type": "bool"
        }
      ],
      "stateMutability": "view",
      "type": "function"
    },
    {
      "inputs": [],
      "name": "name",
      "outputs": [
        {
          "internalType": "string",
          "name": "",
          "type": "string"
        }
      ],
      "stateMutability": "view",
      "type": "function"
    },
    {
      "inputs": [],
      "name": "owner",
      "outputs": [
        {
          "internalType": "address",
          "name": "",
          "type": "address"
        }
      ],
      "stateMutability": "view",
      "type": "function"
    },
    {
      "inputs": [
        {
          "internalType": "uint256",
          "name": "tokenId",
          "type": "uint256"
        }
      ],
      "name": "ownerOf",
      "outputs": [
        {
          "internalType": "address",
          "name": "",
          "type": "address"
        }
      ],
      "stateMutability": "view",
      "type": "function"
    },
    {
      "inputs": [
        {
          "internalType": "address",
          "name": "from",
          "type": "address"
        },
        {
          "internalType": "address",
          "name": "to",
          "type": "address"
        },
        {
          "internalType": "uint256",
          "name": "tokenId",
          "type": "uint256"
        }
      ],
      "name": "safeTransferFrom",
      "outputs": [],
      "stateMutability": "nonpayable",
      "type": "function"
    },
    {
      "inputs": [
        {
          "internalType": "address",
          "name": "from",
          "type": "address"
        },
        {
          "internalType": "address",
          "name": "to",
          "type": "address"
        },
        {
          "internalType": "uint256",
          "name": "tokenId",
          "type": "uint256"
        },
        {
          "internalType": "bytes",
          "name": "data",
          "type": "bytes"
        }
      ],
      "name": "safeTransferFrom",
      "outputs": [],
      "stateMutability": "nonpayable",
      "type": "function"
    },
    {
      "inputs": [
        {
          "internalType": "address",
          "name": "operator",
          "type": "address"
        },
        {
          "internalType": "bool",
          "name": "approved",
          "type": "bool"
        }
      ],
      "name": "setApprovalForAll",
      "outputs": [],
      "stateMutability": "nonpayable",
      "type": "function"
    },
    {
      "inputs": [
        {
          "internalType": "bytes4",
          "name": "interfaceId",
          "type": "bytes4"
        }
      ],
      "name": "supportsInterface",
      "outputs": [
        {
          "internalType": "bool",
          "name": "",
          "type": "bool"
        }
      ],
      "stateMutability": "view",
      "type": "function"
    },
    {
      "inputs": [],
      "name": "symbol",
      "outputs": [
        {
          "internalType": "string",
          "name": "",
          "type": "string"
        }
      ],
      "stateMutability": "view",
      "type": "function"
    },
    {
      "inputs": [],
      "name": "tempExp",
      "outputs": [
        {
          "internalType": "uint256",
          "name": "",
          "type": "uint256"
        }
      ],
      "stateMutability": "view",
      "type": "function"
    },
    {
      "inputs": [
        {
          "internalType": "uint256",
          "name": "tokenId",
          "type": "uint256"
        }
      ],
      "name": "tokenURI",
      "outputs": [
        {
          "internalType": "string",
          "name": "",
          "type": "string"
        }
      ],
      "stateMutability": "view",
      "type": "function"
    },
    {
      "inputs": [
        {
          "internalType": "address",
          "name": "from",
          "type": "address"
        },
        {
          "internalType": "address",
          "name": "to",
          "type": "address"
        },
        {
          "internalType": "uint256",
          "name": "tokenId",
          "type": "uint256"
        }
      ],
      "name": "transferFrom",
      "outputs": [],
      "stateMutability": "nonpayable",
      "type": "function"
    },
    {
      "inputs": [
        {
          "internalType": "uint256",
          "name": "tokenId",
          "type": "uint256"
        },
        {
          "internalType": "string",
          "name": "_nftURL",
          "type": "string"
        }
      ],
      "name": "setURL",
      "outputs": [],
      "stateMutability": "nonpayable",
      "type": "function"
    },
    {
      "inputs": [
        {
          "internalType": "uint256",
          "name": "tokenId",
          "type": "uint256"
        },
        {
          "internalType": "uint256",
          "name": "_NumberOfItems",
          "type": "uint256"
        },
        {
          "internalType": "uint256",
          "name": "_cap",
          "type": "uint256"
        }
      ],
      "name": "buyBulk",
      "outputs": [],
      "stateMutability": "nonpayable",
      "type": "function"
    },
    {
      "inputs": [
        {
          "internalType": "uint256",
          "name": "_tokenId",
          "type": "uint256"
        }
      ],
      "name": "viewNFTPropByIndex1",
      "outputs": [
        {
          "internalType": "string",
          "name": "",
          "type": "string"
        },
        {
          "internalType": "string",
          "name": "",
          "type": "string"
        },
        {
          "internalType": "string",
          "name": "",
          "type": "string"
        },
        {
          "internalType": "string",
          "name": "",
          "type": "string"
        },
        {
          "internalType": "uint256",
          "name": "",
          "type": "uint256"
        }
      ],
      "stateMutability": "view",
      "type": "function"
    },
    {
      "inputs": [
        {
          "internalType": "uint256",
          "name": "_tokenId",
          "type": "uint256"
        }
      ],
      "name": "viewNFTPropByIndex2",
      "outputs": [
        {
          "internalType": "uint256",
          "name": "",
          "type": "uint256"
        },
        {
          "internalType": "address",
          "name": "",
          "type": "address"
        },
        {
          "internalType": "uint256",
          "name": "",
          "type": "uint256"
        },
        {
          "internalType": "bool",
          "name": "",
          "type": "bool"
        }
      ],
      "stateMutability": "view",
      "type": "function"
    },
    {
      "inputs": [
        {
          "internalType": "uint256",
          "name": "_tokenId",
          "type": "uint256"
        },
        {
          "internalType": "bool",
          "name": "_minted",
          "type": "bool"
        },
        {
          "internalType": "string",
          "name": "_name",
          "type": "string"
        },
        {
          "internalType": "string",
          "name": "_description",
          "type": "string"
        },
        {
          "internalType": "string",
          "name": "_url",
          "type": "string"
        },
        {
          "internalType": "string",
          "name": "_trxnHash",
          "type": "string"
        },
        {
          "internalType": "uint256",
          "name": "_nftType",
          "type": "uint256"
        },
        {
          "internalType": "uint256",
          "name": "_boughtOn",
          "type": "uint256"
        },
        {
          "internalType": "address",
          "name": "_seller",
          "type": "address"
        },
        {
          "internalType": "uint256",
          "name": "_ExpireOn",
          "type": "uint256"
        },
        {
          "internalType": "bool",
          "name": "_expireable",
          "type": "bool"
        }
      ],
      "name": "addNftProp",
      "outputs": [],
      "stateMutability": "nonpayable",
      "type": "function"
    },
    {
      "inputs": [],
      "name": "addNewBoughtOn",
      "outputs": [],
      "stateMutability": "nonpayable",
      "type": "function"
    },
    {
      "inputs": [
        {
          "internalType": "uint256",
          "name": "_exp",
          "type": "uint256"
        }
      ],
      "name": "addTempExp",
      "outputs": [],
      "stateMutability": "nonpayable",
      "type": "function"
    },
    {
      "inputs": [
        {
          "internalType": "uint256",
          "name": "_expiryDate",
          "type": "uint256"
        },
        {
          "internalType": "uint256",
          "name": "_tokenId",
          "type": "uint256"
        }
      ],
      "name": "addExpiredOn",
      "outputs": [],
      "stateMutability": "nonpayable",
      "type": "function"
    },
    {
      "inputs": [
        {
          "internalType": "uint256",
          "name": "__ExpireOn",
          "type": "uint256"
        }
      ],
      "name": "ifTimeHasPassed",
      "outputs": [
        {
          "internalType": "bool",
          "name": "",
          "type": "bool"
        }
      ],
      "stateMutability": "view",
      "type": "function"
    },
    {
      "inputs": [
        {
          "internalType": "address",
          "name": "_off",
          "type": "address"
        }
      ],
      "name": "AllSpecialNFTLength",
      "outputs": [
        {
          "internalType": "uint256",
          "name": "",
          "type": "uint256"
        }
      ],
      "stateMutability": "view",
      "type": "function"
    },
    {
      "inputs": [],
      "name": "nftsLen",
      "outputs": [
        {
          "internalType": "uint256",
          "name": "",
          "type": "uint256"
        }
      ],
      "stateMutability": "view",
      "type": "function"
    },
    {
      "inputs": [
        {
          "internalType": "uint256",
          "name": "_id",
          "type": "uint256"
        }
      ],
      "name": "nftVal",
      "outputs": [
        {
          "internalType": "string",
          "name": "",
          "type": "string"
        }
      ],
      "stateMutability": "view",
      "type": "function"
    },
    {
      "inputs": [
        {
          "internalType": "string",
          "name": "_nft",
          "type": "string"
        },
        {
          "internalType": "bool",
          "name": "_minted",
          "type": "bool"
        },
        {
          "internalType": "string",
          "name": "_name",
          "type": "string"
        },
        {
          "internalType": "string",
          "name": "_description",
          "type": "string"
        },
        {
          "internalType": "string",
          "name": "_url",
          "type": "string"
        },
        {
          "internalType": "string",
          "name": "_trxnHash",
          "type": "string"
        },
        {
          "internalType": "uint256",
          "name": "_nftType",
          "type": "uint256"
        },
        {
          "internalType": "uint256",
          "name": "_boughtOn",
          "type": "uint256"
        },
        {
          "internalType": "address",
          "name": "_seller",
          "type": "address"
        },
        {
          "internalType": "uint256",
          "name": "_ExpireOn",
          "type": "uint256"
        },
        {
          "internalType": "address",
          "name": "_off",
          "type": "address"
        }
      ],
      "name": "_NonTransferableNFT",
      "outputs": [],
      "stateMutability": "nonpayable",
      "type": "function"
    },
    {
      "inputs": [
        {
          "internalType": "string",
          "name": "_nft",
          "type": "string"
        },
        {
          "internalType": "bool",
          "name": "_minted",
          "type": "bool"
        },
        {
          "internalType": "string",
          "name": "_name",
          "type": "string"
        },
        {
          "internalType": "string",
          "name": "_description",
          "type": "string"
        },
        {
          "internalType": "string",
          "name": "_url",
          "type": "string"
        },
        {
          "internalType": "string",
          "name": "_trxnHash",
          "type": "string"
        },
        {
          "internalType": "uint256",
          "name": "_nftType",
          "type": "uint256"
        },
        {
          "internalType": "uint256",
          "name": "_boughtOn",
          "type": "uint256"
        },
        {
          "internalType": "address",
          "name": "_seller",
          "type": "address"
        },
        {
          "internalType": "uint256",
          "name": "_ExpireOn",
          "type": "uint256"
        },
        {
          "internalType": "address",
          "name": "_off",
          "type": "address"
        }
      ],
      "name": "_PreLaunch",
      "outputs": [],
      "stateMutability": "nonpayable",
      "type": "function"
    },
    {
      "inputs": [
        {
          "internalType": "string",
          "name": "_nft",
          "type": "string"
        },
        {
          "internalType": "bool",
          "name": "_minted",
          "type": "bool"
        },
        {
          "internalType": "string",
          "name": "_name",
          "type": "string"
        },
        {
          "internalType": "string",
          "name": "_description",
          "type": "string"
        },
        {
          "internalType": "string",
          "name": "_url",
          "type": "string"
        },
        {
          "internalType": "string",
          "name": "_trxnHash",
          "type": "string"
        },
        {
          "internalType": "uint256",
          "name": "_nftType",
          "type": "uint256"
        },
        {
          "internalType": "uint256",
          "name": "_boughtOn",
          "type": "uint256"
        },
        {
          "internalType": "address",
          "name": "_seller",
          "type": "address"
        },
        {
          "internalType": "uint256",
          "name": "_ExpireOn",
          "type": "uint256"
        },
        {
          "internalType": "address",
          "name": "_off",
          "type": "address"
        }
      ],
      "name": "_Generic",
      "outputs": [],
      "stateMutability": "nonpayable",
      "type": "function"
    },
    {
      "inputs": [
        {
          "internalType": "string",
          "name": "_nft",
          "type": "string"
        },
        {
          "internalType": "bool",
          "name": "_minted",
          "type": "bool"
        },
        {
          "internalType": "string",
          "name": "_name",
          "type": "string"
        },
        {
          "internalType": "string",
          "name": "_description",
          "type": "string"
        },
        {
          "internalType": "string",
          "name": "_url",
          "type": "string"
        },
        {
          "internalType": "string",
          "name": "_trxnHash",
          "type": "string"
        },
        {
          "internalType": "uint256",
          "name": "_nftType",
          "type": "uint256"
        },
        {
          "internalType": "uint256",
          "name": "_boughtOn",
          "type": "uint256"
        },
        {
          "internalType": "address",
          "name": "_seller",
          "type": "address"
        },
        {
          "internalType": "uint256",
          "name": "_ExpireOn",
          "type": "uint256"
        },
        {
          "internalType": "address",
          "name": "_off",
          "type": "address"
        }
      ],
      "name": "_Special",
      "outputs": [],
      "stateMutability": "nonpayable",
      "type": "function"
    },
    {
      "inputs": [
        {
          "internalType": "address",
          "name": "_of",
          "type": "address"
        },
        {
          "internalType": "string",
          "name": "__url",
          "type": "string"
        }
      ],
      "name": "removeAllExpiredNFT",
      "outputs": [],
      "stateMutability": "nonpayable",
      "type": "function"
    },
    {
      "inputs": [
        {
          "internalType": "string",
          "name": "_nft",
          "type": "string"
        }
      ],
      "name": "mint",
      "outputs": [],
      "stateMutability": "nonpayable",
      "type": "function"
    },
    {
      "inputs": [
        {
          "internalType": "address",
          "name": "to",
          "type": "address"
        },
        {
          "internalType": "string",
          "name": "_nft",
          "type": "string"
        }
      ],
      "name": "mintToOthers",
      "outputs": [],
      "stateMutability": "nonpayable",
      "type": "function"
    },
    {
      "inputs": [
        {
          "internalType": "address",
          "name": "_off",
          "type": "address"
        },
        {
          "internalType": "uint256",
          "name": "_till",
          "type": "uint256"
        }
      ],
      "name": "StakeSpecialNFT",
      "outputs": [],
      "stateMutability": "nonpayable",
      "type": "function"
    },
    {
      "inputs": [
        {
          "internalType": "address",
          "name": "_off",
          "type": "address"
        }
      ],
      "name": "getAllStakedNFTFromAddress",
      "outputs": [
        {
          "internalType": "uint256[]",
          "name": "",
          "type": "uint256[]"
        }
      ],
      "stateMutability": "view",
      "type": "function"
    },
    {
      "inputs": [
        {
          "internalType": "address",
          "name": "_off",
          "type": "address"
        },
        {
          "internalType": "uint256",
          "name": "_tokenId",
          "type": "uint256"
        }
      ],
      "name": "getStakedNFTProp",
      "outputs": [
        {
          "internalType": "uint256",
          "name": "",
          "type": "uint256"
        },
        {
          "internalType": "uint256",
          "name": "",
          "type": "uint256"
        }
      ],
      "stateMutability": "view",
      "type": "function"
    }
  ],
  "bytecode": "0x60806040523480156200001157600080fd5b506040518060400160405280600d81526020017f537465726c696e6753746f7265000000000000000000000000000000000000008152506040518060400160405280600b81526020017f537465726c696e674e465400000000000000000000000000000000000000000081525081600090816200008f91906200036b565b508060019081620000a191906200036b565b50505033600d60006101000a81548173ffffffffffffffffffffffffffffffffffffffff021916908373ffffffffffffffffffffffffffffffffffffffff16021790555062000452565b600081519050919050565b7f4e487b7100000000000000000000000000000000000000000000000000000000600052604160045260246000fd5b7f4e487b7100000000000000000000000000000000000000000000000000000000600052602260045260246000fd5b600060028204905060018216806200016d57607f821691505b60208210810362000183576200018262000125565b5b50919050565b60008190508160005260206000209050919050565b60006020601f8301049050919050565b60008160020a8302905092915050565b600060088302620001f07fffffffffffffffffffffffffffffffffffffffffffffffffffffffffffffffff82620001ae565b620001fc8683620001ae565b95508019841693508086168417925050509392505050565b6000819050919050565b6000819050919050565b600062000249620002436200023d8462000214565b6200021e565b62000214565b9050919050565b6000819050919050565b620002658362000228565b6200027d620002748262000250565b848454620001be565b825550505050565b600090565b6200029462000285565b620002a18184846200025a565b505050565b5b81811015620002c957620002bd6000826200028a565b600181019050620002a7565b5050565b601f8211156200031857620002e28162000189565b620002ed846200019e565b81016020851015620002fd578190505b620003156200030c856200019e565b830182620002a6565b50505b505050565b60008160020a8304905092915050565b600062000340600019846008026200031d565b1980831691505092915050565b60006200035b83836200032d565b9150826002028217905092915050565b6200037682620000eb565b67ffffffffffffffff811115620003925762000391620000f6565b5b6200039e825462000154565b620003ab828285620002cd565b600060209050601f831160018114620003e35760008415620003ce578287015190505b620003da85826200034d565b8655506200044a565b601f198416620003f38662000189565b60005b828110156200041d57848901518255600182019150602085019450602081019050620003f6565b868310156200043d578489015162000439601f8916826200032d565b8355505b6001600288020188555050505b505050505050565b6151f280620004626000396000f3fe608060405234801561001057600080fd5b506004361061029c576000357c0100000000000000000000000000000000000000000000000000000000900480638da5cb5b11610179578063bd7e2f95116100eb578063d85d3d27116100a4578063d85d3d2714610819578063e6a9b77c14610835578063e985e9c514610865578063ebd0939d14610895578063eda76402146108c5578063f7c44cf5146108f85761029c565b8063bd7e2f9514610714578063be64a28a14610730578063c0e50d6814610760578063c30c896714610799578063c49ddc0e146107b5578063c87b56dd146107e95761029c565b8063a3c0b95b1161013d578063a3c0b95b14610658578063a98baaf114610688578063abc77c66146106a4578063b5a9d5ef146106c0578063b864bfdf146106dc578063b88d4fde146106f85761029c565b80638da5cb5b146105c6578063909c2f9b146105e457806395d89b41146106005780639fc34e0d1461061e578063a22cb4651461063c5761029c565b806334f3ee7711610212578063640e82d9116101d6578063640e82d9146104e05780636e9940b61461051057806370a082311461052e578063803ef7b11461055e57806389f8c2191461057a5780638b1933ff146105965761029c565b806334f3ee771461043d5780633e461e0c1461044757806342842e0e1461047857806360bd3e26146104945780636352211e146104b05761029c565b80630bc04d53116102645780630bc04d53146103575780630bebfc1a146103755780631bc2edae146103a55780631e1c62da146103d557806322187a141461040557806323b872dd146104215761029c565b806301ffc9a7146102a1578063055a56f9146102d157806306fdde03146102ed578063081812fc1461030b578063095ea7b31461033b575b600080fd5b6102bb60048036038101906102b691906136e0565b610928565b6040516102c89190613728565b60405180910390f35b6102eb60048036038101906102e69190613949565b610a0a565b005b6102f5610aa8565b6040516103029190613b48565b60405180910390f35b61032560048036038101906103209190613b6a565b610b3a565b6040516103329190613ba6565b60405180910390f35b61035560048036038101906103509190613bc1565b610b80565b005b61035f610c97565b60405161036c9190613c10565b60405180910390f35b61038f600480360381019061038a9190613b6a565b610ca4565b60405161039c9190613728565b60405180910390f35b6103bf60048036038101906103ba9190613c2b565b610cb0565b6040516103cc9190613c10565b60405180910390f35b6103ef60048036038101906103ea9190613b6a565b610cfc565b6040516103fc9190613b48565b60405180910390f35b61041f600480360381019061041a9190613949565b610dac565b005b61043b60048036038101906104369190613c58565b610e4a565b005b610445610eaa565b005b610461600480360381019061045c9190613bc1565b610eb3565b60405161046f929190613cab565b60405180910390f35b610492600480360381019061048d9190613c58565b610f69565b005b6104ae60048036038101906104a99190613949565b610f89565b005b6104ca60048036038101906104c59190613b6a565b611027565b6040516104d79190613ba6565b60405180910390f35b6104fa60048036038101906104f59190613c2b565b6110ad565b6040516105079190613d92565b60405180910390f35b610518611144565b6040516105259190613c10565b60405180910390f35b61054860048036038101906105439190613c2b565b61114a565b6040516105559190613c10565b60405180910390f35b61057860048036038101906105739190613db4565b611201565b005b610594600480360381019061058f9190613b6a565b6113d1565b005b6105b060048036038101906105ab9190613bc1565b6113db565b6040516105bd9190613c10565b60405180910390f35b6105ce61140c565b6040516105db9190613ba6565b60405180910390f35b6105fe60048036038101906105f99190613db4565b611432565b005b6106086116b5565b6040516106159190613b48565b60405180910390f35b610626611747565b6040516106339190613c10565b60405180910390f35b61065660048036038101906106519190613e10565b61174d565b005b610672600480360381019061066d9190613b6a565b611763565b60405161067f9190613b48565b60405180910390f35b6106a2600480360381019061069d9190613bc1565b61180f565b005b6106be60048036038101906106b99190613e50565b6119e4565b005b6106da60048036038101906106d59190613949565b611a03565b005b6106f660048036038101906106f19190613e90565b611aa1565b005b610712600480360381019061070d9190614095565b611c40565b005b61072e60048036038101906107299190614118565b611ca2565b005b61074a60048036038101906107459190613bc1565b611d14565b6040516107579190613c10565b60405180910390f35b61077a60048036038101906107759190613b6a565b611d45565b6040516107909a9998979695949392919061416b565b60405180910390f35b6107b360048036038101906107ae9190614223565b611ff3565b005b6107cf60048036038101906107ca9190613b6a565b6120ab565b6040516107e095949392919061427f565b60405180910390f35b61080360048036038101906107fe9190613b6a565b612365565b6040516108109190613b48565b60405180910390f35b610833600480360381019061082e91906142ee565b6123cd565b005b61084f600480360381019061084a9190613bc1565b612593565b60405161085c9190613c10565b60405180910390f35b61087f600480360381019061087a9190614337565b6125c4565b60405161088c9190613728565b60405180910390f35b6108af60048036038101906108aa9190613bc1565b612658565b6040516108bc9190613c10565b60405180910390f35b6108df60048036038101906108da9190613b6a565b612689565b6040516108ef9493929190614377565b60405180910390f35b610912600480360381019061090d9190613bc1565b612727565b60405161091f9190613c10565b60405180910390f35b60007f80ac58cd000000000000000000000000000000000000000000000000000000007bffffffffffffffffffffffffffffffffffffffffffffffffffffffff1916827bffffffffffffffffffffffffffffffffffffffffffffffffffffffff191614806109f357507f5b5e139f000000000000000000000000000000000000000000000000000000007bffffffffffffffffffffffffffffffffffffffffffffffffffffffff1916827bffffffffffffffffffffffffffffffffffffffffffffffffffffffff1916145b80610a035750610a0282612758565b5b9050919050565b6000610a14610c97565b9050610a20828d611201565b610a34818c8c8c8c8c8c8c8c8c6000611aa1565b600960008373ffffffffffffffffffffffffffffffffffffffff1673ffffffffffffffffffffffffffffffffffffffff168152602001908152602001600020819080600181540180825580915050600190039060005260206000200160009091909190915055505050505050505050505050565b606060008054610ab7906143eb565b80601f0160208091040260200160405190810160405280929190818152602001828054610ae3906143eb565b8015610b305780601f10610b0557610100808354040283529160200191610b30565b820191906000526020600020905b815481529060010190602001808311610b1357829003601f168201915b5050505050905090565b6000610b45826127c2565b6004600083815260200190815260200160002060009054906101000a900473ffffffffffffffffffffffffffffffffffffffff169050919050565b6000610b8b82611027565b90508073ffffffffffffffffffffffffffffffffffffffff168373ffffffffffffffffffffffffffffffffffffffff1603610bfb576040517f08c379a0000000000000000000000000000000000000000000000000000000008152600401610bf29061448e565b60405180910390fd5b8073ffffffffffffffffffffffffffffffffffffffff16610c1a61280d565b73ffffffffffffffffffffffffffffffffffffffff161480610c495750610c4881610c4361280d565b6125c4565b5b610c88576040517f08c379a0000000000000000000000000000000000000000000000000000000008152600401610c7f90614520565b60405180910390fd5b610c928383612815565b505050565b6000600680549050905090565b60008142119050919050565b6000600960008373ffffffffffffffffffffffffffffffffffffffff1673ffffffffffffffffffffffffffffffffffffffff168152602001908152602001600020805490509050919050565b606060068281548110610d1257610d11614540565b5b906000526020600020018054610d27906143eb565b80601f0160208091040260200160405190810160405280929190818152602001828054610d53906143eb565b8015610da05780601f10610d7557610100808354040283529160200191610da0565b820191906000526020600020905b815481529060010190602001808311610d8357829003601f168201915b50505050509050919050565b6000610db6610c97565b9050610dc2828d611201565b610dd6818c8c8c8c8c8c8c8c8c6001611aa1565b600a60008373ffffffffffffffffffffffffffffffffffffffff1673ffffffffffffffffffffffffffffffffffffffff168152602001908152602001600020819080600181540180825580915050600190039060005260206000200160009091909190915055505050505050505050505050565b610e5b610e5561280d565b826128ce565b610e9a576040517f08c379a0000000000000000000000000000000000000000000000000000000008152600401610e91906145e1565b60405180910390fd5b610ea5838383612963565b505050565b42601081905550565b600080601360008573ffffffffffffffffffffffffffffffffffffffff1673ffffffffffffffffffffffffffffffffffffffff168152602001908152602001600020600084815260200190815260200160002060000154601360008673ffffffffffffffffffffffffffffffffffffffff1673ffffffffffffffffffffffffffffffffffffffff168152602001908152602001600020600085815260200190815260200160002060010154915091509250929050565b610f8483838360405180602001604052806000815250611c40565b505050565b6000610f93610c97565b9050610f9f828d611201565b610fb3818c8c8c8c8c8c8c8c8c6001611aa1565b600760008373ffffffffffffffffffffffffffffffffffffffff1673ffffffffffffffffffffffffffffffffffffffff168152602001908152602001600020819080600181540180825580915050600190039060005260206000200160009091909190915055505050505050505050505050565b60008061103383612c5c565b9050600073ffffffffffffffffffffffffffffffffffffffff168173ffffffffffffffffffffffffffffffffffffffff16036110a4576040517f08c379a000000000000000000000000000000000000000000000000000000000815260040161109b9061464d565b60405180910390fd5b80915050919050565b6060600b60008373ffffffffffffffffffffffffffffffffffffffff1673ffffffffffffffffffffffffffffffffffffffff16815260200190815260200160002080548060200260200160405190810160405280929190818152602001828054801561113857602002820191906000526020600020905b815481526020019060010190808311611124575b50505050509050919050565b60115481565b60008073ffffffffffffffffffffffffffffffffffffffff168273ffffffffffffffffffffffffffffffffffffffff16036111ba576040517f08c379a00000000000000000000000000000000000000000000000000000000081526004016111b1906146df565b60405180910390fd5b600360008373ffffffffffffffffffffffffffffffffffffffff1673ffffffffffffffffffffffffffffffffffffffff168152602001908152602001600020549050919050565b600073ffffffffffffffffffffffffffffffffffffffff168273ffffffffffffffffffffffffffffffffffffffff1603611270576040517f08c379a000000000000000000000000000000000000000000000000000000000815260040161126790614771565b60405180910390fd5b600c8160405161128091906147cd565b908152602001604051809103902060009054906101000a900460ff16156112dc576040517f08c379a00000000000000000000000000000000000000000000000000000000081526004016112d390614856565b60405180910390fd5b6006819080600181540180825580915050600190039060005260206000200160009091909190915090816113109190614a28565b50600060016006805490506113259190614b29565b90506113318382612c99565b7f45704679a40d4b2ffe28aa7324f021775faaca4d40917fef2cdf38e53fd90a243382604051611362929190614b5d565b60405180910390a16001600c8360405161137c91906147cd565b908152602001604051809103902060006101000a81548160ff0219169083151502179055506001600f600083815260200190815260200160002060008282546113c59190614b86565b92505081905550505050565b8060118190555050565b600960205281600052604060002081815481106113f757600080fd5b90600052602060002001600091509150505481565b600d60009054906101000a900473ffffffffffffffffffffffffffffffffffffffff1681565b6000601260008473ffffffffffffffffffffffffffffffffffffffff1673ffffffffffffffffffffffffffffffffffffffff1681526020019081526020016000208054905090506000601260008573ffffffffffffffffffffffffffffffffffffffff1673ffffffffffffffffffffffffffffffffffffffff168152602001908152602001600020905060005b8281101561165f5760011515600e60008484815481106114e2576114e1614540565b5b9060005260206000200154815260200190815260200160002060090160009054906101000a900460ff1615151480156115535750611552600e60008484815481106115305761152f614540565b5b9060005260206000200154815260200190815260200160002060080154610ca4565b5b1561164c57816001838054905061156a9190614b29565b8154811061157b5761157a614540565b5b906000526020600020015482828154811061159957611598614540565b5b9060005260206000200181905550818054806115b8576115b7614bba565b5b600190038181906000526020600020016000905590556040518060400160405280600c81526020017f45585049524544204954454d0000000000000000000000000000000000000000815250600e600083815260200190815260200160002060020190816116269190614a28565b5083600e6000838152602001908152602001600020600301908161164a9190614a28565b505b808061165790614be9565b9150506114bf565b5080601260008673ffffffffffffffffffffffffffffffffffffffff1673ffffffffffffffffffffffffffffffffffffffff1681526020019081526020016000209080546116ae929190613605565b5050505050565b6060600180546116c4906143eb565b80601f01602080910402602001604051908101604052809291908181526020018280546116f0906143eb565b801561173d5780601f106117125761010080835404028352916020019161173d565b820191906000526020600020905b81548152906001019060200180831161172057829003601f168201915b5050505050905090565b60105481565b61175f61175861280d565b8383612eb6565b5050565b6006818154811061177357600080fd5b90600052602060002001600091509050805461178e906143eb565b80601f01602080910402602001604051908101604052809291908181526020018280546117ba906143eb565b80156118075780601f106117dc57610100808354040283529160200191611807565b820191906000526020600020905b8154815290600101906020018083116117ea57829003601f168201915b505050505081565b60006001600960008573ffffffffffffffffffffffffffffffffffffffff1673ffffffffffffffffffffffffffffffffffffffff168152602001908152602001600020805490506118609190614b29565b905061186d833083612963565b600960008473ffffffffffffffffffffffffffffffffffffffff1673ffffffffffffffffffffffffffffffffffffffff1681526020019081526020016000208054806118bc576118bb614bba565b5b6001900381819060005260206000200160009055905542601360008573ffffffffffffffffffffffffffffffffffffffff1673ffffffffffffffffffffffffffffffffffffffff16815260200190815260200160002060008381526020019081526020016000206000018190555081601360008573ffffffffffffffffffffffffffffffffffffffff1673ffffffffffffffffffffffffffffffffffffffff1681526020019081526020016000206000838152602001908152602001600020600101819055507f99039fcf0a98f484616c5196ee8b2ecfa971babf0b519848289ea4db381f85f783600d60009054906101000a900473ffffffffffffffffffffffffffffffffffffffff16836040516119d793929190614c31565b60405180910390a1505050565b81600e6000838152602001908152602001600020600801819055505050565b6000611a0d610c97565b9050611a19828d611201565b611a2d818c8c8c8c8c8c8c8c8c6001611aa1565b600860008373ffffffffffffffffffffffffffffffffffffffff1673ffffffffffffffffffffffffffffffffffffffff168152602001908152602001600020819080600181540180825580915050600190039060005260206000200160009091909190915055505050505050505050505050565b89600e60008d815260200190815260200160002060000160006101000a81548160ff02191690831515021790555088600e60008d81526020019081526020016000206001019081611af29190614a28565b5087600e60008d81526020019081526020016000206002019081611b169190614a28565b5086600e60008d81526020019081526020016000206003019081611b3a9190614a28565b5085600e60008d81526020019081526020016000206004019081611b5e9190614a28565b5084600e60008d81526020019081526020016000206005018190555042600e60008d81526020019081526020016000206006018190555082600e60008d815260200190815260200160002060070160006101000a81548173ffffffffffffffffffffffffffffffffffffffff021916908373ffffffffffffffffffffffffffffffffffffffff16021790555081600e60008d81526020019081526020016000206008018190555080600e60008d815260200190815260200160002060090160006101000a81548160ff0219169083151502179055505050505050505050505050565b611c51611c4b61280d565b836128ce565b611c90576040517f08c379a0000000000000000000000000000000000000000000000000000000008152600401611c87906145e1565b60405180910390fd5b611c9c84848484613022565b50505050565b81811115611ce5576040517f08c379a0000000000000000000000000000000000000000000000000000000008152600401611cdc90614cda565b60405180910390fd5b60005b82811015611d0e57611cfa3385612c99565b600181611d079190614b86565b9050611ce8565b50505050565b60086020528160005260406000208181548110611d3057600080fd5b90600052602060002001600091509150505481565b600e6020528060005260406000206000915090508060000160009054906101000a900460ff1690806001018054611d7b906143eb565b80601f0160208091040260200160405190810160405280929190818152602001828054611da7906143eb565b8015611df45780601f10611dc957610100808354040283529160200191611df4565b820191906000526020600020905b815481529060010190602001808311611dd757829003601f168201915b505050505090806002018054611e09906143eb565b80601f0160208091040260200160405190810160405280929190818152602001828054611e35906143eb565b8015611e825780601f10611e5757610100808354040283529160200191611e82565b820191906000526020600020905b815481529060010190602001808311611e6557829003601f168201915b505050505090806003018054611e97906143eb565b80601f0160208091040260200160405190810160405280929190818152602001828054611ec3906143eb565b8015611f105780601f10611ee557610100808354040283529160200191611f10565b820191906000526020600020905b815481529060010190602001808311611ef357829003601f168201915b505050505090806004018054611f25906143eb565b80601f0160208091040260200160405190810160405280929190818152602001828054611f51906143eb565b8015611f9e5780601f10611f7357610100808354040283529160200191611f9e565b820191906000526020600020905b815481529060010190602001808311611f8157829003601f168201915b5050505050908060050154908060060154908060070160009054906101000a900473ffffffffffffffffffffffffffffffffffffffff16908060080154908060090160009054906101000a900460ff1690508a565b600d60009054906101000a900473ffffffffffffffffffffffffffffffffffffffff1673ffffffffffffffffffffffffffffffffffffffff163373ffffffffffffffffffffffffffffffffffffffff1614612083576040517f08c379a000000000000000000000000000000000000000000000000000000000815260040161207a90614d6c565b60405180910390fd5b80600e600084815260200190815260200160002060030190816120a69190614a28565b505050565b6060806060806000600e6000878152602001908152602001600020600101600e6000888152602001908152602001600020600201600e6000898152602001908152602001600020600301600e60008a8152602001908152602001600020600401600e60008b81526020019081526020016000206005015484805461212e906143eb565b80601f016020809104026020016040519081016040528092919081815260200182805461215a906143eb565b80156121a75780601f1061217c576101008083540402835291602001916121a7565b820191906000526020600020905b81548152906001019060200180831161218a57829003601f168201915b505050505094508380546121ba906143eb565b80601f01602080910402602001604051908101604052809291908181526020018280546121e6906143eb565b80156122335780601f1061220857610100808354040283529160200191612233565b820191906000526020600020905b81548152906001019060200180831161221657829003601f168201915b50505050509350828054612246906143eb565b80601f0160208091040260200160405190810160405280929190818152602001828054612272906143eb565b80156122bf5780601f10612294576101008083540402835291602001916122bf565b820191906000526020600020905b8154815290600101906020018083116122a257829003601f168201915b505050505092508180546122d2906143eb565b80601f01602080910402602001604051908101604052809291908181526020018280546122fe906143eb565b801561234b5780601f106123205761010080835404028352916020019161234b565b820191906000526020600020905b81548152906001019060200180831161232e57829003601f168201915b505050505091509450945094509450945091939590929450565b6060612370826127c2565b600061237a61307e565b9050600081511161239a57604051806020016040528060008152506123c5565b806123a484613095565b6040516020016123b5929190614d8c565b6040516020818303038152906040525b915050919050565b600c816040516123dd91906147cd565b908152602001604051809103902060009054906101000a900460ff1615612439576040517f08c379a000000000000000000000000000000000000000000000000000000000815260040161243090614856565b60405180910390fd5b60068190806001815401808255809150506001900390600052602060002001600090919091909150908161246d9190614a28565b50600060016006805490506124829190614b29565b905061248e3382612c99565b7f45704679a40d4b2ffe28aa7324f021775faaca4d40917fef2cdf38e53fd90a2433826040516124bf929190614b5d565b60405180910390a1601260003373ffffffffffffffffffffffffffffffffffffffff1673ffffffffffffffffffffffffffffffffffffffff1681526020019081526020016000208190806001815401808255809150506001900390600052602060002001600090919091909150556001600f600083815260200190815260200160002060008282546125519190614b86565b925050819055506001600c8360405161256a91906147cd565b908152602001604051809103902060006101000a81548160ff0219169083151502179055505050565b600760205281600052604060002081815481106125af57600080fd5b90600052602060002001600091509150505481565b6000600560008473ffffffffffffffffffffffffffffffffffffffff1673ffffffffffffffffffffffffffffffffffffffff16815260200190815260200160002060008373ffffffffffffffffffffffffffffffffffffffff1673ffffffffffffffffffffffffffffffffffffffff16815260200190815260200160002060009054906101000a900460ff16905092915050565b600b602052816000526040600020818154811061267457600080fd5b90600052602060002001600091509150505481565b600080600080600e600086815260200190815260200160002060060154600e600087815260200190815260200160002060070160009054906101000a900473ffffffffffffffffffffffffffffffffffffffff16600e600088815260200190815260200160002060080154600e600089815260200190815260200160002060090160009054906101000a900460ff1693509350935093509193509193565b600a602052816000526040600020818154811061274357600080fd5b90600052602060002001600091509150505481565b60007f01ffc9a7000000000000000000000000000000000000000000000000000000007bffffffffffffffffffffffffffffffffffffffffffffffffffffffff1916827bffffffffffffffffffffffffffffffffffffffffffffffffffffffff1916149050919050565b6127cb81613163565b61280a576040517f08c379a00000000000000000000000000000000000000000000000000000000081526004016128019061464d565b60405180910390fd5b50565b600033905090565b816004600083815260200190815260200160002060006101000a81548173ffffffffffffffffffffffffffffffffffffffff021916908373ffffffffffffffffffffffffffffffffffffffff160217905550808273ffffffffffffffffffffffffffffffffffffffff1661288883611027565b73ffffffffffffffffffffffffffffffffffffffff167f8c5be1e5ebec7d5bd14f71427d1e84f3dd0314c0f7b2291e5b200ac8c7c3b92560405160405180910390a45050565b6000806128da83611027565b90508073ffffffffffffffffffffffffffffffffffffffff168473ffffffffffffffffffffffffffffffffffffffff16148061291c575061291b81856125c4565b5b8061295a57508373ffffffffffffffffffffffffffffffffffffffff1661294284610b3a565b73ffffffffffffffffffffffffffffffffffffffff16145b91505092915050565b8273ffffffffffffffffffffffffffffffffffffffff1661298382611027565b73ffffffffffffffffffffffffffffffffffffffff16146129d9576040517f08c379a00000000000000000000000000000000000000000000000000000000081526004016129d090614e22565b60405180910390fd5b600073ffffffffffffffffffffffffffffffffffffffff168273ffffffffffffffffffffffffffffffffffffffff1603612a48576040517f08c379a0000000000000000000000000000000000000000000000000000000008152600401612a3f90614eb4565b60405180910390fd5b612a5583838360016131a4565b8273ffffffffffffffffffffffffffffffffffffffff16612a7582611027565b73ffffffffffffffffffffffffffffffffffffffff1614612acb576040517f08c379a0000000000000000000000000000000000000000000000000000000008152600401612ac290614e22565b60405180910390fd5b6004600082815260200190815260200160002060006101000a81549073ffffffffffffffffffffffffffffffffffffffff02191690556001600360008573ffffffffffffffffffffffffffffffffffffffff1673ffffffffffffffffffffffffffffffffffffffff168152602001908152602001600020600082825403925050819055506001600360008473ffffffffffffffffffffffffffffffffffffffff1673ffffffffffffffffffffffffffffffffffffffff16815260200190815260200160002060008282540192505081905550816002600083815260200190815260200160002060006101000a81548173ffffffffffffffffffffffffffffffffffffffff021916908373ffffffffffffffffffffffffffffffffffffffff160217905550808273ffffffffffffffffffffffffffffffffffffffff168473ffffffffffffffffffffffffffffffffffffffff167fddf252ad1be2c89b69c2b068fc378daa952ba7f163c4a11628f55a4df523b3ef60405160405180910390a4612c5783838360016132ca565b505050565b60006002600083815260200190815260200160002060009054906101000a900473ffffffffffffffffffffffffffffffffffffffff169050919050565b600073ffffffffffffffffffffffffffffffffffffffff168273ffffffffffffffffffffffffffffffffffffffff1603612d08576040517f08c379a0000000000000000000000000000000000000000000000000000000008152600401612cff90614f20565b60405180910390fd5b612d1181613163565b15612d51576040517f08c379a0000000000000000000000000000000000000000000000000000000008152600401612d4890614f8c565b60405180910390fd5b612d5f6000838360016131a4565b612d6881613163565b15612da8576040517f08c379a0000000000000000000000000000000000000000000000000000000008152600401612d9f90614f8c565b60405180910390fd5b6001600360008473ffffffffffffffffffffffffffffffffffffffff1673ffffffffffffffffffffffffffffffffffffffff16815260200190815260200160002060008282540192505081905550816002600083815260200190815260200160002060006101000a81548173ffffffffffffffffffffffffffffffffffffffff021916908373ffffffffffffffffffffffffffffffffffffffff160217905550808273ffffffffffffffffffffffffffffffffffffffff16600073ffffffffffffffffffffffffffffffffffffffff167fddf252ad1be2c89b69c2b068fc378daa952ba7f163c4a11628f55a4df523b3ef60405160405180910390a4612eb26000838360016132ca565b5050565b8173ffffffffffffffffffffffffffffffffffffffff168373ffffffffffffffffffffffffffffffffffffffff1603612f24576040517f08c379a0000000000000000000000000000000000000000000000000000000008152600401612f1b90614ff8565b60405180910390fd5b80600560008573ffffffffffffffffffffffffffffffffffffffff1673ffffffffffffffffffffffffffffffffffffffff16815260200190815260200160002060008473ffffffffffffffffffffffffffffffffffffffff1673ffffffffffffffffffffffffffffffffffffffff16815260200190815260200160002060006101000a81548160ff0219169083151502179055508173ffffffffffffffffffffffffffffffffffffffff168373ffffffffffffffffffffffffffffffffffffffff167f17307eab39ab6107e8899845ad3d59bd9653f200f220920489ca2b5937696c31836040516130159190613728565b60405180910390a3505050565b61302d848484612963565b613039848484846132d0565b613078576040517f08c379a000000000000000000000000000000000000000000000000000000000815260040161306f9061508a565b60405180910390fd5b50505050565b606060405180602001604052806000815250905090565b6060600060016130a48461348f565b01905060008167ffffffffffffffff8111156130c3576130c261375e565b5b6040519080825280601f01601f1916602001820160405280156130f55781602001600182028036833780820191505090505b509050600082602001820190505b600115613158578080600190039150507f3031323334353637383961626364656600000000000000000000000000000000600a86061a8153600a858161314c5761314b6150aa565b5b04945060008503613103575b819350505050919050565b60008073ffffffffffffffffffffffffffffffffffffffff1661318583612c5c565b73ffffffffffffffffffffffffffffffffffffffff1614159050919050565b60018111156132c457600073ffffffffffffffffffffffffffffffffffffffff168473ffffffffffffffffffffffffffffffffffffffff16146132385780600360008673ffffffffffffffffffffffffffffffffffffffff1673ffffffffffffffffffffffffffffffffffffffff16815260200190815260200160002060008282546132309190614b29565b925050819055505b600073ffffffffffffffffffffffffffffffffffffffff168373ffffffffffffffffffffffffffffffffffffffff16146132c35780600360008573ffffffffffffffffffffffffffffffffffffffff1673ffffffffffffffffffffffffffffffffffffffff16815260200190815260200160002060008282546132bb9190614b86565b925050819055505b5b50505050565b50505050565b60006132f18473ffffffffffffffffffffffffffffffffffffffff166135e2565b15613482578373ffffffffffffffffffffffffffffffffffffffff1663150b7a0261331a61280d565b8786866040518563ffffffff167c0100000000000000000000000000000000000000000000000000000000028152600401613358949392919061512e565b6020604051808303816000875af192505050801561339457506040513d601f19601f82011682018060405250810190613391919061518f565b60015b613416573d80600081146133c4576040519150601f19603f3d011682016040523d82523d6000602084013e6133c9565b606091505b50600081510361340e576040517f08c379a00000000000000000000000000000000000000000000000000000000081526004016134059061508a565b60405180910390fd5b805181602001fd5b63150b7a027c0100000000000000000000000000000000000000000000000000000000027bffffffffffffffffffffffffffffffffffffffffffffffffffffffff1916817bffffffffffffffffffffffffffffffffffffffffffffffffffffffff191614915050613487565b600190505b949350505050565b600080600090507a184f03e93ff9f4daa797ed6e38ed64bf6a1f01000000000000000083106134ed577a184f03e93ff9f4daa797ed6e38ed64bf6a1f01000000000000000083816134e3576134e26150aa565b5b0492506040810190505b6d04ee2d6d415b85acef8100000000831061352a576d04ee2d6d415b85acef810000000083816135205761351f6150aa565b5b0492506020810190505b662386f26fc10000831061355957662386f26fc10000838161354f5761354e6150aa565b5b0492506010810190505b6305f5e1008310613582576305f5e1008381613578576135776150aa565b5b0492506008810190505b61271083106135a757612710838161359d5761359c6150aa565b5b0492506004810190505b606483106135ca57606483816135c0576135bf6150aa565b5b0492506002810190505b600a83106135d9576001810190505b80915050919050565b6000808273ffffffffffffffffffffffffffffffffffffffff163b119050919050565b8280548282559060005260206000209081019282156136465760005260206000209182015b8281111561364557825482559160010191906001019061362a565b5b5090506136539190613657565b5090565b5b80821115613670576000816000905550600101613658565b5090565b6000604051905090565b600080fd5b600080fd5b60007fffffffff0000000000000000000000000000000000000000000000000000000082169050919050565b6136bd81613688565b81146136c857600080fd5b50565b6000813590506136da816136b4565b92915050565b6000602082840312156136f6576136f561367e565b5b6000613704848285016136cb565b91505092915050565b60008115159050919050565b6137228161370d565b82525050565b600060208201905061373d6000830184613719565b92915050565b600080fd5b600080fd5b6000601f19601f8301169050919050565b7f4e487b7100000000000000000000000000000000000000000000000000000000600052604160045260246000fd5b6137968261374d565b810181811067ffffffffffffffff821117156137b5576137b461375e565b5b80604052505050565b60006137c8613674565b90506137d4828261378d565b919050565b600067ffffffffffffffff8211156137f4576137f361375e565b5b6137fd8261374d565b9050602081019050919050565b82818337600083830152505050565b600061382c613827846137d9565b6137be565b90508281526020810184848401111561384857613847613748565b5b61385384828561380a565b509392505050565b600082601f8301126138705761386f613743565b5b8135613880848260208601613819565b91505092915050565b6138928161370d565b811461389d57600080fd5b50565b6000813590506138af81613889565b92915050565b6000819050919050565b6138c8816138b5565b81146138d357600080fd5b50565b6000813590506138e5816138bf565b92915050565b600073ffffffffffffffffffffffffffffffffffffffff82169050919050565b6000613916826138eb565b9050919050565b6139268161390b565b811461393157600080fd5b50565b6000813590506139438161391d565b92915050565b60008060008060008060008060008060006101608c8e03121561396f5761396e61367e565b5b60008c013567ffffffffffffffff81111561398d5761398c613683565b5b6139998e828f0161385b565b9b505060206139aa8e828f016138a0565b9a505060408c013567ffffffffffffffff8111156139cb576139ca613683565b5b6139d78e828f0161385b565b99505060608c013567ffffffffffffffff8111156139f8576139f7613683565b5b613a048e828f0161385b565b98505060808c013567ffffffffffffffff811115613a2557613a24613683565b5b613a318e828f0161385b565b97505060a08c013567ffffffffffffffff811115613a5257613a51613683565b5b613a5e8e828f0161385b565b96505060c0613a6f8e828f016138d6565b95505060e0613a808e828f016138d6565b945050610100613a928e828f01613934565b935050610120613aa48e828f016138d6565b925050610140613ab68e828f01613934565b9150509295989b509295989b9093969950565b600081519050919050565b600082825260208201905092915050565b60005b83811015613b03578082015181840152602081019050613ae8565b60008484015250505050565b6000613b1a82613ac9565b613b248185613ad4565b9350613b34818560208601613ae5565b613b3d8161374d565b840191505092915050565b60006020820190508181036000830152613b628184613b0f565b905092915050565b600060208284031215613b8057613b7f61367e565b5b6000613b8e848285016138d6565b91505092915050565b613ba08161390b565b82525050565b6000602082019050613bbb6000830184613b97565b92915050565b60008060408385031215613bd857613bd761367e565b5b6000613be685828601613934565b9250506020613bf7858286016138d6565b9150509250929050565b613c0a816138b5565b82525050565b6000602082019050613c256000830184613c01565b92915050565b600060208284031215613c4157613c4061367e565b5b6000613c4f84828501613934565b91505092915050565b600080600060608486031215613c7157613c7061367e565b5b6000613c7f86828701613934565b9350506020613c9086828701613934565b9250506040613ca1868287016138d6565b9150509250925092565b6000604082019050613cc06000830185613c01565b613ccd6020830184613c01565b9392505050565b600081519050919050565b600082825260208201905092915050565b6000819050602082019050919050565b613d09816138b5565b82525050565b6000613d1b8383613d00565b60208301905092915050565b6000602082019050919050565b6000613d3f82613cd4565b613d498185613cdf565b9350613d5483613cf0565b8060005b83811015613d85578151613d6c8882613d0f565b9750613d7783613d27565b925050600181019050613d58565b5085935050505092915050565b60006020820190508181036000830152613dac8184613d34565b905092915050565b60008060408385031215613dcb57613dca61367e565b5b6000613dd985828601613934565b925050602083013567ffffffffffffffff811115613dfa57613df9613683565b5b613e068582860161385b565b9150509250929050565b60008060408385031215613e2757613e2661367e565b5b6000613e3585828601613934565b9250506020613e46858286016138a0565b9150509250929050565b60008060408385031215613e6757613e6661367e565b5b6000613e75858286016138d6565b9250506020613e86858286016138d6565b9150509250929050565b60008060008060008060008060008060006101608c8e031215613eb657613eb561367e565b5b6000613ec48e828f016138d6565b9b50506020613ed58e828f016138a0565b9a505060408c013567ffffffffffffffff811115613ef657613ef5613683565b5b613f028e828f0161385b565b99505060608c013567ffffffffffffffff811115613f2357613f22613683565b5b613f2f8e828f0161385b565b98505060808c013567ffffffffffffffff811115613f5057613f4f613683565b5b613f5c8e828f0161385b565b97505060a08c013567ffffffffffffffff811115613f7d57613f7c613683565b5b613f898e828f0161385b565b96505060c0613f9a8e828f016138d6565b95505060e0613fab8e828f016138d6565b945050610100613fbd8e828f01613934565b935050610120613fcf8e828f016138d6565b925050610140613fe18e828f016138a0565b9150509295989b509295989b9093969950565b600067ffffffffffffffff82111561400f5761400e61375e565b5b6140188261374d565b9050602081019050919050565b600061403861403384613ff4565b6137be565b90508281526020810184848401111561405457614053613748565b5b61405f84828561380a565b509392505050565b600082601f83011261407c5761407b613743565b5b813561408c848260208601614025565b91505092915050565b600080600080608085870312156140af576140ae61367e565b5b60006140bd87828801613934565b94505060206140ce87828801613934565b93505060406140df878288016138d6565b925050606085013567ffffffffffffffff811115614100576140ff613683565b5b61410c87828801614067565b91505092959194509250565b6000806000606084860312156141315761413061367e565b5b600061413f868287016138d6565b9350506020614150868287016138d6565b9250506040614161868287016138d6565b9150509250925092565b600061014082019050614181600083018d613719565b8181036020830152614193818c613b0f565b905081810360408301526141a7818b613b0f565b905081810360608301526141bb818a613b0f565b905081810360808301526141cf8189613b0f565b90506141de60a0830188613c01565b6141eb60c0830187613c01565b6141f860e0830186613b97565b614206610100830185613c01565b614214610120830184613719565b9b9a5050505050505050505050565b6000806040838503121561423a5761423961367e565b5b6000614248858286016138d6565b925050602083013567ffffffffffffffff81111561426957614268613683565b5b6142758582860161385b565b9150509250929050565b600060a08201905081810360008301526142998188613b0f565b905081810360208301526142ad8187613b0f565b905081810360408301526142c18186613b0f565b905081810360608301526142d58185613b0f565b90506142e46080830184613c01565b9695505050505050565b6000602082840312156143045761430361367e565b5b600082013567ffffffffffffffff81111561432257614321613683565b5b61432e8482850161385b565b91505092915050565b6000806040838503121561434e5761434d61367e565b5b600061435c85828601613934565b925050602061436d85828601613934565b9150509250929050565b600060808201905061438c6000830187613c01565b6143996020830186613b97565b6143a66040830185613c01565b6143b36060830184613719565b95945050505050565b7f4e487b7100000000000000000000000000000000000000000000000000000000600052602260045260246000fd5b6000600282049050600182168061440357607f821691505b602082108103614416576144156143bc565b5b50919050565b7f4552433732313a20617070726f76616c20746f2063757272656e74206f776e6560008201527f7200000000000000000000000000000000000000000000000000000000000000602082015250565b6000614478602183613ad4565b91506144838261441c565b604082019050919050565b600060208201905081810360008301526144a78161446b565b9050919050565b7f4552433732313a20617070726f76652063616c6c6572206973206e6f7420746f60008201527f6b656e206f776e6572206f7220617070726f76656420666f7220616c6c000000602082015250565b600061450a603d83613ad4565b9150614515826144ae565b604082019050919050565b60006020820190508181036000830152614539816144fd565b9050919050565b7f4e487b7100000000000000000000000000000000000000000000000000000000600052603260045260246000fd5b7f4552433732313a2063616c6c6572206973206e6f7420746f6b656e206f776e6560008201527f72206f7220617070726f76656400000000000000000000000000000000000000602082015250565b60006145cb602d83613ad4565b91506145d68261456f565b604082019050919050565b600060208201905081810360008301526145fa816145be565b9050919050565b7f4552433732313a20696e76616c696420746f6b656e2049440000000000000000600082015250565b6000614637601883613ad4565b915061464282614601565b602082019050919050565b600060208201905081810360008301526146668161462a565b9050919050565b7f4552433732313a2061646472657373207a65726f206973206e6f74206120766160008201527f6c6964206f776e65720000000000000000000000000000000000000000000000602082015250565b60006146c9602983613ad4565b91506146d48261466d565b604082019050919050565b600060208201905081810360008301526146f8816146bc565b9050919050565b7f4552433732313a206d696e74696e6720746f207468652030206164647265737360008201527f2e00000000000000000000000000000000000000000000000000000000000000602082015250565b600061475b602183613ad4565b9150614766826146ff565b604082019050919050565b6000602082019050818103600083015261478a8161474e565b9050919050565b600081905092915050565b60006147a782613ac9565b6147b18185614791565b93506147c1818560208601613ae5565b80840191505092915050565b60006147d9828461479c565b915081905092915050565b7f44616e6720697421212c2049204861766520616c7265616479206265656e206d60008201527f696e746564000000000000000000000000000000000000000000000000000000602082015250565b6000614840602583613ad4565b915061484b826147e4565b604082019050919050565b6000602082019050818103600083015261486f81614833565b9050919050565b60008190508160005260206000209050919050565b60006020601f8301049050919050565b60008160020a8302905092915050565b6000600883026148db7fffffffffffffffffffffffffffffffffffffffffffffffffffffffffffffffff8261489b565b6148e5868361489b565b95508019841693508086168417925050509392505050565b6000819050919050565b600061492261491d614918846138b5565b6148fd565b6138b5565b9050919050565b6000819050919050565b61493c83614907565b61495061494882614929565b8484546148ab565b825550505050565b600090565b614965614958565b614970818484614933565b505050565b5b818110156149945761498960008261495d565b600181019050614976565b5050565b601f8211156149d9576149aa81614876565b6149b38461488b565b810160208510156149c2578190505b6149d66149ce8561488b565b830182614975565b50505b505050565b60008160020a8304905092915050565b60006149ff600019846008026149de565b1980831691505092915050565b6000614a1883836149ee565b9150826002028217905092915050565b614a3182613ac9565b67ffffffffffffffff811115614a4a57614a4961375e565b5b614a5482546143eb565b614a5f828285614998565b600060209050601f831160018114614a925760008415614a80578287015190505b614a8a8582614a0c565b865550614af2565b601f198416614aa086614876565b60005b82811015614ac857848901518255600182019150602085019450602081019050614aa3565b86831015614ae55784890151614ae1601f8916826149ee565b8355505b6001600288020188555050505b505050505050565b7f4e487b7100000000000000000000000000000000000000000000000000000000600052601160045260246000fd5b6000614b34826138b5565b9150614b3f836138b5565b9250828203905081811115614b5757614b56614afa565b5b92915050565b6000604082019050614b726000830185613b97565b614b7f6020830184613c01565b9392505050565b6000614b91826138b5565b9150614b9c836138b5565b9250828201905080821115614bb457614bb3614afa565b5b92915050565b7f4e487b7100000000000000000000000000000000000000000000000000000000600052603160045260246000fd5b6000614bf4826138b5565b91507fffffffffffffffffffffffffffffffffffffffffffffffffffffffffffffffff8203614c2657614c25614afa565b5b600182019050919050565b6000606082019050614c466000830186613b97565b614c536020830185613b97565b614c606040830184613c01565b949350505050565b7f4d757374204e6f742065786365656420746865204361702070726f766964656460008201527f206279207468652073656c6c65722e2e2e000000000000000000000000000000602082015250565b6000614cc4603183613ad4565b9150614ccf82614c68565b604082019050919050565b60006020820190508181036000830152614cf381614cb7565b9050919050565b7f4e6f7420617574686f726973656420746f20616464207468652055524c20746f60008201527f20746865204e4654000000000000000000000000000000000000000000000000602082015250565b6000614d56602883613ad4565b9150614d6182614cfa565b604082019050919050565b60006020820190508181036000830152614d8581614d49565b9050919050565b6000614d98828561479c565b9150614da4828461479c565b91508190509392505050565b7f4552433732313a207472616e736665722066726f6d20696e636f72726563742060008201527f6f776e6572000000000000000000000000000000000000000000000000000000602082015250565b6000614e0c602583613ad4565b9150614e1782614db0565b604082019050919050565b60006020820190508181036000830152614e3b81614dff565b9050919050565b7f4552433732313a207472616e7366657220746f20746865207a65726f2061646460008201527f7265737300000000000000000000000000000000000000000000000000000000602082015250565b6000614e9e602483613ad4565b9150614ea982614e42565b604082019050919050565b60006020820190508181036000830152614ecd81614e91565b9050919050565b7f4552433732313a206d696e7420746f20746865207a65726f2061646472657373600082015250565b6000614f0a602083613ad4565b9150614f1582614ed4565b602082019050919050565b60006020820190508181036000830152614f3981614efd565b9050919050565b7f4552433732313a20746f6b656e20616c7265616479206d696e74656400000000600082015250565b6000614f76601c83613ad4565b9150614f8182614f40565b602082019050919050565b60006020820190508181036000830152614fa581614f69565b9050919050565b7f4552433732313a20617070726f766520746f2063616c6c657200000000000000600082015250565b6000614fe2601983613ad4565b9150614fed82614fac565b602082019050919050565b6000602082019050818103600083015261501181614fd5565b9050919050565b7f4552433732313a207472616e7366657220746f206e6f6e20455243373231526560008201527f63656976657220696d706c656d656e7465720000000000000000000000000000602082015250565b6000615074603283613ad4565b915061507f82615018565b604082019050919050565b600060208201905081810360008301526150a381615067565b9050919050565b7f4e487b7100000000000000000000000000000000000000000000000000000000600052601260045260246000fd5b600081519050919050565b600082825260208201905092915050565b6000615100826150d9565b61510a81856150e4565b935061511a818560208601613ae5565b6151238161374d565b840191505092915050565b60006080820190506151436000830187613b97565b6151506020830186613b97565b61515d6040830185613c01565b818103606083015261516f81846150f5565b905095945050505050565b600081519050615189816136b4565b92915050565b6000602082840312156151a5576151a461367e565b5b60006151b38482850161517a565b9150509291505056fea26469706673582212204be0e13da43785bebd06f807af8054cc888abd4840019a9e2eb823da255bc57b64736f6c63430008110033",
  "immutableReferences": {},
  "source": "// SPDX-License-Identifier: MIT\r\npragma solidity >=0.4.22 <0.9.0;\r\nimport \"@openzeppelin/contracts/token/ERC721/ERC721.sol\";\r\n\r\ncontract NFT is ERC721 {\r\n    // string public baseUri;\r\n    // string public baseExtesion = \".json\";\r\n    // function setBaseUri(string memory _baseUri) external onlyOwner {\r\n    //     baseUri = _baseUri;\r\n    // }\r\n\r\n    /***** \r\n    nftProp: Structure contains multiple dataTypes that stores different information.\r\n    *****/\r\n    event mintEvent(address to, uint256 _tokenId);\r\n    event Stake(address from, address to, uint256 _tokenId);\r\n    struct nftProp {\r\n        bool minted; //makes sure if it is minted or not?\r\n        string name; //name of the item.\r\n        string description; //desc. of the prod bought\r\n        string url; //nft url\r\n        string trxnHash; //trxn hash from frontend\r\n        uint256 nftType;\r\n        // nftType is for either it is electric, grocery, /... 1 for electricity, 2 for grocery and so on...\r\n        // //1 = special i.e electrical/>10000  || electrical and cost>=5000 //done\r\n        // //2 = prelaunch    //done\r\n        // //3 = generic everything less than 10K\r\n        // //4 = Non transferable i.e music, video etc. //done\r\n        uint256 boughtOn; //date on which the item is bought can be obtained using block.timestamp()\r\n        address seller; //address of the person who sold the item\r\n        uint256 ExpireOn; //If the item is expireable, Then it contains the date on which it will be expired.\r\n        bool expireable; // Stores if the item is Expireable or not?\r\n    }\r\n\r\n    /***** \r\n    NFTs store array of string.\r\n    It contains all the Unique Strings from which a NFT is being generated.\r\n    *****/\r\n    string[] public NFTs;\r\n\r\n    /***** \r\n    AllNonTransferableNFT mapping  stores all the non transferable NFT's.\r\n    Parameters:\r\n    address: Address of the Person \r\n    uint[]: stores all the tokenId.\r\n    *****/\r\n    mapping(address => uint256[]) public AllNonTransferrableNFT;\r\n\r\n    /***** \r\n    AllPreLaunchNFT mapping  stores all the non Prelaunch NFT's.\r\n    Parameters:\r\n    address: Address of the Person \r\n    uint[]: stores all the tokenId.\r\n    *****/\r\n    mapping(address => uint256[]) public AllPreLaunchNFT;\r\n    /***** \r\n    AllSpecialNFT mapping  stores all the non transferable NFT's.\r\n    Parameters:\r\n    address: Address of the Person \r\n    uint[]: stores all the tokenId.\r\n    *****/\r\n    mapping(address => uint256[]) public AllSpecialNFT;\r\n    /***** \r\n    AllGenericNFT mapping  stores all the non transferable NFT's.\r\n    Parameters:\r\n    address: Address of the Person \r\n    uint[]: stores all the tokenId.\r\n    *****/\r\n    mapping(address => uint256[]) public AllGenericNFT;\r\n    /***** \r\n    AllStakedNFT mapping  stores all the NFT's staked in contract..\r\n    Parameters:\r\n    address: Address of the Person \r\n    uint[]: stores all the tokenId.\r\n    *****/\r\n    mapping(address => uint256[]) public AllStakedNFT;\r\n\r\n    /***** \r\n    _NFTExists mapping  stores wether the NFT is created or not?\r\n    It contains if the NFT with gien unique string exists or not.\r\n    Parameters:\r\n    string: Unique String from which a NFT is being generated.  \r\n    bool: true or false. True if it exists.\r\n    *****/\r\n    mapping(string => bool) _NFTExists;\r\n\r\n    address public owner;\r\n\r\n    /***** \r\n    NFTinfo mapping stores the information of the NFT using tokenId.\r\n    For every tokenId, NFT information is stored.\r\n    Parameters:\r\n    uint: TokenId\r\n    nftProp: Structure that contains multiple datatypes.\r\n    *****/\r\n    mapping(uint256 => nftProp) public NFTinfo;\r\n\r\n    /***** \r\n    New Mapping for Refurbished Contract.\r\n    previousOwners mapping stores that how many owners did this token had.\r\n    Parameters:\r\n    uint: TokenId\r\n    uint: Number of Owners.\r\n    *****/\r\n    mapping(uint256 => uint256) previousOwners;\r\n\r\n    /***** \r\n    setURL: Temporary function that can change the NFT url, if in future we want to make modifications.\r\n    Parameters:\r\n    uint: TokenId of the NFT that we want to change the URL of.\r\n    string: _nftURL the new URL.\r\n    Can only be done by the contract OWNER.\r\n    *****/\r\n    function setURL(uint256 tokenId, string memory _nftURL) public {\r\n        require(\r\n            msg.sender == owner,\r\n            \"Not authorised to add the URL to the NFT\"\r\n        );\r\n        NFTinfo[tokenId].url = _nftURL;\r\n    }\r\n\r\n    /***** \r\n    Constructor Set the Name and Symbol.\r\n    *****/\r\n    constructor() ERC721(\"SterlingStore\", \"SterlingNFT\") {\r\n        owner = msg.sender;\r\n    }\r\n\r\n    //if item number is greater than one....\r\n    // cap is the maximum number of items one can buy.\r\n    // MODIFY THIS FUNCTION\r\n    /***** \r\n    buyBulk function, is used to generate multiple NFT, when user is trying to buy more than one item.\r\n    Parameters:\r\n    uint: tokenId\r\n    uint: _NumberOfItems.\r\n    uint: _cap is the maximum number of items bought.\r\n    *****/\r\n    function buyBulk(\r\n        uint256 tokenId,\r\n        uint256 _NumberOfItems,\r\n        uint256 _cap\r\n    ) public {\r\n        require(\r\n            _cap <= _NumberOfItems,\r\n            \"Must Not exceed the Cap provided by the seller...\"\r\n        );\r\n        for (uint256 i = 0; i < _NumberOfItems; i += 1)\r\n            _mint(msg.sender, tokenId);\r\n    }\r\n\r\n    /***** \r\n    viewNFTPropByIndex: Temporary function to check if the Properties of NFT is being successfully stored.\r\n    Parameters:\r\n    uint: TokenId\r\n    Return:\r\n    string :name\r\n    string: description\r\n    uint: nftType\r\n    address: seller\r\n    *****/\r\n    function viewNFTPropByIndex1(uint256 _tokenId)\r\n        public\r\n        view\r\n        returns (\r\n            string memory,\r\n            string memory,\r\n            string memory,\r\n            string memory,\r\n            uint256\r\n        )\r\n    {\r\n        return (\r\n            NFTinfo[_tokenId].name,\r\n            NFTinfo[_tokenId].description,\r\n            NFTinfo[_tokenId].url,\r\n            NFTinfo[_tokenId].trxnHash,\r\n            NFTinfo[_tokenId].nftType\r\n        );\r\n    }\r\n\r\n    function viewNFTPropByIndex2(uint256 _tokenId)\r\n        public\r\n        view\r\n        returns (\r\n            uint256,\r\n            address,\r\n            uint256,\r\n            bool\r\n        )\r\n    {\r\n        return (\r\n            NFTinfo[_tokenId].boughtOn,\r\n            NFTinfo[_tokenId].seller,\r\n            NFTinfo[_tokenId].ExpireOn,\r\n            NFTinfo[_tokenId].expireable\r\n        );\r\n    }\r\n\r\n    /***** \r\n    addNftProp function adds the property of NFT in NFTinfo mapping.\r\n    Parameters:\r\n    uint256: _tokenId,\r\n    bool: _minted,\r\n    string: _name,\r\n    string: _description,\r\n    string: _url,\r\n    string: _trxnHash,\r\n    uint256: _nftType,\r\n    uint256: _boughtOn,\r\n    address: _seller,\r\n    uint256: _ExpireOn,\r\n    bool: _expireable \r\n    *****/\r\n    function addNftProp(\r\n        uint256 _tokenId,\r\n        bool _minted,\r\n        string memory _name,\r\n        string memory _description,\r\n        string memory _url,\r\n        string memory _trxnHash,\r\n        uint256 _nftType,\r\n        uint256 _boughtOn,\r\n        address _seller,\r\n        uint256 _ExpireOn,\r\n        bool _expireable\r\n    ) public {\r\n        NFTinfo[_tokenId].minted = _minted;\r\n        NFTinfo[_tokenId].name = _name;\r\n        NFTinfo[_tokenId].description = _description;\r\n        NFTinfo[_tokenId].url = _url;\r\n        NFTinfo[_tokenId].trxnHash = _trxnHash;\r\n        NFTinfo[_tokenId].nftType = _nftType;\r\n        NFTinfo[_tokenId].boughtOn = block.timestamp;\r\n        NFTinfo[_tokenId].seller = _seller;\r\n        NFTinfo[_tokenId].ExpireOn = _ExpireOn;\r\n        NFTinfo[_tokenId].expireable = _expireable;\r\n    }\r\n\r\n    /***** \r\n    boughtOn & tempExp: Temporary variables for check.\r\n    *****/\r\n    // to transform a JavaScript date to unix timestamp (the number of seconds since 1970)\r\n    uint256 public boughtOnDate;\r\n    uint256 public tempExp;\r\n\r\n    /***** \r\n    addNewBoughtOn & addTempExp: Temporary function to check the functionality.\r\n    addNewBoughtOn - adds the current timestamp \r\n    addTempExp - adds a expiry date by taking a input i.e expiry date.\r\n    *****/\r\n    function addNewBoughtOn() public {\r\n        boughtOnDate = block.timestamp;\r\n    }\r\n\r\n    function addTempExp(uint256 _exp) public {\r\n        tempExp = _exp;\r\n    }\r\n\r\n    /***** \r\n    addExpiredOn function, is used to add the expiry of a token.\r\n    Parameters:\r\n    uint: _expiryDate //Expiry date will come from frontend\r\n    uint: tokenId\r\n    *****/\r\n    //USE THIS to get the current date: const dateInSecs = Math.floor(new Date().getTime() / 1000);\r\n    function addExpiredOn(uint256 _expiryDate, uint256 _tokenId) public {\r\n        NFTinfo[_tokenId].ExpireOn = _expiryDate;\r\n    }\r\n\r\n    /***** \r\n    ifTimeHasPassed function, is used to check if the expiry of the item has been reached or not.\r\n    Parameters:\r\n    uint: _expireOn is the expiry date //Expiry date will come from frontend\r\n    Return:\r\n    bool: if the expiry has reached then true otherwise false.\r\n    *****/\r\n\r\n    function ifTimeHasPassed(uint256 __ExpireOn) public view returns (bool) {\r\n        return (block.timestamp > __ExpireOn);\r\n    }\r\n\r\n    /***** \r\n    AllSpecialNFTLength is used to find the length of the mapping.\r\n    nftsLen function, is used to find the current length of th earray which contains all the NFT's. Returns length\r\n    nftVal function is used to find the Unique string form which the NFT has been generated. Takes id as input and returns the unique URL.\r\n    *****/\r\n    function AllSpecialNFTLength(address _off) public view returns (uint256) {\r\n        return AllSpecialNFT[_off].length;\r\n    }\r\n\r\n    function addSpecialNFT(address _off, uint256 _tokenId) internal {\r\n        AllSpecialNFT[_off].push(_tokenId);\r\n    }\r\n\r\n    function nftsLen() public view returns (uint256) {\r\n        return NFTs.length;\r\n    }\r\n\r\n    function nftVal(uint256 _id) public view returns (string memory) {\r\n        return NFTs[_id];\r\n    }\r\n\r\n    /***** \r\n    _NonTransferableNFT function, is used to mint and then add the property of the NFT.\r\n    Parameters:\r\n    string: _nft - Unique URL\r\n    bool: _minted,\r\n    string: _name\r\n    string: _description\r\n    string: _url\r\n    string: _trxnHash\r\n    uint256: _nftType\r\n    uint256: _boughtOn\r\n    address: _seller\r\n    uint256: _ExpireOn\r\n    bool: _expireable\r\n    *****/\r\n\r\n    function _NonTransferableNFT(\r\n        string memory _nft,\r\n        bool _minted,\r\n        string memory _name,\r\n        string memory _description,\r\n        string memory _url,\r\n        string memory _trxnHash,\r\n        uint256 _nftType,\r\n        uint256 _boughtOn,\r\n        address _seller,\r\n        uint256 _ExpireOn,\r\n        address _off\r\n    ) external {\r\n        uint256 _tokenId = nftsLen();\r\n        mintToOthers(_off, _nft);\r\n\r\n        addNftProp(\r\n            _tokenId,\r\n            _minted,\r\n            _name,\r\n            _description,\r\n            _url,\r\n            _trxnHash,\r\n            _nftType,\r\n            _boughtOn,\r\n            _seller,\r\n            _ExpireOn,\r\n            true\r\n        );\r\n\r\n        AllNonTransferrableNFT[_off].push(_tokenId);\r\n    }\r\n\r\n    /***** \r\n    _PreLaunch function, is used to mint and then add the property of the NFT.\r\n    Parameters:\r\n    string: _nft - Unique URL\r\n    bool: _minted,\r\n    string: _name\r\n    string: _description\r\n    string: _url\r\n    string: _trxnHash\r\n    uint256: _nftType\r\n    uint256: _boughtOn\r\n    address: _seller\r\n    uint256: _ExpireOn\r\n    bool: _expireable\r\n    *****/\r\n    function _PreLaunch(\r\n        string memory _nft,\r\n        bool _minted,\r\n        string memory _name,\r\n        string memory _description,\r\n        string memory _url,\r\n        string memory _trxnHash,\r\n        uint256 _nftType,\r\n        uint256 _boughtOn,\r\n        address _seller,\r\n        uint256 _ExpireOn,\r\n        address _off\r\n    ) external {\r\n        uint256 _tokenId = nftsLen();\r\n        mintToOthers(_off, _nft);\r\n        addNftProp(\r\n            _tokenId,\r\n            _minted,\r\n            _name,\r\n            _description,\r\n            _url,\r\n            _trxnHash,\r\n            _nftType,\r\n            _boughtOn,\r\n            _seller,\r\n            _ExpireOn,\r\n            true\r\n        );\r\n        AllPreLaunchNFT[_off].push(_tokenId);\r\n    }\r\n\r\n    /***** \r\n    _Generic function, is used to mint and then add the property of the NFT.\r\n    Parameters:\r\n    string: _nft - Unique URL\r\n    bool: _minted,\r\n    string: _name\r\n    string: _description\r\n    string: _url\r\n    string: _trxnHash\r\n    uint256: _nftType\r\n    uint256: _boughtOn\r\n    address: _seller\r\n    uint256: _ExpireOn\r\n    bool: _expireable\r\n    *****/\r\n\r\n    function _Generic(\r\n        string memory _nft,\r\n        bool _minted,\r\n        string memory _name,\r\n        string memory _description,\r\n        string memory _url,\r\n        string memory _trxnHash,\r\n        uint256 _nftType,\r\n        uint256 _boughtOn,\r\n        address _seller,\r\n        uint256 _ExpireOn,\r\n        address _off\r\n    ) external {\r\n        uint256 _tokenId = nftsLen();\r\n        mintToOthers(_off, _nft);\r\n        addNftProp(\r\n            _tokenId,\r\n            _minted,\r\n            _name,\r\n            _description,\r\n            _url,\r\n            _trxnHash,\r\n            _nftType,\r\n            _boughtOn,\r\n            _seller,\r\n            _ExpireOn,\r\n            true\r\n        );\r\n\r\n        AllGenericNFT[_off].push(_tokenId);\r\n    }\r\n\r\n    /***** \r\n    _Special function, is used to mint and then add the property of the NFT.\r\n    Parameters:\r\n    string: _nft - Unique URL\r\n    bool: _minted,\r\n    string: _name\r\n    string: _description\r\n    string: _url\r\n    string: _trxnHash\r\n    uint256: _nftType\r\n    uint256: _boughtOn\r\n    address: _seller\r\n    uint256: _ExpireOn\r\n    bool: _expireable\r\n    *****/\r\n    function _Special(\r\n        string memory _nft,\r\n        bool _minted,\r\n        string memory _name,\r\n        string memory _description,\r\n        string memory _url,\r\n        string memory _trxnHash,\r\n        uint256 _nftType,\r\n        uint256 _boughtOn,\r\n        address _seller,\r\n        uint256 _ExpireOn,\r\n        address _off\r\n    ) external {\r\n        uint256 _tokenId = nftsLen();\r\n        mintToOthers(_off, _nft);\r\n        addNftProp(\r\n            _tokenId,\r\n            _minted,\r\n            _name,\r\n            _description,\r\n            _url,\r\n            _trxnHash,\r\n            _nftType,\r\n            _boughtOn,\r\n            _seller,\r\n            _ExpireOn,\r\n            false\r\n        );\r\n        // addSpecialNFT(_off, _tokenId);\r\n        AllSpecialNFT[_off].push(_tokenId);\r\n    }\r\n\r\n    /***** \r\n    _NonTransferableNFT function, is used to mint and then add the property of the NFT.\r\n    Parameters:\r\n    address: persons address.\r\n    uint []: Integer Array that contains all the IDS owned by te that address.\r\n    *****/\r\n    mapping(address => uint256[]) _ownerOwnedIds;\r\n\r\n    /***** \r\n    removeAllExpiredNFT function, is used to remove the Expired NFT from the list. \r\n    Parameters:\r\n    address: persons address.\r\n    string: __url of the NEW nft, this is for temporary right now. Fix this by directly adding url in the code.\r\n    *****/\r\n    //call this continuously.... for particular wallet address so that expired IDS can be removed from the mapping.\r\n    function removeAllExpiredNFT(address _of, string memory __url) public {\r\n        uint256 totalTokensOfOwner = _ownerOwnedIds[_of].length;\r\n        uint256[] storage allIds = _ownerOwnedIds[_of];\r\n        for (uint256 i = 0; i < totalTokensOfOwner; i++) {\r\n            if (\r\n                NFTinfo[allIds[i]].expireable == true &&\r\n                ifTimeHasPassed(NFTinfo[allIds[i]].ExpireOn)\r\n            ) {\r\n                allIds[i] = allIds[allIds.length - 1];\r\n                allIds.pop();\r\n                NFTinfo[i].description = \"EXPIRED ITEM\";\r\n                NFTinfo[i].url = __url; //add a url where IMAGE SHOWS EXPIRED ITEM\r\n            }\r\n        }\r\n        _ownerOwnedIds[_of] = allIds;\r\n    }\r\n\r\n    /***** \r\n    mint function, is used to mint a new NFT by the Unique URL.\r\n    Parameters:\r\n    string: _nft which is a UNIQUE URL.\r\n    *****/\r\n    function mint(string memory _nft) public {\r\n        //validation that the nft we are minting has not yet minted.\r\n        require(!_NFTExists[_nft], \"Dang it!!, I Have already been minted\");\r\n        NFTs.push(_nft); //add this Unique url to the NFTs Array.\r\n        uint256 _id = NFTs.length - 1;\r\n        _mint(msg.sender, _id);\r\n        emit mintEvent(msg.sender, _id);\r\n        _ownerOwnedIds[msg.sender].push(_id);\r\n        previousOwners[_id] += 1; //owners has been increased....or it has been sold once..\r\n        //everytime we mint, then we are making sure that particular NFT is not minted again.\r\n        _NFTExists[_nft] = true;\r\n    }\r\n\r\n    /***** \r\n    mintToOthers function, is used to mint a new NFT to a address by the Unique URL.\r\n    Parameters:\r\n    address: address of the person to whose address you want ot mint ht eNFT.\r\n    string: _nft which is a UNIQUE URL.\r\n\r\n    *****/\r\n    function mintToOthers(address to, string memory _nft) public virtual {\r\n        //requires that the address is a valid and not 0.\r\n        require(to != address(0), \"ERC721: minting to the 0 address.\");\r\n        require(!_NFTExists[_nft], \"Dang it!!, I Have already been minted\");\r\n        NFTs.push(_nft);\r\n        uint256 _id = NFTs.length - 1;\r\n        _mint(to, _id);\r\n        emit mintEvent(msg.sender, _id);\r\n        //everytime we mint, then we are making sure that particular NFT is not minted again.\r\n        _NFTExists[_nft] = true;\r\n        previousOwners[_id] += 1;\r\n    }\r\n\r\n    /***** \r\n    Stake Prop contains different information on when was this nft staked and what else to do with it. or when is it supposed to be sent back.\r\n    *****/\r\n    struct stakeProp {\r\n        uint256 _stakedOn;\r\n        uint256 _stakedTill;\r\n    }\r\n    mapping(address => mapping(uint256 => stakeProp)) StakedNFTs;\r\n\r\n    /***** \r\n    StakeSpecialNFT function, is used to stake a Special NFT so that particular person can participate in the VOTING.\r\n    Parameters:\r\n    address: address of the person to whose address you want to mint the NFT.\r\n    Returns:\r\n    bool: True if the staking is successful otherwise false.\r\n    *****/\r\n\r\n    function StakeSpecialNFT(address _off, uint256 _till) public {\r\n        uint256 _tokenId = AllSpecialNFT[_off].length - 1;\r\n\r\n        // approve(_off, AllSpecialNFT[_off][_tokenId]); // this will send address and token id.\r\n        _transfer(_off, address(this), _tokenId);\r\n        AllSpecialNFT[_off].pop();\r\n        StakedNFTs[_off][_tokenId]._stakedOn = block.timestamp;\r\n        StakedNFTs[_off][_tokenId]._stakedTill = _till;\r\n        emit Stake(_off, owner, _tokenId);\r\n    }\r\n\r\n    /***** \r\n    getAllStakedNFTFromAddress function, is used to return all the staked NFT's of the user.\r\n    It takes the address and returns integer array that contains the token ids that have been staked by the user.\r\n    Parameters:\r\n    address: address of the person to whose address you want to mint the NFT.\r\n    Returns:\r\n    uint[]: an array containing all the tokenIds staked of that user.\r\n    *****/\r\n    function getAllStakedNFTFromAddress(address _off)\r\n        public\r\n        view\r\n        returns (uint256[] memory)\r\n    {\r\n        return AllStakedNFT[_off];\r\n    }\r\n\r\n    /***** \r\n    getStakedNFTProp function, is used to return the stakedOn and StakedTill.\r\n    Parameters:\r\n    address: address of the person to whose address you want to mint the NFT.\r\n    _tokenId: id of the token whose information needs to be fetched.\r\n    Returns:\r\n    uint, uint\r\n    *****/\r\n    function getStakedNFTProp(address _off, uint256 _tokenId)\r\n        public\r\n        view\r\n        returns (uint256, uint256)\r\n    {\r\n        return (\r\n            StakedNFTs[_off][_tokenId]._stakedOn,\r\n            StakedNFTs[_off][_tokenId]._stakedTill\r\n        );\r\n    }\r\n}\r\n",
  "sourcePath": "C:\\Users\\Neeraj\\Desktop\\Sterling Store\\src\\contracts\\NFT.sol",
  "compiler": {
    "name": "solc",
    "version": "0.8.17+commit.8df45f5f.Emscripten.clang"
  },
  "schemaVersion": "3.4.11",
  "updatedAt": "2023-01-23T10:35:29.198Z",
  "devdoc": {
    "kind": "dev",
    "methods": {
      "approve(address,uint256)": {
        "details": "See {IERC721-approve}."
      },
      "balanceOf(address)": {
        "details": "See {IERC721-balanceOf}."
      },
      "getApproved(uint256)": {
        "details": "See {IERC721-getApproved}."
      },
      "isApprovedForAll(address,address)": {
        "details": "See {IERC721-isApprovedForAll}."
      },
      "name()": {
        "details": "See {IERC721Metadata-name}."
      },
      "ownerOf(uint256)": {
        "details": "See {IERC721-ownerOf}."
      },
      "safeTransferFrom(address,address,uint256)": {
        "details": "See {IERC721-safeTransferFrom}."
      },
      "safeTransferFrom(address,address,uint256,bytes)": {
        "details": "See {IERC721-safeTransferFrom}."
      },
      "setApprovalForAll(address,bool)": {
        "details": "See {IERC721-setApprovalForAll}."
      },
      "supportsInterface(bytes4)": {
        "details": "See {IERC165-supportsInterface}."
      },
      "symbol()": {
        "details": "See {IERC721Metadata-symbol}."
      },
      "tokenURI(uint256)": {
        "details": "See {IERC721Metadata-tokenURI}."
      },
      "transferFrom(address,address,uint256)": {
        "details": "See {IERC721-transferFrom}."
      }
    },
    "version": 1
  },
  "userdoc": {
    "kind": "user",
    "methods": {},
    "version": 1
  }
}