{
  "contractName": "NFT",
  "abi": [
    {
      "inputs": [],
      "stateMutability": "nonpayable",
      "type": "constructor"
    },
    {
      "anonymous": false,
      "inputs": [
        {
          "indexed": true,
          "internalType": "address",
          "name": "_owner",
          "type": "address"
        },
        {
          "indexed": true,
          "internalType": "address",
          "name": "_approved",
          "type": "address"
        },
        {
          "indexed": true,
          "internalType": "uint256",
          "name": "_tokenId",
          "type": "uint256"
        }
      ],
      "name": "Approval",
      "type": "event"
    },
    {
      "anonymous": false,
      "inputs": [
        {
          "indexed": true,
          "internalType": "address",
          "name": "_from",
          "type": "address"
        },
        {
          "indexed": true,
          "internalType": "address",
          "name": "_to",
          "type": "address"
        },
        {
          "indexed": true,
          "internalType": "uint256",
          "name": "_tokenId",
          "type": "uint256"
        }
      ],
      "name": "Transfer",
      "type": "event"
    },
    {
      "inputs": [
        {
          "internalType": "uint256",
          "name": "",
          "type": "uint256"
        }
      ],
      "name": "NFTinfo",
      "outputs": [
        {
          "internalType": "bool",
          "name": "minted",
          "type": "bool"
        },
        {
          "internalType": "string",
          "name": "name",
          "type": "string"
        },
        {
          "internalType": "string",
          "name": "description",
          "type": "string"
        },
        {
          "internalType": "string",
          "name": "url",
          "type": "string"
        },
        {
          "internalType": "string",
          "name": "trxnHash",
          "type": "string"
        },
        {
          "internalType": "uint256",
          "name": "nftType",
          "type": "uint256"
        },
        {
          "internalType": "uint256",
          "name": "boughtOn",
          "type": "uint256"
        },
        {
          "internalType": "address",
          "name": "seller",
          "type": "address"
        },
        {
          "internalType": "uint256",
          "name": "ExpireOn",
          "type": "uint256"
        },
        {
          "internalType": "bool",
          "name": "expireable",
          "type": "bool"
        }
      ],
      "stateMutability": "view",
      "type": "function"
    },
    {
      "inputs": [
        {
          "internalType": "uint256",
          "name": "",
          "type": "uint256"
        }
      ],
      "name": "NFTs",
      "outputs": [
        {
          "internalType": "string",
          "name": "",
          "type": "string"
        }
      ],
      "stateMutability": "view",
      "type": "function"
    },
    {
      "inputs": [
        {
          "internalType": "uint256",
          "name": "tokenId",
          "type": "uint256"
        }
      ],
      "name": "_exists",
      "outputs": [
        {
          "internalType": "bool",
          "name": "",
          "type": "bool"
        }
      ],
      "stateMutability": "view",
      "type": "function"
    },
    {
      "inputs": [
        {
          "internalType": "address",
          "name": "_to",
          "type": "address"
        },
        {
          "internalType": "uint256",
          "name": "_tokenId",
          "type": "uint256"
        }
      ],
      "name": "approve",
      "outputs": [],
      "stateMutability": "nonpayable",
      "type": "function"
    },
    {
      "inputs": [
        {
          "internalType": "address",
          "name": "_owner",
          "type": "address"
        }
      ],
      "name": "balanceOf",
      "outputs": [
        {
          "internalType": "uint256",
          "name": "",
          "type": "uint256"
        }
      ],
      "stateMutability": "view",
      "type": "function"
    },
    {
      "inputs": [],
      "name": "boughtOn",
      "outputs": [
        {
          "internalType": "uint256",
          "name": "",
          "type": "uint256"
        }
      ],
      "stateMutability": "view",
      "type": "function"
    },
    {
      "inputs": [],
      "name": "name",
      "outputs": [
        {
          "internalType": "string",
          "name": "",
          "type": "string"
        }
      ],
      "stateMutability": "view",
      "type": "function"
    },
    {
      "inputs": [],
      "name": "owner",
      "outputs": [
        {
          "internalType": "address",
          "name": "",
          "type": "address"
        }
      ],
      "stateMutability": "view",
      "type": "function"
    },
    {
      "inputs": [
        {
          "internalType": "uint256",
          "name": "_tokenId",
          "type": "uint256"
        }
      ],
      "name": "ownerOf",
      "outputs": [
        {
          "internalType": "address",
          "name": "",
          "type": "address"
        }
      ],
      "stateMutability": "view",
      "type": "function"
    },
    {
      "inputs": [
        {
          "internalType": "address",
          "name": "_owner",
          "type": "address"
        }
      ],
      "name": "ownerTokens",
      "outputs": [
        {
          "internalType": "uint256",
          "name": "",
          "type": "uint256"
        }
      ],
      "stateMutability": "view",
      "type": "function"
    },
    {
      "inputs": [
        {
          "internalType": "bytes4",
          "name": "interfaceID",
          "type": "bytes4"
        }
      ],
      "name": "supportsInterface",
      "outputs": [
        {
          "internalType": "bool",
          "name": "",
          "type": "bool"
        }
      ],
      "stateMutability": "view",
      "type": "function"
    },
    {
      "inputs": [],
      "name": "symbol",
      "outputs": [
        {
          "internalType": "string",
          "name": "",
          "type": "string"
        }
      ],
      "stateMutability": "view",
      "type": "function"
    },
    {
      "inputs": [],
      "name": "tempExp",
      "outputs": [
        {
          "internalType": "uint256",
          "name": "",
          "type": "uint256"
        }
      ],
      "stateMutability": "view",
      "type": "function"
    },
    {
      "inputs": [
        {
          "internalType": "uint256",
          "name": "_index",
          "type": "uint256"
        }
      ],
      "name": "tokenByIndex",
      "outputs": [
        {
          "internalType": "uint256",
          "name": "",
          "type": "uint256"
        }
      ],
      "stateMutability": "view",
      "type": "function"
    },
    {
      "inputs": [
        {
          "internalType": "address",
          "name": "_owner",
          "type": "address"
        },
        {
          "internalType": "uint256",
          "name": "_index",
          "type": "uint256"
        }
      ],
      "name": "tokenOfOwnerByIndex",
      "outputs": [
        {
          "internalType": "uint256",
          "name": "",
          "type": "uint256"
        }
      ],
      "stateMutability": "view",
      "type": "function"
    },
    {
      "inputs": [],
      "name": "totalSupply",
      "outputs": [
        {
          "internalType": "uint256",
          "name": "",
          "type": "uint256"
        }
      ],
      "stateMutability": "view",
      "type": "function"
    },
    {
      "inputs": [
        {
          "internalType": "address",
          "name": "_from",
          "type": "address"
        },
        {
          "internalType": "address",
          "name": "_to",
          "type": "address"
        },
        {
          "internalType": "uint256",
          "name": "_tokenId",
          "type": "uint256"
        }
      ],
      "name": "transferFrom",
      "outputs": [],
      "stateMutability": "nonpayable",
      "type": "function"
    },
    {
      "inputs": [
        {
          "internalType": "uint256",
          "name": "tokenId",
          "type": "uint256"
        },
        {
          "internalType": "string",
          "name": "_nftURL",
          "type": "string"
        }
      ],
      "name": "setURL",
      "outputs": [],
      "stateMutability": "nonpayable",
      "type": "function"
    },
    {
      "inputs": [
        {
          "internalType": "uint256",
          "name": "tokenId",
          "type": "uint256"
        },
        {
          "internalType": "uint256",
          "name": "_NumberOfItems",
          "type": "uint256"
        },
        {
          "internalType": "uint256",
          "name": "_cap",
          "type": "uint256"
        }
      ],
      "name": "buyBulk",
      "outputs": [],
      "stateMutability": "nonpayable",
      "type": "function"
    },
    {
      "inputs": [
        {
          "internalType": "uint256",
          "name": "_tokenId",
          "type": "uint256"
        }
      ],
      "name": "viewNFTPropByIndex",
      "outputs": [
        {
          "internalType": "string",
          "name": "",
          "type": "string"
        },
        {
          "internalType": "string",
          "name": "",
          "type": "string"
        },
        {
          "internalType": "uint256",
          "name": "",
          "type": "uint256"
        },
        {
          "internalType": "address",
          "name": "",
          "type": "address"
        }
      ],
      "stateMutability": "view",
      "type": "function"
    },
    {
      "inputs": [
        {
          "internalType": "uint256",
          "name": "_tokenId",
          "type": "uint256"
        },
        {
          "internalType": "bool",
          "name": "_minted",
          "type": "bool"
        },
        {
          "internalType": "string",
          "name": "_name",
          "type": "string"
        },
        {
          "internalType": "string",
          "name": "_description",
          "type": "string"
        },
        {
          "internalType": "string",
          "name": "_url",
          "type": "string"
        },
        {
          "internalType": "string",
          "name": "_trxnHash",
          "type": "string"
        },
        {
          "internalType": "uint256",
          "name": "_nftType",
          "type": "uint256"
        },
        {
          "internalType": "uint256",
          "name": "_boughtOn",
          "type": "uint256"
        },
        {
          "internalType": "address",
          "name": "_seller",
          "type": "address"
        },
        {
          "internalType": "uint256",
          "name": "_ExpireOn",
          "type": "uint256"
        },
        {
          "internalType": "bool",
          "name": "_expireable",
          "type": "bool"
        }
      ],
      "name": "addNftProp",
      "outputs": [],
      "stateMutability": "nonpayable",
      "type": "function"
    },
    {
      "inputs": [],
      "name": "addNewBoughtOn",
      "outputs": [],
      "stateMutability": "nonpayable",
      "type": "function"
    },
    {
      "inputs": [
        {
          "internalType": "uint256",
          "name": "_exp",
          "type": "uint256"
        }
      ],
      "name": "addTempExp",
      "outputs": [],
      "stateMutability": "nonpayable",
      "type": "function"
    },
    {
      "inputs": [
        {
          "internalType": "uint256",
          "name": "_expiryDate",
          "type": "uint256"
        },
        {
          "internalType": "uint256",
          "name": "_tokenId",
          "type": "uint256"
        }
      ],
      "name": "addExpiredOn",
      "outputs": [],
      "stateMutability": "nonpayable",
      "type": "function"
    },
    {
      "inputs": [
        {
          "internalType": "uint256",
          "name": "__ExpireOn",
          "type": "uint256"
        }
      ],
      "name": "ifTimeHasPassed",
      "outputs": [
        {
          "internalType": "bool",
          "name": "",
          "type": "bool"
        }
      ],
      "stateMutability": "view",
      "type": "function"
    },
    {
      "inputs": [],
      "name": "nftsLen",
      "outputs": [
        {
          "internalType": "uint256",
          "name": "",
          "type": "uint256"
        }
      ],
      "stateMutability": "view",
      "type": "function"
    },
    {
      "inputs": [
        {
          "internalType": "uint256",
          "name": "_id",
          "type": "uint256"
        }
      ],
      "name": "nftVal",
      "outputs": [
        {
          "internalType": "string",
          "name": "",
          "type": "string"
        }
      ],
      "stateMutability": "view",
      "type": "function"
    },
    {
      "inputs": [
        {
          "internalType": "string",
          "name": "_nft",
          "type": "string"
        },
        {
          "internalType": "bool",
          "name": "_minted",
          "type": "bool"
        },
        {
          "internalType": "string",
          "name": "_name",
          "type": "string"
        },
        {
          "internalType": "string",
          "name": "_description",
          "type": "string"
        },
        {
          "internalType": "string",
          "name": "_url",
          "type": "string"
        },
        {
          "internalType": "string",
          "name": "_trxnHash",
          "type": "string"
        },
        {
          "internalType": "uint256",
          "name": "_nftType",
          "type": "uint256"
        },
        {
          "internalType": "uint256",
          "name": "_boughtOn",
          "type": "uint256"
        },
        {
          "internalType": "address",
          "name": "_seller",
          "type": "address"
        },
        {
          "internalType": "uint256",
          "name": "_ExpireOn",
          "type": "uint256"
        },
        {
          "internalType": "bool",
          "name": "_expireable",
          "type": "bool"
        }
      ],
      "name": "_NonTransferableNFT",
      "outputs": [],
      "stateMutability": "nonpayable",
      "type": "function"
    },
    {
      "inputs": [
        {
          "internalType": "string",
          "name": "_nft",
          "type": "string"
        },
        {
          "internalType": "bool",
          "name": "_minted",
          "type": "bool"
        },
        {
          "internalType": "string",
          "name": "_name",
          "type": "string"
        },
        {
          "internalType": "string",
          "name": "_description",
          "type": "string"
        },
        {
          "internalType": "string",
          "name": "_url",
          "type": "string"
        },
        {
          "internalType": "string",
          "name": "_trxnHash",
          "type": "string"
        },
        {
          "internalType": "uint256",
          "name": "_nftType",
          "type": "uint256"
        },
        {
          "internalType": "uint256",
          "name": "_boughtOn",
          "type": "uint256"
        },
        {
          "internalType": "address",
          "name": "_seller",
          "type": "address"
        },
        {
          "internalType": "uint256",
          "name": "_ExpireOn",
          "type": "uint256"
        },
        {
          "internalType": "bool",
          "name": "_expireable",
          "type": "bool"
        }
      ],
      "name": "_PreLaunch",
      "outputs": [],
      "stateMutability": "nonpayable",
      "type": "function"
    },
    {
      "inputs": [
        {
          "internalType": "string",
          "name": "_nft",
          "type": "string"
        },
        {
          "internalType": "bool",
          "name": "_minted",
          "type": "bool"
        },
        {
          "internalType": "string",
          "name": "_name",
          "type": "string"
        },
        {
          "internalType": "string",
          "name": "_description",
          "type": "string"
        },
        {
          "internalType": "string",
          "name": "_url",
          "type": "string"
        },
        {
          "internalType": "string",
          "name": "_trxnHash",
          "type": "string"
        },
        {
          "internalType": "uint256",
          "name": "_nftType",
          "type": "uint256"
        },
        {
          "internalType": "uint256",
          "name": "_boughtOn",
          "type": "uint256"
        },
        {
          "internalType": "address",
          "name": "_seller",
          "type": "address"
        },
        {
          "internalType": "uint256",
          "name": "_ExpireOn",
          "type": "uint256"
        },
        {
          "internalType": "bool",
          "name": "_expireable",
          "type": "bool"
        }
      ],
      "name": "_Generic",
      "outputs": [],
      "stateMutability": "nonpayable",
      "type": "function"
    },
    {
      "inputs": [
        {
          "internalType": "string",
          "name": "_nft",
          "type": "string"
        },
        {
          "internalType": "bool",
          "name": "_minted",
          "type": "bool"
        },
        {
          "internalType": "string",
          "name": "_name",
          "type": "string"
        },
        {
          "internalType": "string",
          "name": "_description",
          "type": "string"
        },
        {
          "internalType": "string",
          "name": "_url",
          "type": "string"
        },
        {
          "internalType": "string",
          "name": "_trxnHash",
          "type": "string"
        },
        {
          "internalType": "uint256",
          "name": "_nftType",
          "type": "uint256"
        },
        {
          "internalType": "uint256",
          "name": "_boughtOn",
          "type": "uint256"
        },
        {
          "internalType": "address",
          "name": "_seller",
          "type": "address"
        },
        {
          "internalType": "uint256",
          "name": "_ExpireOn",
          "type": "uint256"
        },
        {
          "internalType": "bool",
          "name": "_expireable",
          "type": "bool"
        }
      ],
      "name": "_Special",
      "outputs": [],
      "stateMutability": "nonpayable",
      "type": "function"
    },
    {
      "inputs": [
        {
          "internalType": "address",
          "name": "_of",
          "type": "address"
        },
        {
          "internalType": "string",
          "name": "__url",
          "type": "string"
        }
      ],
      "name": "removeAllExpiredNFT",
      "outputs": [],
      "stateMutability": "nonpayable",
      "type": "function"
    },
    {
      "inputs": [
        {
          "internalType": "string",
          "name": "_nft",
          "type": "string"
        }
      ],
      "name": "mint",
      "outputs": [],
      "stateMutability": "nonpayable",
      "type": "function"
    },
    {
      "inputs": [
        {
          "internalType": "address",
          "name": "to",
          "type": "address"
        },
        {
          "internalType": "string",
          "name": "_nft",
          "type": "string"
        }
      ],
      "name": "mintToOthers",
      "outputs": [],
      "stateMutability": "nonpayable",
      "type": "function"
    }
  ],
  "bytecode": "0x60806040523480156200001157600080fd5b506040518060400160405280600d81526020017f537465726c696e6753746f7265000000000000000000000000000000000000008152506040518060400160405280600b81526020017f537465726c696e674e46540000000000000000000000000000000000000000008152508181620000ba7f01ffc9a7a5cef8baa21ed3c5c0d7e23accb804b619e9333b597f47a0d84076e262000281640100000000026401000000009004565b620001167f13b182f4c0e5b2efbac0efe6cf6d756c8b89f4b79c5707a043ed9ea740574ee97f7feaf19471f34a12a7eaf32d5f3090aa2260ea8624dc8a138e74e0bf0f6230761862000281640100000000026401000000009004565b8160019081620001279190620005f4565b508060029081620001399190620005f4565b505050620001ba7f22c82707ba960a14c7592ffb6b8cfaa073fed0048a84cc7fa41f6b5bd8e7f2e47f3a6eb71757dfc6e784c1459d26270140c2c147d95ca985c80026fc5301c3eca17f8a7e378434598edc36d108689a030cbc9d7d465de4f74c71bae1028eed6a881b181862000281640100000000026401000000009004565b620002387f8230223f691b981717299fae9549350a0d894555723531f02108b1f522c1a7977f6da5e1284143cdd2d15038a59bde3be031250f00291d64494c12d967b3a4e0c37fc53637662700e6c65104059db8bba34439e0c32483ab7c34e3ccae52c7395495181862000281640100000000026401000000009004565b505033600c60006101000a81548173ffffffffffffffffffffffffffffffffffffffff021916908373ffffffffffffffffffffffffffffffffffffffff1602179055506200075e565b63ffffffff7c010000000000000000000000000000000000000000000000000000000002817bffffffffffffffffffffffffffffffffffffffffffffffffffffffff19160362000308576040517f08c379a0000000000000000000000000000000000000000000000000000000008152600401620002ff906200073c565b60405180910390fd5b6001600080837bffffffffffffffffffffffffffffffffffffffffffffffffffffffff19167bffffffffffffffffffffffffffffffffffffffffffffffffffffffff1916815260200190815260200160002060006101000a81548160ff02191690831515021790555050565b600081519050919050565b7f4e487b7100000000000000000000000000000000000000000000000000000000600052604160045260246000fd5b7f4e487b7100000000000000000000000000000000000000000000000000000000600052602260045260246000fd5b60006002820490506001821680620003f657607f821691505b6020821081036200040c576200040b620003ae565b5b50919050565b60008190508160005260206000209050919050565b60006020601f8301049050919050565b60008160020a8302905092915050565b600060088302620004797fffffffffffffffffffffffffffffffffffffffffffffffffffffffffffffffff8262000437565b62000485868362000437565b95508019841693508086168417925050509392505050565b6000819050919050565b6000819050919050565b6000620004d2620004cc620004c6846200049d565b620004a7565b6200049d565b9050919050565b6000819050919050565b620004ee83620004b1565b62000506620004fd82620004d9565b84845462000447565b825550505050565b600090565b6200051d6200050e565b6200052a818484620004e3565b505050565b5b8181101562000552576200054660008262000513565b60018101905062000530565b5050565b601f821115620005a1576200056b8162000412565b620005768462000427565b8101602085101562000586578190505b6200059e620005958562000427565b8301826200052f565b50505b505050565b60008160020a8304905092915050565b6000620005c960001984600802620005a6565b1980831691505092915050565b6000620005e48383620005b6565b9150826002028217905092915050565b620005ff8262000374565b67ffffffffffffffff8111156200061b576200061a6200037f565b5b620006278254620003dd565b6200063482828562000556565b600060209050601f8311600181146200066c576000841562000657578287015190505b620006638582620005d6565b865550620006d3565b601f1984166200067c8662000412565b60005b82811015620006a6578489015182556001820191506020850194506020810190506200067f565b86831015620006c65784890151620006c2601f891682620005b6565b8355505b6001600288020188555050505b505050505050565b600082825260208201905092915050565b7f496e76616c696420496e74657266616365207265717565737400000000000000600082015250565b600062000724601983620006db565b91506200073182620006ec565b602082019050919050565b60006020820190508181036000830152620007578162000715565b9050919050565b61394f806200076e6000396000f3fe608060405234801561001057600080fd5b5060043610610223576000357c0100000000000000000000000000000000000000000000000000000000900480637c0306f111610137578063afaa804d116100ca578063c0e50d6811610099578063c0e50d681461061b578063c30c896714610654578063cb9dbee914610670578063d85d3d271461068c578063f8e76cc0146106a857610223565b8063afaa804d14610597578063b864bfdf146105b3578063bba7723e146105cf578063bd7e2f95146105ff57610223565b8063909c2f9b11610106578063909c2f9b1461051157806395d89b411461052d578063a3c0b95b1461054b578063abc77c661461057b57610223565b80637c0306f11461049f578063803ef7b1146104bb57806389f8c219146104d75780638da5cb5b146104f357610223565b806323b872dd116101ba5780634f6ccce7116101895780634f6ccce7146103d55780636352211e146104055780636e9940b61461043557806370a082311461045357806374daf6e11461048357610223565b806323b872dd1461034c578063263ae44d146103685780632f745c591461039b57806334f3ee77146103cb57610223565b80630bc04d53116101f65780630bc04d53146102b05780630bebfc1a146102ce57806318160ddd146102fe5780631e1c62da1461031c57610223565b806301ffc9a71461022857806306fdde03146102585780630780c61214610276578063095ea7b314610294575b600080fd5b610242600480360381019061023d91906123bf565b6106d8565b60405161024f9190612407565b60405180910390f35b61026061073f565b60405161026d91906124b2565b60405180910390f35b61027e6107d1565b60405161028b91906124ed565b60405180910390f35b6102ae60048036038101906102a99190612592565b6107d7565b005b6102b8610972565b6040516102c591906124ed565b60405180910390f35b6102e860048036038101906102e391906125d2565b61097f565b6040516102f59190612407565b60405180910390f35b61030661098b565b60405161031391906124ed565b60405180910390f35b610336600480360381019061033191906125d2565b610998565b60405161034391906124b2565b60405180910390f35b610366600480360381019061036191906125ff565b610a48565b005b610382600480360381019061037d91906125d2565b610a6b565b6040516103929493929190612661565b60405180910390f35b6103b560048036038101906103b09190612592565b610c12565b6040516103c291906124ed565b60405180910390f35b6103d3610cc2565b005b6103ef60048036038101906103ea91906125d2565b610ccb565b6040516103fc91906124ed565b60405180910390f35b61041f600480360381019061041a91906125d2565b610d3c565b60405161042c91906126b4565b60405180910390f35b61043d610e1a565b60405161044a91906124ed565b60405180910390f35b61046d600480360381019061046891906126cf565b610e20565b60405161047a91906124ed565b60405180910390f35b61049d6004803603810190610498919061285d565b610eda565b005b6104b960048036038101906104b4919061285d565b610f10565b005b6104d560048036038101906104d091906129dd565b610f46565b005b6104f160048036038101906104ec91906125d2565b6110dd565b005b6104fb6110e7565b60405161050891906126b4565b60405180910390f35b61052b600480360381019061052691906129dd565b61110d565b005b610535611390565b60405161054291906124b2565b60405180910390f35b610565600480360381019061056091906125d2565b611422565b60405161057291906124b2565b60405180910390f35b61059560048036038101906105909190612a39565b6114ce565b005b6105b160048036038101906105ac919061285d565b6114ed565b005b6105cd60048036038101906105c89190612a79565b611523565b005b6105e960048036038101906105e491906126cf565b6116c2565b6040516105f691906124ed565b60405180910390f35b61061960048036038101906106149190612bdd565b61170b565b005b610635600480360381019061063091906125d2565b61177d565b60405161064b9a99989796959493929190612c30565b60405180910390f35b61066e60048036038101906106699190612ce8565b611a2b565b005b61068a6004803603810190610685919061285d565b611ae3565b005b6106a660048036038101906106a19190612d44565b611b19565b005b6106c260048036038101906106bd91906125d2565b611ca6565b6040516106cf9190612407565b60405180910390f35b6000806000837bffffffffffffffffffffffffffffffffffffffffffffffffffffffff19167bffffffffffffffffffffffffffffffffffffffffffffffffffffffff1916815260200190815260200160002060009054906101000a900460ff169050919050565b60606001805461074e90612dbc565b80601f016020809104026020016040519081016040528092919081815260200182805461077a90612dbc565b80156107c75780601f1061079c576101008083540402835291602001916107c7565b820191906000526020600020905b8154815290600101906020018083116107aa57829003601f168201915b5050505050905090565b600f5481565b60006107e282610d3c565b90508073ffffffffffffffffffffffffffffffffffffffff168373ffffffffffffffffffffffffffffffffffffffff1603610852576040517f08c379a000000000000000000000000000000000000000000000000000000000815260040161084990612e5f565b60405180910390fd5b8073ffffffffffffffffffffffffffffffffffffffff163373ffffffffffffffffffffffffffffffffffffffff16146108c0576040517f08c379a00000000000000000000000000000000000000000000000000000000081526004016108b790612ef1565b60405180910390fd5b826005600084815260200190815260200160002060006101000a81548173ffffffffffffffffffffffffffffffffffffffff021916908373ffffffffffffffffffffffffffffffffffffffff160217905550818373ffffffffffffffffffffffffffffffffffffffff168273ffffffffffffffffffffffffffffffffffffffff167f8c5be1e5ebec7d5bd14f71427d1e84f3dd0314c0f7b2291e5b200ac8c7c3b92560405160405180910390a4505050565b6000600a80549050905090565b60008142119050919050565b6000600680549050905090565b6060600a82815481106109ae576109ad612f11565b5b9060005260206000200180546109c390612dbc565b80601f01602080910402602001604051908101604052809291908181526020018280546109ef90612dbc565b8015610a3c5780601f10610a1157610100808354040283529160200191610a3c565b820191906000526020600020905b815481529060010190602001808311610a1f57829003601f168201915b50505050509050919050565b610a523382611d21565b610a5b57600080fd5b610a66838383611db0565b505050565b606080600080600d6000868152602001908152602001600020600101600d6000878152602001908152602001600020600201600d600088815260200190815260200160002060050154600d600089815260200190815260200160002060070160009054906101000a900473ffffffffffffffffffffffffffffffffffffffff16838054610af790612dbc565b80601f0160208091040260200160405190810160405280929190818152602001828054610b2390612dbc565b8015610b705780601f10610b4557610100808354040283529160200191610b70565b820191906000526020600020905b815481529060010190602001808311610b5357829003601f168201915b50505050509350828054610b8390612dbc565b80601f0160208091040260200160405190810160405280929190818152602001828054610baf90612dbc565b8015610bfc5780601f10610bd157610100808354040283529160200191610bfc565b820191906000526020600020905b815481529060010190602001808311610bdf57829003601f168201915b5050505050925093509350935093509193509193565b6000610c1d83610e20565b8210610c5e576040517f08c379a0000000000000000000000000000000000000000000000000000000008152600401610c5590612f8c565b60405180910390fd5b600860008473ffffffffffffffffffffffffffffffffffffffff1673ffffffffffffffffffffffffffffffffffffffff1681526020019081526020016000208281548110610caf57610cae612f11565b5b9060005260206000200154905092915050565b42600f81905550565b6000610cd561098b565b8210610d16576040517f08c379a0000000000000000000000000000000000000000000000000000000008152600401610d0d90612ff8565b60405180910390fd5b60068281548110610d2a57610d29612f11565b5b90600052602060002001549050919050565b60008073ffffffffffffffffffffffffffffffffffffffff166003600084815260200190815260200160002060009054906101000a900473ffffffffffffffffffffffffffffffffffffffff1673ffffffffffffffffffffffffffffffffffffffff1603610ddf576040517f08c379a0000000000000000000000000000000000000000000000000000000008152600401610dd690613064565b60405180910390fd5b6003600083815260200190815260200160002060009054906101000a900473ffffffffffffffffffffffffffffffffffffffff169050919050565b60105481565b600081600073ffffffffffffffffffffffffffffffffffffffff168173ffffffffffffffffffffffffffffffffffffffff1603610e92576040517f08c379a0000000000000000000000000000000000000000000000000000000008152600401610e89906130d0565b60405180910390fd5b600460008473ffffffffffffffffffffffffffffffffffffffff1673ffffffffffffffffffffffffffffffffffffffff16815260200190815260200160002054915050919050565b6000610ee4610972565b9050610eef8c611b19565b610f02818c8c8c8c8c8c8c8c8c8c611523565b505050505050505050505050565b6000610f1a610972565b9050610f258c611b19565b610f38818c8c8c8c8c8c8c8c8c8c611523565b505050505050505050505050565b600073ffffffffffffffffffffffffffffffffffffffff168273ffffffffffffffffffffffffffffffffffffffff1603610fb5576040517f08c379a0000000000000000000000000000000000000000000000000000000008152600401610fac90613162565b60405180910390fd5b600b81604051610fc591906131be565b908152602001604051809103902060009054906101000a900460ff1615611021576040517f08c379a000000000000000000000000000000000000000000000000000000000815260040161101890613247565b60405180910390fd5b600a819080600181540180825580915050600190039060005260206000200160009091909190915090816110559190613419565b5060006001600a8054905061106a919061351a565b90506110768382611ff5565b6001600b8360405161108891906131be565b908152602001604051809103902060006101000a81548160ff0219169083151502179055506001600e600083815260200190815260200160002060008282546110d1919061354e565b92505081905550505050565b8060108190555050565b600c60009054906101000a900473ffffffffffffffffffffffffffffffffffffffff1681565b6000601160008473ffffffffffffffffffffffffffffffffffffffff1673ffffffffffffffffffffffffffffffffffffffff1681526020019081526020016000208054905090506000601160008573ffffffffffffffffffffffffffffffffffffffff1673ffffffffffffffffffffffffffffffffffffffff168152602001908152602001600020905060005b8281101561133a5760011515600d60008484815481106111bd576111bc612f11565b5b9060005260206000200154815260200190815260200160002060090160009054906101000a900460ff16151514801561122e575061122d600d600084848154811061120b5761120a612f11565b5b906000526020600020015481526020019081526020016000206008015461097f565b5b15611327578160018380549050611245919061351a565b8154811061125657611255612f11565b5b906000526020600020015482828154811061127457611273612f11565b5b90600052602060002001819055508180548061129357611292613582565b5b600190038181906000526020600020016000905590556040518060400160405280600c81526020017f45585049524544204954454d0000000000000000000000000000000000000000815250600d600083815260200190815260200160002060020190816113019190613419565b5083600d600083815260200190815260200160002060030190816113259190613419565b505b8080611332906135b1565b91505061119a565b5080601160008673ffffffffffffffffffffffffffffffffffffffff1673ffffffffffffffffffffffffffffffffffffffff1681526020019081526020016000209080546113899291906122e4565b5050505050565b60606002805461139f90612dbc565b80601f01602080910402602001604051908101604052809291908181526020018280546113cb90612dbc565b80156114185780601f106113ed57610100808354040283529160200191611418565b820191906000526020600020905b8154815290600101906020018083116113fb57829003601f168201915b5050505050905090565b600a818154811061143257600080fd5b90600052602060002001600091509050805461144d90612dbc565b80601f016020809104026020016040519081016040528092919081815260200182805461147990612dbc565b80156114c65780601f1061149b576101008083540402835291602001916114c6565b820191906000526020600020905b8154815290600101906020018083116114a957829003601f168201915b505050505081565b81600d6000838152602001908152602001600020600801819055505050565b60006114f7610972565b90506115028c611b19565b611515818c8c8c8c8c8c8c8c8c8c611523565b505050505050505050505050565b89600d60008d815260200190815260200160002060000160006101000a81548160ff02191690831515021790555088600d60008d815260200190815260200160002060010190816115749190613419565b5087600d60008d815260200190815260200160002060020190816115989190613419565b5086600d60008d815260200190815260200160002060030190816115bc9190613419565b5085600d60008d815260200190815260200160002060040190816115e09190613419565b5084600d60008d81526020019081526020016000206005018190555042600d60008d81526020019081526020016000206006018190555082600d60008d815260200190815260200160002060070160006101000a81548173ffffffffffffffffffffffffffffffffffffffff021916908373ffffffffffffffffffffffffffffffffffffffff16021790555081600d60008d81526020019081526020016000206008018190555080600d60008d815260200190815260200160002060090160006101000a81548160ff0219169083151502179055505050505050505050505050565b6000600460008373ffffffffffffffffffffffffffffffffffffffff1673ffffffffffffffffffffffffffffffffffffffff168152602001908152602001600020549050919050565b8181111561174e576040517f08c379a00000000000000000000000000000000000000000000000000000000081526004016117459061366b565b60405180910390fd5b60005b82811015611777576117633385611ff5565b600181611770919061354e565b9050611751565b50505050565b600d6020528060005260406000206000915090508060000160009054906101000a900460ff16908060010180546117b390612dbc565b80601f01602080910402602001604051908101604052809291908181526020018280546117df90612dbc565b801561182c5780601f106118015761010080835404028352916020019161182c565b820191906000526020600020905b81548152906001019060200180831161180f57829003601f168201915b50505050509080600201805461184190612dbc565b80601f016020809104026020016040519081016040528092919081815260200182805461186d90612dbc565b80156118ba5780601f1061188f576101008083540402835291602001916118ba565b820191906000526020600020905b81548152906001019060200180831161189d57829003601f168201915b5050505050908060030180546118cf90612dbc565b80601f01602080910402602001604051908101604052809291908181526020018280546118fb90612dbc565b80156119485780601f1061191d57610100808354040283529160200191611948565b820191906000526020600020905b81548152906001019060200180831161192b57829003601f168201915b50505050509080600401805461195d90612dbc565b80601f016020809104026020016040519081016040528092919081815260200182805461198990612dbc565b80156119d65780601f106119ab576101008083540402835291602001916119d6565b820191906000526020600020905b8154815290600101906020018083116119b957829003601f168201915b5050505050908060050154908060060154908060070160009054906101000a900473ffffffffffffffffffffffffffffffffffffffff16908060080154908060090160009054906101000a900460ff1690508a565b600c60009054906101000a900473ffffffffffffffffffffffffffffffffffffffff1673ffffffffffffffffffffffffffffffffffffffff163373ffffffffffffffffffffffffffffffffffffffff1614611abb576040517f08c379a0000000000000000000000000000000000000000000000000000000008152600401611ab2906136fd565b60405180910390fd5b80600d60008481526020019081526020016000206003019081611ade9190613419565b505050565b6000611aed610972565b9050611af88c611b19565b611b0b818c8c8c8c8c8c8c8c8c8c611523565b505050505050505050505050565b600b81604051611b2991906131be565b908152602001604051809103902060009054906101000a900460ff1615611b85576040517f08c379a0000000000000000000000000000000000000000000000000000000008152600401611b7c90613247565b60405180910390fd5b600a81908060018154018082558091505060019003906000526020600020016000909190919091509081611bb99190613419565b5060006001600a80549050611bce919061351a565b9050611bda3382611ff5565b601160003373ffffffffffffffffffffffffffffffffffffffff1673ffffffffffffffffffffffffffffffffffffffff1681526020019081526020016000208190806001815401808255809150506001900390600052602060002001600090919091909150556001600e60008381526020019081526020016000206000828254611c64919061354e565b925050819055506001600b83604051611c7d91906131be565b908152602001604051809103902060006101000a81548160ff0219169083151502179055505050565b60008073ffffffffffffffffffffffffffffffffffffffff166003600084815260200190815260200160002060009054906101000a900473ffffffffffffffffffffffffffffffffffffffff1673ffffffffffffffffffffffffffffffffffffffff1603611d175760009050611d1c565b600190505b919050565b6000611d2c82611ca6565b611d6b576040517f08c379a0000000000000000000000000000000000000000000000000000000008152600401611d6290613769565b60405180910390fd5b6000611d7683610d3c565b90508073ffffffffffffffffffffffffffffffffffffffff168473ffffffffffffffffffffffffffffffffffffffff161491505092915050565b600073ffffffffffffffffffffffffffffffffffffffff168273ffffffffffffffffffffffffffffffffffffffff1603611e1f576040517f08c379a0000000000000000000000000000000000000000000000000000000008152600401611e16906137fb565b60405180910390fd5b8273ffffffffffffffffffffffffffffffffffffffff16611e3f82610d3c565b73ffffffffffffffffffffffffffffffffffffffff1614611e95576040517f08c379a0000000000000000000000000000000000000000000000000000000008152600401611e8c9061388d565b60405180910390fd5b6001600460008573ffffffffffffffffffffffffffffffffffffffff1673ffffffffffffffffffffffffffffffffffffffff1681526020019081526020016000206000828254611ee5919061351a565b925050819055506001600460008473ffffffffffffffffffffffffffffffffffffffff1673ffffffffffffffffffffffffffffffffffffffff1681526020019081526020016000206000828254611f3c919061354e565b92505081905550816003600083815260200190815260200160002060006101000a81548173ffffffffffffffffffffffffffffffffffffffff021916908373ffffffffffffffffffffffffffffffffffffffff160217905550808273ffffffffffffffffffffffffffffffffffffffff168473ffffffffffffffffffffffffffffffffffffffff167fddf252ad1be2c89b69c2b068fc378daa952ba7f163c4a11628f55a4df523b3ef60405160405180910390a4505050565b611fff8282612016565b612008816121d7565b6120128282612220565b5050565b600073ffffffffffffffffffffffffffffffffffffffff168273ffffffffffffffffffffffffffffffffffffffff1603612085576040517f08c379a000000000000000000000000000000000000000000000000000000000815260040161207c90613162565b60405180910390fd5b61208e81611ca6565b156120ce576040517f08c379a00000000000000000000000000000000000000000000000000000000081526004016120c5906138f9565b60405180910390fd5b816003600083815260200190815260200160002060006101000a81548173ffffffffffffffffffffffffffffffffffffffff021916908373ffffffffffffffffffffffffffffffffffffffff1602179055506001600460008473ffffffffffffffffffffffffffffffffffffffff1673ffffffffffffffffffffffffffffffffffffffff1681526020019081526020016000206000828254612170919061354e565b92505081905550808273ffffffffffffffffffffffffffffffffffffffff16600073ffffffffffffffffffffffffffffffffffffffff167fddf252ad1be2c89b69c2b068fc378daa952ba7f163c4a11628f55a4df523b3ef60405160405180910390a45050565b6006805490506007600083815260200190815260200160002081905550600681908060018154018082558091505060019003906000526020600020016000909190919091505550565b600860008373ffffffffffffffffffffffffffffffffffffffff1673ffffffffffffffffffffffffffffffffffffffff168152602001908152602001600020805490506009600083815260200190815260200160002081905550600860008373ffffffffffffffffffffffffffffffffffffffff1673ffffffffffffffffffffffffffffffffffffffff1681526020019081526020016000208190806001815401808255809150506001900390600052602060002001600090919091909150555050565b8280548282559060005260206000209081019282156123255760005260206000209182015b82811115612324578254825591600101919060010190612309565b5b5090506123329190612336565b5090565b5b8082111561234f576000816000905550600101612337565b5090565b6000604051905090565b600080fd5b600080fd5b60007fffffffff0000000000000000000000000000000000000000000000000000000082169050919050565b61239c81612367565b81146123a757600080fd5b50565b6000813590506123b981612393565b92915050565b6000602082840312156123d5576123d461235d565b5b60006123e3848285016123aa565b91505092915050565b60008115159050919050565b612401816123ec565b82525050565b600060208201905061241c60008301846123f8565b92915050565b600081519050919050565b600082825260208201905092915050565b60005b8381101561245c578082015181840152602081019050612441565b60008484015250505050565b6000601f19601f8301169050919050565b600061248482612422565b61248e818561242d565b935061249e81856020860161243e565b6124a781612468565b840191505092915050565b600060208201905081810360008301526124cc8184612479565b905092915050565b6000819050919050565b6124e7816124d4565b82525050565b600060208201905061250260008301846124de565b92915050565b600073ffffffffffffffffffffffffffffffffffffffff82169050919050565b600061253382612508565b9050919050565b61254381612528565b811461254e57600080fd5b50565b6000813590506125608161253a565b92915050565b61256f816124d4565b811461257a57600080fd5b50565b60008135905061258c81612566565b92915050565b600080604083850312156125a9576125a861235d565b5b60006125b785828601612551565b92505060206125c88582860161257d565b9150509250929050565b6000602082840312156125e8576125e761235d565b5b60006125f68482850161257d565b91505092915050565b6000806000606084860312156126185761261761235d565b5b600061262686828701612551565b935050602061263786828701612551565b92505060406126488682870161257d565b9150509250925092565b61265b81612528565b82525050565b6000608082019050818103600083015261267b8187612479565b9050818103602083015261268f8186612479565b905061269e60408301856124de565b6126ab6060830184612652565b95945050505050565b60006020820190506126c96000830184612652565b92915050565b6000602082840312156126e5576126e461235d565b5b60006126f384828501612551565b91505092915050565b600080fd5b600080fd5b7f4e487b7100000000000000000000000000000000000000000000000000000000600052604160045260246000fd5b61273e82612468565b810181811067ffffffffffffffff8211171561275d5761275c612706565b5b80604052505050565b6000612770612353565b905061277c8282612735565b919050565b600067ffffffffffffffff82111561279c5761279b612706565b5b6127a582612468565b9050602081019050919050565b82818337600083830152505050565b60006127d46127cf84612781565b612766565b9050828152602081018484840111156127f0576127ef612701565b5b6127fb8482856127b2565b509392505050565b600082601f830112612818576128176126fc565b5b81356128288482602086016127c1565b91505092915050565b61283a816123ec565b811461284557600080fd5b50565b60008135905061285781612831565b92915050565b60008060008060008060008060008060006101608c8e0312156128835761288261235d565b5b60008c013567ffffffffffffffff8111156128a1576128a0612362565b5b6128ad8e828f01612803565b9b505060206128be8e828f01612848565b9a505060408c013567ffffffffffffffff8111156128df576128de612362565b5b6128eb8e828f01612803565b99505060608c013567ffffffffffffffff81111561290c5761290b612362565b5b6129188e828f01612803565b98505060808c013567ffffffffffffffff81111561293957612938612362565b5b6129458e828f01612803565b97505060a08c013567ffffffffffffffff81111561296657612965612362565b5b6129728e828f01612803565b96505060c06129838e828f0161257d565b95505060e06129948e828f0161257d565b9450506101006129a68e828f01612551565b9350506101206129b88e828f0161257d565b9250506101406129ca8e828f01612848565b9150509295989b509295989b9093969950565b600080604083850312156129f4576129f361235d565b5b6000612a0285828601612551565b925050602083013567ffffffffffffffff811115612a2357612a22612362565b5b612a2f85828601612803565b9150509250929050565b60008060408385031215612a5057612a4f61235d565b5b6000612a5e8582860161257d565b9250506020612a6f8582860161257d565b9150509250929050565b60008060008060008060008060008060006101608c8e031215612a9f57612a9e61235d565b5b6000612aad8e828f0161257d565b9b50506020612abe8e828f01612848565b9a505060408c013567ffffffffffffffff811115612adf57612ade612362565b5b612aeb8e828f01612803565b99505060608c013567ffffffffffffffff811115612b0c57612b0b612362565b5b612b188e828f01612803565b98505060808c013567ffffffffffffffff811115612b3957612b38612362565b5b612b458e828f01612803565b97505060a08c013567ffffffffffffffff811115612b6657612b65612362565b5b612b728e828f01612803565b96505060c0612b838e828f0161257d565b95505060e0612b948e828f0161257d565b945050610100612ba68e828f01612551565b935050610120612bb88e828f0161257d565b925050610140612bca8e828f01612848565b9150509295989b509295989b9093969950565b600080600060608486031215612bf657612bf561235d565b5b6000612c048682870161257d565b9350506020612c158682870161257d565b9250506040612c268682870161257d565b9150509250925092565b600061014082019050612c46600083018d6123f8565b8181036020830152612c58818c612479565b90508181036040830152612c6c818b612479565b90508181036060830152612c80818a612479565b90508181036080830152612c948189612479565b9050612ca360a08301886124de565b612cb060c08301876124de565b612cbd60e0830186612652565b612ccb6101008301856124de565b612cd96101208301846123f8565b9b9a5050505050505050505050565b60008060408385031215612cff57612cfe61235d565b5b6000612d0d8582860161257d565b925050602083013567ffffffffffffffff811115612d2e57612d2d612362565b5b612d3a85828601612803565b9150509250929050565b600060208284031215612d5a57612d5961235d565b5b600082013567ffffffffffffffff811115612d7857612d77612362565b5b612d8484828501612803565b91505092915050565b7f4e487b7100000000000000000000000000000000000000000000000000000000600052602260045260246000fd5b60006002820490506001821680612dd457607f821691505b602082108103612de757612de6612d8d565b5b50919050565b7f4572726f72202d20617070726f76616c20746f2063757272656e74206f776e6560008201527f7200000000000000000000000000000000000000000000000000000000000000602082015250565b6000612e4960218361242d565b9150612e5482612ded565b604082019050919050565b60006020820190508181036000830152612e7881612e3c565b9050919050565b7f43757272656e742063616c6c6572206973206e6f7420746865206f776e65726f60008201527f662074686520746f6b656e000000000000000000000000000000000000000000602082015250565b6000612edb602b8361242d565b9150612ee682612e7f565b604082019050919050565b60006020820190508181036000830152612f0a81612ece565b9050919050565b7f4e487b7100000000000000000000000000000000000000000000000000000000600052603260045260246000fd5b7f6f776e657220696e646578206973206f7574206f662072616e67650000000000600082015250565b6000612f76601b8361242d565b9150612f8182612f40565b602082019050919050565b60006020820190508181036000830152612fa581612f69565b9050919050565b7f476c6f61626c20696e646578206973206f7574206f6620626f756e6473210000600082015250565b6000612fe2601e8361242d565b9150612fed82612fac565b602082019050919050565b6000602082019050818103600083015261301181612fd5565b9050919050565b7f546f6b656e20646f65736e277420657869737421000000000000000000000000600082015250565b600061304e60148361242d565b915061305982613018565b602082019050919050565b6000602082019050818103600083015261307d81613041565b9050919050565b7f546f6b656e20446f65736e277420457869737473000000000000000000000000600082015250565b60006130ba60148361242d565b91506130c582613084565b602082019050919050565b600060208201905081810360008301526130e9816130ad565b9050919050565b7f4552433732313a206d696e74696e6720746f207468652030206164647265737360008201527f2e00000000000000000000000000000000000000000000000000000000000000602082015250565b600061314c60218361242d565b9150613157826130f0565b604082019050919050565b6000602082019050818103600083015261317b8161313f565b9050919050565b600081905092915050565b600061319882612422565b6131a28185613182565b93506131b281856020860161243e565b80840191505092915050565b60006131ca828461318d565b915081905092915050565b7f44616e6720697421212c2049204861766520616c7265616479206265656e206d60008201527f696e746564000000000000000000000000000000000000000000000000000000602082015250565b600061323160258361242d565b915061323c826131d5565b604082019050919050565b6000602082019050818103600083015261326081613224565b9050919050565b60008190508160005260206000209050919050565b60006020601f8301049050919050565b60008160020a8302905092915050565b6000600883026132cc7fffffffffffffffffffffffffffffffffffffffffffffffffffffffffffffffff8261328c565b6132d6868361328c565b95508019841693508086168417925050509392505050565b6000819050919050565b600061331361330e613309846124d4565b6132ee565b6124d4565b9050919050565b6000819050919050565b61332d836132f8565b6133416133398261331a565b84845461329c565b825550505050565b600090565b613356613349565b613361818484613324565b505050565b5b818110156133855761337a60008261334e565b600181019050613367565b5050565b601f8211156133ca5761339b81613267565b6133a48461327c565b810160208510156133b3578190505b6133c76133bf8561327c565b830182613366565b50505b505050565b60008160020a8304905092915050565b60006133f0600019846008026133cf565b1980831691505092915050565b600061340983836133df565b9150826002028217905092915050565b61342282612422565b67ffffffffffffffff81111561343b5761343a612706565b5b6134458254612dbc565b613450828285613389565b600060209050601f8311600181146134835760008415613471578287015190505b61347b85826133fd565b8655506134e3565b601f19841661349186613267565b60005b828110156134b957848901518255600182019150602085019450602081019050613494565b868310156134d657848901516134d2601f8916826133df565b8355505b6001600288020188555050505b505050505050565b7f4e487b7100000000000000000000000000000000000000000000000000000000600052601160045260246000fd5b6000613525826124d4565b9150613530836124d4565b9250828203905081811115613548576135476134eb565b5b92915050565b6000613559826124d4565b9150613564836124d4565b925082820190508082111561357c5761357b6134eb565b5b92915050565b7f4e487b7100000000000000000000000000000000000000000000000000000000600052603160045260246000fd5b60006135bc826124d4565b91507fffffffffffffffffffffffffffffffffffffffffffffffffffffffffffffffff82036135ee576135ed6134eb565b5b600182019050919050565b7f4d757374204e6f742065786365656420746865204361702070726f766964656460008201527f206279207468652073656c6c65722e2e2e000000000000000000000000000000602082015250565b600061365560318361242d565b9150613660826135f9565b604082019050919050565b6000602082019050818103600083015261368481613648565b9050919050565b7f4e6f7420617574686f726973656420746f20616464207468652055524c20746f60008201527f20746865204e4654000000000000000000000000000000000000000000000000602082015250565b60006136e760288361242d565b91506136f28261368b565b604082019050919050565b60006020820190508181036000830152613716816136da565b9050919050565b7f746f6b656e20646f6573206e6f74206578697374730000000000000000000000600082015250565b600061375360158361242d565b915061375e8261371d565b602082019050919050565b6000602082019050818103600083015261378281613746565b9050919050565b7f4572726f72202d20455243373231205472616e7366657220746f20302041646460008201527f7265737300000000000000000000000000000000000000000000000000000000602082015250565b60006137e560248361242d565b91506137f082613789565b604082019050919050565b60006020820190508181036000830152613814816137d8565b9050919050565b7f547279696e6720746f207472616e73666572206120746f6b656e20746865206160008201527f64647265737320646f6573206e6f74202d2d2d2d2d0000000000000000000000602082015250565b600061387760358361242d565b91506138828261381b565b604082019050919050565b600060208201905081810360008301526138a68161386a565b9050919050565b7f4552433732313a20746f6b656e20616c7265616479206578697374732e000000600082015250565b60006138e3601d8361242d565b91506138ee826138ad565b602082019050919050565b60006020820190508181036000830152613912816138d6565b905091905056fea26469706673582212203fcb502a40ecd8aadbdeaf7156a919b61a0c87f3042916764657949d41c5703e64736f6c63430008110033",
  "immutableReferences": {},
  "source": "// SPDX-License-Identifier: MIT\r\npragma solidity >=0.4.22 <0.9.0;\r\nimport \"./ERC721Connector.sol\";\r\n\r\ncontract NFT is ERC721Connector {\r\n    // string public baseUri;\r\n    // string public baseExtesion = \".json\";\r\n    // function setBaseUri(string memory _baseUri) external onlyOwner {\r\n    //     baseUri = _baseUri;\r\n    // }\r\n\r\n    /***** \r\n    nftProp: Structure contains multiple dataTypes that stores different information.\r\n    *****/\r\n\r\n    struct nftProp {\r\n        bool minted; //makes sure if it is minted or not?\r\n        string name; //name of the item.\r\n        string description; //desc. of the prod bought\r\n        string url; //nft url\r\n        string trxnHash; //trxn hash from frontend\r\n        uint256 nftType;\r\n        // nftType is for either it is electric, grocery, /... 1 for electricity, 2 for grocery and so on...\r\n        // //1 = special i.e electrical/>10000  || electrical and cost>=5000 //done\r\n        // //2 = prelaunch    //done\r\n        // //3 = generic everything less than 10K\r\n        // //4 = Non transferable i.e music, video etc. //done\r\n        uint256 boughtOn; //date on which the item is bought can be obtained using block.timestamp()\r\n        address seller; //address of the person who sold the item\r\n        uint256 ExpireOn; //If the item is expireable, Then it contains the date on which it will be expired.\r\n        bool expireable; // Stores if the item is Expireable or not?\r\n    }\r\n\r\n    /***** \r\n    NFTs store array of string.\r\n    It contains all the Unique Strings from which a NFT is being generated.\r\n    *****/\r\n    string[] public NFTs;\r\n\r\n    /***** \r\n    _NFTExists mapping  stores wether the NFT is created or not?\r\n    It contains if the NFT with gien unique string exists or not.\r\n    Parameters:\r\n    string: Unique String from which a NFT is being generated.  \r\n    bool: true or false. True if it exists.\r\n    *****/\r\n    mapping(string => bool) _NFTExists;\r\n\r\n    address public owner;\r\n\r\n    /***** \r\n    NFTinfo mapping stores the information of the NFT using tokenId.\r\n    For every tokenId, NFT information is stored.\r\n    Parameters:\r\n    uint: TokenId\r\n    nftProp: Structure that contains multiple datatypes.\r\n    *****/\r\n    mapping(uint256 => nftProp) public NFTinfo;\r\n\r\n    /***** \r\n    New Mapping for Refurbished Contract.\r\n    previousOwners mapping stores that how many owners did this token had.\r\n    Parameters:\r\n    uint: TokenId\r\n    uint: Number of Owners.\r\n    *****/\r\n    mapping(uint256 => uint256) previousOwners;\r\n\r\n    /***** \r\n    setURL: Temporary function that can change the NFT url, if in future we want to make modifications.\r\n    Parameters:\r\n    uint: TokenId of the NFT that we want to change the URL of.\r\n    string: _nftURL the new URL.\r\n    Can only be done by the contract OWNER.\r\n    *****/\r\n    function setURL(uint256 tokenId, string memory _nftURL) public {\r\n        require(\r\n            msg.sender == owner,\r\n            \"Not authorised to add the URL to the NFT\"\r\n        );\r\n        NFTinfo[tokenId].url = _nftURL;\r\n    }\r\n\r\n    /***** \r\n    Constructor Set the Name and Symbol.\r\n    *****/\r\n    constructor() ERC721Connector(\"SterlingStore\", \"SterlingNFT\") {\r\n        owner = msg.sender;\r\n    }\r\n\r\n    //if item number is greater than one....\r\n    // cap is the maximum number of items one can buy.\r\n    // MODIFY THIS FUNCTION\r\n    /***** \r\n    buyBulk function, is used to generate multiple NFT, when user is trying to buy more than one item.\r\n    Parameters:\r\n    uint: tokenId\r\n    uint: _NumberOfItems.\r\n    uint: _cap is the maximum number of items bought.\r\n    *****/\r\n    function buyBulk(\r\n        uint256 tokenId,\r\n        uint256 _NumberOfItems,\r\n        uint256 _cap\r\n    ) public {\r\n        require(\r\n            _cap <= _NumberOfItems,\r\n            \"Must Not exceed the Cap provided by the seller...\"\r\n        );\r\n        for (uint256 i = 0; i < _NumberOfItems; i += 1)\r\n            _mint(msg.sender, tokenId);\r\n    }\r\n\r\n    /***** \r\n    viewNFTPropByIndex: Temporary function to check if the Properties of NFT is being successfully stored.\r\n    Parameters:\r\n    uint: TokenId\r\n    Return:\r\n    string :name\r\n    string: description\r\n    uint: nftType\r\n    address: seller\r\n    *****/\r\n    function viewNFTPropByIndex(uint256 _tokenId)\r\n        public\r\n        view\r\n        returns (\r\n            string memory,\r\n            string memory,\r\n            uint256,\r\n            address\r\n        )\r\n    {\r\n        return (\r\n            NFTinfo[_tokenId].name,\r\n            NFTinfo[_tokenId].description,\r\n            NFTinfo[_tokenId].nftType,\r\n            NFTinfo[_tokenId].seller\r\n        );\r\n    }\r\n\r\n    /***** \r\n    addNftProp function adds the property of NFT in NFTinfo mapping.\r\n    Parameters:\r\n    uint256: _tokenId,\r\n    bool: _minted,\r\n    string: _name,\r\n    string: _description,\r\n    string: _url,\r\n    string: _trxnHash,\r\n    uint256: _nftType,\r\n    uint256: _boughtOn,\r\n    address: _seller,\r\n    uint256: _ExpireOn,\r\n    bool: _expireable \r\n    *****/\r\n    function addNftProp(\r\n        uint256 _tokenId,\r\n        bool _minted,\r\n        string memory _name,\r\n        string memory _description,\r\n        string memory _url,\r\n        string memory _trxnHash,\r\n        uint256 _nftType,\r\n        uint256 _boughtOn,\r\n        address _seller,\r\n        uint256 _ExpireOn,\r\n        bool _expireable\r\n    ) public {\r\n        NFTinfo[_tokenId].minted = _minted;\r\n        NFTinfo[_tokenId].name = _name;\r\n        NFTinfo[_tokenId].description = _description;\r\n        NFTinfo[_tokenId].url = _url;\r\n        NFTinfo[_tokenId].trxnHash = _trxnHash;\r\n        NFTinfo[_tokenId].nftType = _nftType;\r\n        NFTinfo[_tokenId].boughtOn = block.timestamp;\r\n        NFTinfo[_tokenId].seller = _seller;\r\n        NFTinfo[_tokenId].ExpireOn = _ExpireOn;\r\n        NFTinfo[_tokenId].expireable = _expireable;\r\n    }\r\n\r\n    /***** \r\n    boughtOn & tempExp: Temporary variables for check.\r\n    *****/\r\n    // to transform a JavaScript date to unix timestamp (the number of seconds since 1970)\r\n    uint256 public boughtOn;\r\n    uint256 public tempExp;\r\n\r\n    /***** \r\n    addNewBoughtOn & addTempExp: Temporary function to check the functionality.\r\n    addNewBoughtOn - adds the current timestamp \r\n    addTempExp - adds a expiry date by taking a input i.e expiry date.\r\n    *****/\r\n    function addNewBoughtOn() public {\r\n        boughtOn = block.timestamp;\r\n    }\r\n\r\n    function addTempExp(uint256 _exp) public {\r\n        tempExp = _exp;\r\n    }\r\n\r\n    /***** \r\n    addExpiredOn function, is used to add the expiry of a token.\r\n    Parameters:\r\n    uint: _expiryDate //Expiry date will come from frontend\r\n    uint: tokenId\r\n    *****/\r\n    //USE THIS to get the current date: const dateInSecs = Math.floor(new Date().getTime() / 1000);\r\n    function addExpiredOn(uint256 _expiryDate, uint256 _tokenId) public {\r\n        NFTinfo[_tokenId].ExpireOn = _expiryDate;\r\n    }\r\n\r\n    /***** \r\n    ifTimeHasPassed function, is used to check if the expiry of the item has been reached or not.\r\n    Parameters:\r\n    uint: _expireOn is the expiry date //Expiry date will come from frontend\r\n    Return:\r\n    bool: if the expiry has reached then true otherwise false.\r\n    *****/\r\n\r\n    function ifTimeHasPassed(uint256 __ExpireOn) public view returns (bool) {\r\n        return (block.timestamp > __ExpireOn);\r\n    }\r\n\r\n    /***** \r\n    nftsLen function, is used to find the current length of th earray which contains all the NFT's. Returns length\r\n    nftVal function is used to find the Unique string form which the NFT has been generated. Takes id as input and returns the unique URL.\r\n    *****/\r\n    function nftsLen() public view returns (uint256) {\r\n        return NFTs.length;\r\n    }\r\n\r\n    function nftVal(uint256 _id) public view returns (string memory) {\r\n        return NFTs[_id];\r\n    }\r\n\r\n    /***** \r\n    _NonTransferableNFT function, is used to mint and then add the property of the NFT.\r\n    Parameters:\r\n    string: _nft - Unique URL\r\n    bool: _minted,\r\n    string: _name\r\n    string: _description\r\n    string: _url\r\n    string: _trxnHash\r\n    uint256: _nftType\r\n    uint256: _boughtOn\r\n    address: _seller\r\n    uint256: _ExpireOn\r\n    bool: _expireable\r\n    *****/\r\n    function _NonTransferableNFT(\r\n        string memory _nft,\r\n        bool _minted,\r\n        string memory _name,\r\n        string memory _description,\r\n        string memory _url,\r\n        string memory _trxnHash,\r\n        uint256 _nftType,\r\n        uint256 _boughtOn,\r\n        address _seller,\r\n        uint256 _ExpireOn,\r\n        bool _expireable\r\n    ) external {\r\n        uint256 _tokenId = nftsLen();\r\n        mint(_nft);\r\n        addNftProp(\r\n            _tokenId,\r\n            _minted,\r\n            _name,\r\n            _description,\r\n            _url,\r\n            _trxnHash,\r\n            _nftType,\r\n            _boughtOn,\r\n            _seller,\r\n            _ExpireOn,\r\n            _expireable\r\n        );\r\n    }\r\n\r\n    /***** \r\n    _PreLaunch function, is used to mint and then add the property of the NFT.\r\n    Parameters:\r\n    string: _nft - Unique URL\r\n    bool: _minted,\r\n    string: _name\r\n    string: _description\r\n    string: _url\r\n    string: _trxnHash\r\n    uint256: _nftType\r\n    uint256: _boughtOn\r\n    address: _seller\r\n    uint256: _ExpireOn\r\n    bool: _expireable\r\n    *****/\r\n    function _PreLaunch(\r\n        string memory _nft,\r\n        bool _minted,\r\n        string memory _name,\r\n        string memory _description,\r\n        string memory _url,\r\n        string memory _trxnHash,\r\n        uint256 _nftType,\r\n        uint256 _boughtOn,\r\n        address _seller,\r\n        uint256 _ExpireOn,\r\n        bool _expireable\r\n    ) external {\r\n        uint256 _tokenId = nftsLen();\r\n        mint(_nft);\r\n        addNftProp(\r\n            _tokenId,\r\n            _minted,\r\n            _name,\r\n            _description,\r\n            _url,\r\n            _trxnHash,\r\n            _nftType,\r\n            _boughtOn,\r\n            _seller,\r\n            _ExpireOn,\r\n            _expireable\r\n        );\r\n    }\r\n\r\n    /***** \r\n    _Generic function, is used to mint and then add the property of the NFT.\r\n    Parameters:\r\n    string: _nft - Unique URL\r\n    bool: _minted,\r\n    string: _name\r\n    string: _description\r\n    string: _url\r\n    string: _trxnHash\r\n    uint256: _nftType\r\n    uint256: _boughtOn\r\n    address: _seller\r\n    uint256: _ExpireOn\r\n    bool: _expireable\r\n    *****/\r\n\r\n    function _Generic(\r\n        string memory _nft,\r\n        bool _minted,\r\n        string memory _name,\r\n        string memory _description,\r\n        string memory _url,\r\n        string memory _trxnHash,\r\n        uint256 _nftType,\r\n        uint256 _boughtOn,\r\n        address _seller,\r\n        uint256 _ExpireOn,\r\n        bool _expireable\r\n    ) external {\r\n        uint256 _tokenId = nftsLen();\r\n        mint(_nft);\r\n        addNftProp(\r\n            _tokenId,\r\n            _minted,\r\n            _name,\r\n            _description,\r\n            _url,\r\n            _trxnHash,\r\n            _nftType,\r\n            _boughtOn,\r\n            _seller,\r\n            _ExpireOn,\r\n            _expireable\r\n        );\r\n    }\r\n\r\n    /***** \r\n    _Special function, is used to mint and then add the property of the NFT.\r\n    Parameters:\r\n    string: _nft - Unique URL\r\n    bool: _minted,\r\n    string: _name\r\n    string: _description\r\n    string: _url\r\n    string: _trxnHash\r\n    uint256: _nftType\r\n    uint256: _boughtOn\r\n    address: _seller\r\n    uint256: _ExpireOn\r\n    bool: _expireable\r\n    *****/\r\n    function _Special(\r\n        string memory _nft,\r\n        bool _minted,\r\n        string memory _name,\r\n        string memory _description,\r\n        string memory _url,\r\n        string memory _trxnHash,\r\n        uint256 _nftType,\r\n        uint256 _boughtOn,\r\n        address _seller,\r\n        uint256 _ExpireOn,\r\n        bool _expireable\r\n    ) external {\r\n        uint256 _tokenId = nftsLen();\r\n        mint(_nft);\r\n        addNftProp(\r\n            _tokenId,\r\n            _minted,\r\n            _name,\r\n            _description,\r\n            _url,\r\n            _trxnHash,\r\n            _nftType,\r\n            _boughtOn,\r\n            _seller,\r\n            _ExpireOn,\r\n            _expireable\r\n        );\r\n    }\r\n\r\n    /***** \r\n    _NonTransferableNFT function, is used to mint and then add the property of the NFT.\r\n    Parameters:\r\n    address: persons address.\r\n    uint []: Integer Array that contains all the IDS owned by te that address.\r\n    *****/\r\n    mapping(address => uint256[]) _ownerOwnedIds;\r\n\r\n    /***** \r\n    removeAllExpiredNFT function, is used to remove the Expired NFT from the list. \r\n    Parameters:\r\n    address: persons address.\r\n    string: __url of the NEW nft, this is for temporary right now. Fix this by directly adding url in the code.\r\n    *****/\r\n    //call this continuously.... for particular wallet address so that expired IDS can be removed from the mapping.\r\n    function removeAllExpiredNFT(address _of, string memory __url) public {\r\n        uint256 totalTokensOfOwner = _ownerOwnedIds[_of].length;\r\n        uint256[] storage allIds = _ownerOwnedIds[_of];\r\n        for (uint256 i = 0; i < totalTokensOfOwner; i++) {\r\n            if (\r\n                NFTinfo[allIds[i]].expireable == true &&\r\n                ifTimeHasPassed(NFTinfo[allIds[i]].ExpireOn)\r\n            ) {\r\n                allIds[i] = allIds[allIds.length - 1];\r\n                allIds.pop();\r\n                NFTinfo[i].description = \"EXPIRED ITEM\";\r\n                NFTinfo[i].url = __url; //add a url where IMAGE SHOWS EXPIRED ITEM\r\n            }\r\n        }\r\n        _ownerOwnedIds[_of] = allIds;\r\n    }\r\n\r\n    /***** \r\n    mint function, is used to mint a new NFT by the Unique URL.\r\n    Parameters:\r\n    string: _nft which is a UNIQUE URL.\r\n    *****/\r\n    function mint(string memory _nft) public {\r\n        //validation that the nft we are minting has not yet minted.\r\n        require(!_NFTExists[_nft], \"Dang it!!, I Have already been minted\");\r\n        NFTs.push(_nft); //add this Unique url to the NFTs Array.\r\n        uint256 _id = NFTs.length - 1;\r\n        _mint(msg.sender, _id);\r\n        _ownerOwnedIds[msg.sender].push(_id);\r\n        previousOwners[_id] += 1; //owners has been increased....or it has been sold once..\r\n        //everytime we mint, then we are making sure that particular NFT is not minted again.\r\n        _NFTExists[_nft] = true;\r\n    }\r\n\r\n    /***** \r\n    mintToOthers function, is used to mint a new NFT to a address by the Unique URL.\r\n    Parameters:\r\n    address: address of the person to whose address you want ot mint ht eNFT.\r\n    string: _nft which is a UNIQUE URL.\r\n\r\n    *****/\r\n    function mintToOthers(address to, string memory _nft) public virtual {\r\n        //requires that the address is a valid and not 0.\r\n        require(to != address(0), \"ERC721: minting to the 0 address.\");\r\n        require(!_NFTExists[_nft], \"Dang it!!, I Have already been minted\");\r\n        NFTs.push(_nft);\r\n        uint256 _id = NFTs.length - 1;\r\n        _mint(to, _id);\r\n        //everytime we mint, then we are making sure that particular NFT is not minted again.\r\n        _NFTExists[_nft] = true;\r\n        previousOwners[_id] += 1;\r\n    }\r\n}\r\n",
  "sourcePath": "C:\\Users\\Neeraj\\Desktop\\Sterling Store\\src\\contracts\\NFT.sol",
  "compiler": {
    "name": "solc",
    "version": "0.8.17+commit.8df45f5f.Emscripten.clang"
  },
  "schemaVersion": "3.4.11",
  "updatedAt": "2023-01-17T11:04:29.814Z",
  "devdoc": {
    "kind": "dev",
    "methods": {},
    "version": 1
  },
  "userdoc": {
    "kind": "user",
    "methods": {},
    "version": 1
  }
}