{
  "contractName": "NFT",
  "abi": [
    {
      "inputs": [],
      "stateMutability": "nonpayable",
      "type": "constructor"
    },
    {
      "anonymous": false,
      "inputs": [
        {
          "indexed": true,
          "internalType": "address",
          "name": "owner",
          "type": "address"
        },
        {
          "indexed": true,
          "internalType": "address",
          "name": "approved",
          "type": "address"
        },
        {
          "indexed": true,
          "internalType": "uint256",
          "name": "tokenId",
          "type": "uint256"
        }
      ],
      "name": "Approval",
      "type": "event"
    },
    {
      "anonymous": false,
      "inputs": [
        {
          "indexed": true,
          "internalType": "address",
          "name": "owner",
          "type": "address"
        },
        {
          "indexed": true,
          "internalType": "address",
          "name": "operator",
          "type": "address"
        },
        {
          "indexed": false,
          "internalType": "bool",
          "name": "approved",
          "type": "bool"
        }
      ],
      "name": "ApprovalForAll",
      "type": "event"
    },
    {
      "anonymous": false,
      "inputs": [
        {
          "indexed": false,
          "internalType": "address",
          "name": "from",
          "type": "address"
        },
        {
          "indexed": false,
          "internalType": "address",
          "name": "to",
          "type": "address"
        },
        {
          "indexed": false,
          "internalType": "uint256",
          "name": "_tokenId",
          "type": "uint256"
        }
      ],
      "name": "Stake",
      "type": "event"
    },
    {
      "anonymous": false,
      "inputs": [
        {
          "indexed": true,
          "internalType": "address",
          "name": "from",
          "type": "address"
        },
        {
          "indexed": true,
          "internalType": "address",
          "name": "to",
          "type": "address"
        },
        {
          "indexed": true,
          "internalType": "uint256",
          "name": "tokenId",
          "type": "uint256"
        }
      ],
      "name": "Transfer",
      "type": "event"
    },
    {
      "anonymous": false,
      "inputs": [
        {
          "indexed": false,
          "internalType": "address",
          "name": "to",
          "type": "address"
        },
        {
          "indexed": false,
          "internalType": "uint256",
          "name": "_tokenId",
          "type": "uint256"
        }
      ],
      "name": "mintEvent",
      "type": "event"
    },
    {
      "inputs": [
        {
          "internalType": "address",
          "name": "",
          "type": "address"
        },
        {
          "internalType": "uint256",
          "name": "",
          "type": "uint256"
        }
      ],
      "name": "AllGenericNFT",
      "outputs": [
        {
          "internalType": "uint256",
          "name": "",
          "type": "uint256"
        }
      ],
      "stateMutability": "view",
      "type": "function"
    },
    {
      "inputs": [
        {
          "internalType": "address",
          "name": "",
          "type": "address"
        },
        {
          "internalType": "uint256",
          "name": "",
          "type": "uint256"
        }
      ],
      "name": "AllNonTransferrableNFT",
      "outputs": [
        {
          "internalType": "uint256",
          "name": "",
          "type": "uint256"
        }
      ],
      "stateMutability": "view",
      "type": "function"
    },
    {
      "inputs": [
        {
          "internalType": "address",
          "name": "",
          "type": "address"
        },
        {
          "internalType": "uint256",
          "name": "",
          "type": "uint256"
        }
      ],
      "name": "AllPreLaunchNFT",
      "outputs": [
        {
          "internalType": "uint256",
          "name": "",
          "type": "uint256"
        }
      ],
      "stateMutability": "view",
      "type": "function"
    },
    {
      "inputs": [
        {
          "internalType": "address",
          "name": "",
          "type": "address"
        },
        {
          "internalType": "uint256",
          "name": "",
          "type": "uint256"
        }
      ],
      "name": "AllSpecialNFT",
      "outputs": [
        {
          "internalType": "uint256",
          "name": "",
          "type": "uint256"
        }
      ],
      "stateMutability": "view",
      "type": "function"
    },
    {
      "inputs": [
        {
          "internalType": "address",
          "name": "",
          "type": "address"
        },
        {
          "internalType": "uint256",
          "name": "",
          "type": "uint256"
        }
      ],
      "name": "AllStakedNFT",
      "outputs": [
        {
          "internalType": "uint256",
          "name": "",
          "type": "uint256"
        }
      ],
      "stateMutability": "view",
      "type": "function"
    },
    {
      "inputs": [
        {
          "internalType": "uint256",
          "name": "",
          "type": "uint256"
        }
      ],
      "name": "NFTinfo",
      "outputs": [
        {
          "internalType": "bool",
          "name": "minted",
          "type": "bool"
        },
        {
          "internalType": "string",
          "name": "name",
          "type": "string"
        },
        {
          "internalType": "string",
          "name": "description",
          "type": "string"
        },
        {
          "internalType": "string",
          "name": "url",
          "type": "string"
        },
        {
          "internalType": "string",
          "name": "trxnHash",
          "type": "string"
        },
        {
          "internalType": "uint256",
          "name": "nftType",
          "type": "uint256"
        },
        {
          "internalType": "uint256",
          "name": "boughtOn",
          "type": "uint256"
        },
        {
          "internalType": "address",
          "name": "seller",
          "type": "address"
        },
        {
          "internalType": "uint256",
          "name": "ExpireOn",
          "type": "uint256"
        },
        {
          "internalType": "bool",
          "name": "expireable",
          "type": "bool"
        }
      ],
      "stateMutability": "view",
      "type": "function"
    },
    {
      "inputs": [
        {
          "internalType": "uint256",
          "name": "",
          "type": "uint256"
        }
      ],
      "name": "NFTs",
      "outputs": [
        {
          "internalType": "string",
          "name": "",
          "type": "string"
        }
      ],
      "stateMutability": "view",
      "type": "function"
    },
    {
      "inputs": [
        {
          "internalType": "address",
          "name": "to",
          "type": "address"
        },
        {
          "internalType": "uint256",
          "name": "tokenId",
          "type": "uint256"
        }
      ],
      "name": "approve",
      "outputs": [],
      "stateMutability": "nonpayable",
      "type": "function"
    },
    {
      "inputs": [
        {
          "internalType": "address",
          "name": "owner",
          "type": "address"
        }
      ],
      "name": "balanceOf",
      "outputs": [
        {
          "internalType": "uint256",
          "name": "",
          "type": "uint256"
        }
      ],
      "stateMutability": "view",
      "type": "function"
    },
    {
      "inputs": [],
      "name": "boughtOnDate",
      "outputs": [
        {
          "internalType": "uint256",
          "name": "",
          "type": "uint256"
        }
      ],
      "stateMutability": "view",
      "type": "function"
    },
    {
      "inputs": [
        {
          "internalType": "uint256",
          "name": "tokenId",
          "type": "uint256"
        }
      ],
      "name": "getApproved",
      "outputs": [
        {
          "internalType": "address",
          "name": "",
          "type": "address"
        }
      ],
      "stateMutability": "view",
      "type": "function"
    },
    {
      "inputs": [
        {
          "internalType": "address",
          "name": "owner",
          "type": "address"
        },
        {
          "internalType": "address",
          "name": "operator",
          "type": "address"
        }
      ],
      "name": "isApprovedForAll",
      "outputs": [
        {
          "internalType": "bool",
          "name": "",
          "type": "bool"
        }
      ],
      "stateMutability": "view",
      "type": "function"
    },
    {
      "inputs": [],
      "name": "name",
      "outputs": [
        {
          "internalType": "string",
          "name": "",
          "type": "string"
        }
      ],
      "stateMutability": "view",
      "type": "function"
    },
    {
      "inputs": [],
      "name": "owner",
      "outputs": [
        {
          "internalType": "address",
          "name": "",
          "type": "address"
        }
      ],
      "stateMutability": "view",
      "type": "function"
    },
    {
      "inputs": [
        {
          "internalType": "uint256",
          "name": "tokenId",
          "type": "uint256"
        }
      ],
      "name": "ownerOf",
      "outputs": [
        {
          "internalType": "address",
          "name": "",
          "type": "address"
        }
      ],
      "stateMutability": "view",
      "type": "function"
    },
    {
      "inputs": [
        {
          "internalType": "address",
          "name": "from",
          "type": "address"
        },
        {
          "internalType": "address",
          "name": "to",
          "type": "address"
        },
        {
          "internalType": "uint256",
          "name": "tokenId",
          "type": "uint256"
        }
      ],
      "name": "safeTransferFrom",
      "outputs": [],
      "stateMutability": "nonpayable",
      "type": "function"
    },
    {
      "inputs": [
        {
          "internalType": "address",
          "name": "from",
          "type": "address"
        },
        {
          "internalType": "address",
          "name": "to",
          "type": "address"
        },
        {
          "internalType": "uint256",
          "name": "tokenId",
          "type": "uint256"
        },
        {
          "internalType": "bytes",
          "name": "data",
          "type": "bytes"
        }
      ],
      "name": "safeTransferFrom",
      "outputs": [],
      "stateMutability": "nonpayable",
      "type": "function"
    },
    {
      "inputs": [
        {
          "internalType": "address",
          "name": "operator",
          "type": "address"
        },
        {
          "internalType": "bool",
          "name": "approved",
          "type": "bool"
        }
      ],
      "name": "setApprovalForAll",
      "outputs": [],
      "stateMutability": "nonpayable",
      "type": "function"
    },
    {
      "inputs": [
        {
          "internalType": "bytes4",
          "name": "interfaceId",
          "type": "bytes4"
        }
      ],
      "name": "supportsInterface",
      "outputs": [
        {
          "internalType": "bool",
          "name": "",
          "type": "bool"
        }
      ],
      "stateMutability": "view",
      "type": "function"
    },
    {
      "inputs": [],
      "name": "symbol",
      "outputs": [
        {
          "internalType": "string",
          "name": "",
          "type": "string"
        }
      ],
      "stateMutability": "view",
      "type": "function"
    },
    {
      "inputs": [],
      "name": "tempExp",
      "outputs": [
        {
          "internalType": "uint256",
          "name": "",
          "type": "uint256"
        }
      ],
      "stateMutability": "view",
      "type": "function"
    },
    {
      "inputs": [
        {
          "internalType": "uint256",
          "name": "tokenId",
          "type": "uint256"
        }
      ],
      "name": "tokenURI",
      "outputs": [
        {
          "internalType": "string",
          "name": "",
          "type": "string"
        }
      ],
      "stateMutability": "view",
      "type": "function"
    },
    {
      "inputs": [
        {
          "internalType": "address",
          "name": "from",
          "type": "address"
        },
        {
          "internalType": "address",
          "name": "to",
          "type": "address"
        },
        {
          "internalType": "uint256",
          "name": "tokenId",
          "type": "uint256"
        }
      ],
      "name": "transferFrom",
      "outputs": [],
      "stateMutability": "nonpayable",
      "type": "function"
    },
    {
      "inputs": [
        {
          "internalType": "uint256",
          "name": "tokenId",
          "type": "uint256"
        },
        {
          "internalType": "string",
          "name": "_nftURL",
          "type": "string"
        }
      ],
      "name": "setURL",
      "outputs": [],
      "stateMutability": "nonpayable",
      "type": "function"
    },
    {
      "inputs": [
        {
          "internalType": "uint256",
          "name": "tokenId",
          "type": "uint256"
        },
        {
          "internalType": "uint256",
          "name": "_NumberOfItems",
          "type": "uint256"
        },
        {
          "internalType": "uint256",
          "name": "_cap",
          "type": "uint256"
        }
      ],
      "name": "buyBulk",
      "outputs": [],
      "stateMutability": "nonpayable",
      "type": "function"
    },
    {
      "inputs": [
        {
          "internalType": "uint256",
          "name": "_tokenId",
          "type": "uint256"
        }
      ],
      "name": "getNFTtype",
      "outputs": [
        {
          "internalType": "uint256",
          "name": "",
          "type": "uint256"
        }
      ],
      "stateMutability": "view",
      "type": "function"
    },
    {
      "inputs": [
        {
          "internalType": "uint256",
          "name": "_tokenId",
          "type": "uint256"
        }
      ],
      "name": "viewNFTPropByIndex1",
      "outputs": [
        {
          "internalType": "string",
          "name": "",
          "type": "string"
        },
        {
          "internalType": "string",
          "name": "",
          "type": "string"
        },
        {
          "internalType": "string",
          "name": "",
          "type": "string"
        },
        {
          "internalType": "string",
          "name": "",
          "type": "string"
        },
        {
          "internalType": "uint256",
          "name": "",
          "type": "uint256"
        }
      ],
      "stateMutability": "view",
      "type": "function"
    },
    {
      "inputs": [
        {
          "internalType": "uint256",
          "name": "_tokenId",
          "type": "uint256"
        }
      ],
      "name": "viewNFTPropByIndex2",
      "outputs": [
        {
          "internalType": "uint256",
          "name": "",
          "type": "uint256"
        },
        {
          "internalType": "address",
          "name": "",
          "type": "address"
        },
        {
          "internalType": "uint256",
          "name": "",
          "type": "uint256"
        },
        {
          "internalType": "bool",
          "name": "",
          "type": "bool"
        }
      ],
      "stateMutability": "view",
      "type": "function"
    },
    {
      "inputs": [
        {
          "internalType": "uint256",
          "name": "_tokenId",
          "type": "uint256"
        },
        {
          "internalType": "bool",
          "name": "_minted",
          "type": "bool"
        },
        {
          "internalType": "string",
          "name": "_name",
          "type": "string"
        },
        {
          "internalType": "string",
          "name": "_description",
          "type": "string"
        },
        {
          "internalType": "string",
          "name": "_url",
          "type": "string"
        },
        {
          "internalType": "string",
          "name": "_trxnHash",
          "type": "string"
        },
        {
          "internalType": "uint256",
          "name": "_nftType",
          "type": "uint256"
        },
        {
          "internalType": "uint256",
          "name": "_boughtOn",
          "type": "uint256"
        },
        {
          "internalType": "address",
          "name": "_seller",
          "type": "address"
        },
        {
          "internalType": "uint256",
          "name": "_ExpireOn",
          "type": "uint256"
        },
        {
          "internalType": "bool",
          "name": "_expireable",
          "type": "bool"
        }
      ],
      "name": "addNftProp",
      "outputs": [],
      "stateMutability": "nonpayable",
      "type": "function"
    },
    {
      "inputs": [],
      "name": "addNewBoughtOn",
      "outputs": [],
      "stateMutability": "nonpayable",
      "type": "function"
    },
    {
      "inputs": [
        {
          "internalType": "uint256",
          "name": "_exp",
          "type": "uint256"
        }
      ],
      "name": "addTempExp",
      "outputs": [],
      "stateMutability": "nonpayable",
      "type": "function"
    },
    {
      "inputs": [
        {
          "internalType": "uint256",
          "name": "_expiryDate",
          "type": "uint256"
        },
        {
          "internalType": "uint256",
          "name": "_tokenId",
          "type": "uint256"
        }
      ],
      "name": "addExpiredOn",
      "outputs": [],
      "stateMutability": "nonpayable",
      "type": "function"
    },
    {
      "inputs": [
        {
          "internalType": "uint256",
          "name": "__ExpireOn",
          "type": "uint256"
        }
      ],
      "name": "ifTimeHasPassed",
      "outputs": [
        {
          "internalType": "bool",
          "name": "",
          "type": "bool"
        }
      ],
      "stateMutability": "view",
      "type": "function"
    },
    {
      "inputs": [
        {
          "internalType": "address",
          "name": "_off",
          "type": "address"
        }
      ],
      "name": "AllSpecialNFTLength",
      "outputs": [
        {
          "internalType": "uint256",
          "name": "",
          "type": "uint256"
        }
      ],
      "stateMutability": "view",
      "type": "function"
    },
    {
      "inputs": [],
      "name": "nftsLen",
      "outputs": [
        {
          "internalType": "uint256",
          "name": "",
          "type": "uint256"
        }
      ],
      "stateMutability": "view",
      "type": "function"
    },
    {
      "inputs": [
        {
          "internalType": "uint256",
          "name": "_id",
          "type": "uint256"
        }
      ],
      "name": "nftVal",
      "outputs": [
        {
          "internalType": "string",
          "name": "",
          "type": "string"
        }
      ],
      "stateMutability": "view",
      "type": "function"
    },
    {
      "inputs": [
        {
          "internalType": "address",
          "name": "_off",
          "type": "address"
        }
      ],
      "name": "viewAllTokens",
      "outputs": [
        {
          "internalType": "uint256[]",
          "name": "",
          "type": "uint256[]"
        }
      ],
      "stateMutability": "view",
      "type": "function"
    },
    {
      "inputs": [
        {
          "internalType": "address",
          "name": "_off",
          "type": "address"
        }
      ],
      "name": "viewPersonalNFT",
      "outputs": [
        {
          "components": [
            {
              "internalType": "bool",
              "name": "minted",
              "type": "bool"
            },
            {
              "internalType": "string",
              "name": "name",
              "type": "string"
            },
            {
              "internalType": "string",
              "name": "description",
              "type": "string"
            },
            {
              "internalType": "string",
              "name": "url",
              "type": "string"
            },
            {
              "internalType": "string",
              "name": "trxnHash",
              "type": "string"
            },
            {
              "internalType": "uint256",
              "name": "nftType",
              "type": "uint256"
            },
            {
              "internalType": "uint256",
              "name": "boughtOn",
              "type": "uint256"
            },
            {
              "internalType": "address",
              "name": "seller",
              "type": "address"
            },
            {
              "internalType": "uint256",
              "name": "ExpireOn",
              "type": "uint256"
            },
            {
              "internalType": "bool",
              "name": "expireable",
              "type": "bool"
            }
          ],
          "internalType": "struct NFT.nftProp[]",
          "name": "",
          "type": "tuple[]"
        }
      ],
      "stateMutability": "view",
      "type": "function"
    },
    {
      "inputs": [
        {
          "internalType": "address",
          "name": "_off",
          "type": "address"
        },
        {
          "internalType": "uint256[]",
          "name": "allOwnedTokens",
          "type": "uint256[]"
        }
      ],
      "name": "userPersonalNFTinfo",
      "outputs": [
        {
          "components": [
            {
              "internalType": "bool",
              "name": "minted",
              "type": "bool"
            },
            {
              "internalType": "string",
              "name": "name",
              "type": "string"
            },
            {
              "internalType": "string",
              "name": "description",
              "type": "string"
            },
            {
              "internalType": "string",
              "name": "url",
              "type": "string"
            },
            {
              "internalType": "string",
              "name": "trxnHash",
              "type": "string"
            },
            {
              "internalType": "uint256",
              "name": "nftType",
              "type": "uint256"
            },
            {
              "internalType": "uint256",
              "name": "boughtOn",
              "type": "uint256"
            },
            {
              "internalType": "address",
              "name": "seller",
              "type": "address"
            },
            {
              "internalType": "uint256",
              "name": "ExpireOn",
              "type": "uint256"
            },
            {
              "internalType": "bool",
              "name": "expireable",
              "type": "bool"
            }
          ],
          "internalType": "struct NFT.nftProp[]",
          "name": "",
          "type": "tuple[]"
        }
      ],
      "stateMutability": "view",
      "type": "function"
    },
    {
      "inputs": [
        {
          "internalType": "address",
          "name": "_user",
          "type": "address"
        },
        {
          "internalType": "uint256[]",
          "name": "allOwnedTokens",
          "type": "uint256[]"
        }
      ],
      "name": "userStakedNFTinfo",
      "outputs": [
        {
          "components": [
            {
              "internalType": "uint256",
              "name": "_stakedOn",
              "type": "uint256"
            },
            {
              "internalType": "uint256",
              "name": "_stakedTill",
              "type": "uint256"
            }
          ],
          "internalType": "struct NFT.stakeProp[]",
          "name": "",
          "type": "tuple[]"
        }
      ],
      "stateMutability": "view",
      "type": "function"
    },
    {
      "inputs": [
        {
          "internalType": "address",
          "name": "_user",
          "type": "address"
        }
      ],
      "name": "viewUserStakedNFT",
      "outputs": [
        {
          "components": [
            {
              "internalType": "bool",
              "name": "minted",
              "type": "bool"
            },
            {
              "internalType": "string",
              "name": "name",
              "type": "string"
            },
            {
              "internalType": "string",
              "name": "description",
              "type": "string"
            },
            {
              "internalType": "string",
              "name": "url",
              "type": "string"
            },
            {
              "internalType": "string",
              "name": "trxnHash",
              "type": "string"
            },
            {
              "internalType": "uint256",
              "name": "nftType",
              "type": "uint256"
            },
            {
              "internalType": "uint256",
              "name": "boughtOn",
              "type": "uint256"
            },
            {
              "internalType": "address",
              "name": "seller",
              "type": "address"
            },
            {
              "internalType": "uint256",
              "name": "ExpireOn",
              "type": "uint256"
            },
            {
              "internalType": "bool",
              "name": "expireable",
              "type": "bool"
            }
          ],
          "internalType": "struct NFT.nftProp[]",
          "name": "",
          "type": "tuple[]"
        },
        {
          "components": [
            {
              "internalType": "uint256",
              "name": "_stakedOn",
              "type": "uint256"
            },
            {
              "internalType": "uint256",
              "name": "_stakedTill",
              "type": "uint256"
            }
          ],
          "internalType": "struct NFT.stakeProp[]",
          "name": "",
          "type": "tuple[]"
        }
      ],
      "stateMutability": "view",
      "type": "function"
    },
    {
      "inputs": [
        {
          "internalType": "string",
          "name": "_nft",
          "type": "string"
        },
        {
          "internalType": "bool",
          "name": "_minted",
          "type": "bool"
        },
        {
          "internalType": "string",
          "name": "_name",
          "type": "string"
        },
        {
          "internalType": "string",
          "name": "_description",
          "type": "string"
        },
        {
          "internalType": "string",
          "name": "_url",
          "type": "string"
        },
        {
          "internalType": "string",
          "name": "_trxnHash",
          "type": "string"
        },
        {
          "internalType": "uint256",
          "name": "_nftType",
          "type": "uint256"
        },
        {
          "internalType": "uint256",
          "name": "_boughtOn",
          "type": "uint256"
        },
        {
          "internalType": "address",
          "name": "_seller",
          "type": "address"
        },
        {
          "internalType": "uint256",
          "name": "_ExpireOn",
          "type": "uint256"
        },
        {
          "internalType": "address",
          "name": "_off",
          "type": "address"
        }
      ],
      "name": "_NonTransferableNFT",
      "outputs": [],
      "stateMutability": "nonpayable",
      "type": "function"
    },
    {
      "inputs": [
        {
          "internalType": "string",
          "name": "_nft",
          "type": "string"
        },
        {
          "internalType": "bool",
          "name": "_minted",
          "type": "bool"
        },
        {
          "internalType": "string",
          "name": "_name",
          "type": "string"
        },
        {
          "internalType": "string",
          "name": "_description",
          "type": "string"
        },
        {
          "internalType": "string",
          "name": "_url",
          "type": "string"
        },
        {
          "internalType": "string",
          "name": "_trxnHash",
          "type": "string"
        },
        {
          "internalType": "uint256",
          "name": "_nftType",
          "type": "uint256"
        },
        {
          "internalType": "uint256",
          "name": "_boughtOn",
          "type": "uint256"
        },
        {
          "internalType": "address",
          "name": "_seller",
          "type": "address"
        },
        {
          "internalType": "uint256",
          "name": "_ExpireOn",
          "type": "uint256"
        },
        {
          "internalType": "address",
          "name": "_off",
          "type": "address"
        }
      ],
      "name": "_PreLaunch",
      "outputs": [],
      "stateMutability": "nonpayable",
      "type": "function"
    },
    {
      "inputs": [
        {
          "internalType": "string",
          "name": "_nft",
          "type": "string"
        },
        {
          "internalType": "bool",
          "name": "_minted",
          "type": "bool"
        },
        {
          "internalType": "string",
          "name": "_name",
          "type": "string"
        },
        {
          "internalType": "string",
          "name": "_description",
          "type": "string"
        },
        {
          "internalType": "string",
          "name": "_url",
          "type": "string"
        },
        {
          "internalType": "string",
          "name": "_trxnHash",
          "type": "string"
        },
        {
          "internalType": "uint256",
          "name": "_nftType",
          "type": "uint256"
        },
        {
          "internalType": "uint256",
          "name": "_boughtOn",
          "type": "uint256"
        },
        {
          "internalType": "address",
          "name": "_seller",
          "type": "address"
        },
        {
          "internalType": "uint256",
          "name": "_ExpireOn",
          "type": "uint256"
        },
        {
          "internalType": "address",
          "name": "_off",
          "type": "address"
        }
      ],
      "name": "_Generic",
      "outputs": [],
      "stateMutability": "nonpayable",
      "type": "function"
    },
    {
      "inputs": [
        {
          "internalType": "string",
          "name": "_nft",
          "type": "string"
        },
        {
          "internalType": "bool",
          "name": "_minted",
          "type": "bool"
        },
        {
          "internalType": "string",
          "name": "_name",
          "type": "string"
        },
        {
          "internalType": "string",
          "name": "_description",
          "type": "string"
        },
        {
          "internalType": "string",
          "name": "_url",
          "type": "string"
        },
        {
          "internalType": "string",
          "name": "_trxnHash",
          "type": "string"
        },
        {
          "internalType": "uint256",
          "name": "_nftType",
          "type": "uint256"
        },
        {
          "internalType": "uint256",
          "name": "_boughtOn",
          "type": "uint256"
        },
        {
          "internalType": "address",
          "name": "_seller",
          "type": "address"
        },
        {
          "internalType": "uint256",
          "name": "_ExpireOn",
          "type": "uint256"
        },
        {
          "internalType": "address",
          "name": "_off",
          "type": "address"
        }
      ],
      "name": "_Special",
      "outputs": [],
      "stateMutability": "nonpayable",
      "type": "function"
    },
    {
      "inputs": [
        {
          "internalType": "address",
          "name": "_user",
          "type": "address"
        }
      ],
      "name": "getAllOwnerOwnedIds",
      "outputs": [
        {
          "internalType": "uint256[]",
          "name": "",
          "type": "uint256[]"
        }
      ],
      "stateMutability": "view",
      "type": "function"
    },
    {
      "inputs": [
        {
          "internalType": "address",
          "name": "_of",
          "type": "address"
        },
        {
          "internalType": "string",
          "name": "__url",
          "type": "string"
        }
      ],
      "name": "removeAllExpiredNFT",
      "outputs": [],
      "stateMutability": "nonpayable",
      "type": "function"
    },
    {
      "inputs": [
        {
          "internalType": "string",
          "name": "_nft",
          "type": "string"
        }
      ],
      "name": "mint",
      "outputs": [],
      "stateMutability": "nonpayable",
      "type": "function"
    },
    {
      "inputs": [
        {
          "internalType": "address",
          "name": "to",
          "type": "address"
        },
        {
          "internalType": "string",
          "name": "_nft",
          "type": "string"
        }
      ],
      "name": "mintToOthers",
      "outputs": [],
      "stateMutability": "nonpayable",
      "type": "function"
    },
    {
      "inputs": [
        {
          "internalType": "address",
          "name": "_off",
          "type": "address"
        },
        {
          "internalType": "uint256",
          "name": "_till",
          "type": "uint256"
        }
      ],
      "name": "StakeSpecialNFT",
      "outputs": [],
      "stateMutability": "nonpayable",
      "type": "function"
    },
    {
      "inputs": [
        {
          "internalType": "address",
          "name": "_off",
          "type": "address"
        }
      ],
      "name": "getAllStakedNFTFromAddress",
      "outputs": [
        {
          "internalType": "uint256[]",
          "name": "",
          "type": "uint256[]"
        }
      ],
      "stateMutability": "view",
      "type": "function"
    },
    {
      "inputs": [
        {
          "internalType": "address",
          "name": "_off",
          "type": "address"
        },
        {
          "internalType": "uint256",
          "name": "_tokenId",
          "type": "uint256"
        }
      ],
      "name": "getStakedNFTProp",
      "outputs": [
        {
          "internalType": "uint256",
          "name": "",
          "type": "uint256"
        },
        {
          "internalType": "uint256",
          "name": "",
          "type": "uint256"
        }
      ],
      "stateMutability": "view",
      "type": "function"
    },
    {
      "inputs": [
        {
          "internalType": "address",
          "name": "_off",
          "type": "address"
        }
      ],
      "name": "viewMyNFTS",
      "outputs": [
        {
          "internalType": "uint256[]",
          "name": "",
          "type": "uint256[]"
        }
      ],
      "stateMutability": "view",
      "type": "function"
    },
    {
      "inputs": [
        {
          "internalType": "address",
          "name": "_off",
          "type": "address"
        }
      ],
      "name": "myTotalNFTCount",
      "outputs": [
        {
          "internalType": "uint256",
          "name": "",
          "type": "uint256"
        }
      ],
      "stateMutability": "view",
      "type": "function"
    },
    {
      "inputs": [
        {
          "internalType": "address",
          "name": "_user",
          "type": "address"
        }
      ],
      "name": "viewMyStakedNFTs",
      "outputs": [
        {
          "components": [
            {
              "internalType": "bool",
              "name": "minted",
              "type": "bool"
            },
            {
              "internalType": "string",
              "name": "name",
              "type": "string"
            },
            {
              "internalType": "string",
              "name": "description",
              "type": "string"
            },
            {
              "internalType": "string",
              "name": "url",
              "type": "string"
            },
            {
              "internalType": "string",
              "name": "trxnHash",
              "type": "string"
            },
            {
              "internalType": "uint256",
              "name": "nftType",
              "type": "uint256"
            },
            {
              "internalType": "uint256",
              "name": "boughtOn",
              "type": "uint256"
            },
            {
              "internalType": "address",
              "name": "seller",
              "type": "address"
            },
            {
              "internalType": "uint256",
              "name": "ExpireOn",
              "type": "uint256"
            },
            {
              "internalType": "bool",
              "name": "expireable",
              "type": "bool"
            }
          ],
          "internalType": "struct NFT.nftProp[]",
          "name": "",
          "type": "tuple[]"
        },
        {
          "components": [
            {
              "internalType": "uint256",
              "name": "_stakedOn",
              "type": "uint256"
            },
            {
              "internalType": "uint256",
              "name": "_stakedTill",
              "type": "uint256"
            }
          ],
          "internalType": "struct NFT.stakeProp[]",
          "name": "",
          "type": "tuple[]"
        }
      ],
      "stateMutability": "view",
      "type": "function"
    },
    {
      "inputs": [],
      "name": "availableToBuy",
      "outputs": [
        {
          "components": [
            {
              "internalType": "bool",
              "name": "minted",
              "type": "bool"
            },
            {
              "internalType": "string",
              "name": "name",
              "type": "string"
            },
            {
              "internalType": "string",
              "name": "description",
              "type": "string"
            },
            {
              "internalType": "string",
              "name": "url",
              "type": "string"
            },
            {
              "internalType": "string",
              "name": "trxnHash",
              "type": "string"
            },
            {
              "internalType": "uint256",
              "name": "nftType",
              "type": "uint256"
            },
            {
              "internalType": "uint256",
              "name": "boughtOn",
              "type": "uint256"
            },
            {
              "internalType": "address",
              "name": "seller",
              "type": "address"
            },
            {
              "internalType": "uint256",
              "name": "ExpireOn",
              "type": "uint256"
            },
            {
              "internalType": "bool",
              "name": "expireable",
              "type": "bool"
            }
          ],
          "internalType": "struct NFT.nftProp[]",
          "name": "",
          "type": "tuple[]"
        },
        {
          "internalType": "uint256[]",
          "name": "",
          "type": "uint256[]"
        }
      ],
      "stateMutability": "view",
      "type": "function"
    },
    {
      "inputs": [
        {
          "internalType": "uint256",
          "name": "_tokenId",
          "type": "uint256"
        }
      ],
      "name": "addForSell",
      "outputs": [],
      "stateMutability": "nonpayable",
      "type": "function"
    },
    {
      "inputs": [
        {
          "internalType": "uint256",
          "name": "_tokenId",
          "type": "uint256"
        }
      ],
      "name": "removeFromSell",
      "outputs": [],
      "stateMutability": "nonpayable",
      "type": "function"
    },
    {
      "inputs": [
        {
          "internalType": "uint256",
          "name": "_tokenId",
          "type": "uint256"
        }
      ],
      "name": "buyNFT",
      "outputs": [],
      "stateMutability": "nonpayable",
      "type": "function"
    },
    {
      "inputs": [
        {
          "internalType": "uint256",
          "name": "_tokenId",
          "type": "uint256"
        },
        {
          "internalType": "address",
          "name": "_off",
          "type": "address"
        }
      ],
      "name": "burnMyToken",
      "outputs": [
        {
          "internalType": "bool",
          "name": "",
          "type": "bool"
        }
      ],
      "stateMutability": "nonpayable",
      "type": "function"
    },
    {
      "inputs": [
        {
          "internalType": "address",
          "name": "_off",
          "type": "address"
        }
      ],
      "name": "reIssueNFTForPreLaunch",
      "outputs": [],
      "stateMutability": "nonpayable",
      "type": "function"
    }
  ],
  "bytecode": "0x60806040523480156200001157600080fd5b506040518060400160405280600d81526020017f537465726c696e6753746f7265000000000000000000000000000000000000008152506040518060400160405280600b81526020017f537465726c696e674e465400000000000000000000000000000000000000000081525081600090816200008f919062000190565b5060016200009e828262000190565b5050600d8054600160a060020a031916331790555062000263565b7f4e487b7100000000000000000000000000000000000000000000000000000000600052604160045260246000fd5b600281046001821680620000fd57607f821691505b60208210810362000137577f4e487b7100000000000000000000000000000000000000000000000000000000600052602260045260246000fd5b50919050565b601f8211156200018b576000818152602081206020601f86010481016020861015620001665750805b6020601f860104820191505b81811015620001875782815560010162000172565b5050505b505050565b815167ffffffffffffffff811115620001ad57620001ad620000b9565b620001c581620001be8454620000e8565b846200013d565b602080601f831160018114620002015760008415620001e45750858301515b60028086026008870290910a600019041982161786555062000187565b600085815260208120601f198616915b82811015620002325788860151825594840194600190910190840162000211565b50858210156200025357878501516008601f88160260020a60001904191681555b5050505050600202600101905550565b615ac880620002736000396000f3fe608060405234801561001057600080fd5b50600436106103cc576000357c01000000000000000000000000000000000000000000000000000000009004806395d89b4111610211578063c30c896711610137578063e6a9b77c116100ca578063ee991a0311610099578063ee991a031461096a578063f7c44cf514610980578063fb35a4dc14610993578063fca7569b146109a657600080fd5b8063e6a9b77c14610898578063e985e9c5146108ab578063ebd0939d146108e7578063eda76402146108fa57600080fd5b8063c7d7f33b11610106578063c7d7f33b1461083c578063c87b56dd1461085f578063d85d3d2714610872578063d8698dcb1461088557600080fd5b8063c30c8967146107df578063c395d9cc146107f2578063c49ddc0e14610805578063c541523b1461082957600080fd5b8063afb4d7f7116101af578063bd7e2f951161017e578063bd7e2f951461077d578063be64a28a14610790578063c0e50d68146107a3578063c12299cb146107cc57600080fd5b8063afb4d7f714610724578063b5a9d5ef14610744578063b864bfdf14610757578063b88d4fde1461076a57600080fd5b8063a22cb465116101eb578063a22cb465146106c9578063a3c0b95b146106dc578063a98baaf1146106ef578063abc77c661461070257600080fd5b806395d89b41146106a55780639a1b1c57146106ad5780639fc34e0d146106c057600080fd5b806334f3ee77116102f6578063640e82d91161029457806389f8c2191161026357806389f8c219146106595780638b1933ff1461066c5780638da5cb5b1461067f578063909c2f9b1461069257600080fd5b8063640e82d9146106175780636e9940b61461062a57806370a0823114610633578063803ef7b11461064657600080fd5b806342eaa13e116102d057806342eaa13e146105be57806351ed8288146105de57806360bd3e26146105f15780636352211e1461060457600080fd5b806334f3ee771461054f5780633e461e0c1461055857806342842e0e146105ab57600080fd5b80630bebfc1a1161036e57806322187a141161033d57806322187a14146104f657806322688f0b1461050957806323b872dd1461052957806330f1dc4e1461053c57600080fd5b80630bebfc1a1461049457806319073639146104a75780631bc2edae146104ba5780631e1c62da146104e357600080fd5b806307da1667116103aa57806307da166714610423578063081812fc14610444578063095ea7b31461046f5780630bc04d531461048257600080fd5b806301ffc9a7146103d1578063055a56f9146103f957806306fdde031461040e575b600080fd5b6103e46103df366004614aa5565b6109b9565b60405190151581526020015b60405180910390f35b61040c610407366004614bb0565b610a56565b005b610416610ab7565b6040516103f09190614d27565b610436610431366004614d3a565b610b49565b6040516103f0929190614ea1565b610457610452366004614ecf565b610b77565b604051600160a060020a0390911681526020016103f0565b61040c61047d366004614ee8565b610b9e565b6006545b6040519081526020016103f0565b6103e46104a2366004614ecf565b421190565b61040c6104b5366004614ecf565b610cda565b6104866104c8366004614d3a565b600160a060020a031660009081526009602052604090205490565b6104166104f1366004614ecf565b610f73565b61040c610504366004614bb0565b611022565b61051c610517366004614d3a565b611083565b6040516103f09190614f12565b61040c610537366004614f25565b6113e2565b61040c61054a366004614d3a565b611416565b61040c42601055565b610596610566366004614ee8565b600160a060020a039190911660009081526013602090815260408083209383529290522080546001909101549091565b604080519283526020830191909152016103f0565b61040c6105b9366004614f25565b6117bc565b6105d16105cc366004614d3a565b6117d7565b6040516103f09190614f91565b61040c6105ec366004614ecf565b611b7a565b61040c6105ff366004614bb0565b612022565b610457610612366004614ecf565b612083565b6105d1610625366004614d3a565b6120eb565b61048660115481565b610486610641366004614d3a565b612156565b61040c610654366004614fa4565b6121f3565b61040c610667366004614ecf565b601155565b61048661067a366004614ee8565b6123d3565b600d5461045790600160a060020a031681565b61040c6106a0366004614fa4565b612404565b6104166125cc565b61051c6106bb366004614ff2565b6125db565b61048660105481565b61040c6106d73660046150aa565b612925565b6104166106ea366004614ecf565b612934565b61040c6106fd366004614ee8565b6129e0565b61040c6107103660046150dd565b6000908152600e6020526040902060080155565b610737610732366004614ff2565b612b5b565b6040516103f091906150ff565b61040c610752366004614bb0565b612c4b565b61040c610765366004615112565b612cac565b61040c61077836600461520e565b612d95565b61040c61078b36600461528a565b612dd0565b61048661079e366004614ee8565b612e70565b6107b66107b1366004614ecf565b612e8c565b6040516103f09a999897969594939291906152b6565b6104366107da366004614d3a565b61310a565b61040c6107ed366004615349565b61311f565b61040c610800366004614ecf565b6131bd565b610818610813366004614ecf565b6134b4565b6040516103f095949392919061537a565b610486610837366004614d3a565b61372a565b61048661084a366004614ecf565b6000908152600e602052604090206005015490565b61041661086d366004614ecf565b61373c565b61040c6108803660046153da565b6137b0565b6105d1610893366004614d3a565b613904565b6104866108a6366004614ee8565b61396e565b6103e46108b936600461540f565b600160a060020a03918216600090815260056020908152604080832093909416825291909152205460ff1690565b6104866108f5366004614ee8565b61398a565b610940610908366004614ecf565b6000908152600e602052604090206006810154600782015460088301546009909301549193600160a060020a03909116929160ff1690565b60408051948552600160a060020a03909316602085015291830152151560608201526080016103f0565b6109726139a6565b6040516103f0929190615439565b61048661098e366004614ee8565b613db3565b6105d16109a1366004614d3a565b613dcf565b6103e46109b436600461545e565b613dda565b6000600160e060020a031982167f80ac58cd000000000000000000000000000000000000000000000000000000001480610a1c5750600160e060020a031982167f5b5e139f00000000000000000000000000000000000000000000000000000000145b80610a5057507f01ffc9a700000000000000000000000000000000000000000000000000000000600160e060020a03198316145b92915050565b6000610a6160065490565b9050610a6d828d6121f3565b610a81818c8c8c8c8c8c8c8c8c6000612cac565b600160a060020a039091166000908152600960209081526040822080546001810182559083529120015550505050505050505050565b606060008054610ac690615481565b80601f0160208091040260200160405190810160405280929190818152602001828054610af290615481565b8015610b3f5780601f10610b1457610100808354040283529160200191610b3f565b820191906000526020600020905b815481529060010190602001808311610b2257829003601f168201915b5050505050905090565b6060806000610b57846120eb565b9050610b6384826125db565b610b6d8583612b5b565b9250925050915091565b6000610b8282613e9e565b50600090815260046020526040902054600160a060020a031690565b6000610ba982612083565b905080600160a060020a031683600160a060020a031603610c3a5760405160e560020a62461bcd02815260206004820152602160248201527f4552433732313a20617070726f76616c20746f2063757272656e74206f776e6560448201527f720000000000000000000000000000000000000000000000000000000000000060648201526084015b60405180910390fd5b33600160a060020a0382161480610c565750610c5681336108b9565b610ccb5760405160e560020a62461bcd02815260206004820152603d60248201527f4552433732313a20617070726f76652063616c6c6572206973206e6f7420746f60448201527f6b656e206f776e6572206f7220617070726f76656420666f7220616c6c0000006064820152608401610c31565b610cd58383613f08565b505050565b808015610d5357600c6006610cf06001846154d7565b81548110610d0057610d006154ea565b90600052602060002001604051610d179190615503565b9081526040519081900360200190205460ff161515600114610d4e5760405160e560020a62461bcd028152600401610c3190615579565b610db6565b600c60068281548110610d6857610d686154ea565b90600052602060002001604051610d7f9190615503565b9081526040519081900360200190205460ff161515600114610db65760405160e560020a62461bcd028152600401610c3190615579565b600080610dc2336117d7565b905060005b8151811015610e075783828281518110610de357610de36154ea565b602002602001015103610df557600192505b610e006001826155d6565b9050610dc7565b50600182151514610e5d5760405160e560020a62461bcd02815260206004820152601c60248201527f4f776e657220646f65736e2774206f776e732074686520746f6b656e000000006044820152606401610c31565b6000848152600e6020526040902060050154600403610ec15760405160e560020a62461bcd02815260206004820181905260248201527f43616e6e6f742053656c6c204e6f6e205472616e7366657261626c65204e46546044820152606401610c31565b60008481526014602052604090205460ff1615610f235760405160e560020a62461bcd02815260206004820152601c60248201527f416c7265616479204c697374656420466f722053656c6c696e672121000000006044820152606401610c31565b5050506000818152601460205260408120805460ff191660019081179091556015805491820181559091527f55f448fdea98c4d29eb340757ef0a66cd03dbb9538908a6a81d96026b71ec4750155565b606060068281548110610f8857610f886154ea565b906000526020600020018054610f9d90615481565b80601f0160208091040260200160405190810160405280929190818152602001828054610fc990615481565b80156110165780601f10610feb57610100808354040283529160200191611016565b820191906000526020600020905b815481529060010190602001808311610ff957829003601f168201915b50505050509050919050565b600061102d60065490565b9050611039828d6121f3565b61104d818c8c8c8c8c8c8c8c8c6001612cac565b600160a060020a039091166000908152600a60209081526040822080546001810182559083529120015550505050505050505050565b60606000611090836117d7565b90506000815167ffffffffffffffff8111156110ae576110ae614ac2565b6040519080825280602002602001820160405280156110e757816020015b6110d461498f565b8152602001906001900390816110cc5790505b50905060005b82518110156113da576000818152600e602090815260409182902082516101408101909352805460ff1615158352600181018054919284019161112f90615481565b80601f016020809104026020016040519081016040528092919081815260200182805461115b90615481565b80156111a85780601f1061117d576101008083540402835291602001916111a8565b820191906000526020600020905b81548152906001019060200180831161118b57829003601f168201915b505050505081526020016002820180546111c190615481565b80601f01602080910402602001604051908101604052809291908181526020018280546111ed90615481565b801561123a5780601f1061120f5761010080835404028352916020019161123a565b820191906000526020600020905b81548152906001019060200180831161121d57829003601f168201915b5050505050815260200160038201805461125390615481565b80601f016020809104026020016040519081016040528092919081815260200182805461127f90615481565b80156112cc5780601f106112a1576101008083540402835291602001916112cc565b820191906000526020600020905b8154815290600101906020018083116112af57829003601f168201915b505050505081526020016004820180546112e590615481565b80601f016020809104026020016040519081016040528092919081815260200182805461131190615481565b801561135e5780601f106113335761010080835404028352916020019161135e565b820191906000526020600020905b81548152906001019060200180831161134157829003601f168201915b505050918352505060058201546020820152600682015460408201526007820154600160a060020a031660608201526008820154608082015260099091015460ff16151560a09091015282518390839081106113bc576113bc6154ea565b602002602001018190525080806113d2906155e9565b9150506110ed565b509392505050565b6113ec3382613f83565b61140b5760405160e560020a62461bcd028152600401610c3190615602565b610cd5838383614002565b600160a060020a03811660009081526008602090815260408083208054825181850281018501909352808352919290919083018282801561147657602002820191906000526020600020905b815481526020019060010190808311611462575b5050505050905060005b8151811015611792576114c1600e60008484815181106114a2576114a26154ea565b6020026020010151815260200190815260200160002060080154421190565b156117805730600160a060020a031663055a56f960068484815181106114e9576114e96154ea565b602002602001015181548110611501576115016154ea565b90600052602060002001600e6000868681518110611521576115216154ea565b6020026020010151815260200190815260200160002060000160009054906101000a900460ff16600e600087878151811061155e5761155e6154ea565b60200260200101518152602001908152602001600020600101600e600088888151811061158d5761158d6154ea565b60200260200101518152602001908152602001600020600201600e60008989815181106115bc576115bc6154ea565b60200260200101518152602001908152602001600020600301600e60008a8a815181106115eb576115eb6154ea565b60200260200101518152602001908152602001600020600401600e60008b8b8151811061161a5761161a6154ea565b6020026020010151815260200190815260200160002060050154600e60008c8c8151811061164a5761164a6154ea565b6020026020010151815260200190815260200160002060060154600e60008d8d8151811061167a5761167a6154ea565b6020026020010151815260200190815260200160002060070160009054906101000a9004600160a060020a0316600e60008e8e815181106116bd576116bd6154ea565b60200260200101518152602001908152602001600020600801548e6040518c63ffffffff167c010000000000000000000000000000000000000000000000000000000002815260040161171a9b9a999897969594939291906156db565b600060405180830381600087803b15801561173457600080fd5b505af1158015611748573d6000803e3d6000fd5b50505050611770828281518110611761576117616154ea565b602002602001015130846141a2565b91508061177c81615793565b9150505b8061178a816155e9565b915050611480565b50600160a060020a03821660009081526008602090815260409091208251610cd5928401906149ef565b610cd583838360405180602001604052806000815250612d95565b600160a060020a038116600090815260076020908152604080832080548251818502810185019093528083526060949383018282801561183657602002820191906000526020600020905b815481526020019060010190808311611822575b50505050600160a060020a0385166000908152600860209081526040808320805482518185028101850190935280835295965092949093509083018282801561189e57602002820191906000526020600020905b81548152602001906001019080831161188a575b50505050600160a060020a0386166000908152600a60209081526040808320805482518185028101850190935280835295965092949093509083018282801561190657602002820191906000526020600020905b8154815260200190600101908083116118f2575b50505050600160a060020a0387166000908152600960209081526040808320805482518185028101850190935280835295965092949093509083018282801561196e57602002820191906000526020600020905b81548152602001906001019080831161195a575b505050505090506000815184518651855161198991906155d6565b61199391906155d6565b61199d91906155d6565b67ffffffffffffffff8111156119b5576119b5614ac2565b6040519080825280602002602001820160405280156119de578160200160208202803683370190505b5090506000805b8651811015611a4457868181518110611a0057611a006154ea565b6020026020010151838381518110611a1a57611a1a6154ea565b6020908102919091010152611a306001836155d6565b915080611a3c816155e9565b9150506119e5565b5060005b8551811015611aa757858181518110611a6357611a636154ea565b6020026020010151838381518110611a7d57611a7d6154ea565b6020908102919091010152611a936001836155d6565b915080611a9f816155e9565b915050611a48565b5060005b8451811015611b0a57848181518110611ac657611ac66154ea565b6020026020010151838381518110611ae057611ae06154ea565b6020908102919091010152611af66001836155d6565b915080611b02816155e9565b915050611aab565b5060005b8351811015611b6d57838181518110611b2957611b296154ea565b6020026020010151838381518110611b4357611b436154ea565b6020908102919091010152611b596001836155d6565b915080611b65816155e9565b915050611b0e565b5090979650505050505050565b611b8381612083565b600160a060020a03163303611bdd5760405160e560020a62461bcd02815260206004820152601b60248201527f596f752063616e6e6f742042757920596f7572204f776e204e465400000000006044820152606401610c31565b60008181526016602052604090205460ff1615611c3f5760405160e560020a62461bcd02815260206004820152601460248201527f4e465420416c726561647920426f7567687421210000000000000000000000006044820152606401610c31565b60008181526014602052604090205460ff161515600114611ca55760405160e560020a62461bcd02815260206004820152601860248201527f4e46542072656d6f7665642066726f6d2053656c6c696e6700000000000000006044820152606401610c31565b6000818152601460209081526040808320805460ff199081169091556016909252822080549091166001179055611cdb82612083565b6000838152600e60205260408120600501549192505080600103611db757600160a060020a03821660009081526009602090815260408083208054825181850281018501909352808352611d6a938893889390929091830182828015611d6057602002820191906000526020600020905b815481526020019060010190808311611d4c575b50505050506141a2565b336000908152600960209081526040808320805460018101825590845282842001889055600160a060020a03871683529091208251929350611db09290918401906149ef565b5050611f2c565b80600203611e7457600160a060020a03821660009081526008602090815260408083208054825181850281018501909352808352611e2e938893889390929091830182828015611d605760200282019190600052602060002090815481526020019060010190808311611d4c5750505050506141a2565b336000908152600860209081526040808320805460018101825590845282842001889055600160a060020a03871683529091208251929350611db09290918401906149ef565b600160a060020a0382166000908152600a602090815260408083208054825181850281018501909352808352611ee3938893889390929091830182828015611d605760200282019190600052602060002090815481526020019060010190808311611d4c5750505050506141a2565b336000908152600a60209081526040808320805460018101825590845282842001889055600160a060020a03871683529091208251929350611f299290918401906149ef565b50505b6000838152600f60205260408120805460019290611f4b9084906155d6565b909155506000905080805b601554811015611fa2578560158281548110611f7457611f746154ea565b906000526020600020015403611f905780915060019250611fa2565b611f9b6001826155d6565b9050611f56565b50811561201b5760158054611fb9906001906154d7565b81548110611fc957611fc96154ea565b906000526020600020015460158281548110611fe757611fe76154ea565b6000918252602090912001556015805480612004576120046157aa565b600190038181906000526020600020016000905590555b5050505050565b600061202d60065490565b9050612039828d6121f3565b61204d818c8c8c8c8c8c8c8c8c6001612cac565b600160a060020a039091166000908152600760209081526040822080546001810182559083529120015550505050505050505050565b600081815260026020526040812054600160a060020a031680610a505760405160e560020a62461bcd02815260206004820152601860248201527f4552433732313a20696e76616c696420746f6b656e20494400000000000000006044820152606401610c31565b600160a060020a0381166000908152600b602090815260409182902080548351818402810184019094528084526060939283018282801561101657602002820191906000526020600020905b8154815260200190600101908083116121375750505050509050919050565b6000600160a060020a0382166121d75760405160e560020a62461bcd02815260206004820152602960248201527f4552433732313a2061646472657373207a65726f206973206e6f74206120766160448201527f6c6964206f776e657200000000000000000000000000000000000000000000006064820152608401610c31565b50600160a060020a031660009081526003602052604090205490565b600160a060020a0382166122725760405160e560020a62461bcd02815260206004820152602160248201527f4552433732313a206d696e74696e6720746f207468652030206164647265737360448201527f2e000000000000000000000000000000000000000000000000000000000000006064820152608401610c31565b600c8160405161228291906157c3565b9081526040519081900360200190205460ff16156122b55760405160e560020a62461bcd028152600401610c31906157df565b600680546001810182556000919091527ff652222313e28459528d920b65115c16c04f3efc82aaedc97be59f3f377c0d3f016122f1828261588a565b50600654600090612304906001906154d7565b90506123108382614267565b60408051338152602081018390527f45704679a40d4b2ffe28aa7324f021775faaca4d40917fef2cdf38e53fd90a24910160405180910390a13360009081526012602090815260408083208054600181810183559185529290932090910183905551600c906123809085906157c3565b908152602001604051809103902060006101000a81548160ff0219169083151502179055506001600f600083815260200190815260200160002060008282546123c991906155d6565b9091555050505050565b600960205281600052604060002081815481106123ef57600080fd5b90600052602060002001600091509150505481565b600160a060020a03821660009081526012602052604081208054915b828110156125a557600e600083838154811061243e5761243e6154ea565b6000918252602080832090910154835282019290925260400190206009015460ff16151560011480156124a757506124a7600e6000848481548110612485576124856154ea565b9060005260206000200154815260200190815260200160002060080154421190565b1561259357815482906124bc906001906154d7565b815481106124cc576124cc6154ea565b90600052602060002001548282815481106124e9576124e96154ea565b906000526020600020018190555081805480612507576125076157aa565b600190038181906000526020600020016000905590556040518060400160405280600c81526020017f45585049524544204954454d0000000000000000000000000000000000000000815250600e60008381526020019081526020016000206002019081612575919061588a565b506000818152600e60205260409020600301612591858261588a565b505b8061259d816155e9565b915050612420565b50600160a060020a0384166000908152601260205260409020815461201b91908390614a3a565b606060018054610ac690615481565b60606000825167ffffffffffffffff8111156125f9576125f9614ac2565b60405190808252806020026020018201604052801561263257816020015b61261f61498f565b8152602001906001900390816126175790505b50905060005b83518110156113da576000818152600e602090815260409182902082516101408101909352805460ff1615158352600181018054919284019161267a90615481565b80601f01602080910402602001604051908101604052809291908181526020018280546126a690615481565b80156126f35780601f106126c8576101008083540402835291602001916126f3565b820191906000526020600020905b8154815290600101906020018083116126d657829003601f168201915b5050505050815260200160028201805461270c90615481565b80601f016020809104026020016040519081016040528092919081815260200182805461273890615481565b80156127855780601f1061275a57610100808354040283529160200191612785565b820191906000526020600020905b81548152906001019060200180831161276857829003601f168201915b5050505050815260200160038201805461279e90615481565b80601f01602080910402602001604051908101604052809291908181526020018280546127ca90615481565b80156128175780601f106127ec57610100808354040283529160200191612817565b820191906000526020600020905b8154815290600101906020018083116127fa57829003601f168201915b5050505050815260200160048201805461283090615481565b80601f016020809104026020016040519081016040528092919081815260200182805461285c90615481565b80156128a95780601f1061287e576101008083540402835291602001916128a9565b820191906000526020600020905b81548152906001019060200180831161288c57829003601f168201915b505050918352505060058201546020820152600682015460408201526007820154600160a060020a031660608201526008820154608082015260099091015460ff16151560a0909101528251839083908110612907576129076154ea565b6020026020010181905250808061291d906155e9565b915050612638565b612930338383614416565b5050565b6006818154811061294457600080fd5b90600052602060002001600091509050805461295f90615481565b80601f016020809104026020016040519081016040528092919081815260200182805461298b90615481565b80156129d85780601f106129ad576101008083540402835291602001916129d8565b820191906000526020600020905b8154815290600101906020018083116129bb57829003601f168201915b505050505081565b600160a060020a0382166000908152600960205260408120548103612a3a57600160a060020a03831660009081526009602052604081208054909190612a2857612a286154ea565b90600052602060002001549050612a7e565b600160a060020a03831660009081526009602052604090208054612a60906001906154d7565b81548110612a7057612a706154ea565b906000526020600020015490505b612a89833083614002565b600160a060020a0383166000908152600960205260409020805480612ab057612ab06157aa565b600082815260208082206000199084018101839055909201909255600160a060020a03858116808452600b835260408085208054600180820183559187528587200187905582865260138552818620878752855294819020428155909401869055600d548451918252909116918101919091529081018290527f99039fcf0a98f484616c5196ee8b2ecfa971babf0b519848289ea4db381f85f79060600160405180910390a1505050565b60606000825167ffffffffffffffff811115612b7957612b79614ac2565b604051908082528060200260200182016040528015612bbe57816020015b6040805180820190915260008082526020820152815260200190600190039081612b975790505b50905060005b83518110156113da57600160a060020a038516600090815260136020908152604080832084845290915290208054600190910154838381518110612c0a57612c0a6154ea565b6020026020010151600001848481518110612c2757612c276154ea565b60209081029190910181015101919091525280612c43816155e9565b915050612bc4565b6000612c5660065490565b9050612c62828d6121f3565b612c76818c8c8c8c8c8c8c8c8c6001612cac565b600160a060020a039091166000908152600860209081526040822080546001810182559083529120015550505050505050505050565b60008b8152600e60205260409020805460ff19168b1515178155600101612cd38a8261588a565b5060008b8152600e60205260409020600201612cef898261588a565b5060008b8152600e60205260409020600301612d0b888261588a565b5060008b8152600e60205260409020600401612d27878261588a565b5060009a8b52600e6020526040909a20600581019490945542600685015560078401805473ffffffffffffffffffffffffffffffffffffffff1916600160a060020a039390931692909217909155600883015550600901805460ff1916961515969096179095555050505050565b612d9f3383613f83565b612dbe5760405160e560020a62461bcd028152600401610c3190615602565b612dca848484846144e7565b50505050565b81811115612e495760405160e560020a62461bcd02815260206004820152603160248201527f4d757374204e6f742065786365656420746865204361702070726f766964656460448201527f206279207468652073656c6c65722e2e2e0000000000000000000000000000006064820152608401610c31565b60005b82811015612dca57612e5e3385614267565b612e696001826155d6565b9050612e4c565b600860205281600052604060002081815481106123ef57600080fd5b600e602052600090815260409020805460018201805460ff9092169291612eb290615481565b80601f0160208091040260200160405190810160405280929190818152602001828054612ede90615481565b8015612f2b5780601f10612f0057610100808354040283529160200191612f2b565b820191906000526020600020905b815481529060010190602001808311612f0e57829003601f168201915b505050505090806002018054612f4090615481565b80601f0160208091040260200160405190810160405280929190818152602001828054612f6c90615481565b8015612fb95780601f10612f8e57610100808354040283529160200191612fb9565b820191906000526020600020905b815481529060010190602001808311612f9c57829003601f168201915b505050505090806003018054612fce90615481565b80601f0160208091040260200160405190810160405280929190818152602001828054612ffa90615481565b80156130475780601f1061301c57610100808354040283529160200191613047565b820191906000526020600020905b81548152906001019060200180831161302a57829003601f168201915b50505050509080600401805461305c90615481565b80601f016020809104026020016040519081016040528092919081815260200182805461308890615481565b80156130d55780601f106130aa576101008083540402835291602001916130d5565b820191906000526020600020905b8154815290600101906020018083116130b857829003601f168201915b505050600584015460068501546007860154600887015460099097015495969295919450600160a060020a0316925060ff168a565b60608061311683610b49565b91509150915091565b600d54600160a060020a031633146131a25760405160e560020a62461bcd02815260206004820152602860248201527f4e6f7420617574686f726973656420746f20616464207468652055524c20746f60448201527f20746865204e46540000000000000000000000000000000000000000000000006064820152608401610c31565b6000828152600e60205260409020600301610cd5828261588a565b80801561323657600c60066131d36001846154d7565b815481106131e3576131e36154ea565b906000526020600020016040516131fa9190615503565b9081526040519081900360200190205460ff1615156001146132315760405160e560020a62461bcd028152600401610c3190615579565b613299565b600c6006828154811061324b5761324b6154ea565b906000526020600020016040516132629190615503565b9081526040519081900360200190205460ff1615156001146132995760405160e560020a62461bcd028152600401610c3190615579565b6000806132a5336117d7565b905060005b81518110156132ea57838282815181106132c6576132c66154ea565b6020026020010151036132d857600192505b6132e36001826155d6565b90506132aa565b506001821515146133405760405160e560020a62461bcd02815260206004820152601c60248201527f4f776e657220646f65736e2774206f776e732074686520746f6b656e000000006044820152606401610c31565b60008481526016602052604090205460ff16156133c85760405160e560020a62461bcd02815260206004820152603260248201527f43616e6e6f742072656d6f76652066726f6d2053656c6c696e672c204e46542060448201527f697320616c726561647920736f6c642e2e2e00000000000000000000000000006064820152608401610c31565b60008481526014602052604090205460ff16151560011461342e5760405160e560020a62461bcd02815260206004820181905260248201527f4e4654206973206e6f74206c697374656420666f722073656c6c696e672e2e2e6044820152606401610c31565b6000848152601460205260408120805460ff19169055805b60155481101561348e578560158281548110613464576134646154ea565b90600052602060002001540361347c5780915061348e565b6134876001826155d6565b9050613446565b5060155461349e906001906154d7565b811461201b5760158054611fb9906001906154d7565b6000818152600e60205260408120600581015460018201805460609485948594859492936002830192600381019260049091019185906134f390615481565b80601f016020809104026020016040519081016040528092919081815260200182805461351f90615481565b801561356c5780601f106135415761010080835404028352916020019161356c565b820191906000526020600020905b81548152906001019060200180831161354f57829003601f168201915b5050505050945083805461357f90615481565b80601f01602080910402602001604051908101604052809291908181526020018280546135ab90615481565b80156135f85780601f106135cd576101008083540402835291602001916135f8565b820191906000526020600020905b8154815290600101906020018083116135db57829003601f168201915b5050505050935082805461360b90615481565b80601f016020809104026020016040519081016040528092919081815260200182805461363790615481565b80156136845780601f1061365957610100808354040283529160200191613684565b820191906000526020600020905b81548152906001019060200180831161366757829003601f168201915b5050505050925081805461369790615481565b80601f01602080910402602001604051908101604052809291908181526020018280546136c390615481565b80156137105780601f106136e557610100808354040283529160200191613710565b820191906000526020600020905b8154815290600101906020018083116136f357829003601f168201915b505050505091509450945094509450945091939590929450565b600061373582613dcf565b5192915050565b606061374782613e9e565b600061375e60408051602081019091526000815290565b9050600081511161377e57604051806020016040528060008152506137a9565b806137888461451d565b604051602001613799929190615950565b6040516020818303038152906040525b9392505050565b600c816040516137c091906157c3565b9081526040519081900360200190205460ff16156137f35760405160e560020a62461bcd028152600401610c31906157df565b600680546001810182556000919091527ff652222313e28459528d920b65115c16c04f3efc82aaedc97be59f3f377c0d3f0161382f828261588a565b50600654600090613842906001906154d7565b905061384e3382614267565b60408051338152602081018390527f45704679a40d4b2ffe28aa7324f021775faaca4d40917fef2cdf38e53fd90a24910160405180910390a133600090815260126020908152604080832080546001818101835591855283852001859055848452600f90925282208054919290916138c79084906155d6565b925050819055506001600c836040516138e091906157c3565b908152604051908190036020019020805491151560ff199092169190911790555050565b600160a060020a03811660009081526012602090815260409182902080548351818402810184019094528084526060939283018282801561101657602002820191906000526020600020908154815260200190600101908083116121375750505050509050919050565b600760205281600052604060002081815481106123ef57600080fd5b600b60205281600052604060002081815481106123ef57600080fd5b606080600060158054905067ffffffffffffffff8111156139c9576139c9614ac2565b604051908082528060200260200182016040528015613a0257816020015b6139ef61498f565b8152602001906001900390816139e75790505b5060155490915060009067ffffffffffffffff811115613a2457613a24614ac2565b604051908082528060200260200182016040528015613a4d578160200160208202803683370190505b50905060005b601554811015613da957600e600060158381548110613a7457613a746154ea565b90600052602060002001548152602001908152602001600020604051806101400160405290816000820160009054906101000a900460ff16151515158152602001600182018054613ac490615481565b80601f0160208091040260200160405190810160405280929190818152602001828054613af090615481565b8015613b3d5780601f10613b1257610100808354040283529160200191613b3d565b820191906000526020600020905b815481529060010190602001808311613b2057829003601f168201915b50505050508152602001600282018054613b5690615481565b80601f0160208091040260200160405190810160405280929190818152602001828054613b8290615481565b8015613bcf5780601f10613ba457610100808354040283529160200191613bcf565b820191906000526020600020905b815481529060010190602001808311613bb257829003601f168201915b50505050508152602001600382018054613be890615481565b80601f0160208091040260200160405190810160405280929190818152602001828054613c1490615481565b8015613c615780601f10613c3657610100808354040283529160200191613c61565b820191906000526020600020905b815481529060010190602001808311613c4457829003601f168201915b50505050508152602001600482018054613c7a90615481565b80601f0160208091040260200160405190810160405280929190818152602001828054613ca690615481565b8015613cf35780601f10613cc857610100808354040283529160200191613cf3565b820191906000526020600020905b815481529060010190602001808311613cd657829003601f168201915b505050918352505060058201546020820152600682015460408201526007820154600160a060020a031660608201526008820154608082015260099091015460ff16151560a0909101528351849083908110613d5157613d516154ea565b602002602001018190525060158181548110613d6f57613d6f6154ea565b9060005260206000200154828281518110613d8c57613d8c6154ea565b6020908102919091010152613da26001826155d6565b9050613a53565b5090939092509050565b600a60205281600052604060002081815481106123ef57600080fd5b6060610a50826117d7565b6000828152600e6020526040812060050154600403613e645760405160e560020a62461bcd02815260206004820152602660248201527f43616e6e6f74204275726e2041204e6f6e205472616e7366657261626c65205460448201527f6f6b656e212100000000000000000000000000000000000000000000000000006064820152608401610c31565b81600160a060020a0316613e7784612083565b600160a060020a031603613e9657613e8e836145bd565b506001610a50565b506000610a50565b600081815260026020526040902054600160a060020a0316613f055760405160e560020a62461bcd02815260206004820152601860248201527f4552433732313a20696e76616c696420746f6b656e20494400000000000000006044820152606401610c31565b50565b6000818152600460205260409020805473ffffffffffffffffffffffffffffffffffffffff1916600160a060020a0384169081179091558190613f4a82612083565b600160a060020a03167f8c5be1e5ebec7d5bd14f71427d1e84f3dd0314c0f7b2291e5b200ac8c7c3b92560405160405180910390a45050565b600080613f8f83612083565b905080600160a060020a031684600160a060020a03161480613fd65750600160a060020a0380821660009081526005602090815260408083209388168352929052205460ff165b80613ffa575083600160a060020a0316613fef84610b77565b600160a060020a0316145b949350505050565b82600160a060020a031661401582612083565b600160a060020a03161461403e5760405160e560020a62461bcd028152600401610c319061597f565b600160a060020a0382166140bc5760405160e560020a62461bcd028152602060048201526024808201527f4552433732313a207472616e7366657220746f20746865207a65726f2061646460448201527f72657373000000000000000000000000000000000000000000000000000000006064820152608401610c31565b6140c9838383600161466d565b82600160a060020a03166140dc82612083565b600160a060020a0316146141055760405160e560020a62461bcd028152600401610c319061597f565b6000818152600460209081526040808320805473ffffffffffffffffffffffffffffffffffffffff19908116909155600160a060020a0387811680865260038552838620805460001901905590871680865283862080546001019055868652600290945282852080549092168417909155905184937fddf252ad1be2c89b69c2b068fc378daa952ba7f163c4a11628f55a4df523b3ef91a4505050565b60606000805b83518110156141eb57858482815181106141c4576141c46154ea565b6020026020010151036141d9578091506141eb565b6141e46001826155d6565b90506141a8565b50600183516141fa91906154d7565b811461424657826001845161420f91906154d7565b8151811061421f5761421f6154ea565b6020026020010151838281518110614239576142396154ea565b6020026020010181815250505b61425d836001855161425891906154d7565b6146f5565b5091949350505050565b600160a060020a0382166142c05760405160e560020a62461bcd02815260206004820181905260248201527f4552433732313a206d696e7420746f20746865207a65726f20616464726573736044820152606401610c31565b600081815260026020526040902054600160a060020a0316156143285760405160e560020a62461bcd02815260206004820152601c60248201527f4552433732313a20746f6b656e20616c7265616479206d696e746564000000006044820152606401610c31565b61433660008383600161466d565b600081815260026020526040902054600160a060020a03161561439e5760405160e560020a62461bcd02815260206004820152601c60248201527f4552433732313a20746f6b656e20616c7265616479206d696e746564000000006044820152606401610c31565b600160a060020a0382166000818152600360209081526040808320805460010190558483526002909152808220805473ffffffffffffffffffffffffffffffffffffffff19168417905551839291907fddf252ad1be2c89b69c2b068fc378daa952ba7f163c4a11628f55a4df523b3ef908290a45050565b81600160a060020a031683600160a060020a03160361447a5760405160e560020a62461bcd02815260206004820152601960248201527f4552433732313a20617070726f766520746f2063616c6c6572000000000000006044820152606401610c31565b600160a060020a03838116600081815260056020908152604080832094871680845294825291829020805460ff191686151590811790915591519182527f17307eab39ab6107e8899845ad3d59bd9653f200f220920489ca2b5937696c31910160405180910390a3505050565b6144f2848484614002565b6144fe84848484614777565b612dca5760405160e560020a62461bcd028152600401610c31906159dc565b6060600061452a836148ad565b600101905060008167ffffffffffffffff81111561454a5761454a614ac2565b6040519080825280601f01601f191660200182016040528015614574576020820181803683370190505b5090508181016020015b600019017f3031323334353637383961626364656600000000000000000000000000000000600a86061a8153600a850494508461457e57509392505050565b60006145c882612083565b90506145d881600084600161466d565b6145e182612083565b6000838152600460209081526040808320805473ffffffffffffffffffffffffffffffffffffffff19908116909155600160a060020a0385168085526003845282852080546000190190558785526002909352818420805490911690555192935084927fddf252ad1be2c89b69c2b068fc378daa952ba7f163c4a11628f55a4df523b3ef908390a45050565b6001811115612dca57600160a060020a038416156146b357600160a060020a038416600090815260036020526040812080548392906146ad9084906154d7565b90915550505b600160a060020a03831615612dca57600160a060020a038316600090815260036020526040812080548392906146ea9084906155d6565b909155505050505050565b606082518211156147715760405160e560020a62461bcd02815260206004820152603060248201527f41727261793a206c656e67746820616674657220736872696e6b696e67206c6160448201527f72676572207468616e206265666f7265000000000000000000000000000000006064820152608401610c31565b50815290565b6000600160a060020a0384163b156148a2576040517f150b7a02000000000000000000000000000000000000000000000000000000008152600160a060020a0385169063150b7a02906147d4903390899088908890600401615a39565b6020604051808303816000875af192505050801561480f575060408051601f3d908101601f1916820190925261480c91810190615a75565b60015b61486f573d80801561483d576040519150601f19603f3d011682016040523d82523d6000602084013e614842565b606091505b5080516000036148675760405160e560020a62461bcd028152600401610c31906159dc565b805181602001fd5b600160e060020a0319167f150b7a0200000000000000000000000000000000000000000000000000000000149050613ffa565b506001949350505050565b6000807a184f03e93ff9f4daa797ed6e38ed64bf6a1f01000000000000000083106148f6577a184f03e93ff9f4daa797ed6e38ed64bf6a1f010000000000000000830492506040015b6d04ee2d6d415b85acef81000000008310614922576d04ee2d6d415b85acef8100000000830492506020015b662386f26fc10000831061494057662386f26fc10000830492506010015b6305f5e1008310614958576305f5e100830492506008015b612710831061496c57612710830492506004015b6064831061497e576064830492506002015b600a8310610a505760010192915050565b6040518061014001604052806000151581526020016060815260200160608152602001606081526020016060815260200160008152602001600081526020016000600160a060020a03168152602001600081526020016000151581525090565b828054828255906000526020600020908101928215614a2a579160200282015b82811115614a2a578251825591602001919060010190614a0f565b50614a36929150614a7a565b5090565b828054828255906000526020600020908101928215614a2a5760005260206000209182015b82811115614a2a578254825591600101919060010190614a5f565b5b80821115614a365760008155600101614a7b565b600160e060020a031981168114613f0557600080fd5b600060208284031215614ab757600080fd5b81356137a981614a8f565b60e060020a634e487b7102600052604160045260246000fd5b604051601f8201601f1916810167ffffffffffffffff81118282101715614b0457614b04614ac2565b604052919050565b600067ffffffffffffffff831115614b2657614b26614ac2565b614b39601f8401601f1916602001614adb565b9050828152838383011115614b4d57600080fd5b828260208301376000602084830101529392505050565b600082601f830112614b7557600080fd5b6137a983833560208501614b0c565b80358015158114614b9457600080fd5b919050565b8035600160a060020a0381168114614b9457600080fd5b60008060008060008060008060008060006101608c8e031215614bd257600080fd5b67ffffffffffffffff808d351115614be957600080fd5b614bf68e8e358f01614b64565b9b50614c0460208e01614b84565b9a508060408e01351115614c1757600080fd5b614c278e60408f01358f01614b64565b99508060608e01351115614c3a57600080fd5b614c4a8e60608f01358f01614b64565b98508060808e01351115614c5d57600080fd5b614c6d8e60808f01358f01614b64565b97508060a08e01351115614c8057600080fd5b50614c918d60a08e01358e01614b64565b955060c08c0135945060e08c01359350614cae6101008d01614b99565b92506101208c01359150614cc56101408d01614b99565b90509295989b509295989b9093969950565b60005b83811015614cf2578181015183820152602001614cda565b50506000910152565b60008151808452614d13816020860160208601614cd7565b601f01601f19169290920160200192915050565b6020815260006137a96020830184614cfb565b600060208284031215614d4c57600080fd5b6137a982614b99565b600081518084526020808501808196508284028101915082860160005b85811015614e4e5782840389528151805115158552610140868201518188880152614d9f82880182614cfb565b91505060408083015187830382890152614db98382614cfb565b9250505060608083015187830382890152614dd48382614cfb565b9250505060808083015187830382890152614def8382614cfb565b9250505060a080830151818801525060c080830151818801525060e080830151614e2382890182600160a060020a03169052565b5050610100828101519087015261012091820151151591909501529784019790840190600101614d72565b5091979650505050505050565b600081518084526020808501945080840160005b83811015614e96578151805188528301518388015260409096019590820190600101614e6f565b509495945050505050565b604081526000614eb46040830185614d55565b8281036020840152614ec68185614e5b565b95945050505050565b600060208284031215614ee157600080fd5b5035919050565b60008060408385031215614efb57600080fd5b614f0483614b99565b946020939093013593505050565b6020815260006137a96020830184614d55565b600080600060608486031215614f3a57600080fd5b614f4384614b99565b9250614f5160208501614b99565b9150604084013590509250925092565b600081518084526020808501945080840160005b83811015614e9657815187529582019590820190600101614f75565b6020815260006137a96020830184614f61565b60008060408385031215614fb757600080fd5b614fc083614b99565b9150602083013567ffffffffffffffff811115614fdc57600080fd5b614fe885828601614b64565b9150509250929050565b6000806040838503121561500557600080fd5b61500e83614b99565b915060208084013567ffffffffffffffff8082111561502c57600080fd5b818601915086601f83011261504057600080fd5b81358181111561505257615052614ac2565b8381029150615062848301614adb565b818152918301840191848101908984111561507c57600080fd5b938501935b8385101561509a57843582529385019390850190615081565b8096505050505050509250929050565b600080604083850312156150bd57600080fd5b6150c683614b99565b91506150d460208401614b84565b90509250929050565b600080604083850312156150f057600080fd5b50508035926020909101359150565b6020815260006137a96020830184614e5b565b60008060008060008060008060008060006101608c8e03121561513457600080fd5b8b359a5061514460208d01614b84565b995067ffffffffffffffff8060408e0135111561516057600080fd5b6151708e60408f01358f01614b64565b99508060608e0135111561518357600080fd5b6151938e60608f01358f01614b64565b98508060808e013511156151a657600080fd5b6151b68e60808f01358f01614b64565b97508060a08e013511156151c957600080fd5b506151da8d60a08e01358e01614b64565b955060c08c0135945060e08c013593506151f76101008d01614b99565b92506101208c01359150614cc56101408d01614b84565b6000806000806080858703121561522457600080fd5b61522d85614b99565b935061523b60208601614b99565b925060408501359150606085013567ffffffffffffffff81111561525e57600080fd5b8501601f8101871361526f57600080fd5b61527e87823560208401614b0c565b91505092959194509250565b60008060006060848603121561529f57600080fd5b505081359360208301359350604090920135919050565b60006101408c151583528060208401526152d28184018d614cfb565b905082810360408401526152e6818c614cfb565b905082810360608401526152fa818b614cfb565b9050828103608084015261530e818a614cfb565b60a0840198909852505060c0810194909452600160a060020a039290921660e084015261010083015215156101209091015295945050505050565b6000806040838503121561535c57600080fd5b82359150602083013567ffffffffffffffff811115614fdc57600080fd5b60a08152600061538d60a0830188614cfb565b828103602084015261539f8188614cfb565b905082810360408401526153b38187614cfb565b905082810360608401526153c78186614cfb565b9150508260808301529695505050505050565b6000602082840312156153ec57600080fd5b813567ffffffffffffffff81111561540357600080fd5b613ffa84828501614b64565b6000806040838503121561542257600080fd5b61542b83614b99565b91506150d460208401614b99565b60408152600061544c6040830185614d55565b8281036020840152614ec68185614f61565b6000806040838503121561547157600080fd5b823591506150d460208401614b99565b60028104600182168061549557607f821691505b6020821081036154b85760e060020a634e487b7102600052602260045260246000fd5b50919050565b60e060020a634e487b7102600052601160045260246000fd5b81810381811115610a5057610a506154be565b60e060020a634e487b7102600052603260045260246000fd5b600080835461551181615481565b60018281168015615529576001811461553e5761556d565b60ff198416875282151583028701945061556d565b8760005260208060002060005b858110156155645781548a82015290840190820161554b565b50505082870194505b50929695505050505050565b60208082526027908201527f4e465420446f65736e2774206578697374732e2e2e2e20437265617465204e4660408201527f5420466972737400000000000000000000000000000000000000000000000000606082015260800190565b80820180821115610a5057610a506154be565b6000600182016155fb576155fb6154be565b5060010190565b6020808252602d908201527f4552433732313a2063616c6c6572206973206e6f7420746f6b656e206f776e6560408201527f72206f7220617070726f76656400000000000000000000000000000000000000606082015260800190565b6000815461566c81615481565b80855260206001838116801561568957600181146156a2576156d0565b60ff1985168884015283151583028801830195506156d0565b866000528260002060005b858110156156c85781548a82018601529083019084016156ad565b890184019650505b505050505092915050565b60006101608083526156ef8184018f61565f565b90508c15156020840152828103604084015261570b818d61565f565b9050828103606084015261571f818c61565f565b90508281036080840152615733818b61565f565b905082810360a0840152615747818a61565f565b9150508660c08301528560e0830152600160a060020a03851661010083015283610120830152615783610140830184600160a060020a03169052565b9c9b505050505050505050505050565b6000816157a2576157a26154be565b506000190190565b60e060020a634e487b7102600052603160045260246000fd5b600082516157d5818460208701614cd7565b9190910192915050565b60208082526025908201527f44616e6720697421212c2049204861766520616c7265616479206265656e206d60408201527f696e746564000000000000000000000000000000000000000000000000000000606082015260800190565b601f821115610cd5576000818152602081206020601f860104810160208610156158635750805b6020601f860104820191505b818110156158825782815560010161586f565b505050505050565b815167ffffffffffffffff8111156158a4576158a4614ac2565b6158b8816158b28454615481565b8461583c565b602080601f8311600181146158f157600084156158d55750858301515b60028086026008870290910a6000190419821617865550615882565b600085815260208120601f198616915b8281101561592057888601518255948401946001909101908401615901565b508582101561594057878501516008601f88160260020a60001904191681555b5050505050600202600101905550565b60008351615962818460208801614cd7565b835190830190615976818360208801614cd7565b01949350505050565b60208082526025908201527f4552433732313a207472616e736665722066726f6d20696e636f72726563742060408201527f6f776e6572000000000000000000000000000000000000000000000000000000606082015260800190565b60208082526032908201527f4552433732313a207472616e7366657220746f206e6f6e20455243373231526560408201527f63656976657220696d706c656d656e7465720000000000000000000000000000606082015260800190565b6000600160a060020a03808716835280861660208401525083604083015260806060830152615a6b6080830184614cfb565b9695505050505050565b600060208284031215615a8757600080fd5b81516137a981614a8f56fea2646970667358221220983cdccd92693dcb3dff5ae718b7d64f90302effb09113e3f6c1319f93c2f10664736f6c63430008140033",
  "immutableReferences": {},
  "source": "// SPDX-License-Identifier: MIT\r\npragma solidity >=0.4.22 <0.9.0;\r\nimport \"@openzeppelin/contracts/token/ERC721/ERC721.sol\";\r\n\r\ncontract NFT is ERC721 {\r\n    // string public baseUri;\r\n    // string public baseExtesion = \".json\";\r\n    // function setBaseUri(string memory _baseUri) external onlyOwner {\r\n    //     baseUri = _baseUri;\r\n    // }\r\n\r\n    /***** \r\n    nftProp: Structure contains multiple dataTypes that stores different information.\r\n    *****/\r\n    event mintEvent(address to, uint256 _tokenId);\r\n    event Stake(address from, address to, uint256 _tokenId);\r\n    struct nftProp {\r\n        bool minted; //makes sure if it is minted or not?\r\n        string name; //name of the item.\r\n        string description; //desc. of the prod bought\r\n        string url; //nft url\r\n        string trxnHash; //trxn hash from frontend\r\n        uint256 nftType;\r\n        // nftType is for either it is electric, grocery, /... 1 for electricity, 2 for grocery and so on...\r\n        // //1 = special i.e electrical/>10000  || electrical and cost>=5000 //done\r\n        // //2 = prelaunch    //done\r\n        // //3 = generic everything less than 10K\r\n        // //4 = Non transferable i.e music, video etc. //done\r\n        uint256 boughtOn; //date on which the item is bought can be obtained using block.timestamp()\r\n        address seller; //address of the person who sold the item\r\n        uint256 ExpireOn; //If the item is expireable, Then it contains the date on which it will be expired.\r\n        bool expireable; // Stores if the item is Expireable or not?\r\n    }\r\n\r\n    /***** \r\n    NFTs store array of string.\r\n    It contains all the Unique Strings from which a NFT is being generated.\r\n    *****/\r\n    string[] public NFTs;\r\n\r\n    /***** \r\n    AllNonTransferableNFT mapping  stores all the non transferable NFT's.\r\n    Parameters:\r\n    address: Address of the Person \r\n    uint[]: stores all the tokenId.\r\n    *****/\r\n    mapping(address => uint256[]) public AllNonTransferrableNFT;\r\n\r\n    /***** \r\n    AllPreLaunchNFT mapping  stores all the non Prelaunch NFT's.\r\n    Parameters:\r\n    address: Address of the Person \r\n    uint[]: stores all the tokenId.\r\n    *****/\r\n    mapping(address => uint256[]) public AllPreLaunchNFT;\r\n    /***** \r\n    AllSpecialNFT mapping  stores all the non transferable NFT's.\r\n    Parameters:\r\n    address: Address of the Person \r\n    uint[]: stores all the tokenId.\r\n    *****/\r\n    mapping(address => uint256[]) public AllSpecialNFT;\r\n    /***** \r\n    AllGenericNFT mapping  stores all the non transferable NFT's.\r\n    Parameters:\r\n    address: Address of the Person \r\n    uint[]: stores all the tokenId.\r\n    *****/\r\n    mapping(address => uint256[]) public AllGenericNFT;\r\n    /***** \r\n    AllStakedNFT mapping  stores all the NFT's staked in contract..\r\n    Parameters:\r\n    address: Address of the Person \r\n    uint[]: stores all the tokenId.\r\n    *****/\r\n    mapping(address => uint256[]) public AllStakedNFT;\r\n\r\n    /***** \r\n    _NFTExists mapping  stores wether the NFT is created or not?\r\n    It contains if the NFT with gien unique string exists or not.\r\n    Parameters:\r\n    string: Unique String from which a NFT is being generated.  \r\n    bool: true or false. True if it exists.\r\n    *****/\r\n    mapping(string => bool) _NFTExists;\r\n\r\n    address public owner;\r\n\r\n    /***** \r\n    NFTinfo mapping stores the information of the NFT using tokenId.\r\n    For every tokenId, NFT information is stored.\r\n    Parameters:\r\n    uint: TokenId\r\n    nftProp: Structure that contains multiple datatypes.\r\n    *****/\r\n    mapping(uint256 => nftProp) public NFTinfo;\r\n\r\n    /***** \r\n    New Mapping for Refurbished Contract.\r\n    previousOwners mapping stores that how many owners did this token had.\r\n    Parameters:\r\n    uint: TokenId\r\n    uint: Number of Owners.\r\n    *****/\r\n    mapping(uint256 => uint256) previousOwners;\r\n\r\n    /***** \r\n    setURL: Temporary function that can change the NFT url, if in future we want to make modifications.\r\n    Parameters:\r\n    uint: TokenId of the NFT that we want to change the URL of.\r\n    string: _nftURL the new URL.\r\n    Can only be done by the contract OWNER.\r\n    *****/\r\n    function setURL(uint256 tokenId, string memory _nftURL) public {\r\n        require(\r\n            msg.sender == owner,\r\n            \"Not authorised to add the URL to the NFT\"\r\n        );\r\n        NFTinfo[tokenId].url = _nftURL;\r\n    }\r\n\r\n    /***** \r\n    Constructor Set the Name and Symbol.\r\n    *****/\r\n    constructor() ERC721(\"SterlingStore\", \"SterlingNFT\") {\r\n        owner = msg.sender;\r\n    }\r\n\r\n    //if item number is greater than one....\r\n    // cap is the maximum number of items one can buy.\r\n    // MODIFY THIS FUNCTION\r\n    /***** \r\n    buyBulk function, is used to generate multiple NFT, when user is trying to buy more than one item.\r\n    Parameters:\r\n    uint: tokenId\r\n    uint: _NumberOfItems.\r\n    uint: _cap is the maximum number of items bought.\r\n    *****/\r\n    function buyBulk(\r\n        uint256 tokenId,\r\n        uint256 _NumberOfItems,\r\n        uint256 _cap\r\n    ) public {\r\n        require(\r\n            _cap <= _NumberOfItems,\r\n            \"Must Not exceed the Cap provided by the seller...\"\r\n        );\r\n        for (uint256 i = 0; i < _NumberOfItems; i += 1)\r\n            _mint(msg.sender, tokenId);\r\n    }\r\n\r\n    //return the type of nft by taking in the tokenID of the nft.\r\n    function getNFTtype(uint256 _tokenId) public view returns (uint256) {\r\n        return NFTinfo[_tokenId].nftType;\r\n    }\r\n\r\n    /***** \r\n    viewNFTPropByIndex: Temporary function to check if the Properties of NFT is being successfully stored.\r\n    Parameters:\r\n    uint: TokenId\r\n    Return:\r\n    string :name\r\n    string: description\r\n    uint: nftType\r\n    address: seller\r\n    *****/\r\n    function viewNFTPropByIndex1(\r\n        uint256 _tokenId\r\n    )\r\n        public\r\n        view\r\n        returns (\r\n            string memory,\r\n            string memory,\r\n            string memory,\r\n            string memory,\r\n            uint256\r\n        )\r\n    {\r\n        return (\r\n            NFTinfo[_tokenId].name,\r\n            NFTinfo[_tokenId].description,\r\n            NFTinfo[_tokenId].url,\r\n            NFTinfo[_tokenId].trxnHash,\r\n            NFTinfo[_tokenId].nftType\r\n        );\r\n    }\r\n\r\n    function viewNFTPropByIndex2(\r\n        uint256 _tokenId\r\n    ) public view returns (uint256, address, uint256, bool) {\r\n        return (\r\n            NFTinfo[_tokenId].boughtOn,\r\n            NFTinfo[_tokenId].seller,\r\n            NFTinfo[_tokenId].ExpireOn,\r\n            NFTinfo[_tokenId].expireable\r\n        );\r\n    }\r\n\r\n    /***** \r\n    addNftProp function adds the property of NFT in NFTinfo mapping.\r\n    Parameters:\r\n    uint256: _tokenId,\r\n    bool: _minted,\r\n    string: _name,\r\n    string: _description,\r\n    string: _url,\r\n    string: _trxnHash,\r\n    uint256: _nftType,\r\n    uint256: _boughtOn,\r\n    address: _seller,\r\n    uint256: _ExpireOn,\r\n    bool: _expireable \r\n    *****/\r\n    function addNftProp(\r\n        uint256 _tokenId,\r\n        bool _minted,\r\n        string memory _name,\r\n        string memory _description,\r\n        string memory _url,\r\n        string memory _trxnHash,\r\n        uint256 _nftType,\r\n        uint256 _boughtOn,\r\n        address _seller,\r\n        uint256 _ExpireOn,\r\n        bool _expireable\r\n    ) public {\r\n        NFTinfo[_tokenId].minted = _minted;\r\n        NFTinfo[_tokenId].name = _name;\r\n        NFTinfo[_tokenId].description = _description;\r\n        NFTinfo[_tokenId].url = _url;\r\n        NFTinfo[_tokenId].trxnHash = _trxnHash;\r\n        NFTinfo[_tokenId].nftType = _nftType;\r\n        NFTinfo[_tokenId].boughtOn = block.timestamp;\r\n        NFTinfo[_tokenId].seller = _seller;\r\n        NFTinfo[_tokenId].ExpireOn = _ExpireOn;\r\n        NFTinfo[_tokenId].expireable = _expireable;\r\n    }\r\n\r\n    /***** \r\n    boughtOn & tempExp: Temporary variables for check.\r\n    *****/\r\n    // to transform a JavaScript date to unix timestamp (the number of seconds since 1970)\r\n    uint256 public boughtOnDate;\r\n    uint256 public tempExp;\r\n\r\n    /***** \r\n    addNewBoughtOn & addTempExp: Temporary function to check the functionality.\r\n    addNewBoughtOn - adds the current timestamp \r\n    addTempExp - adds a expiry date by taking a input i.e expiry date.\r\n    *****/\r\n    function addNewBoughtOn() public {\r\n        boughtOnDate = block.timestamp;\r\n    }\r\n\r\n    function addTempExp(uint256 _exp) public {\r\n        tempExp = _exp;\r\n    }\r\n\r\n    /***** \r\n    addExpiredOn function, is used to add the expiry of a token.\r\n    Parameters:\r\n    uint: _expiryDate //Expiry date will come from frontend\r\n    uint: tokenId\r\n    *****/\r\n    //USE THIS to get the current date: const dateInSecs = Math.floor(new Date().getTime() / 1000);\r\n    function addExpiredOn(uint256 _expiryDate, uint256 _tokenId) public {\r\n        NFTinfo[_tokenId].ExpireOn = _expiryDate;\r\n    }\r\n\r\n    /***** \r\n    ifTimeHasPassed function, is used to check if the expiry of the item has been reached or not.\r\n    Parameters:\r\n    uint: _expireOn is the expiry date //Expiry date will come from frontend\r\n    Return:\r\n    bool: if the expiry has reached then true otherwise false.\r\n    *****/\r\n\r\n    function ifTimeHasPassed(uint256 __ExpireOn) public view returns (bool) {\r\n        return (block.timestamp > __ExpireOn);\r\n    }\r\n\r\n    /***** \r\n    AllSpecialNFTLength is used to find the length of the mapping.\r\n    nftsLen function, is used to find the current length of th earray which contains all the NFT's. Returns length\r\n    nftVal function is used to find the Unique string form which the NFT has been generated. Takes id as input and returns the unique URL.\r\n    *****/\r\n    function AllSpecialNFTLength(address _off) public view returns (uint256) {\r\n        return AllSpecialNFT[_off].length;\r\n    }\r\n\r\n    function addSpecialNFT(address _off, uint256 _tokenId) internal {\r\n        AllSpecialNFT[_off].push(_tokenId);\r\n    }\r\n\r\n    function nftsLen() public view returns (uint256) {\r\n        return NFTs.length;\r\n    }\r\n\r\n    function nftVal(uint256 _id) public view returns (string memory) {\r\n        return NFTs[_id];\r\n    }\r\n\r\n    function viewAllTokens(\r\n        address _off\r\n    ) public view returns (uint256[] memory) {\r\n        uint256[] memory allUserTokensNontransfer = AllNonTransferrableNFT[\r\n            _off\r\n        ];\r\n        uint256[] memory allUserTokensPrelaunch = AllPreLaunchNFT[_off];\r\n        uint256[] memory allUserTokensGeneric = AllGenericNFT[_off];\r\n        uint256[] memory allUserTokensSpecial = AllSpecialNFT[_off];\r\n        uint256[] memory allTokens = new uint256[](\r\n            allUserTokensGeneric.length +\r\n                allUserTokensNontransfer.length +\r\n                allUserTokensPrelaunch.length +\r\n                allUserTokensSpecial.length\r\n        );\r\n        uint256 counter = 0;\r\n        for (uint256 i = 0; i < allUserTokensNontransfer.length; i++) {\r\n            // allTokens.push(allUserTokensNontransfer[i]);\r\n            allTokens[counter] = allUserTokensNontransfer[i];\r\n            counter += 1;\r\n        }\r\n        for (uint256 i = 0; i < allUserTokensPrelaunch.length; i++) {\r\n            // allTokens.push(allUserTokensPrelaunch[i]);\r\n            allTokens[counter] = allUserTokensPrelaunch[i];\r\n            counter += 1;\r\n        }\r\n        for (uint256 i = 0; i < allUserTokensGeneric.length; i++) {\r\n            // allTokens.push(allUserTokensGeneric[i]);\r\n            allTokens[counter] = allUserTokensGeneric[i];\r\n            counter += 1;\r\n        }\r\n        for (uint256 i = 0; i < allUserTokensSpecial.length; i++) {\r\n            // allTokens.push(allUserTokensSpecial[i]);\r\n            allTokens[counter] = allUserTokensSpecial[i];\r\n            counter += 1;\r\n        }\r\n        return allTokens;\r\n    }\r\n\r\n    //this function returns all the tokens with nft info.\r\n    function viewPersonalNFT(\r\n        address _off\r\n    ) public view returns (nftProp[] memory) {\r\n        // uint[] memory allOwnedTokens = viewAllTokens();\r\n        uint256[] memory allOwnedTokens = viewAllTokens(_off);\r\n        nftProp[] memory NFTpropDetail = new nftProp[](allOwnedTokens.length);\r\n        for (uint256 i = 0; i < allOwnedTokens.length; i++) {\r\n            NFTpropDetail[i] = NFTinfo[i];\r\n            // NFTpropDetail.push(NFTinfo[i]);\r\n        }\r\n        return NFTpropDetail;\r\n    }\r\n\r\n    //same above function but contains another parameter allownedTokens.\r\n    function userPersonalNFTinfo(\r\n        address _off,\r\n        uint256[] memory allOwnedTokens\r\n    ) public view returns (nftProp[] memory) {\r\n        // uint[] memory allOwnedTokens = viewAllTokens(_off);\r\n        nftProp[] memory NFTpropDetail = new nftProp[](allOwnedTokens.length);\r\n        for (uint256 i = 0; i < allOwnedTokens.length; i++) {\r\n            NFTpropDetail[i] = NFTinfo[i];\r\n            // NFTpropDetail.push(NFTinfo[i]);\r\n        }\r\n        return NFTpropDetail;\r\n    }\r\n\r\n    function userStakedNFTinfo(\r\n        address _user,\r\n        uint256[] memory allOwnedTokens\r\n    ) public view returns (stakeProp[] memory) {\r\n        stakeProp[] memory stakePropDetail = new stakeProp[](\r\n            allOwnedTokens.length\r\n        );\r\n        for (uint256 i = 0; i < allOwnedTokens.length; i++) {\r\n            (\r\n                stakePropDetail[i]._stakedOn,\r\n                stakePropDetail[i]._stakedTill\r\n            ) = getStakedNFTProp(_user, i);\r\n        }\r\n        return stakePropDetail;\r\n    }\r\n\r\n    function viewUserStakedNFT(\r\n        address _user\r\n    ) public view returns (nftProp[] memory, stakeProp[] memory) {\r\n        uint256[] memory allStakedTokens = getAllStakedNFTFromAddress(_user);\r\n        // uint[] memory allOwnedTokens = viewAllTokens();\r\n        // uint[] memory allOwnedTokens = viewAllTokens(_user);\r\n        return (\r\n            userPersonalNFTinfo(_user, allStakedTokens),\r\n            userStakedNFTinfo(_user, allStakedTokens)\r\n        );\r\n    }\r\n\r\n    /***** \r\n    _NonTransferableNFT function, is used to mint and then add the property of the NFT.\r\n    Parameters:\r\n    string: _nft - Unique URL\r\n    bool: _minted,\r\n    string: _name\r\n    string: _description\r\n    string: _url\r\n    string: _trxnHash\r\n    uint256: _nftType\r\n    uint256: _boughtOn\r\n    address: _seller\r\n    uint256: _ExpireOn\r\n    bool: _expireable\r\n    *****/\r\n\r\n    function _NonTransferableNFT(\r\n        string memory _nft,\r\n        bool _minted,\r\n        string memory _name,\r\n        string memory _description,\r\n        string memory _url,\r\n        string memory _trxnHash,\r\n        uint256 _nftType,\r\n        uint256 _boughtOn,\r\n        address _seller,\r\n        uint256 _ExpireOn,\r\n        address _off\r\n    ) external {\r\n        uint256 _tokenId = nftsLen();\r\n        mintToOthers(_off, _nft);\r\n\r\n        addNftProp(\r\n            _tokenId,\r\n            _minted,\r\n            _name,\r\n            _description,\r\n            _url,\r\n            _trxnHash,\r\n            _nftType,\r\n            _boughtOn,\r\n            _seller,\r\n            _ExpireOn,\r\n            true\r\n        );\r\n\r\n        AllNonTransferrableNFT[_off].push(_tokenId);\r\n    }\r\n\r\n    /***** 0x5B38Da6a701c568545dCfcB03FcB875f56beddC4\r\n    _PreLaunch function, is used to mint and then add the property of the NFT.\r\n    Parameters:\r\n    string: _nft - Unique URL\r\n    bool: _minted,\r\n    string: _name\r\n    string: _description\r\n    string: _url\r\n    string: _trxnHash\r\n    uint256: _nftType\r\n    uint256: _boughtOn\r\n    address: _seller\r\n    uint256: _ExpireOn\r\n    bool: _expireable\r\n    *****/\r\n    function _PreLaunch(\r\n        string memory _nft,\r\n        bool _minted,\r\n        string memory _name,\r\n        string memory _description,\r\n        string memory _url,\r\n        string memory _trxnHash,\r\n        uint256 _nftType,\r\n        uint256 _boughtOn,\r\n        address _seller,\r\n        uint256 _ExpireOn,\r\n        address _off\r\n    ) external {\r\n        uint256 _tokenId = nftsLen();\r\n        mintToOthers(_off, _nft);\r\n        addNftProp(\r\n            _tokenId,\r\n            _minted,\r\n            _name,\r\n            _description,\r\n            _url,\r\n            _trxnHash,\r\n            _nftType,\r\n            _boughtOn,\r\n            _seller,\r\n            _ExpireOn,\r\n            true\r\n        );\r\n        AllPreLaunchNFT[_off].push(_tokenId);\r\n    }\r\n\r\n    /***** \r\n    _Generic function, is used to mint and then add the property of the NFT.\r\n    Parameters:\r\n    string: _nft - Unique URL\r\n    bool: _minted,\r\n    string: _name\r\n    string: _description\r\n    string: _url\r\n    string: _trxnHash\r\n    uint256: _nftType\r\n    uint256: _boughtOn\r\n    address: _seller\r\n    uint256: _ExpireOn\r\n    bool: _expireable\r\n    *****/\r\n\r\n    function _Generic(\r\n        string memory _nft,\r\n        bool _minted,\r\n        string memory _name,\r\n        string memory _description,\r\n        string memory _url,\r\n        string memory _trxnHash,\r\n        uint256 _nftType,\r\n        uint256 _boughtOn,\r\n        address _seller,\r\n        uint256 _ExpireOn,\r\n        address _off\r\n    ) external {\r\n        uint256 _tokenId = nftsLen();\r\n        mintToOthers(_off, _nft);\r\n        addNftProp(\r\n            _tokenId,\r\n            _minted,\r\n            _name,\r\n            _description,\r\n            _url,\r\n            _trxnHash,\r\n            _nftType,\r\n            _boughtOn,\r\n            _seller,\r\n            _ExpireOn,\r\n            true\r\n        );\r\n\r\n        AllGenericNFT[_off].push(_tokenId);\r\n    }\r\n\r\n    /***** \r\n    _Special function, is used to mint and then add the property of the NFT.\r\n    Parameters:\r\n    string: _nft - Unique URL\r\n    bool: _minted,\r\n    string: _name\r\n    string: _description\r\n    string: _url\r\n    string: _trxnHash\r\n    uint256: _nftType\r\n    uint256: _boughtOn\r\n    address: _seller\r\n    uint256: _ExpireOn\r\n    bool: _expireable\r\n    *****/\r\n    function _Special(\r\n        string memory _nft,\r\n        bool _minted,\r\n        string memory _name,\r\n        string memory _description,\r\n        string memory _url,\r\n        string memory _trxnHash,\r\n        uint256 _nftType,\r\n        uint256 _boughtOn,\r\n        address _seller,\r\n        uint256 _ExpireOn,\r\n        address _off\r\n    ) external {\r\n        uint256 _tokenId = nftsLen();\r\n        mintToOthers(_off, _nft);\r\n        addNftProp(\r\n            _tokenId,\r\n            _minted,\r\n            _name,\r\n            _description,\r\n            _url,\r\n            _trxnHash,\r\n            _nftType,\r\n            _boughtOn,\r\n            _seller,\r\n            _ExpireOn,\r\n            false\r\n        );\r\n        // addSpecialNFT(_off, _tokenId);\r\n        AllSpecialNFT[_off].push(_tokenId);\r\n    }\r\n\r\n    /***** \r\n    _NonTransferableNFT function, is used to mint and then add the property of the NFT.\r\n    Parameters:\r\n    address: persons address.\r\n    uint []: Integer Array that contains all the IDS owned by te that address.\r\n    *****/\r\n    mapping(address => uint256[]) _ownerOwnedIds;\r\n\r\n    function getAllOwnerOwnedIds(\r\n        address _user\r\n    ) public view returns (uint256[] memory) {\r\n        return _ownerOwnedIds[_user];\r\n    }\r\n\r\n    /***** \r\n    removeAllExpiredNFT function, is used to remove the Expired NFT from the list. \r\n    Parameters:\r\n    address: persons address.\r\n    string: __url of the NEW nft, this is for temporary right now. Fix this by directly adding url in the code.\r\n    *****/\r\n    //call this continuously.... for particular wallet address so that expired IDS can be removed from the mapping.\r\n    function removeAllExpiredNFT(address _of, string memory __url) public {\r\n        uint256 totalTokensOfOwner = _ownerOwnedIds[_of].length;\r\n        uint256[] storage allIds = _ownerOwnedIds[_of];\r\n        for (uint256 i = 0; i < totalTokensOfOwner; i++) {\r\n            if (\r\n                NFTinfo[allIds[i]].expireable == true &&\r\n                ifTimeHasPassed(NFTinfo[allIds[i]].ExpireOn)\r\n            ) {\r\n                allIds[i] = allIds[allIds.length - 1];\r\n                allIds.pop();\r\n                NFTinfo[i].description = \"EXPIRED ITEM\";\r\n                NFTinfo[i].url = __url; //add a url where IMAGE SHOWS EXPIRED ITEM\r\n            }\r\n        }\r\n        _ownerOwnedIds[_of] = allIds;\r\n    }\r\n\r\n    /***** \r\n    mint function, is used to mint a new NFT by the Unique URL.\r\n    Parameters:\r\n    string: _nft which is a UNIQUE URL.\r\n    *****/\r\n    function mint(string memory _nft) public {\r\n        //validation that the nft we are minting has not yet minted.\r\n        require(!_NFTExists[_nft], \"Dang it!!, I Have already been minted\");\r\n        NFTs.push(_nft); //add this Unique url to the NFTs Array.\r\n        uint256 _id = NFTs.length - 1;\r\n        _mint(msg.sender, _id);\r\n        emit mintEvent(msg.sender, _id);\r\n        _ownerOwnedIds[msg.sender].push(_id);\r\n        previousOwners[_id] += 1; //owners has been increased....or it has been sold once..\r\n        //everytime we mint, then we are making sure that particular NFT is not minted again.\r\n        _NFTExists[_nft] = true;\r\n    }\r\n\r\n    /***** \r\n    mintToOthers function, is used to mint a new NFT to a address by the Unique URL.\r\n    Parameters:\r\n    address: address of the person to whose address you want ot mint ht eNFT.\r\n    string: _nft which is a UNIQUE URL.\r\n\r\n    *****/\r\n    function mintToOthers(address to, string memory _nft) public virtual {\r\n        //requires that the address is a valid and not 0.\r\n        require(to != address(0), \"ERC721: minting to the 0 address.\");\r\n        require(!_NFTExists[_nft], \"Dang it!!, I Have already been minted\");\r\n        NFTs.push(_nft);\r\n        uint256 _id = NFTs.length - 1;\r\n        _mint(to, _id);\r\n        emit mintEvent(msg.sender, _id);\r\n        _ownerOwnedIds[msg.sender].push(_id);\r\n        //everytime we mint, then we are making sure that particular NFT is not minted again.\r\n        _NFTExists[_nft] = true;\r\n        previousOwners[_id] += 1;\r\n    }\r\n\r\n    /***** \r\n    Stake Prop contains different information on when was this nft staked and what else to do with it. or when is it supposed to be sent back.\r\n    *****/\r\n    struct stakeProp {\r\n        uint256 _stakedOn;\r\n        uint256 _stakedTill;\r\n    }\r\n    mapping(address => mapping(uint256 => stakeProp)) StakedNFTs;\r\n\r\n    /***** \r\n    StakeSpecialNFT function, is used to stake a Special NFT so that particular person can participate in the VOTING.\r\n    Parameters:\r\n    address: address of the person to whose address you want to mint the NFT.\r\n    Returns:\r\n    bool: True if the staking is successful otherwise false.\r\n    *****/\r\n\r\n    function StakeSpecialNFT(address _off, uint256 _till) public {\r\n        uint256 _tokenId;\r\n        if (AllSpecialNFT[_off].length == 0) {\r\n            _tokenId = AllSpecialNFT[_off][0];\r\n        } else _tokenId = AllSpecialNFT[_off][AllSpecialNFT[_off].length - 1];\r\n        // approve(_off, AllSpecialNFT[_off][_tokenId]); // this will send address and token id.\r\n        _transfer(_off, address(this), _tokenId);\r\n        AllSpecialNFT[_off].pop();\r\n        //add this token to stake nft.\r\n        AllStakedNFT[_off].push(_tokenId);\r\n        StakedNFTs[_off][_tokenId]._stakedOn = block.timestamp;\r\n        StakedNFTs[_off][_tokenId]._stakedTill = _till;\r\n        emit Stake(_off, owner, _tokenId);\r\n    }\r\n\r\n    /***** \r\n    getAllStakedNFTFromAddress function, is used to return all the staked NFT's of the user.\r\n    It takes the address and returns integer array that contains the token ids that have been staked by the user.\r\n    Parameters:\r\n    address: address of the person to whose address you want to mint the NFT.\r\n    Returns:\r\n    uint[]: an array containing all the tokenIds staked of that user.\r\n    *****/\r\n    function getAllStakedNFTFromAddress(\r\n        address _off\r\n    ) public view returns (uint256[] memory) {\r\n        return AllStakedNFT[_off];\r\n    }\r\n\r\n    /***** \r\n    getStakedNFTProp function, is used to return the stakedOn and StakedTill.\r\n    Parameters:\r\n    address: address of the person to whose address you want to mint the NFT.\r\n    _tokenId: id of the token whose information needs to be fetched.\r\n    Returns:\r\n    uint, uint\r\n    *****/\r\n    function getStakedNFTProp(\r\n        address _off,\r\n        uint256 _tokenId\r\n    ) public view returns (uint256, uint256) {\r\n        return (\r\n            StakedNFTs[_off][_tokenId]._stakedOn,\r\n            StakedNFTs[_off][_tokenId]._stakedTill\r\n        );\r\n    }\r\n\r\n    /*** @Contract Marketplace: **/\r\n\r\n    /****\r\n    viewMyNFTs function lists all the NFTs owned by the user.\r\n    Parameters:\r\n    address: of the user whose NFT tokenID you want to find.\r\n    Returns:\r\n    uint[]: token ids\r\n\r\n    ****/\r\n    //returns the tokenIDS of the user owned tokens.\r\n    function viewMyNFTS(address _off) public view returns (uint256[] memory) {\r\n        return viewAllTokens(_off);\r\n        // uint[] memory myNFTtokenIds = viewAllTokens(_off);\r\n    }\r\n\r\n    /****\r\n    availableToBuy function returns the total number of NFT's that this user have.\r\n    Parameters:\r\n    address: address of the user whose NFT count you want to know.\r\n    Returns:\r\n    uint: total number of tokens.\r\n    ****/\r\n    function myTotalNFTCount(address _off) public view returns (uint256) {\r\n        return viewMyNFTS(_off).length;\r\n    }\r\n\r\n    /****\r\n    viewMyStakedNFTs function returns the information along with staked properties and NFT properties.\r\n    Parameters:\r\n    address: address of the current user who is interacting (or can pass someone else's also).\r\n    Returns:\r\n    nftProp[]: which contains the Properties of the NFT.\r\n    stakeProp[]: Contains the staked Properties of the NFT.\r\n\r\n    ****/\r\n    //returns the information about the staked NFT.\r\n    //return information includes, nftProp[] and stakedProp[].\r\n    function viewMyStakedNFTs(\r\n        address _user\r\n    ) public view returns (nftProp[] memory, stakeProp[] memory) {\r\n        return viewUserStakedNFT(_user);\r\n    }\r\n\r\n    /****\r\n    forSell mapping maps the tokens which are listed for sell.\r\n    uint: tokenId=>True/False\r\n    ****/\r\n    mapping(uint256 => bool) forSell;\r\n\r\n    //array contians the tokenId's for easy size description.\r\n    uint256[] forSellArray;\r\n    /****\r\n    isNFTOwner Modifier checks wether the NFT exists or not?\r\n    and then checks if the current owner owns the token or not?\r\n    Parameters:\r\n    uint: tokenId\r\n    ****/\r\n    modifier isNFTOwner(uint256 _tokenId) {\r\n        if (_tokenId > 0) {\r\n            require(\r\n                _NFTExists[NFTs[_tokenId - 1]] == true,\r\n                \"NFT Doesn't exists.... Create NFT First\"\r\n            );\r\n        } else {\r\n            require(\r\n                _NFTExists[NFTs[_tokenId]] == true,\r\n                \"NFT Doesn't exists.... Create NFT First\"\r\n            );\r\n        }\r\n        //now check if the user has the tokenId...\r\n        bool counter = false;\r\n        uint256[] memory all = viewAllTokens(msg.sender);\r\n        for (uint256 i = 0; i < all.length; i += 1) {\r\n            if (all[i] == _tokenId) {\r\n                counter = true;\r\n            }\r\n        }\r\n        require(counter == true, \"Owner doesn't owns the token\");\r\n        _;\r\n    }\r\n\r\n    /****\r\n    availableToBuy function lists all the NFTs that can be bought. Or list of NFTs that users want to sell\r\n    Returns:\r\n    nftProp[]: which contains the Properties of the NFT.\r\n    uint[]: Contains the token Ids of the NFTs.\r\n    ****/\r\n\r\n    function availableToBuy()\r\n        public\r\n        view\r\n        returns (nftProp[] memory, uint256[] memory)\r\n    {\r\n        nftProp[] memory availableToBuyNFTsInformation = new nftProp[](\r\n            forSellArray.length\r\n        );\r\n        uint256[] memory availableToBuyNFTsTokenIds = new uint256[](\r\n            forSellArray.length\r\n        );\r\n        for (uint256 i = 0; i < forSellArray.length; i += 1) {\r\n            //return the nftprop structure for selling.\r\n            availableToBuyNFTsInformation[i] = NFTinfo[forSellArray[i]];\r\n            availableToBuyNFTsTokenIds[i] = forSellArray[i];\r\n        }\r\n        return (availableToBuyNFTsInformation, availableToBuyNFTsTokenIds);\r\n    }\r\n\r\n    /****\r\n    Bought mapping is used to check that how many NFT's has been sold.\r\n    Parameters:\r\n    uint: _tokenId id of the token\r\n    bool: true or false\r\n    \r\n    tokenId=>true/false\r\n    ****/\r\n    mapping(uint256 => bool) Bought;\r\n\r\n    /****\r\n    addForSell function adds a NFT into marketplace for selling. That is another person can buy that NFT.\r\n    Parameters:\r\n    uint: _tokenId id of the token\r\n    ****/\r\n    function addForSell(uint256 _tokenId) public isNFTOwner(_tokenId) {\r\n        //if it is a non transferrable NFT then it cannot be sold.\r\n        require(getNFTtype(_tokenId) != 4, \"Cannot Sell Non Transferable NFT\");\r\n        //check if the NFT is listed for selling already?\r\n        require(forSell[_tokenId] == false, \"Already Listed For Selling!!\");\r\n        forSell[_tokenId] = true;\r\n        forSellArray.push(_tokenId);\r\n    }\r\n\r\n    /****\r\n    removeFromSell function removes the NFT from Selling\r\n    Parameters:\r\n    uint: _tokenId id of the token\r\n    ****/\r\n    function removeFromSell(uint256 _tokenId) public isNFTOwner(_tokenId) {\r\n        //first make sure that hte NFT is not bought...\r\n        require(\r\n            Bought[_tokenId] == false,\r\n            \"Cannot remove from Selling, NFT is already sold...\"\r\n        );\r\n        //now check if it is listed for the sell?\r\n        require(forSell[_tokenId] == true, \"NFT is not listed for selling...\");\r\n        forSell[_tokenId] = false;\r\n        //now remove the nft from forSellArray too....\r\n        uint256 counter = 0;\r\n        for (uint256 i = 0; i < forSellArray.length; i += 1) {\r\n            //first swap, then pop\r\n            if (forSellArray[i] == _tokenId) {\r\n                counter = i;\r\n                break;\r\n            }\r\n        }\r\n        if (counter != forSellArray.length - 1) {\r\n            //swap\r\n            forSellArray[counter] = forSellArray[forSellArray.length - 1];\r\n            forSellArray.pop();\r\n        }\r\n        //  else {\r\n        //     forSellArray.pop();\r\n        // }\r\n    }\r\n\r\n    /****\r\n    buyNFT function is used to buy the NFT. Only those NFTs can be bought which are actually listed for selling.\r\n    Parameters:\r\n    uint: _tokenId id of the token\r\n    ****/\r\n    function buyNFT(uint256 _tokenId) public {\r\n        //check if the current user who is trying to buy is the same one as who listed the NFT for selling.\r\n        require(msg.sender != ownerOf(_tokenId), \"You cannot Buy Your Own NFT\");\r\n        //check if NFT is already biught or not?\r\n        require(Bought[_tokenId] == false, \"NFT Already Bought!!\");\r\n        //Check if NFT is available to sell or has it been removed.\r\n        require(forSell[_tokenId] == true, \"NFT removed from Selling\");\r\n        forSell[_tokenId] = false;\r\n        Bought[_tokenId] = true;\r\n        //now add this nft to user wallet. depending on what type of nft it is.\r\n        //also mark the previous owners mapping,\r\n\r\n        address tempUser = ownerOf(_tokenId);\r\n        uint256 num = getNFTtype(_tokenId);\r\n        if (num == 1) {\r\n            //remove from prevouis owner\r\n            uint256[] memory newTokens = removeNFTfromAddress(\r\n                _tokenId,\r\n                tempUser,\r\n                AllSpecialNFT[tempUser]\r\n            );\r\n            //push into new user\r\n            AllSpecialNFT[msg.sender].push(_tokenId);\r\n            //update mapping of old user.\r\n            AllSpecialNFT[tempUser] = newTokens;\r\n        } else if (num == 2) {\r\n            uint256[] memory newTokens = removeNFTfromAddress(\r\n                _tokenId,\r\n                tempUser,\r\n                AllPreLaunchNFT[tempUser]\r\n            );\r\n            AllPreLaunchNFT[msg.sender].push(_tokenId);\r\n            AllPreLaunchNFT[tempUser] = newTokens;\r\n        } else {\r\n            uint256[] memory newTokens = removeNFTfromAddress(\r\n                _tokenId,\r\n                tempUser,\r\n                AllGenericNFT[tempUser]\r\n            );\r\n            AllGenericNFT[msg.sender].push(_tokenId);\r\n            AllGenericNFT[tempUser] = newTokens;\r\n        }\r\n\r\n        previousOwners[_tokenId] += 1;\r\n\r\n        //after buying the nft it should also be removed from forSell array as the nft is sold......\r\n        bool shouldSwap = false;\r\n        uint256 counter = 0;\r\n        for (uint256 i = 0; i < forSellArray.length; i += 1) {\r\n            //return\r\n            if (forSellArray[i] == _tokenId) {\r\n                counter = i;\r\n                shouldSwap = true;\r\n                break;\r\n            }\r\n        }\r\n        if (shouldSwap) {\r\n            //swap\r\n            forSellArray[counter] = forSellArray[forSellArray.length - 1];\r\n            forSellArray.pop();\r\n        }\r\n    }\r\n\r\n    /****\r\n    removeNFTfromAddress function helps in transferring the NFT from one wallet to another and update the mapping in between the process.\r\n    It removes teh NFT From previous owners wallet.\r\n    Parameters:\r\n    uint: _tokenId id of the token\r\n    address: _tempUser address of the previous owner. (FOR CUSTOM CHECK ONLY..... NO USE)\r\n    uint[]: array of the tokens owned by the previous owner.\r\n    Returns:\r\n    uint[]: New modified sized array.\r\n    ****/\r\n    function removeNFTfromAddress(\r\n        uint256 _tokenId,\r\n        address _tempUser,\r\n        uint256[] memory tokensOwned\r\n    ) internal pure returns (uint256[] memory) {\r\n        uint256 counter = 0;\r\n        for (uint256 i = 0; i < tokensOwned.length; i += 1) {\r\n            //first swap, then pop\r\n            if (tokensOwned[i] == _tokenId) {\r\n                counter = i;\r\n                break;\r\n            }\r\n        }\r\n        if (counter != tokensOwned.length - 1) {\r\n            //swap\r\n            tokensOwned[counter] = tokensOwned[tokensOwned.length - 1];\r\n        }\r\n        //then pop\r\n        // delete tokensOwned[counter];\r\n        // tokensOwned.length--;\r\n        shrinkArray(tokensOwned, tokensOwned.length - 1);\r\n\r\n        return tokensOwned;\r\n    }\r\n\r\n    /****\r\n    shrinkArray function is a special fucntion which is created to change the size of teh array dynamically. \r\n    It is built so that while working with the arrays and want to reduce size of a particular array, just send the array along with the new size of the array. It will shrink the array from teh last.\r\n    Parameters:\r\n    array and new size of the array\r\n    Returns:\r\n    New modified sized array.\r\n\r\n\r\n    Because pop function in arrays is giving memory storage issue so created new function.\r\n    ****/\r\n    function shrinkArray(\r\n        uint256[] memory array,\r\n        uint256 newLength\r\n    ) internal pure returns (uint256[] memory) {\r\n        require(\r\n            newLength <= array.length,\r\n            \"Array: length after shrinking larger than before\"\r\n        );\r\n        /// @solidity memory-safe-assembly\r\n        assembly {\r\n            mstore(array, newLength)\r\n        }\r\n        return array;\r\n    }\r\n\r\n    //BURN FUNCTION, NEED TO MODIFY THE STATUS,\r\n    //CHANGE ALL THE OTHER MAPPING AND MAKKE SURE IT DOES NOT CLASHES WITH EXPIREABLE.\r\n\r\n    function burnMyToken(uint256 _tokenId, address _off) public returns (bool) {\r\n        require(\r\n            getNFTtype(_tokenId) != 4,\r\n            \"Cannot Burn A Non Transferable Token!!\"\r\n        );\r\n        if (ownerOf(_tokenId) == _off) {\r\n            _burn(_tokenId);\r\n            return true;\r\n        } else return false;\r\n    }\r\n\r\n    // We can do a simple thing, that is we can create a database for the current user only.\r\n    // In this database we will make sure that, it is for this user only and the timestamps.\r\n    // Listed will be checked with what is current time. If the time is passed, then we will\r\n    // Call the blockchain, and do the needful.\r\n    // Otherwise we will not do anything.\r\n    // We will do this so that the number of calls are reduced in the contract.\r\n\r\n    //simply call this function recursively whenever page is refreshed....\r\n    //reIssue the NFT for prelaunch. Like once the prelaunch nft timer goes off, then add a new nft based on the specs.\r\n    function reIssueNFTForPreLaunch(address _off) public {\r\n        uint[] memory userOwnedIds = AllPreLaunchNFT[_off];\r\n        for (uint i = 0; i < userOwnedIds.length; i++) {\r\n            if (ifTimeHasPassed(NFTinfo[userOwnedIds[i]].ExpireOn)) {\r\n                //generate a new special nft for the same\r\n                this._Special(\r\n                    NFTs[userOwnedIds[i]],\r\n                    NFTinfo[userOwnedIds[i]].minted,\r\n                    NFTinfo[userOwnedIds[i]].name,\r\n                    NFTinfo[userOwnedIds[i]].description,\r\n                    NFTinfo[userOwnedIds[i]].url,\r\n                    NFTinfo[userOwnedIds[i]].trxnHash,\r\n                    NFTinfo[userOwnedIds[i]].nftType,\r\n                    NFTinfo[userOwnedIds[i]].boughtOn,\r\n                    NFTinfo[userOwnedIds[i]].seller,\r\n                    NFTinfo[userOwnedIds[i]].ExpireOn,\r\n                    _off\r\n                );\r\n                //remove this nft form the prelaunch\r\n                userOwnedIds = removeNFTfromAddress(\r\n                    userOwnedIds[i],\r\n                    address(this),\r\n                    userOwnedIds\r\n                );\r\n                i--;\r\n            }\r\n        }\r\n        AllPreLaunchNFT[_off] = userOwnedIds;\r\n    }\r\n}\r\n",
  "sourcePath": "C:\\Users\\Neeraj\\Desktop\\Sterling Store\\src\\contracts\\NFT.sol",
  "compiler": {
    "name": "solc",
    "version": "0.8.20+commit.a1b79de6.Emscripten.clang"
  },
  "schemaVersion": "3.4.11",
  "updatedAt": "2023-05-21T13:19:53.108Z",
  "devdoc": {
    "events": {
      "Approval(address,address,uint256)": {
        "details": "Emitted when `owner` enables `approved` to manage the `tokenId` token."
      },
      "ApprovalForAll(address,address,bool)": {
        "details": "Emitted when `owner` enables or disables (`approved`) `operator` to manage all of its assets."
      },
      "Transfer(address,address,uint256)": {
        "details": "Emitted when `tokenId` token is transferred from `from` to `to`."
      }
    },
    "kind": "dev",
    "methods": {
      "approve(address,uint256)": {
        "details": "See {IERC721-approve}."
      },
      "balanceOf(address)": {
        "details": "See {IERC721-balanceOf}."
      },
      "getApproved(uint256)": {
        "details": "See {IERC721-getApproved}."
      },
      "isApprovedForAll(address,address)": {
        "details": "See {IERC721-isApprovedForAll}."
      },
      "name()": {
        "details": "See {IERC721Metadata-name}."
      },
      "ownerOf(uint256)": {
        "details": "See {IERC721-ownerOf}."
      },
      "safeTransferFrom(address,address,uint256)": {
        "details": "See {IERC721-safeTransferFrom}."
      },
      "safeTransferFrom(address,address,uint256,bytes)": {
        "details": "See {IERC721-safeTransferFrom}."
      },
      "setApprovalForAll(address,bool)": {
        "details": "See {IERC721-setApprovalForAll}."
      },
      "supportsInterface(bytes4)": {
        "details": "See {IERC165-supportsInterface}."
      },
      "symbol()": {
        "details": "See {IERC721Metadata-symbol}."
      },
      "tokenURI(uint256)": {
        "details": "See {IERC721Metadata-tokenURI}."
      },
      "transferFrom(address,address,uint256)": {
        "details": "See {IERC721-transferFrom}."
      }
    },
    "version": 1
  },
  "userdoc": {
    "kind": "user",
    "methods": {},
    "version": 1
  }
}