{
  "contractName": "NonTransferable",
  "abi": [
    {
      "anonymous": false,
      "inputs": [
        {
          "indexed": true,
          "internalType": "address",
          "name": "owner",
          "type": "address"
        },
        {
          "indexed": true,
          "internalType": "address",
          "name": "approved",
          "type": "address"
        },
        {
          "indexed": true,
          "internalType": "uint256",
          "name": "tokenId",
          "type": "uint256"
        }
      ],
      "name": "Approval",
      "type": "event"
    },
    {
      "anonymous": false,
      "inputs": [
        {
          "indexed": true,
          "internalType": "address",
          "name": "owner",
          "type": "address"
        },
        {
          "indexed": true,
          "internalType": "address",
          "name": "operator",
          "type": "address"
        },
        {
          "indexed": false,
          "internalType": "bool",
          "name": "approved",
          "type": "bool"
        }
      ],
      "name": "ApprovalForAll",
      "type": "event"
    },
    {
      "anonymous": false,
      "inputs": [
        {
          "indexed": true,
          "internalType": "address",
          "name": "previousOwner",
          "type": "address"
        },
        {
          "indexed": true,
          "internalType": "address",
          "name": "newOwner",
          "type": "address"
        }
      ],
      "name": "OwnershipTransferred",
      "type": "event"
    },
    {
      "anonymous": false,
      "inputs": [
        {
          "indexed": true,
          "internalType": "address",
          "name": "from",
          "type": "address"
        },
        {
          "indexed": true,
          "internalType": "address",
          "name": "to",
          "type": "address"
        },
        {
          "indexed": true,
          "internalType": "uint256",
          "name": "tokenId",
          "type": "uint256"
        }
      ],
      "name": "Transfer",
      "type": "event"
    },
    {
      "inputs": [],
      "name": "MAX_MINT_PER_TX",
      "outputs": [
        {
          "internalType": "uint256",
          "name": "",
          "type": "uint256"
        }
      ],
      "stateMutability": "view",
      "type": "function"
    },
    {
      "inputs": [],
      "name": "MAX_TOKENS",
      "outputs": [
        {
          "internalType": "uint256",
          "name": "",
          "type": "uint256"
        }
      ],
      "stateMutability": "view",
      "type": "function"
    },
    {
      "inputs": [
        {
          "internalType": "address",
          "name": "to",
          "type": "address"
        },
        {
          "internalType": "uint256",
          "name": "tokenId",
          "type": "uint256"
        }
      ],
      "name": "approve",
      "outputs": [],
      "stateMutability": "nonpayable",
      "type": "function"
    },
    {
      "inputs": [
        {
          "internalType": "address",
          "name": "owner",
          "type": "address"
        }
      ],
      "name": "balanceOf",
      "outputs": [
        {
          "internalType": "uint256",
          "name": "",
          "type": "uint256"
        }
      ],
      "stateMutability": "view",
      "type": "function"
    },
    {
      "inputs": [],
      "name": "baseExtesion",
      "outputs": [
        {
          "internalType": "string",
          "name": "",
          "type": "string"
        }
      ],
      "stateMutability": "view",
      "type": "function"
    },
    {
      "inputs": [],
      "name": "baseUri",
      "outputs": [
        {
          "internalType": "string",
          "name": "",
          "type": "string"
        }
      ],
      "stateMutability": "view",
      "type": "function"
    },
    {
      "inputs": [],
      "name": "flipSaleState",
      "outputs": [],
      "stateMutability": "nonpayable",
      "type": "function"
    },
    {
      "inputs": [
        {
          "internalType": "uint256",
          "name": "tokenId",
          "type": "uint256"
        }
      ],
      "name": "getApproved",
      "outputs": [
        {
          "internalType": "address",
          "name": "",
          "type": "address"
        }
      ],
      "stateMutability": "view",
      "type": "function"
    },
    {
      "inputs": [
        {
          "internalType": "address",
          "name": "owner",
          "type": "address"
        },
        {
          "internalType": "address",
          "name": "operator",
          "type": "address"
        }
      ],
      "name": "isApprovedForAll",
      "outputs": [
        {
          "internalType": "bool",
          "name": "",
          "type": "bool"
        }
      ],
      "stateMutability": "view",
      "type": "function"
    },
    {
      "inputs": [],
      "name": "isSaleActive",
      "outputs": [
        {
          "internalType": "bool",
          "name": "",
          "type": "bool"
        }
      ],
      "stateMutability": "view",
      "type": "function"
    },
    {
      "inputs": [
        {
          "internalType": "uint256",
          "name": "_numTokens",
          "type": "uint256"
        }
      ],
      "name": "mint",
      "outputs": [],
      "stateMutability": "payable",
      "type": "function"
    },
    {
      "inputs": [],
      "name": "name",
      "outputs": [
        {
          "internalType": "string",
          "name": "",
          "type": "string"
        }
      ],
      "stateMutability": "view",
      "type": "function"
    },
    {
      "inputs": [],
      "name": "owner",
      "outputs": [
        {
          "internalType": "address",
          "name": "",
          "type": "address"
        }
      ],
      "stateMutability": "view",
      "type": "function"
    },
    {
      "inputs": [
        {
          "internalType": "uint256",
          "name": "tokenId",
          "type": "uint256"
        }
      ],
      "name": "ownerOf",
      "outputs": [
        {
          "internalType": "address",
          "name": "",
          "type": "address"
        }
      ],
      "stateMutability": "view",
      "type": "function"
    },
    {
      "inputs": [],
      "name": "price",
      "outputs": [
        {
          "internalType": "uint256",
          "name": "",
          "type": "uint256"
        }
      ],
      "stateMutability": "view",
      "type": "function"
    },
    {
      "inputs": [],
      "name": "renounceOwnership",
      "outputs": [],
      "stateMutability": "nonpayable",
      "type": "function"
    },
    {
      "inputs": [
        {
          "internalType": "address",
          "name": "from",
          "type": "address"
        },
        {
          "internalType": "address",
          "name": "to",
          "type": "address"
        },
        {
          "internalType": "uint256",
          "name": "tokenId",
          "type": "uint256"
        }
      ],
      "name": "safeTransferFrom",
      "outputs": [],
      "stateMutability": "nonpayable",
      "type": "function"
    },
    {
      "inputs": [
        {
          "internalType": "address",
          "name": "from",
          "type": "address"
        },
        {
          "internalType": "address",
          "name": "to",
          "type": "address"
        },
        {
          "internalType": "uint256",
          "name": "tokenId",
          "type": "uint256"
        },
        {
          "internalType": "bytes",
          "name": "data",
          "type": "bytes"
        }
      ],
      "name": "safeTransferFrom",
      "outputs": [],
      "stateMutability": "nonpayable",
      "type": "function"
    },
    {
      "inputs": [
        {
          "internalType": "address",
          "name": "operator",
          "type": "address"
        },
        {
          "internalType": "bool",
          "name": "approved",
          "type": "bool"
        }
      ],
      "name": "setApprovalForAll",
      "outputs": [],
      "stateMutability": "nonpayable",
      "type": "function"
    },
    {
      "inputs": [
        {
          "internalType": "string",
          "name": "_baseUri",
          "type": "string"
        }
      ],
      "name": "setBaseUri",
      "outputs": [],
      "stateMutability": "nonpayable",
      "type": "function"
    },
    {
      "inputs": [
        {
          "internalType": "uint256",
          "name": "_price",
          "type": "uint256"
        }
      ],
      "name": "setPrice",
      "outputs": [],
      "stateMutability": "nonpayable",
      "type": "function"
    },
    {
      "inputs": [
        {
          "internalType": "bytes4",
          "name": "interfaceId",
          "type": "bytes4"
        }
      ],
      "name": "supportsInterface",
      "outputs": [
        {
          "internalType": "bool",
          "name": "",
          "type": "bool"
        }
      ],
      "stateMutability": "view",
      "type": "function"
    },
    {
      "inputs": [],
      "name": "symbol",
      "outputs": [
        {
          "internalType": "string",
          "name": "",
          "type": "string"
        }
      ],
      "stateMutability": "view",
      "type": "function"
    },
    {
      "inputs": [
        {
          "internalType": "uint256",
          "name": "tokenId",
          "type": "uint256"
        }
      ],
      "name": "tokenURI",
      "outputs": [
        {
          "internalType": "string",
          "name": "",
          "type": "string"
        }
      ],
      "stateMutability": "view",
      "type": "function"
    },
    {
      "inputs": [],
      "name": "totalSupply",
      "outputs": [
        {
          "internalType": "uint256",
          "name": "",
          "type": "uint256"
        }
      ],
      "stateMutability": "view",
      "type": "function"
    },
    {
      "inputs": [
        {
          "internalType": "address",
          "name": "from",
          "type": "address"
        },
        {
          "internalType": "address",
          "name": "to",
          "type": "address"
        },
        {
          "internalType": "uint256",
          "name": "tokenId",
          "type": "uint256"
        }
      ],
      "name": "transferFrom",
      "outputs": [],
      "stateMutability": "nonpayable",
      "type": "function"
    },
    {
      "inputs": [
        {
          "internalType": "address",
          "name": "newOwner",
          "type": "address"
        }
      ],
      "name": "transferOwnership",
      "outputs": [],
      "stateMutability": "nonpayable",
      "type": "function"
    },
    {
      "inputs": [],
      "name": "withdrawAll",
      "outputs": [],
      "stateMutability": "payable",
      "type": "function"
    }
  ],
  "bytecode": "0x608060405267016345785d8a00006008556040518060400160405280600581526020017f2e6a736f6e000000000000000000000000000000000000000000000000000000815250600d908162000056919062000be1565b503480156200006457600080fd5b506040518060400160405280600881526020017f4e4654204e616d650000000000000000000000000000000000000000000000008152506040518060400160405280600681526020017f53594d424f4c00000000000000000000000000000000000000000000000000008152508160009081620000e2919062000be1565b508060019081620000f4919062000be1565b5050506200012962000114620001a2640100000000026401000000009004565b620001aa640100000000026401000000009004565b60405180606001604052806025815260200162004b6660259139600c908162000153919062000be1565b506000600190505b6005811162000193576200017f338262000270640100000000026401000000009004565b806200018b9062000cf7565b90506200015b565b506005600a819055506200111f565b600033905090565b6000600660009054906101000a900473ffffffffffffffffffffffffffffffffffffffff16905081600660006101000a81548173ffffffffffffffffffffffffffffffffffffffff021916908373ffffffffffffffffffffffffffffffffffffffff1602179055508173ffffffffffffffffffffffffffffffffffffffff168173ffffffffffffffffffffffffffffffffffffffff167f8be0079c531659141344cd1fd0a4f28419497f9722a3daafe3b4186f6b6457e060405160405180910390a35050565b6200029b8282604051806020016040528060008152506200029f640100000000026401000000009004565b5050565b620002ba83836200031f640100000000026401000000009004565b620002d8600084848462000589640100000000026401000000009004565b6200031a576040517f08c379a0000000000000000000000000000000000000000000000000000000008152600401620003119062000dcb565b60405180910390fd5b505050565b600073ffffffffffffffffffffffffffffffffffffffff168273ffffffffffffffffffffffffffffffffffffffff160362000391576040517f08c379a0000000000000000000000000000000000000000000000000000000008152600401620003889062000e3d565b60405180910390fd5b620003ab816200077c640100000000026401000000009004565b15620003ee576040517f08c379a0000000000000000000000000000000000000000000000000000000008152600401620003e59062000eaf565b60405180910390fd5b6200040d600083836001620007ce640100000000026401000000009004565b62000427816200077c640100000000026401000000009004565b156200046a576040517f08c379a0000000000000000000000000000000000000000000000000000000008152600401620004619062000eaf565b60405180910390fd5b6001600360008473ffffffffffffffffffffffffffffffffffffffff1673ffffffffffffffffffffffffffffffffffffffff16815260200190815260200160002060008282540192505081905550816002600083815260200190815260200160002060006101000a81548173ffffffffffffffffffffffffffffffffffffffff021916908373ffffffffffffffffffffffffffffffffffffffff160217905550808273ffffffffffffffffffffffffffffffffffffffff16600073ffffffffffffffffffffffffffffffffffffffff167fddf252ad1be2c89b69c2b068fc378daa952ba7f163c4a11628f55a4df523b3ef60405160405180910390a462000585600083836001620008fb640100000000026401000000009004565b5050565b6000620005c08473ffffffffffffffffffffffffffffffffffffffff166200090164010000000002620013ab176401000000009004565b156200076f578373ffffffffffffffffffffffffffffffffffffffff1663150b7a02620005fb620001a2640100000000026401000000009004565b8786866040518563ffffffff167c01000000000000000000000000000000000000000000000000000000000281526004016200063b949392919062000fc1565b6020604051808303816000875af19250505080156200067a57506040513d601f19601f8201168201806040525081019062000677919062001077565b60015b62000702573d8060008114620006ad576040519150601f19603f3d011682016040523d82523d6000602084013e620006b2565b606091505b506000815103620006fa576040517f08c379a0000000000000000000000000000000000000000000000000000000008152600401620006f19062000dcb565b60405180910390fd5b805181602001fd5b63150b7a027c0100000000000000000000000000000000000000000000000000000000027bffffffffffffffffffffffffffffffffffffffffffffffffffffffff1916817bffffffffffffffffffffffffffffffffffffffffffffffffffffffff19161491505062000774565b600190505b949350505050565b60008073ffffffffffffffffffffffffffffffffffffffff16620007af8362000924640100000000026401000000009004565b73ffffffffffffffffffffffffffffffffffffffff1614159050919050565b6001811115620008f557600073ffffffffffffffffffffffffffffffffffffffff168473ffffffffffffffffffffffffffffffffffffffff1614620008665780600360008673ffffffffffffffffffffffffffffffffffffffff1673ffffffffffffffffffffffffffffffffffffffff16815260200190815260200160002060008282546200085e9190620010a9565b925050819055505b600073ffffffffffffffffffffffffffffffffffffffff168373ffffffffffffffffffffffffffffffffffffffff1614620008f45780600360008573ffffffffffffffffffffffffffffffffffffffff1673ffffffffffffffffffffffffffffffffffffffff1681526020019081526020016000206000828254620008ec9190620010e4565b925050819055505b5b50505050565b50505050565b6000808273ffffffffffffffffffffffffffffffffffffffff163b119050919050565b60006002600083815260200190815260200160002060009054906101000a900473ffffffffffffffffffffffffffffffffffffffff169050919050565b600081519050919050565b7f4e487b7100000000000000000000000000000000000000000000000000000000600052604160045260246000fd5b7f4e487b7100000000000000000000000000000000000000000000000000000000600052602260045260246000fd5b60006002820490506001821680620009e357607f821691505b602082108103620009f957620009f86200099b565b5b50919050565b60008190508160005260206000209050919050565b60006020601f8301049050919050565b60008160020a8302905092915050565b60006008830262000a667fffffffffffffffffffffffffffffffffffffffffffffffffffffffffffffffff8262000a24565b62000a72868362000a24565b95508019841693508086168417925050509392505050565b6000819050919050565b6000819050919050565b600062000abf62000ab962000ab38462000a8a565b62000a94565b62000a8a565b9050919050565b6000819050919050565b62000adb8362000a9e565b62000af362000aea8262000ac6565b84845462000a34565b825550505050565b600090565b62000b0a62000afb565b62000b1781848462000ad0565b505050565b5b8181101562000b3f5762000b3360008262000b00565b60018101905062000b1d565b5050565b601f82111562000b8e5762000b5881620009ff565b62000b638462000a14565b8101602085101562000b73578190505b62000b8b62000b828562000a14565b83018262000b1c565b50505b505050565b60008160020a8304905092915050565b600062000bb66000198460080262000b93565b1980831691505092915050565b600062000bd1838362000ba3565b9150826002028217905092915050565b62000bec8262000961565b67ffffffffffffffff81111562000c085762000c076200096c565b5b62000c148254620009ca565b62000c2182828562000b43565b600060209050601f83116001811462000c59576000841562000c44578287015190505b62000c50858262000bc3565b86555062000cc0565b601f19841662000c6986620009ff565b60005b8281101562000c935784890151825560018201915060208501945060208101905062000c6c565b8683101562000cb3578489015162000caf601f89168262000ba3565b8355505b6001600288020188555050505b505050505050565b7f4e487b7100000000000000000000000000000000000000000000000000000000600052601160045260246000fd5b600062000d048262000a8a565b91507fffffffffffffffffffffffffffffffffffffffffffffffffffffffffffffffff820362000d395762000d3862000cc8565b5b600182019050919050565b600082825260208201905092915050565b7f4552433732313a207472616e7366657220746f206e6f6e20455243373231526560008201527f63656976657220696d706c656d656e7465720000000000000000000000000000602082015250565b600062000db360328362000d44565b915062000dc08262000d55565b604082019050919050565b6000602082019050818103600083015262000de68162000da4565b9050919050565b7f4552433732313a206d696e7420746f20746865207a65726f2061646472657373600082015250565b600062000e2560208362000d44565b915062000e328262000ded565b602082019050919050565b6000602082019050818103600083015262000e588162000e16565b9050919050565b7f4552433732313a20746f6b656e20616c7265616479206d696e74656400000000600082015250565b600062000e97601c8362000d44565b915062000ea48262000e5f565b602082019050919050565b6000602082019050818103600083015262000eca8162000e88565b9050919050565b600073ffffffffffffffffffffffffffffffffffffffff82169050919050565b600062000efe8262000ed1565b9050919050565b62000f108162000ef1565b82525050565b62000f218162000a8a565b82525050565b600081519050919050565b600082825260208201905092915050565b60005b8381101562000f6357808201518184015260208101905062000f46565b60008484015250505050565b6000601f19601f8301169050919050565b600062000f8d8262000f27565b62000f99818562000f32565b935062000fab81856020860162000f43565b62000fb68162000f6f565b840191505092915050565b600060808201905062000fd8600083018762000f05565b62000fe7602083018662000f05565b62000ff6604083018562000f16565b81810360608301526200100a818462000f80565b905095945050505050565b600080fd5b60007fffffffff0000000000000000000000000000000000000000000000000000000082169050919050565b62001051816200101a565b81146200105d57600080fd5b50565b600081519050620010718162001046565b92915050565b60006020828403121562001090576200108f62001015565b5b6000620010a08482850162001060565b91505092915050565b6000620010b68262000a8a565b9150620010c38362000a8a565b9250828203905081811115620010de57620010dd62000cc8565b5b92915050565b6000620010f18262000a8a565b9150620010fe8362000a8a565b925082820190508082111562001119576200111862000cc8565b5b92915050565b613a37806200112f6000396000f3fe6080604052600436106101d4576000357c0100000000000000000000000000000000000000000000000000000000900480638ecad72111610109578063a22cb465116100a7578063d6960ffb11610081578063d6960ffb146105d5578063e985e9c514610600578063f2fde38b1461063d578063f47c84c514610666576101d4565b8063a22cb46514610546578063b88d4fde1461056f578063c87b56dd14610598576101d4565b80639abc8320116100e35780639abc8320146104ab578063a035b1fe146104d6578063a0712d6814610501578063a0bcfc7f1461051d576101d4565b80638ecad7211461042c57806391b7f5ed1461045757806395d89b4114610480576101d4565b806342842e0e1161017657806370a082311161015057806370a08231146103a3578063715018a6146103e0578063853828b6146103f75780638da5cb5b14610401576101d4565b806342842e0e14610312578063564566a81461033b5780636352211e14610366576101d4565b8063095ea7b3116101b2578063095ea7b31461027e57806318160ddd146102a757806323b872dd146102d257806334918dfd146102fb576101d4565b806301ffc9a7146101d957806306fdde0314610216578063081812fc14610241575b600080fd5b3480156101e557600080fd5b5061020060048036038101906101fb9190612481565b610691565b60405161020d91906124c9565b60405180910390f35b34801561022257600080fd5b5061022b610773565b6040516102389190612574565b60405180910390f35b34801561024d57600080fd5b50610268600480360381019061026391906125cc565b610805565b604051610275919061263a565b60405180910390f35b34801561028a57600080fd5b506102a560048036038101906102a09190612681565b61084b565b005b3480156102b357600080fd5b506102bc610962565b6040516102c991906126d0565b60405180910390f35b3480156102de57600080fd5b506102f960048036038101906102f491906126eb565b610968565b005b34801561030757600080fd5b506103106109c8565b005b34801561031e57600080fd5b50610339600480360381019061033491906126eb565b6109fc565b005b34801561034757600080fd5b50610350610a1c565b60405161035d91906124c9565b60405180910390f35b34801561037257600080fd5b5061038d600480360381019061038891906125cc565b610a2f565b60405161039a919061263a565b60405180910390f35b3480156103af57600080fd5b506103ca60048036038101906103c5919061273e565b610ab5565b6040516103d791906126d0565b60405180910390f35b3480156103ec57600080fd5b506103f5610b6c565b005b6103ff610b80565b005b34801561040d57600080fd5b50610416610d2e565b604051610423919061263a565b60405180910390f35b34801561043857600080fd5b50610441610d58565b60405161044e91906126d0565b60405180910390f35b34801561046357600080fd5b5061047e600480360381019061047991906125cc565b610d5d565b005b34801561048c57600080fd5b50610495610d6f565b6040516104a29190612574565b60405180910390f35b3480156104b757600080fd5b506104c0610e01565b6040516104cd9190612574565b60405180910390f35b3480156104e257600080fd5b506104eb610e8f565b6040516104f891906126d0565b60405180910390f35b61051b600480360381019061051691906125cc565b610e95565b005b34801561052957600080fd5b50610544600480360381019061053f91906128a0565b611105565b005b34801561055257600080fd5b5061056d60048036038101906105689190612915565b611120565b005b34801561057b57600080fd5b50610596600480360381019061059191906129f6565b611136565b005b3480156105a457600080fd5b506105bf60048036038101906105ba91906125cc565b611198565b6040516105cc9190612574565b60405180910390f35b3480156105e157600080fd5b506105ea611200565b6040516105f79190612574565b60405180910390f35b34801561060c57600080fd5b5061062760048036038101906106229190612a79565b61128e565b60405161063491906124c9565b60405180910390f35b34801561064957600080fd5b50610664600480360381019061065f919061273e565b611322565b005b34801561067257600080fd5b5061067b6113a5565b60405161068891906126d0565b60405180910390f35b60007f80ac58cd000000000000000000000000000000000000000000000000000000007bffffffffffffffffffffffffffffffffffffffffffffffffffffffff1916827bffffffffffffffffffffffffffffffffffffffffffffffffffffffff1916148061075c57507f5b5e139f000000000000000000000000000000000000000000000000000000007bffffffffffffffffffffffffffffffffffffffffffffffffffffffff1916827bffffffffffffffffffffffffffffffffffffffffffffffffffffffff1916145b8061076c575061076b826113ce565b5b9050919050565b60606000805461078290612ae8565b80601f01602080910402602001604051908101604052809291908181526020018280546107ae90612ae8565b80156107fb5780601f106107d0576101008083540402835291602001916107fb565b820191906000526020600020905b8154815290600101906020018083116107de57829003601f168201915b5050505050905090565b600061081082611438565b6004600083815260200190815260200160002060009054906101000a900473ffffffffffffffffffffffffffffffffffffffff169050919050565b600061085682610a2f565b90508073ffffffffffffffffffffffffffffffffffffffff168373ffffffffffffffffffffffffffffffffffffffff16036108c6576040517f08c379a00000000000000000000000000000000000000000000000000000000081526004016108bd90612b8b565b60405180910390fd5b8073ffffffffffffffffffffffffffffffffffffffff166108e5611483565b73ffffffffffffffffffffffffffffffffffffffff16148061091457506109138161090e611483565b61128e565b5b610953576040517f08c379a000000000000000000000000000000000000000000000000000000000815260040161094a90612c1d565b60405180910390fd5b61095d838361148b565b505050565b600a5481565b610979610973611483565b82611544565b6109b8576040517f08c379a00000000000000000000000000000000000000000000000000000000081526004016109af90612caf565b60405180910390fd5b6109c38383836115d9565b505050565b6109d06118d2565b600960009054906101000a900460ff1615600960006101000a81548160ff021916908315150217905550565b610a1783838360405180602001604052806000815250611136565b505050565b600960009054906101000a900460ff1681565b600080610a3b83611950565b9050600073ffffffffffffffffffffffffffffffffffffffff168173ffffffffffffffffffffffffffffffffffffffff1603610aac576040517f08c379a0000000000000000000000000000000000000000000000000000000008152600401610aa390612d1b565b60405180910390fd5b80915050919050565b60008073ffffffffffffffffffffffffffffffffffffffff168273ffffffffffffffffffffffffffffffffffffffff1603610b25576040517f08c379a0000000000000000000000000000000000000000000000000000000008152600401610b1c90612dad565b60405180910390fd5b600360008373ffffffffffffffffffffffffffffffffffffffff1673ffffffffffffffffffffffffffffffffffffffff168152602001908152602001600020549050919050565b610b746118d2565b610b7e600061198d565b565b610b886118d2565b60003073ffffffffffffffffffffffffffffffffffffffff1631905060006064604683610bb59190612dfc565b610bbf9190612e6d565b905060006064601e84610bd29190612dfc565b610bdc9190612e6d565b90506000737ceb3caf7ca83d837f9d04c59f41a92c1dc71c7d73ffffffffffffffffffffffffffffffffffffffff1683604051610c1890612ecf565b60006040518083038185875af1925050503d8060008114610c55576040519150601f19603f3d011682016040523d82523d6000602084013e610c5a565b606091505b505090506000737ceb3caf7ca83d837f9d04c59f41a92c1dc71c7d73ffffffffffffffffffffffffffffffffffffffff1683604051610c9890612ecf565b60006040518083038185875af1925050503d8060008114610cd5576040519150601f19603f3d011682016040523d82523d6000602084013e610cda565b606091505b50509050818015610ce85750805b610d27576040517f08c379a0000000000000000000000000000000000000000000000000000000008152600401610d1e90612f30565b60405180910390fd5b5050505050565b6000600660009054906101000a900473ffffffffffffffffffffffffffffffffffffffff16905090565b600a81565b610d656118d2565b8060088190555050565b606060018054610d7e90612ae8565b80601f0160208091040260200160405190810160405280929190818152602001828054610daa90612ae8565b8015610df75780601f10610dcc57610100808354040283529160200191610df7565b820191906000526020600020905b815481529060010190602001808311610dda57829003601f168201915b5050505050905090565b600c8054610e0e90612ae8565b80601f0160208091040260200160405190810160405280929190818152602001828054610e3a90612ae8565b8015610e875780601f10610e5c57610100808354040283529160200191610e87565b820191906000526020600020905b815481529060010190602001808311610e6a57829003601f168201915b505050505081565b60085481565b600960009054906101000a900460ff16610ee4576040517f08c379a0000000000000000000000000000000000000000000000000000000008152600401610edb90612f9c565b60405180910390fd5b600a811115610f28576040517f08c379a0000000000000000000000000000000000000000000000000000000008152600401610f1f9061302e565b60405180910390fd5b600a81600b60003373ffffffffffffffffffffffffffffffffffffffff1673ffffffffffffffffffffffffffffffffffffffff16815260200190815260200160002054610f75919061304e565b1115610fb6576040517f08c379a0000000000000000000000000000000000000000000000000000000008152600401610fad906130ce565b60405180910390fd5b6000600a5490506127108282610fcc919061304e565b111561100d576040517f08c379a00000000000000000000000000000000000000000000000000000000081526004016110049061313a565b60405180910390fd5b346008548361101c9190612dfc565b111561105d576040517f08c379a0000000000000000000000000000000000000000000000000000000008152600401611054906131a6565b60405180910390fd5b6000600190505b8281116110915761108033828461107b919061304e565b611a53565b8061108a906131c6565b9050611064565b5081600b60003373ffffffffffffffffffffffffffffffffffffffff1673ffffffffffffffffffffffffffffffffffffffff16815260200190815260200160002060008282546110e1919061304e565b9250508190555081600a60008282546110fa919061304e565b925050819055505050565b61110d6118d2565b80600c908161111c91906133c0565b5050565b61113261112b611483565b8383611a71565b5050565b611147611141611483565b83611544565b611186576040517f08c379a000000000000000000000000000000000000000000000000000000000815260040161117d90612caf565b60405180910390fd5b61119284848484611bdd565b50505050565b60606111a382611438565b60006111ad611c39565b905060008151116111cd57604051806020016040528060008152506111f8565b806111d784611c50565b6040516020016111e89291906134ce565b6040516020818303038152906040525b915050919050565b600d805461120d90612ae8565b80601f016020809104026020016040519081016040528092919081815260200182805461123990612ae8565b80156112865780601f1061125b57610100808354040283529160200191611286565b820191906000526020600020905b81548152906001019060200180831161126957829003601f168201915b505050505081565b6000600560008473ffffffffffffffffffffffffffffffffffffffff1673ffffffffffffffffffffffffffffffffffffffff16815260200190815260200160002060008373ffffffffffffffffffffffffffffffffffffffff1673ffffffffffffffffffffffffffffffffffffffff16815260200190815260200160002060009054906101000a900460ff16905092915050565b61132a6118d2565b600073ffffffffffffffffffffffffffffffffffffffff168173ffffffffffffffffffffffffffffffffffffffff1603611399576040517f08c379a000000000000000000000000000000000000000000000000000000000815260040161139090613564565b60405180910390fd5b6113a28161198d565b50565b61271081565b6000808273ffffffffffffffffffffffffffffffffffffffff163b119050919050565b60007f01ffc9a7000000000000000000000000000000000000000000000000000000007bffffffffffffffffffffffffffffffffffffffffffffffffffffffff1916827bffffffffffffffffffffffffffffffffffffffffffffffffffffffff1916149050919050565b61144181611d1e565b611480576040517f08c379a000000000000000000000000000000000000000000000000000000000815260040161147790612d1b565b60405180910390fd5b50565b600033905090565b816004600083815260200190815260200160002060006101000a81548173ffffffffffffffffffffffffffffffffffffffff021916908373ffffffffffffffffffffffffffffffffffffffff160217905550808273ffffffffffffffffffffffffffffffffffffffff166114fe83610a2f565b73ffffffffffffffffffffffffffffffffffffffff167f8c5be1e5ebec7d5bd14f71427d1e84f3dd0314c0f7b2291e5b200ac8c7c3b92560405160405180910390a45050565b60008061155083610a2f565b90508073ffffffffffffffffffffffffffffffffffffffff168473ffffffffffffffffffffffffffffffffffffffff1614806115925750611591818561128e565b5b806115d057508373ffffffffffffffffffffffffffffffffffffffff166115b884610805565b73ffffffffffffffffffffffffffffffffffffffff16145b91505092915050565b8273ffffffffffffffffffffffffffffffffffffffff166115f982610a2f565b73ffffffffffffffffffffffffffffffffffffffff161461164f576040517f08c379a0000000000000000000000000000000000000000000000000000000008152600401611646906135f6565b60405180910390fd5b600073ffffffffffffffffffffffffffffffffffffffff168273ffffffffffffffffffffffffffffffffffffffff16036116be576040517f08c379a00000000000000000000000000000000000000000000000000000000081526004016116b590613688565b60405180910390fd5b6116cb8383836001611d5f565b8273ffffffffffffffffffffffffffffffffffffffff166116eb82610a2f565b73ffffffffffffffffffffffffffffffffffffffff1614611741576040517f08c379a0000000000000000000000000000000000000000000000000000000008152600401611738906135f6565b60405180910390fd5b6004600082815260200190815260200160002060006101000a81549073ffffffffffffffffffffffffffffffffffffffff02191690556001600360008573ffffffffffffffffffffffffffffffffffffffff1673ffffffffffffffffffffffffffffffffffffffff168152602001908152602001600020600082825403925050819055506001600360008473ffffffffffffffffffffffffffffffffffffffff1673ffffffffffffffffffffffffffffffffffffffff16815260200190815260200160002060008282540192505081905550816002600083815260200190815260200160002060006101000a81548173ffffffffffffffffffffffffffffffffffffffff021916908373ffffffffffffffffffffffffffffffffffffffff160217905550808273ffffffffffffffffffffffffffffffffffffffff168473ffffffffffffffffffffffffffffffffffffffff167fddf252ad1be2c89b69c2b068fc378daa952ba7f163c4a11628f55a4df523b3ef60405160405180910390a46118cd8383836001611e85565b505050565b6118da611483565b73ffffffffffffffffffffffffffffffffffffffff166118f8610d2e565b73ffffffffffffffffffffffffffffffffffffffff161461194e576040517f08c379a0000000000000000000000000000000000000000000000000000000008152600401611945906136f4565b60405180910390fd5b565b60006002600083815260200190815260200160002060009054906101000a900473ffffffffffffffffffffffffffffffffffffffff169050919050565b6000600660009054906101000a900473ffffffffffffffffffffffffffffffffffffffff16905081600660006101000a81548173ffffffffffffffffffffffffffffffffffffffff021916908373ffffffffffffffffffffffffffffffffffffffff1602179055508173ffffffffffffffffffffffffffffffffffffffff168173ffffffffffffffffffffffffffffffffffffffff167f8be0079c531659141344cd1fd0a4f28419497f9722a3daafe3b4186f6b6457e060405160405180910390a35050565b611a6d828260405180602001604052806000815250611e8b565b5050565b8173ffffffffffffffffffffffffffffffffffffffff168373ffffffffffffffffffffffffffffffffffffffff1603611adf576040517f08c379a0000000000000000000000000000000000000000000000000000000008152600401611ad690613760565b60405180910390fd5b80600560008573ffffffffffffffffffffffffffffffffffffffff1673ffffffffffffffffffffffffffffffffffffffff16815260200190815260200160002060008473ffffffffffffffffffffffffffffffffffffffff1673ffffffffffffffffffffffffffffffffffffffff16815260200190815260200160002060006101000a81548160ff0219169083151502179055508173ffffffffffffffffffffffffffffffffffffffff168373ffffffffffffffffffffffffffffffffffffffff167f17307eab39ab6107e8899845ad3d59bd9653f200f220920489ca2b5937696c3183604051611bd091906124c9565b60405180910390a3505050565b611be88484846115d9565b611bf484848484611ee6565b611c33576040517f08c379a0000000000000000000000000000000000000000000000000000000008152600401611c2a906137f2565b60405180910390fd5b50505050565b606060405180602001604052806000815250905090565b606060006001611c5f846120a5565b01905060008167ffffffffffffffff811115611c7e57611c7d612775565b5b6040519080825280601f01601f191660200182016040528015611cb05781602001600182028036833780820191505090505b509050600082602001820190505b600115611d13578080600190039150507f3031323334353637383961626364656600000000000000000000000000000000600a86061a8153600a8581611d0757611d06612e3e565b5b04945060008503611cbe575b819350505050919050565b60008073ffffffffffffffffffffffffffffffffffffffff16611d4083611950565b73ffffffffffffffffffffffffffffffffffffffff1614159050919050565b6001811115611e7f57600073ffffffffffffffffffffffffffffffffffffffff168473ffffffffffffffffffffffffffffffffffffffff1614611df35780600360008673ffffffffffffffffffffffffffffffffffffffff1673ffffffffffffffffffffffffffffffffffffffff1681526020019081526020016000206000828254611deb9190613812565b925050819055505b600073ffffffffffffffffffffffffffffffffffffffff168373ffffffffffffffffffffffffffffffffffffffff1614611e7e5780600360008573ffffffffffffffffffffffffffffffffffffffff1673ffffffffffffffffffffffffffffffffffffffff1681526020019081526020016000206000828254611e76919061304e565b925050819055505b5b50505050565b50505050565b611e9583836121f8565b611ea26000848484611ee6565b611ee1576040517f08c379a0000000000000000000000000000000000000000000000000000000008152600401611ed8906137f2565b60405180910390fd5b505050565b6000611f078473ffffffffffffffffffffffffffffffffffffffff166113ab565b15612098578373ffffffffffffffffffffffffffffffffffffffff1663150b7a02611f30611483565b8786866040518563ffffffff167c0100000000000000000000000000000000000000000000000000000000028152600401611f6e949392919061389b565b6020604051808303816000875af1925050508015611faa57506040513d601f19601f82011682018060405250810190611fa791906138fc565b60015b61202c573d8060008114611fda576040519150601f19603f3d011682016040523d82523d6000602084013e611fdf565b606091505b506000815103612024576040517f08c379a000000000000000000000000000000000000000000000000000000000815260040161201b906137f2565b60405180910390fd5b805181602001fd5b63150b7a027c0100000000000000000000000000000000000000000000000000000000027bffffffffffffffffffffffffffffffffffffffffffffffffffffffff1916817bffffffffffffffffffffffffffffffffffffffffffffffffffffffff19161491505061209d565b600190505b949350505050565b600080600090507a184f03e93ff9f4daa797ed6e38ed64bf6a1f0100000000000000008310612103577a184f03e93ff9f4daa797ed6e38ed64bf6a1f01000000000000000083816120f9576120f8612e3e565b5b0492506040810190505b6d04ee2d6d415b85acef81000000008310612140576d04ee2d6d415b85acef8100000000838161213657612135612e3e565b5b0492506020810190505b662386f26fc10000831061216f57662386f26fc10000838161216557612164612e3e565b5b0492506010810190505b6305f5e1008310612198576305f5e100838161218e5761218d612e3e565b5b0492506008810190505b61271083106121bd5761271083816121b3576121b2612e3e565b5b0492506004810190505b606483106121e057606483816121d6576121d5612e3e565b5b0492506002810190505b600a83106121ef576001810190505b80915050919050565b600073ffffffffffffffffffffffffffffffffffffffff168273ffffffffffffffffffffffffffffffffffffffff1603612267576040517f08c379a000000000000000000000000000000000000000000000000000000000815260040161225e90613975565b60405180910390fd5b61227081611d1e565b156122b0576040517f08c379a00000000000000000000000000000000000000000000000000000000081526004016122a7906139e1565b60405180910390fd5b6122be600083836001611d5f565b6122c781611d1e565b15612307576040517f08c379a00000000000000000000000000000000000000000000000000000000081526004016122fe906139e1565b60405180910390fd5b6001600360008473ffffffffffffffffffffffffffffffffffffffff1673ffffffffffffffffffffffffffffffffffffffff16815260200190815260200160002060008282540192505081905550816002600083815260200190815260200160002060006101000a81548173ffffffffffffffffffffffffffffffffffffffff021916908373ffffffffffffffffffffffffffffffffffffffff160217905550808273ffffffffffffffffffffffffffffffffffffffff16600073ffffffffffffffffffffffffffffffffffffffff167fddf252ad1be2c89b69c2b068fc378daa952ba7f163c4a11628f55a4df523b3ef60405160405180910390a4612411600083836001611e85565b5050565b6000604051905090565b600080fd5b600080fd5b60007fffffffff0000000000000000000000000000000000000000000000000000000082169050919050565b61245e81612429565b811461246957600080fd5b50565b60008135905061247b81612455565b92915050565b6000602082840312156124975761249661241f565b5b60006124a58482850161246c565b91505092915050565b60008115159050919050565b6124c3816124ae565b82525050565b60006020820190506124de60008301846124ba565b92915050565b600081519050919050565b600082825260208201905092915050565b60005b8381101561251e578082015181840152602081019050612503565b60008484015250505050565b6000601f19601f8301169050919050565b6000612546826124e4565b61255081856124ef565b9350612560818560208601612500565b6125698161252a565b840191505092915050565b6000602082019050818103600083015261258e818461253b565b905092915050565b6000819050919050565b6125a981612596565b81146125b457600080fd5b50565b6000813590506125c6816125a0565b92915050565b6000602082840312156125e2576125e161241f565b5b60006125f0848285016125b7565b91505092915050565b600073ffffffffffffffffffffffffffffffffffffffff82169050919050565b6000612624826125f9565b9050919050565b61263481612619565b82525050565b600060208201905061264f600083018461262b565b92915050565b61265e81612619565b811461266957600080fd5b50565b60008135905061267b81612655565b92915050565b600080604083850312156126985761269761241f565b5b60006126a68582860161266c565b92505060206126b7858286016125b7565b9150509250929050565b6126ca81612596565b82525050565b60006020820190506126e560008301846126c1565b92915050565b6000806000606084860312156127045761270361241f565b5b60006127128682870161266c565b93505060206127238682870161266c565b9250506040612734868287016125b7565b9150509250925092565b6000602082840312156127545761275361241f565b5b60006127628482850161266c565b91505092915050565b600080fd5b600080fd5b7f4e487b7100000000000000000000000000000000000000000000000000000000600052604160045260246000fd5b6127ad8261252a565b810181811067ffffffffffffffff821117156127cc576127cb612775565b5b80604052505050565b60006127df612415565b90506127eb82826127a4565b919050565b600067ffffffffffffffff82111561280b5761280a612775565b5b6128148261252a565b9050602081019050919050565b82818337600083830152505050565b600061284361283e846127f0565b6127d5565b90508281526020810184848401111561285f5761285e612770565b5b61286a848285612821565b509392505050565b600082601f8301126128875761288661276b565b5b8135612897848260208601612830565b91505092915050565b6000602082840312156128b6576128b561241f565b5b600082013567ffffffffffffffff8111156128d4576128d3612424565b5b6128e084828501612872565b91505092915050565b6128f2816124ae565b81146128fd57600080fd5b50565b60008135905061290f816128e9565b92915050565b6000806040838503121561292c5761292b61241f565b5b600061293a8582860161266c565b925050602061294b85828601612900565b9150509250929050565b600067ffffffffffffffff8211156129705761296f612775565b5b6129798261252a565b9050602081019050919050565b600061299961299484612955565b6127d5565b9050828152602081018484840111156129b5576129b4612770565b5b6129c0848285612821565b509392505050565b600082601f8301126129dd576129dc61276b565b5b81356129ed848260208601612986565b91505092915050565b60008060008060808587031215612a1057612a0f61241f565b5b6000612a1e8782880161266c565b9450506020612a2f8782880161266c565b9350506040612a40878288016125b7565b925050606085013567ffffffffffffffff811115612a6157612a60612424565b5b612a6d878288016129c8565b91505092959194509250565b60008060408385031215612a9057612a8f61241f565b5b6000612a9e8582860161266c565b9250506020612aaf8582860161266c565b9150509250929050565b7f4e487b7100000000000000000000000000000000000000000000000000000000600052602260045260246000fd5b60006002820490506001821680612b0057607f821691505b602082108103612b1357612b12612ab9565b5b50919050565b7f4552433732313a20617070726f76616c20746f2063757272656e74206f776e6560008201527f7200000000000000000000000000000000000000000000000000000000000000602082015250565b6000612b756021836124ef565b9150612b8082612b19565b604082019050919050565b60006020820190508181036000830152612ba481612b68565b9050919050565b7f4552433732313a20617070726f76652063616c6c6572206973206e6f7420746f60008201527f6b656e206f776e6572206f7220617070726f76656420666f7220616c6c000000602082015250565b6000612c07603d836124ef565b9150612c1282612bab565b604082019050919050565b60006020820190508181036000830152612c3681612bfa565b9050919050565b7f4552433732313a2063616c6c6572206973206e6f7420746f6b656e206f776e6560008201527f72206f7220617070726f76656400000000000000000000000000000000000000602082015250565b6000612c99602d836124ef565b9150612ca482612c3d565b604082019050919050565b60006020820190508181036000830152612cc881612c8c565b9050919050565b7f4552433732313a20696e76616c696420746f6b656e2049440000000000000000600082015250565b6000612d056018836124ef565b9150612d1082612ccf565b602082019050919050565b60006020820190508181036000830152612d3481612cf8565b9050919050565b7f4552433732313a2061646472657373207a65726f206973206e6f74206120766160008201527f6c6964206f776e65720000000000000000000000000000000000000000000000602082015250565b6000612d976029836124ef565b9150612da282612d3b565b604082019050919050565b60006020820190508181036000830152612dc681612d8a565b9050919050565b7f4e487b7100000000000000000000000000000000000000000000000000000000600052601160045260246000fd5b6000612e0782612596565b9150612e1283612596565b9250828202612e2081612596565b91508282048414831517612e3757612e36612dcd565b5b5092915050565b7f4e487b7100000000000000000000000000000000000000000000000000000000600052601260045260246000fd5b6000612e7882612596565b9150612e8383612596565b925082612e9357612e92612e3e565b5b828204905092915050565b600081905092915050565b50565b6000612eb9600083612e9e565b9150612ec482612ea9565b600082019050919050565b6000612eda82612eac565b9150819050919050565b7f5472616e73666572206661696c65642e00000000000000000000000000000000600082015250565b6000612f1a6010836124ef565b9150612f2582612ee4565b602082019050919050565b60006020820190508181036000830152612f4981612f0d565b9050919050565b7f5468652073616c65206973207061757365642e00000000000000000000000000600082015250565b6000612f866013836124ef565b9150612f9182612f50565b602082019050919050565b60006020820190508181036000830152612fb581612f79565b9050919050565b7f596f752063616e6e6f74206d696e742074686174206d616e7920696e206f6e6560008201527f207472616e73616374696f6e2e00000000000000000000000000000000000000602082015250565b6000613018602d836124ef565b915061302382612fbc565b604082019050919050565b600060208201905081810360008301526130478161300b565b9050919050565b600061305982612596565b915061306483612596565b925082820190508082111561307c5761307b612dcd565b5b92915050565b7f596f752063616e6e6f74206d696e742074686174206d616e7920746f74616c2e600082015250565b60006130b86020836124ef565b91506130c382613082565b602082019050919050565b600060208201905081810360008301526130e7816130ab565b9050919050565b7f4578636565647320746f74616c20737570706c792e0000000000000000000000600082015250565b60006131246015836124ef565b915061312f826130ee565b602082019050919050565b6000602082019050818103600083015261315381613117565b9050919050565b7f496e73756666696369656e742066756e64732e00000000000000000000000000600082015250565b60006131906013836124ef565b915061319b8261315a565b602082019050919050565b600060208201905081810360008301526131bf81613183565b9050919050565b60006131d182612596565b91507fffffffffffffffffffffffffffffffffffffffffffffffffffffffffffffffff820361320357613202612dcd565b5b600182019050919050565b60008190508160005260206000209050919050565b60006020601f8301049050919050565b60008160020a8302905092915050565b6000600883026132737fffffffffffffffffffffffffffffffffffffffffffffffffffffffffffffffff82613233565b61327d8683613233565b95508019841693508086168417925050509392505050565b6000819050919050565b60006132ba6132b56132b084612596565b613295565b612596565b9050919050565b6000819050919050565b6132d48361329f565b6132e86132e0826132c1565b848454613243565b825550505050565b600090565b6132fd6132f0565b6133088184846132cb565b505050565b5b8181101561332c576133216000826132f5565b60018101905061330e565b5050565b601f821115613371576133428161320e565b61334b84613223565b8101602085101561335a578190505b61336e61336685613223565b83018261330d565b50505b505050565b60008160020a8304905092915050565b600061339760001984600802613376565b1980831691505092915050565b60006133b08383613386565b9150826002028217905092915050565b6133c9826124e4565b67ffffffffffffffff8111156133e2576133e1612775565b5b6133ec8254612ae8565b6133f7828285613330565b600060209050601f83116001811461342a5760008415613418578287015190505b61342285826133a4565b86555061348a565b601f1984166134388661320e565b60005b828110156134605784890151825560018201915060208501945060208101905061343b565b8683101561347d5784890151613479601f891682613386565b8355505b6001600288020188555050505b505050505050565b600081905092915050565b60006134a8826124e4565b6134b28185613492565b93506134c2818560208601612500565b80840191505092915050565b60006134da828561349d565b91506134e6828461349d565b91508190509392505050565b7f4f776e61626c653a206e6577206f776e657220697320746865207a65726f206160008201527f6464726573730000000000000000000000000000000000000000000000000000602082015250565b600061354e6026836124ef565b9150613559826134f2565b604082019050919050565b6000602082019050818103600083015261357d81613541565b9050919050565b7f4552433732313a207472616e736665722066726f6d20696e636f72726563742060008201527f6f776e6572000000000000000000000000000000000000000000000000000000602082015250565b60006135e06025836124ef565b91506135eb82613584565b604082019050919050565b6000602082019050818103600083015261360f816135d3565b9050919050565b7f4552433732313a207472616e7366657220746f20746865207a65726f2061646460008201527f7265737300000000000000000000000000000000000000000000000000000000602082015250565b60006136726024836124ef565b915061367d82613616565b604082019050919050565b600060208201905081810360008301526136a181613665565b9050919050565b7f4f776e61626c653a2063616c6c6572206973206e6f7420746865206f776e6572600082015250565b60006136de6020836124ef565b91506136e9826136a8565b602082019050919050565b6000602082019050818103600083015261370d816136d1565b9050919050565b7f4552433732313a20617070726f766520746f2063616c6c657200000000000000600082015250565b600061374a6019836124ef565b915061375582613714565b602082019050919050565b600060208201905081810360008301526137798161373d565b9050919050565b7f4552433732313a207472616e7366657220746f206e6f6e20455243373231526560008201527f63656976657220696d706c656d656e7465720000000000000000000000000000602082015250565b60006137dc6032836124ef565b91506137e782613780565b604082019050919050565b6000602082019050818103600083015261380b816137cf565b9050919050565b600061381d82612596565b915061382883612596565b92508282039050818111156138405761383f612dcd565b5b92915050565b600081519050919050565b600082825260208201905092915050565b600061386d82613846565b6138778185613851565b9350613887818560208601612500565b6138908161252a565b840191505092915050565b60006080820190506138b0600083018761262b565b6138bd602083018661262b565b6138ca60408301856126c1565b81810360608301526138dc8184613862565b905095945050505050565b6000815190506138f681612455565b92915050565b6000602082840312156139125761391161241f565b5b6000613920848285016138e7565b91505092915050565b7f4552433732313a206d696e7420746f20746865207a65726f2061646472657373600082015250565b600061395f6020836124ef565b915061396a82613929565b602082019050919050565b6000602082019050818103600083015261398e81613952565b9050919050565b7f4552433732313a20746f6b656e20616c7265616479206d696e74656400000000600082015250565b60006139cb601c836124ef565b91506139d682613995565b602082019050919050565b600060208201905081810360008301526139fa816139be565b905091905056fea264697066735822122065db772656ceea73c410e434ac588839f50638b257ac9cb37474e3897aa1a30f64736f6c63430008110033697066733a2f2f78787878787878787878787878787878787878787878787878787878782f",
  "immutableReferences": {},
  "source": "// SPDX-License-Identifier: MIT\r\npragma solidity >=0.4.22 <0.9.0;\r\n// pragma solidity ^0.8.7;\r\n// pragma solidity ^0.7.0;\r\nimport \"./NFT.sol\";\r\n\r\ncontract NonTransferable is NFT {\r\n    // function make() public {\r\n    //make the type as non transferable,\r\n    //set the name\r\n    //set the initial transaction hash.. i.e the order id & everytime change it also, store the previous owners.\r\n    //current cost\r\n    //image\r\n    //description\r\n    //valid till\r\n    //bought on\r\n    // }\r\n}\r\n",
  "sourcePath": "C:\\Users\\Neeraj\\Desktop\\Sterling Store\\src\\contracts\\NonTransferableNFT.sol",
  "compiler": {
    "name": "solc",
    "version": "0.8.17+commit.8df45f5f.Emscripten.clang"
  },
  "schemaVersion": "3.4.11",
  "updatedAt": "2023-01-09T16:24:53.696Z",
  "devdoc": {
    "kind": "dev",
    "methods": {
      "approve(address,uint256)": {
        "details": "See {IERC721-approve}."
      },
      "balanceOf(address)": {
        "details": "See {IERC721-balanceOf}."
      },
      "getApproved(uint256)": {
        "details": "See {IERC721-getApproved}."
      },
      "isApprovedForAll(address,address)": {
        "details": "See {IERC721-isApprovedForAll}."
      },
      "name()": {
        "details": "See {IERC721Metadata-name}."
      },
      "owner()": {
        "details": "Returns the address of the current owner."
      },
      "ownerOf(uint256)": {
        "details": "See {IERC721-ownerOf}."
      },
      "renounceOwnership()": {
        "details": "Leaves the contract without owner. It will not be possible to call `onlyOwner` functions anymore. Can only be called by the current owner. NOTE: Renouncing ownership will leave the contract without an owner, thereby removing any functionality that is only available to the owner."
      },
      "safeTransferFrom(address,address,uint256)": {
        "details": "See {IERC721-safeTransferFrom}."
      },
      "safeTransferFrom(address,address,uint256,bytes)": {
        "details": "See {IERC721-safeTransferFrom}."
      },
      "setApprovalForAll(address,bool)": {
        "details": "See {IERC721-setApprovalForAll}."
      },
      "supportsInterface(bytes4)": {
        "details": "See {IERC165-supportsInterface}."
      },
      "symbol()": {
        "details": "See {IERC721Metadata-symbol}."
      },
      "tokenURI(uint256)": {
        "details": "See {IERC721Metadata-tokenURI}."
      },
      "transferFrom(address,address,uint256)": {
        "details": "See {IERC721-transferFrom}."
      },
      "transferOwnership(address)": {
        "details": "Transfers ownership of the contract to a new account (`newOwner`). Can only be called by the current owner."
      }
    },
    "version": 1
  },
  "userdoc": {
    "kind": "user",
    "methods": {},
    "version": 1
  }
}