{
  "contractName": "SellerAuth",
  "abi": [
    {
      "inputs": [],
      "stateMutability": "nonpayable",
      "type": "constructor"
    },
    {
      "anonymous": false,
      "inputs": [
        {
          "indexed": true,
          "internalType": "address",
          "name": "oldOwner",
          "type": "address"
        },
        {
          "indexed": true,
          "internalType": "address",
          "name": "newOwner",
          "type": "address"
        }
      ],
      "name": "OwnerSet",
      "type": "event"
    },
    {
      "anonymous": false,
      "inputs": [
        {
          "indexed": true,
          "internalType": "address",
          "name": "seller",
          "type": "address"
        }
      ],
      "name": "SellerSet",
      "type": "event"
    },
    {
      "inputs": [
        {
          "internalType": "address",
          "name": "newOwner",
          "type": "address"
        },
        {
          "internalType": "string",
          "name": "newSecret",
          "type": "string"
        },
        {
          "internalType": "string",
          "name": "currentSecret",
          "type": "string"
        }
      ],
      "name": "changeOwner",
      "outputs": [],
      "stateMutability": "nonpayable",
      "type": "function"
    },
    {
      "inputs": [],
      "name": "getOwner",
      "outputs": [
        {
          "internalType": "address",
          "name": "",
          "type": "address"
        }
      ],
      "stateMutability": "view",
      "type": "function"
    },
    {
      "inputs": [
        {
          "internalType": "address",
          "name": "sellersAddress",
          "type": "address"
        }
      ],
      "name": "addSeller",
      "outputs": [],
      "stateMutability": "nonpayable",
      "type": "function"
    },
    {
      "inputs": [
        {
          "internalType": "address",
          "name": "sellersAddress",
          "type": "address"
        }
      ],
      "name": "removeSeller",
      "outputs": [],
      "stateMutability": "nonpayable",
      "type": "function"
    },
    {
      "inputs": [
        {
          "internalType": "address",
          "name": "sellersAddress",
          "type": "address"
        }
      ],
      "name": "checkSeller",
      "outputs": [
        {
          "internalType": "bool",
          "name": "",
          "type": "bool"
        }
      ],
      "stateMutability": "view",
      "type": "function"
    }
  ],
  "bytecode": "0x608060405234801561001057600080fd5b5060008054600160a060020a0319163317905560408051808201909152600681527f736563726574000000000000000000000000000000000000000000000000000060208201526001906100649082610174565b5060008054604051600160a060020a0390911691907f342827c97908e5e2f71151c08502a66d44b6f758e3ac2f1de95f02eb95f0a735908290a361023a565b7f4e487b7100000000000000000000000000000000000000000000000000000000600052604160045260246000fd5b6002810460018216806100e657607f821691505b60208210810361011f577f4e487b7100000000000000000000000000000000000000000000000000000000600052602260045260246000fd5b50919050565b601f82111561016f576000818152602081206020601f8601048101602086101561014c5750805b6020601f860104820191505b8181101561016b57828155600101610158565b5050505b505050565b815167ffffffffffffffff81111561018e5761018e6100a3565b6101a28161019c84546100d2565b84610125565b602080601f8311600181146101db57600084156101bf5750858301515b60028086026008870290910a600019041982161786555061016b565b600085815260208120601f198616915b8281101561020a578886015182559484019460019091019084016101eb565b508582101561022a57878501516008601f88160260020a60001904191681555b5050505050600202600101905550565b6107c5806102496000396000f3fe608060405234801561001057600080fd5b5060043610610073577c010000000000000000000000000000000000000000000000000000000060003504637cb9cf548114610078578063825bbebd1461008d578063893d20e8146100a0578063c3395530146100c0578063d93fabfa14610101575b600080fd5b61008b6100863660046103f9565b610114565b005b61008b61009b3660046104d7565b6101cd565b600054604051600160a060020a0390911681526020015b60405180910390f35b6100f16100ce3660046103f9565b600160a060020a031660009081526002602052604090205460ff16151560011490565b60405190151581526020016100b7565b61008b61010f3660046103f9565b610358565b600054600160a060020a0316331461014a5760405160e560020a62461bcd0281526004016101419061054b565b60405180910390fd5b3360009081526002602052604090205460ff166101ac5760405160e560020a62461bcd02815260206004820181905260248201527f416c7265616479206e6f7420616e20617574686f72697a65642073656c6c65726044820152606401610141565b600160a060020a03166000908152600260205260409020805460ff19169055565b600054600160a060020a031633146101fa5760405160e560020a62461bcd0281526004016101419061054b565b600160405160200161020c91906105d5565b6040516020818303038152906040528051906020012081604051602001610233919061064b565b60405160208183030381529060405280519060200120146102e55760405160e560020a62461bcd02815260206004820152604f60248201527f496e636f7272656374206f776e6572732073656372657420737472696e673a2060448201527f6368616e67654f776e6572286e65774f776e65722c206e65775365637265742c60648201527f2063757272656e74536563726574290000000000000000000000000000000000608482015260a401610141565b60008054604051600160a060020a03808716939216917f342827c97908e5e2f71151c08502a66d44b6f758e3ac2f1de95f02eb95f0a73591a36000805473ffffffffffffffffffffffffffffffffffffffff1916600160a060020a038516179055600161035283826106c9565b50505050565b600054600160a060020a031633146103855760405160e560020a62461bcd0281526004016101419061054b565b604051600160a060020a038216907f333be4836c678b45ff3bab0e47cc398f6c7346c2f9f7602f2e7478f3da1c0b1c90600090a2600160a060020a03166000908152600260205260409020805460ff19166001179055565b8035600160a060020a03811681146103f457600080fd5b919050565b60006020828403121561040b57600080fd5b610414826103dd565b9392505050565b7f4e487b7100000000000000000000000000000000000000000000000000000000600052604160045260246000fd5b600082601f83011261045b57600080fd5b813567ffffffffffffffff808211156104765761047661041b565b604051601f8301601f19908116603f0116810190828211818310171561049e5761049e61041b565b816040528381528660208588010111156104b757600080fd5b836020870160208301376000602085830101528094505050505092915050565b6000806000606084860312156104ec57600080fd5b6104f5846103dd565b9250602084013567ffffffffffffffff8082111561051257600080fd5b61051e8783880161044a565b9350604086013591508082111561053457600080fd5b506105418682870161044a565b9150509250925092565b60208082526013908201527f43616c6c6572206973206e6f74206f776e657200000000000000000000000000604082015260600190565b60028104600182168061059657607f821691505b6020821081036105cf577f4e487b7100000000000000000000000000000000000000000000000000000000600052602260045260246000fd5b50919050565b60008083546105e381610582565b600182811680156105fb57600181146106105761063f565b60ff198416875282151583028701945061063f565b8760005260208060002060005b858110156106365781548a82015290840190820161061d565b50505082870194505b50929695505050505050565b6000825160005b8181101561066c5760208186018101518583015201610652565b506000920191825250919050565b601f8211156106c4576000818152602081206020601f860104810160208610156106a15750805b6020601f860104820191505b818110156106c0578281556001016106ad565b5050505b505050565b815167ffffffffffffffff8111156106e3576106e361041b565b6106f7816106f18454610582565b8461067a565b602080601f83116001811461073057600084156107145750858301515b60028086026008870290910a60001904198216178655506106c0565b600085815260208120601f198616915b8281101561075f57888601518255948401946001909101908401610740565b508582101561077f57878501516008601f88160260020a60001904191681555b505050505060020260010190555056fea26469706673582212206ba6faeb0ff97d2ae47a943f59f7c059681b00060e845041ddd68ddf899210e864736f6c63430008130033",
  "immutableReferences": {},
  "source": "// SPDX-License-Identifier: MIT\r\npragma solidity >=0.4.22 <0.9.0;\r\n\r\ncontract SellerAuth {\r\n    address private owner;\r\n    // Owners password\r\n    string private secret;\r\n\r\n    // Authorized sellers\r\n    mapping (address => bool) private sellers;\r\n\r\n    // event for EVM logging\r\n    event OwnerSet(address indexed oldOwner, address indexed newOwner);\r\n    event SellerSet(address indexed seller);\r\n\r\n    // modifier to check if caller is owner\r\n    modifier isOwner() {\r\n        require(msg.sender == owner, \"Caller is not owner\");\r\n        _;\r\n    }\r\n\r\n    // modifier to check if caller is authorized seller\r\n    modifier isAuthorizedSeller() {\r\n        require(sellers[msg.sender], \"Caller is not an authorized seller\");\r\n        _;\r\n    }\r\n\r\n    /**\r\n     * * dev: Set contract deployer as owner\r\n     */\r\n    constructor() {\r\n        owner = msg.sender; // 'msg.sender' is sender of current call, contract deployer for a constructor\r\n        secret = \"secret\"; // Owners password/secret\r\n        emit OwnerSet(address(0), owner);\r\n    }\r\n\r\n    /**\r\n     * * dev: Change owner and secret\r\n     * * param: newOwner address of new owner, new secret, old secret\r\n     */\r\n    function changeOwner(address newOwner, string memory newSecret, string memory currentSecret) public isOwner {\r\n        require(keccak256(abi.encodePacked(currentSecret)) == keccak256(abi.encodePacked(secret)), \"Incorrect owners secret string: changeOwner(newOwner, newSecret, currentSecret)\");\r\n        emit OwnerSet(owner, newOwner);\r\n        owner = newOwner;\r\n        secret = newSecret;\r\n    }\r\n\r\n    /**\r\n     * * dev: Return owner address \r\n     * * return: address of owner\r\n     */\r\n    function getOwner() public view returns (address) {\r\n        return owner;\r\n    }\r\n\r\n    /**\r\n     * * dev: add seller address to authorized seller mapping \r\n     * * param: sellersAddress of seller\r\n     */\r\n    function addSeller (address sellersAddress) public isOwner {\r\n        emit SellerSet(sellersAddress);\r\n        sellers[sellersAddress] = true;\r\n    }\r\n\r\n    /**\r\n     * * dev: remove seller address from authorized seller mapping \r\n     * * param: address of seller\r\n     */\r\n    function removeSeller (address sellersAddress) public isOwner {\r\n        require(sellers[msg.sender], \"Already not an authorized seller\");\r\n        sellers[sellersAddress] = false;\r\n    }\r\n\r\n    /**\r\n     * * dev: check if seller is authorized by the owner \r\n     * * return: address of true or false\r\n     */\r\n    function checkSeller(address sellersAddress) public view returns (bool) {\r\n        return sellers[sellersAddress] == true;\r\n    }\r\n}\r\n",
  "sourcePath": "C:\\Users\\Neeraj\\Desktop\\Sterling Store\\src\\contracts\\SellerAuth.sol",
  "compiler": {
    "name": "solc",
    "version": "0.8.19+commit.7dd6d404.Emscripten.clang"
  },
  "schemaVersion": "3.4.11",
  "updatedAt": "2023-02-27T02:34:43.446Z",
  "devdoc": {
    "kind": "dev",
    "methods": {},
    "version": 1
  },
  "userdoc": {
    "kind": "user",
    "methods": {
      "addSeller(address)": {
        "notice": "* dev: add seller address to authorized seller mapping  * param: sellersAddress of seller"
      },
      "changeOwner(address,string,string)": {
        "notice": "* dev: Change owner and secret * param: newOwner address of new owner, new secret, old secret"
      },
      "checkSeller(address)": {
        "notice": "* dev: check if seller is authorized by the owner  * return: address of true or false"
      },
      "constructor": {
        "notice": "* dev: Set contract deployer as owner"
      },
      "getOwner()": {
        "notice": "* dev: Return owner address  * return: address of owner"
      },
      "removeSeller(address)": {
        "notice": "* dev: remove seller address from authorized seller mapping  * param: address of seller"
      }
    },
    "version": 1
  }
}