{
  "contractName": "SellerAuth",
  "abi": [
    {
      "inputs": [],
      "stateMutability": "nonpayable",
      "type": "constructor"
    },
    {
      "anonymous": false,
      "inputs": [
        {
          "indexed": true,
          "internalType": "address",
          "name": "oldOwner",
          "type": "address"
        },
        {
          "indexed": true,
          "internalType": "address",
          "name": "newOwner",
          "type": "address"
        }
      ],
      "name": "OwnerSet",
      "type": "event"
    },
    {
      "anonymous": false,
      "inputs": [
        {
          "indexed": true,
          "internalType": "address",
          "name": "seller",
          "type": "address"
        }
      ],
      "name": "SellerSet",
      "type": "event"
    },
    {
      "inputs": [
        {
          "internalType": "address",
          "name": "newOwner",
          "type": "address"
        },
        {
          "internalType": "string",
          "name": "newSecret",
          "type": "string"
        },
        {
          "internalType": "string",
          "name": "currentSecret",
          "type": "string"
        }
      ],
      "name": "changeOwner",
      "outputs": [],
      "stateMutability": "nonpayable",
      "type": "function"
    },
    {
      "inputs": [],
      "name": "getOwner",
      "outputs": [
        {
          "internalType": "address",
          "name": "",
          "type": "address"
        }
      ],
      "stateMutability": "view",
      "type": "function"
    },
    {
      "inputs": [
        {
          "internalType": "address",
          "name": "sellersAddress",
          "type": "address"
        }
      ],
      "name": "addSeller",
      "outputs": [],
      "stateMutability": "nonpayable",
      "type": "function"
    },
    {
      "inputs": [
        {
          "internalType": "address",
          "name": "sellersAddress",
          "type": "address"
        }
      ],
      "name": "removeSeller",
      "outputs": [],
      "stateMutability": "nonpayable",
      "type": "function"
    },
    {
      "inputs": [
        {
          "internalType": "address",
          "name": "sellersAddress",
          "type": "address"
        }
      ],
      "name": "checkSeller",
      "outputs": [
        {
          "internalType": "bool",
          "name": "",
          "type": "bool"
        }
      ],
      "stateMutability": "view",
      "type": "function"
    }
  ],
  "bytecode": "0x60806040523480156200001157600080fd5b50336000806101000a81548173ffffffffffffffffffffffffffffffffffffffff021916908373ffffffffffffffffffffffffffffffffffffffff1602179055506040518060400160405280600681526020017f7365637265740000000000000000000000000000000000000000000000000000815250600190816200009891906200039a565b5060008054906101000a900473ffffffffffffffffffffffffffffffffffffffff1673ffffffffffffffffffffffffffffffffffffffff16600073ffffffffffffffffffffffffffffffffffffffff167f342827c97908e5e2f71151c08502a66d44b6f758e3ac2f1de95f02eb95f0a73560405160405180910390a362000481565b600081519050919050565b7f4e487b7100000000000000000000000000000000000000000000000000000000600052604160045260246000fd5b7f4e487b7100000000000000000000000000000000000000000000000000000000600052602260045260246000fd5b600060028204905060018216806200019c57607f821691505b602082108103620001b257620001b162000154565b5b50919050565b60008190508160005260206000209050919050565b60006020601f8301049050919050565b60008160020a8302905092915050565b6000600883026200021f7fffffffffffffffffffffffffffffffffffffffffffffffffffffffffffffffff82620001dd565b6200022b8683620001dd565b95508019841693508086168417925050509392505050565b6000819050919050565b6000819050919050565b600062000278620002726200026c8462000243565b6200024d565b62000243565b9050919050565b6000819050919050565b620002948362000257565b620002ac620002a3826200027f565b848454620001ed565b825550505050565b600090565b620002c3620002b4565b620002d081848462000289565b505050565b5b81811015620002f857620002ec600082620002b9565b600181019050620002d6565b5050565b601f82111562000347576200031181620001b8565b6200031c84620001cd565b810160208510156200032c578190505b620003446200033b85620001cd565b830182620002d5565b50505b505050565b60008160020a8304905092915050565b60006200036f600019846008026200034c565b1980831691505092915050565b60006200038a83836200035c565b9150826002028217905092915050565b620003a5826200011a565b67ffffffffffffffff811115620003c157620003c062000125565b5b620003cd825462000183565b620003da828285620002fc565b600060209050601f831160018114620004125760008415620003fd578287015190505b6200040985826200037c565b86555062000479565b601f1984166200042286620001b8565b60005b828110156200044c5784890151825560018201915060208501945060208101905062000425565b868310156200046c578489015162000468601f8916826200035c565b8355505b6001600288020188555050505b505050505050565b610ee580620004916000396000f3fe608060405234801561001057600080fd5b5060043610610074576000357c0100000000000000000000000000000000000000000000000000000000900480637cb9cf5414610079578063825bbebd14610095578063893d20e8146100b1578063c3395530146100cf578063d93fabfa146100ff575b600080fd5b610093600480360381019061008e91906106a0565b61011b565b005b6100af60048036038101906100aa9190610813565b610290565b005b6100b961047c565b6040516100c691906108ad565b60405180910390f35b6100e960048036038101906100e491906106a0565b6104a5565b6040516100f691906108e3565b60405180910390f35b610119600480360381019061011491906106a0565b610502565b005b60008054906101000a900473ffffffffffffffffffffffffffffffffffffffff1673ffffffffffffffffffffffffffffffffffffffff163373ffffffffffffffffffffffffffffffffffffffff16146101a9576040517f08c379a00000000000000000000000000000000000000000000000000000000081526004016101a09061095b565b60405180910390fd5b600260003373ffffffffffffffffffffffffffffffffffffffff1673ffffffffffffffffffffffffffffffffffffffff16815260200190815260200160002060009054906101000a900460ff16610235576040517f08c379a000000000000000000000000000000000000000000000000000000000815260040161022c906109c7565b60405180910390fd5b6000600260008373ffffffffffffffffffffffffffffffffffffffff1673ffffffffffffffffffffffffffffffffffffffff16815260200190815260200160002060006101000a81548160ff02191690831515021790555050565b60008054906101000a900473ffffffffffffffffffffffffffffffffffffffff1673ffffffffffffffffffffffffffffffffffffffff163373ffffffffffffffffffffffffffffffffffffffff161461031e576040517f08c379a00000000000000000000000000000000000000000000000000000000081526004016103159061095b565b60405180910390fd5b60016040516020016103309190610aea565b60405160208183030381529060405280519060200120816040516020016103579190610b67565b60405160208183030381529060405280519060200120146103ad576040517f08c379a00000000000000000000000000000000000000000000000000000000081526004016103a490610c16565b60405180910390fd5b8273ffffffffffffffffffffffffffffffffffffffff1660008054906101000a900473ffffffffffffffffffffffffffffffffffffffff1673ffffffffffffffffffffffffffffffffffffffff167f342827c97908e5e2f71151c08502a66d44b6f758e3ac2f1de95f02eb95f0a73560405160405180910390a3826000806101000a81548173ffffffffffffffffffffffffffffffffffffffff021916908373ffffffffffffffffffffffffffffffffffffffff16021790555081600190816104769190610ddd565b50505050565b60008060009054906101000a900473ffffffffffffffffffffffffffffffffffffffff16905090565b600060011515600260008473ffffffffffffffffffffffffffffffffffffffff1673ffffffffffffffffffffffffffffffffffffffff16815260200190815260200160002060009054906101000a900460ff161515149050919050565b60008054906101000a900473ffffffffffffffffffffffffffffffffffffffff1673ffffffffffffffffffffffffffffffffffffffff163373ffffffffffffffffffffffffffffffffffffffff1614610590576040517f08c379a00000000000000000000000000000000000000000000000000000000081526004016105879061095b565b60405180910390fd5b8073ffffffffffffffffffffffffffffffffffffffff167f333be4836c678b45ff3bab0e47cc398f6c7346c2f9f7602f2e7478f3da1c0b1c60405160405180910390a26001600260008373ffffffffffffffffffffffffffffffffffffffff1673ffffffffffffffffffffffffffffffffffffffff16815260200190815260200160002060006101000a81548160ff02191690831515021790555050565b6000604051905090565b600080fd5b600080fd5b600073ffffffffffffffffffffffffffffffffffffffff82169050919050565b600061066d82610642565b9050919050565b61067d81610662565b811461068857600080fd5b50565b60008135905061069a81610674565b92915050565b6000602082840312156106b6576106b5610638565b5b60006106c48482850161068b565b91505092915050565b600080fd5b600080fd5b6000601f19601f8301169050919050565b7f4e487b7100000000000000000000000000000000000000000000000000000000600052604160045260246000fd5b610720826106d7565b810181811067ffffffffffffffff8211171561073f5761073e6106e8565b5b80604052505050565b600061075261062e565b905061075e8282610717565b919050565b600067ffffffffffffffff82111561077e5761077d6106e8565b5b610787826106d7565b9050602081019050919050565b82818337600083830152505050565b60006107b66107b184610763565b610748565b9050828152602081018484840111156107d2576107d16106d2565b5b6107dd848285610794565b509392505050565b600082601f8301126107fa576107f96106cd565b5b813561080a8482602086016107a3565b91505092915050565b60008060006060848603121561082c5761082b610638565b5b600061083a8682870161068b565b935050602084013567ffffffffffffffff81111561085b5761085a61063d565b5b610867868287016107e5565b925050604084013567ffffffffffffffff8111156108885761088761063d565b5b610894868287016107e5565b9150509250925092565b6108a781610662565b82525050565b60006020820190506108c2600083018461089e565b92915050565b60008115159050919050565b6108dd816108c8565b82525050565b60006020820190506108f860008301846108d4565b92915050565b600082825260208201905092915050565b7f43616c6c6572206973206e6f74206f776e657200000000000000000000000000600082015250565b60006109456013836108fe565b91506109508261090f565b602082019050919050565b6000602082019050818103600083015261097481610938565b9050919050565b7f416c7265616479206e6f7420616e20617574686f72697a65642073656c6c6572600082015250565b60006109b16020836108fe565b91506109bc8261097b565b602082019050919050565b600060208201905081810360008301526109e0816109a4565b9050919050565b7f4e487b7100000000000000000000000000000000000000000000000000000000600052602260045260246000fd5b60006002820490506001821680610a2e57607f821691505b602082108103610a4157610a406109e7565b5b50919050565b600081905092915050565b60008190508160005260206000209050919050565b60008154610a7481610a16565b610a7e8186610a47565b94506001821660008114610a995760018114610aae57610ae1565b60ff1983168652811515820286019350610ae1565b610ab785610a52565b60005b83811015610ad957815481890152600182019150602081019050610aba565b838801955050505b50505092915050565b6000610af68284610a67565b915081905092915050565b600081519050919050565b60005b83811015610b2a578082015181840152602081019050610b0f565b60008484015250505050565b6000610b4182610b01565b610b4b8185610a47565b9350610b5b818560208601610b0c565b80840191505092915050565b6000610b738284610b36565b915081905092915050565b7f496e636f7272656374206f776e6572732073656372657420737472696e673a2060008201527f6368616e67654f776e6572286e65774f776e65722c206e65775365637265742c60208201527f2063757272656e74536563726574290000000000000000000000000000000000604082015250565b6000610c00604f836108fe565b9150610c0b82610b7e565b606082019050919050565b60006020820190508181036000830152610c2f81610bf3565b9050919050565b60006020601f8301049050919050565b60008160020a8302905092915050565b600060088302610c867fffffffffffffffffffffffffffffffffffffffffffffffffffffffffffffffff82610c46565b610c908683610c46565b95508019841693508086168417925050509392505050565b6000819050919050565b6000819050919050565b6000610cd7610cd2610ccd84610ca8565b610cb2565b610ca8565b9050919050565b6000819050919050565b610cf183610cbc565b610d05610cfd82610cde565b848454610c56565b825550505050565b600090565b610d1a610d0d565b610d25818484610ce8565b505050565b5b81811015610d4957610d3e600082610d12565b600181019050610d2b565b5050565b601f821115610d8e57610d5f81610a52565b610d6884610c36565b81016020851015610d77578190505b610d8b610d8385610c36565b830182610d2a565b50505b505050565b60008160020a8304905092915050565b6000610db460001984600802610d93565b1980831691505092915050565b6000610dcd8383610da3565b9150826002028217905092915050565b610de682610b01565b67ffffffffffffffff811115610dff57610dfe6106e8565b5b610e098254610a16565b610e14828285610d4d565b600060209050601f831160018114610e475760008415610e35578287015190505b610e3f8582610dc1565b865550610ea7565b601f198416610e5586610a52565b60005b82811015610e7d57848901518255600182019150602085019450602081019050610e58565b86831015610e9a5784890151610e96601f891682610da3565b8355505b6001600288020188555050505b50505050505056fea26469706673582212207be62d6522867446d850f4bca74af03a4b435ba9e5e01de7fbbe8a5538c2c8c864736f6c63430008110033",
  "immutableReferences": {},
  "source": "// SPDX-License-Identifier: MIT\r\npragma solidity >=0.4.22 <0.9.0;\r\n\r\ncontract SellerAuth {\r\n    address private owner;\r\n    // Owners password\r\n    string private secret;\r\n\r\n    // Authorized sellers\r\n    mapping (address => bool) private sellers;\r\n\r\n    // event for EVM logging\r\n    event OwnerSet(address indexed oldOwner, address indexed newOwner);\r\n    event SellerSet(address indexed seller);\r\n\r\n    // modifier to check if caller is owner\r\n    modifier isOwner() {\r\n        require(msg.sender == owner, \"Caller is not owner\");\r\n        _;\r\n    }\r\n\r\n    // modifier to check if caller is authorized seller\r\n    modifier isAuthorizedSeller() {\r\n        require(sellers[msg.sender], \"Caller is not an authorized seller\");\r\n        _;\r\n    }\r\n\r\n    /**\r\n     * * dev: Set contract deployer as owner\r\n     */\r\n    constructor() {\r\n        owner = msg.sender; // 'msg.sender' is sender of current call, contract deployer for a constructor\r\n        secret = \"secret\"; // Owners password/secret\r\n        emit OwnerSet(address(0), owner);\r\n    }\r\n\r\n    /**\r\n     * * dev: Change owner and secret\r\n     * * param: newOwner address of new owner, new secret, old secret\r\n     */\r\n    function changeOwner(address newOwner, string memory newSecret, string memory currentSecret) public isOwner {\r\n        require(keccak256(abi.encodePacked(currentSecret)) == keccak256(abi.encodePacked(secret)), \"Incorrect owners secret string: changeOwner(newOwner, newSecret, currentSecret)\");\r\n        emit OwnerSet(owner, newOwner);\r\n        owner = newOwner;\r\n        secret = newSecret;\r\n    }\r\n\r\n    /**\r\n     * * dev: Return owner address \r\n     * * return: address of owner\r\n     */\r\n    function getOwner() public view returns (address) {\r\n        return owner;\r\n    }\r\n\r\n    /**\r\n     * * dev: add seller address to authorized seller mapping \r\n     * * param: sellersAddress of seller\r\n     */\r\n    function addSeller (address sellersAddress) public isOwner {\r\n        emit SellerSet(sellersAddress);\r\n        sellers[sellersAddress] = true;\r\n    }\r\n\r\n    /**\r\n     * * dev: remove seller address from authorized seller mapping \r\n     * * param: address of seller\r\n     */\r\n    function removeSeller (address sellersAddress) public isOwner {\r\n        require(sellers[msg.sender], \"Already not an authorized seller\");\r\n        sellers[sellersAddress] = false;\r\n    }\r\n\r\n    /**\r\n     * * dev: check if seller is authorized by the owner \r\n     * * return: address of true or false\r\n     */\r\n    function checkSeller(address sellersAddress) public view returns (bool) {\r\n        return sellers[sellersAddress] == true;\r\n    }\r\n}\r\n",
  "sourcePath": "C:\\Users\\Neeraj\\Desktop\\Sterling Store\\src\\contracts\\SellerAuth.sol",
  "compiler": {
    "name": "solc",
    "version": "0.8.17+commit.8df45f5f.Emscripten.clang"
  },
  "schemaVersion": "3.4.11",
  "updatedAt": "2023-01-23T10:35:29.255Z",
  "devdoc": {
    "kind": "dev",
    "methods": {},
    "version": 1
  },
  "userdoc": {
    "kind": "user",
    "methods": {
      "addSeller(address)": {
        "notice": "* dev: add seller address to authorized seller mapping  * param: sellersAddress of seller"
      },
      "changeOwner(address,string,string)": {
        "notice": "* dev: Change owner and secret * param: newOwner address of new owner, new secret, old secret"
      },
      "checkSeller(address)": {
        "notice": "* dev: check if seller is authorized by the owner  * return: address of true or false"
      },
      "constructor": {
        "notice": "* dev: Set contract deployer as owner"
      },
      "getOwner()": {
        "notice": "* dev: Return owner address  * return: address of owner"
      },
      "removeSeller(address)": {
        "notice": "* dev: remove seller address from authorized seller mapping  * param: address of seller"
      }
    },
    "version": 1
  }
}