{
  "contractName": "kryptoBirdz",
  "abi": [
    {
      "inputs": [],
      "stateMutability": "nonpayable",
      "type": "constructor"
    },
    {
      "anonymous": false,
      "inputs": [
        {
          "indexed": true,
          "internalType": "address",
          "name": "_owner",
          "type": "address"
        },
        {
          "indexed": true,
          "internalType": "address",
          "name": "_approved",
          "type": "address"
        },
        {
          "indexed": true,
          "internalType": "uint256",
          "name": "_tokenId",
          "type": "uint256"
        }
      ],
      "name": "Approval",
      "type": "event"
    },
    {
      "anonymous": false,
      "inputs": [
        {
          "indexed": true,
          "internalType": "address",
          "name": "_from",
          "type": "address"
        },
        {
          "indexed": true,
          "internalType": "address",
          "name": "_to",
          "type": "address"
        },
        {
          "indexed": true,
          "internalType": "uint256",
          "name": "_tokenId",
          "type": "uint256"
        }
      ],
      "name": "Transfer",
      "type": "event"
    },
    {
      "inputs": [
        {
          "internalType": "address",
          "name": "_to",
          "type": "address"
        },
        {
          "internalType": "uint256",
          "name": "_tokenId",
          "type": "uint256"
        }
      ],
      "name": "approve",
      "outputs": [],
      "stateMutability": "nonpayable",
      "type": "function"
    },
    {
      "inputs": [
        {
          "internalType": "address",
          "name": "_owner",
          "type": "address"
        }
      ],
      "name": "balanceOf",
      "outputs": [
        {
          "internalType": "uint256",
          "name": "",
          "type": "uint256"
        }
      ],
      "stateMutability": "view",
      "type": "function"
    },
    {
      "inputs": [
        {
          "internalType": "uint256",
          "name": "",
          "type": "uint256"
        }
      ],
      "name": "kryptoBirdzNFTs",
      "outputs": [
        {
          "internalType": "string",
          "name": "",
          "type": "string"
        }
      ],
      "stateMutability": "view",
      "type": "function"
    },
    {
      "inputs": [],
      "name": "name",
      "outputs": [
        {
          "internalType": "string",
          "name": "",
          "type": "string"
        }
      ],
      "stateMutability": "view",
      "type": "function"
    },
    {
      "inputs": [
        {
          "internalType": "uint256",
          "name": "_tokenId",
          "type": "uint256"
        }
      ],
      "name": "ownerOf",
      "outputs": [
        {
          "internalType": "address",
          "name": "",
          "type": "address"
        }
      ],
      "stateMutability": "view",
      "type": "function"
    },
    {
      "inputs": [
        {
          "internalType": "bytes4",
          "name": "interfaceID",
          "type": "bytes4"
        }
      ],
      "name": "supportsInterface",
      "outputs": [
        {
          "internalType": "bool",
          "name": "",
          "type": "bool"
        }
      ],
      "stateMutability": "view",
      "type": "function"
    },
    {
      "inputs": [],
      "name": "symbol",
      "outputs": [
        {
          "internalType": "string",
          "name": "",
          "type": "string"
        }
      ],
      "stateMutability": "view",
      "type": "function"
    },
    {
      "inputs": [
        {
          "internalType": "uint256",
          "name": "_index",
          "type": "uint256"
        }
      ],
      "name": "tokenByIndex",
      "outputs": [
        {
          "internalType": "uint256",
          "name": "",
          "type": "uint256"
        }
      ],
      "stateMutability": "view",
      "type": "function"
    },
    {
      "inputs": [
        {
          "internalType": "address",
          "name": "_owner",
          "type": "address"
        },
        {
          "internalType": "uint256",
          "name": "_index",
          "type": "uint256"
        }
      ],
      "name": "tokenOfOwnerByIndex",
      "outputs": [
        {
          "internalType": "uint256",
          "name": "",
          "type": "uint256"
        }
      ],
      "stateMutability": "view",
      "type": "function"
    },
    {
      "inputs": [],
      "name": "totalSupply",
      "outputs": [
        {
          "internalType": "uint256",
          "name": "",
          "type": "uint256"
        }
      ],
      "stateMutability": "view",
      "type": "function"
    },
    {
      "inputs": [
        {
          "internalType": "address",
          "name": "_from",
          "type": "address"
        },
        {
          "internalType": "address",
          "name": "_to",
          "type": "address"
        },
        {
          "internalType": "uint256",
          "name": "_tokenId",
          "type": "uint256"
        }
      ],
      "name": "transferFrom",
      "outputs": [],
      "stateMutability": "nonpayable",
      "type": "function"
    },
    {
      "inputs": [
        {
          "internalType": "string",
          "name": "_kryptoBird",
          "type": "string"
        }
      ],
      "name": "mint",
      "outputs": [],
      "stateMutability": "nonpayable",
      "type": "function"
    }
  ],
  "bytecode": "0x60806040523480156200001157600080fd5b506040518060400160405280600b81526020017f4b727970746f426972647a0000000000000000000000000000000000000000008152506040518060400160405280600781526020017f4b7270746f427a000000000000000000000000000000000000000000000000008152508181620000ba7f01ffc9a7a5cef8baa21ed3c5c0d7e23accb804b619e9333b597f47a0d84076e262000240640100000000026401000000009004565b620001167f13b182f4c0e5b2efbac0efe6cf6d756c8b89f4b79c5707a043ed9ea740574ee97f7feaf19471f34a12a7eaf32d5f3090aa2260ea8624dc8a138e74e0bf0f6230761862000240640100000000026401000000009004565b8160019081620001279190620005b3565b508060029081620001399190620005b3565b505050620001ba7f22c82707ba960a14c7592ffb6b8cfaa073fed0048a84cc7fa41f6b5bd8e7f2e47f3a6eb71757dfc6e784c1459d26270140c2c147d95ca985c80026fc5301c3eca17f8a7e378434598edc36d108689a030cbc9d7d465de4f74c71bae1028eed6a881b181862000240640100000000026401000000009004565b620002387f8230223f691b981717299fae9549350a0d894555723531f02108b1f522c1a7977f6da5e1284143cdd2d15038a59bde3be031250f00291d64494c12d967b3a4e0c37fc53637662700e6c65104059db8bba34439e0c32483ab7c34e3ccae52c7395495181862000240640100000000026401000000009004565b50506200071d565b63ffffffff7c010000000000000000000000000000000000000000000000000000000002817bffffffffffffffffffffffffffffffffffffffffffffffffffffffff191603620002c7576040517f08c379a0000000000000000000000000000000000000000000000000000000008152600401620002be90620006fb565b60405180910390fd5b6001600080837bffffffffffffffffffffffffffffffffffffffffffffffffffffffff19167bffffffffffffffffffffffffffffffffffffffffffffffffffffffff1916815260200190815260200160002060006101000a81548160ff02191690831515021790555050565b600081519050919050565b7f4e487b7100000000000000000000000000000000000000000000000000000000600052604160045260246000fd5b7f4e487b7100000000000000000000000000000000000000000000000000000000600052602260045260246000fd5b60006002820490506001821680620003b557607f821691505b602082108103620003cb57620003ca6200036d565b5b50919050565b60008190508160005260206000209050919050565b60006020601f8301049050919050565b60008160020a8302905092915050565b600060088302620004387fffffffffffffffffffffffffffffffffffffffffffffffffffffffffffffffff82620003f6565b620004448683620003f6565b95508019841693508086168417925050509392505050565b6000819050919050565b6000819050919050565b6000620004916200048b62000485846200045c565b62000466565b6200045c565b9050919050565b6000819050919050565b620004ad8362000470565b620004c5620004bc8262000498565b84845462000406565b825550505050565b600090565b620004dc620004cd565b620004e9818484620004a2565b505050565b5b81811015620005115762000505600082620004d2565b600181019050620004ef565b5050565b601f82111562000560576200052a81620003d1565b6200053584620003e6565b8101602085101562000545578190505b6200055d6200055485620003e6565b830182620004ee565b50505b505050565b60008160020a8304905092915050565b6000620005886000198460080262000565565b1980831691505092915050565b6000620005a3838362000575565b9150826002028217905092915050565b620005be8262000333565b67ffffffffffffffff811115620005da57620005d96200033e565b5b620005e682546200039c565b620005f382828562000515565b600060209050601f8311600181146200062b576000841562000616578287015190505b62000622858262000595565b86555062000692565b601f1984166200063b86620003d1565b60005b8281101562000665578489015182556001820191506020850194506020810190506200063e565b8683101562000685578489015162000681601f89168262000575565b8355505b6001600288020188555050505b505050505050565b600082825260208201905092915050565b7f496e76616c696420496e74657266616365207265717565737400000000000000600082015250565b6000620006e36019836200069a565b9150620006f082620006ab565b602082019050919050565b600060208201905081810360008301526200071681620006d4565b9050919050565b611f94806200072d6000396000f3fe608060405234801561001057600080fd5b50600436106100d1576000357c0100000000000000000000000000000000000000000000000000000000900480634f6ccce71161008e5780634f6ccce7146101aa5780636352211e146101da57806370a082311461020a57806395d89b411461023a578063a4308f8c14610258578063d85d3d2714610288576100d1565b806301ffc9a7146100d657806306fdde0314610106578063095ea7b31461012457806318160ddd1461014057806323b872dd1461015e5780632f745c591461017a575b600080fd5b6100f060048036038101906100eb9190611105565b6102a4565b6040516100fd919061114d565b60405180910390f35b61010e61030b565b60405161011b91906111f8565b60405180910390f35b61013e600480360381019061013991906112ae565b61039d565b005b610148610538565b60405161015591906112fd565b60405180910390f35b61017860048036038101906101739190611318565b610545565b005b610194600480360381019061018f91906112ae565b610568565b6040516101a191906112fd565b60405180910390f35b6101c460048036038101906101bf919061136b565b610618565b6040516101d191906112fd565b60405180910390f35b6101f460048036038101906101ef919061136b565b610689565b60405161020191906113a7565b60405180910390f35b610224600480360381019061021f91906113c2565b610767565b60405161023191906112fd565b60405180910390f35b610242610821565b60405161024f91906111f8565b60405180910390f35b610272600480360381019061026d919061136b565b6108b3565b60405161027f91906111f8565b60405180910390f35b6102a2600480360381019061029d9190611524565b61095f565b005b6000806000837bffffffffffffffffffffffffffffffffffffffffffffffffffffffff19167bffffffffffffffffffffffffffffffffffffffffffffffffffffffff1916815260200190815260200160002060009054906101000a900460ff169050919050565b60606001805461031a9061159c565b80601f01602080910402602001604051908101604052809291908181526020018280546103469061159c565b80156103935780601f1061036857610100808354040283529160200191610393565b820191906000526020600020905b81548152906001019060200180831161037657829003601f168201915b5050505050905090565b60006103a882610689565b90508073ffffffffffffffffffffffffffffffffffffffff168373ffffffffffffffffffffffffffffffffffffffff1603610418576040517f08c379a000000000000000000000000000000000000000000000000000000000815260040161040f9061163f565b60405180910390fd5b8073ffffffffffffffffffffffffffffffffffffffff163373ffffffffffffffffffffffffffffffffffffffff1614610486576040517f08c379a000000000000000000000000000000000000000000000000000000000815260040161047d906116d1565b60405180910390fd5b826005600084815260200190815260200160002060006101000a81548173ffffffffffffffffffffffffffffffffffffffff021916908373ffffffffffffffffffffffffffffffffffffffff160217905550818373ffffffffffffffffffffffffffffffffffffffff168273ffffffffffffffffffffffffffffffffffffffff167f8c5be1e5ebec7d5bd14f71427d1e84f3dd0314c0f7b2291e5b200ac8c7c3b92560405160405180910390a4505050565b6000600680549050905090565b61054f3382610a5b565b61055857600080fd5b610563838383610aea565b505050565b600061057383610767565b82106105b4576040517f08c379a00000000000000000000000000000000000000000000000000000000081526004016105ab9061173d565b60405180910390fd5b600860008473ffffffffffffffffffffffffffffffffffffffff1673ffffffffffffffffffffffffffffffffffffffff16815260200190815260200160002082815481106106055761060461175d565b5b9060005260206000200154905092915050565b6000610622610538565b8210610663576040517f08c379a000000000000000000000000000000000000000000000000000000000815260040161065a906117d8565b60405180910390fd5b600682815481106106775761067661175d565b5b90600052602060002001549050919050565b60008073ffffffffffffffffffffffffffffffffffffffff166003600084815260200190815260200160002060009054906101000a900473ffffffffffffffffffffffffffffffffffffffff1673ffffffffffffffffffffffffffffffffffffffff160361072c576040517f08c379a000000000000000000000000000000000000000000000000000000000815260040161072390611844565b60405180910390fd5b6003600083815260200190815260200160002060009054906101000a900473ffffffffffffffffffffffffffffffffffffffff169050919050565b600081600073ffffffffffffffffffffffffffffffffffffffff168173ffffffffffffffffffffffffffffffffffffffff16036107d9576040517f08c379a00000000000000000000000000000000000000000000000000000000081526004016107d0906118b0565b60405180910390fd5b600460008473ffffffffffffffffffffffffffffffffffffffff1673ffffffffffffffffffffffffffffffffffffffff16815260200190815260200160002054915050919050565b6060600280546108309061159c565b80601f016020809104026020016040519081016040528092919081815260200182805461085c9061159c565b80156108a95780601f1061087e576101008083540402835291602001916108a9565b820191906000526020600020905b81548152906001019060200180831161088c57829003601f168201915b5050505050905090565b600a81815481106108c357600080fd5b9060005260206000200160009150905080546108de9061159c565b80601f016020809104026020016040519081016040528092919081815260200182805461090a9061159c565b80156109575780601f1061092c57610100808354040283529160200191610957565b820191906000526020600020905b81548152906001019060200180831161093a57829003601f168201915b505050505081565b600b8160405161096f919061190c565b908152602001604051809103902060009054906101000a900460ff16156109cb576040517f08c379a00000000000000000000000000000000000000000000000000000000081526004016109c290611995565b60405180910390fd5b600a819080600181540180825580915050600190039060005260206000200160009091909190915090816109ff9190611b67565b5060006001600a80549050610a149190611c68565b9050610a203382610d2f565b6001600b83604051610a32919061190c565b908152602001604051809103902060006101000a81548160ff0219169083151502179055505050565b6000610a6682610d50565b610aa5576040517f08c379a0000000000000000000000000000000000000000000000000000000008152600401610a9c90611ce8565b60405180910390fd5b6000610ab083610689565b90508073ffffffffffffffffffffffffffffffffffffffff168473ffffffffffffffffffffffffffffffffffffffff161491505092915050565b600073ffffffffffffffffffffffffffffffffffffffff168273ffffffffffffffffffffffffffffffffffffffff1603610b59576040517f08c379a0000000000000000000000000000000000000000000000000000000008152600401610b5090611d7a565b60405180910390fd5b8273ffffffffffffffffffffffffffffffffffffffff16610b7982610689565b73ffffffffffffffffffffffffffffffffffffffff1614610bcf576040517f08c379a0000000000000000000000000000000000000000000000000000000008152600401610bc690611e0c565b60405180910390fd5b6001600460008573ffffffffffffffffffffffffffffffffffffffff1673ffffffffffffffffffffffffffffffffffffffff1681526020019081526020016000206000828254610c1f9190611c68565b925050819055506001600460008473ffffffffffffffffffffffffffffffffffffffff1673ffffffffffffffffffffffffffffffffffffffff1681526020019081526020016000206000828254610c769190611e2c565b92505081905550816003600083815260200190815260200160002060006101000a81548173ffffffffffffffffffffffffffffffffffffffff021916908373ffffffffffffffffffffffffffffffffffffffff160217905550808273ffffffffffffffffffffffffffffffffffffffff168473ffffffffffffffffffffffffffffffffffffffff167fddf252ad1be2c89b69c2b068fc378daa952ba7f163c4a11628f55a4df523b3ef60405160405180910390a4505050565b610d398282610dcb565b610d4281610f8c565b610d4c8282610fd5565b5050565b60008073ffffffffffffffffffffffffffffffffffffffff166003600084815260200190815260200160002060009054906101000a900473ffffffffffffffffffffffffffffffffffffffff1673ffffffffffffffffffffffffffffffffffffffff1603610dc15760009050610dc6565b600190505b919050565b600073ffffffffffffffffffffffffffffffffffffffff168273ffffffffffffffffffffffffffffffffffffffff1603610e3a576040517f08c379a0000000000000000000000000000000000000000000000000000000008152600401610e3190611ed2565b60405180910390fd5b610e4381610d50565b15610e83576040517f08c379a0000000000000000000000000000000000000000000000000000000008152600401610e7a90611f3e565b60405180910390fd5b816003600083815260200190815260200160002060006101000a81548173ffffffffffffffffffffffffffffffffffffffff021916908373ffffffffffffffffffffffffffffffffffffffff1602179055506001600460008473ffffffffffffffffffffffffffffffffffffffff1673ffffffffffffffffffffffffffffffffffffffff1681526020019081526020016000206000828254610f259190611e2c565b92505081905550808273ffffffffffffffffffffffffffffffffffffffff16600073ffffffffffffffffffffffffffffffffffffffff167fddf252ad1be2c89b69c2b068fc378daa952ba7f163c4a11628f55a4df523b3ef60405160405180910390a45050565b6006805490506007600083815260200190815260200160002081905550600681908060018154018082558091505060019003906000526020600020016000909190919091505550565b600860008373ffffffffffffffffffffffffffffffffffffffff1673ffffffffffffffffffffffffffffffffffffffff168152602001908152602001600020805490506009600083815260200190815260200160002081905550600860008373ffffffffffffffffffffffffffffffffffffffff1673ffffffffffffffffffffffffffffffffffffffff1681526020019081526020016000208190806001815401808255809150506001900390600052602060002001600090919091909150555050565b6000604051905090565b600080fd5b600080fd5b60007fffffffff0000000000000000000000000000000000000000000000000000000082169050919050565b6110e2816110ad565b81146110ed57600080fd5b50565b6000813590506110ff816110d9565b92915050565b60006020828403121561111b5761111a6110a3565b5b6000611129848285016110f0565b91505092915050565b60008115159050919050565b61114781611132565b82525050565b6000602082019050611162600083018461113e565b92915050565b600081519050919050565b600082825260208201905092915050565b60005b838110156111a2578082015181840152602081019050611187565b60008484015250505050565b6000601f19601f8301169050919050565b60006111ca82611168565b6111d48185611173565b93506111e4818560208601611184565b6111ed816111ae565b840191505092915050565b6000602082019050818103600083015261121281846111bf565b905092915050565b600073ffffffffffffffffffffffffffffffffffffffff82169050919050565b60006112458261121a565b9050919050565b6112558161123a565b811461126057600080fd5b50565b6000813590506112728161124c565b92915050565b6000819050919050565b61128b81611278565b811461129657600080fd5b50565b6000813590506112a881611282565b92915050565b600080604083850312156112c5576112c46110a3565b5b60006112d385828601611263565b92505060206112e485828601611299565b9150509250929050565b6112f781611278565b82525050565b600060208201905061131260008301846112ee565b92915050565b600080600060608486031215611331576113306110a3565b5b600061133f86828701611263565b935050602061135086828701611263565b925050604061136186828701611299565b9150509250925092565b600060208284031215611381576113806110a3565b5b600061138f84828501611299565b91505092915050565b6113a18161123a565b82525050565b60006020820190506113bc6000830184611398565b92915050565b6000602082840312156113d8576113d76110a3565b5b60006113e684828501611263565b91505092915050565b600080fd5b600080fd5b7f4e487b7100000000000000000000000000000000000000000000000000000000600052604160045260246000fd5b611431826111ae565b810181811067ffffffffffffffff821117156114505761144f6113f9565b5b80604052505050565b6000611463611099565b905061146f8282611428565b919050565b600067ffffffffffffffff82111561148f5761148e6113f9565b5b611498826111ae565b9050602081019050919050565b82818337600083830152505050565b60006114c76114c284611474565b611459565b9050828152602081018484840111156114e3576114e26113f4565b5b6114ee8482856114a5565b509392505050565b600082601f83011261150b5761150a6113ef565b5b813561151b8482602086016114b4565b91505092915050565b60006020828403121561153a576115396110a3565b5b600082013567ffffffffffffffff811115611558576115576110a8565b5b611564848285016114f6565b91505092915050565b7f4e487b7100000000000000000000000000000000000000000000000000000000600052602260045260246000fd5b600060028204905060018216806115b457607f821691505b6020821081036115c7576115c661156d565b5b50919050565b7f4572726f72202d20617070726f76616c20746f2063757272656e74206f776e6560008201527f7200000000000000000000000000000000000000000000000000000000000000602082015250565b6000611629602183611173565b9150611634826115cd565b604082019050919050565b600060208201905081810360008301526116588161161c565b9050919050565b7f43757272656e742063616c6c6572206973206e6f7420746865206f776e65726f60008201527f662074686520746f6b656e000000000000000000000000000000000000000000602082015250565b60006116bb602b83611173565b91506116c68261165f565b604082019050919050565b600060208201905081810360008301526116ea816116ae565b9050919050565b7f6f776e657220696e646578206973206f7574206f662072616e67650000000000600082015250565b6000611727601b83611173565b9150611732826116f1565b602082019050919050565b600060208201905081810360008301526117568161171a565b9050919050565b7f4e487b7100000000000000000000000000000000000000000000000000000000600052603260045260246000fd5b7f476c6f61626c20696e646578206973206f7574206f6620626f756e6473210000600082015250565b60006117c2601e83611173565b91506117cd8261178c565b602082019050919050565b600060208201905081810360008301526117f1816117b5565b9050919050565b7f546f6b656e20646f65736e277420657869737421000000000000000000000000600082015250565b600061182e601483611173565b9150611839826117f8565b602082019050919050565b6000602082019050818103600083015261185d81611821565b9050919050565b7f546f6b656e20446f65736e277420457869737473000000000000000000000000600082015250565b600061189a601483611173565b91506118a582611864565b602082019050919050565b600060208201905081810360008301526118c98161188d565b9050919050565b600081905092915050565b60006118e682611168565b6118f081856118d0565b9350611900818560208601611184565b80840191505092915050565b600061191882846118db565b915081905092915050565b7f44616e6720697421212c2049204861766520616c7265616479206265656e206d60008201527f696e746564000000000000000000000000000000000000000000000000000000602082015250565b600061197f602583611173565b915061198a82611923565b604082019050919050565b600060208201905081810360008301526119ae81611972565b9050919050565b60008190508160005260206000209050919050565b60006020601f8301049050919050565b60008160020a8302905092915050565b600060088302611a1a7fffffffffffffffffffffffffffffffffffffffffffffffffffffffffffffffff826119da565b611a2486836119da565b95508019841693508086168417925050509392505050565b6000819050919050565b6000611a61611a5c611a5784611278565b611a3c565b611278565b9050919050565b6000819050919050565b611a7b83611a46565b611a8f611a8782611a68565b8484546119ea565b825550505050565b600090565b611aa4611a97565b611aaf818484611a72565b505050565b5b81811015611ad357611ac8600082611a9c565b600181019050611ab5565b5050565b601f821115611b1857611ae9816119b5565b611af2846119ca565b81016020851015611b01578190505b611b15611b0d856119ca565b830182611ab4565b50505b505050565b60008160020a8304905092915050565b6000611b3e60001984600802611b1d565b1980831691505092915050565b6000611b578383611b2d565b9150826002028217905092915050565b611b7082611168565b67ffffffffffffffff811115611b8957611b886113f9565b5b611b93825461159c565b611b9e828285611ad7565b600060209050601f831160018114611bd15760008415611bbf578287015190505b611bc98582611b4b565b865550611c31565b601f198416611bdf866119b5565b60005b82811015611c0757848901518255600182019150602085019450602081019050611be2565b86831015611c245784890151611c20601f891682611b2d565b8355505b6001600288020188555050505b505050505050565b7f4e487b7100000000000000000000000000000000000000000000000000000000600052601160045260246000fd5b6000611c7382611278565b9150611c7e83611278565b9250828203905081811115611c9657611c95611c39565b5b92915050565b7f746f6b656e20646f6573206e6f74206578697374730000000000000000000000600082015250565b6000611cd2601583611173565b9150611cdd82611c9c565b602082019050919050565b60006020820190508181036000830152611d0181611cc5565b9050919050565b7f4572726f72202d20455243373231205472616e7366657220746f20302041646460008201527f7265737300000000000000000000000000000000000000000000000000000000602082015250565b6000611d64602483611173565b9150611d6f82611d08565b604082019050919050565b60006020820190508181036000830152611d9381611d57565b9050919050565b7f547279696e6720746f207472616e73666572206120746f6b656e20746865206160008201527f64647265737320646f6573206e6f74202d2d2d2d2d0000000000000000000000602082015250565b6000611df6603583611173565b9150611e0182611d9a565b604082019050919050565b60006020820190508181036000830152611e2581611de9565b9050919050565b6000611e3782611278565b9150611e4283611278565b9250828201905080821115611e5a57611e59611c39565b5b92915050565b7f4552433732313a206d696e74696e6720746f207468652030206164647265737360008201527f2e00000000000000000000000000000000000000000000000000000000000000602082015250565b6000611ebc602183611173565b9150611ec782611e60565b604082019050919050565b60006020820190508181036000830152611eeb81611eaf565b9050919050565b7f4552433732313a20746f6b656e20616c7265616479206578697374732e000000600082015250565b6000611f28601d83611173565b9150611f3382611ef2565b602082019050919050565b60006020820190508181036000830152611f5781611f1b565b905091905056fea2646970667358221220733aaef2959be620a9314fbba9d10d42757605c6d5b7553789f720c7ebc8c36a64736f6c63430008110033",
  "immutableReferences": {},
  "source": "// SPDX-License-Identifier: MIT\r\npragma solidity >=0.4.22 <0.9.0;\r\nimport \"./ERC721Connector.sol\";\r\n\r\ncontract kryptoBirdz is ERC721Connector {\r\n    // now what i have to do is, to store the NFTS,\r\n    // storing of NFT's can be done using array.\r\n    string[] public kryptoBirdzNFTs;\r\n    mapping(string => bool) _kryptoBirdzNFTExists;\r\n\r\n    function mint(string memory _kryptoBird) public {\r\n        //validation that the kryptobird we are minting has not yet minted.\r\n        require(\r\n            !_kryptoBirdzNFTExists[_kryptoBird],\r\n            \"Dang it!!, I Have already been minted\"\r\n        );\r\n\r\n        kryptoBirdzNFTs.push(_kryptoBird);\r\n        uint256 _id = kryptoBirdzNFTs.length - 1;\r\n        _mint(msg.sender, _id);\r\n        //everytime we mint, then we are making sure that particular NFT is not minted again.\r\n        _kryptoBirdzNFTExists[_kryptoBird] = true;\r\n    }\r\n\r\n    constructor() public ERC721Connector(\"KryptoBirdz\", \"KrptoBz\") {}\r\n}\r\n",
  "sourcePath": "C:\\Users\\Neeraj\\Desktop\\Sterling Store\\src\\contracts\\KryptoBirdz.sol",
  "compiler": {
    "name": "solc",
    "version": "0.8.17+commit.8df45f5f.Emscripten.clang"
  },
  "schemaVersion": "3.4.11",
  "updatedAt": "2023-01-14T17:02:27.453Z",
  "devdoc": {
    "kind": "dev",
    "methods": {},
    "version": 1
  },
  "userdoc": {
    "kind": "user",
    "methods": {},
    "version": 1
  }
}