{
  "contractName": "Voting",
  "abi": [
    {
      "inputs": [
        {
          "internalType": "contract NFT",
          "name": "_nft",
          "type": "address"
        }
      ],
      "stateMutability": "nonpayable",
      "type": "constructor"
    },
    {
      "inputs": [
        {
          "internalType": "string",
          "name": "",
          "type": "string"
        }
      ],
      "name": "votingRecord",
      "outputs": [
        {
          "internalType": "string",
          "name": "votingName",
          "type": "string"
        },
        {
          "internalType": "bool",
          "name": "votingStarted",
          "type": "bool"
        },
        {
          "internalType": "bool",
          "name": "resultDeclared",
          "type": "bool"
        },
        {
          "internalType": "address",
          "name": "owner",
          "type": "address"
        }
      ],
      "stateMutability": "view",
      "type": "function"
    },
    {
      "inputs": [
        {
          "internalType": "uint256",
          "name": "_index",
          "type": "uint256"
        }
      ],
      "name": "findActiveVotingsId",
      "outputs": [
        {
          "internalType": "string",
          "name": "",
          "type": "string"
        }
      ],
      "stateMutability": "view",
      "type": "function"
    },
    {
      "inputs": [],
      "name": "activeVotingLength",
      "outputs": [
        {
          "internalType": "uint256",
          "name": "",
          "type": "uint256"
        }
      ],
      "stateMutability": "view",
      "type": "function"
    },
    {
      "inputs": [
        {
          "internalType": "string",
          "name": "_tokenId",
          "type": "string"
        }
      ],
      "name": "getVotingName",
      "outputs": [
        {
          "internalType": "string",
          "name": "",
          "type": "string"
        }
      ],
      "stateMutability": "view",
      "type": "function"
    },
    {
      "inputs": [
        {
          "internalType": "string",
          "name": "_id",
          "type": "string"
        },
        {
          "internalType": "string",
          "name": "_votingName",
          "type": "string"
        }
      ],
      "name": "createNewVoting",
      "outputs": [],
      "stateMutability": "nonpayable",
      "type": "function"
    },
    {
      "inputs": [
        {
          "internalType": "string",
          "name": "_id",
          "type": "string"
        },
        {
          "internalType": "string",
          "name": "_contestant",
          "type": "string"
        }
      ],
      "name": "addChoices",
      "outputs": [],
      "stateMutability": "nonpayable",
      "type": "function"
    },
    {
      "inputs": [
        {
          "internalType": "string",
          "name": "_id",
          "type": "string"
        }
      ],
      "name": "viewChoices",
      "outputs": [
        {
          "internalType": "string[]",
          "name": "",
          "type": "string[]"
        }
      ],
      "stateMutability": "view",
      "type": "function"
    },
    {
      "inputs": [
        {
          "internalType": "string",
          "name": "_id",
          "type": "string"
        },
        {
          "internalType": "string",
          "name": "_votedFor",
          "type": "string"
        }
      ],
      "name": "newVote",
      "outputs": [],
      "stateMutability": "nonpayable",
      "type": "function"
    },
    {
      "inputs": [
        {
          "internalType": "string",
          "name": "_id",
          "type": "string"
        }
      ],
      "name": "startVoting",
      "outputs": [],
      "stateMutability": "nonpayable",
      "type": "function"
    },
    {
      "inputs": [
        {
          "internalType": "string",
          "name": "_id",
          "type": "string"
        }
      ],
      "name": "checkResult",
      "outputs": [
        {
          "internalType": "string",
          "name": "",
          "type": "string"
        },
        {
          "internalType": "uint256",
          "name": "",
          "type": "uint256"
        }
      ],
      "stateMutability": "nonpayable",
      "type": "function"
    }
  ],
  "bytecode": "0x608060405234801561001057600080fd5b5060405161197838038061197883398101604081905261002f91610054565b60008054600160a060020a031916600160a060020a0392909216919091179055610084565b60006020828403121561006657600080fd5b8151600160a060020a038116811461007d57600080fd5b9392505050565b6118e5806100936000396000f3fe608060405234801561001057600080fd5b50600436106100bb576000357c01000000000000000000000000000000000000000000000000000000009004806377fcf2511161008357806377fcf251146101455780637994afd2146101685780637b0261bb1461017b578063aa7401081461019b578063bd5f8a4d146101ae57600080fd5b806304fc2c0a146100c05780631522fe17146100e9578063174ce19d146100fe57806346834d1e1461011157806372d53d6e14610132575b600080fd5b6100d36100ce366004611362565b6101bf565b6040516100e091906113ef565b60405180910390f35b6100fc6100f7366004611409565b610270565b005b6100fc61010c366004611409565b6104d1565b61012461011f366004611362565b6108e4565b6040516100e092919061146d565b6100fc610140366004611362565b610d99565b610158610153366004611362565b610f8f565b6040516100e0949392919061148f565b6100d36101763660046114c7565b61105d565b61018e610189366004611362565b611087565b6040516100e091906114e0565b6100fc6101a9366004611409565b611181565b6004546040519081526020016100e0565b60606001826040516101d19190611541565b90815260405190819003602001902080546101eb9061155d565b80601f01602080910402602001604051908101604052809291908181526020018280546102179061155d565b80156102645780601f1061023957610100808354040283529160200191610264565b820191906000526020600020905b81548152906001019060200180831161024757829003601f168201915b50505050509050919050565b816001816040516102819190611541565b9081526040519081900360200190206001015460ff16156103385760405160e560020a62461bcd02815260206004820152604160248201527f43616e6e6f7420416464204e65772063686f696365732c20626563617573652060448201527f74686520766f74696e672068617320616c72656164792073746172746564212160648201527f2100000000000000000000000000000000000000000000000000000000000000608482015260a4015b60405180910390fd5b33600160a060020a03166001846040516103529190611541565b90815260405190819003602001902060010154600160a060020a036201000090910416146103eb5760405160e560020a62461bcd02815260206004820152603f60248201527f596f75206e6565642074686520656e746974792074686174207374617274656460448201527f20766f74696e6720746f20616464206e6577207061727469636970616e747300606482015260840161032f565b6001836040516103fb9190611541565b9081526040519081900360200190206001015460ff610100909104161561048d5760405160e560020a62461bcd02815260206004820152603d60248201527f596f752063616e6e6f74206164642061206e65772063686f6963652061732c2060448201527f526573756c7420697320616c7265616479206465636c617265642e2e2e000000606482015260840161032f565b60018360405161049d9190611541565b9081526040516020918190038201902060050180546001810182556000918252919020016104cb83826115e9565b50505050565b81336001826040516104e39190611541565b9081526040805160209281900383019020600160a060020a0384166000908152600390910190925290205460ff16156105615760405160e560020a62461bcd02815260206004820181905260248201527f596f75206861766520616c726561647920636173746564206120766f74652121604482015260640161032f565b6001846040516105719190611541565b90815260405190819003602001902060019081015460ff161515146105db5760405160e560020a62461bcd02815260206004820152601d60248201527f566f74696e6720686173206e6f742073746172746564205965742e2e2e000000604482015260640161032f565b6001846040516105eb9190611541565b9081526040519081900360200190206001015460ff610100909104161561067d5760405160e560020a62461bcd02815260206004820152603760248201527f596f752063616e6e6f7420636173742074686520766f74652c20526573756c7460448201527f20697320616c7265616479206465636c617265642e2e2e000000000000000000606482015260840161032f565b600080546040517f1bc2edae000000000000000000000000000000000000000000000000000000008152336004820152600160a060020a0390911690631bc2edae90602401602060405180830381865afa1580156106df573d6000803e3d6000fd5b505050506040513d601f19601f8201168201806040525081019061070391906116af565b116107795760405160e560020a62461bcd02815260206004820152603460248201527f506c65617365206f776e2061205370656369616c204e465420696e206f72646560448201527f7220746f20436173746520796f757220566f7465000000000000000000000000606482015260840161032f565b600054600160a060020a031663a98baaf13361079842620151806116e1565b6040517c010000000000000000000000000000000000000000000000000000000063ffffffff8516028152600160a060020a0390921660048301526024820152604401600060405180830381600087803b1580156107f557600080fd5b505af1158015610809573d6000803e3d6000fd5b505050506001808560405161081e9190611541565b908152604080516020928190038301812033600090815260039091019093529120805460ff191692151592909217909155839060019061085f908790611541565b9081526040805160209281900383019020336000908152600490910190925290209061088b90826115e9565b506001808560405161089d9190611541565b9081526020016040518091039020600201846040516108bc9190611541565b908152602001604051809103902060008282546108d991906116e1565b909155505050505050565b606060008233600160a060020a03166001826040516109039190611541565b90815260405190819003602001902060010154600160a060020a0362010000909104161461099c5760405160e560020a62461bcd02815260206004820152603160248201527f596f75206e65656420746f20626520746865206f776e657220746f206465636c60448201527f6172652074686520726573756c74732e2e000000000000000000000000000000606482015260840161032f565b600180856040516109ad9190611541565b9081526040805160209281900383018120600101805461ff00191661010095151595909502949094179093559082019052600080825290815b6001876040516109f69190611541565b90815260405190819003602001902060050154811015610be557600187604051610a209190611541565b9081526020016040518091039020600201600188604051610a419190611541565b90815260200160405180910390206005018281548110610a6357610a636116fa565b90600052602060002001604051610a7a9190611713565b908152602001604051809103902054831015610bd357600187604051610aa09190611541565b9081526020016040518091039020600201600188604051610ac19190611541565b90815260200160405180910390206005018281548110610ae357610ae36116fa565b90600052602060002001604051610afa9190611713565b9081526020016040518091039020549250600187604051610b1b9190611541565b90815260200160405180910390206005018181548110610b3d57610b3d6116fa565b906000526020600020018054610b529061155d565b80601f0160208091040260200160405190810160405280929190818152602001828054610b7e9061155d565b8015610bcb5780601f10610ba057610100808354040283529160200191610bcb565b820191906000526020600020905b815481529060010190602001808311610bae57829003601f168201915b505050505091505b80610bdd81611789565b9150506109e6565b506040805160008152602081018083528151902091610c0691849101611541565b6040516020818303038152906040528051906020012003610c2a5793509150610d93565b6000600387604051610c3c9190611541565b908152604051908190036020018120805492151560ff1990931692909217909155600090600590610c6e908990611541565b908152602001604051809103902054905080600560046001600480549050610c9691906117a2565b81548110610ca657610ca66116fa565b90600052602060002001604051610cbd9190611713565b9081526040519081900360200190205560048054610cdd906001906117a2565b81548110610ced57610ced6116fa565b9060005260206000200160048281548110610d0a57610d0a6116fa565b906000526020600020019081610d2091906117b5565b506004805480610d3257610d32611896565b600190038181906000526020600020016000610d4e9190611266565b905582600288604051610d619190611541565b908152602001604051809103902083604051610d7d9190611541565b9081526040519081900360200190205550935091505b50915091565b600181604051610da99190611541565b90815260405160209181900391909101902060010154620100009004600160a060020a03163314610e455760405160e560020a62461bcd02815260206004820152603f60248201527f596f752063616e6e6f742073746172742074686520766f74696e672e20596f7560448201527f206e65656420746865206f776e6572206f66207468697320766f74696e672e00606482015260840161032f565b600181604051610e559190611541565b9081526040519081900360200190206001015460ff1615610ebb5760405160e560020a62461bcd02815260206004820152601b60248201527f566f74696e672068617320616c726561647920737461727465642e0000000000604482015260640161032f565b60018082604051610ecc9190611541565b9081526040519081900360200190206001908101805492151560ff19909316929092179091556004805491820181556000527f8a35acfbc15ff81a39ae7d344fd709f28e8600b4aa8c65c6b64bfe7fe36bd19b01610f2a82826115e9565b506001600382604051610f3d9190611541565b908152604051908190036020019020805491151560ff19909216919091179055600454610f6c906001906117a2565b600582604051610f7c9190611541565b9081526040519081900360200190205550565b8051602081830181018051600182529282019190930120915280548190610fb59061155d565b80601f0160208091040260200160405190810160405280929190818152602001828054610fe19061155d565b801561102e5780601f106110035761010080835404028352916020019161102e565b820191906000526020600020905b81548152906001019060200180831161101157829003601f168201915b5050506001909301549192505060ff80821691610100810490911690600160a060020a03620100009091041684565b606060048281548110611072576110726116fa565b9060005260206000200180546101eb9061155d565b60606001826040516110999190611541565b9081526020016040518091039020600501805480602002602001604051908101604052809291908181526020016000905b828210156111765783829060005260206000200180546110e99061155d565b80601f01602080910402602001604051908101604052809291908181526020018280546111159061155d565b80156111625780601f1061113757610100808354040283529160200191611162565b820191906000526020600020905b81548152906001019060200180831161114557829003601f168201915b5050505050815260200190600101906110ca565b505050509050919050565b806001836040516111929190611541565b908152604051908190036020019020906111ac90826115e9565b5060006001836040516111bf9190611541565b9081526040519081900360200181206001908101805493151560ff19909416939093179092553391906111f3908590611541565b908152602001604051809103902060010160026101000a815481600160a060020a030219169083600160a060020a03160217905550600060018360405161123a9190611541565b90815260405190819003602001902060010180549115156101000261ff00199092169190911790555050565b5080546112729061155d565b6000825580601f10611282575050565b601f0160209004906000526020600020908101906112a091906112a3565b50565b5b808211156112b857600081556001016112a4565b5090565b60e060020a634e487b7102600052604160045260246000fd5b600082601f8301126112e657600080fd5b813567ffffffffffffffff80821115611301576113016112bc565b604051601f8301601f19908116603f01168101908282118183101715611329576113296112bc565b8160405283815286602085880101111561134257600080fd5b836020870160208301376000602085830101528094505050505092915050565b60006020828403121561137457600080fd5b813567ffffffffffffffff81111561138b57600080fd5b611397848285016112d5565b949350505050565b60005b838110156113ba5781810151838201526020016113a2565b50506000910152565b600081518084526113db81602086016020860161139f565b601f01601f19169290920160200192915050565b60208152600061140260208301846113c3565b9392505050565b6000806040838503121561141c57600080fd5b823567ffffffffffffffff8082111561143457600080fd5b611440868387016112d5565b9350602085013591508082111561145657600080fd5b50611463858286016112d5565b9150509250929050565b60408152600061148060408301856113c3565b90508260208301529392505050565b6080815260006114a260808301876113c3565b9415156020830152509115156040830152600160a060020a0316606090910152919050565b6000602082840312156114d957600080fd5b5035919050565b600060208083018184528085518083526040860191506040848202870101925083870160005b8281101561153457603f198886030184526115228583516113c3565b94509285019290850190600101611506565b5092979650505050505050565b6000825161155381846020870161139f565b9190910192915050565b60028104600182168061157157607f821691505b6020821081036115945760e060020a634e487b7102600052602260045260246000fd5b50919050565b601f8211156115e4576000818152602081206020601f860104810160208610156115c15750805b6020601f860104820191505b818110156115e0578281556001016115cd565b5050505b505050565b815167ffffffffffffffff811115611603576116036112bc565b61161781611611845461155d565b8461159a565b602080601f83116001811461165057600084156116345750858301515b60028086026008870290910a60001904198216178655506115e0565b600085815260208120601f198616915b8281101561167f57888601518255948401946001909101908401611660565b508582101561169f57878501516008601f88160260020a60001904191681555b5050505050600202600101905550565b6000602082840312156116c157600080fd5b5051919050565b60e060020a634e487b7102600052601160045260246000fd5b808201808211156116f4576116f46116c8565b92915050565b60e060020a634e487b7102600052603260045260246000fd5b60008083546117218161155d565b60018281168015611739576001811461174e5761177d565b60ff198416875282151583028701945061177d565b8760005260208060002060005b858110156117745781548a82015290840190820161175b565b50505082870194505b50929695505050505050565b60006001820161179b5761179b6116c8565b5060010190565b818103818111156116f4576116f46116c8565b8181036117c0575050565b6117ca825461155d565b67ffffffffffffffff8111156117e2576117e26112bc565b6117f081611611845461155d565b6000601f821160018114611828576000831561180c5750848201545b60028085026008860290910a600019041982161785555061188f565b600085815260209020601f19841690600086815260209020845b838110156118625782860154825560019586019590910190602001611842565b508583101561188257818501546008601f88160260020a60001904191681555b5050506001600284020184555b5050505050565b60e060020a634e487b7102600052603160045260246000fdfea264697066735822122081803badb90b566bfb8d4d9e56667ac06f261b93c9f1675180d5b1c4fe63c7bc64736f6c63430008140033",
  "immutableReferences": {},
  "source": "// SPDX-License-Identifier: MIT\r\npragma solidity >=0.4.22 <0.9.0;\r\nimport \"./NFT.sol\";\r\n\r\n//NEW INSTRUCTIONS TO DO\r\n//NFT MAI MAPPING BANAYI HAI DIFFERNT TYPES KI,\r\n// TO SABSE PHLE CHECK KRNA KI VOTE KR SKTA HAI YA NAHI BY USING MAPPING.\r\n// USKE BD USS NFT KO HARR MAPPING SE HATA DO YA FIR FALSE KRDO...AUR NAI TO CONTRACT ADDRESS PE TRANSFER KRNA HAI DIRECT...\r\n// TRANSFER FROM FUNCTION BHI BANANA HAI, JISME SE KI, JB TRANSFER HOTO SARI MAPPING UPDATE HO JAYE.\r\n// AND LAST BUT NOT THE LEAST, JAISE HE VOTE HO TB NFT TRANSFER HONI CHAHIUE.\r\ncontract Voting {\r\n    NFT nft_;\r\n\r\n    constructor(NFT _nft) {\r\n        nft_ = _nft;\r\n    }\r\n\r\n    struct participants {\r\n        //this will be the name of the voting that is being conducted....\r\n        string votingName;\r\n        //votingStarted tells wether the voting has started or not?\r\n        bool votingStarted;\r\n        //resultDeclared makes sure that this voting is not again accessed once its result has been declared.\r\n        bool resultDeclared;\r\n        //owner of the current voting\r\n        address owner;\r\n        //voteCount\r\n        mapping(string => uint256) voteCount;\r\n        //hasVoted\r\n        mapping(address => bool) hasVoted;\r\n        //votedFro\r\n        mapping(address => string) votedFor;\r\n        //array for all the participants or the choices available to vote...\r\n        string[] choices;\r\n    }\r\n    /*****\r\n    This mapping contains the \r\n    parameters:\r\n    string => whereinm this will be id and each id will be uniquely generated by frontend.\r\n    participants => structure wherein, we are creating a new participants and each new will have new variables.\r\n    *****/\r\n    mapping(string => participants) public votingRecord;\r\n\r\n    //all the previous winners i.e id => nameOfWinner => VotedRecieved\r\n    mapping(string => mapping(string => uint256)) previousWinners;\r\n\r\n    //mapping wherein, we store all the active votings and when a result is declared, we remove that voting from mapping.\r\n    //id=>bool\r\n    mapping(string => bool) activeVotingMap;\r\n\r\n    //stores the active voting _id\r\n    string[] activeVoting;\r\n\r\n    //stores the id and its index... Index is based on the activeVoting Array.\r\n    //id=>index in array...\r\n    mapping(string => uint256) activeVotingIndex;\r\n\r\n    //takes index and returns the id of the voting present at that index.\r\n    //Returns the id of the active votings....\r\n    //was named as activeVotings make sure to change in js file also once this is dpeloyed again\r\n    function findActiveVotingsId(uint256 _index)\r\n        public\r\n        view\r\n        returns (string memory)\r\n    {\r\n        return activeVoting[_index];\r\n    }\r\n\r\n    //return active voting array's length...\r\n    function activeVotingLength() public view returns (uint256) {\r\n        return activeVoting.length;\r\n    }\r\n\r\n    function getVotingName(string memory _tokenId)\r\n        public\r\n        view\r\n        returns (string memory)\r\n    {\r\n        return votingRecord[_tokenId].votingName;\r\n    }\r\n\r\n    /*****\r\n    eligibleToVote : checks if the current user is eligible to vote in this voting or not?\r\n    parameters:\r\n    _id: this is the voting id, i.e for which voting is the person trying to vote\r\n    _voter: this is the address of the person who is voting\r\n    parameters:\r\n    *****/\r\n    modifier eligibleToVote(string memory _id, address _voter) {\r\n        require(\r\n            votingRecord[_id].hasVoted[_voter] == false,\r\n            \"You have already casted a vote!!\"\r\n        );\r\n        _;\r\n    }\r\n\r\n    /*****\r\n    votingStatus : modifier makes sure that once voting has started, no-one can add new participants.\r\n    parameters:\r\n    _id\r\n    *****/\r\n    modifier votingStatus(string memory _id) {\r\n        require(\r\n            votingRecord[_id].votingStarted == false,\r\n            \"Cannot Add New choices, because the voting has already started!!!\"\r\n        );\r\n        _;\r\n    }\r\n    /*****\r\n    onlyOwner : modifier makes sure that Only owner can stop the voting.\r\n    parameters:\r\n    _id\r\n    *****/\r\n    modifier onlyOwner(string memory _id) {\r\n        require(\r\n            votingRecord[_id].owner == msg.sender,\r\n            \"You need to be the owner to declare the results..\"\r\n        );\r\n        _;\r\n    }\r\n\r\n    /***** \r\n    createNewVoting: Created new voting instance, meaning a new voting is started.\r\n    parameters:\r\n    _id: id generated from the frontend, which is eventually storing all the voting for this voting instance.\r\n    _votingName: name of the current voting.\r\n    *****/\r\n\r\n    function createNewVoting(string memory _id, string memory _votingName)\r\n        public\r\n    {\r\n        // participants storage newParticipant = votingRecord[_id];\r\n        // votingRecord[_id] = newParticipant;\r\n        votingRecord[_id].votingName = _votingName;\r\n        votingRecord[_id].votingStarted = false;\r\n        votingRecord[_id].owner = msg.sender;\r\n        votingRecord[_id].resultDeclared = false;\r\n        // activeVoting.push(_id); //push at the last.\r\n        // activeVotingMap[_id] = true; //marking true of id in active votings...\r\n        // activeVotingIndex[_id] = activeVoting.length - 1; //store the id=>index\r\n    }\r\n\r\n    /***** \r\n    addChoices: Adds the participants in the choice only when the voting has not started, once it has started, it cannot be reversed back.\r\n    parameters:\r\n    Also only the owner of this voting can add new participants.\r\n    _id: id generated from the frontend, which is eventually storing all the voting for this voting instance.\r\n    _contestant: is the choices that we are going to get.\r\n    *****/\r\n    function addChoices(string memory _id, string memory _contestant)\r\n        public\r\n        votingStatus(_id)\r\n    {\r\n        require(\r\n            votingRecord[_id].owner == msg.sender,\r\n            \"You need the entity that started voting to add new participants\"\r\n        );\r\n        //makes sure that the voting has not been ended.\r\n        require(\r\n            votingRecord[_id].resultDeclared == false,\r\n            \"You cannot add a new choice as, Result is already declared...\"\r\n        );\r\n        votingRecord[_id].choices.push(_contestant);\r\n    }\r\n\r\n    /***** \r\n    viewChoices: is the function that returns all the choices available for the voting.\r\n    parameters:\r\n    \r\n    _id: id generated from the frontend, which is eventually storing all the voting for this voting instance.\r\n    Returns:\r\n    string[] memory: Returns all the choices available for that id.\r\n    *****/\r\n\r\n    function viewChoices(string memory _id)\r\n        public\r\n        view\r\n        returns (string[] memory)\r\n    {\r\n        return votingRecord[_id].choices;\r\n    }\r\n\r\n    /***** \r\n    newVote: Casts a new vote in the voting after checking if it is valid.\r\n    parameters:\r\n    _id: id generated from the frontend, which is eventually storing all the voting for this voting instance.\r\n    _contestant: is the choices that we are going to get.\r\n    *****/\r\n\r\n    //can also use indexing (like 0,1,2,3) but just to be on safer side using the string itself. ||Can be applied\r\n    //uint _till should either be fixed or dynamic for the time being i am commenting the code.\r\n    // , uint _till\r\n    function newVote(string memory _id, string memory _votedFor)\r\n        public\r\n        eligibleToVote(_id, msg.sender)\r\n    {\r\n        require(\r\n            votingRecord[_id].votingStarted == true,\r\n            \"Voting has not started Yet...\"\r\n        );\r\n        //makes sure that the voting has not been ended.\r\n        require(\r\n            votingRecord[_id].resultDeclared == false,\r\n            \"You cannot cast the vote, Result is already declared...\"\r\n        );\r\n        //calling len function because we cannot directly acess mapping. So have created functions for it.\r\n        //make sure that person has NFT....\r\n        require(\r\n            nft_.AllSpecialNFTLength(msg.sender) > 0,\r\n            \"Please own a Special NFT in order to Caste your Vote\"\r\n        );\r\n        // nft_.StakeSpecialNFT(msg.sender, _till);\r\n        //Set deafult time to 1Day = 86400 Seconds\r\n        nft_.StakeSpecialNFT(msg.sender, block.timestamp + 86400);\r\n        votingRecord[_id].hasVoted[msg.sender] = true;\r\n        votingRecord[_id].votedFor[msg.sender] = _votedFor;\r\n        votingRecord[_id].voteCount[_votedFor] += 1;\r\n    }\r\n\r\n    /***** \r\n    startVoting: Starts the voting if it has not already been started\r\n    parameters:\r\n    _id: id generated from the frontend, which is eventually storing all the voting for this voting instance.\r\n    *****/\r\n\r\n    function startVoting(string memory _id) public {\r\n        require(\r\n            msg.sender == votingRecord[_id].owner,\r\n            \"You cannot start the voting. You need the owner of this voting.\"\r\n        );\r\n        require(\r\n            votingRecord[_id].votingStarted == false,\r\n            \"Voting has already started.\"\r\n        );\r\n        votingRecord[_id].votingStarted = true;\r\n        activeVoting.push(_id); //push at the last.\r\n        activeVotingMap[_id] = true; //marking true of id in active votings...\r\n        activeVotingIndex[_id] = activeVoting.length - 1; //store the id=>index\r\n    }\r\n\r\n    /***** \r\n    checkResult: Returns the winner with the votes that he has recieved.\r\n    parameters:\r\n    _id: id generated from the frontend, which is eventually storing all the voting for this voting instance.\r\n    returns: name of the winner, and the votes recieved..\r\n    *****/\r\n    function checkResult(string memory _id)\r\n        public\r\n        onlyOwner(_id)\r\n        returns (string memory, uint256)\r\n    {\r\n        votingRecord[_id].resultDeclared = true; //updating the resultDecalred Counter\r\n        uint256 ans = 0;\r\n        string memory winner = \"\";\r\n\r\n        for (uint256 i = 0; i < votingRecord[_id].choices.length; i++) {\r\n            // string memory temp = votingRecord[_id].voteCount[votingRecord[_id].choices[i]];\r\n            if (\r\n                ans < votingRecord[_id].voteCount[votingRecord[_id].choices[i]]\r\n            ) {\r\n                ans = votingRecord[_id].voteCount[votingRecord[_id].choices[i]];\r\n                winner = votingRecord[_id].choices[i];\r\n            }\r\n        }\r\n        // this makes sure that party with no name does not get entereed in the map.\r\n        // this same can also be checked using ans variable i.e if it is 0, then do not enter.\r\n        if (\r\n            keccak256(abi.encodePacked(winner)) ==\r\n            keccak256(abi.encodePacked(\"\"))\r\n        ) {\r\n            return (winner, ans);\r\n        }\r\n        activeVotingMap[_id] = false; //firstly the voting is not active,\r\n        //now remove this id from the array...\r\n        uint256 _index = activeVotingIndex[_id]; //find the index\r\n        activeVotingIndex[activeVoting[activeVoting.length - 1]] = _index; //now change the index because we are not directly deleting but using swapping and then removing the voting from th elast..\r\n        activeVoting[_index] = activeVoting[activeVoting.length - 1]; //swap\r\n        activeVoting.pop(); //delete\r\n\r\n        //updates the past winners\r\n        previousWinners[_id][winner] = ans;\r\n        return (winner, ans);\r\n    }\r\n}\r\n",
  "sourcePath": "C:\\Users\\Neeraj\\Desktop\\Sterling Store\\src\\contracts\\Voting.sol",
  "compiler": {
    "name": "solc",
    "version": "0.8.20+commit.a1b79de6.Emscripten.clang"
  },
  "schemaVersion": "3.4.11",
  "updatedAt": "2023-05-21T13:19:53.206Z",
  "devdoc": {
    "kind": "dev",
    "methods": {},
    "version": 1
  },
  "userdoc": {
    "kind": "user",
    "methods": {},
    "version": 1
  }
}