{
  "contractName": "Voting",
  "abi": [
    {
      "inputs": [
        {
          "internalType": "string",
          "name": "",
          "type": "string"
        }
      ],
      "name": "votingRecord",
      "outputs": [
        {
          "internalType": "string",
          "name": "votingName",
          "type": "string"
        },
        {
          "internalType": "bool",
          "name": "votingStarted",
          "type": "bool"
        },
        {
          "internalType": "bool",
          "name": "resultDeclared",
          "type": "bool"
        },
        {
          "internalType": "address",
          "name": "owner",
          "type": "address"
        }
      ],
      "stateMutability": "view",
      "type": "function",
      "constant": true
    },
    {
      "inputs": [
        {
          "internalType": "uint256",
          "name": "_index",
          "type": "uint256"
        }
      ],
      "name": "activeVotings",
      "outputs": [
        {
          "internalType": "string",
          "name": "",
          "type": "string"
        }
      ],
      "stateMutability": "view",
      "type": "function",
      "constant": true
    },
    {
      "inputs": [],
      "name": "activeVotingLength",
      "outputs": [
        {
          "internalType": "uint256",
          "name": "",
          "type": "uint256"
        }
      ],
      "stateMutability": "view",
      "type": "function",
      "constant": true
    },
    {
      "inputs": [
        {
          "internalType": "string",
          "name": "_id",
          "type": "string"
        },
        {
          "internalType": "string",
          "name": "_votingName",
          "type": "string"
        }
      ],
      "name": "createNewVoting",
      "outputs": [],
      "stateMutability": "nonpayable",
      "type": "function"
    },
    {
      "inputs": [
        {
          "internalType": "string",
          "name": "_id",
          "type": "string"
        },
        {
          "internalType": "string",
          "name": "_contestant",
          "type": "string"
        }
      ],
      "name": "addChoices",
      "outputs": [],
      "stateMutability": "nonpayable",
      "type": "function"
    },
    {
      "inputs": [
        {
          "internalType": "string",
          "name": "_id",
          "type": "string"
        },
        {
          "internalType": "string",
          "name": "_votedFor",
          "type": "string"
        }
      ],
      "name": "newVote",
      "outputs": [],
      "stateMutability": "nonpayable",
      "type": "function"
    },
    {
      "inputs": [
        {
          "internalType": "string",
          "name": "_id",
          "type": "string"
        }
      ],
      "name": "startVoting",
      "outputs": [],
      "stateMutability": "nonpayable",
      "type": "function"
    },
    {
      "inputs": [
        {
          "internalType": "string",
          "name": "_id",
          "type": "string"
        }
      ],
      "name": "checkResult",
      "outputs": [
        {
          "internalType": "string",
          "name": "",
          "type": "string"
        },
        {
          "internalType": "uint256",
          "name": "",
          "type": "uint256"
        }
      ],
      "stateMutability": "nonpayable",
      "type": "function"
    }
  ],
  "bytecode": "0x608060405234801561001057600080fd5b50611f59806100206000396000f3fe608060405234801561001057600080fd5b50600436106100a5576000357c01000000000000000000000000000000000000000000000000000000009004806377fcf2511161007857806377fcf2511461012f5780637d0840a714610162578063aa74010814610192578063bd5f8a4d146101ae576100a5565b80631522fe17146100aa578063174ce19d146100c657806346834d1e146100e257806372d53d6e14610113575b600080fd5b6100c460048036038101906100bf9190611196565b6101cc565b005b6100e060048036038101906100db9190611196565b6103bf565b005b6100fc60048036038101906100f7919061120e565b610626565b60405161010a9291906112ef565b60405180910390f35b61012d6004803603810190610128919061120e565b610b14565b005b6101496004803603810190610144919061120e565b610d15565b604051610159949392919061137b565b60405180910390f35b61017c600480360381019061017791906113f3565b610e1d565b6040516101899190611420565b60405180910390f35b6101ac60048036038101906101a79190611196565b610ecd565b005b6101b6610fd2565b6040516101c39190611442565b60405180910390f35b81600015156000826040516101e19190611499565b908152602001604051809103902060010160009054906101000a900460ff16151514610242576040517f08c379a000000000000000000000000000000000000000000000000000000000815260040161023990611548565b60405180910390fd5b3373ffffffffffffffffffffffffffffffffffffffff166000846040516102699190611499565b908152602001604051809103902060010160029054906101000a900473ffffffffffffffffffffffffffffffffffffffff1673ffffffffffffffffffffffffffffffffffffffff16146102f1576040517f08c379a00000000000000000000000000000000000000000000000000000000081526004016102e8906115da565b60405180910390fd5b600015156000846040516103059190611499565b908152602001604051809103902060010160019054906101000a900460ff16151514610366576040517f08c379a000000000000000000000000000000000000000000000000000000000815260040161035d9061166c565b60405180910390fd5b6000836040516103769190611499565b9081526020016040518091039020600501829080600181540180825580915050600190039060005260206000200160009091909190915090816103b9919061189e565b50505050565b8133600015156000836040516103d59190611499565b908152602001604051809103902060030160008373ffffffffffffffffffffffffffffffffffffffff1673ffffffffffffffffffffffffffffffffffffffff16815260200190815260200160002060009054906101000a900460ff16151514610473576040517f08c379a000000000000000000000000000000000000000000000000000000000815260040161046a906119bc565b60405180910390fd5b600015156000856040516104879190611499565b908152602001604051809103902060010160019054906101000a900460ff161515146104e8576040517f08c379a00000000000000000000000000000000000000000000000000000000081526004016104df90611a4e565b60405180910390fd5b60016000856040516104fa9190611499565b908152602001604051809103902060030160003373ffffffffffffffffffffffffffffffffffffffff1673ffffffffffffffffffffffffffffffffffffffff16815260200190815260200160002060006101000a81548160ff021916908315150217905550826000856040516105709190611499565b908152602001604051809103902060040160003373ffffffffffffffffffffffffffffffffffffffff1673ffffffffffffffffffffffffffffffffffffffff16815260200190815260200160002090816105ca919061189e565b5060016000856040516105dd9190611499565b9081526020016040518091039020600201846040516105fc9190611499565b908152602001604051809103902060008282546106199190611a9d565b9250508190555050505050565b60606000823373ffffffffffffffffffffffffffffffffffffffff166000826040516106529190611499565b908152602001604051809103902060010160029054906101000a900473ffffffffffffffffffffffffffffffffffffffff1673ffffffffffffffffffffffffffffffffffffffff16146106da576040517f08c379a00000000000000000000000000000000000000000000000000000000081526004016106d190611b43565b60405180910390fd5b60016000856040516106ec9190611499565b908152602001604051809103902060010160016101000a81548160ff02191690831515021790555060008060405180602001604052806000815250905060005b60008760405161073c9190611499565b908152602001604051809103902060050180549050811015610931576000876040516107689190611499565b90815260200160405180910390206002016000886040516107899190611499565b908152602001604051809103902060050182815481106107ac576107ab611b63565b5b906000526020600020016040516107c39190611c15565b90815260200160405180910390205483101561091e576000876040516107e99190611499565b908152602001604051809103902060020160008860405161080a9190611499565b9081526020016040518091039020600501828154811061082d5761082c611b63565b5b906000526020600020016040516108449190611c15565b90815260200160405180910390205492506000876040516108659190611499565b9081526020016040518091039020600501818154811061088857610887611b63565b5b90600052602060002001805461089d906116bb565b80601f01602080910402602001604051908101604052809291908181526020018280546108c9906116bb565b80156109165780601f106108eb57610100808354040283529160200191610916565b820191906000526020600020905b8154815290600101906020018083116108f957829003601f168201915b505050505091505b808061092990611c2c565b91505061072c565b5060405160200161094190611c9a565b60405160208183030381529060405280519060200120816040516020016109689190611499565b6040516020818303038152906040528051906020012003610990578082945094505050610b0e565b60006002876040516109a29190611499565b908152602001604051809103902060006101000a81548160ff02191690831515021790555060006004876040516109d99190611499565b908152602001604051809103902054905080600460036001600380549050610a019190611caf565b81548110610a1257610a11611b63565b5b90600052602060002001604051610a299190611c15565b90815260200160405180910390208190555060036001600380549050610a4f9190611caf565b81548110610a6057610a5f611b63565b5b9060005260206000200160038281548110610a7e57610a7d611b63565b5b906000526020600020019081610a949190611d0e565b506003805480610aa757610aa6611df6565b5b600190038181906000526020600020016000610ac39190610fdf565b905582600188604051610ad69190611499565b908152602001604051809103902083604051610af29190611499565b9081526020016040518091039020819055508183955095505050505b50915091565b600081604051610b249190611499565b908152602001604051809103902060010160029054906101000a900473ffffffffffffffffffffffffffffffffffffffff1673ffffffffffffffffffffffffffffffffffffffff163373ffffffffffffffffffffffffffffffffffffffff1614610bc3576040517f08c379a0000000000000000000000000000000000000000000000000000000008152600401610bba90611e97565b60405180910390fd5b60001515600082604051610bd79190611499565b908152602001604051809103902060010160009054906101000a900460ff16151514610c38576040517f08c379a0000000000000000000000000000000000000000000000000000000008152600401610c2f90611f03565b60405180910390fd5b6001600082604051610c4a9190611499565b908152602001604051809103902060010160006101000a81548160ff021916908315150217905550600381908060018154018082558091505060019003906000526020600020016000909190919091509081610ca6919061189e565b506001600282604051610cb99190611499565b908152602001604051809103902060006101000a81548160ff0219169083151502179055506001600380549050610cf09190611caf565b600482604051610d009190611499565b90815260200160405180910390208190555050565b600081805160208101820180518482526020830160208501208183528095505050505050600091509050806000018054610d4e906116bb565b80601f0160208091040260200160405190810160405280929190818152602001828054610d7a906116bb565b8015610dc75780601f10610d9c57610100808354040283529160200191610dc7565b820191906000526020600020905b815481529060010190602001808311610daa57829003601f168201915b5050505050908060010160009054906101000a900460ff16908060010160019054906101000a900460ff16908060010160029054906101000a900473ffffffffffffffffffffffffffffffffffffffff16905084565b606060038281548110610e3357610e32611b63565b5b906000526020600020018054610e48906116bb565b80601f0160208091040260200160405190810160405280929190818152602001828054610e74906116bb565b8015610ec15780601f10610e9657610100808354040283529160200191610ec1565b820191906000526020600020905b815481529060010190602001808311610ea457829003601f168201915b50505050509050919050565b80600083604051610ede9190611499565b90815260200160405180910390206000019081610efb919061189e565b5060008083604051610f0d9190611499565b908152602001604051809103902060010160006101000a81548160ff02191690831515021790555033600083604051610f469190611499565b908152602001604051809103902060010160026101000a81548173ffffffffffffffffffffffffffffffffffffffff021916908373ffffffffffffffffffffffffffffffffffffffff16021790555060008083604051610fa69190611499565b908152602001604051809103902060010160016101000a81548160ff0219169083151502179055505050565b6000600380549050905090565b508054610feb906116bb565b6000825580601f10610ffd575061101c565b601f01602090049060005260206000209081019061101b919061101f565b5b50565b5b80821115611038576000816000905550600101611020565b5090565b6000604051905090565b600080fd5b600080fd5b600080fd5b600080fd5b6000601f19601f8301169050919050565b7f4e487b7100000000000000000000000000000000000000000000000000000000600052604160045260246000fd5b6110a38261105a565b810181811067ffffffffffffffff821117156110c2576110c161106b565b5b80604052505050565b60006110d561103c565b90506110e1828261109a565b919050565b600067ffffffffffffffff8211156111015761110061106b565b5b61110a8261105a565b9050602081019050919050565b82818337600083830152505050565b6000611139611134846110e6565b6110cb565b90508281526020810184848401111561115557611154611055565b5b611160848285611117565b509392505050565b600082601f83011261117d5761117c611050565b5b813561118d848260208601611126565b91505092915050565b600080604083850312156111ad576111ac611046565b5b600083013567ffffffffffffffff8111156111cb576111ca61104b565b5b6111d785828601611168565b925050602083013567ffffffffffffffff8111156111f8576111f761104b565b5b61120485828601611168565b9150509250929050565b60006020828403121561122457611223611046565b5b600082013567ffffffffffffffff8111156112425761124161104b565b5b61124e84828501611168565b91505092915050565b600081519050919050565b600082825260208201905092915050565b60005b83811015611291578082015181840152602081019050611276565b60008484015250505050565b60006112a882611257565b6112b28185611262565b93506112c2818560208601611273565b6112cb8161105a565b840191505092915050565b6000819050919050565b6112e9816112d6565b82525050565b60006040820190508181036000830152611309818561129d565b905061131860208301846112e0565b9392505050565b60008115159050919050565b6113348161131f565b82525050565b600073ffffffffffffffffffffffffffffffffffffffff82169050919050565b60006113658261133a565b9050919050565b6113758161135a565b82525050565b60006080820190508181036000830152611395818761129d565b90506113a4602083018661132b565b6113b1604083018561132b565b6113be606083018461136c565b95945050505050565b6113d0816112d6565b81146113db57600080fd5b50565b6000813590506113ed816113c7565b92915050565b60006020828403121561140957611408611046565b5b6000611417848285016113de565b91505092915050565b6000602082019050818103600083015261143a818461129d565b905092915050565b600060208201905061145760008301846112e0565b92915050565b600081905092915050565b600061147382611257565b61147d818561145d565b935061148d818560208601611273565b80840191505092915050565b60006114a58284611468565b915081905092915050565b7f43616e6e6f7420416464204e65772063686f696365732c20626563617573652060008201527f74686520766f74696e672068617320616c72656164792073746172746564212160208201527f2100000000000000000000000000000000000000000000000000000000000000604082015250565b6000611532604183611262565b915061153d826114b0565b606082019050919050565b6000602082019050818103600083015261156181611525565b9050919050565b7f596f75206e6565642074686520656e746974792074686174207374617274656460008201527f20766f74696e6720746f20616464206e6577207061727469636970616e747300602082015250565b60006115c4603f83611262565b91506115cf82611568565b604082019050919050565b600060208201905081810360008301526115f3816115b7565b9050919050565b7f596f752063616e6e6f74206164642061206e65772063686f6963652061732c2060008201527f526573756c7420697320616c7265616479206465636c617265642e2e2e000000602082015250565b6000611656603d83611262565b9150611661826115fa565b604082019050919050565b6000602082019050818103600083015261168581611649565b9050919050565b7f4e487b7100000000000000000000000000000000000000000000000000000000600052602260045260246000fd5b600060028204905060018216806116d357607f821691505b6020821081036116e6576116e561168c565b5b50919050565b60008190508160005260206000209050919050565b60006020601f8301049050919050565b60008160020a8302905092915050565b6000600883026117517fffffffffffffffffffffffffffffffffffffffffffffffffffffffffffffffff82611711565b61175b8683611711565b95508019841693508086168417925050509392505050565b6000819050919050565b600061179861179361178e846112d6565b611773565b6112d6565b9050919050565b6000819050919050565b6117b28361177d565b6117c66117be8261179f565b848454611721565b825550505050565b600090565b6117db6117ce565b6117e68184846117a9565b505050565b5b8181101561180a576117ff6000826117d3565b6001810190506117ec565b5050565b601f82111561184f57611820816116ec565b61182984611701565b81016020851015611838578190505b61184c61184485611701565b8301826117eb565b50505b505050565b60008160020a8304905092915050565b600061187560001984600802611854565b1980831691505092915050565b600061188e8383611864565b9150826002028217905092915050565b6118a782611257565b67ffffffffffffffff8111156118c0576118bf61106b565b5b6118ca82546116bb565b6118d582828561180e565b600060209050601f83116001811461190857600084156118f6578287015190505b6119008582611882565b865550611968565b601f198416611916866116ec565b60005b8281101561193e57848901518255600182019150602085019450602081019050611919565b8683101561195b5784890151611957601f891682611864565b8355505b6001600288020188555050505b505050505050565b7f596f75206861766520616c726561647920636173746564206120766f74652121600082015250565b60006119a6602083611262565b91506119b182611970565b602082019050919050565b600060208201905081810360008301526119d581611999565b9050919050565b7f596f752063616e6e6f7420636173742074686520766f74652c20526573756c7460008201527f20697320616c7265616479206465636c617265642e2e2e000000000000000000602082015250565b6000611a38603783611262565b9150611a43826119dc565b604082019050919050565b60006020820190508181036000830152611a6781611a2b565b9050919050565b7f4e487b7100000000000000000000000000000000000000000000000000000000600052601160045260246000fd5b6000611aa8826112d6565b9150611ab3836112d6565b9250828201905080821115611acb57611aca611a6e565b5b92915050565b7f596f75206e65656420746f20626520746865206f776e657220746f206465636c60008201527f6172652074686520726573756c74732e2e000000000000000000000000000000602082015250565b6000611b2d603183611262565b9150611b3882611ad1565b604082019050919050565b60006020820190508181036000830152611b5c81611b20565b9050919050565b7f4e487b7100000000000000000000000000000000000000000000000000000000600052603260045260246000fd5b60008154611b9f816116bb565b611ba9818661145d565b94506001821660008114611bc45760018114611bd957611c0c565b60ff1983168652811515820286019350611c0c565b611be2856116ec565b60005b83811015611c0457815481890152600182019150602081019050611be5565b838801955050505b50505092915050565b6000611c218284611b92565b915081905092915050565b6000611c37826112d6565b91507fffffffffffffffffffffffffffffffffffffffffffffffffffffffffffffffff8203611c6957611c68611a6e565b5b600182019050919050565b50565b6000611c8460008361145d565b9150611c8f82611c74565b600082019050919050565b6000611ca582611c77565b9150819050919050565b6000611cba826112d6565b9150611cc5836112d6565b9250828203905081811115611cdd57611cdc611a6e565b5b92915050565b600081549050611cf2816116bb565b9050919050565b60008190508160005260206000209050919050565b818103611d1c575050611df4565b611d2582611ce3565b67ffffffffffffffff811115611d3e57611d3d61106b565b5b611d4882546116bb565b611d5382828561180e565b6000601f831160018114611d825760008415611d70578287015490505b611d7a8582611882565b865550611ded565b601f198416611d9087611cf9565b9650611d9b866116ec565b60005b82811015611dc357848901548255600182019150600185019450602081019050611d9e565b86831015611de05784890154611ddc601f891682611864565b8355505b6001600288020188555050505b5050505050505b565b7f4e487b7100000000000000000000000000000000000000000000000000000000600052603160045260246000fd5b7f596f752063616e6e6f742073746172742074686520766f74696e672e20596f7560008201527f206e65656420746865206f776e6572206f66207468697320766f74696e672e00602082015250565b6000611e81603f83611262565b9150611e8c82611e25565b604082019050919050565b60006020820190508181036000830152611eb081611e74565b9050919050565b7f566f74696e672068617320616c726561647920737461727465642e0000000000600082015250565b6000611eed601b83611262565b9150611ef882611eb7565b602082019050919050565b60006020820190508181036000830152611f1c81611ee0565b905091905056fea2646970667358221220dc9210d8e152b2a2dbc0f94ecc9562c407b3077fd4fa1b7698d2d3f75964b54264736f6c63430008110033",
  "immutableReferences": {},
  "source": "// SPDX-License-Identifier: GPL-3.0\r\npragma solidity >=0.4.22 <0.9.0;\r\n\r\n// pragma solidity ^0.8.7;\r\n// pragma solidity ^0.7.0;\r\n\r\ncontract Voting {\r\n    struct participants {\r\n        //this will be the name of the voting that is being conducted....\r\n        string votingName;\r\n        //votingStarted tells wether the voting has started or not?\r\n        bool votingStarted;\r\n        //resultDeclared makes sure that this voting is not again accessed once its result has been declared.\r\n        bool resultDeclared;\r\n        //owner of the current voting\r\n        address owner;\r\n        //voteCount\r\n        mapping(string => uint256) voteCount;\r\n        //hasVoted\r\n        mapping(address => bool) hasVoted;\r\n        //votedFro\r\n        mapping(address => string) votedFor;\r\n        //array for all the participants or the choices available to vote...\r\n        string[] choices;\r\n    }\r\n    /*****\r\n    This mapping contains the \r\n    parameters:\r\n    string => whereinm this will be id and each id will be uniquely generated by frontend.\r\n    participants => structure wherein, we are creating a new participants and each new will have new variables.\r\n    *****/\r\n    mapping(string => participants) public votingRecord;\r\n\r\n    //all the previous winners i.e id => nameOfWinner => VotedRecieved\r\n    mapping(string => mapping(string => uint256)) previousWinners;\r\n\r\n    //mapping wherein, we store all the active votings and when a result is declared, we remove that voting from mapping.\r\n    //id=>bool\r\n    mapping(string => bool) activeVotingMap;\r\n\r\n    //stores the active voting _id\r\n    string[] activeVoting;\r\n\r\n    //stores the id and its index... Index is based on the activeVoting Array.\r\n    //id=>index in array...\r\n    mapping(string => uint256) activeVotingIndex;\r\n\r\n    //takes index and returns its id.\r\n    //Returns the id of the active votings....\r\n    function activeVotings(uint256 _index) public view returns (string memory) {\r\n        return activeVoting[_index];\r\n    }\r\n\r\n    //return active voting array's length...\r\n    function activeVotingLength() public view returns (uint256) {\r\n        return activeVoting.length;\r\n    }\r\n\r\n    /*****\r\n    eligibleToVote : checks if the current user is eligible to vote in this voting or not?\r\n    parameters:\r\n    _id: this is the voting id, i.e for which voting is the person trying to vote\r\n    _voter: this is the address of the person who is voting\r\n    parameters:\r\n    *****/\r\n    modifier eligibleToVote(string memory _id, address _voter) {\r\n        require(\r\n            votingRecord[_id].hasVoted[_voter] == false,\r\n            \"You have already casted a vote!!\"\r\n        );\r\n        _;\r\n    }\r\n\r\n    /*****\r\n    votingStatus : modifier makes sure that once voting has started, no-one can add new participants.\r\n    parameters:\r\n    _id\r\n    *****/\r\n    modifier votingStatus(string memory _id) {\r\n        require(\r\n            votingRecord[_id].votingStarted == false,\r\n            \"Cannot Add New choices, because the voting has already started!!!\"\r\n        );\r\n        _;\r\n    }\r\n    /*****\r\n    onlyOwner : modifier makes sure that Only owner can stop the voting.\r\n    parameters:\r\n    _id\r\n    *****/\r\n    modifier onlyOwner(string memory _id) {\r\n        require(\r\n            votingRecord[_id].owner == msg.sender,\r\n            \"You need to be the owner to declare the results..\"\r\n        );\r\n        _;\r\n    }\r\n\r\n    /***** \r\n    createNewVoting: Created new voting instance, meaning a new voting is started.\r\n    parameters:\r\n    _id: id generated from the frontend, which is eventually storing all the voting for this voting instance.\r\n    _votingName: name of the current voting.\r\n    *****/\r\n\r\n    function createNewVoting(string memory _id, string memory _votingName)\r\n        public\r\n    {\r\n        // participants storage newParticipant = votingRecord[_id];\r\n        // votingRecord[_id] = newParticipant;\r\n        votingRecord[_id].votingName = _votingName;\r\n        votingRecord[_id].votingStarted = false;\r\n        votingRecord[_id].owner = msg.sender;\r\n        votingRecord[_id].resultDeclared = false;\r\n    }\r\n\r\n    /***** \r\n    addChoices: Adds the participants in the choice only when the voting has not started, once it has started, it cannot be reversed back.\r\n    parameters:\r\n    Also only the owner of this voting can add new participants.\r\n    _id: id generated from the frontend, which is eventually storing all the voting for this voting instance.\r\n    _contestant: is the choices that we are going to get.\r\n    *****/\r\n    function addChoices(string memory _id, string memory _contestant)\r\n        public\r\n        votingStatus(_id)\r\n    {\r\n        require(\r\n            votingRecord[_id].owner == msg.sender,\r\n            \"You need the entity that started voting to add new participants\"\r\n        );\r\n        //makes sure that the voting has not been ended.\r\n        require(\r\n            votingRecord[_id].resultDeclared == false,\r\n            \"You cannot add a new choice as, Result is already declared...\"\r\n        );\r\n        votingRecord[_id].choices.push(_contestant);\r\n    }\r\n\r\n    /***** \r\n    newVote: Casts a new vote in the voting after checking if it is valid.\r\n    parameters:\r\n    _id: id generated from the frontend, which is eventually storing all the voting for this voting instance.\r\n    _contestant: is the choices that we are going to get.\r\n    *****/\r\n\r\n    //can also use indexing (like 0,1,2,3) but just to be on safer side using the string itself. ||Can be applied\r\n    function newVote(string memory _id, string memory _votedFor)\r\n        public\r\n        eligibleToVote(_id, msg.sender)\r\n    {\r\n        //makes sure that the voting has not been ended.\r\n        require(\r\n            votingRecord[_id].resultDeclared == false,\r\n            \"You cannot cast the vote, Result is already declared...\"\r\n        );\r\n        votingRecord[_id].hasVoted[msg.sender] = true;\r\n        votingRecord[_id].votedFor[msg.sender] = _votedFor;\r\n        votingRecord[_id].voteCount[_votedFor] += 1;\r\n    }\r\n\r\n    /***** \r\n    startVoting: Starts the voting if it has not already been started\r\n    parameters:\r\n    _id: id generated from the frontend, which is eventually storing all the voting for this voting instance.\r\n    *****/\r\n\r\n    function startVoting(string memory _id) public {\r\n        require(\r\n            msg.sender == votingRecord[_id].owner,\r\n            \"You cannot start the voting. You need the owner of this voting.\"\r\n        );\r\n        require(\r\n            votingRecord[_id].votingStarted == false,\r\n            \"Voting has already started.\"\r\n        );\r\n        votingRecord[_id].votingStarted = true;\r\n        activeVoting.push(_id); //push at the last.\r\n        activeVotingMap[_id] = true; //marking true of id in active votings...\r\n        activeVotingIndex[_id] = activeVoting.length - 1; //store the id=>index\r\n    }\r\n\r\n    /***** \r\n    checkResult: Returns the winner with the votes that he has recieved.\r\n    parameters:\r\n    _id: id generated from the frontend, which is eventually storing all the voting for this voting instance.\r\n    returns: name of the winner, and the votes recieved..\r\n    *****/\r\n    function checkResult(string memory _id)\r\n        public\r\n        onlyOwner(_id)\r\n        returns (string memory, uint256)\r\n    {\r\n        votingRecord[_id].resultDeclared = true; //updating the resultDecalred Counter\r\n        uint256 ans = 0;\r\n        string memory winner = \"\";\r\n\r\n        for (uint256 i = 0; i < votingRecord[_id].choices.length; i++) {\r\n            // string memory temp = votingRecord[_id].voteCount[votingRecord[_id].choices[i]];\r\n            if (\r\n                ans < votingRecord[_id].voteCount[votingRecord[_id].choices[i]]\r\n            ) {\r\n                ans = votingRecord[_id].voteCount[votingRecord[_id].choices[i]];\r\n                winner = votingRecord[_id].choices[i];\r\n            }\r\n        }\r\n        // this makes sure that party with no name does not get entereed in the map.\r\n        // this same can also be checked using ans variable i.e if it is 0, then do not enter.\r\n        if (\r\n            keccak256(abi.encodePacked(winner)) ==\r\n            keccak256(abi.encodePacked(\"\"))\r\n        ) {\r\n            return (winner, ans);\r\n        }\r\n        activeVotingMap[_id] = false; //firstly the voting is not active,\r\n        //now remove this id from the array...\r\n        uint256 _index = activeVotingIndex[_id]; //find the index\r\n        activeVotingIndex[activeVoting[activeVoting.length - 1]] = _index; //now change the index because we are not directly deleting but using swapping and then removing the voting from th elast..\r\n        activeVoting[_index] = activeVoting[activeVoting.length - 1]; //swap\r\n        activeVoting.pop(); //delete\r\n\r\n        //updates the past winners\r\n        previousWinners[_id][winner] = ans;\r\n        return (winner, ans);\r\n    }\r\n}\r\n",
  "sourcePath": "C:\\Users\\Neeraj\\Desktop\\Sterling Store\\src\\contracts\\Voting.sol",
  "compiler": {
    "name": "solc",
    "version": "0.8.17+commit.8df45f5f.Emscripten.clang"
  },
  "schemaVersion": "3.4.11",
  "updatedAt": "2023-01-14T17:03:04.671Z",
  "networkType": "ethereum",
  "devdoc": {
    "kind": "dev",
    "methods": {},
    "version": 1
  },
  "userdoc": {
    "kind": "user",
    "methods": {},
    "version": 1
  }
}