{
  "contractName": "Voting",
  "abi": [
    {
      "inputs": [
        {
          "internalType": "contract NFT",
          "name": "_nft",
          "type": "address"
        }
      ],
      "stateMutability": "nonpayable",
      "type": "constructor"
    },
    {
      "inputs": [
        {
          "internalType": "string",
          "name": "",
          "type": "string"
        }
      ],
      "name": "votingRecord",
      "outputs": [
        {
          "internalType": "string",
          "name": "votingName",
          "type": "string"
        },
        {
          "internalType": "bool",
          "name": "votingStarted",
          "type": "bool"
        },
        {
          "internalType": "bool",
          "name": "resultDeclared",
          "type": "bool"
        },
        {
          "internalType": "address",
          "name": "owner",
          "type": "address"
        }
      ],
      "stateMutability": "view",
      "type": "function",
      "constant": true
    },
    {
      "inputs": [
        {
          "internalType": "uint256",
          "name": "_index",
          "type": "uint256"
        }
      ],
      "name": "activeVotings",
      "outputs": [
        {
          "internalType": "string",
          "name": "",
          "type": "string"
        }
      ],
      "stateMutability": "view",
      "type": "function",
      "constant": true
    },
    {
      "inputs": [],
      "name": "activeVotingLength",
      "outputs": [
        {
          "internalType": "uint256",
          "name": "",
          "type": "uint256"
        }
      ],
      "stateMutability": "view",
      "type": "function",
      "constant": true
    },
    {
      "inputs": [
        {
          "internalType": "string",
          "name": "_tokenId",
          "type": "string"
        }
      ],
      "name": "getVotingName",
      "outputs": [
        {
          "internalType": "string",
          "name": "",
          "type": "string"
        }
      ],
      "stateMutability": "view",
      "type": "function",
      "constant": true
    },
    {
      "inputs": [
        {
          "internalType": "string",
          "name": "_id",
          "type": "string"
        },
        {
          "internalType": "string",
          "name": "_votingName",
          "type": "string"
        }
      ],
      "name": "createNewVoting",
      "outputs": [],
      "stateMutability": "nonpayable",
      "type": "function"
    },
    {
      "inputs": [
        {
          "internalType": "string",
          "name": "_id",
          "type": "string"
        },
        {
          "internalType": "string",
          "name": "_contestant",
          "type": "string"
        }
      ],
      "name": "addChoices",
      "outputs": [],
      "stateMutability": "nonpayable",
      "type": "function"
    },
    {
      "inputs": [
        {
          "internalType": "string",
          "name": "_id",
          "type": "string"
        }
      ],
      "name": "viewChoices",
      "outputs": [
        {
          "internalType": "string[]",
          "name": "",
          "type": "string[]"
        }
      ],
      "stateMutability": "view",
      "type": "function",
      "constant": true
    },
    {
      "inputs": [
        {
          "internalType": "string",
          "name": "_id",
          "type": "string"
        },
        {
          "internalType": "string",
          "name": "_votedFor",
          "type": "string"
        }
      ],
      "name": "newVote",
      "outputs": [],
      "stateMutability": "nonpayable",
      "type": "function"
    },
    {
      "inputs": [
        {
          "internalType": "string",
          "name": "_id",
          "type": "string"
        }
      ],
      "name": "startVoting",
      "outputs": [],
      "stateMutability": "nonpayable",
      "type": "function"
    },
    {
      "inputs": [
        {
          "internalType": "string",
          "name": "_id",
          "type": "string"
        }
      ],
      "name": "checkResult",
      "outputs": [
        {
          "internalType": "string",
          "name": "",
          "type": "string"
        },
        {
          "internalType": "uint256",
          "name": "",
          "type": "uint256"
        }
      ],
      "stateMutability": "nonpayable",
      "type": "function"
    }
  ],
  "bytecode": "0x60806040523480156200001157600080fd5b506040516200282d3803806200282d8339818101604052810190620000379190620000fc565b806000806101000a81548173ffffffffffffffffffffffffffffffffffffffff021916908373ffffffffffffffffffffffffffffffffffffffff160217905550506200012e565b600080fd5b600073ffffffffffffffffffffffffffffffffffffffff82169050919050565b6000620000b08262000083565b9050919050565b6000620000c482620000a3565b9050919050565b620000d681620000b7565b8114620000e257600080fd5b50565b600081519050620000f681620000cb565b92915050565b6000602082840312156200011557620001146200007e565b5b60006200012584828501620000e5565b91505092915050565b6126ef806200013e6000396000f3fe608060405234801561001057600080fd5b50600436106100bb576000357c01000000000000000000000000000000000000000000000000000000009004806377fcf2511161008357806377fcf251146101755780637b0261bb146101a85780637d0840a7146101d8578063aa74010814610208578063bd5f8a4d14610224576100bb565b806304fc2c0a146100c05780631522fe17146100f0578063174ce19d1461010c57806346834d1e1461012857806372d53d6e14610159575b600080fd5b6100da60048036038101906100d5919061167a565b610242565b6040516100e79190611742565b60405180910390f35b61010a60048036038101906101059190611764565b6102f5565b005b61012660048036038101906101219190611764565b6104e8565b005b610142600480360381019061013d919061167a565b610970565b6040516101509291906117f5565b60405180910390f35b610173600480360381019061016e919061167a565b610e5d565b005b61018f600480360381019061018a919061167a565b61105d565b60405161019f9493929190611881565b60405180910390f35b6101c260048036038101906101bd919061167a565b611165565b6040516101cf91906119d9565b60405180910390f35b6101f260048036038101906101ed9190611a27565b61125f565b6040516101ff9190611742565b60405180910390f35b610222600480360381019061021d9190611764565b61130f565b005b61022c6114b6565b6040516102399190611a54565b60405180910390f35b60606001826040516102549190611aab565b9081526020016040518091039020600001805461027090611af1565b80601f016020809104026020016040519081016040528092919081815260200182805461029c90611af1565b80156102e95780601f106102be576101008083540402835291602001916102e9565b820191906000526020600020905b8154815290600101906020018083116102cc57829003601f168201915b50505050509050919050565b816000151560018260405161030a9190611aab565b908152602001604051809103902060010160009054906101000a900460ff1615151461036b576040517f08c379a000000000000000000000000000000000000000000000000000000000815260040161036290611bba565b60405180910390fd5b3373ffffffffffffffffffffffffffffffffffffffff166001846040516103929190611aab565b908152602001604051809103902060010160029054906101000a900473ffffffffffffffffffffffffffffffffffffffff1673ffffffffffffffffffffffffffffffffffffffff161461041a576040517f08c379a000000000000000000000000000000000000000000000000000000000815260040161041190611c4c565b60405180910390fd5b6000151560018460405161042e9190611aab565b908152602001604051809103902060010160019054906101000a900460ff1615151461048f576040517f08c379a000000000000000000000000000000000000000000000000000000000815260040161048690611cde565b60405180910390fd5b60018360405161049f9190611aab565b9081526020016040518091039020600501829080600181540180825580915050600190039060005260206000200160009091909190915090816104e29190611eb0565b50505050565b8133600015156001836040516104fe9190611aab565b908152602001604051809103902060030160008373ffffffffffffffffffffffffffffffffffffffff1673ffffffffffffffffffffffffffffffffffffffff16815260200190815260200160002060009054906101000a900460ff1615151461059c576040517f08c379a000000000000000000000000000000000000000000000000000000000815260040161059390611fce565b60405180910390fd5b600115156001856040516105b09190611aab565b908152602001604051809103902060010160009054906101000a900460ff16151514610611576040517f08c379a00000000000000000000000000000000000000000000000000000000081526004016106089061203a565b60405180910390fd5b600015156001856040516106259190611aab565b908152602001604051809103902060010160019054906101000a900460ff16151514610686576040517f08c379a000000000000000000000000000000000000000000000000000000000815260040161067d906120cc565b60405180910390fd5b60008060009054906101000a900473ffffffffffffffffffffffffffffffffffffffff1673ffffffffffffffffffffffffffffffffffffffff16631bc2edae336040518263ffffffff167c01000000000000000000000000000000000000000000000000000000000281526004016106fe91906120ec565b602060405180830381865afa15801561071b573d6000803e3d6000fd5b505050506040513d601f19601f8201168201806040525081019061073f919061211c565b1161077f576040517f08c379a0000000000000000000000000000000000000000000000000000000008152600401610776906121bb565b60405180910390fd5b60008054906101000a900473ffffffffffffffffffffffffffffffffffffffff1673ffffffffffffffffffffffffffffffffffffffff1663a98baaf1336064426107c9919061220a565b6040518363ffffffff167c010000000000000000000000000000000000000000000000000000000002815260040161080292919061223e565b600060405180830381600087803b15801561081c57600080fd5b505af1158015610830573d6000803e3d6000fd5b50505050600180856040516108459190611aab565b908152602001604051809103902060030160003373ffffffffffffffffffffffffffffffffffffffff1673ffffffffffffffffffffffffffffffffffffffff16815260200190815260200160002060006101000a81548160ff021916908315150217905550826001856040516108bb9190611aab565b908152602001604051809103902060040160003373ffffffffffffffffffffffffffffffffffffffff1673ffffffffffffffffffffffffffffffffffffffff16815260200190815260200160002090816109159190611eb0565b50600180856040516109279190611aab565b9081526020016040518091039020600201846040516109469190611aab565b90815260200160405180910390206000828254610963919061220a565b9250508190555050505050565b60606000823373ffffffffffffffffffffffffffffffffffffffff1660018260405161099c9190611aab565b908152602001604051809103902060010160029054906101000a900473ffffffffffffffffffffffffffffffffffffffff1673ffffffffffffffffffffffffffffffffffffffff1614610a24576040517f08c379a0000000000000000000000000000000000000000000000000000000008152600401610a1b906122d9565b60405180910390fd5b60018085604051610a359190611aab565b908152602001604051809103902060010160016101000a81548160ff02191690831515021790555060008060405180602001604052806000815250905060005b600187604051610a859190611aab565b908152602001604051809103902060050180549050811015610c7a57600187604051610ab19190611aab565b9081526020016040518091039020600201600188604051610ad29190611aab565b90815260200160405180910390206005018281548110610af557610af46122f9565b5b90600052602060002001604051610b0c91906123ab565b908152602001604051809103902054831015610c6757600187604051610b329190611aab565b9081526020016040518091039020600201600188604051610b539190611aab565b90815260200160405180910390206005018281548110610b7657610b756122f9565b5b90600052602060002001604051610b8d91906123ab565b9081526020016040518091039020549250600187604051610bae9190611aab565b90815260200160405180910390206005018181548110610bd157610bd06122f9565b5b906000526020600020018054610be690611af1565b80601f0160208091040260200160405190810160405280929190818152602001828054610c1290611af1565b8015610c5f5780601f10610c3457610100808354040283529160200191610c5f565b820191906000526020600020905b815481529060010190602001808311610c4257829003601f168201915b505050505091505b8080610c72906123c2565b915050610a75565b50604051602001610c8a90612430565b6040516020818303038152906040528051906020012081604051602001610cb19190611aab565b6040516020818303038152906040528051906020012003610cd9578082945094505050610e57565b6000600387604051610ceb9190611aab565b908152602001604051809103902060006101000a81548160ff0219169083151502179055506000600587604051610d229190611aab565b908152602001604051809103902054905080600560046001600480549050610d4a9190612445565b81548110610d5b57610d5a6122f9565b5b90600052602060002001604051610d7291906123ab565b90815260200160405180910390208190555060046001600480549050610d989190612445565b81548110610da957610da86122f9565b5b9060005260206000200160048281548110610dc757610dc66122f9565b5b906000526020600020019081610ddd91906124a4565b506004805480610df057610def61258c565b5b600190038181906000526020600020016000610e0c91906114c3565b905582600288604051610e1f9190611aab565b908152602001604051809103902083604051610e3b9190611aab565b9081526020016040518091039020819055508183955095505050505b50915091565b600181604051610e6d9190611aab565b908152602001604051809103902060010160029054906101000a900473ffffffffffffffffffffffffffffffffffffffff1673ffffffffffffffffffffffffffffffffffffffff163373ffffffffffffffffffffffffffffffffffffffff1614610f0c576040517f08c379a0000000000000000000000000000000000000000000000000000000008152600401610f039061262d565b60405180910390fd5b60001515600182604051610f209190611aab565b908152602001604051809103902060010160009054906101000a900460ff16151514610f81576040517f08c379a0000000000000000000000000000000000000000000000000000000008152600401610f7890612699565b60405180910390fd5b60018082604051610f929190611aab565b908152602001604051809103902060010160006101000a81548160ff021916908315150217905550600481908060018154018082558091505060019003906000526020600020016000909190919091509081610fee9190611eb0565b5060016003826040516110019190611aab565b908152602001604051809103902060006101000a81548160ff02191690831515021790555060016004805490506110389190612445565b6005826040516110489190611aab565b90815260200160405180910390208190555050565b60018180516020810182018051848252602083016020850120818352809550505050505060009150905080600001805461109690611af1565b80601f01602080910402602001604051908101604052809291908181526020018280546110c290611af1565b801561110f5780601f106110e45761010080835404028352916020019161110f565b820191906000526020600020905b8154815290600101906020018083116110f257829003601f168201915b5050505050908060010160009054906101000a900460ff16908060010160019054906101000a900460ff16908060010160029054906101000a900473ffffffffffffffffffffffffffffffffffffffff16905084565b60606001826040516111779190611aab565b9081526020016040518091039020600501805480602002602001604051908101604052809291908181526020016000905b828210156112545783829060005260206000200180546111c790611af1565b80601f01602080910402602001604051908101604052809291908181526020018280546111f390611af1565b80156112405780601f1061121557610100808354040283529160200191611240565b820191906000526020600020905b81548152906001019060200180831161122357829003601f168201915b5050505050815260200190600101906111a8565b505050509050919050565b606060048281548110611275576112746122f9565b5b90600052602060002001805461128a90611af1565b80601f01602080910402602001604051908101604052809291908181526020018280546112b690611af1565b80156113035780601f106112d857610100808354040283529160200191611303565b820191906000526020600020905b8154815290600101906020018083116112e657829003601f168201915b50505050509050919050565b806001836040516113209190611aab565b9081526020016040518091039020600001908161133d9190611eb0565b5060006001836040516113509190611aab565b908152602001604051809103902060010160006101000a81548160ff021916908315150217905550336001836040516113899190611aab565b908152602001604051809103902060010160026101000a81548173ffffffffffffffffffffffffffffffffffffffff021916908373ffffffffffffffffffffffffffffffffffffffff16021790555060006001836040516113ea9190611aab565b908152602001604051809103902060010160016101000a81548160ff0219169083151502179055506004829080600181540180825580915050600190039060005260206000200160009091909190915090816114469190611eb0565b5060016003836040516114599190611aab565b908152602001604051809103902060006101000a81548160ff02191690831515021790555060016004805490506114909190612445565b6005836040516114a09190611aab565b9081526020016040518091039020819055505050565b6000600480549050905090565b5080546114cf90611af1565b6000825580601f106114e15750611500565b601f0160209004906000526020600020908101906114ff9190611503565b5b50565b5b8082111561151c576000816000905550600101611504565b5090565b6000604051905090565b600080fd5b600080fd5b600080fd5b600080fd5b6000601f19601f8301169050919050565b7f4e487b7100000000000000000000000000000000000000000000000000000000600052604160045260246000fd5b6115878261153e565b810181811067ffffffffffffffff821117156115a6576115a561154f565b5b80604052505050565b60006115b9611520565b90506115c5828261157e565b919050565b600067ffffffffffffffff8211156115e5576115e461154f565b5b6115ee8261153e565b9050602081019050919050565b82818337600083830152505050565b600061161d611618846115ca565b6115af565b90508281526020810184848401111561163957611638611539565b5b6116448482856115fb565b509392505050565b600082601f83011261166157611660611534565b5b813561167184826020860161160a565b91505092915050565b6000602082840312156116905761168f61152a565b5b600082013567ffffffffffffffff8111156116ae576116ad61152f565b5b6116ba8482850161164c565b91505092915050565b600081519050919050565b600082825260208201905092915050565b60005b838110156116fd5780820151818401526020810190506116e2565b60008484015250505050565b6000611714826116c3565b61171e81856116ce565b935061172e8185602086016116df565b6117378161153e565b840191505092915050565b6000602082019050818103600083015261175c8184611709565b905092915050565b6000806040838503121561177b5761177a61152a565b5b600083013567ffffffffffffffff8111156117995761179861152f565b5b6117a58582860161164c565b925050602083013567ffffffffffffffff8111156117c6576117c561152f565b5b6117d28582860161164c565b9150509250929050565b6000819050919050565b6117ef816117dc565b82525050565b6000604082019050818103600083015261180f8185611709565b905061181e60208301846117e6565b9392505050565b60008115159050919050565b61183a81611825565b82525050565b600073ffffffffffffffffffffffffffffffffffffffff82169050919050565b600061186b82611840565b9050919050565b61187b81611860565b82525050565b6000608082019050818103600083015261189b8187611709565b90506118aa6020830186611831565b6118b76040830185611831565b6118c46060830184611872565b95945050505050565b600081519050919050565b600082825260208201905092915050565b6000819050602082019050919050565b600082825260208201905092915050565b6000611915826116c3565b61191f81856118f9565b935061192f8185602086016116df565b6119388161153e565b840191505092915050565b600061194f838361190a565b905092915050565b6000602082019050919050565b600061196f826118cd565b61197981856118d8565b93508360208202850161198b856118e9565b8060005b858110156119c757848403895281516119a88582611943565b94506119b383611957565b925060208a0199505060018101905061198f565b50829750879550505050505092915050565b600060208201905081810360008301526119f38184611964565b905092915050565b611a04816117dc565b8114611a0f57600080fd5b50565b600081359050611a21816119fb565b92915050565b600060208284031215611a3d57611a3c61152a565b5b6000611a4b84828501611a12565b91505092915050565b6000602082019050611a6960008301846117e6565b92915050565b600081905092915050565b6000611a85826116c3565b611a8f8185611a6f565b9350611a9f8185602086016116df565b80840191505092915050565b6000611ab78284611a7a565b915081905092915050565b7f4e487b7100000000000000000000000000000000000000000000000000000000600052602260045260246000fd5b60006002820490506001821680611b0957607f821691505b602082108103611b1c57611b1b611ac2565b5b50919050565b7f43616e6e6f7420416464204e65772063686f696365732c20626563617573652060008201527f74686520766f74696e672068617320616c72656164792073746172746564212160208201527f2100000000000000000000000000000000000000000000000000000000000000604082015250565b6000611ba46041836116ce565b9150611baf82611b22565b606082019050919050565b60006020820190508181036000830152611bd381611b97565b9050919050565b7f596f75206e6565642074686520656e746974792074686174207374617274656460008201527f20766f74696e6720746f20616464206e6577207061727469636970616e747300602082015250565b6000611c36603f836116ce565b9150611c4182611bda565b604082019050919050565b60006020820190508181036000830152611c6581611c29565b9050919050565b7f596f752063616e6e6f74206164642061206e65772063686f6963652061732c2060008201527f526573756c7420697320616c7265616479206465636c617265642e2e2e000000602082015250565b6000611cc8603d836116ce565b9150611cd382611c6c565b604082019050919050565b60006020820190508181036000830152611cf781611cbb565b9050919050565b60008190508160005260206000209050919050565b60006020601f8301049050919050565b60008160020a8302905092915050565b600060088302611d637fffffffffffffffffffffffffffffffffffffffffffffffffffffffffffffffff82611d23565b611d6d8683611d23565b95508019841693508086168417925050509392505050565b6000819050919050565b6000611daa611da5611da0846117dc565b611d85565b6117dc565b9050919050565b6000819050919050565b611dc483611d8f565b611dd8611dd082611db1565b848454611d33565b825550505050565b600090565b611ded611de0565b611df8818484611dbb565b505050565b5b81811015611e1c57611e11600082611de5565b600181019050611dfe565b5050565b601f821115611e6157611e3281611cfe565b611e3b84611d13565b81016020851015611e4a578190505b611e5e611e5685611d13565b830182611dfd565b50505b505050565b60008160020a8304905092915050565b6000611e8760001984600802611e66565b1980831691505092915050565b6000611ea08383611e76565b9150826002028217905092915050565b611eb9826116c3565b67ffffffffffffffff811115611ed257611ed161154f565b5b611edc8254611af1565b611ee7828285611e20565b600060209050601f831160018114611f1a5760008415611f08578287015190505b611f128582611e94565b865550611f7a565b601f198416611f2886611cfe565b60005b82811015611f5057848901518255600182019150602085019450602081019050611f2b565b86831015611f6d5784890151611f69601f891682611e76565b8355505b6001600288020188555050505b505050505050565b7f596f75206861766520616c726561647920636173746564206120766f74652121600082015250565b6000611fb86020836116ce565b9150611fc382611f82565b602082019050919050565b60006020820190508181036000830152611fe781611fab565b9050919050565b7f566f74696e6720686173206e6f742073746172746564205965742e2e2e000000600082015250565b6000612024601d836116ce565b915061202f82611fee565b602082019050919050565b6000602082019050818103600083015261205381612017565b9050919050565b7f596f752063616e6e6f7420636173742074686520766f74652c20526573756c7460008201527f20697320616c7265616479206465636c617265642e2e2e000000000000000000602082015250565b60006120b66037836116ce565b91506120c18261205a565b604082019050919050565b600060208201905081810360008301526120e5816120a9565b9050919050565b60006020820190506121016000830184611872565b92915050565b600081519050612116816119fb565b92915050565b6000602082840312156121325761213161152a565b5b600061214084828501612107565b91505092915050565b7f506c65617365206f776e2061205370656369616c204e465420696e206f72646560008201527f7220746f20436173746520796f757220566f7465000000000000000000000000602082015250565b60006121a56034836116ce565b91506121b082612149565b604082019050919050565b600060208201905081810360008301526121d481612198565b9050919050565b7f4e487b7100000000000000000000000000000000000000000000000000000000600052601160045260246000fd5b6000612215826117dc565b9150612220836117dc565b9250828201905080821115612238576122376121db565b5b92915050565b60006040820190506122536000830185611872565b61226060208301846117e6565b9392505050565b7f596f75206e65656420746f20626520746865206f776e657220746f206465636c60008201527f6172652074686520726573756c74732e2e000000000000000000000000000000602082015250565b60006122c36031836116ce565b91506122ce82612267565b604082019050919050565b600060208201905081810360008301526122f2816122b6565b9050919050565b7f4e487b7100000000000000000000000000000000000000000000000000000000600052603260045260246000fd5b6000815461233581611af1565b61233f8186611a6f565b9450600182166000811461235a576001811461236f576123a2565b60ff19831686528115158202860193506123a2565b61237885611cfe565b60005b8381101561239a5781548189015260018201915060208101905061237b565b838801955050505b50505092915050565b60006123b78284612328565b915081905092915050565b60006123cd826117dc565b91507fffffffffffffffffffffffffffffffffffffffffffffffffffffffffffffffff82036123ff576123fe6121db565b5b600182019050919050565b50565b600061241a600083611a6f565b91506124258261240a565b600082019050919050565b600061243b8261240d565b9150819050919050565b6000612450826117dc565b915061245b836117dc565b9250828203905081811115612473576124726121db565b5b92915050565b60008154905061248881611af1565b9050919050565b60008190508160005260206000209050919050565b8181036124b257505061258a565b6124bb82612479565b67ffffffffffffffff8111156124d4576124d361154f565b5b6124de8254611af1565b6124e9828285611e20565b6000601f8311600181146125185760008415612506578287015490505b6125108582611e94565b865550612583565b601f1984166125268761248f565b965061253186611cfe565b60005b8281101561255957848901548255600182019150600185019450602081019050612534565b868310156125765784890154612572601f891682611e76565b8355505b6001600288020188555050505b5050505050505b565b7f4e487b7100000000000000000000000000000000000000000000000000000000600052603160045260246000fd5b7f596f752063616e6e6f742073746172742074686520766f74696e672e20596f7560008201527f206e65656420746865206f776e6572206f66207468697320766f74696e672e00602082015250565b6000612617603f836116ce565b9150612622826125bb565b604082019050919050565b600060208201905081810360008301526126468161260a565b9050919050565b7f566f74696e672068617320616c726561647920737461727465642e0000000000600082015250565b6000612683601b836116ce565b915061268e8261264d565b602082019050919050565b600060208201905081810360008301526126b281612676565b905091905056fea2646970667358221220517441db5da1fdacc6cea1c8e2833d49405975facbe0383c9fd499497d90fbcd64736f6c63430008110033",
  "immutableReferences": {},
  "source": "// SPDX-License-Identifier: MIT\r\npragma solidity >=0.4.22 <0.9.0;\r\nimport \"./NFT.sol\";\r\n\r\n//NEW INSTRUCTIONS TO DO\r\n//NFT MAI MAPPING BANAYI HAI DIFFERNT TYPES KI,\r\n// TO SABSE PHLE CHECK KRNA KI VOTE KR SKTA HAI YA NAHI BY USING MAPPING.\r\n// USKE BD USS NFT KO HARR MAPPING SE HATA DO YA FIR FALSE KRDO...AUR NAI TO CONTRACT ADDRESS PE TRANSFER KRNA HAI DIRECT...\r\n// TRANSFER FROM FUNCTION BHI BANANA HAI, JISME SE KI, JB TRANSFER HOTO SARI MAPPING UPDATE HO JAYE.\r\n// AND LAST BUT NOT THE LEAST, JAISE HE VOTE HO TB NFT TRANSFER HONI CHAHIUE.\r\ncontract Voting {\r\n    NFT nft_;\r\n\r\n    constructor(NFT _nft) {\r\n        nft_ = _nft;\r\n    }\r\n\r\n    struct participants {\r\n        //this will be the name of the voting that is being conducted....\r\n        string votingName;\r\n        //votingStarted tells wether the voting has started or not?\r\n        bool votingStarted;\r\n        //resultDeclared makes sure that this voting is not again accessed once its result has been declared.\r\n        bool resultDeclared;\r\n        //owner of the current voting\r\n        address owner;\r\n        //voteCount\r\n        mapping(string => uint256) voteCount;\r\n        //hasVoted\r\n        mapping(address => bool) hasVoted;\r\n        //votedFro\r\n        mapping(address => string) votedFor;\r\n        //array for all the participants or the choices available to vote...\r\n        string[] choices;\r\n    }\r\n    /*****\r\n    This mapping contains the \r\n    parameters:\r\n    string => whereinm this will be id and each id will be uniquely generated by frontend.\r\n    participants => structure wherein, we are creating a new participants and each new will have new variables.\r\n    *****/\r\n    mapping(string => participants) public votingRecord;\r\n\r\n    //all the previous winners i.e id => nameOfWinner => VotedRecieved\r\n    mapping(string => mapping(string => uint256)) previousWinners;\r\n\r\n    //mapping wherein, we store all the active votings and when a result is declared, we remove that voting from mapping.\r\n    //id=>bool\r\n    mapping(string => bool) activeVotingMap;\r\n\r\n    //stores the active voting _id\r\n    string[] activeVoting;\r\n\r\n    //stores the id and its index... Index is based on the activeVoting Array.\r\n    //id=>index in array...\r\n    mapping(string => uint256) activeVotingIndex;\r\n\r\n    //takes index and returns its id.\r\n    //Returns the id of the active votings....\r\n    function activeVotings(uint256 _index) public view returns (string memory) {\r\n        return activeVoting[_index];\r\n    }\r\n\r\n    //return active voting array's length...\r\n    function activeVotingLength() public view returns (uint256) {\r\n        return activeVoting.length;\r\n    }\r\n\r\n    function getVotingName(string memory _tokenId)\r\n        public\r\n        view\r\n        returns (string memory)\r\n    {\r\n        return votingRecord[_tokenId].votingName;\r\n    }\r\n\r\n    /*****\r\n    eligibleToVote : checks if the current user is eligible to vote in this voting or not?\r\n    parameters:\r\n    _id: this is the voting id, i.e for which voting is the person trying to vote\r\n    _voter: this is the address of the person who is voting\r\n    parameters:\r\n    *****/\r\n    modifier eligibleToVote(string memory _id, address _voter) {\r\n        require(\r\n            votingRecord[_id].hasVoted[_voter] == false,\r\n            \"You have already casted a vote!!\"\r\n        );\r\n        _;\r\n    }\r\n\r\n    /*****\r\n    votingStatus : modifier makes sure that once voting has started, no-one can add new participants.\r\n    parameters:\r\n    _id\r\n    *****/\r\n    modifier votingStatus(string memory _id) {\r\n        require(\r\n            votingRecord[_id].votingStarted == false,\r\n            \"Cannot Add New choices, because the voting has already started!!!\"\r\n        );\r\n        _;\r\n    }\r\n    /*****\r\n    onlyOwner : modifier makes sure that Only owner can stop the voting.\r\n    parameters:\r\n    _id\r\n    *****/\r\n    modifier onlyOwner(string memory _id) {\r\n        require(\r\n            votingRecord[_id].owner == msg.sender,\r\n            \"You need to be the owner to declare the results..\"\r\n        );\r\n        _;\r\n    }\r\n\r\n    /***** \r\n    createNewVoting: Created new voting instance, meaning a new voting is started.\r\n    parameters:\r\n    _id: id generated from the frontend, which is eventually storing all the voting for this voting instance.\r\n    _votingName: name of the current voting.\r\n    *****/\r\n\r\n    function createNewVoting(string memory _id, string memory _votingName)\r\n        public\r\n    {\r\n        // participants storage newParticipant = votingRecord[_id];\r\n        // votingRecord[_id] = newParticipant;\r\n        votingRecord[_id].votingName = _votingName;\r\n        votingRecord[_id].votingStarted = false;\r\n        votingRecord[_id].owner = msg.sender;\r\n        votingRecord[_id].resultDeclared = false;\r\n        activeVoting.push(_id); //push at the last.\r\n        activeVotingMap[_id] = true; //marking true of id in active votings...\r\n        activeVotingIndex[_id] = activeVoting.length - 1; //store the id=>index\r\n    }\r\n\r\n    /***** \r\n    addChoices: Adds the participants in the choice only when the voting has not started, once it has started, it cannot be reversed back.\r\n    parameters:\r\n    Also only the owner of this voting can add new participants.\r\n    _id: id generated from the frontend, which is eventually storing all the voting for this voting instance.\r\n    _contestant: is the choices that we are going to get.\r\n    *****/\r\n    function addChoices(string memory _id, string memory _contestant)\r\n        public\r\n        votingStatus(_id)\r\n    {\r\n        require(\r\n            votingRecord[_id].owner == msg.sender,\r\n            \"You need the entity that started voting to add new participants\"\r\n        );\r\n        //makes sure that the voting has not been ended.\r\n        require(\r\n            votingRecord[_id].resultDeclared == false,\r\n            \"You cannot add a new choice as, Result is already declared...\"\r\n        );\r\n        votingRecord[_id].choices.push(_contestant);\r\n    }\r\n\r\n    /***** \r\n    viewChoices: is the function that returns all the choices available for the voting.\r\n    parameters:\r\n    \r\n    _id: id generated from the frontend, which is eventually storing all the voting for this voting instance.\r\n    Returns:\r\n    string[] memory: Returns all the choices available for that id.\r\n    *****/\r\n\r\n    function viewChoices(string memory _id)\r\n        public\r\n        view\r\n        returns (string[] memory)\r\n    {\r\n        return votingRecord[_id].choices;\r\n    }\r\n\r\n    /***** \r\n    newVote: Casts a new vote in the voting after checking if it is valid.\r\n    parameters:\r\n    _id: id generated from the frontend, which is eventually storing all the voting for this voting instance.\r\n    _contestant: is the choices that we are going to get.\r\n    *****/\r\n\r\n    //can also use indexing (like 0,1,2,3) but just to be on safer side using the string itself. ||Can be applied\r\n    //uint _till should either be fixed or dynamic for the time being i am commenting the code.\r\n    // , uint _till\r\n    function newVote(string memory _id, string memory _votedFor)\r\n        public\r\n        eligibleToVote(_id, msg.sender)\r\n    {\r\n        require(\r\n            votingRecord[_id].votingStarted == true,\r\n            \"Voting has not started Yet...\"\r\n        );\r\n        //makes sure that the voting has not been ended.\r\n        require(\r\n            votingRecord[_id].resultDeclared == false,\r\n            \"You cannot cast the vote, Result is already declared...\"\r\n        );\r\n        //calling len function because we cannot directly acess mapping. So have created functions for it.\r\n        //make sure that person has NFT....\r\n        require(\r\n            nft_.AllSpecialNFTLength(msg.sender) > 0,\r\n            \"Please own a Special NFT in order to Caste your Vote\"\r\n        );\r\n        // nft_.StakeSpecialNFT(msg.sender, _till);\r\n        nft_.StakeSpecialNFT(msg.sender, block.timestamp + 100);\r\n        votingRecord[_id].hasVoted[msg.sender] = true;\r\n        votingRecord[_id].votedFor[msg.sender] = _votedFor;\r\n        votingRecord[_id].voteCount[_votedFor] += 1;\r\n    }\r\n\r\n    /***** \r\n    startVoting: Starts the voting if it has not already been started\r\n    parameters:\r\n    _id: id generated from the frontend, which is eventually storing all the voting for this voting instance.\r\n    *****/\r\n\r\n    function startVoting(string memory _id) public {\r\n        require(\r\n            msg.sender == votingRecord[_id].owner,\r\n            \"You cannot start the voting. You need the owner of this voting.\"\r\n        );\r\n        require(\r\n            votingRecord[_id].votingStarted == false,\r\n            \"Voting has already started.\"\r\n        );\r\n        votingRecord[_id].votingStarted = true;\r\n        activeVoting.push(_id); //push at the last.\r\n        activeVotingMap[_id] = true; //marking true of id in active votings...\r\n        activeVotingIndex[_id] = activeVoting.length - 1; //store the id=>index\r\n    }\r\n\r\n    /***** \r\n    checkResult: Returns the winner with the votes that he has recieved.\r\n    parameters:\r\n    _id: id generated from the frontend, which is eventually storing all the voting for this voting instance.\r\n    returns: name of the winner, and the votes recieved..\r\n    *****/\r\n    function checkResult(string memory _id)\r\n        public\r\n        onlyOwner(_id)\r\n        returns (string memory, uint256)\r\n    {\r\n        votingRecord[_id].resultDeclared = true; //updating the resultDecalred Counter\r\n        uint256 ans = 0;\r\n        string memory winner = \"\";\r\n\r\n        for (uint256 i = 0; i < votingRecord[_id].choices.length; i++) {\r\n            // string memory temp = votingRecord[_id].voteCount[votingRecord[_id].choices[i]];\r\n            if (\r\n                ans < votingRecord[_id].voteCount[votingRecord[_id].choices[i]]\r\n            ) {\r\n                ans = votingRecord[_id].voteCount[votingRecord[_id].choices[i]];\r\n                winner = votingRecord[_id].choices[i];\r\n            }\r\n        }\r\n        // this makes sure that party with no name does not get entereed in the map.\r\n        // this same can also be checked using ans variable i.e if it is 0, then do not enter.\r\n        if (\r\n            keccak256(abi.encodePacked(winner)) ==\r\n            keccak256(abi.encodePacked(\"\"))\r\n        ) {\r\n            return (winner, ans);\r\n        }\r\n        activeVotingMap[_id] = false; //firstly the voting is not active,\r\n        //now remove this id from the array...\r\n        uint256 _index = activeVotingIndex[_id]; //find the index\r\n        activeVotingIndex[activeVoting[activeVoting.length - 1]] = _index; //now change the index because we are not directly deleting but using swapping and then removing the voting from th elast..\r\n        activeVoting[_index] = activeVoting[activeVoting.length - 1]; //swap\r\n        activeVoting.pop(); //delete\r\n\r\n        //updates the past winners\r\n        previousWinners[_id][winner] = ans;\r\n        return (winner, ans);\r\n    }\r\n}\r\n",
  "sourcePath": "C:\\Users\\Neeraj\\Desktop\\Sterling Store\\src\\contracts\\Voting.sol",
  "compiler": {
    "name": "solc",
    "version": "0.8.17+commit.8df45f5f.Emscripten.clang"
  },
  "schemaVersion": "3.4.11",
  "updatedAt": "2023-01-25T03:43:17.260Z",
  "networkType": "ethereum",
  "devdoc": {
    "kind": "dev",
    "methods": {},
    "version": 1
  },
  "userdoc": {
    "kind": "user",
    "methods": {},
    "version": 1
  }
}